{
	"CardTrading.sol": {
		"CardTrading": {
			"abi": [
				{
					"inputs": [
						{
							"internalType": "address",
							"name": "inventoryAddress",
							"type": "address"
						}
					],
					"stateMutability": "nonpayable",
					"type": "constructor"
				},
				{
					"inputs": [
						{
							"internalType": "uint256",
							"name": "listingId",
							"type": "uint256"
						}
					],
					"name": "acceptListing",
					"outputs": [],
					"stateMutability": "nonpayable",
					"type": "function"
				},
				{
					"inputs": [
						{
							"internalType": "uint256",
							"name": "offerCardId",
							"type": "uint256"
						},
						{
							"internalType": "uint256",
							"name": "requestCardId",
							"type": "uint256"
						}
					],
					"name": "createListing",
					"outputs": [],
					"stateMutability": "nonpayable",
					"type": "function"
				},
				{
					"inputs": [],
					"name": "getAllListings",
					"outputs": [
						{
							"components": [
								{
									"internalType": "address",
									"name": "seller",
									"type": "address"
								},
								{
									"internalType": "uint256",
									"name": "offerCardId",
									"type": "uint256"
								},
								{
									"internalType": "uint256",
									"name": "requestCardId",
									"type": "uint256"
								},
								{
									"internalType": "bool",
									"name": "active",
									"type": "bool"
								}
							],
							"internalType": "struct CardTrading.Listing[]",
							"name": "",
							"type": "tuple[]"
						}
					],
					"stateMutability": "view",
					"type": "function"
				},
				{
					"inputs": [],
					"name": "inventory",
					"outputs": [
						{
							"internalType": "contract IInventoryManager",
							"name": "",
							"type": "address"
						}
					],
					"stateMutability": "view",
					"type": "function"
				},
				{
					"inputs": [
						{
							"internalType": "uint256",
							"name": "",
							"type": "uint256"
						}
					],
					"name": "listings",
					"outputs": [
						{
							"internalType": "address",
							"name": "seller",
							"type": "address"
						},
						{
							"internalType": "uint256",
							"name": "offerCardId",
							"type": "uint256"
						},
						{
							"internalType": "uint256",
							"name": "requestCardId",
							"type": "uint256"
						},
						{
							"internalType": "bool",
							"name": "active",
							"type": "bool"
						}
					],
					"stateMutability": "view",
					"type": "function"
				}
			],
			"devdoc": {
				"kind": "dev",
				"methods": {},
				"version": 1
			},
			"userdoc": {
				"kind": "user",
				"methods": {},
				"version": 1
			},
			"storageLayout": {
				"storage": [
					{
						"astId": 44,
						"contract": "CardTrading.sol:CardTrading",
						"label": "listings",
						"offset": 0,
						"slot": "0",
						"type": "t_array(t_struct(Listing)40_storage)dyn_storage"
					},
					{
						"astId": 47,
						"contract": "CardTrading.sol:CardTrading",
						"label": "inventory",
						"offset": 0,
						"slot": "1",
						"type": "t_contract(IInventoryManager)31"
					}
				],
				"types": {
					"t_address": {
						"encoding": "inplace",
						"label": "address",
						"numberOfBytes": "20"
					},
					"t_array(t_struct(Listing)40_storage)dyn_storage": {
						"base": "t_struct(Listing)40_storage",
						"encoding": "dynamic_array",
						"label": "struct CardTrading.Listing[]",
						"numberOfBytes": "32"
					},
					"t_bool": {
						"encoding": "inplace",
						"label": "bool",
						"numberOfBytes": "1"
					},
					"t_contract(IInventoryManager)31": {
						"encoding": "inplace",
						"label": "contract IInventoryManager",
						"numberOfBytes": "20"
					},
					"t_struct(Listing)40_storage": {
						"encoding": "inplace",
						"label": "struct CardTrading.Listing",
						"members": [
							{
								"astId": 33,
								"contract": "CardTrading.sol:CardTrading",
								"label": "seller",
								"offset": 0,
								"slot": "0",
								"type": "t_address"
							},
							{
								"astId": 35,
								"contract": "CardTrading.sol:CardTrading",
								"label": "offerCardId",
								"offset": 0,
								"slot": "1",
								"type": "t_uint256"
							},
							{
								"astId": 37,
								"contract": "CardTrading.sol:CardTrading",
								"label": "requestCardId",
								"offset": 0,
								"slot": "2",
								"type": "t_uint256"
							},
							{
								"astId": 39,
								"contract": "CardTrading.sol:CardTrading",
								"label": "active",
								"offset": 0,
								"slot": "3",
								"type": "t_bool"
							}
						],
						"numberOfBytes": "128"
					},
					"t_uint256": {
						"encoding": "inplace",
						"label": "uint256",
						"numberOfBytes": "32"
					}
				}
			},
			"evm": {
				"assembly": "// RO data = 0/0 bytes\n// RW data = 0/65552 bytes\n// Stack size = 16384 bytes\n\n// Instructions = 11760\n// Code size = 36865 bytes\n\n      : @0 (gas: 2)\n     0: i32 a2 = a0 >> 0x10\n     3: jump @6 if a2 != 0\n      : @1 (gas: 2)\n     6: a2 = 0x10001\n    11: jump @6 if a1 >=u a2\n      : @2 (gas: 4)\n    14: a1 = a1 + a0\n    17: i32 a1 = a1 + 0x1f\n    20: a1 = a1 & 0xffffffffffffffe0\n    23: jump @7 if a1 >=u 65537\n      : @3 (gas: 2)\n    29: a3 = i32 [0x20000]\n    34: jump @5 if a3 >=u a1\n      : @4 (gas: 4)\n    37: u32 [0x20000] = a1\n    42: a1 = 0x20010\n    47: a0 = a0 + a1\n    50: ret\n      : @5 (gas: 3)\n    52: a1 = 0x20010\n    57: a0 = a0 + a1\n    60: ret\n      : @6 (gas: 1)\n    62: trap\n      : @7 (gas: 1)\n    63: trap\n      : @8 (gas: 13)\n    64: sp = sp + 0xffffffffffffffd8\n    67: u64 [sp + 0x20] = ra\n    70: u64 [sp + 0x18] = s0\n    73: u64 [sp + 0x10] = s1\n    76: a2 = u64 [a1]\n    78: u64 [sp + 0x8] = a2\n    81: a2 = u64 [a1 + 0x8]\n    84: u64 [sp] = a2\n    86: s0 = u64 [a1 + 0x10]\n    89: s1 = u64 [a1 + 0x18]\n    92: i32 a0 = a0 + 0\n    94: a1 = 0x20\n    97: ra = 2, jump @0\n      : @9 [@dyn 1] (gas: 71)\n   101: a1 = reverse s1\n   103: a2 = reverse s0\n   105: a3 = u64 [sp]\n   107: a3 = reverse a3\n   109: a4 = u64 [sp + 0x8]\n   112: a4 = reverse a4\n   114: u8 [a0 + 0x18] = a4\n   117: u8 [a0 + 0x10] = a3\n   120: u8 [a0 + 0x8] = a2\n   123: u8 [a0] = a1\n   125: a5 = a4 >> 0x38\n   128: u8 [a0 + 0x1f] = a5\n   131: a5 = a4 >> 0x30\n   134: u8 [a0 + 0x1e] = a5\n   137: a5 = a4 >> 0x28\n   140: u8 [a0 + 0x1d] = a5\n   143: a5 = a4 >> 0x20\n   146: u8 [a0 + 0x1c] = a5\n   149: a5 = a4 >> 0x18\n   152: u8 [a0 + 0x1b] = a5\n   155: a5 = a4 >> 0x10\n   158: u8 [a0 + 0x1a] = a5\n   161: a4 = a4 >> 0x8\n   164: u8 [a0 + 0x19] = a4\n   167: a4 = a3 >> 0x38\n   170: u8 [a0 + 0x17] = a4\n   173: a4 = a3 >> 0x30\n   176: u8 [a0 + 0x16] = a4\n   179: a4 = a3 >> 0x28\n   182: u8 [a0 + 0x15] = a4\n   185: a4 = a3 >> 0x20\n   188: u8 [a0 + 0x14] = a4\n   191: a4 = a3 >> 0x18\n   194: u8 [a0 + 0x13] = a4\n   197: a4 = a3 >> 0x10\n   200: u8 [a0 + 0x12] = a4\n   203: a3 = a3 >> 0x8\n   206: u8 [a0 + 0x11] = a3\n   209: a3 = a2 >> 0x38\n   212: u8 [a0 + 0xf] = a3\n   215: a3 = a2 >> 0x30\n   218: u8 [a0 + 0xe] = a3\n   221: a3 = a2 >> 0x28\n   224: u8 [a0 + 0xd] = a3\n   227: a3 = a2 >> 0x20\n   230: u8 [a0 + 0xc] = a3\n   233: a3 = a2 >> 0x18\n   236: u8 [a0 + 0xb] = a3\n   239: a3 = a2 >> 0x10\n   242: u8 [a0 + 0xa] = a3\n   245: a2 = a2 >> 0x8\n   248: u8 [a0 + 0x9] = a2\n   251: a2 = a1 >> 0x38\n   254: u8 [a0 + 0x7] = a2\n   257: a2 = a1 >> 0x30\n   260: u8 [a0 + 0x6] = a2\n   263: a2 = a1 >> 0x28\n   266: u8 [a0 + 0x5] = a2\n   269: a2 = a1 >> 0x20\n   272: u8 [a0 + 0x4] = a2\n   275: a2 = a1 >> 0x18\n   278: u8 [a0 + 0x3] = a2\n   281: a2 = a1 >> 0x10\n   284: u8 [a0 + 0x2] = a2\n   287: a1 = a1 >> 0x8\n   290: u8 [a0 + 0x1] = a1\n   293: ra = u64 [sp + 0x20]\n   296: s0 = u64 [sp + 0x18]\n   299: s1 = u64 [sp + 0x10]\n   302: sp = sp + 0x28\n   305: ret\n      : @10 (gas: 6)\n   307: sp = sp + 0xfffffffffffffff0\n   310: u64 [sp + 0x8] = ra\n   313: u64 [sp] = s0\n   315: s0 = a0 & 0x1\n   318: ecalli 3 // 'call_data_size'\n   320: fallthrough\n      : @11 (gas: 2)\n   321: u32 [0x20004] = a0\n   326: jump @13 if s0 == 0\n      : @12 (gas: 1)\n   329: ra = 4, jump @14\n      : @13 [@dyn 2] (gas: 1)\n   333: ra = 6, jump @29\n      : @14 [@dyn 3] (gas: 9)\n   338: sp = sp + 0xffffffffffffff20\n   342: u64 [sp + 0xd8] = ra\n   346: u64 [sp + 0xd0] = s0\n   350: u64 [sp + 0xc8] = s1\n   354: s0 = sp + 0xe0\n   358: sp = sp & 0xffffffffffffffe0\n   361: a0 = 0x40\n   364: a1 = 0x20\n   367: ra = 8, jump @0\n      : @15 [@dyn 4] (gas: 39)\n   372: u8 [a0 + 31] = 0x80\n   377: u8 [a0 + 30] = 0\n   380: u8 [a0 + 29] = 0\n   383: u8 [a0 + 28] = 0\n   386: u8 [a0 + 27] = 0\n   389: u8 [a0 + 26] = 0\n   392: u8 [a0 + 25] = 0\n   395: u8 [a0 + 24] = 0\n   398: u8 [a0 + 23] = 0\n   401: u8 [a0 + 22] = 0\n   404: u8 [a0 + 21] = 0\n   407: u8 [a0 + 20] = 0\n   410: u8 [a0 + 19] = 0\n   413: u8 [a0 + 18] = 0\n   416: u8 [a0 + 17] = 0\n   419: u8 [a0 + 16] = 0\n   422: u8 [a0 + 15] = 0\n   425: u8 [a0 + 14] = 0\n   428: u8 [a0 + 13] = 0\n   431: u8 [a0 + 12] = 0\n   434: u8 [a0 + 11] = 0\n   437: u8 [a0 + 10] = 0\n   440: u8 [a0 + 9] = 0\n   443: u8 [a0 + 8] = 0\n   446: u8 [a0 + 7] = 0\n   449: u8 [a0 + 6] = 0\n   452: u8 [a0 + 5] = 0\n   455: u8 [a0 + 4] = 0\n   458: u8 [a0 + 3] = 0\n   461: u8 [a0 + 2] = 0\n   464: u8 [a0 + 1] = 0\n   467: u8 [a0 + 0] = 0\n   469: u64 [sp + 88] = 0\n   472: u64 [sp + 64] = 0\n   475: u64 [sp + 72] = 0\n   478: u64 [sp + 80] = 0\n   481: i32 a0 = sp + 0x40\n   484: ecalli 14 // 'value_transferred'\n   486: fallthrough\n      : @16 (gas: 8)\n   487: a0 = u64 [sp + 0x50]\n   490: a1 = u64 [sp + 0x58]\n   493: a2 = u64 [sp + 0x48]\n   496: a3 = u64 [sp + 0x40]\n   499: a1 = a1 | a2\n   502: a0 = a0 | a3\n   505: a0 = a0 | a1\n   508: jump @21 if a0 != 0\n      : @17 (gas: 20)\n   512: a0 = sp + 0x20\n   515: ra = 0xa\n   518: sp = sp + 0xffffffffffffff90\n   521: u64 [sp + 0x68] = ra\n   524: u64 [sp + 0x60] = s0\n   527: u64 [sp + 0x58] = s1\n   530: s0 = sp + 0x70\n   533: sp = sp & 0xfffffffffffffff0\n   536: s1 = i32 [0x20004]\n   541: u64 [sp + 0x8] = a0\n   544: a0 = s1 << 0x20\n   547: a0 = a0 >> 0x20\n   550: u64 [sp + 40] = 0\n   553: u64 [sp + 32] = 0\n   556: u64 [sp + 0x10] = a0\n   559: a0 = sp + 0x30\n   562: a1 = sp + 0x10\n   565: u64 [sp + 24] = 0\n   568: ra = 0x32\n   571: jump @46\n      : @18 [@dyn 5] (gas: 43)\n   574: a0 = u64 [sp + 0x20]\n   577: u64 [sp + 0x18] = a0\n   580: a0 = u64 [sp + 0x28]\n   583: u64 [sp + 0x10] = a0\n   586: s1 = u32 [sp + 0x30]\n   589: u64 [sp + 152] = 0\n   593: u64 [sp + 144] = 0\n   597: u64 [sp + 136] = 0\n   601: u64 [sp + 128] = 0x1\n   606: u64 [sp + 184] = 0\n   610: u64 [sp + 176] = 0\n   614: u64 [sp + 168] = 0\n   618: u64 [sp + 160] = 0\n   622: u32 [sp + 96] = 0x20\n   626: i32 a1 = sp + 0x80\n   630: i32 a3 = sp + 0xa0\n   634: i32 a4 = sp + 0x60\n   637: a2 = 0xffffffffffffffff\n   640: a0 = 0\n   642: ecalli 6 // 'get_storage'\n   644: a0 = u32 [sp + 0xb4]\n   648: a0 = a0 << 0x20\n   651: a1 = u64 [sp + 0xb8]\n   655: a0 = a0 | s1\n   658: u64 [sp + 152] = 0\n   662: u64 [sp + 144] = 0\n   666: u64 [sp + 136] = 0\n   670: u64 [sp + 128] = 0x1\n   675: u64 [sp + 0xb8] = a1\n   679: u64 [sp + 0xb0] = a0\n   683: a0 = u64 [sp + 0x10]\n   686: u64 [sp + 0xa8] = a0\n   690: a0 = u64 [sp + 0x18]\n   693: u64 [sp + 0xa0] = a0\n   697: i32 a1 = sp + 0x80\n   701: i32 a3 = sp + 0xa0\n   705: a2 = 0xffffffffffffffff\n   708: a4 = 0x20\n   711: a0 = 0\n   713: ecalli 13 // 'set_storage'\n   715: a0 = 0x40\n   718: a1 = 0x20\n   721: ra = 12, jump @0\n      : @19 [@dyn 6] (gas: 100)\n   726: a1 = u8 [a0 + 0x11]\n   729: a2 = u8 [a0 + 0x10]\n   732: a3 = u8 [a0 + 0x12]\n   735: a4 = u8 [a0 + 0x13]\n   738: a1 = a1 << 0x8\n   741: a1 = a1 | a2\n   744: a3 = a3 << 0x10\n   747: a4 = a4 << 0x18\n   750: a3 = a3 | a4\n   753: a1 = a1 | a3\n   756: a2 = u8 [a0 + 0x15]\n   759: a3 = u8 [a0 + 0x14]\n   762: a4 = u8 [a0 + 0x16]\n   765: a5 = u8 [a0 + 0x17]\n   768: a2 = a2 << 0x8\n   771: a2 = a2 | a3\n   774: a4 = a4 << 0x10\n   777: a5 = a5 << 0x18\n   780: a4 = a4 | a5\n   783: a2 = a2 | a4\n   786: a2 = a2 << 0x20\n   789: t0 = a2 | a1\n   792: a2 = u8 [a0 + 0x1]\n   795: a3 = u8 [a0]\n   797: a4 = u8 [a0 + 0x2]\n   800: a5 = u8 [a0 + 0x3]\n   803: a2 = a2 << 0x8\n   806: a2 = a2 | a3\n   809: a4 = a4 << 0x10\n   812: a5 = a5 << 0x18\n   815: a4 = a4 | a5\n   818: a2 = a2 | a4\n   821: a3 = u8 [a0 + 0x5]\n   824: a4 = u8 [a0 + 0x4]\n   827: a5 = u8 [a0 + 0x6]\n   830: s1 = u8 [a0 + 0x7]\n   833: a3 = a3 << 0x8\n   836: a3 = a3 | a4\n   839: a5 = a5 << 0x10\n   842: s1 = s1 << 0x18\n   845: a5 = a5 | s1\n   848: a3 = a3 | a5\n   851: a3 = a3 << 0x20\n   854: a2 = a2 | a3\n   857: a3 = u8 [a0 + 0x19]\n   860: a4 = u8 [a0 + 0x18]\n   863: a5 = u8 [a0 + 0x1a]\n   866: s1 = u8 [a0 + 0x1b]\n   869: a3 = a3 << 0x8\n   872: a3 = a3 | a4\n   875: a5 = a5 << 0x10\n   878: s1 = s1 << 0x18\n   881: a5 = a5 | s1\n   884: a3 = a3 | a5\n   887: a4 = u8 [a0 + 0x1d]\n   890: a5 = u8 [a0 + 0x1c]\n   893: s1 = u8 [a0 + 0x1e]\n   896: a1 = u8 [a0 + 0x1f]\n   899: a4 = a4 << 0x8\n   902: a4 = a4 | a5\n   905: s1 = s1 << 0x10\n   908: a1 = a1 << 0x18\n   911: a1 = a1 | s1\n   914: a1 = a1 | a4\n   917: a1 = a1 << 0x20\n   920: a3 = a3 | a1\n   923: a1 = u8 [a0 + 0x9]\n   926: a4 = u8 [a0 + 0x8]\n   929: a5 = u8 [a0 + 0xa]\n   932: s1 = u8 [a0 + 0xb]\n   935: a1 = a1 << 0x8\n   938: a1 = a1 | a4\n   941: a5 = a5 << 0x10\n   944: s1 = s1 << 0x18\n   947: a5 = a5 | s1\n   950: a1 = a1 | a5\n   953: a4 = u8 [a0 + 0xd]\n   956: a5 = u8 [a0 + 0xc]\n   959: s1 = u8 [a0 + 0xe]\n   962: a0 = u8 [a0 + 0xf]\n   965: a4 = a4 << 0x8\n   968: a4 = a4 | a5\n   971: s1 = s1 << 0x10\n   974: a0 = a0 << 0x18\n   977: a0 = a0 | s1\n   980: a0 = a0 | a4\n   983: a0 = a0 << 0x20\n   986: a0 = a0 | a1\n   989: a0 = reverse a0\n   991: s1 = reverse a3\n   993: a1 = reverse a2\n   995: a2 = reverse t0\n   997: a1 = a1 | a2\n  1000: a2 = s1 | a0\n  1003: a2 = a2 | a1\n  1006: a2 = a2 >> 0x20\n  1009: a0 = a0 | a1\n  1012: a0 = a0 << 0x20\n  1015: a0 = a0 | a2\n  1018: jump @23 if a0 == 0\n      : @20 (gas: 1)\n  1021: trap\n      : @21 (gas: 3)\n  1022: a0 = 0\n  1024: a1 = 0\n  1026: ra = 14, jump @0\n      : @22 [@dyn 7] (gas: 5)\n  1031: i32 a1 = a0 + 0\n  1033: a0 = 0x1\n  1036: a2 = 0\n  1038: ecalli 11 // 'seal_return'\n  1040: fallthrough\n      : @23 (gas: 4)\n  1041: i32 s1 = s1 + 0\n  1043: a0 = s1\n  1045: a1 = 0\n  1047: ra = 16, jump @0\n      : @24 [@dyn 8] (gas: 5)\n  1052: i32 a0 = a0 + 0\n  1054: a1 = 0\n  1056: a2 = 0\n  1058: ecalli 1 // 'call_data_copy'\n  1060: fallthrough\n      : @25 (gas: 2)\n  1061: a1 = i32 [0x20008]\n  1066: jump @27 if a1 == 0\n      : @26 (gas: 4)\n  1069: a0 = 0x30010\n  1074: i32 a0 = a0 + 0\n  1076: ecalli 12 // 'set_immutable_data'\n  1078: fallthrough\n      : @27 (gas: 3)\n  1079: a0 = s1\n  1081: a1 = 0\n  1083: ra = 18, jump @0\n      : @28 [@dyn 9] (gas: 6)\n  1088: i32 a1 = a0 + 0\n  1090: a0 = 0\n  1092: a2 = 0\n  1094: ra = 0x14\n  1097: ecalli 11 // 'seal_return'\n  1099: fallthrough\n      : @29 [@dyn 10] (gas: 8)\n  1100: sp = sp + 0xffffffffffffffc0\n  1103: u64 [sp + 0x38] = ra\n  1106: u64 [sp + 0x30] = s0\n  1109: s0 = sp + 0x40\n  1112: sp = sp & 0xffffffffffffffe0\n  1115: a0 = 0x40\n  1118: a1 = 0x20\n  1121: ra = 22, jump @0\n      : @30 [@dyn 11] (gas: 34)\n  1126: u8 [a0 + 31] = 0x80\n  1131: u8 [a0 + 30] = 0\n  1134: u8 [a0 + 29] = 0\n  1137: u8 [a0 + 28] = 0\n  1140: u8 [a0 + 27] = 0\n  1143: u8 [a0 + 26] = 0\n  1146: u8 [a0 + 25] = 0\n  1149: u8 [a0 + 24] = 0\n  1152: u8 [a0 + 23] = 0\n  1155: u8 [a0 + 22] = 0\n  1158: u8 [a0 + 21] = 0\n  1161: u8 [a0 + 20] = 0\n  1164: u8 [a0 + 19] = 0\n  1167: u8 [a0 + 18] = 0\n  1170: u8 [a0 + 17] = 0\n  1173: u8 [a0 + 16] = 0\n  1176: u8 [a0 + 15] = 0\n  1179: u8 [a0 + 14] = 0\n  1182: u8 [a0 + 13] = 0\n  1185: u8 [a0 + 12] = 0\n  1188: u8 [a0 + 11] = 0\n  1191: u8 [a0 + 10] = 0\n  1194: u8 [a0 + 9] = 0\n  1197: u8 [a0 + 8] = 0\n  1200: u8 [a0 + 7] = 0\n  1203: u8 [a0 + 3] = 0\n  1206: u8 [a0 + 2] = 0\n  1209: u8 [a0 + 1] = 0\n  1212: u8 [a0 + 0] = 0\n  1214: a1 = i32 [0x20004]\n  1219: u8 [a0 + 6] = 0\n  1222: u8 [a0 + 5] = 0\n  1225: u8 [a0 + 4] = 0\n  1228: jump @40 if a1 <u 4\n      : @31 (gas: 4)\n  1233: i32 a0 = sp + 0\n  1235: a1 = 0\n  1237: ecalli 2 // 'call_data_load'\n  1239: fallthrough\n      : @32 (gas: 2)\n  1240: a0 = i32 [sp + 0x1c]\n  1243: jump @37 if a0 <=s 2968316797\n      : @33 (gas: 1)\n  1250: jump @41 if a0 == 2968316798\n      : @34 (gas: 1)\n  1258: jump @42 if a0 == 3732202875\n      : @35 (gas: 1)\n  1266: jump @40 if a0 != 366291548\n      : @36 (gas: 14)\n  1273: ra = 0x18\n  1276: sp = sp + 0xffffffffffffff60\n  1280: u64 [sp + 0x98] = ra\n  1284: u64 [sp + 0x90] = s0\n  1288: u64 [sp + 0x88] = s1\n  1292: s0 = sp + 0xa0\n  1296: sp = sp & 0xffffffffffffffe0\n  1299: u64 [sp + 56] = 0\n  1302: u64 [sp + 48] = 0\n  1305: u64 [sp + 40] = 0\n  1308: u64 [sp + 32] = 0\n  1311: i32 a0 = sp + 0x20\n  1314: ecalli 14 // 'value_transferred'\n  1316: jump @67\n      : @37 [@dyn 12] (gas: 1)\n  1319: jump @43 if a0 == 2811306921\n      : @38 (gas: 1)\n  1327: jump @40 if a0 != 2926824684\n      : @39 (gas: 14)\n  1334: ra = 0x1a\n  1337: sp = sp + 0xfffffffffffffee0\n  1341: u64 [sp + 0x118] = ra\n  1345: u64 [sp + 0x110] = s0\n  1349: u64 [sp + 0x108] = s1\n  1353: s0 = sp + 0x120\n  1357: sp = sp & 0xffffffffffffffe0\n  1360: u64 [sp + 248] = 0\n  1364: u64 [sp + 240] = 0\n  1368: u64 [sp + 232] = 0\n  1372: u64 [sp + 224] = 0\n  1376: i32 a0 = sp + 0xe0\n  1380: ecalli 14 // 'value_transferred'\n  1382: jump @130\n      : @40 [@dyn 13] (gas: 7)\n  1385: ra = 0x1c\n  1388: sp = sp + 0xfffffffffffffff8\n  1391: u64 [sp] = ra\n  1393: a0 = 0\n  1395: a1 = 0\n  1397: ra = 0xbc\n  1401: jump @0\n      : @41 [@dyn 14] (gas: 1)\n  1404: ra = 30, jump @148\n      : @42 [@dyn 15] (gas: 14)\n  1409: ra = 0x20\n  1412: sp = sp + 0xfffffffffffffe60\n  1416: u64 [sp + 0x198] = ra\n  1420: u64 [sp + 0x190] = s0\n  1424: u64 [sp + 0x188] = s1\n  1428: s0 = sp + 0x1a0\n  1432: sp = sp & 0xffffffffffffffe0\n  1435: u64 [sp + 344] = 0\n  1439: u64 [sp + 336] = 0\n  1443: u64 [sp + 328] = 0\n  1447: u64 [sp + 320] = 0\n  1451: i32 a0 = sp + 0x140\n  1455: ecalli 14 // 'value_transferred'\n  1457: jump @183\n      : @43 [@dyn 16] (gas: 14)\n  1460: ra = 0x22\n  1463: sp = sp + 0xffffffffffffff40\n  1467: u64 [sp + 0xb8] = ra\n  1471: u64 [sp + 0xb0] = s0\n  1475: u64 [sp + 0xa8] = s1\n  1479: s0 = sp + 0xc0\n  1483: sp = sp & 0xffffffffffffffe0\n  1486: u64 [sp + 120] = 0\n  1489: u64 [sp + 112] = 0\n  1492: u64 [sp + 104] = 0\n  1495: u64 [sp + 96] = 0\n  1498: i32 a0 = sp + 0x60\n  1501: ecalli 14 // 'value_transferred'\n  1503: jump @78\n      : @44 [@dyn 17] (gas: 7)\n  1506: sp = sp + 0xfffffffffffffff0\n  1509: u64 [sp + 0x8] = ra\n  1512: u64 [sp] = s0\n  1514: s0 = a0\n  1516: a0 = 0x40\n  1519: a1 = 0x20\n  1522: ra = 36, jump @0\n      : @45 [@dyn 18] (gas: 100)\n  1527: a1 = u8 [a0 + 0x1]\n  1530: a2 = u8 [a0]\n  1532: a3 = u8 [a0 + 0x2]\n  1535: a4 = u8 [a0 + 0x3]\n  1538: a1 = a1 << 0x8\n  1541: a1 = a1 | a2\n  1544: a3 = a3 << 0x10\n  1547: a4 = a4 << 0x18\n  1550: a3 = a3 | a4\n  1553: a1 = a1 | a3\n  1556: a2 = u8 [a0 + 0x5]\n  1559: a3 = u8 [a0 + 0x4]\n  1562: a4 = u8 [a0 + 0x6]\n  1565: a5 = u8 [a0 + 0x7]\n  1568: a2 = a2 << 0x8\n  1571: a2 = a2 | a3\n  1574: a4 = a4 << 0x10\n  1577: a5 = a5 << 0x18\n  1580: a4 = a4 | a5\n  1583: a2 = a2 | a4\n  1586: a2 = a2 << 0x20\n  1589: t0 = a2 | a1\n  1592: a2 = u8 [a0 + 0x9]\n  1595: a3 = u8 [a0 + 0x8]\n  1598: a4 = u8 [a0 + 0xa]\n  1601: a5 = u8 [a0 + 0xb]\n  1604: a2 = a2 << 0x8\n  1607: a2 = a2 | a3\n  1610: a4 = a4 << 0x10\n  1613: a5 = a5 << 0x18\n  1616: a4 = a4 | a5\n  1619: a2 = a2 | a4\n  1622: a3 = u8 [a0 + 0xd]\n  1625: a4 = u8 [a0 + 0xc]\n  1628: a5 = u8 [a0 + 0xe]\n  1631: a1 = u8 [a0 + 0xf]\n  1634: a3 = a3 << 0x8\n  1637: a3 = a3 | a4\n  1640: a5 = a5 << 0x10\n  1643: a1 = a1 << 0x18\n  1646: a1 = a1 | a5\n  1649: a1 = a1 | a3\n  1652: a1 = a1 << 0x20\n  1655: t1 = a1 | a2\n  1658: a1 = u8 [a0 + 0x11]\n  1661: a3 = u8 [a0 + 0x10]\n  1664: a4 = u8 [a0 + 0x12]\n  1667: a5 = u8 [a0 + 0x13]\n  1670: a1 = a1 << 0x8\n  1673: a1 = a1 | a3\n  1676: a4 = a4 << 0x10\n  1679: a5 = a5 << 0x18\n  1682: a4 = a4 | a5\n  1685: a1 = a1 | a4\n  1688: a3 = u8 [a0 + 0x15]\n  1691: a4 = u8 [a0 + 0x14]\n  1694: a5 = u8 [a0 + 0x16]\n  1697: a2 = u8 [a0 + 0x17]\n  1700: a3 = a3 << 0x8\n  1703: a3 = a3 | a4\n  1706: a5 = a5 << 0x10\n  1709: a2 = a2 << 0x18\n  1712: a2 = a2 | a5\n  1715: a2 = a2 | a3\n  1718: a2 = a2 << 0x20\n  1721: a3 = a2 | a1\n  1724: a1 = u8 [a0 + 0x19]\n  1727: a2 = u8 [a0 + 0x18]\n  1730: a4 = u8 [a0 + 0x1a]\n  1733: a5 = u8 [a0 + 0x1b]\n  1736: a1 = a1 << 0x8\n  1739: a1 = a1 | a2\n  1742: a4 = a4 << 0x10\n  1745: a5 = a5 << 0x18\n  1748: a4 = a4 | a5\n  1751: a1 = a1 | a4\n  1754: a2 = u8 [a0 + 0x1d]\n  1757: a4 = u8 [a0 + 0x1c]\n  1760: a5 = u8 [a0 + 0x1e]\n  1763: a0 = u8 [a0 + 0x1f]\n  1766: a2 = a2 << 0x8\n  1769: a2 = a2 | a4\n  1772: a5 = a5 << 0x10\n  1775: a0 = a0 << 0x18\n  1778: a0 = a0 | a5\n  1781: a0 = a0 | a2\n  1784: a0 = a0 << 0x20\n  1787: a0 = a0 | a1\n  1790: a0 = reverse a0\n  1792: a1 = reverse a3\n  1794: a2 = reverse t1\n  1796: a3 = reverse t0\n  1798: u64 [s0 + 0x18] = a3\n  1801: u64 [s0 + 0x10] = a2\n  1804: u64 [s0 + 0x8] = a1\n  1807: u64 [s0] = a0\n  1809: ra = u64 [sp + 0x8]\n  1812: s0 = u64 [sp]\n  1814: sp = sp + 0x10\n  1817: ret\n      : @46 (gas: 18)\n  1819: sp = sp + 0xffffffffffffff60\n  1823: u64 [sp + 0x98] = ra\n  1827: u64 [sp + 0x90] = s0\n  1831: u64 [sp + 0x88] = s1\n  1835: s0 = sp + 0xa0\n  1839: sp = sp & 0xfffffffffffffff0\n  1842: a2 = u64 [a1 + 0x18]\n  1845: u64 [sp + 0x30] = a2\n  1848: a2 = u64 [a1 + 0x10]\n  1851: u64 [sp + 0x28] = a2\n  1854: a2 = u64 [a1 + 0x8]\n  1857: u64 [sp + 0x20] = a2\n  1860: a1 = u64 [a1]\n  1862: u64 [sp + 0x18] = a1\n  1865: u64 [sp + 0x38] = a0\n  1868: a0 = 0x40\n  1871: a1 = 0x20\n  1874: ra = 38, jump @0\n      : @47 [@dyn 19] (gas: 130)\n  1879: a1 = u8 [a0 + 0x19]\n  1882: a2 = u8 [a0 + 0x18]\n  1885: a3 = u8 [a0 + 0x1a]\n  1888: a4 = u8 [a0 + 0x1b]\n  1891: a1 = a1 << 0x8\n  1894: a1 = a1 | a2\n  1897: a3 = a3 << 0x10\n  1900: a4 = a4 << 0x18\n  1903: a3 = a3 | a4\n  1906: a1 = a1 | a3\n  1909: a2 = u8 [a0 + 0x1d]\n  1912: a3 = u8 [a0 + 0x1c]\n  1915: a4 = u8 [a0 + 0x1e]\n  1918: a5 = u8 [a0 + 0x1f]\n  1921: a2 = a2 << 0x8\n  1924: a2 = a2 | a3\n  1927: a4 = a4 << 0x10\n  1930: a5 = a5 << 0x18\n  1933: a4 = a4 | a5\n  1936: a2 = a2 | a4\n  1939: a2 = a2 << 0x20\n  1942: t0 = a2 | a1\n  1945: a2 = u8 [a0 + 0x11]\n  1948: a3 = u8 [a0 + 0x10]\n  1951: a4 = u8 [a0 + 0x12]\n  1954: a5 = u8 [a0 + 0x13]\n  1957: a2 = a2 << 0x8\n  1960: a2 = a2 | a3\n  1963: a4 = a4 << 0x10\n  1966: a5 = a5 << 0x18\n  1969: a4 = a4 | a5\n  1972: a2 = a2 | a4\n  1975: a3 = u8 [a0 + 0x15]\n  1978: a4 = u8 [a0 + 0x14]\n  1981: a5 = u8 [a0 + 0x16]\n  1984: s1 = u8 [a0 + 0x17]\n  1987: a3 = a3 << 0x8\n  1990: a3 = a3 | a4\n  1993: a5 = a5 << 0x10\n  1996: s1 = s1 << 0x18\n  1999: a5 = a5 | s1\n  2002: a3 = a3 | a5\n  2005: a3 = a3 << 0x20\n  2008: a2 = a2 | a3\n  2011: a3 = u8 [a0 + 0x9]\n  2014: a4 = u8 [a0 + 0x8]\n  2017: a5 = u8 [a0 + 0xa]\n  2020: s1 = u8 [a0 + 0xb]\n  2023: a3 = a3 << 0x8\n  2026: a3 = a3 | a4\n  2029: a5 = a5 << 0x10\n  2032: s1 = s1 << 0x18\n  2035: a5 = a5 | s1\n  2038: a3 = a3 | a5\n  2041: a4 = u8 [a0 + 0xd]\n  2044: a5 = u8 [a0 + 0xc]\n  2047: s1 = u8 [a0 + 0xe]\n  2050: a1 = u8 [a0 + 0xf]\n  2053: a4 = a4 << 0x8\n  2056: a4 = a4 | a5\n  2059: s1 = s1 << 0x10\n  2062: a1 = a1 << 0x18\n  2065: a1 = a1 | s1\n  2068: a1 = a1 | a4\n  2071: a1 = a1 << 0x20\n  2074: a3 = a3 | a1\n  2077: a1 = u8 [a0 + 0x1]\n  2080: a4 = u8 [a0]\n  2082: a5 = u8 [a0 + 0x2]\n  2085: s1 = u8 [a0 + 0x3]\n  2088: a1 = a1 << 0x8\n  2091: a1 = a1 | a4\n  2094: a5 = a5 << 0x10\n  2097: s1 = s1 << 0x18\n  2100: a5 = a5 | s1\n  2103: a1 = a1 | a5\n  2106: a4 = u8 [a0 + 0x5]\n  2109: a5 = u8 [a0 + 0x4]\n  2112: s1 = u8 [a0 + 0x6]\n  2115: a0 = u8 [a0 + 0x7]\n  2118: a4 = a4 << 0x8\n  2121: a4 = a4 | a5\n  2124: s1 = s1 << 0x10\n  2127: a0 = a0 << 0x18\n  2130: a0 = a0 | s1\n  2133: a0 = a0 | a4\n  2136: a0 = a0 << 0x20\n  2139: a0 = a0 | a1\n  2142: t1 = reverse a0\n  2144: t2 = reverse a3\n  2146: s1 = reverse a2\n  2148: a5 = reverse t0\n  2150: a1 = u64 [sp + 0x18]\n  2153: a0 = a1 + 0x1f\n  2156: a1 = a0 <u a1\n  2159: a3 = u64 [sp + 0x20]\n  2162: a2 = a3 + a1\n  2165: a3 = a2 <u a3\n  2168: a3 = a1 if a1 == 0\n  2171: a1 = u64 [sp + 0x28]\n  2174: a3 = a3 + a1\n  2177: a1 = a3 <u a1\n  2180: a4 = u64 [sp + 0x30]\n  2183: a1 = a1 + a4\n  2186: a0 = a0 & 0xffffffffffffffe0\n  2189: a0 = a0 + a5\n  2192: u64 [sp + 0x28] = a5\n  2195: u64 [sp + 0x10] = a0\n  2198: a4 = a0 <u a5\n  2201: a2 = a2 + s1\n  2204: a5 = a2 + a4\n  2207: a2 = a5 ^ s1\n  2210: u64 [sp + 0x30] = s1\n  2213: a0 = a5 <u s1\n  2216: a0 = a4 if a2 == 0\n  2219: a3 = a3 + t2\n  2222: a4 = a3 + a0\n  2225: s1 = a4 <u a3\n  2228: a2 = a3 <u t2\n  2231: a1 = a1 + t1\n  2234: a1 = a1 + a2\n  2237: s1 = s1 + a1\n  2240: a1 = a4 >u 0\n  2242: a2 = s1 >u 0\n  2244: a2 = a1 if s1 == 0\n  2247: a1 = a4 | s1\n  2250: u64 [sp + 0x8] = a5\n  2253: a3 = a5 >u 0\n  2255: a3 = a2 if a1 != 0\n  2258: jump @51 if a3 != 0\n      : @48 (gas: 8)\n  2262: a1 = a4 <u t2\n  2265: a2 = s1 ^ t1\n  2268: a3 = s1 <u t1\n  2271: a3 = a1 if a2 == 0\n  2274: a1 = a4 ^ t2\n  2277: a1 = a1 | a2\n  2280: a0 = a3 if a1 != 0\n  2283: jump @51 if a0 != 0\n      : @49 (gas: 6)\n  2287: a0 = 0x40\n  2290: a1 = 0x20\n  2293: u64 [sp + 0x20] = t2\n  2296: u64 [sp + 0x18] = t1\n  2299: u64 [sp] = a4\n  2301: ra = 40, jump @0\n      : @50 [@dyn 20] (gas: 82)\n  2306: a1 = reverse s1\n  2308: a2 = u64 [sp]\n  2310: a2 = reverse a2\n  2312: a3 = u64 [sp + 0x8]\n  2315: a3 = reverse a3\n  2317: a4 = u64 [sp + 0x10]\n  2320: a4 = reverse a4\n  2322: u8 [a0 + 0x18] = a4\n  2325: a5 = a4 >> 0x38\n  2328: u8 [a0 + 0x1f] = a5\n  2331: a5 = a4 >> 0x30\n  2334: u8 [a0 + 0x1e] = a5\n  2337: a5 = a4 >> 0x28\n  2340: u8 [a0 + 0x1d] = a5\n  2343: a5 = a4 >> 0x20\n  2346: u8 [a0 + 0x1c] = a5\n  2349: a5 = a4 >> 0x18\n  2352: u8 [a0 + 0x1b] = a5\n  2355: a5 = a4 >> 0x10\n  2358: u8 [a0 + 0x1a] = a5\n  2361: a4 = a4 >> 0x8\n  2364: u8 [a0 + 0x19] = a4\n  2367: u8 [a0 + 0x10] = a3\n  2370: a4 = a3 >> 0x38\n  2373: u8 [a0 + 0x17] = a4\n  2376: a4 = a3 >> 0x30\n  2379: u8 [a0 + 0x16] = a4\n  2382: a4 = a3 >> 0x28\n  2385: u8 [a0 + 0x15] = a4\n  2388: a4 = a3 >> 0x20\n  2391: u8 [a0 + 0x14] = a4\n  2394: a4 = a3 >> 0x18\n  2397: u8 [a0 + 0x13] = a4\n  2400: a4 = a3 >> 0x10\n  2403: u8 [a0 + 0x12] = a4\n  2406: a3 = a3 >> 0x8\n  2409: u8 [a0 + 0x11] = a3\n  2412: u8 [a0 + 0x8] = a2\n  2415: a3 = a2 >> 0x38\n  2418: u8 [a0 + 0xf] = a3\n  2421: a3 = a2 >> 0x30\n  2424: u8 [a0 + 0xe] = a3\n  2427: a3 = a2 >> 0x28\n  2430: u8 [a0 + 0xd] = a3\n  2433: a3 = a2 >> 0x20\n  2436: u8 [a0 + 0xc] = a3\n  2439: a3 = a2 >> 0x18\n  2442: u8 [a0 + 0xb] = a3\n  2445: a3 = a2 >> 0x10\n  2448: u8 [a0 + 0xa] = a3\n  2451: a2 = a2 >> 0x8\n  2454: u8 [a0 + 0x9] = a2\n  2457: u8 [a0] = a1\n  2459: a2 = a1 >> 0x38\n  2462: u8 [a0 + 0x7] = a2\n  2465: a2 = a1 >> 0x30\n  2468: u8 [a0 + 0x6] = a2\n  2471: a2 = a1 >> 0x28\n  2474: u8 [a0 + 0x5] = a2\n  2477: a2 = a1 >> 0x20\n  2480: u8 [a0 + 0x4] = a2\n  2483: a2 = a1 >> 0x18\n  2486: u8 [a0 + 0x3] = a2\n  2489: a2 = a1 >> 0x10\n  2492: u8 [a0 + 0x2] = a2\n  2495: a1 = a1 >> 0x8\n  2498: u8 [a0 + 0x1] = a1\n  2501: a0 = u64 [sp + 0x38]\n  2504: a1 = u64 [sp + 0x28]\n  2507: u64 [a0] = a1\n  2509: a1 = u64 [sp + 0x18]\n  2512: u64 [a0 + 0x18] = a1\n  2515: a1 = u64 [sp + 0x30]\n  2518: u64 [a0 + 0x8] = a1\n  2521: a1 = u64 [sp + 0x20]\n  2524: u64 [a0 + 0x10] = a1\n  2527: sp = s0 + 0xffffffffffffff60\n  2531: ra = u64 [sp + 0x98]\n  2535: s0 = u64 [sp + 0x90]\n  2539: s1 = u64 [sp + 0x88]\n  2543: sp = sp + 0xa0\n  2547: ret\n      : @51 (gas: 8)\n  2549: u64 [sp + 112] = 0\n  2552: u64 [sp + 104] = 0\n  2555: u64 [sp + 96] = 0\n  2558: a0 = 0x4e487b7100000000\n  2568: a1 = sp + 0x60\n  2571: u64 [sp + 0x78] = a0\n  2574: a0 = 0\n  2576: ra = 42, jump @8\n      : @52 [@dyn 21] (gas: 7)\n  2581: u64 [sp + 88] = 0\n  2584: u64 [sp + 80] = 0\n  2587: u64 [sp + 64] = 0x41\n  2591: a0 = 0x4\n  2594: a1 = sp + 0x40\n  2597: u64 [sp + 72] = 0\n  2600: ra = 44, jump @8\n      : @53 [@dyn 22] (gas: 3)\n  2605: a1 = 0x24\n  2608: a0 = 0\n  2610: ra = 46, jump @0\n      : @54 [@dyn 23] (gas: 6)\n  2615: i32 a1 = a0 + 0\n  2617: a0 = 0x1\n  2620: a2 = 0x24\n  2623: ra = 0x30\n  2626: ecalli 11 // 'seal_return'\n  2628: fallthrough\n      : @55 [@dyn 24] (gas: 8)\n  2629: a2 = u32 [a1 + 0x10]\n  2632: a3 = u64 [a1 + 0x8]\n  2635: a1 = u64 [a1]\n  2637: u64 [a0 + 24] = 0\n  2640: u64 [a0 + 0x10] = a2\n  2643: u64 [a0 + 0x8] = a3\n  2646: u64 [a0] = a1\n  2648: ret\n      : @56 [@dyn 25] (gas: 12)\n  2650: a1 = u64 [sp + 0x48]\n  2653: a2 = u64 [sp + 0x40]\n  2656: a3 = u64 [sp + 0x38]\n  2659: a0 = u64 [sp + 0x30]\n  2662: a1 = a1 | a3\n  2665: a3 = a0 | a2\n  2668: a3 = a3 | a1\n  2671: a3 = a3 >> 0x20\n  2674: a1 = a1 | a2\n  2677: a1 = a1 << 0x20\n  2680: a1 = a1 | a3\n  2683: jump @63 if a1 != 0\n      : @57 (gas: 4)\n  2687: i32 a0 = a0 + 0\n  2689: u64 [sp] = a0\n  2691: a1 = s1\n  2693: ra = 52, jump @0\n      : @58 [@dyn 26] (gas: 5)\n  2698: i32 a0 = a0 + 0\n  2700: a1 = s1\n  2702: a2 = 0\n  2704: ecalli 1 // 'call_data_copy'\n  2706: fallthrough\n      : @59 (gas: 1)\n  2707: jump @64 if s1 <=u 31\n      : @60 (gas: 3)\n  2712: a1 = 0x20\n  2715: a0 = u64 [sp]\n  2717: ra = 54, jump @0\n      : @61 [@dyn 27] (gas: 54)\n  2722: a1 = u8 [a0 + 0x9]\n  2725: a2 = u8 [a0 + 0x8]\n  2728: a3 = u8 [a0 + 0xa]\n  2731: a4 = u8 [a0 + 0xb]\n  2734: a1 = a1 << 0x8\n  2737: a1 = a1 | a2\n  2740: a3 = a3 << 0x10\n  2743: a4 = a4 << 0x18\n  2746: a3 = a3 | a4\n  2749: a1 = a1 | a3\n  2752: a2 = u8 [a0 + 0xd]\n  2755: a3 = u8 [a0 + 0xc]\n  2758: a4 = u8 [a0 + 0xe]\n  2761: a5 = u8 [a0 + 0xf]\n  2764: a2 = a2 << 0x8\n  2767: a2 = a2 | a3\n  2770: a4 = a4 << 0x10\n  2773: a5 = a5 << 0x18\n  2776: a4 = a4 | a5\n  2779: a2 = a2 | a4\n  2782: a2 = a2 << 0x20\n  2785: a2 = a2 | a1\n  2788: a1 = u8 [a0 + 0x1]\n  2791: a3 = u8 [a0]\n  2793: a4 = u8 [a0 + 0x2]\n  2796: a5 = u8 [a0 + 0x3]\n  2799: a1 = a1 << 0x8\n  2802: a1 = a1 | a3\n  2805: a4 = a4 << 0x10\n  2808: a5 = a5 << 0x18\n  2811: a4 = a4 | a5\n  2814: a1 = a1 | a4\n  2817: a3 = u8 [a0 + 0x5]\n  2820: a4 = u8 [a0 + 0x4]\n  2823: a5 = u8 [a0 + 0x6]\n  2826: s1 = u8 [a0 + 0x7]\n  2829: a3 = a3 << 0x8\n  2832: a3 = a3 | a4\n  2835: a5 = a5 << 0x10\n  2838: s1 = s1 << 0x18\n  2841: a5 = a5 | s1\n  2844: a3 = a3 | a5\n  2847: a3 = a3 << 0x20\n  2850: a1 = a1 | a3\n  2853: t0 = reverse a1\n  2855: a2 = reverse a2\n  2857: a3 = 0x100000000\n  2867: a3 = a3 ^ a2\n  2870: a3 = a3 | t0\n  2873: a4 = a2 >> 0x20\n  2876: a4 = a4 <u 0x1\n  2879: a4 = 0 if t0 != 0\n  2881: a4 = 0 if a3 == 0\n  2883: jump @64 if a4 == 0\n      : @62 (gas: 57)\n  2887: a3 = u8 [a0 + 0x19]\n  2890: a4 = u8 [a0 + 0x18]\n  2893: a5 = u8 [a0 + 0x1a]\n  2896: s1 = u8 [a0 + 0x1b]\n  2899: a3 = a3 << 0x8\n  2902: a3 = a3 | a4\n  2905: a5 = a5 << 0x10\n  2908: s1 = s1 << 0x18\n  2911: a5 = a5 | s1\n  2914: a3 = a3 | a5\n  2917: a4 = u8 [a0 + 0x1d]\n  2920: a5 = u8 [a0 + 0x1c]\n  2923: s1 = u8 [a0 + 0x1e]\n  2926: a1 = u8 [a0 + 0x1f]\n  2929: a4 = a4 << 0x8\n  2932: a4 = a4 | a5\n  2935: s1 = s1 << 0x10\n  2938: a1 = a1 << 0x18\n  2941: a1 = a1 | s1\n  2944: a1 = a1 | a4\n  2947: a1 = a1 << 0x20\n  2950: a3 = a3 | a1\n  2953: a1 = u8 [a0 + 0x11]\n  2956: a4 = u8 [a0 + 0x10]\n  2959: a5 = u8 [a0 + 0x12]\n  2962: s1 = u8 [a0 + 0x13]\n  2965: a1 = a1 << 0x8\n  2968: a1 = a1 | a4\n  2971: a5 = a5 << 0x10\n  2974: s1 = s1 << 0x18\n  2977: a5 = a5 | s1\n  2980: a1 = a1 | a5\n  2983: a4 = u8 [a0 + 0x15]\n  2986: a5 = u8 [a0 + 0x14]\n  2989: s1 = u8 [a0 + 0x16]\n  2992: a0 = u8 [a0 + 0x17]\n  2995: a4 = a4 << 0x8\n  2998: a4 = a4 | a5\n  3001: s1 = s1 << 0x10\n  3004: a0 = a0 << 0x18\n  3007: a0 = a0 | s1\n  3010: a0 = a0 | a4\n  3013: a0 = a0 << 0x20\n  3016: a0 = a0 | a1\n  3019: a0 = reverse a0\n  3021: a1 = reverse a3\n  3023: a3 = u64 [sp + 0x8]\n  3026: u64 [a3] = a1\n  3028: u64 [a3 + 0x8] = a0\n  3031: u64 [a3 + 0x10] = a2\n  3034: u64 [a3 + 0x18] = t0\n  3037: sp = s0 + 0xffffffffffffff90\n  3040: ra = u64 [sp + 0x68]\n  3043: s0 = u64 [sp + 0x60]\n  3046: s1 = u64 [sp + 0x58]\n  3049: sp = sp + 0x70\n  3052: ret\n      : @63 (gas: 1)\n  3054: trap\n      : @64 (gas: 3)\n  3055: a0 = 0\n  3057: a1 = 0\n  3059: ra = 56, jump @0\n      : @65 [@dyn 28] (gas: 6)\n  3064: i32 a1 = a0 + 0\n  3066: a0 = 0x1\n  3069: a2 = 0\n  3071: ra = 0x3a\n  3074: ecalli 11 // 'seal_return'\n  3076: fallthrough\n      : @66 [@dyn 29] (gas: 9)\n  3077: a2 = u64 [a1 + 0x18]\n  3080: a3 = u64 [a1 + 0x10]\n  3083: a4 = u64 [a1 + 0x8]\n  3086: a1 = u64 [a1]\n  3088: u64 [a0 + 0x18] = a2\n  3091: u64 [a0 + 0x10] = a3\n  3094: u64 [a0 + 0x8] = a4\n  3097: u64 [a0] = a1\n  3099: ret\n      : @67 (gas: 8)\n  3101: a0 = u64 [sp + 0x30]\n  3104: a1 = u64 [sp + 0x38]\n  3107: a2 = u64 [sp + 0x28]\n  3110: a3 = u64 [sp + 0x20]\n  3113: a1 = a1 | a2\n  3116: a0 = a0 | a3\n  3119: a0 = a0 | a1\n  3122: jump @72 if a0 != 0\n      : @68 (gas: 2)\n  3126: a0 = i32 [0x20004]\n  3131: jump @72 if a0 <=u 3\n      : @69 (gas: 24)\n  3136: u64 [sp + 88] = 0\n  3139: u64 [sp + 80] = 0\n  3142: u64 [sp + 72] = 0\n  3145: u64 [sp + 64] = 0x1\n  3149: u64 [sp + 120] = 0\n  3152: u64 [sp + 112] = 0\n  3155: u64 [sp + 104] = 0\n  3158: u64 [sp + 96] = 0\n  3161: u32 [sp + 128] = 0x20\n  3166: i32 a1 = sp + 0x40\n  3169: i32 a3 = sp + 0x60\n  3172: i32 a4 = sp + 0x80\n  3176: a2 = 0xffffffffffffffff\n  3179: a0 = 0\n  3181: ecalli 6 // 'get_storage'\n  3183: a0 = u64 [sp + 0x70]\n  3186: u64 [sp + 0x8] = a0\n  3189: a0 = u64 [sp + 0x68]\n  3192: u64 [sp + 0x10] = a0\n  3195: a0 = u64 [sp + 0x60]\n  3198: u64 [sp + 0x18] = a0\n  3201: a0 = 0x40\n  3204: a1 = 0x20\n  3207: ra = 60, jump @0\n      : @70 [@dyn 30] (gas: 100)\n  3212: a1 = u8 [a0 + 0x11]\n  3215: a2 = u8 [a0 + 0x10]\n  3218: a3 = u8 [a0 + 0x12]\n  3221: a4 = u8 [a0 + 0x13]\n  3224: a1 = a1 << 0x8\n  3227: a1 = a1 | a2\n  3230: a3 = a3 << 0x10\n  3233: a4 = a4 << 0x18\n  3236: a3 = a3 | a4\n  3239: a1 = a1 | a3\n  3242: a2 = u8 [a0 + 0x15]\n  3245: a3 = u8 [a0 + 0x14]\n  3248: a4 = u8 [a0 + 0x16]\n  3251: a5 = u8 [a0 + 0x17]\n  3254: a2 = a2 << 0x8\n  3257: a2 = a2 | a3\n  3260: a4 = a4 << 0x10\n  3263: a5 = a5 << 0x18\n  3266: a4 = a4 | a5\n  3269: a2 = a2 | a4\n  3272: a2 = a2 << 0x20\n  3275: t0 = a2 | a1\n  3278: a2 = u8 [a0 + 0x1]\n  3281: a3 = u8 [a0]\n  3283: a4 = u8 [a0 + 0x2]\n  3286: a5 = u8 [a0 + 0x3]\n  3289: a2 = a2 << 0x8\n  3292: a2 = a2 | a3\n  3295: a4 = a4 << 0x10\n  3298: a5 = a5 << 0x18\n  3301: a4 = a4 | a5\n  3304: a2 = a2 | a4\n  3307: a3 = u8 [a0 + 0x5]\n  3310: a4 = u8 [a0 + 0x4]\n  3313: a5 = u8 [a0 + 0x6]\n  3316: s1 = u8 [a0 + 0x7]\n  3319: a3 = a3 << 0x8\n  3322: a3 = a3 | a4\n  3325: a5 = a5 << 0x10\n  3328: s1 = s1 << 0x18\n  3331: a5 = a5 | s1\n  3334: a3 = a3 | a5\n  3337: a3 = a3 << 0x20\n  3340: a2 = a2 | a3\n  3343: a3 = u8 [a0 + 0x19]\n  3346: a4 = u8 [a0 + 0x18]\n  3349: a5 = u8 [a0 + 0x1a]\n  3352: s1 = u8 [a0 + 0x1b]\n  3355: a3 = a3 << 0x8\n  3358: a3 = a3 | a4\n  3361: a5 = a5 << 0x10\n  3364: s1 = s1 << 0x18\n  3367: a5 = a5 | s1\n  3370: a3 = a3 | a5\n  3373: a4 = u8 [a0 + 0x1d]\n  3376: a5 = u8 [a0 + 0x1c]\n  3379: s1 = u8 [a0 + 0x1e]\n  3382: a1 = u8 [a0 + 0x1f]\n  3385: a4 = a4 << 0x8\n  3388: a4 = a4 | a5\n  3391: s1 = s1 << 0x10\n  3394: a1 = a1 << 0x18\n  3397: a1 = a1 | s1\n  3400: a1 = a1 | a4\n  3403: a1 = a1 << 0x20\n  3406: a3 = a3 | a1\n  3409: a1 = u8 [a0 + 0x9]\n  3412: a4 = u8 [a0 + 0x8]\n  3415: a5 = u8 [a0 + 0xa]\n  3418: s1 = u8 [a0 + 0xb]\n  3421: a1 = a1 << 0x8\n  3424: a1 = a1 | a4\n  3427: a5 = a5 << 0x10\n  3430: s1 = s1 << 0x18\n  3433: a5 = a5 | s1\n  3436: a1 = a1 | a5\n  3439: a4 = u8 [a0 + 0xd]\n  3442: a5 = u8 [a0 + 0xc]\n  3445: s1 = u8 [a0 + 0xe]\n  3448: a0 = u8 [a0 + 0xf]\n  3451: a4 = a4 << 0x8\n  3454: a4 = a4 | a5\n  3457: s1 = s1 << 0x10\n  3460: a0 = a0 << 0x18\n  3463: a0 = a0 | s1\n  3466: a0 = a0 | a4\n  3469: a0 = a0 << 0x20\n  3472: a0 = a0 | a1\n  3475: a1 = reverse a0\n  3477: a0 = reverse a3\n  3479: a2 = reverse a2\n  3481: a3 = reverse t0\n  3483: a2 = a2 | a3\n  3486: a3 = a0 | a1\n  3489: a3 = a3 | a2\n  3492: a3 = a3 >> 0x20\n  3495: a1 = a1 | a2\n  3498: a1 = a1 << 0x20\n  3501: a1 = a1 | a3\n  3504: jump @74 if a1 == 0\n      : @71 (gas: 1)\n  3507: trap\n      : @72 (gas: 3)\n  3508: a0 = 0\n  3510: a1 = 0\n  3512: ra = 62, jump @0\n      : @73 [@dyn 31] (gas: 5)\n  3517: i32 a1 = a0 + 0\n  3519: a0 = 0x1\n  3522: a2 = 0\n  3524: ecalli 11 // 'seal_return'\n  3526: fallthrough\n      : @74 (gas: 7)\n  3527: a1 = u64 [sp + 0x8]\n  3530: a1 = a1 << 0x20\n  3533: s1 = a1 >> 0x20\n  3536: i32 a0 = a0 + 0\n  3538: u64 [sp + 0x8] = a0\n  3541: a1 = 0x20\n  3544: ra = 64, jump @0\n      : @75 [@dyn 32] (gas: 58)\n  3549: a1 = reverse s1\n  3551: a2 = u64 [sp + 0x10]\n  3554: a2 = reverse a2\n  3556: a3 = u64 [sp + 0x18]\n  3559: a3 = reverse a3\n  3561: a4 = a3 >> 0x38\n  3564: u8 [a0 + 0x1f] = a4\n  3567: a4 = a3 >> 0x30\n  3570: u8 [a0 + 0x1e] = a4\n  3573: a4 = a3 >> 0x28\n  3576: u8 [a0 + 0x1d] = a4\n  3579: a4 = a3 >> 0x20\n  3582: u8 [a0 + 0x1c] = a4\n  3585: a4 = a3 >> 0x18\n  3588: u8 [a0 + 0x1b] = a4\n  3591: a4 = a3 >> 0x10\n  3594: u8 [a0 + 0x1a] = a4\n  3597: a4 = a3 >> 0x8\n  3600: u8 [a0 + 0x19] = a4\n  3603: u8 [a0 + 0x18] = a3\n  3606: u8 [a0 + 0x10] = a2\n  3609: u8 [a0 + 11] = 0\n  3612: u8 [a0 + 10] = 0\n  3615: u8 [a0 + 9] = 0\n  3618: u8 [a0 + 7] = 0\n  3621: u8 [a0 + 6] = 0\n  3624: u8 [a0 + 5] = 0\n  3627: u8 [a0 + 4] = 0\n  3630: u8 [a0 + 3] = 0\n  3633: u8 [a0 + 2] = 0\n  3636: u8 [a0 + 1] = 0\n  3639: u8 [a0 + 0] = 0\n  3641: a3 = a2 >> 0x38\n  3644: u8 [a0 + 0x17] = a3\n  3647: a3 = a2 >> 0x30\n  3650: u8 [a0 + 0x16] = a3\n  3653: a3 = a2 >> 0x28\n  3656: u8 [a0 + 0x15] = a3\n  3659: a3 = a2 >> 0x20\n  3662: u8 [a0 + 0x14] = a3\n  3665: a3 = a2 >> 0x18\n  3668: u8 [a0 + 0x13] = a3\n  3671: a3 = a2 >> 0x10\n  3674: u8 [a0 + 0x12] = a3\n  3677: a2 = a2 >> 0x8\n  3680: u8 [a0 + 0x11] = a2\n  3683: u8 [a0 + 0x8] = a1\n  3686: a2 = a1 >> 0x38\n  3689: u8 [a0 + 0xf] = a2\n  3692: a2 = a1 >> 0x30\n  3695: u8 [a0 + 0xe] = a2\n  3698: a2 = a1 >> 0x28\n  3701: u8 [a0 + 0xd] = a2\n  3704: a1 = a1 >> 0x20\n  3707: u8 [a0 + 0xc] = a1\n  3710: a1 = 0x20\n  3713: a0 = u64 [sp + 0x8]\n  3716: ra = 66, jump @0\n      : @76 [@dyn 33] (gas: 6)\n  3721: i32 a1 = a0 + 0\n  3723: a2 = 0x20\n  3726: a0 = 0\n  3728: ra = 0x44\n  3731: ecalli 11 // 'seal_return'\n  3733: fallthrough\n      : @77 [@dyn 34] (gas: 9)\n  3734: a2 = u64 [a1 + 0x18]\n  3737: a3 = u64 [a1 + 0x10]\n  3740: a4 = u64 [a1 + 0x8]\n  3743: a1 = u64 [a1]\n  3745: u64 [a0 + 0x18] = a2\n  3748: u64 [a0 + 0x10] = a3\n  3751: u64 [a0 + 0x8] = a4\n  3754: u64 [a0] = a1\n  3756: ret\n      : @78 (gas: 8)\n  3758: a0 = u64 [sp + 0x70]\n  3761: a1 = u64 [sp + 0x78]\n  3764: a2 = u64 [sp + 0x68]\n  3767: a3 = u64 [sp + 0x60]\n  3770: a1 = a1 | a2\n  3773: a0 = a0 | a3\n  3776: a0 = a0 | a1\n  3779: jump @84 if a0 != 0\n      : @79 (gas: 2)\n  3783: a0 = i32 [0x20004]\n  3788: jump @84 if a0 <=u 67\n      : @80 (gas: 31)\n  3793: i32 a0 = sp + 0x80\n  3797: a1 = 0x4\n  3800: ecalli 2 // 'call_data_load'\n  3802: a0 = u64 [sp + 0x80]\n  3806: u64 [sp + 0x18] = a0\n  3809: a0 = u64 [sp + 0x88]\n  3813: u64 [sp + 0x10] = a0\n  3816: a0 = u64 [sp + 0x90]\n  3820: u64 [sp + 0x8] = a0\n  3823: s1 = u64 [sp + 0x98]\n  3827: i32 a0 = sp + 0x80\n  3831: a1 = 0x24\n  3834: ecalli 2 // 'call_data_load'\n  3836: a0 = u64 [sp + 0x80]\n  3840: a1 = u64 [sp + 0x88]\n  3844: a2 = u64 [sp + 0x90]\n  3848: a3 = u64 [sp + 0x98]\n  3852: u64 [sp + 0x38] = a3\n  3855: u64 [sp + 0x30] = a2\n  3858: u64 [sp + 0x28] = a1\n  3861: u64 [sp + 0x20] = a0\n  3864: u64 [sp + 0x58] = s1\n  3867: a0 = u64 [sp + 0x8]\n  3870: u64 [sp + 0x50] = a0\n  3873: a0 = u64 [sp + 0x10]\n  3876: u64 [sp + 0x48] = a0\n  3879: a0 = sp + 0x40\n  3882: a1 = sp + 0x20\n  3885: a2 = u64 [sp + 0x18]\n  3888: u64 [sp + 0x40] = a2\n  3891: ra = 70, jump @259\n      : @81 [@dyn 35] (gas: 3)\n  3896: a0 = 0x40\n  3899: a1 = 0x20\n  3902: ra = 72, jump @0\n      : @82 [@dyn 36] (gas: 100)\n  3907: a1 = u8 [a0 + 0x11]\n  3910: a2 = u8 [a0 + 0x10]\n  3913: a3 = u8 [a0 + 0x12]\n  3916: a4 = u8 [a0 + 0x13]\n  3919: a1 = a1 << 0x8\n  3922: a1 = a1 | a2\n  3925: a3 = a3 << 0x10\n  3928: a4 = a4 << 0x18\n  3931: a3 = a3 | a4\n  3934: a1 = a1 | a3\n  3937: a2 = u8 [a0 + 0x15]\n  3940: a3 = u8 [a0 + 0x14]\n  3943: a4 = u8 [a0 + 0x16]\n  3946: a5 = u8 [a0 + 0x17]\n  3949: a2 = a2 << 0x8\n  3952: a2 = a2 | a3\n  3955: a4 = a4 << 0x10\n  3958: a5 = a5 << 0x18\n  3961: a4 = a4 | a5\n  3964: a2 = a2 | a4\n  3967: a2 = a2 << 0x20\n  3970: t0 = a2 | a1\n  3973: a2 = u8 [a0 + 0x1]\n  3976: a3 = u8 [a0]\n  3978: a4 = u8 [a0 + 0x2]\n  3981: a5 = u8 [a0 + 0x3]\n  3984: a2 = a2 << 0x8\n  3987: a2 = a2 | a3\n  3990: a4 = a4 << 0x10\n  3993: a5 = a5 << 0x18\n  3996: a4 = a4 | a5\n  3999: a2 = a2 | a4\n  4002: a3 = u8 [a0 + 0x5]\n  4005: a4 = u8 [a0 + 0x4]\n  4008: a5 = u8 [a0 + 0x6]\n  4011: s1 = u8 [a0 + 0x7]\n  4014: a3 = a3 << 0x8\n  4017: a3 = a3 | a4\n  4020: a5 = a5 << 0x10\n  4023: s1 = s1 << 0x18\n  4026: a5 = a5 | s1\n  4029: a3 = a3 | a5\n  4032: a3 = a3 << 0x20\n  4035: a2 = a2 | a3\n  4038: a3 = u8 [a0 + 0x19]\n  4041: a4 = u8 [a0 + 0x18]\n  4044: a5 = u8 [a0 + 0x1a]\n  4047: s1 = u8 [a0 + 0x1b]\n  4050: a3 = a3 << 0x8\n  4053: a3 = a3 | a4\n  4056: a5 = a5 << 0x10\n  4059: s1 = s1 << 0x18\n  4062: a5 = a5 | s1\n  4065: a3 = a3 | a5\n  4068: a4 = u8 [a0 + 0x1d]\n  4071: a5 = u8 [a0 + 0x1c]\n  4074: s1 = u8 [a0 + 0x1e]\n  4077: a1 = u8 [a0 + 0x1f]\n  4080: a4 = a4 << 0x8\n  4083: a4 = a4 | a5\n  4086: s1 = s1 << 0x10\n  4089: a1 = a1 << 0x18\n  4092: a1 = a1 | s1\n  4095: a1 = a1 | a4\n  4098: a1 = a1 << 0x20\n  4101: a3 = a3 | a1\n  4104: a1 = u8 [a0 + 0x9]\n  4107: a4 = u8 [a0 + 0x8]\n  4110: a5 = u8 [a0 + 0xa]\n  4113: s1 = u8 [a0 + 0xb]\n  4116: a1 = a1 << 0x8\n  4119: a1 = a1 | a4\n  4122: a5 = a5 << 0x10\n  4125: s1 = s1 << 0x18\n  4128: a5 = a5 | s1\n  4131: a1 = a1 | a5\n  4134: a4 = u8 [a0 + 0xd]\n  4137: a5 = u8 [a0 + 0xc]\n  4140: s1 = u8 [a0 + 0xe]\n  4143: a0 = u8 [a0 + 0xf]\n  4146: a4 = a4 << 0x8\n  4149: a4 = a4 | a5\n  4152: s1 = s1 << 0x10\n  4155: a0 = a0 << 0x18\n  4158: a0 = a0 | s1\n  4161: a0 = a0 | a4\n  4164: a0 = a0 << 0x20\n  4167: a0 = a0 | a1\n  4170: a1 = reverse a0\n  4172: a0 = reverse a3\n  4174: a2 = reverse a2\n  4176: a3 = reverse t0\n  4178: a2 = a2 | a3\n  4181: a3 = a0 | a1\n  4184: a3 = a3 | a2\n  4187: a3 = a3 >> 0x20\n  4190: a1 = a1 | a2\n  4193: a1 = a1 << 0x20\n  4196: a1 = a1 | a3\n  4199: jump @86 if a1 == 0\n      : @83 (gas: 1)\n  4202: trap\n      : @84 (gas: 3)\n  4203: a0 = 0\n  4205: a1 = 0\n  4207: ra = 74, jump @0\n      : @85 [@dyn 37] (gas: 7)\n  4212: i32 a1 = a0 + 0\n  4214: a0 = 0x1\n  4217: a2 = 0\n  4219: ecalli 11 // 'seal_return'\n  4221: i32 a0 = a0 + 0\n  4223: ra = 0x4c\n  4226: jump @0\n      : @86 (gas: 2)\n  4229: i32 a0 = a0 + 0\n  4231: ra = 76, jump @0\n      : @87 [@dyn 38] (gas: 6)\n  4236: i32 a1 = a0 + 0\n  4238: a0 = 0\n  4240: a2 = 0\n  4242: ra = 0x4e\n  4245: ecalli 11 // 'seal_return'\n  4247: fallthrough\n      : @88 [@dyn 39] (gas: 12)\n  4248: a2 = u64 [a1 + 0x10]\n  4251: a3 = u64 [a1 + 0x18]\n  4254: a4 = u64 [a1 + 0x8]\n  4257: a1 = u64 [a1]\n  4259: a3 = a3 | a4\n  4262: a4 = a1 | a2\n  4265: a4 = a4 | a3\n  4268: a4 = a4 >> 0x20\n  4271: a2 = a2 | a3\n  4274: a2 = a2 << 0x20\n  4277: a2 = a2 | a4\n  4280: jump @91 if a2 != 0\n      : @89 (gas: 7)\n  4284: sp = sp + 0xfffffffffffffff0\n  4287: u64 [sp + 0x8] = ra\n  4290: u64 [sp] = s0\n  4292: s0 = a0\n  4294: i32 a0 = a1 + 0\n  4296: a1 = 0x20\n  4299: ra = 80, jump @0\n      : @90 [@dyn 40] (gas: 100)\n  4304: a1 = u8 [a0 + 0x1]\n  4307: a2 = u8 [a0]\n  4309: a3 = u8 [a0 + 0x2]\n  4312: a4 = u8 [a0 + 0x3]\n  4315: a1 = a1 << 0x8\n  4318: a1 = a1 | a2\n  4321: a3 = a3 << 0x10\n  4324: a4 = a4 << 0x18\n  4327: a3 = a3 | a4\n  4330: a1 = a1 | a3\n  4333: a2 = u8 [a0 + 0x5]\n  4336: a3 = u8 [a0 + 0x4]\n  4339: a4 = u8 [a0 + 0x6]\n  4342: a5 = u8 [a0 + 0x7]\n  4345: a2 = a2 << 0x8\n  4348: a2 = a2 | a3\n  4351: a4 = a4 << 0x10\n  4354: a5 = a5 << 0x18\n  4357: a4 = a4 | a5\n  4360: a2 = a2 | a4\n  4363: a2 = a2 << 0x20\n  4366: t0 = a2 | a1\n  4369: a2 = u8 [a0 + 0x9]\n  4372: a3 = u8 [a0 + 0x8]\n  4375: a4 = u8 [a0 + 0xa]\n  4378: a5 = u8 [a0 + 0xb]\n  4381: a2 = a2 << 0x8\n  4384: a2 = a2 | a3\n  4387: a4 = a4 << 0x10\n  4390: a5 = a5 << 0x18\n  4393: a4 = a4 | a5\n  4396: a2 = a2 | a4\n  4399: a3 = u8 [a0 + 0xd]\n  4402: a4 = u8 [a0 + 0xc]\n  4405: a5 = u8 [a0 + 0xe]\n  4408: a1 = u8 [a0 + 0xf]\n  4411: a3 = a3 << 0x8\n  4414: a3 = a3 | a4\n  4417: a5 = a5 << 0x10\n  4420: a1 = a1 << 0x18\n  4423: a1 = a1 | a5\n  4426: a1 = a1 | a3\n  4429: a1 = a1 << 0x20\n  4432: t1 = a1 | a2\n  4435: a1 = u8 [a0 + 0x11]\n  4438: a3 = u8 [a0 + 0x10]\n  4441: a4 = u8 [a0 + 0x12]\n  4444: a5 = u8 [a0 + 0x13]\n  4447: a1 = a1 << 0x8\n  4450: a1 = a1 | a3\n  4453: a4 = a4 << 0x10\n  4456: a5 = a5 << 0x18\n  4459: a4 = a4 | a5\n  4462: a1 = a1 | a4\n  4465: a3 = u8 [a0 + 0x15]\n  4468: a4 = u8 [a0 + 0x14]\n  4471: a5 = u8 [a0 + 0x16]\n  4474: a2 = u8 [a0 + 0x17]\n  4477: a3 = a3 << 0x8\n  4480: a3 = a3 | a4\n  4483: a5 = a5 << 0x10\n  4486: a2 = a2 << 0x18\n  4489: a2 = a2 | a5\n  4492: a2 = a2 | a3\n  4495: a2 = a2 << 0x20\n  4498: a3 = a2 | a1\n  4501: a1 = u8 [a0 + 0x19]\n  4504: a2 = u8 [a0 + 0x18]\n  4507: a4 = u8 [a0 + 0x1a]\n  4510: a5 = u8 [a0 + 0x1b]\n  4513: a1 = a1 << 0x8\n  4516: a1 = a1 | a2\n  4519: a4 = a4 << 0x10\n  4522: a5 = a5 << 0x18\n  4525: a4 = a4 | a5\n  4528: a1 = a1 | a4\n  4531: a2 = u8 [a0 + 0x1d]\n  4534: a4 = u8 [a0 + 0x1c]\n  4537: a5 = u8 [a0 + 0x1e]\n  4540: a0 = u8 [a0 + 0x1f]\n  4543: a2 = a2 << 0x8\n  4546: a2 = a2 | a4\n  4549: a5 = a5 << 0x10\n  4552: a0 = a0 << 0x18\n  4555: a0 = a0 | a5\n  4558: a0 = a0 | a2\n  4561: a0 = a0 << 0x20\n  4564: a0 = a0 | a1\n  4567: a0 = reverse a0\n  4569: a1 = reverse a3\n  4571: a2 = reverse t1\n  4573: a3 = reverse t0\n  4575: u64 [s0 + 0x18] = a3\n  4578: u64 [s0 + 0x10] = a2\n  4581: u64 [s0 + 0x8] = a1\n  4584: u64 [s0] = a0\n  4586: ra = u64 [sp + 0x8]\n  4589: s0 = u64 [sp]\n  4591: sp = sp + 0x10\n  4594: ret\n      : @91 (gas: 1)\n  4596: trap\n      : @92 (gas: 20)\n  4597: sp = sp + 0xffffffffffffffb0\n  4600: u64 [sp + 0x48] = ra\n  4603: u64 [sp + 0x40] = s0\n  4606: u64 [sp + 0x38] = s1\n  4609: a4 = u64 [a1 + 0x10]\n  4612: a3 = u64 [a1 + 0x18]\n  4615: a5 = u64 [a1 + 0x8]\n  4618: s0 = u64 [a1]\n  4620: u64 [sp + 0x28] = a3\n  4623: u64 [sp + 0x20] = a5\n  4626: a1 = a5 | a3\n  4629: a3 = s0 | a4\n  4632: a3 = a3 | a1\n  4635: a3 = a3 >> 0x20\n  4638: u64 [sp + 0x30] = a4\n  4641: a1 = a1 | a4\n  4644: a1 = a1 << 0x20\n  4647: a1 = a1 | a3\n  4650: u64 [sp + 0x18] = a0\n  4653: jump @95 if a1 != 0\n      : @93 (gas: 10)\n  4657: a0 = u64 [a2 + 0x18]\n  4660: u64 [sp] = a0\n  4662: s1 = u64 [a2 + 0x10]\n  4665: a0 = u64 [a2 + 0x8]\n  4668: u64 [sp + 0x8] = a0\n  4671: a0 = u64 [a2]\n  4673: u64 [sp + 0x10] = a0\n  4676: i32 a0 = s0 + 0\n  4678: a1 = 0x20\n  4681: ra = 82, jump @0\n      : @94 [@dyn 41] (gas: 88)\n  4686: a1 = u64 [sp]\n  4688: a1 = reverse a1\n  4690: a2 = reverse s1\n  4692: a3 = u64 [sp + 0x8]\n  4695: a3 = reverse a3\n  4697: a4 = u64 [sp + 0x10]\n  4700: a4 = reverse a4\n  4702: a5 = a4 >> 0x38\n  4705: u8 [a0 + 0x1f] = a5\n  4708: a5 = a4 >> 0x30\n  4711: u8 [a0 + 0x1e] = a5\n  4714: a5 = a4 >> 0x28\n  4717: u8 [a0 + 0x1d] = a5\n  4720: a5 = a4 >> 0x20\n  4723: u8 [a0 + 0x1c] = a5\n  4726: a5 = a4 >> 0x18\n  4729: u8 [a0 + 0x1b] = a5\n  4732: a5 = a4 >> 0x10\n  4735: u8 [a0 + 0x1a] = a5\n  4738: a5 = a4 >> 0x8\n  4741: u8 [a0 + 0x19] = a5\n  4744: u8 [a0 + 0x18] = a4\n  4747: u8 [a0 + 0x10] = a3\n  4750: a4 = a3 >> 0x38\n  4753: u8 [a0 + 0x17] = a4\n  4756: a4 = a3 >> 0x30\n  4759: u8 [a0 + 0x16] = a4\n  4762: a4 = a3 >> 0x28\n  4765: u8 [a0 + 0x15] = a4\n  4768: a4 = a3 >> 0x20\n  4771: u8 [a0 + 0x14] = a4\n  4774: a4 = a3 >> 0x18\n  4777: u8 [a0 + 0x13] = a4\n  4780: a4 = a3 >> 0x10\n  4783: u8 [a0 + 0x12] = a4\n  4786: a3 = a3 >> 0x8\n  4789: u8 [a0 + 0x11] = a3\n  4792: u8 [a0 + 0x8] = a2\n  4795: a3 = a2 >> 0x38\n  4798: u8 [a0 + 0xf] = a3\n  4801: a3 = a2 >> 0x30\n  4804: u8 [a0 + 0xe] = a3\n  4807: a3 = a2 >> 0x28\n  4810: u8 [a0 + 0xd] = a3\n  4813: a3 = a2 >> 0x20\n  4816: u8 [a0 + 0xc] = a3\n  4819: a3 = a2 >> 0x18\n  4822: u8 [a0 + 0xb] = a3\n  4825: a3 = a2 >> 0x10\n  4828: u8 [a0 + 0xa] = a3\n  4831: a2 = a2 >> 0x8\n  4834: u8 [a0 + 0x9] = a2\n  4837: u8 [a0] = a1\n  4839: a2 = a1 >> 0x38\n  4842: u8 [a0 + 0x7] = a2\n  4845: a2 = a1 >> 0x30\n  4848: u8 [a0 + 0x6] = a2\n  4851: a2 = a1 >> 0x28\n  4854: u8 [a0 + 0x5] = a2\n  4857: a2 = a1 >> 0x20\n  4860: u8 [a0 + 0x4] = a2\n  4863: a2 = a1 >> 0x18\n  4866: u8 [a0 + 0x3] = a2\n  4869: a2 = a1 >> 0x10\n  4872: u8 [a0 + 0x2] = a2\n  4875: a1 = a1 >> 0x8\n  4878: u8 [a0 + 0x1] = a1\n  4881: a0 = s0 + 0x20\n  4884: a1 = a0 <u s0\n  4887: a3 = u64 [sp + 0x20]\n  4890: a2 = a3 + a1\n  4893: a3 = a2 <u a3\n  4896: a3 = a1 if a1 == 0\n  4899: a1 = u64 [sp + 0x30]\n  4902: a3 = a3 + a1\n  4905: a1 = a3 <u a1\n  4908: a4 = u64 [sp + 0x28]\n  4911: a1 = a1 + a4\n  4914: a4 = u64 [sp + 0x18]\n  4917: u64 [a4] = a0\n  4919: u64 [a4 + 0x8] = a2\n  4922: u64 [a4 + 0x10] = a3\n  4925: u64 [a4 + 0x18] = a1\n  4928: ra = u64 [sp + 0x48]\n  4931: s0 = u64 [sp + 0x40]\n  4934: s1 = u64 [sp + 0x38]\n  4937: sp = sp + 0x50\n  4940: ret\n      : @95 (gas: 1)\n  4942: trap\n      : @96 (gas: 19)\n  4943: sp = sp + 0xfffffffffffffeb8\n  4947: u64 [sp + 0x140] = ra\n  4951: u64 [sp + 0x138] = s0\n  4955: u64 [sp + 0x130] = s1\n  4959: a4 = u64 [a0 + 0x10]\n  4962: a5 = u64 [a0 + 0x18]\n  4965: a2 = u64 [a0 + 0x8]\n  4968: a3 = u64 [a0]\n  4970: u64 [sp + 0x120] = a2\n  4974: u64 [sp + 0xe8] = a5\n  4978: a0 = a2 | a5\n  4981: a2 = a3 | a4\n  4984: a2 = a2 | a0\n  4987: a2 = a2 >> 0x20\n  4990: u64 [sp + 0xf0] = a4\n  4994: a0 = a0 | a4\n  4997: a0 = a0 << 0x20\n  5000: a0 = a0 | a2\n  5003: jump @113 if a0 != 0\n      : @97 (gas: 11)\n  5007: a0 = u64 [a1 + 0x18]\n  5010: u64 [sp + 0xf8] = a0\n  5014: s1 = u64 [a1 + 0x10]\n  5017: s0 = u64 [a1 + 0x8]\n  5020: a0 = u64 [a1]\n  5022: u64 [sp + 0x128] = a0\n  5026: i32 a0 = a3 + 0\n  5028: a1 = 0x20\n  5031: u64 [sp + 0x108] = a0\n  5035: u64 [sp + 0x118] = a3\n  5039: ra = 84, jump @0\n      : @98 [@dyn 42] (gas: 12)\n  5044: a3 = u64 [sp + 0x128]\n  5048: a1 = a3 | s1\n  5051: u64 [sp + 0x110] = s0\n  5055: a2 = u64 [sp + 0xf8]\n  5059: a2 = a2 | s0\n  5062: a1 = a1 | a2\n  5065: a1 = a1 >> 0x20\n  5068: u64 [sp + 0xe0] = s1\n  5072: a2 = a2 | s1\n  5075: a2 = a2 << 0x20\n  5078: a1 = a1 | a2\n  5081: jump @113 if a1 != 0\n      : @99 (gas: 42)\n  5085: a1 = u8 [a0 + 0xc]\n  5088: u64 [sp + 0xd8] = a1\n  5092: a1 = u8 [a0 + 0xd]\n  5095: u64 [sp + 0xd0] = a1\n  5099: a1 = u8 [a0 + 0xe]\n  5102: u64 [sp + 0xc8] = a1\n  5106: a1 = u8 [a0 + 0xf]\n  5109: u64 [sp + 0xc0] = a1\n  5113: a1 = u8 [a0 + 0x10]\n  5116: u64 [sp + 0xb8] = a1\n  5120: a1 = u8 [a0 + 0x11]\n  5123: u64 [sp + 0xb0] = a1\n  5127: a1 = u8 [a0 + 0x12]\n  5130: u64 [sp + 0xa8] = a1\n  5134: a1 = u8 [a0 + 0x13]\n  5137: u64 [sp + 0xa0] = a1\n  5141: a1 = u8 [a0 + 0x14]\n  5144: u64 [sp + 0x98] = a1\n  5148: a1 = u8 [a0 + 0x15]\n  5151: u64 [sp + 0x90] = a1\n  5155: a1 = u8 [a0 + 0x16]\n  5158: u64 [sp + 0x88] = a1\n  5162: a1 = u8 [a0 + 0x17]\n  5165: u64 [sp + 0x80] = a1\n  5169: a1 = u8 [a0 + 0x18]\n  5172: u64 [sp + 0x78] = a1\n  5175: a1 = u8 [a0 + 0x19]\n  5178: u64 [sp + 0x70] = a1\n  5181: a1 = u8 [a0 + 0x1a]\n  5184: u64 [sp + 0x68] = a1\n  5187: a1 = u8 [a0 + 0x1b]\n  5190: u64 [sp + 0x60] = a1\n  5193: a1 = u8 [a0 + 0x1c]\n  5196: u64 [sp + 0x58] = a1\n  5199: a1 = u8 [a0 + 0x1d]\n  5202: u64 [sp + 0x50] = a1\n  5205: s0 = u8 [a0 + 0x1e]\n  5208: s1 = u8 [a0 + 0x1f]\n  5211: i32 a0 = a3 + 0\n  5213: a1 = 0x20\n  5216: u64 [sp + 0x100] = a0\n  5220: ra = 86, jump @0\n      : @100 [@dyn 43] (gas: 61)\n  5225: u8 [a0 + 0x1f] = s1\n  5228: u8 [a0 + 0x1e] = s0\n  5231: a1 = u64 [sp + 0x50]\n  5234: u8 [a0 + 0x1d] = a1\n  5237: a1 = u64 [sp + 0x58]\n  5240: u8 [a0 + 0x1c] = a1\n  5243: a1 = u64 [sp + 0x60]\n  5246: u8 [a0 + 0x1b] = a1\n  5249: a1 = u64 [sp + 0x68]\n  5252: u8 [a0 + 0x1a] = a1\n  5255: a1 = u64 [sp + 0x70]\n  5258: u8 [a0 + 0x19] = a1\n  5261: a1 = u64 [sp + 0x78]\n  5264: u8 [a0 + 0x18] = a1\n  5267: a1 = u64 [sp + 0x80]\n  5271: u8 [a0 + 0x17] = a1\n  5274: a1 = u64 [sp + 0x88]\n  5278: u8 [a0 + 0x16] = a1\n  5281: a1 = u64 [sp + 0x90]\n  5285: u8 [a0 + 0x15] = a1\n  5288: a1 = u64 [sp + 0x98]\n  5292: u8 [a0 + 0x14] = a1\n  5295: a1 = u64 [sp + 0xa0]\n  5299: u8 [a0 + 0x13] = a1\n  5302: a1 = u64 [sp + 0xa8]\n  5306: u8 [a0 + 0x12] = a1\n  5309: a1 = u64 [sp + 0xb0]\n  5313: u8 [a0 + 0x11] = a1\n  5316: a1 = u64 [sp + 0xb8]\n  5320: u8 [a0 + 0x10] = a1\n  5323: a1 = u64 [sp + 0xc0]\n  5327: u8 [a0 + 0xf] = a1\n  5330: a1 = u64 [sp + 0xc8]\n  5334: u8 [a0 + 0xe] = a1\n  5337: a1 = u64 [sp + 0xd0]\n  5341: u8 [a0 + 0xd] = a1\n  5344: a1 = u64 [sp + 0xd8]\n  5348: u8 [a0 + 0xc] = a1\n  5351: u8 [a0 + 11] = 0\n  5354: u8 [a0 + 10] = 0\n  5357: u8 [a0 + 9] = 0\n  5360: u8 [a0 + 8] = 0\n  5363: u8 [a0 + 7] = 0\n  5366: u8 [a0 + 6] = 0\n  5369: u8 [a0 + 5] = 0\n  5372: u8 [a0 + 4] = 0\n  5375: u8 [a0 + 3] = 0\n  5378: u8 [a0 + 2] = 0\n  5381: u8 [a0 + 1] = 0\n  5384: a1 = u64 [sp + 0xf0]\n  5388: a3 = u64 [sp + 0xe8]\n  5392: a3 = a3 | a1\n  5395: s0 = 0xffffffe0\n  5405: a1 = u64 [sp + 0x118]\n  5409: a1 = a1 <u s0\n  5412: a2 = u64 [sp + 0x120]\n  5416: a1 = 0 if a2 != 0\n  5418: u64 [sp + 0xf0] = a3\n  5422: a1 = 0 if a3 != 0\n  5424: u8 [a0 + 0] = 0\n  5426: jump @113 if a1 == 0\n      : @101 (gas: 4)\n  5430: a0 = u64 [sp + 0x108]\n  5434: i32 a0 = a0 + 0x20\n  5437: a1 = 0x20\n  5440: ra = 88, jump @0\n      : @102 [@dyn 44] (gas: 10)\n  5445: a1 = u64 [sp + 0xf8]\n  5449: a3 = u64 [sp + 0xe0]\n  5453: a3 = a3 | a1\n  5456: a1 = u64 [sp + 0x128]\n  5460: a1 = a1 <u s0\n  5463: a2 = u64 [sp + 0x110]\n  5467: a1 = 0 if a2 != 0\n  5469: u64 [sp + 0xf8] = a3\n  5473: a1 = 0 if a3 != 0\n  5475: jump @113 if a1 == 0\n      : @103 (gas: 66)\n  5479: a1 = u8 [a0]\n  5481: u64 [sp + 0xe8] = a1\n  5485: a1 = u8 [a0 + 0x1]\n  5488: u64 [sp + 0xe0] = a1\n  5492: a1 = u8 [a0 + 0x2]\n  5495: u64 [sp + 0xd8] = a1\n  5499: a1 = u8 [a0 + 0x3]\n  5502: u64 [sp + 0xd0] = a1\n  5506: a1 = u8 [a0 + 0x4]\n  5509: u64 [sp + 0xc8] = a1\n  5513: a1 = u8 [a0 + 0x5]\n  5516: u64 [sp + 0xc0] = a1\n  5520: a1 = u8 [a0 + 0x6]\n  5523: u64 [sp + 0xb8] = a1\n  5527: a1 = u8 [a0 + 0x7]\n  5530: u64 [sp + 0xb0] = a1\n  5534: a1 = u8 [a0 + 0x8]\n  5537: u64 [sp + 0xa8] = a1\n  5541: a1 = u8 [a0 + 0x9]\n  5544: u64 [sp + 0xa0] = a1\n  5548: a1 = u8 [a0 + 0xa]\n  5551: u64 [sp + 0x98] = a1\n  5555: a1 = u8 [a0 + 0xb]\n  5558: u64 [sp + 0x90] = a1\n  5562: a1 = u8 [a0 + 0xc]\n  5565: u64 [sp + 0x88] = a1\n  5569: a1 = u8 [a0 + 0xd]\n  5572: u64 [sp + 0x80] = a1\n  5576: a1 = u8 [a0 + 0xe]\n  5579: u64 [sp + 0x78] = a1\n  5582: a1 = u8 [a0 + 0xf]\n  5585: u64 [sp + 0x70] = a1\n  5588: a1 = u8 [a0 + 0x10]\n  5591: u64 [sp + 0x68] = a1\n  5594: a1 = u8 [a0 + 0x11]\n  5597: u64 [sp + 0x60] = a1\n  5600: a1 = u8 [a0 + 0x12]\n  5603: u64 [sp + 0x58] = a1\n  5606: a1 = u8 [a0 + 0x13]\n  5609: u64 [sp + 0x50] = a1\n  5612: a1 = u8 [a0 + 0x14]\n  5615: u64 [sp + 0x48] = a1\n  5618: a1 = u8 [a0 + 0x15]\n  5621: u64 [sp + 0x40] = a1\n  5624: a1 = u8 [a0 + 0x16]\n  5627: u64 [sp + 0x38] = a1\n  5630: a1 = u8 [a0 + 0x17]\n  5633: u64 [sp + 0x30] = a1\n  5636: a1 = u8 [a0 + 0x18]\n  5639: u64 [sp + 0x28] = a1\n  5642: a1 = u8 [a0 + 0x19]\n  5645: u64 [sp + 0x20] = a1\n  5648: a1 = u8 [a0 + 0x1a]\n  5651: u64 [sp + 0x18] = a1\n  5654: a1 = u8 [a0 + 0x1b]\n  5657: u64 [sp + 0x10] = a1\n  5660: a1 = u8 [a0 + 0x1c]\n  5663: u64 [sp + 0x8] = a1\n  5666: a1 = u8 [a0 + 0x1d]\n  5669: u64 [sp] = a1\n  5671: s0 = u8 [a0 + 0x1e]\n  5674: s1 = u8 [a0 + 0x1f]\n  5677: a0 = u64 [sp + 0x100]\n  5681: i32 a0 = a0 + 0x20\n  5684: a1 = 0x20\n  5687: ra = 90, jump @0\n      : @104 [@dyn 45] (gas: 70)\n  5692: u8 [a0 + 0x1f] = s1\n  5695: u8 [a0 + 0x1e] = s0\n  5698: a1 = u64 [sp]\n  5700: u8 [a0 + 0x1d] = a1\n  5703: a1 = u64 [sp + 0x8]\n  5706: u8 [a0 + 0x1c] = a1\n  5709: a1 = u64 [sp + 0x10]\n  5712: u8 [a0 + 0x1b] = a1\n  5715: a1 = u64 [sp + 0x18]\n  5718: u8 [a0 + 0x1a] = a1\n  5721: a1 = u64 [sp + 0x20]\n  5724: u8 [a0 + 0x19] = a1\n  5727: a1 = u64 [sp + 0x28]\n  5730: u8 [a0 + 0x18] = a1\n  5733: a1 = u64 [sp + 0x30]\n  5736: u8 [a0 + 0x17] = a1\n  5739: a1 = u64 [sp + 0x38]\n  5742: u8 [a0 + 0x16] = a1\n  5745: a1 = u64 [sp + 0x40]\n  5748: u8 [a0 + 0x15] = a1\n  5751: a1 = u64 [sp + 0x48]\n  5754: u8 [a0 + 0x14] = a1\n  5757: a1 = u64 [sp + 0x50]\n  5760: u8 [a0 + 0x13] = a1\n  5763: a1 = u64 [sp + 0x58]\n  5766: u8 [a0 + 0x12] = a1\n  5769: a1 = u64 [sp + 0x60]\n  5772: u8 [a0 + 0x11] = a1\n  5775: a1 = u64 [sp + 0x68]\n  5778: u8 [a0 + 0x10] = a1\n  5781: a1 = u64 [sp + 0x70]\n  5784: u8 [a0 + 0xf] = a1\n  5787: a1 = u64 [sp + 0x78]\n  5790: u8 [a0 + 0xe] = a1\n  5793: a1 = u64 [sp + 0x80]\n  5797: u8 [a0 + 0xd] = a1\n  5800: a1 = u64 [sp + 0x88]\n  5804: u8 [a0 + 0xc] = a1\n  5807: a1 = u64 [sp + 0x90]\n  5811: u8 [a0 + 0xb] = a1\n  5814: a1 = u64 [sp + 0x98]\n  5818: u8 [a0 + 0xa] = a1\n  5821: a1 = u64 [sp + 0xa0]\n  5825: u8 [a0 + 0x9] = a1\n  5828: a1 = u64 [sp + 0xa8]\n  5832: u8 [a0 + 0x8] = a1\n  5835: a1 = u64 [sp + 0xb0]\n  5839: u8 [a0 + 0x7] = a1\n  5842: a1 = u64 [sp + 0xb8]\n  5846: u8 [a0 + 0x6] = a1\n  5849: a1 = u64 [sp + 0xc0]\n  5853: u8 [a0 + 0x5] = a1\n  5856: a1 = u64 [sp + 0xc8]\n  5860: u8 [a0 + 0x4] = a1\n  5863: a1 = u64 [sp + 0xd0]\n  5867: u8 [a0 + 0x3] = a1\n  5870: a1 = u64 [sp + 0xd8]\n  5874: u8 [a0 + 0x2] = a1\n  5877: a1 = u64 [sp + 0xe0]\n  5881: u8 [a0 + 0x1] = a1\n  5884: s0 = 0xffffffc0\n  5894: a1 = u64 [sp + 0x118]\n  5898: a1 = a1 <u s0\n  5901: a2 = u64 [sp + 0x120]\n  5905: a1 = 0 if a2 != 0\n  5907: a2 = u64 [sp + 0xf0]\n  5911: a1 = 0 if a2 != 0\n  5913: a2 = u64 [sp + 0xe8]\n  5917: u8 [a0] = a2\n  5919: jump @113 if a1 == 0\n      : @105 (gas: 4)\n  5923: a0 = u64 [sp + 0x108]\n  5927: i32 a0 = a0 + 0x40\n  5930: a1 = 0x20\n  5933: ra = 92, jump @0\n      : @106 [@dyn 46] (gas: 7)\n  5938: a1 = u64 [sp + 0x128]\n  5942: a1 = a1 <u s0\n  5945: a2 = u64 [sp + 0x110]\n  5949: a1 = 0 if a2 != 0\n  5951: a2 = u64 [sp + 0xf8]\n  5955: a1 = 0 if a2 != 0\n  5957: jump @113 if a1 == 0\n      : @107 (gas: 66)\n  5961: a1 = u8 [a0]\n  5963: u64 [sp + 0xe8] = a1\n  5967: a1 = u8 [a0 + 0x1]\n  5970: u64 [sp + 0xe0] = a1\n  5974: a1 = u8 [a0 + 0x2]\n  5977: u64 [sp + 0xd8] = a1\n  5981: a1 = u8 [a0 + 0x3]\n  5984: u64 [sp + 0xd0] = a1\n  5988: a1 = u8 [a0 + 0x4]\n  5991: u64 [sp + 0xc8] = a1\n  5995: a1 = u8 [a0 + 0x5]\n  5998: u64 [sp + 0xc0] = a1\n  6002: a1 = u8 [a0 + 0x6]\n  6005: u64 [sp + 0xb8] = a1\n  6009: a1 = u8 [a0 + 0x7]\n  6012: u64 [sp + 0xb0] = a1\n  6016: a1 = u8 [a0 + 0x8]\n  6019: u64 [sp + 0xa8] = a1\n  6023: a1 = u8 [a0 + 0x9]\n  6026: u64 [sp + 0xa0] = a1\n  6030: a1 = u8 [a0 + 0xa]\n  6033: u64 [sp + 0x98] = a1\n  6037: a1 = u8 [a0 + 0xb]\n  6040: u64 [sp + 0x90] = a1\n  6044: a1 = u8 [a0 + 0xc]\n  6047: u64 [sp + 0x88] = a1\n  6051: a1 = u8 [a0 + 0xd]\n  6054: u64 [sp + 0x80] = a1\n  6058: a1 = u8 [a0 + 0xe]\n  6061: u64 [sp + 0x78] = a1\n  6064: a1 = u8 [a0 + 0xf]\n  6067: u64 [sp + 0x70] = a1\n  6070: a1 = u8 [a0 + 0x10]\n  6073: u64 [sp + 0x68] = a1\n  6076: a1 = u8 [a0 + 0x11]\n  6079: u64 [sp + 0x60] = a1\n  6082: a1 = u8 [a0 + 0x12]\n  6085: u64 [sp + 0x58] = a1\n  6088: a1 = u8 [a0 + 0x13]\n  6091: u64 [sp + 0x50] = a1\n  6094: a1 = u8 [a0 + 0x14]\n  6097: u64 [sp + 0x48] = a1\n  6100: a1 = u8 [a0 + 0x15]\n  6103: u64 [sp + 0x40] = a1\n  6106: a1 = u8 [a0 + 0x16]\n  6109: u64 [sp + 0x38] = a1\n  6112: a1 = u8 [a0 + 0x17]\n  6115: u64 [sp + 0x30] = a1\n  6118: a1 = u8 [a0 + 0x18]\n  6121: u64 [sp + 0x28] = a1\n  6124: a1 = u8 [a0 + 0x19]\n  6127: u64 [sp + 0x20] = a1\n  6130: a1 = u8 [a0 + 0x1a]\n  6133: u64 [sp + 0x18] = a1\n  6136: a1 = u8 [a0 + 0x1b]\n  6139: u64 [sp + 0x10] = a1\n  6142: a1 = u8 [a0 + 0x1c]\n  6145: u64 [sp + 0x8] = a1\n  6148: a1 = u8 [a0 + 0x1d]\n  6151: u64 [sp] = a1\n  6153: s0 = u8 [a0 + 0x1e]\n  6156: s1 = u8 [a0 + 0x1f]\n  6159: a0 = u64 [sp + 0x100]\n  6163: i32 a0 = a0 + 0x40\n  6166: a1 = 0x20\n  6169: ra = 94, jump @0\n      : @108 [@dyn 47] (gas: 70)\n  6174: u8 [a0 + 0x1f] = s1\n  6177: u8 [a0 + 0x1e] = s0\n  6180: a1 = u64 [sp]\n  6182: u8 [a0 + 0x1d] = a1\n  6185: a1 = u64 [sp + 0x8]\n  6188: u8 [a0 + 0x1c] = a1\n  6191: a1 = u64 [sp + 0x10]\n  6194: u8 [a0 + 0x1b] = a1\n  6197: a1 = u64 [sp + 0x18]\n  6200: u8 [a0 + 0x1a] = a1\n  6203: a1 = u64 [sp + 0x20]\n  6206: u8 [a0 + 0x19] = a1\n  6209: a1 = u64 [sp + 0x28]\n  6212: u8 [a0 + 0x18] = a1\n  6215: a1 = u64 [sp + 0x30]\n  6218: u8 [a0 + 0x17] = a1\n  6221: a1 = u64 [sp + 0x38]\n  6224: u8 [a0 + 0x16] = a1\n  6227: a1 = u64 [sp + 0x40]\n  6230: u8 [a0 + 0x15] = a1\n  6233: a1 = u64 [sp + 0x48]\n  6236: u8 [a0 + 0x14] = a1\n  6239: a1 = u64 [sp + 0x50]\n  6242: u8 [a0 + 0x13] = a1\n  6245: a1 = u64 [sp + 0x58]\n  6248: u8 [a0 + 0x12] = a1\n  6251: a1 = u64 [sp + 0x60]\n  6254: u8 [a0 + 0x11] = a1\n  6257: a1 = u64 [sp + 0x68]\n  6260: u8 [a0 + 0x10] = a1\n  6263: a1 = u64 [sp + 0x70]\n  6266: u8 [a0 + 0xf] = a1\n  6269: a1 = u64 [sp + 0x78]\n  6272: u8 [a0 + 0xe] = a1\n  6275: a1 = u64 [sp + 0x80]\n  6279: u8 [a0 + 0xd] = a1\n  6282: a1 = u64 [sp + 0x88]\n  6286: u8 [a0 + 0xc] = a1\n  6289: a1 = u64 [sp + 0x90]\n  6293: u8 [a0 + 0xb] = a1\n  6296: a1 = u64 [sp + 0x98]\n  6300: u8 [a0 + 0xa] = a1\n  6303: a1 = u64 [sp + 0xa0]\n  6307: u8 [a0 + 0x9] = a1\n  6310: a1 = u64 [sp + 0xa8]\n  6314: u8 [a0 + 0x8] = a1\n  6317: a1 = u64 [sp + 0xb0]\n  6321: u8 [a0 + 0x7] = a1\n  6324: a1 = u64 [sp + 0xb8]\n  6328: u8 [a0 + 0x6] = a1\n  6331: a1 = u64 [sp + 0xc0]\n  6335: u8 [a0 + 0x5] = a1\n  6338: a1 = u64 [sp + 0xc8]\n  6342: u8 [a0 + 0x4] = a1\n  6345: a1 = u64 [sp + 0xd0]\n  6349: u8 [a0 + 0x3] = a1\n  6352: a1 = u64 [sp + 0xd8]\n  6356: u8 [a0 + 0x2] = a1\n  6359: a1 = u64 [sp + 0xe0]\n  6363: u8 [a0 + 0x1] = a1\n  6366: s0 = 0xffffffa0\n  6376: a1 = u64 [sp + 0x118]\n  6380: a1 = a1 <u s0\n  6383: a2 = u64 [sp + 0x120]\n  6387: a1 = 0 if a2 != 0\n  6389: a2 = u64 [sp + 0xf0]\n  6393: a1 = 0 if a2 != 0\n  6395: a2 = u64 [sp + 0xe8]\n  6399: u8 [a0] = a2\n  6401: jump @113 if a1 == 0\n      : @109 (gas: 4)\n  6405: a0 = u64 [sp + 0x108]\n  6409: i32 a0 = a0 + 0x60\n  6412: a1 = 0x20\n  6415: ra = 96, jump @0\n      : @110 [@dyn 48] (gas: 7)\n  6420: a1 = u64 [sp + 0x128]\n  6424: a1 = a1 <u s0\n  6427: a2 = u64 [sp + 0x110]\n  6431: a1 = 0 if a2 != 0\n  6433: a2 = u64 [sp + 0xf8]\n  6437: a1 = 0 if a2 != 0\n  6439: jump @113 if a1 == 0\n      : @111 (gas: 94)\n  6443: a1 = u8 [a0 + 0x1d]\n  6446: a2 = u8 [a0 + 0x1c]\n  6449: a3 = u8 [a0 + 0x1e]\n  6452: a4 = u8 [a0 + 0x1f]\n  6455: a1 = a1 << 0x8\n  6458: a1 = a1 | a2\n  6461: a3 = a3 << 0x10\n  6464: a4 = a4 << 0x18\n  6467: a3 = a3 | a4\n  6470: a1 = a1 | a3\n  6473: a2 = u8 [a0 + 0xd]\n  6476: a3 = u8 [a0 + 0xc]\n  6479: a4 = u8 [a0 + 0xe]\n  6482: a5 = u8 [a0 + 0xf]\n  6485: a2 = a2 << 0x8\n  6488: a2 = a2 | a3\n  6491: a4 = a4 << 0x10\n  6494: a5 = a5 << 0x18\n  6497: a4 = a4 | a5\n  6500: a2 = a2 | a4\n  6503: a1 = a1 | a2\n  6506: a1 = a1 << 0x20\n  6509: a2 = u8 [a0 + 0x9]\n  6512: a3 = u8 [a0 + 0x8]\n  6515: a4 = u8 [a0 + 0xa]\n  6518: a5 = u8 [a0 + 0xb]\n  6521: a2 = a2 << 0x8\n  6524: a2 = a2 | a3\n  6527: a4 = a4 << 0x10\n  6530: a5 = a5 << 0x18\n  6533: a4 = a4 | a5\n  6536: a2 = a2 | a4\n  6539: a3 = u8 [a0 + 0x19]\n  6542: a4 = u8 [a0 + 0x18]\n  6545: a5 = u8 [a0 + 0x1a]\n  6548: s1 = u8 [a0 + 0x1b]\n  6551: a3 = a3 << 0x8\n  6554: a3 = a3 | a4\n  6557: a5 = a5 << 0x10\n  6560: s1 = s1 << 0x18\n  6563: a5 = a5 | s1\n  6566: a3 = a3 | a5\n  6569: a2 = a2 | a3\n  6572: a1 = a1 | a2\n  6575: a2 = u8 [a0 + 0x15]\n  6578: a3 = u8 [a0 + 0x14]\n  6581: a4 = u8 [a0 + 0x16]\n  6584: a5 = u8 [a0 + 0x17]\n  6587: a2 = a2 << 0x8\n  6590: a2 = a2 | a3\n  6593: a4 = a4 << 0x10\n  6596: a5 = a5 << 0x18\n  6599: a4 = a4 | a5\n  6602: a2 = a2 | a4\n  6605: a3 = u8 [a0 + 0x5]\n  6608: a4 = u8 [a0 + 0x4]\n  6611: a5 = u8 [a0 + 0x6]\n  6614: s1 = u8 [a0 + 0x7]\n  6617: a3 = a3 << 0x8\n  6620: a3 = a3 | a4\n  6623: a5 = a5 << 0x10\n  6626: s1 = s1 << 0x18\n  6629: a5 = a5 | s1\n  6632: a3 = a3 | a5\n  6635: a2 = a2 | a3\n  6638: a3 = u8 [a0 + 0x1]\n  6641: a4 = u8 [a0]\n  6643: a5 = u8 [a0 + 0x2]\n  6646: s1 = u8 [a0 + 0x3]\n  6649: a3 = a3 << 0x8\n  6652: a3 = a3 | a4\n  6655: a5 = a5 << 0x10\n  6658: s1 = s1 << 0x18\n  6661: a4 = u8 [a0 + 0x11]\n  6664: a5 = a5 | s1\n  6667: a3 = a3 | a5\n  6670: a5 = u8 [a0 + 0x10]\n  6673: a4 = a4 << 0x8\n  6676: s1 = u8 [a0 + 0x12]\n  6679: a0 = u8 [a0 + 0x13]\n  6682: a4 = a4 | a5\n  6685: a2 = a2 << 0x20\n  6688: s1 = s1 << 0x10\n  6691: a0 = a0 << 0x18\n  6694: a0 = a0 | s1\n  6697: a0 = a0 | a4\n  6700: a0 = a0 | a3\n  6703: a0 = a0 | a2\n  6706: a0 = a0 | a1\n  6709: s0 = a0 >u 0\n  6711: a0 = u64 [sp + 0x100]\n  6715: i32 a0 = a0 + 0x60\n  6718: a1 = 0x20\n  6721: ra = 98, jump @0\n      : @112 [@dyn 49] (gas: 37)\n  6726: u8 [a0 + 30] = 0\n  6729: u8 [a0 + 29] = 0\n  6732: u8 [a0 + 28] = 0\n  6735: u8 [a0 + 27] = 0\n  6738: u8 [a0 + 26] = 0\n  6741: u8 [a0 + 25] = 0\n  6744: u8 [a0 + 24] = 0\n  6747: u8 [a0 + 23] = 0\n  6750: u8 [a0 + 22] = 0\n  6753: u8 [a0 + 21] = 0\n  6756: u8 [a0 + 20] = 0\n  6759: u8 [a0 + 19] = 0\n  6762: u8 [a0 + 18] = 0\n  6765: u8 [a0 + 17] = 0\n  6768: u8 [a0 + 16] = 0\n  6771: u8 [a0 + 15] = 0\n  6774: u8 [a0 + 14] = 0\n  6777: u8 [a0 + 13] = 0\n  6780: u8 [a0 + 12] = 0\n  6783: u8 [a0 + 11] = 0\n  6786: u8 [a0 + 10] = 0\n  6789: u8 [a0 + 9] = 0\n  6792: u8 [a0 + 8] = 0\n  6795: u8 [a0 + 7] = 0\n  6798: u8 [a0 + 6] = 0\n  6801: u8 [a0 + 5] = 0\n  6804: u8 [a0 + 4] = 0\n  6807: u8 [a0 + 3] = 0\n  6810: u8 [a0 + 2] = 0\n  6813: u8 [a0 + 1] = 0\n  6816: u8 [a0 + 0] = 0\n  6818: u8 [a0 + 0x1f] = s0\n  6821: ra = u64 [sp + 0x140]\n  6825: s0 = u64 [sp + 0x138]\n  6829: s1 = u64 [sp + 0x130]\n  6833: sp = sp + 0x148\n  6837: ret\n      : @113 (gas: 1)\n  6839: trap\n      : @114 (gas: 22)\n  6840: sp = sp + 0xffffffffffffff20\n  6844: u64 [sp + 0xd8] = ra\n  6848: u64 [sp + 0xd0] = s0\n  6852: u64 [sp + 0xc8] = s1\n  6856: s0 = sp + 0xe0\n  6860: sp = sp & 0xfffffffffffffff0\n  6863: a3 = u64 [a1 + 0x18]\n  6866: a4 = u64 [a1 + 0x10]\n  6869: a5 = u64 [a1 + 0x8]\n  6872: s1 = u64 [a1]\n  6874: u64 [sp + 0x78] = a3\n  6877: u64 [sp + 0x68] = a5\n  6880: a1 = a5 | a3\n  6883: a3 = s1 | a4\n  6886: a3 = a3 | a1\n  6889: a3 = a3 >> 0x20\n  6892: u64 [sp + 0x70] = a4\n  6895: a1 = a1 | a4\n  6898: a1 = a1 << 0x20\n  6901: a1 = a1 | a3\n  6904: u64 [sp + 0x10] = a0\n  6907: jump @129 if a1 != 0\n      : @115 (gas: 13)\n  6911: a0 = u64 [a2 + 0x18]\n  6914: u64 [sp + 0x60] = a0\n  6917: a0 = u64 [a2 + 0x10]\n  6920: u64 [sp + 0x48] = a0\n  6923: a0 = u64 [a2 + 0x8]\n  6926: u64 [sp + 0x40] = a0\n  6929: a0 = u64 [a2]\n  6931: u64 [sp + 0x50] = a0\n  6934: u64 [sp + 0x58] = s1\n  6937: i32 a0 = s1 + 0\n  6939: a1 = 0x20\n  6942: s1 = 0x20\n  6945: ra = 100, jump @0\n      : @116 [@dyn 50] (gas: 44)\n  6950: a3 = u64 [sp + 0x50]\n  6953: u8 [a0 + 0x1f] = s1\n  6956: a4 = u64 [sp + 0x48]\n  6959: a1 = a3 | a4\n  6962: a2 = u64 [sp + 0x60]\n  6965: a5 = u64 [sp + 0x40]\n  6968: a2 = a2 | a5\n  6971: a1 = a1 | a2\n  6974: a1 = a1 >> 0x20\n  6977: a2 = a2 | a4\n  6980: a2 = a2 << 0x20\n  6983: a1 = a1 | a2\n  6986: u8 [a0 + 30] = 0\n  6989: u8 [a0 + 29] = 0\n  6992: u8 [a0 + 28] = 0\n  6995: u8 [a0 + 27] = 0\n  6998: u8 [a0 + 26] = 0\n  7001: u8 [a0 + 25] = 0\n  7004: u8 [a0 + 24] = 0\n  7007: u8 [a0 + 23] = 0\n  7010: u8 [a0 + 22] = 0\n  7013: u8 [a0 + 21] = 0\n  7016: u8 [a0 + 20] = 0\n  7019: u8 [a0 + 19] = 0\n  7022: u8 [a0 + 18] = 0\n  7025: u8 [a0 + 17] = 0\n  7028: u8 [a0 + 16] = 0\n  7031: u8 [a0 + 15] = 0\n  7034: u8 [a0 + 14] = 0\n  7037: u8 [a0 + 13] = 0\n  7040: u8 [a0 + 12] = 0\n  7043: u8 [a0 + 11] = 0\n  7046: u8 [a0 + 10] = 0\n  7049: u8 [a0 + 9] = 0\n  7052: u8 [a0 + 8] = 0\n  7055: u8 [a0 + 7] = 0\n  7058: u8 [a0 + 6] = 0\n  7061: u8 [a0 + 5] = 0\n  7064: u8 [a0 + 4] = 0\n  7067: u8 [a0 + 3] = 0\n  7070: u8 [a0 + 2] = 0\n  7073: u8 [a0 + 1] = 0\n  7076: u8 [a0 + 0] = 0\n  7078: jump @129 if a1 != 0\n      : @117 (gas: 18)\n  7082: a0 = u64 [sp + 0x58]\n  7085: a1 = a0 + 0x20\n  7088: u64 [sp + 0x30] = a1\n  7091: a0 = a1 <u a0\n  7094: a1 = u64 [sp + 0x68]\n  7097: a2 = a1 + a0\n  7100: u64 [sp + 0x38] = a2\n  7103: a1 = a2 <u a1\n  7106: a1 = a0 if a0 == 0\n  7109: a0 = u64 [sp + 0x70]\n  7112: s1 = a0 + a1\n  7115: a0 = s1 <u a0\n  7118: a1 = u64 [sp + 0x78]\n  7121: a0 = a0 + a1\n  7124: u64 [sp + 0x28] = a0\n  7127: i32 a0 = a3 + 0\n  7129: a1 = 0x20\n  7132: ra = 102, jump @0\n      : @118 [@dyn 51] (gas: 11)\n  7137: t0 = u64 [sp + 0x30]\n  7140: a1 = t0 | s1\n  7143: a2 = u64 [sp + 0x38]\n  7146: a3 = u64 [sp + 0x28]\n  7149: a2 = a2 | a3\n  7152: a1 = a1 | a2\n  7155: a1 = a1 >> 0x20\n  7158: a2 = a2 | s1\n  7161: a2 = a2 << 0x20\n  7164: a1 = a1 | a2\n  7167: jump @129 if a1 != 0\n      : @119 (gas: 94)\n  7171: a1 = u8 [a0 + 0x19]\n  7174: a2 = u8 [a0 + 0x18]\n  7177: a3 = u8 [a0 + 0x1a]\n  7180: a4 = u8 [a0 + 0x1b]\n  7183: a1 = a1 << 0x8\n  7186: a1 = a1 | a2\n  7189: a3 = a3 << 0x10\n  7192: a4 = a4 << 0x18\n  7195: a3 = a3 | a4\n  7198: a1 = a1 | a3\n  7201: a2 = u8 [a0 + 0x1d]\n  7204: a3 = u8 [a0 + 0x1c]\n  7207: a4 = u8 [a0 + 0x1e]\n  7210: a5 = u8 [a0 + 0x1f]\n  7213: a2 = a2 << 0x8\n  7216: a2 = a2 | a3\n  7219: a4 = a4 << 0x10\n  7222: a5 = a5 << 0x18\n  7225: a4 = a4 | a5\n  7228: a2 = a2 | a4\n  7231: a2 = a2 << 0x20\n  7234: a1 = a1 | a2\n  7237: u64 [sp + 0x38] = a1\n  7240: a1 = u8 [a0 + 0x11]\n  7243: a2 = u8 [a0 + 0x10]\n  7246: a3 = u8 [a0 + 0x12]\n  7249: a4 = u8 [a0 + 0x13]\n  7252: a1 = a1 << 0x8\n  7255: a1 = a1 | a2\n  7258: a3 = a3 << 0x10\n  7261: a4 = a4 << 0x18\n  7264: a3 = a3 | a4\n  7267: a1 = a1 | a3\n  7270: a2 = u8 [a0 + 0x15]\n  7273: a3 = u8 [a0 + 0x14]\n  7276: a4 = u8 [a0 + 0x16]\n  7279: a5 = u8 [a0 + 0x17]\n  7282: a2 = a2 << 0x8\n  7285: a2 = a2 | a3\n  7288: a4 = a4 << 0x10\n  7291: a5 = a5 << 0x18\n  7294: a4 = a4 | a5\n  7297: a2 = a2 | a4\n  7300: a2 = a2 << 0x20\n  7303: a1 = a1 | a2\n  7306: u64 [sp + 0x28] = a1\n  7309: a1 = u8 [a0 + 0x9]\n  7312: a2 = u8 [a0 + 0x8]\n  7315: a3 = u8 [a0 + 0xa]\n  7318: a4 = u8 [a0 + 0xb]\n  7321: a1 = a1 << 0x8\n  7324: a1 = a1 | a2\n  7327: a3 = a3 << 0x10\n  7330: a4 = a4 << 0x18\n  7333: a3 = a3 | a4\n  7336: a1 = a1 | a3\n  7339: a2 = u8 [a0 + 0xd]\n  7342: a3 = u8 [a0 + 0xc]\n  7345: a4 = u8 [a0 + 0xe]\n  7348: a5 = u8 [a0 + 0xf]\n  7351: a2 = a2 << 0x8\n  7354: a2 = a2 | a3\n  7357: a4 = a4 << 0x10\n  7360: a5 = a5 << 0x18\n  7363: a4 = a4 | a5\n  7366: a2 = a2 | a4\n  7369: a2 = a2 << 0x20\n  7372: a1 = a1 | a2\n  7375: u64 [sp + 0x20] = a1\n  7378: a1 = u8 [a0 + 0x1]\n  7381: a2 = u8 [a0]\n  7383: a3 = u8 [a0 + 0x2]\n  7386: a4 = u8 [a0 + 0x3]\n  7389: a1 = a1 << 0x8\n  7392: a1 = a1 | a2\n  7395: a3 = a3 << 0x10\n  7398: a4 = a4 << 0x18\n  7401: a3 = a3 | a4\n  7404: a1 = a1 | a3\n  7407: a2 = u8 [a0 + 0x5]\n  7410: a3 = u8 [a0 + 0x4]\n  7413: a4 = u8 [a0 + 0x6]\n  7416: a0 = u8 [a0 + 0x7]\n  7419: a2 = a2 << 0x8\n  7422: a2 = a2 | a3\n  7425: a4 = a4 << 0x10\n  7428: a0 = a0 << 0x18\n  7431: a0 = a0 | a4\n  7434: a0 = a0 | a2\n  7437: a0 = a0 << 0x20\n  7440: s1 = a0 | a1\n  7443: i32 a0 = t0 + 0\n  7445: a1 = 0x20\n  7448: ra = 104, jump @0\n      : @120 [@dyn 52] (gas: 81)\n  7453: a3 = s1\n  7455: s1 = u64 [sp + 0x20]\n  7458: a4 = u64 [sp + 0x28]\n  7461: t2 = u64 [sp + 0x38]\n  7464: u8 [a0 + 0x10] = a4\n  7467: a1 = s1 >> 0x38\n  7470: u8 [a0 + 0xf] = a1\n  7473: a1 = s1 >> 0x30\n  7476: u8 [a0 + 0xe] = a1\n  7479: a1 = s1 >> 0x28\n  7482: u8 [a0 + 0xd] = a1\n  7485: a1 = s1 >> 0x20\n  7488: u8 [a0 + 0xc] = a1\n  7491: a1 = s1 >> 0x18\n  7494: u8 [a0 + 0xb] = a1\n  7497: a1 = s1 >> 0x10\n  7500: u8 [a0 + 0xa] = a1\n  7503: a1 = s1 >> 0x8\n  7506: u8 [a0 + 0x9] = a1\n  7509: u8 [a0 + 0x8] = s1\n  7512: a1 = a3 >> 0x38\n  7515: u8 [a0 + 0x7] = a1\n  7518: a1 = a3 >> 0x30\n  7521: u8 [a0 + 0x6] = a1\n  7524: a1 = a3 >> 0x28\n  7527: u8 [a0 + 0x5] = a1\n  7530: a1 = a3 >> 0x20\n  7533: u8 [a0 + 0x4] = a1\n  7536: a1 = a3 >> 0x18\n  7539: u8 [a0 + 0x3] = a1\n  7542: a1 = a3 >> 0x10\n  7545: u8 [a0 + 0x2] = a1\n  7548: a1 = a3 >> 0x8\n  7551: u8 [a0 + 0x1] = a1\n  7554: u8 [a0] = a3\n  7556: u8 [a0 + 0x18] = t2\n  7559: a1 = a4 >> 0x38\n  7562: u8 [a0 + 0x17] = a1\n  7565: a1 = a4 >> 0x30\n  7568: u8 [a0 + 0x16] = a1\n  7571: a1 = a4 >> 0x28\n  7574: u8 [a0 + 0x15] = a1\n  7577: a1 = a4 >> 0x20\n  7580: u8 [a0 + 0x14] = a1\n  7583: a1 = a4 >> 0x18\n  7586: u8 [a0 + 0x13] = a1\n  7589: a1 = a4 >> 0x10\n  7592: u8 [a0 + 0x12] = a1\n  7595: a1 = a4 >> 0x8\n  7598: u8 [a0 + 0x11] = a1\n  7601: a1 = t2 >> 0x38\n  7604: u8 [a0 + 0x1f] = a1\n  7607: a1 = t2 >> 0x30\n  7610: u8 [a0 + 0x1e] = a1\n  7613: a1 = t2 >> 0x28\n  7616: u8 [a0 + 0x1d] = a1\n  7619: a1 = t2 >> 0x20\n  7622: u8 [a0 + 0x1c] = a1\n  7625: a1 = t2 >> 0x18\n  7628: u8 [a0 + 0x1b] = a1\n  7631: a1 = t2 >> 0x10\n  7634: u8 [a0 + 0x1a] = a1\n  7637: a1 = t2 >> 0x8\n  7640: u8 [a0 + 0x19] = a1\n  7643: a0 = u64 [sp + 0x58]\n  7646: t0 = a0 + 0x40\n  7649: a0 = t0 <u a0\n  7652: a1 = u64 [sp + 0x68]\n  7655: t1 = a1 + a0\n  7658: a1 = t1 <u a1\n  7661: a1 = a0 if a0 == 0\n  7664: a0 = a3 | a4\n  7667: a2 = s1 | t2\n  7670: a0 = a0 | a2\n  7673: a5 = u64 [sp + 0x70]\n  7676: a2 = a5 + a1\n  7679: a1 = a2 <u a5\n  7682: a5 = u64 [sp + 0x78]\n  7685: a1 = a1 + a5\n  7688: u64 [sp + 0x78] = a1\n  7691: jump @127 if a0 == 0\n      : @121 (gas: 162)\n  7695: u64 [sp + 0x68] = a2\n  7698: u64 [sp + 0x70] = t1\n  7701: u64 [sp + 0x58] = t0\n  7704: a5 = reverse a3\n  7706: a3 = reverse s1\n  7708: u64 [sp + 0x20] = a3\n  7711: a2 = reverse a4\n  7713: a0 = reverse t2\n  7715: t0 = 0x1\n  7718: a1 = a0\n  7720: a1 = t0 if a2 == 0\n  7723: a4 = maxu(a0, t0)\n  7726: a4 = a1 if a2 != 0\n  7729: a1 = a3 >u 0\n  7731: s1 = a5\n  7733: a5 = a5 >u 0\n  7735: a5 = a1 if s1 == 0\n  7738: u64 [sp + 0x30] = s1\n  7741: a0 = t0 if a5 == 0\n  7744: s1 = s1 | a3\n  7747: a0 = a4 if s1 == 0\n  7750: a1 = a2\n  7752: a1 = 0 if a5 == 0\n  7754: a1 = a2 if s1 == 0\n  7757: t2 = a1\n  7759: a1 = 0xffffffe0\n  7769: a3 = u64 [sp + 0x50]\n  7772: t0 = a1 <u a3\n  7775: a5 = a3\n  7777: a4 = u64 [sp + 0x40]\n  7780: a3 = a4 >u 0\n  7782: a3 = t0 if a4 == 0\n  7785: a2 = a4\n  7787: s1 = u64 [sp + 0x48]\n  7790: a4 = -s1\n  7792: ra = a4 - a3\n  7795: t1 = ra >u 0\n  7797: a3 = a4 <u a3\n  7800: a4 = s1 >u 0\n  7802: s1 = u64 [sp + 0x60]\n  7805: a4 = a4 + s1\n  7808: s1 = -a4\n  7810: s1 = s1 - a3\n  7813: a4 = s1 >u 0\n  7815: a4 = t1 if s1 == 0\n  7818: a5 = a1 - a5\n  7821: a3 = -a2\n  7823: a2 = a3 - t0\n  7826: u64 [sp + 0x38] = a1\n  7829: t1 = a1 <u a5\n  7832: a3 = a2 >u 0\n  7834: a3 = t1 if a2 == 0\n  7837: a1 = ra | s1\n  7840: a3 = a4 if a1 != 0\n  7843: a5 = 0 if a3 != 0\n  7845: a4 = a5 + 0x1f\n  7848: a1 = a4 <u a5\n  7851: a2 = 0 if a3 != 0\n  7853: a5 = a2 + a1\n  7856: t1 = a5 <u a2\n  7859: t1 = a1 if a1 == 0\n  7862: ra = 0 if a3 != 0\n  7864: a1 = ra + t1\n  7867: u64 [sp] = a1\n  7869: a1 = a1 << 0x3b\n  7872: a2 = a5 >> 0x5\n  7875: a2 = a2 | a1\n  7878: a5 = a5 << 0x3b\n  7881: a4 = a4 >> 0x5\n  7884: a5 = a5 | a4\n  7887: u64 [sp + 0x28] = a5\n  7890: a1 = a0 <u 0x1\n  7893: t0 = t2\n  7895: t2 = t2 - a1\n  7898: t1 = a0 + 0xffffffffffffffff\n  7901: a1 = a2\n  7903: u64 [sp + 0x18] = a2\n  7906: a2 = t2 ^ a2\n  7909: a1 = t2 <u a1\n  7912: a4 = t1 <u a5\n  7915: a4 = a1 if a2 != 0\n  7918: u64 [sp + 0x8] = a4\n  7921: a4 = u64 [sp + 0x20]\n  7924: a1 = a4\n  7926: a2 = u64 [sp + 0x30]\n  7929: a1 = 0 if a2 == 0\n  7931: a1 = a4 if a2 == 0\n  7934: a0 = a0 | t0\n  7937: a0 = a0 <u 0x1\n  7940: a4 = a1 <u a0\n  7943: t0 = a2 - a4\n  7946: a5 = a1 - a0\n  7949: s1 = 0 if a3 != 0\n  7951: a3 = u64 [sp]\n  7953: a0 = a3 <u ra\n  7956: ra = u64 [sp + 0x60]\n  7959: a0 = a0 + s1\n  7962: a3 = a3 >> 0x5\n  7965: a4 = a0 << 0x3b\n  7968: a3 = a3 | a4\n  7971: a2 = a0 >> 0x5\n  7974: a1 = a5 <u a3\n  7977: s1 = t0 ^ a2\n  7980: a4 = t0 <u a2\n  7983: a0 = t0\n  7985: a4 = a1 if s1 == 0\n  7988: a1 = a5 ^ a3\n  7991: a1 = a1 | s1\n  7994: t0 = u64 [sp + 0x40]\n  7997: s1 = u64 [sp + 0x8]\n  8000: a4 = s1 if a1 == 0\n  8003: a0 = a2 if a4 == 0\n  8006: u64 [sp + 0x30] = a0\n  8009: a5 = a3 if a4 == 0\n  8012: a0 = u64 [sp + 0x18]\n  8015: t2 = a0 if a4 == 0\n  8018: a0 = u64 [sp + 0x28]\n  8021: t1 = a0 if a4 == 0\n  8024: a0 = t1 >> 0x3b\n  8027: a1 = t2 << 0x5\n  8030: a0 = a0 | a1\n  8033: t1 = t1 << 0x5\n  8036: a0 = a0 + t0\n  8039: s1 = u64 [sp + 0x50]\n  8042: t1 = t1 + s1\n  8045: u64 [sp + 0x28] = t1\n  8048: a1 = t1 <u s1\n  8051: t1 = a0 + a1\n  8054: a3 = t1 ^ t0\n  8057: a4 = t1 <u t0\n  8060: a4 = a1 if a3 == 0\n  8063: a1 = t2 >> 0x3b\n  8066: a3 = a5 << 0x5\n  8069: a1 = a1 | a3\n  8072: a2 = a5 >> 0x3b\n  8075: t2 = u64 [sp + 0x30]\n  8078: t2 = t2 << 0x5\n  8081: a2 = t2 | a2\n  8084: a2 = a2 + ra\n  8087: a0 = u64 [sp + 0x48]\n  8090: a1 = a1 + a0\n  8093: a3 = a1 <u a0\n  8096: a2 = a2 + a3\n  8099: a4 = a4 + a1\n  8102: a1 = a4 <u a1\n  8105: a1 = a1 + a2\n  8108: a3 = u64 [sp + 0x28]\n  8111: a2 = a3 + 0x20\n  8114: u64 [sp + 0x30] = a2\n  8117: a2 = a2 <u a3\n  8120: a5 = a0\n  8122: a3 = s1\n  8124: a0 = t1 + a2\n  8127: u64 [sp + 0x28] = a0\n  8130: a0 = a0 <u t1\n  8133: a0 = a2 if a2 == 0\n  8136: a0 = a0 + a4\n  8139: u64 [sp + 0x20] = a0\n  8142: a0 = a0 <u a4\n  8145: a0 = a0 + a1\n  8148: u64 [sp + 0x18] = a0\n  8151: fallthrough\n      : @122 (gas: 6)\n  8152: a0 = a5 | ra\n  8155: a1 = u64 [sp + 0x38]\n  8158: a1 = a3 <u a1\n  8161: a1 = 0 if t0 != 0\n  8163: a1 = 0 if a0 != 0\n  8165: jump @129 if a1 == 0\n      : @123 (gas: 15)\n  8169: a0 = a3 + 0x20\n  8172: u64 [sp + 0x48] = a0\n  8175: a0 = a0 <u a3\n  8178: a1 = t0 + a0\n  8181: u64 [sp + 0x50] = a1\n  8184: s1 = a1 <u t0\n  8187: s1 = a0 if a0 == 0\n  8190: s1 = s1 + a5\n  8193: u64 [sp + 0x40] = s1\n  8196: a0 = s1 <u a5\n  8199: ra = ra + a0\n  8202: u64 [sp + 0x60] = ra\n  8205: i32 a0 = a3 + 0x20\n  8208: a1 = 0x20\n  8211: ra = 106, jump @0\n      : @124 [@dyn 53] (gas: 107)\n  8216: a1 = u8 [a0 + 0x1]\n  8219: a2 = u8 [a0]\n  8221: a3 = u8 [a0 + 0x2]\n  8224: a4 = u8 [a0 + 0x3]\n  8227: a1 = a1 << 0x8\n  8230: a1 = a1 | a2\n  8233: a3 = a3 << 0x10\n  8236: a4 = a4 << 0x18\n  8239: a3 = a3 | a4\n  8242: a1 = a1 | a3\n  8245: a2 = u8 [a0 + 0x5]\n  8248: a3 = u8 [a0 + 0x4]\n  8251: a4 = u8 [a0 + 0x6]\n  8254: a5 = u8 [a0 + 0x7]\n  8257: a2 = a2 << 0x8\n  8260: a2 = a2 | a3\n  8263: a4 = a4 << 0x10\n  8266: a5 = a5 << 0x18\n  8269: a4 = a4 | a5\n  8272: a2 = a2 | a4\n  8275: a2 = a2 << 0x20\n  8278: t0 = a2 | a1\n  8281: a2 = u8 [a0 + 0x9]\n  8284: a3 = u8 [a0 + 0x8]\n  8287: a4 = u8 [a0 + 0xa]\n  8290: a5 = u8 [a0 + 0xb]\n  8293: a2 = a2 << 0x8\n  8296: a2 = a2 | a3\n  8299: a4 = a4 << 0x10\n  8302: a5 = a5 << 0x18\n  8305: a4 = a4 | a5\n  8308: a2 = a2 | a4\n  8311: a3 = u8 [a0 + 0xd]\n  8314: a4 = u8 [a0 + 0xc]\n  8317: a5 = u8 [a0 + 0xe]\n  8320: a1 = u8 [a0 + 0xf]\n  8323: a3 = a3 << 0x8\n  8326: a3 = a3 | a4\n  8329: a5 = a5 << 0x10\n  8332: a1 = a1 << 0x18\n  8335: a1 = a1 | a5\n  8338: a1 = a1 | a3\n  8341: a1 = a1 << 0x20\n  8344: a2 = a2 | a1\n  8347: a1 = u8 [a0 + 0x11]\n  8350: a3 = u8 [a0 + 0x10]\n  8353: a4 = u8 [a0 + 0x12]\n  8356: a5 = u8 [a0 + 0x13]\n  8359: a1 = a1 << 0x8\n  8362: a1 = a1 | a3\n  8365: a4 = a4 << 0x10\n  8368: a5 = a5 << 0x18\n  8371: a4 = a4 | a5\n  8374: a1 = a1 | a4\n  8377: a3 = u8 [a0 + 0x15]\n  8380: a4 = u8 [a0 + 0x14]\n  8383: a5 = u8 [a0 + 0x16]\n  8386: s1 = u8 [a0 + 0x17]\n  8389: a3 = a3 << 0x8\n  8392: a3 = a3 | a4\n  8395: a5 = a5 << 0x10\n  8398: s1 = s1 << 0x18\n  8401: a5 = a5 | s1\n  8404: a3 = a3 | a5\n  8407: a3 = a3 << 0x20\n  8410: a3 = a3 | a1\n  8413: a1 = u8 [a0 + 0x19]\n  8416: a4 = u8 [a0 + 0x18]\n  8419: a5 = u8 [a0 + 0x1a]\n  8422: s1 = u8 [a0 + 0x1b]\n  8425: a1 = a1 << 0x8\n  8428: a1 = a1 | a4\n  8431: a5 = a5 << 0x10\n  8434: s1 = s1 << 0x18\n  8437: a5 = a5 | s1\n  8440: a1 = a1 | a5\n  8443: a4 = u8 [a0 + 0x1d]\n  8446: a5 = u8 [a0 + 0x1c]\n  8449: s1 = u8 [a0 + 0x1e]\n  8452: a0 = u8 [a0 + 0x1f]\n  8455: a4 = a4 << 0x8\n  8458: a4 = a4 | a5\n  8461: s1 = s1 << 0x10\n  8464: a0 = a0 << 0x18\n  8467: a0 = a0 | s1\n  8470: a0 = a0 | a4\n  8473: a0 = a0 << 0x20\n  8476: a0 = a0 | a1\n  8479: a4 = reverse a0\n  8481: a0 = reverse a3\n  8483: a1 = reverse a2\n  8485: a2 = reverse t0\n  8487: a3 = u64 [sp + 0x78]\n  8490: u64 [sp + 0x98] = a3\n  8494: a3 = u64 [sp + 0x68]\n  8497: u64 [sp + 0x90] = a3\n  8501: a3 = u64 [sp + 0x70]\n  8504: u64 [sp + 0x88] = a3\n  8508: s1 = u64 [sp + 0x58]\n  8511: u64 [sp + 0x80] = s1\n  8515: u64 [sp + 0xb8] = a2\n  8519: u64 [sp + 0xb0] = a1\n  8523: u64 [sp + 0xa8] = a0\n  8527: a0 = sp + 0xa0\n  8531: a1 = sp + 0x80\n  8535: u64 [sp + 0xa0] = a4\n  8539: ra = 108, jump @96\n      : @125 [@dyn 54] (gas: 33)\n  8544: ra = u64 [sp + 0x60]\n  8547: t2 = s1 + 0x80\n  8551: a2 = t2 <u s1\n  8554: a0 = u64 [sp + 0x70]\n  8557: a1 = a0 + a2\n  8560: a3 = a1 <u a0\n  8563: a3 = a2 if a2 == 0\n  8566: a0 = u64 [sp + 0x68]\n  8569: a2 = a0 + a3\n  8572: t0 = a2 <u a0\n  8575: a4 = u64 [sp + 0x20]\n  8578: a0 = u64 [sp + 0x40]\n  8581: a4 = a4 ^ a0\n  8584: a5 = u64 [sp + 0x30]\n  8587: a3 = u64 [sp + 0x48]\n  8590: a5 = a5 ^ a3\n  8593: t1 = a5 | a4\n  8596: a5 = u64 [sp + 0x18]\n  8599: a5 = ra ^ a5\n  8602: s1 = u64 [sp + 0x28]\n  8605: a4 = u64 [sp + 0x50]\n  8608: s1 = s1 ^ a4\n  8611: a5 = a5 | s1\n  8614: s1 = t1 | a5\n  8617: a5 = u64 [sp + 0x78]\n  8620: a5 = a5 + t0\n  8623: u64 [sp + 0x78] = a5\n  8626: t0 = a4\n  8628: a5 = a0\n  8630: u64 [sp + 0x58] = t2\n  8633: u64 [sp + 0x70] = a1\n  8636: u64 [sp + 0x68] = a2\n  8639: jump @122 if s1 != 0\n      : @126 (gas: 1)\n  8643: jump @128\n      : @127 (gas: 3)\n  8645: t2 = t0\n  8647: a1 = t1\n  8649: fallthrough\n      : @128 (gas: 12)\n  8650: a3 = u64 [sp + 0x10]\n  8653: u64 [a3] = t2\n  8655: u64 [a3 + 0x8] = a1\n  8658: u64 [a3 + 0x10] = a2\n  8661: a0 = u64 [sp + 0x78]\n  8664: u64 [a3 + 0x18] = a0\n  8667: sp = s0 + 0xffffffffffffff20\n  8671: ra = u64 [sp + 0xd8]\n  8675: s0 = u64 [sp + 0xd0]\n  8679: s1 = u64 [sp + 0xc8]\n  8683: sp = sp + 0xe0\n  8687: ret\n      : @129 (gas: 1)\n  8689: trap\n      : @130 (gas: 8)\n  8690: a0 = u64 [sp + 0xf0]\n  8694: a1 = u64 [sp + 0xf8]\n  8698: a2 = u64 [sp + 0xe8]\n  8702: a3 = u64 [sp + 0xe0]\n  8706: a1 = a1 | a2\n  8709: a0 = a0 | a3\n  8712: a0 = a0 | a1\n  8715: jump @138 if a0 != 0\n      : @131 (gas: 2)\n  8719: a0 = i32 [0x20004]\n  8724: jump @138 if a0 <=u 3\n      : @132 (gas: 52)\n  8729: u64 [sp + 184] = 0\n  8733: u64 [sp + 176] = 0\n  8737: u64 [sp + 168] = 0\n  8741: a0 = sp + 0xc0\n  8745: a1 = sp + 0xa0\n  8749: u64 [sp + 160] = 0\n  8753: ra = 0x6e\n  8756: sp = sp + 0xfffffffffffffe40\n  8760: u64 [sp + 0x1b8] = ra\n  8764: u64 [sp + 0x1b0] = s0\n  8768: u64 [sp + 0x1a8] = s1\n  8772: s0 = sp + 0x1c0\n  8776: sp = sp & 0xffffffffffffffe0\n  8779: u64 [sp + 0x18] = a0\n  8782: a3 = u64 [a1 + 0x18]\n  8785: u64 [sp + 0x88] = a3\n  8789: a2 = u64 [a1 + 0x10]\n  8792: u64 [sp + 0x90] = a2\n  8796: a0 = u64 [a1 + 0x8]\n  8799: u64 [sp + 0x98] = a0\n  8803: s1 = u64 [a1]\n  8805: u64 [sp + 0x158] = a3\n  8809: u64 [sp + 0x150] = a2\n  8813: u64 [sp + 0x148] = a0\n  8817: u64 [sp + 0x140] = s1\n  8821: u64 [sp + 408] = 0\n  8825: u64 [sp + 400] = 0\n  8829: u64 [sp + 392] = 0\n  8833: u64 [sp + 384] = 0\n  8837: u32 [sp + 352] = 0x20\n  8842: i32 a1 = sp + 0x140\n  8846: i32 a3 = sp + 0x180\n  8850: i32 a4 = sp + 0x160\n  8854: a2 = 0xffffffffffffffff\n  8857: a0 = 0\n  8859: ecalli 6 // 'get_storage'\n  8861: a0 = u64 [sp + 0x198]\n  8865: u64 [sp + 0xb8] = a0\n  8869: a3 = u64 [sp + 0x190]\n  8873: u64 [sp + 0xa0] = a3\n  8877: a1 = u64 [sp + 0x188]\n  8881: u64 [sp + 0xb0] = a1\n  8885: a2 = u64 [sp + 0x180]\n  8889: u64 [sp + 0xa8] = a2\n  8893: u64 [sp + 0x118] = a0\n  8897: u64 [sp + 0x110] = a3\n  8901: u64 [sp + 0x108] = a1\n  8905: a0 = sp + 0x120\n  8909: a1 = sp + 0x100\n  8913: u64 [sp + 0x100] = a2\n  8917: ra = 0x136\n  8921: jump @316\n      : @133 [@dyn 55] (gas: 11)\n  8924: a0 = u64 [sp + 0xc0]\n  8928: u64 [sp + 0x38] = a0\n  8931: a0 = u64 [sp + 0xc8]\n  8935: u64 [sp + 0x30] = a0\n  8938: a0 = u64 [sp + 0xd0]\n  8942: u64 [sp + 0x28] = a0\n  8945: a0 = u64 [sp + 0xd8]\n  8949: u64 [sp + 0x20] = a0\n  8952: a0 = 0x40\n  8955: a1 = 0x20\n  8958: ra = 112, jump @0\n      : @134 [@dyn 56] (gas: 111)\n  8963: a1 = u8 [a0 + 0x1]\n  8966: a2 = u8 [a0]\n  8968: a3 = u8 [a0 + 0x2]\n  8971: a4 = u8 [a0 + 0x3]\n  8974: a1 = a1 << 0x8\n  8977: a1 = a1 | a2\n  8980: a3 = a3 << 0x10\n  8983: a4 = a4 << 0x18\n  8986: a3 = a3 | a4\n  8989: a1 = a1 | a3\n  8992: a2 = u8 [a0 + 0x5]\n  8995: a3 = u8 [a0 + 0x4]\n  8998: a4 = u8 [a0 + 0x6]\n  9001: a5 = u8 [a0 + 0x7]\n  9004: a2 = a2 << 0x8\n  9007: a2 = a2 | a3\n  9010: a4 = a4 << 0x10\n  9013: a5 = a5 << 0x18\n  9016: a4 = a4 | a5\n  9019: a2 = a2 | a4\n  9022: a2 = a2 << 0x20\n  9025: t0 = a2 | a1\n  9028: a2 = u8 [a0 + 0x9]\n  9031: a3 = u8 [a0 + 0x8]\n  9034: a4 = u8 [a0 + 0xa]\n  9037: a5 = u8 [a0 + 0xb]\n  9040: a2 = a2 << 0x8\n  9043: a2 = a2 | a3\n  9046: a4 = a4 << 0x10\n  9049: a5 = a5 << 0x18\n  9052: a4 = a4 | a5\n  9055: a2 = a2 | a4\n  9058: a3 = u8 [a0 + 0xd]\n  9061: a4 = u8 [a0 + 0xc]\n  9064: a5 = u8 [a0 + 0xe]\n  9067: s1 = u8 [a0 + 0xf]\n  9070: a3 = a3 << 0x8\n  9073: a3 = a3 | a4\n  9076: a5 = a5 << 0x10\n  9079: s1 = s1 << 0x18\n  9082: a5 = a5 | s1\n  9085: a3 = a3 | a5\n  9088: a3 = a3 << 0x20\n  9091: a2 = a2 | a3\n  9094: a3 = u8 [a0 + 0x11]\n  9097: a4 = u8 [a0 + 0x10]\n  9100: a5 = u8 [a0 + 0x12]\n  9103: s1 = u8 [a0 + 0x13]\n  9106: a3 = a3 << 0x8\n  9109: a3 = a3 | a4\n  9112: a5 = a5 << 0x10\n  9115: s1 = s1 << 0x18\n  9118: a5 = a5 | s1\n  9121: a3 = a3 | a5\n  9124: a4 = u8 [a0 + 0x15]\n  9127: a5 = u8 [a0 + 0x14]\n  9130: s1 = u8 [a0 + 0x16]\n  9133: a1 = u8 [a0 + 0x17]\n  9136: a4 = a4 << 0x8\n  9139: a4 = a4 | a5\n  9142: s1 = s1 << 0x10\n  9145: a1 = a1 << 0x18\n  9148: a1 = a1 | s1\n  9151: a1 = a1 | a4\n  9154: a1 = a1 << 0x20\n  9157: a3 = a3 | a1\n  9160: a1 = u8 [a0 + 0x19]\n  9163: a4 = u8 [a0 + 0x18]\n  9166: a5 = u8 [a0 + 0x1a]\n  9169: s1 = u8 [a0 + 0x1b]\n  9172: a1 = a1 << 0x8\n  9175: a1 = a1 | a4\n  9178: a5 = a5 << 0x10\n  9181: s1 = s1 << 0x18\n  9184: a5 = a5 | s1\n  9187: a1 = a1 | a5\n  9190: a4 = u8 [a0 + 0x1d]\n  9193: a5 = u8 [a0 + 0x1c]\n  9196: s1 = u8 [a0 + 0x1e]\n  9199: a0 = u8 [a0 + 0x1f]\n  9202: a4 = a4 << 0x8\n  9205: a4 = a4 | a5\n  9208: s1 = s1 << 0x10\n  9211: a0 = a0 << 0x18\n  9214: a0 = a0 | s1\n  9217: a0 = a0 | a4\n  9220: a0 = a0 << 0x20\n  9223: a0 = a0 | a1\n  9226: a4 = reverse a0\n  9228: u64 [sp + 0x8] = a4\n  9231: a3 = reverse a3\n  9233: u64 [sp + 0x10] = a3\n  9236: a1 = reverse a2\n  9238: u64 [sp + 0x18] = a1\n  9241: s1 = reverse t0\n  9243: a0 = u64 [sp + 0x20]\n  9246: u64 [sp + 0x58] = a0\n  9249: a0 = u64 [sp + 0x28]\n  9252: u64 [sp + 0x50] = a0\n  9255: a0 = u64 [sp + 0x30]\n  9258: u64 [sp + 0x48] = a0\n  9261: a0 = u64 [sp + 0x38]\n  9264: u64 [sp + 0x40] = a0\n  9267: u64 [sp + 0x78] = s1\n  9270: u64 [sp + 0x70] = a1\n  9273: u64 [sp + 0x68] = a3\n  9276: a0 = sp + 0x80\n  9280: a1 = sp + 0x60\n  9283: a2 = sp + 0x40\n  9286: u64 [sp + 0x60] = a4\n  9289: ra = 114, jump @114\n      : @135 [@dyn 57] (gas: 12)\n  9294: a4 = u64 [sp + 0x10]\n  9297: a2 = u64 [sp + 0x8]\n  9300: u64 [sp + 0x38] = s1\n  9303: a0 = a4 | s1\n  9306: s1 = u64 [sp + 0x18]\n  9309: a1 = a2 | s1\n  9312: a1 = a1 | a0\n  9315: a1 = a1 >> 0x20\n  9318: a0 = a0 | s1\n  9321: a0 = a0 << 0x20\n  9324: a0 = a0 | a1\n  9327: jump @137 if a0 != 0\n      : @136 (gas: 29)\n  9330: a0 = u64 [sp + 0x88]\n  9334: a1 = u64 [sp + 0x98]\n  9338: u64 [sp + 0x30] = a1\n  9341: t1 = u64 [sp + 0x80]\n  9345: a1 = u64 [sp + 0x90]\n  9349: t2 = a0 ^ a4\n  9352: a5 = a0 <u a4\n  9355: ra = t1 <u a2\n  9358: a5 = ra if t2 == 0\n  9361: a3 = a1 - s1\n  9364: t2 = a3 - a5\n  9367: t0 = a3 <u a5\n  9370: a3 = a1 <u s1\n  9373: a1 = u64 [sp + 0x38]\n  9376: a5 = u64 [sp + 0x30]\n  9379: a5 = a5 - a1\n  9382: a5 = a5 - a3\n  9385: a5 = a5 - t0\n  9388: a0 = a0 - a4\n  9391: a0 = a0 - ra\n  9394: s1 = t1 - a2\n  9397: a0 = a0 | a5\n  9400: a1 = s1 | t2\n  9403: a1 = a1 | a0\n  9406: a0 = a0 | t2\n  9409: a1 = a1 >> 0x20\n  9412: a0 = a0 << 0x20\n  9415: a0 = a0 | a1\n  9418: jump @140 if a0 == 0\n      : @137 (gas: 1)\n  9421: trap\n      : @138 (gas: 3)\n  9422: a0 = 0\n  9424: a1 = 0\n  9426: ra = 116, jump @0\n      : @139 [@dyn 58] (gas: 5)\n  9431: i32 a1 = a0 + 0\n  9433: a0 = 0x1\n  9436: a2 = 0\n  9438: ecalli 11 // 'seal_return'\n  9440: fallthrough\n      : @140 (gas: 4)\n  9441: i32 a0 = a2 + 0\n  9443: i32 s1 = s1 + 0\n  9445: a1 = s1\n  9447: ra = 118, jump @0\n      : @141 [@dyn 59] (gas: 6)\n  9452: i32 a1 = a0 + 0\n  9454: a0 = 0\n  9456: a2 = s1\n  9458: ra = 0x78\n  9461: ecalli 11 // 'seal_return'\n  9463: fallthrough\n      : @142 [@dyn 60] (gas: 52)\n  9464: sp = sp + 0xffffffffffffff80\n  9467: u64 [sp + 0x78] = ra\n  9470: u64 [sp + 0x70] = s0\n  9473: u64 [sp + 0x68] = s1\n  9476: s0 = sp + 0x80\n  9480: sp = sp & 0xffffffffffffffe0\n  9483: t2 = u64 [a1 + 0x10]\n  9486: a5 = u64 [a1 + 0x8]\n  9489: t0 = u64 [a2 + 0x8]\n  9492: s1 = u64 [a1]\n  9494: u64 [sp + 0x10] = s1\n  9497: a4 = u64 [a2]\n  9499: u64 [sp + 0x18] = a4\n  9502: ra = u64 [a2 + 0x10]\n  9505: a3 = t0 ^ a5\n  9508: u64 [sp + 0x38] = a3\n  9511: a3 = t0 <u a5\n  9514: a4 = a4 <u s1\n  9517: t1 = u64 [sp + 0x38]\n  9520: a3 = a4 if t1 == 0\n  9523: t1 = a4\n  9525: a1 = u64 [a1 + 0x18]\n  9528: u64 [sp + 0x38] = a1\n  9531: a1 = u64 [a2 + 0x18]\n  9534: u64 [sp + 0x20] = a1\n  9537: a1 = ra - t2\n  9540: a2 = a1 - a3\n  9543: u64 [sp + 0x28] = a2\n  9546: a2 = a1 <u a3\n  9549: u64 [sp + 0x30] = t2\n  9552: a3 = ra <u t2\n  9555: a1 = u64 [sp + 0x38]\n  9558: a4 = u64 [sp + 0x20]\n  9561: a1 = a4 - a1\n  9564: a1 = a1 - a3\n  9567: t2 = a1 - a2\n  9570: s1 = t0 - a5\n  9573: a2 = s1 - t1\n  9576: t0 = u64 [sp + 0x10]\n  9579: a1 = u64 [sp + 0x18]\n  9582: a3 = a1 - t0\n  9585: a4 = a2 >u 0\n  9587: a3 = a3 <u 0x20\n  9590: a3 = a3 ^ 0x1\n  9593: a3 = a4 if a2 != 0\n  9596: a2 = t2 >s 0\n  9598: a1 = u64 [sp + 0x28]\n  9601: a4 = a1 >u 0\n  9603: a4 = a2 if t2 != 0\n  9606: a1 = a1 | t2\n  9609: a3 = a4 if a1 != 0\n  9612: jump @146 if a3 == 0\n      : @143 (gas: 11)\n  9615: s1 = a0\n  9617: a2 = u64 [sp + 0x30]\n  9620: a0 = t0 | a2\n  9623: a1 = u64 [sp + 0x38]\n  9626: a1 = a1 | a5\n  9629: a0 = a0 | a1\n  9632: a0 = a0 >> 0x20\n  9635: a1 = a1 | a2\n  9638: a1 = a1 << 0x20\n  9641: a0 = a0 | a1\n  9644: jump @145 if a0 != 0\n      : @144 (gas: 17)\n  9647: i32 a1 = t0 + 0\n  9649: i32 a0 = sp + 0x40\n  9652: ecalli 2 // 'call_data_load'\n  9654: a0 = u64 [sp + 0x58]\n  9657: a1 = u64 [sp + 0x50]\n  9660: a2 = u64 [sp + 0x48]\n  9663: a3 = u64 [sp + 0x40]\n  9666: u64 [s1 + 0x18] = a0\n  9669: u64 [s1 + 0x10] = a1\n  9672: u64 [s1 + 0x8] = a2\n  9675: u64 [s1] = a3\n  9677: sp = s0 + 0xffffffffffffff80\n  9680: ra = u64 [sp + 0x78]\n  9683: s0 = u64 [sp + 0x70]\n  9686: s1 = u64 [sp + 0x68]\n  9689: sp = sp + 0x80\n  9693: ret\n      : @145 (gas: 1)\n  9695: trap\n      : @146 (gas: 3)\n  9696: a0 = 0\n  9698: a1 = 0\n  9700: ra = 122, jump @0\n      : @147 [@dyn 61] (gas: 6)\n  9705: i32 a1 = a0 + 0\n  9707: a0 = 0x1\n  9710: a2 = 0\n  9712: ra = 0x7c\n  9715: ecalli 11 // 'seal_return'\n  9717: fallthrough\n      : @148 [@dyn 62] (gas: 12)\n  9718: sp = sp + 0xffffffffffffff80\n  9721: u64 [sp + 0x78] = ra\n  9724: u64 [sp + 0x70] = s0\n  9727: s0 = sp + 0x80\n  9731: sp = sp & 0xffffffffffffffe0\n  9734: u64 [sp + 56] = 0\n  9737: u64 [sp + 48] = 0\n  9740: u64 [sp + 40] = 0\n  9743: u64 [sp + 32] = 0\n  9746: i32 a0 = sp + 0x20\n  9749: ecalli 14 // 'value_transferred'\n  9751: fallthrough\n      : @149 (gas: 8)\n  9752: a0 = u64 [sp + 0x30]\n  9755: a1 = u64 [sp + 0x38]\n  9758: a2 = u64 [sp + 0x28]\n  9761: a3 = u64 [sp + 0x20]\n  9764: a1 = a1 | a2\n  9767: a0 = a0 | a3\n  9770: a0 = a0 | a1\n  9773: jump @155 if a0 != 0\n      : @150 (gas: 2)\n  9777: a0 = i32 [0x20004]\n  9782: jump @155 if a0 <=u 35\n      : @151 (gas: 42)\n  9787: i32 a0 = sp + 0x40\n  9790: a1 = 0x4\n  9793: ecalli 2 // 'call_data_load'\n  9795: a1 = u64 [sp + 0x40]\n  9798: a0 = u64 [sp + 0x48]\n  9801: a2 = u64 [sp + 0x50]\n  9804: a3 = u64 [sp + 0x58]\n  9807: u64 [sp + 0x18] = a3\n  9810: u64 [sp + 0x10] = a2\n  9813: u64 [sp + 0x8] = a0\n  9816: a0 = sp\n  9818: u64 [sp] = a1\n  9820: ra = 0x7e\n  9823: sp = sp + 0xfffffffffffffa80\n  9827: u64 [sp + 0x578] = ra\n  9831: u64 [sp + 0x570] = s0\n  9835: u64 [sp + 0x568] = s1\n  9839: s0 = sp + 0x580\n  9843: sp = sp & 0xffffffffffffffe0\n  9846: a1 = u64 [a0]\n  9848: u64 [sp + 0xf0] = a1\n  9852: a1 = u64 [a0 + 0x8]\n  9855: u64 [sp + 0xe8] = a1\n  9859: a1 = u64 [a0 + 0x10]\n  9862: u64 [sp + 0xf8] = a1\n  9866: s1 = u64 [a0 + 0x18]\n  9869: u64 [sp + 1336] = 0\n  9873: u64 [sp + 1328] = 0\n  9877: u64 [sp + 1320] = 0\n  9881: u64 [sp + 1312] = 0\n  9885: u64 [sp + 1368] = 0\n  9889: u64 [sp + 1360] = 0\n  9893: u64 [sp + 1352] = 0\n  9897: u64 [sp + 1344] = 0\n  9901: u32 [sp + 1280] = 0x20\n  9906: i32 a1 = sp + 0x520\n  9910: i32 a3 = sp + 0x540\n  9914: i32 a4 = sp + 0x500\n  9918: a2 = 0xffffffffffffffff\n  9921: a0 = 0\n  9923: ecalli 6 // 'get_storage'\n  9925: jump @377\n      : @152 [@dyn 63] (gas: 3)\n  9928: a0 = 0x40\n  9931: a1 = 0x20\n  9934: ra = 128, jump @0\n      : @153 [@dyn 64] (gas: 100)\n  9940: a1 = u8 [a0 + 0x11]\n  9943: a2 = u8 [a0 + 0x10]\n  9946: a3 = u8 [a0 + 0x12]\n  9949: a4 = u8 [a0 + 0x13]\n  9952: a1 = a1 << 0x8\n  9955: a1 = a1 | a2\n  9958: a3 = a3 << 0x10\n  9961: a4 = a4 << 0x18\n  9964: a3 = a3 | a4\n  9967: a1 = a1 | a3\n  9970: a2 = u8 [a0 + 0x15]\n  9973: a3 = u8 [a0 + 0x14]\n  9976: a4 = u8 [a0 + 0x16]\n  9979: a5 = u8 [a0 + 0x17]\n  9982: a2 = a2 << 0x8\n  9985: a2 = a2 | a3\n  9988: a4 = a4 << 0x10\n  9991: a5 = a5 << 0x18\n  9994: a4 = a4 | a5\n  9997: a2 = a2 | a4\n 10000: a2 = a2 << 0x20\n 10003: t0 = a2 | a1\n 10006: a2 = u8 [a0 + 0x1]\n 10009: a3 = u8 [a0]\n 10011: a4 = u8 [a0 + 0x2]\n 10014: a5 = u8 [a0 + 0x3]\n 10017: a2 = a2 << 0x8\n 10020: a2 = a2 | a3\n 10023: a4 = a4 << 0x10\n 10026: a5 = a5 << 0x18\n 10029: a4 = a4 | a5\n 10032: a2 = a2 | a4\n 10035: a3 = u8 [a0 + 0x5]\n 10038: a4 = u8 [a0 + 0x4]\n 10041: a5 = u8 [a0 + 0x6]\n 10044: a1 = u8 [a0 + 0x7]\n 10047: a3 = a3 << 0x8\n 10050: a3 = a3 | a4\n 10053: a5 = a5 << 0x10\n 10056: a1 = a1 << 0x18\n 10059: a1 = a1 | a5\n 10062: a1 = a1 | a3\n 10065: a1 = a1 << 0x20\n 10068: t1 = a1 | a2\n 10071: a1 = u8 [a0 + 0x19]\n 10074: a3 = u8 [a0 + 0x18]\n 10077: a4 = u8 [a0 + 0x1a]\n 10080: a5 = u8 [a0 + 0x1b]\n 10083: a1 = a1 << 0x8\n 10086: a1 = a1 | a3\n 10089: a4 = a4 << 0x10\n 10092: a5 = a5 << 0x18\n 10095: a4 = a4 | a5\n 10098: a1 = a1 | a4\n 10101: a3 = u8 [a0 + 0x1d]\n 10104: a4 = u8 [a0 + 0x1c]\n 10107: a5 = u8 [a0 + 0x1e]\n 10110: a2 = u8 [a0 + 0x1f]\n 10113: a3 = a3 << 0x8\n 10116: a3 = a3 | a4\n 10119: a5 = a5 << 0x10\n 10122: a2 = a2 << 0x18\n 10125: a2 = a2 | a5\n 10128: a2 = a2 | a3\n 10131: a2 = a2 << 0x20\n 10134: a3 = a2 | a1\n 10137: a1 = u8 [a0 + 0x9]\n 10140: a2 = u8 [a0 + 0x8]\n 10143: a4 = u8 [a0 + 0xa]\n 10146: a5 = u8 [a0 + 0xb]\n 10149: a1 = a1 << 0x8\n 10152: a1 = a1 | a2\n 10155: a4 = a4 << 0x10\n 10158: a5 = a5 << 0x18\n 10161: a4 = a4 | a5\n 10164: a1 = a1 | a4\n 10167: a2 = u8 [a0 + 0xd]\n 10170: a4 = u8 [a0 + 0xc]\n 10173: a5 = u8 [a0 + 0xe]\n 10176: a0 = u8 [a0 + 0xf]\n 10179: a2 = a2 << 0x8\n 10182: a2 = a2 | a4\n 10185: a5 = a5 << 0x10\n 10188: a0 = a0 << 0x18\n 10191: a0 = a0 | a5\n 10194: a0 = a0 | a2\n 10197: a0 = a0 << 0x20\n 10200: a0 = a0 | a1\n 10203: a1 = reverse a0\n 10205: a0 = reverse a3\n 10207: a2 = reverse t1\n 10209: a3 = reverse t0\n 10211: a2 = a2 | a3\n 10214: a3 = a0 | a1\n 10217: a3 = a3 | a2\n 10220: a3 = a3 >> 0x20\n 10223: a1 = a1 | a2\n 10226: a1 = a1 << 0x20\n 10229: a1 = a1 | a3\n 10232: jump @157 if a1 == 0\n      : @154 (gas: 1)\n 10235: trap\n      : @155 (gas: 3)\n 10236: a0 = 0\n 10238: a1 = 0\n 10240: ra = 130, jump @0\n      : @156 [@dyn 65] (gas: 7)\n 10246: i32 a1 = a0 + 0\n 10248: a0 = 0x1\n 10251: a2 = 0\n 10253: ecalli 11 // 'seal_return'\n 10255: i32 a0 = a0 + 0\n 10257: ra = 0x84\n 10261: jump @0\n      : @157 (gas: 2)\n 10264: i32 a0 = a0 + 0\n 10266: ra = 132, jump @0\n      : @158 [@dyn 66] (gas: 6)\n 10272: i32 a1 = a0 + 0\n 10274: a0 = 0\n 10276: a2 = 0\n 10278: ra = 0x86\n 10282: ecalli 11 // 'seal_return'\n 10284: fallthrough\n      : @159 [@dyn 67] (gas: 13)\n 10285: sp = sp + 0xffffffffffffffb0\n 10288: u64 [sp + 0x48] = ra\n 10291: u64 [sp + 0x40] = s0\n 10294: s0 = sp + 0x50\n 10297: sp = sp & 0xfffffffffffffff0\n 10300: u64 [sp + 48] = 0\n 10303: u64 [sp + 40] = 0\n 10306: u64 [sp + 32] = 0\n 10309: a0 = 0x4e487b7100000000\n 10319: a1 = sp + 0x20\n 10322: u64 [sp + 0x38] = a0\n 10325: a0 = 0\n 10327: ra = 136, jump @8\n      : @160 [@dyn 68] (gas: 7)\n 10333: u64 [sp + 24] = 0\n 10336: u64 [sp + 16] = 0\n 10339: u64 [sp + 0] = 0x32\n 10342: a0 = 0x4\n 10345: a1 = sp\n 10347: u64 [sp + 8] = 0\n 10350: ra = 138, jump @8\n      : @161 [@dyn 69] (gas: 3)\n 10356: a1 = 0x24\n 10359: a0 = 0\n 10361: ra = 140, jump @0\n      : @162 [@dyn 70] (gas: 6)\n 10367: i32 a1 = a0 + 0\n 10369: a0 = 0x1\n 10372: a2 = 0x24\n 10375: ra = 0x8e\n 10379: ecalli 11 // 'seal_return'\n 10381: fallthrough\n      : @163 [@dyn 71] (gas: 40)\n 10382: sp = sp + 0xffffffffffffffa0\n 10385: u64 [sp + 0x58] = ra\n 10388: u64 [sp + 0x50] = s0\n 10391: u64 [sp + 0x48] = s1\n 10394: s0 = sp + 0x60\n 10397: sp = sp & 0xffffffffffffffe0\n 10400: s1 = a0\n 10402: a0 = u64 [a1 + 0x18]\n 10405: a2 = u64 [a1 + 0x10]\n 10408: a3 = u64 [a1 + 0x8]\n 10411: a1 = u64 [a1]\n 10413: u64 [sp + 0x18] = a0\n 10416: u64 [sp + 0x10] = a2\n 10419: u64 [sp + 0x8] = a3\n 10422: u64 [sp] = a1\n 10424: u64 [sp + 56] = 0\n 10427: u64 [sp + 48] = 0\n 10430: u64 [sp + 40] = 0\n 10433: u64 [sp + 32] = 0\n 10436: u32 [sp + 64] = 0x20\n 10440: i32 a1 = sp + 0\n 10442: i32 a3 = sp + 0x20\n 10445: i32 a4 = sp + 0x40\n 10448: a2 = 0xffffffffffffffff\n 10451: a0 = 0\n 10453: ecalli 6 // 'get_storage'\n 10455: a0 = u64 [sp + 0x38]\n 10458: a1 = u64 [sp + 0x30]\n 10461: a2 = u64 [sp + 0x28]\n 10464: a3 = u64 [sp + 0x20]\n 10467: u64 [s1 + 0x18] = a0\n 10470: u64 [s1 + 0x10] = a1\n 10473: u64 [s1 + 0x8] = a2\n 10476: u64 [s1] = a3\n 10478: sp = s0 + 0xffffffffffffffa0\n 10481: ra = u64 [sp + 0x58]\n 10484: s0 = u64 [sp + 0x50]\n 10487: s1 = u64 [sp + 0x48]\n 10490: sp = sp + 0x60\n 10493: ret\n      : @164 (gas: 38)\n 10495: sp = sp + 0xfffffffffffffee0\n 10499: u64 [sp + 0x118] = ra\n 10503: u64 [sp + 0x110] = s0\n 10507: u64 [sp + 0x108] = s1\n 10511: s0 = sp + 0x120\n 10515: sp = sp & 0xffffffffffffffe0\n 10518: u64 [sp + 0x40] = a0\n 10521: a0 = u64 [a2]\n 10523: u64 [sp + 0x50] = a0\n 10526: a0 = u64 [a2 + 0x8]\n 10529: u64 [sp + 0x58] = a0\n 10532: a0 = u64 [a2 + 0x10]\n 10535: u64 [sp + 0x48] = a0\n 10538: s1 = u64 [a2 + 0x18]\n 10541: a4 = u64 [a1 + 0x18]\n 10544: a3 = u64 [a1 + 0x10]\n 10547: a2 = u64 [a1 + 0x8]\n 10550: a0 = u64 [a1]\n 10552: u64 [sp + 0x18] = a4\n 10555: u64 [sp + 0xb8] = a4\n 10559: u64 [sp + 0x20] = a3\n 10562: u64 [sp + 0xb0] = a3\n 10566: u64 [sp + 0x28] = a2\n 10569: u64 [sp + 0xa8] = a2\n 10573: u64 [sp + 0x30] = a0\n 10576: u64 [sp + 0xa0] = a0\n 10580: u64 [sp + 248] = 0\n 10584: u64 [sp + 240] = 0\n 10588: u64 [sp + 232] = 0\n 10592: u64 [sp + 224] = 0\n 10596: u32 [sp + 192] = 0x20\n 10601: i32 a1 = sp + 0xa0\n 10605: i32 a3 = sp + 0xe0\n 10609: i32 a4 = sp + 0xc0\n 10613: a2 = 0xffffffffffffffff\n 10616: a0 = 0\n 10618: ecalli 6 // 'get_storage'\n 10620: fallthrough\n      : @165 (gas: 20)\n 10621: a0 = u64 [sp + 0xf8]\n 10625: t0 = u64 [sp + 0xe0]\n 10629: a2 = u64 [sp + 0xf0]\n 10633: a3 = u64 [sp + 0xe8]\n 10637: a4 = a0 ^ s1\n 10640: u64 [sp + 0x38] = s1\n 10643: a0 = s1 <u a0\n 10646: s1 = u64 [sp + 0x48]\n 10649: a5 = s1 <u a2\n 10652: a5 = a0 if a4 != 0\n 10655: a1 = u64 [sp + 0x58]\n 10658: a0 = a3 ^ a1\n 10661: a3 = a1 <u a3\n 10664: a1 = u64 [sp + 0x50]\n 10667: a1 = a1 <u t0\n 10670: a1 = a3 if a0 != 0\n 10673: a0 = a2 ^ s1\n 10676: a0 = a0 | a4\n 10679: a1 = a5 if a0 != 0\n 10682: jump @169 if a1 == 0\n      : @166 (gas: 3)\n 10686: a1 = 0x20\n 10689: a0 = 0\n 10691: ra = 144, jump @0\n      : @167 [@dyn 72] (gas: 71)\n 10697: a1 = u64 [sp + 0x18]\n 10700: a1 = reverse a1\n 10702: a2 = u64 [sp + 0x20]\n 10705: a2 = reverse a2\n 10707: a3 = u64 [sp + 0x28]\n 10710: a3 = reverse a3\n 10712: a4 = u64 [sp + 0x30]\n 10715: a4 = reverse a4\n 10717: a5 = a4 >> 0x38\n 10720: u8 [a0 + 0x1f] = a5\n 10723: a5 = a4 >> 0x30\n 10726: u8 [a0 + 0x1e] = a5\n 10729: a5 = a4 >> 0x28\n 10732: u8 [a0 + 0x1d] = a5\n 10735: a5 = a4 >> 0x20\n 10738: u8 [a0 + 0x1c] = a5\n 10741: a5 = a4 >> 0x18\n 10744: u8 [a0 + 0x1b] = a5\n 10747: a5 = a4 >> 0x10\n 10750: u8 [a0 + 0x1a] = a5\n 10753: a5 = a4 >> 0x8\n 10756: u8 [a0 + 0x19] = a5\n 10759: u8 [a0 + 0x18] = a4\n 10762: u8 [a0 + 0x10] = a3\n 10765: a4 = a3 >> 0x38\n 10768: u8 [a0 + 0x17] = a4\n 10771: a4 = a3 >> 0x30\n 10774: u8 [a0 + 0x16] = a4\n 10777: a4 = a3 >> 0x28\n 10780: u8 [a0 + 0x15] = a4\n 10783: a4 = a3 >> 0x20\n 10786: u8 [a0 + 0x14] = a4\n 10789: a4 = a3 >> 0x18\n 10792: u8 [a0 + 0x13] = a4\n 10795: a4 = a3 >> 0x10\n 10798: u8 [a0 + 0x12] = a4\n 10801: a3 = a3 >> 0x8\n 10804: u8 [a0 + 0x11] = a3\n 10807: u8 [a0 + 0x8] = a2\n 10810: a3 = a2 >> 0x38\n 10813: u8 [a0 + 0xf] = a3\n 10816: a3 = a2 >> 0x30\n 10819: u8 [a0 + 0xe] = a3\n 10822: a3 = a2 >> 0x28\n 10825: u8 [a0 + 0xd] = a3\n 10828: a3 = a2 >> 0x20\n 10831: u8 [a0 + 0xc] = a3\n 10834: a3 = a2 >> 0x18\n 10837: u8 [a0 + 0xb] = a3\n 10840: a3 = a2 >> 0x10\n 10843: u8 [a0 + 0xa] = a3\n 10846: a2 = a2 >> 0x8\n 10849: u8 [a0 + 0x9] = a2\n 10852: u8 [a0] = a1\n 10854: a2 = a1 >> 0x38\n 10857: u8 [a0 + 0x7] = a2\n 10860: a2 = a1 >> 0x30\n 10863: u8 [a0 + 0x6] = a2\n 10866: a2 = a1 >> 0x28\n 10869: u8 [a0 + 0x5] = a2\n 10872: a2 = a1 >> 0x20\n 10875: u8 [a0 + 0x4] = a2\n 10878: a2 = a1 >> 0x18\n 10881: u8 [a0 + 0x3] = a2\n 10884: a2 = a1 >> 0x10\n 10887: u8 [a0 + 0x2] = a2\n 10890: a1 = a1 >> 0x8\n 10893: u8 [a0 + 0x1] = a1\n 10896: a1 = 0x20\n 10899: a0 = 0\n 10901: ra = 146, jump @0\n      : @168 [@dyn 73] (gas: 55)\n 10907: i32 a0 = a0 + 0\n 10909: i32 a2 = sp + 0xe0\n 10913: a1 = 0x20\n 10916: ecalli 7 // 'hash_keccak_256'\n 10918: a0 = u64 [sp + 0xe0]\n 10922: a1 = u64 [sp + 0xe8]\n 10926: a2 = u64 [sp + 0xf8]\n 10930: a3 = u64 [sp + 0xf0]\n 10934: t0 = reverse a0\n 10936: a1 = reverse a1\n 10938: a2 = reverse a2\n 10940: a3 = reverse a3\n 10942: s1 = u64 [sp + 0x48]\n 10945: a4 = s1 >> 0x3e\n 10948: a5 = u64 [sp + 0x38]\n 10951: a5 = a5 << 0x2\n 10954: t1 = a5 | a4\n 10957: a5 = u64 [sp + 0x58]\n 10960: a4 = a5 >> 0x3e\n 10963: a0 = s1 << 0x2\n 10966: t2 = a0 | a4\n 10969: a4 = u64 [sp + 0x50]\n 10972: a0 = a4 >> 0x3e\n 10975: s1 = a5 << 0x2\n 10978: a5 = s1 | a0\n 10981: s1 = a4 << 0x2\n 10984: a5 = a5 + a3\n 10987: s1 = s1 + a2\n 10990: a2 = s1 <u a2\n 10993: a5 = a5 + a2\n 10996: a4 = a5 ^ a3\n 10999: a3 = a5 <u a3\n 11002: a3 = a2 if a4 == 0\n 11005: a0 = a1 + t2\n 11008: a3 = a3 + a0\n 11011: a2 = a3 <u a0\n 11014: t0 = t0 + t1\n 11017: a0 = a0 <u a1\n 11020: a0 = a0 + t0\n 11023: a0 = a0 + a2\n 11026: a1 = u64 [sp + 0x40]\n 11029: u64 [a1 + 56] = 0\n 11032: u64 [a1 + 48] = 0\n 11035: u64 [a1 + 40] = 0\n 11038: u64 [a1 + 32] = 0\n 11041: u64 [a1] = s1\n 11043: u64 [a1 + 0x8] = a5\n 11046: u64 [a1 + 0x10] = a3\n 11049: u64 [a1 + 0x18] = a0\n 11052: sp = s0 + 0xfffffffffffffee0\n 11056: ra = u64 [sp + 0x118]\n 11060: s0 = u64 [sp + 0x110]\n 11064: s1 = u64 [sp + 0x108]\n 11068: sp = sp + 0x120\n 11072: ret\n      : @169 (gas: 8)\n 11074: u64 [sp + 144] = 0\n 11078: u64 [sp + 136] = 0\n 11082: u64 [sp + 128] = 0\n 11086: a0 = 0x4e487b7100000000\n 11096: a1 = sp + 0x80\n 11100: u64 [sp + 0x98] = a0\n 11104: a0 = 0\n 11106: ra = 148, jump @8\n      : @170 [@dyn 74] (gas: 7)\n 11112: u64 [sp + 120] = 0\n 11115: u64 [sp + 112] = 0\n 11118: u64 [sp + 96] = 0x32\n 11122: a0 = 0x4\n 11125: a1 = sp + 0x60\n 11128: u64 [sp + 104] = 0\n 11131: ra = 150, jump @8\n      : @171 [@dyn 75] (gas: 3)\n 11137: a1 = 0x24\n 11140: a0 = 0\n 11142: ra = 152, jump @0\n      : @172 [@dyn 76] (gas: 6)\n 11148: i32 a1 = a0 + 0\n 11150: a0 = 0x1\n 11153: a2 = 0x24\n 11156: ra = 0x9a\n 11160: ecalli 11 // 'seal_return'\n 11162: fallthrough\n      : @173 [@dyn 77] (gas: 9)\n 11163: a2 = u64 [a1 + 0x18]\n 11166: a3 = u64 [a1 + 0x10]\n 11169: a4 = u64 [a1 + 0x8]\n 11172: a1 = u64 [a1]\n 11174: u64 [a0 + 0x18] = a2\n 11177: u64 [a0 + 0x10] = a3\n 11180: u64 [a0 + 0x8] = a4\n 11183: u64 [a0] = a1\n 11185: ret\n      : @174 (gas: 19)\n 11187: t1 = u64 [sp + 0x70]\n 11190: t0 = u64 [sp + 0x68]\n 11193: a0 = u64 [sp + 0x138]\n 11197: a1 = u64 [sp + 0x120]\n 11201: t2 = u64 [sp + 0x130]\n 11205: a3 = u64 [sp + 0x128]\n 11209: a4 = a0 ^ t0\n 11212: a0 = t0 <u a0\n 11215: a2 = u64 [sp + 0x78]\n 11218: a5 = a2 <u t2\n 11221: a5 = a0 if a4 != 0\n 11224: a0 = a3 ^ s1\n 11227: a3 = s1 <u a3\n 11230: a1 = t1 <u a1\n 11233: a1 = a3 if a0 != 0\n 11236: a0 = t2 ^ a2\n 11239: a0 = a0 | a4\n 11242: a1 = a5 if a0 != 0\n 11245: jump @177 if a1 == 0\n      : @175 (gas: 12)\n 11249: u64 [sp + 0x80] = t1\n 11253: u64 [sp + 184] = 0\n 11257: u64 [sp + 176] = 0\n 11261: u64 [sp + 168] = 0\n 11265: u64 [sp + 160] = 0\n 11269: u64 [sp + 0x88] = s1\n 11273: u64 [sp + 0x90] = a2\n 11277: a0 = sp + 0xc0\n 11281: a1 = sp + 0xa0\n 11285: a2 = sp + 0x80\n 11289: u64 [sp + 0x98] = t0\n 11293: ra = 156, jump @164\n      : @176 [@dyn 78] (gas: 157)\n 11299: a0 = u64 [sp + 0xd8]\n 11303: u64 [sp + 0x78] = a0\n 11306: a3 = u64 [sp + 0xd0]\n 11310: u64 [sp + 0x68] = a3\n 11313: a1 = u64 [sp + 0xc8]\n 11317: u64 [sp + 0x70] = a1\n 11320: s1 = u64 [sp + 0xc0]\n 11324: u64 [sp + 0x118] = a0\n 11328: u64 [sp + 0x110] = a3\n 11332: u64 [sp + 0x108] = a1\n 11336: u64 [sp + 0x100] = s1\n 11340: u64 [sp + 312] = 0\n 11344: u64 [sp + 304] = 0\n 11348: u64 [sp + 296] = 0\n 11352: u64 [sp + 288] = 0\n 11356: u32 [sp + 320] = 0x20\n 11361: i32 a1 = sp + 0x100\n 11365: i32 a3 = sp + 0x120\n 11369: i32 a4 = sp + 0x140\n 11373: a2 = 0xffffffffffffffff\n 11376: a0 = 0\n 11378: ecalli 6 // 'get_storage'\n 11380: a0 = s1 + 0x1\n 11383: a1 = a0 <u 0x1\n 11386: a2 = u64 [sp + 0x70]\n 11389: a1 = a1 + a2\n 11392: a2 = a0 | a1\n 11395: a2 = a2 <u 0x1\n 11398: a3 = u64 [sp + 0x68]\n 11401: a2 = a2 + a3\n 11404: a3 = a2 <u a3\n 11407: a4 = u64 [sp + 0x78]\n 11410: a3 = a3 + a4\n 11413: u64 [sp + 0x118] = a3\n 11417: u64 [sp + 0x110] = a2\n 11421: a2 = u64 [sp + 0x120]\n 11425: u64 [sp + 0x60] = a2\n 11428: u64 [sp + 0x108] = a1\n 11432: a1 = u64 [sp + 0x128]\n 11436: u64 [sp + 0x58] = a1\n 11439: u64 [sp + 0x100] = a0\n 11443: a0 = u32 [sp + 0x130]\n 11447: u64 [sp + 0x50] = a0\n 11450: u64 [sp + 312] = 0\n 11454: u64 [sp + 304] = 0\n 11458: u64 [sp + 296] = 0\n 11462: u64 [sp + 288] = 0\n 11466: u32 [sp + 320] = 0x20\n 11471: i32 a1 = sp + 0x100\n 11475: i32 a3 = sp + 0x120\n 11479: i32 a4 = sp + 0x140\n 11483: a2 = 0xffffffffffffffff\n 11486: a0 = 0\n 11488: ecalli 6 // 'get_storage'\n 11490: a0 = s1 + 0x2\n 11493: a1 = a0 <u s1\n 11496: a3 = u64 [sp + 0x70]\n 11499: a2 = a3 + a1\n 11502: a3 = a2 <u a3\n 11505: a3 = a1 if a1 == 0\n 11508: a1 = u64 [sp + 0x68]\n 11511: a3 = a3 + a1\n 11514: a1 = a3 <u a1\n 11517: a4 = u64 [sp + 0x78]\n 11520: a1 = a1 + a4\n 11523: u64 [sp + 0x118] = a1\n 11527: a1 = u64 [sp + 0x120]\n 11531: u64 [sp + 0x48] = a1\n 11534: u64 [sp + 0x110] = a3\n 11538: a1 = u64 [sp + 0x128]\n 11542: u64 [sp + 0x40] = a1\n 11545: u64 [sp + 0x108] = a2\n 11549: a1 = u64 [sp + 0x130]\n 11553: u64 [sp + 0x38] = a1\n 11556: u64 [sp + 0x100] = a0\n 11560: a0 = u64 [sp + 0x138]\n 11564: u64 [sp + 0x30] = a0\n 11567: u64 [sp + 312] = 0\n 11571: u64 [sp + 304] = 0\n 11575: u64 [sp + 296] = 0\n 11579: u64 [sp + 288] = 0\n 11583: u32 [sp + 320] = 0x20\n 11588: i32 a1 = sp + 0x100\n 11592: i32 a3 = sp + 0x120\n 11596: i32 a4 = sp + 0x140\n 11600: a2 = 0xffffffffffffffff\n 11603: a0 = 0\n 11605: ecalli 6 // 'get_storage'\n 11607: a0 = u64 [sp + 0x120]\n 11611: u64 [sp + 0x10] = a0\n 11614: a0 = u64 [sp + 0x128]\n 11618: u64 [sp + 0x20] = a0\n 11621: a0 = u64 [sp + 0x130]\n 11625: u64 [sp + 0x18] = a0\n 11628: a0 = u64 [sp + 0x138]\n 11632: u64 [sp + 0x8] = a0\n 11635: a0 = s1 + 0x3\n 11638: a1 = a0 <u s1\n 11641: a3 = u64 [sp + 0x70]\n 11644: a2 = a3 + a1\n 11647: a3 = a2 <u a3\n 11650: a3 = a1 if a1 == 0\n 11653: a1 = u64 [sp + 0x68]\n 11656: a3 = a3 + a1\n 11659: a1 = a3 <u a1\n 11662: a4 = u64 [sp + 0x78]\n 11665: a1 = a1 + a4\n 11668: u64 [sp + 0x118] = a1\n 11672: u64 [sp + 0x110] = a3\n 11676: u64 [sp + 0x108] = a2\n 11680: u64 [sp + 0x100] = a0\n 11684: u64 [sp + 312] = 0\n 11688: u64 [sp + 304] = 0\n 11692: u64 [sp + 296] = 0\n 11696: u64 [sp + 288] = 0\n 11700: u32 [sp + 320] = 0x20\n 11705: i32 a1 = sp + 0x100\n 11709: i32 a3 = sp + 0x120\n 11713: i32 a4 = sp + 0x140\n 11717: a2 = 0xffffffffffffffff\n 11720: a0 = 0\n 11722: ecalli 6 // 'get_storage'\n 11724: a0 = u8 [sp + 0x120]\n 11728: a1 = u64 [sp + 0x28]\n 11731: u64 [a1 + 0x60] = a0\n 11734: a0 = u64 [sp + 0x8]\n 11737: u64 [a1 + 0x58] = a0\n 11740: a0 = u64 [sp + 0x18]\n 11743: u64 [a1 + 0x50] = a0\n 11746: a0 = u64 [sp + 0x20]\n 11749: u64 [a1 + 0x48] = a0\n 11752: a0 = u64 [sp + 0x10]\n 11755: u64 [a1 + 0x40] = a0\n 11758: a0 = u64 [sp + 0x30]\n 11761: u64 [a1 + 0x38] = a0\n 11764: a0 = u64 [sp + 0x38]\n 11767: u64 [a1 + 0x30] = a0\n 11770: a0 = u64 [sp + 0x40]\n 11773: u64 [a1 + 0x28] = a0\n 11776: a0 = u64 [sp + 0x48]\n 11779: u64 [a1 + 0x20] = a0\n 11782: a0 = u64 [sp + 0x50]\n 11785: u64 [a1 + 0x10] = a0\n 11788: a0 = u64 [sp + 0x58]\n 11791: u64 [a1 + 0x8] = a0\n 11794: a0 = u64 [sp + 0x60]\n 11797: u64 [a1] = a0\n 11799: u64 [a1 + 120] = 0\n 11802: u64 [a1 + 112] = 0\n 11805: u64 [a1 + 104] = 0\n 11808: u64 [a1 + 24] = 0\n 11811: sp = s0 + 0xfffffffffffffea0\n 11815: ra = u64 [sp + 0x158]\n 11819: s0 = u64 [sp + 0x150]\n 11823: s1 = u64 [sp + 0x148]\n 11827: sp = sp + 0x160\n 11831: ret\n      : @177 (gas: 2)\n 11833: a0 = 0\n 11835: ra = 158, jump @0\n      : @178 [@dyn 79] (gas: 6)\n 11841: i32 a1 = a0 + 0\n 11843: a0 = 0x1\n 11846: a2 = 0\n 11848: ra = 0xa0\n 11852: ecalli 11 // 'seal_return'\n 11854: fallthrough\n      : @179 [@dyn 80] (gas: 12)\n 11855: a2 = u64 [a1 + 0x10]\n 11858: a3 = u64 [a1 + 0x18]\n 11861: a4 = u64 [a1 + 0x8]\n 11864: a1 = u64 [a1]\n 11866: a3 = a3 | a4\n 11869: a4 = a1 | a2\n 11872: a4 = a4 | a3\n 11875: a4 = a4 >> 0x20\n 11878: a2 = a2 | a3\n 11881: a2 = a2 << 0x20\n 11884: a2 = a2 | a4\n 11887: jump @182 if a2 != 0\n      : @180 (gas: 13)\n 11891: sp = sp + 0xffffffffffffffe0\n 11894: u64 [sp + 0x18] = ra\n 11897: u64 [sp + 0x10] = s0\n 11900: u64 [sp + 0x8] = s1\n 11903: a2 = u64 [a0 + 0x10]\n 11906: a3 = u64 [a0 + 0x8]\n 11909: u64 [sp] = a3\n 11911: s1 = u64 [a0]\n 11913: a2 = a2 << 0x20\n 11916: s0 = a2 >> 0x20\n 11919: i32 a0 = a1 + 0\n 11921: a1 = 0x20\n 11924: ra = 162, jump @0\n      : @181 [@dyn 81] (gas: 59)\n 11930: a1 = reverse s0\n 11932: a2 = u64 [sp]\n 11934: a2 = reverse a2\n 11936: a3 = reverse s1\n 11938: a4 = a3 >> 0x38\n 11941: u8 [a0 + 0x1f] = a4\n 11944: a4 = a3 >> 0x30\n 11947: u8 [a0 + 0x1e] = a4\n 11950: a4 = a3 >> 0x28\n 11953: u8 [a0 + 0x1d] = a4\n 11956: a4 = a3 >> 0x20\n 11959: u8 [a0 + 0x1c] = a4\n 11962: a4 = a3 >> 0x18\n 11965: u8 [a0 + 0x1b] = a4\n 11968: a4 = a3 >> 0x10\n 11971: u8 [a0 + 0x1a] = a4\n 11974: a4 = a3 >> 0x8\n 11977: u8 [a0 + 0x19] = a4\n 11980: u8 [a0 + 0x18] = a3\n 11983: u8 [a0 + 0x10] = a2\n 11986: u8 [a0 + 11] = 0\n 11989: u8 [a0 + 10] = 0\n 11992: u8 [a0 + 9] = 0\n 11995: u8 [a0 + 7] = 0\n 11998: u8 [a0 + 6] = 0\n 12001: u8 [a0 + 5] = 0\n 12004: u8 [a0 + 4] = 0\n 12007: u8 [a0 + 3] = 0\n 12010: u8 [a0 + 2] = 0\n 12013: u8 [a0 + 1] = 0\n 12016: u8 [a0 + 0] = 0\n 12018: a3 = a2 >> 0x38\n 12021: u8 [a0 + 0x17] = a3\n 12024: a3 = a2 >> 0x30\n 12027: u8 [a0 + 0x16] = a3\n 12030: a3 = a2 >> 0x28\n 12033: u8 [a0 + 0x15] = a3\n 12036: a3 = a2 >> 0x20\n 12039: u8 [a0 + 0x14] = a3\n 12042: a3 = a2 >> 0x18\n 12045: u8 [a0 + 0x13] = a3\n 12048: a3 = a2 >> 0x10\n 12051: u8 [a0 + 0x12] = a3\n 12054: a2 = a2 >> 0x8\n 12057: u8 [a0 + 0x11] = a2\n 12060: u8 [a0 + 0x8] = a1\n 12063: a2 = a1 >> 0x38\n 12066: u8 [a0 + 0xf] = a2\n 12069: a2 = a1 >> 0x30\n 12072: u8 [a0 + 0xe] = a2\n 12075: a2 = a1 >> 0x28\n 12078: u8 [a0 + 0xd] = a2\n 12081: a1 = a1 >> 0x20\n 12084: u8 [a0 + 0xc] = a1\n 12087: ra = u64 [sp + 0x18]\n 12090: s0 = u64 [sp + 0x10]\n 12093: s1 = u64 [sp + 0x8]\n 12096: sp = sp + 0x20\n 12099: ret\n      : @182 (gas: 1)\n 12101: trap\n      : @183 (gas: 8)\n 12102: a0 = u64 [sp + 0x150]\n 12106: a1 = u64 [sp + 0x158]\n 12110: a2 = u64 [sp + 0x148]\n 12114: a3 = u64 [sp + 0x140]\n 12118: a1 = a1 | a2\n 12121: a0 = a0 | a3\n 12124: a0 = a0 | a1\n 12127: jump @195 if a0 != 0\n      : @184 (gas: 2)\n 12131: a0 = i32 [0x20004]\n 12136: jump @195 if a0 <=u 35\n      : @185 (gas: 44)\n 12141: i32 a0 = sp + 0x160\n 12145: a1 = 0x4\n 12148: ecalli 2 // 'call_data_load'\n 12150: a2 = u64 [sp + 0x160]\n 12154: a0 = u64 [sp + 0x168]\n 12158: a1 = u64 [sp + 0x170]\n 12162: a3 = u64 [sp + 0x178]\n 12166: u64 [sp + 0xb8] = a3\n 12170: u64 [sp + 0xb0] = a1\n 12174: u64 [sp + 0xa8] = a0\n 12178: a0 = sp + 0xc0\n 12182: a1 = sp + 0xa0\n 12186: u64 [sp + 0xa0] = a2\n 12190: ra = 0xa4\n 12194: sp = sp + 0xfffffffffffffea0\n 12198: u64 [sp + 0x158] = ra\n 12202: u64 [sp + 0x150] = s0\n 12206: u64 [sp + 0x148] = s1\n 12210: s0 = sp + 0x160\n 12214: sp = sp & 0xffffffffffffffe0\n 12217: u64 [sp + 0x28] = a0\n 12220: a0 = u64 [a1]\n 12222: u64 [sp + 0x70] = a0\n 12225: s1 = u64 [a1 + 0x8]\n 12228: a0 = u64 [a1 + 0x10]\n 12231: u64 [sp + 0x78] = a0\n 12234: a0 = u64 [a1 + 0x18]\n 12237: u64 [sp + 0x68] = a0\n 12240: u64 [sp + 280] = 0\n 12244: u64 [sp + 272] = 0\n 12248: u64 [sp + 264] = 0\n 12252: u64 [sp + 256] = 0\n 12256: u64 [sp + 312] = 0\n 12260: u64 [sp + 304] = 0\n 12264: u64 [sp + 296] = 0\n 12268: u64 [sp + 288] = 0\n 12272: u32 [sp + 320] = 0x20\n 12277: i32 a1 = sp + 0x100\n 12281: i32 a3 = sp + 0x120\n 12285: i32 a4 = sp + 0x140\n 12289: a2 = 0xffffffffffffffff\n 12292: a0 = 0\n 12294: ecalli 6 // 'get_storage'\n 12296: jump @174\n      : @186 [@dyn 82] (gas: 33)\n 12299: a0 = u64 [sp + 0x138]\n 12303: u64 [sp + 0x30] = a0\n 12306: a0 = u64 [sp + 0x130]\n 12310: u64 [sp + 0x20] = a0\n 12313: a0 = u64 [sp + 0x128]\n 12317: u64 [sp + 0x28] = a0\n 12320: a0 = u64 [sp + 0x120]\n 12324: u64 [sp + 0x18] = a0\n 12327: a0 = u64 [sp + 0x118]\n 12331: u64 [sp + 0x38] = a0\n 12334: a0 = u64 [sp + 0x110]\n 12338: u64 [sp + 0x40] = a0\n 12341: a0 = u64 [sp + 0x108]\n 12345: u64 [sp + 0x48] = a0\n 12348: a0 = u64 [sp + 0x100]\n 12352: u64 [sp + 0x50] = a0\n 12355: a0 = u64 [sp + 0xf8]\n 12359: u64 [sp + 0x58] = a0\n 12362: a0 = u64 [sp + 0xf0]\n 12366: u64 [sp + 0x60] = a0\n 12369: a0 = u64 [sp + 0xe8]\n 12373: u64 [sp + 0x68] = a0\n 12376: a0 = u64 [sp + 0xe0]\n 12380: u64 [sp + 0x70] = a0\n 12383: a0 = u64 [sp + 0xd0]\n 12387: u64 [sp + 0x88] = a0\n 12391: a0 = u64 [sp + 0xc8]\n 12395: u64 [sp + 0x90] = a0\n 12399: a0 = u64 [sp + 0xc0]\n 12403: u64 [sp + 0x98] = a0\n 12407: a0 = 0x40\n 12410: a1 = 0x20\n 12413: ra = 166, jump @0\n      : @187 [@dyn 83] (gas: 100)\n 12419: a1 = u8 [a0 + 0x11]\n 12422: a2 = u8 [a0 + 0x10]\n 12425: a3 = u8 [a0 + 0x12]\n 12428: a4 = u8 [a0 + 0x13]\n 12431: a1 = a1 << 0x8\n 12434: a1 = a1 | a2\n 12437: a3 = a3 << 0x10\n 12440: a4 = a4 << 0x18\n 12443: a3 = a3 | a4\n 12446: a1 = a1 | a3\n 12449: a2 = u8 [a0 + 0x15]\n 12452: a3 = u8 [a0 + 0x14]\n 12455: a4 = u8 [a0 + 0x16]\n 12458: a5 = u8 [a0 + 0x17]\n 12461: a2 = a2 << 0x8\n 12464: a2 = a2 | a3\n 12467: a4 = a4 << 0x10\n 12470: a5 = a5 << 0x18\n 12473: a4 = a4 | a5\n 12476: a2 = a2 | a4\n 12479: a2 = a2 << 0x20\n 12482: t0 = a2 | a1\n 12485: a2 = u8 [a0 + 0x1]\n 12488: a3 = u8 [a0]\n 12490: a4 = u8 [a0 + 0x2]\n 12493: a5 = u8 [a0 + 0x3]\n 12496: a2 = a2 << 0x8\n 12499: a2 = a2 | a3\n 12502: a4 = a4 << 0x10\n 12505: a5 = a5 << 0x18\n 12508: a4 = a4 | a5\n 12511: a2 = a2 | a4\n 12514: a3 = u8 [a0 + 0x5]\n 12517: a4 = u8 [a0 + 0x4]\n 12520: a5 = u8 [a0 + 0x6]\n 12523: s1 = u8 [a0 + 0x7]\n 12526: a3 = a3 << 0x8\n 12529: a3 = a3 | a4\n 12532: a5 = a5 << 0x10\n 12535: s1 = s1 << 0x18\n 12538: a5 = a5 | s1\n 12541: a3 = a3 | a5\n 12544: a3 = a3 << 0x20\n 12547: a2 = a2 | a3\n 12550: a3 = u8 [a0 + 0x19]\n 12553: a4 = u8 [a0 + 0x18]\n 12556: a5 = u8 [a0 + 0x1a]\n 12559: s1 = u8 [a0 + 0x1b]\n 12562: a3 = a3 << 0x8\n 12565: a3 = a3 | a4\n 12568: a5 = a5 << 0x10\n 12571: s1 = s1 << 0x18\n 12574: a5 = a5 | s1\n 12577: a3 = a3 | a5\n 12580: a4 = u8 [a0 + 0x1d]\n 12583: a5 = u8 [a0 + 0x1c]\n 12586: s1 = u8 [a0 + 0x1e]\n 12589: a1 = u8 [a0 + 0x1f]\n 12592: a4 = a4 << 0x8\n 12595: a4 = a4 | a5\n 12598: s1 = s1 << 0x10\n 12601: a1 = a1 << 0x18\n 12604: a1 = a1 | s1\n 12607: a1 = a1 | a4\n 12610: a1 = a1 << 0x20\n 12613: a3 = a3 | a1\n 12616: a1 = u8 [a0 + 0x9]\n 12619: a4 = u8 [a0 + 0x8]\n 12622: a5 = u8 [a0 + 0xa]\n 12625: s1 = u8 [a0 + 0xb]\n 12628: a1 = a1 << 0x8\n 12631: a1 = a1 | a4\n 12634: a5 = a5 << 0x10\n 12637: s1 = s1 << 0x18\n 12640: a5 = a5 | s1\n 12643: a1 = a1 | a5\n 12646: a4 = u8 [a0 + 0xd]\n 12649: a5 = u8 [a0 + 0xc]\n 12652: s1 = u8 [a0 + 0xe]\n 12655: a0 = u8 [a0 + 0xf]\n 12658: a4 = a4 << 0x8\n 12661: a4 = a4 | a5\n 12664: s1 = s1 << 0x10\n 12667: a0 = a0 << 0x18\n 12670: a0 = a0 | s1\n 12673: a0 = a0 | a4\n 12676: a0 = a0 << 0x20\n 12679: a0 = a0 | a1\n 12682: s1 = reverse a0\n 12684: a3 = reverse a3\n 12686: a4 = reverse a2\n 12688: a2 = reverse t0\n 12690: a0 = a2 | a4\n 12693: a1 = a3 | s1\n 12696: a1 = a1 | a0\n 12699: a1 = a1 >> 0x20\n 12702: a0 = a0 | s1\n 12705: a0 = a0 << 0x20\n 12708: a0 = a0 | a1\n 12711: jump @194 if a0 != 0\n      : @188 (gas: 11)\n 12715: a0 = u64 [sp + 0x88]\n 12719: a0 = a0 << 0x20\n 12722: a0 = a0 >> 0x20\n 12725: u64 [sp + 0x10] = a0\n 12728: i32 a0 = a3 + 0\n 12730: a1 = 0x20\n 12733: u64 [sp + 0x8] = a0\n 12736: u64 [sp + 0x80] = a3\n 12740: u64 [sp + 0x78] = a2\n 12743: u64 [sp + 0x88] = a4\n 12747: ra = 168, jump @0\n      : @189 [@dyn 84] (gas: 66)\n 12753: a1 = u64 [sp + 0x10]\n 12756: a1 = reverse a1\n 12758: a2 = u64 [sp + 0x90]\n 12762: a2 = reverse a2\n 12764: a3 = u64 [sp + 0x98]\n 12768: a3 = reverse a3\n 12770: a4 = a3 >> 0x38\n 12773: u8 [a0 + 0x1f] = a4\n 12776: a4 = a3 >> 0x30\n 12779: u8 [a0 + 0x1e] = a4\n 12782: a4 = a3 >> 0x28\n 12785: u8 [a0 + 0x1d] = a4\n 12788: a4 = a3 >> 0x20\n 12791: u8 [a0 + 0x1c] = a4\n 12794: a4 = a3 >> 0x18\n 12797: u8 [a0 + 0x1b] = a4\n 12800: a4 = a3 >> 0x10\n 12803: u8 [a0 + 0x1a] = a4\n 12806: a4 = a3 >> 0x8\n 12809: u8 [a0 + 0x19] = a4\n 12812: u8 [a0 + 0x18] = a3\n 12815: u8 [a0 + 0x10] = a2\n 12818: u8 [a0 + 11] = 0\n 12821: u8 [a0 + 10] = 0\n 12824: u8 [a0 + 9] = 0\n 12827: u8 [a0 + 7] = 0\n 12830: u8 [a0 + 6] = 0\n 12833: u8 [a0 + 5] = 0\n 12836: u8 [a0 + 4] = 0\n 12839: u8 [a0 + 3] = 0\n 12842: u8 [a0 + 2] = 0\n 12845: u8 [a0 + 1] = 0\n 12848: u8 [a0 + 0] = 0\n 12850: a3 = a2 >> 0x38\n 12853: u8 [a0 + 0x17] = a3\n 12856: a3 = a2 >> 0x30\n 12859: u8 [a0 + 0x16] = a3\n 12862: a3 = a2 >> 0x28\n 12865: u8 [a0 + 0x15] = a3\n 12868: a3 = a2 >> 0x20\n 12871: u8 [a0 + 0x14] = a3\n 12874: a3 = a2 >> 0x18\n 12877: u8 [a0 + 0x13] = a3\n 12880: a3 = a2 >> 0x10\n 12883: u8 [a0 + 0x12] = a3\n 12886: a2 = a2 >> 0x8\n 12889: u8 [a0 + 0x11] = a2\n 12892: u8 [a0 + 0x8] = a1\n 12895: a2 = a1 >> 0x38\n 12898: u8 [a0 + 0xf] = a2\n 12901: a2 = a1 >> 0x30\n 12904: u8 [a0 + 0xe] = a2\n 12907: a2 = a1 >> 0x28\n 12910: u8 [a0 + 0xd] = a2\n 12913: a1 = a1 >> 0x20\n 12916: a2 = u64 [sp + 0x88]\n 12920: s1 = s1 | a2\n 12923: a4 = 0x100000000\n 12933: a2 = 0xffffffe0\n 12943: a3 = u64 [sp + 0x80]\n 12947: a2 = a3 <u a2\n 12950: a3 = u64 [sp + 0x78]\n 12953: a2 = 0 if a3 != 0\n 12955: a2 = 0 if s1 != 0\n 12957: u8 [a0 + 0xc] = a1\n 12960: jump @194 if a2 == 0\n      : @190 (gas: 5)\n 12964: a0 = u64 [sp + 0x8]\n 12967: i32 a0 = a0 + 0x20\n 12970: a1 = 0x20\n 12973: u64 [sp + 0x98] = a4\n 12977: ra = 170, jump @0\n      : @191 [@dyn 85] (gas: 76)\n 12983: a1 = u64 [sp + 0x58]\n 12986: a1 = reverse a1\n 12988: a2 = u64 [sp + 0x60]\n 12991: a2 = reverse a2\n 12993: a3 = u64 [sp + 0x68]\n 12996: a3 = reverse a3\n 12998: a4 = u64 [sp + 0x70]\n 13001: a4 = reverse a4\n 13003: a5 = a4 >> 0x38\n 13006: u8 [a0 + 0x1f] = a5\n 13009: a5 = a4 >> 0x30\n 13012: u8 [a0 + 0x1e] = a5\n 13015: a5 = a4 >> 0x28\n 13018: u8 [a0 + 0x1d] = a5\n 13021: a5 = a4 >> 0x20\n 13024: u8 [a0 + 0x1c] = a5\n 13027: a5 = a4 >> 0x18\n 13030: u8 [a0 + 0x1b] = a5\n 13033: a5 = a4 >> 0x10\n 13036: u8 [a0 + 0x1a] = a5\n 13039: a5 = a4 >> 0x8\n 13042: u8 [a0 + 0x19] = a5\n 13045: u8 [a0 + 0x18] = a4\n 13048: u8 [a0 + 0x10] = a3\n 13051: a4 = a3 >> 0x38\n 13054: u8 [a0 + 0x17] = a4\n 13057: a4 = a3 >> 0x30\n 13060: u8 [a0 + 0x16] = a4\n 13063: a4 = a3 >> 0x28\n 13066: u8 [a0 + 0x15] = a4\n 13069: a4 = a3 >> 0x20\n 13072: u8 [a0 + 0x14] = a4\n 13075: a4 = a3 >> 0x18\n 13078: u8 [a0 + 0x13] = a4\n 13081: a4 = a3 >> 0x10\n 13084: u8 [a0 + 0x12] = a4\n 13087: a4 = u64 [sp + 0x78]\n 13090: a3 = a3 >> 0x8\n 13093: u8 [a0 + 0x11] = a3\n 13096: u8 [a0 + 0x8] = a2\n 13099: a3 = a2 >> 0x38\n 13102: u8 [a0 + 0xf] = a3\n 13105: a3 = a2 >> 0x30\n 13108: u8 [a0 + 0xe] = a3\n 13111: a3 = a2 >> 0x28\n 13114: u8 [a0 + 0xd] = a3\n 13117: a3 = a2 >> 0x20\n 13120: u8 [a0 + 0xc] = a3\n 13123: a3 = a2 >> 0x18\n 13126: u8 [a0 + 0xb] = a3\n 13129: a3 = a2 >> 0x10\n 13132: u8 [a0 + 0xa] = a3\n 13135: a3 = u64 [sp + 0x80]\n 13139: a2 = a2 >> 0x8\n 13142: u8 [a0 + 0x9] = a2\n 13145: u8 [a0] = a1\n 13147: a2 = a1 >> 0x38\n 13150: u8 [a0 + 0x7] = a2\n 13153: a2 = a1 >> 0x30\n 13156: u8 [a0 + 0x6] = a2\n 13159: a2 = a1 >> 0x28\n 13162: u8 [a0 + 0x5] = a2\n 13165: a2 = a1 >> 0x20\n 13168: u8 [a0 + 0x4] = a2\n 13171: a2 = a1 >> 0x18\n 13174: u8 [a0 + 0x3] = a2\n 13177: a2 = a1 >> 0x10\n 13180: u8 [a0 + 0x2] = a2\n 13183: a1 = a1 >> 0x8\n 13186: a2 = u64 [sp + 0x98]\n 13190: a2 = a2 + 0xffffffffffffffc0\n 13193: a2 = a3 <u a2\n 13196: a2 = 0 if a4 != 0\n 13198: a2 = 0 if s1 != 0\n 13200: u8 [a0 + 0x1] = a1\n 13203: jump @194 if a2 == 0\n      : @192 (gas: 6)\n 13207: a5 = s1\n 13209: s1 = u64 [sp + 0x8]\n 13212: i32 a0 = s1 + 0x40\n 13215: a1 = 0x20\n 13218: u64 [sp + 0x98] = a5\n 13222: ra = 172, jump @0\n      : @193 [@dyn 86] (gas: 76)\n 13228: a1 = u64 [sp + 0x38]\n 13231: a1 = reverse a1\n 13233: a2 = u64 [sp + 0x40]\n 13236: a2 = reverse a2\n 13238: a3 = u64 [sp + 0x48]\n 13241: a3 = reverse a3\n 13243: a4 = u64 [sp + 0x50]\n 13246: a4 = reverse a4\n 13248: a5 = a4 >> 0x38\n 13251: u8 [a0 + 0x1f] = a5\n 13254: a5 = a4 >> 0x30\n 13257: u8 [a0 + 0x1e] = a5\n 13260: a5 = a4 >> 0x28\n 13263: u8 [a0 + 0x1d] = a5\n 13266: a5 = a4 >> 0x20\n 13269: u8 [a0 + 0x1c] = a5\n 13272: a5 = a4 >> 0x18\n 13275: u8 [a0 + 0x1b] = a5\n 13278: a5 = a4 >> 0x10\n 13281: u8 [a0 + 0x1a] = a5\n 13284: a5 = a4 >> 0x8\n 13287: u8 [a0 + 0x19] = a5\n 13290: u8 [a0 + 0x18] = a4\n 13293: u8 [a0 + 0x10] = a3\n 13296: a4 = a3 >> 0x38\n 13299: u8 [a0 + 0x17] = a4\n 13302: a4 = a3 >> 0x30\n 13305: u8 [a0 + 0x16] = a4\n 13308: a4 = a3 >> 0x28\n 13311: u8 [a0 + 0x15] = a4\n 13314: a4 = a3 >> 0x20\n 13317: u8 [a0 + 0x14] = a4\n 13320: a4 = a3 >> 0x18\n 13323: u8 [a0 + 0x13] = a4\n 13326: a4 = a3 >> 0x10\n 13329: u8 [a0 + 0x12] = a4\n 13332: a3 = a3 >> 0x8\n 13335: u8 [a0 + 0x11] = a3\n 13338: u8 [a0 + 0x8] = a2\n 13341: a3 = a2 >> 0x38\n 13344: u8 [a0 + 0xf] = a3\n 13347: a3 = a2 >> 0x30\n 13350: u8 [a0 + 0xe] = a3\n 13353: a3 = a2 >> 0x28\n 13356: u8 [a0 + 0xd] = a3\n 13359: a3 = a2 >> 0x20\n 13362: u8 [a0 + 0xc] = a3\n 13365: a3 = a2 >> 0x18\n 13368: u8 [a0 + 0xb] = a3\n 13371: a3 = a2 >> 0x10\n 13374: u8 [a0 + 0xa] = a3\n 13377: a2 = a2 >> 0x8\n 13380: u8 [a0 + 0x9] = a2\n 13383: u8 [a0] = a1\n 13385: a2 = a1 >> 0x38\n 13388: u8 [a0 + 0x7] = a2\n 13391: a2 = a1 >> 0x30\n 13394: u8 [a0 + 0x6] = a2\n 13397: a2 = a1 >> 0x28\n 13400: u8 [a0 + 0x5] = a2\n 13403: a2 = a1 >> 0x20\n 13406: u8 [a0 + 0x4] = a2\n 13409: a2 = a1 >> 0x18\n 13412: u8 [a0 + 0x3] = a2\n 13415: a2 = a1 >> 0x10\n 13418: u8 [a0 + 0x2] = a2\n 13421: a1 = a1 >> 0x8\n 13424: a2 = 0xffffffa0\n 13434: a3 = u64 [sp + 0x80]\n 13438: a2 = a3 <u a2\n 13441: a3 = u64 [sp + 0x78]\n 13444: a2 = 0 if a3 != 0\n 13446: a3 = u64 [sp + 0x98]\n 13450: a2 = 0 if a3 != 0\n 13452: u8 [a0 + 0x1] = a1\n 13455: jump @197 if a2 != 0\n      : @194 (gas: 1)\n 13458: trap\n      : @195 (gas: 3)\n 13459: a0 = 0\n 13461: a1 = 0\n 13463: ra = 174, jump @0\n      : @196 [@dyn 87] (gas: 5)\n 13469: i32 a1 = a0 + 0\n 13471: a0 = 0x1\n 13474: a2 = 0\n 13476: ecalli 11 // 'seal_return'\n 13478: fallthrough\n      : @197 (gas: 12)\n 13479: a0 = u64 [sp + 0x20]\n 13482: a1 = u64 [sp + 0x18]\n 13485: a0 = a0 | a1\n 13488: a1 = u64 [sp + 0x30]\n 13491: a2 = u64 [sp + 0x28]\n 13494: a1 = a1 | a2\n 13497: a0 = a0 | a1\n 13500: a0 = a0 >u 0\n 13502: u64 [sp + 0x98] = a0\n 13506: i32 a0 = s1 + 0x60\n 13509: a1 = 0x20\n 13512: ra = 176, jump @0\n      : @198 [@dyn 88] (gas: 36)\n 13518: u8 [a0 + 30] = 0\n 13521: u8 [a0 + 29] = 0\n 13524: u8 [a0 + 28] = 0\n 13527: u8 [a0 + 27] = 0\n 13530: u8 [a0 + 26] = 0\n 13533: u8 [a0 + 25] = 0\n 13536: u8 [a0 + 24] = 0\n 13539: u8 [a0 + 23] = 0\n 13542: u8 [a0 + 22] = 0\n 13545: u8 [a0 + 21] = 0\n 13548: u8 [a0 + 20] = 0\n 13551: u8 [a0 + 19] = 0\n 13554: u8 [a0 + 18] = 0\n 13557: u8 [a0 + 17] = 0\n 13560: u8 [a0 + 16] = 0\n 13563: u8 [a0 + 15] = 0\n 13566: u8 [a0 + 14] = 0\n 13569: u8 [a0 + 13] = 0\n 13572: u8 [a0 + 12] = 0\n 13575: u8 [a0 + 11] = 0\n 13578: u8 [a0 + 10] = 0\n 13581: u8 [a0 + 9] = 0\n 13584: u8 [a0 + 8] = 0\n 13587: u8 [a0 + 7] = 0\n 13590: u8 [a0 + 6] = 0\n 13593: u8 [a0 + 5] = 0\n 13596: u8 [a0 + 4] = 0\n 13599: u8 [a0 + 3] = 0\n 13602: u8 [a0 + 2] = 0\n 13605: u8 [a0 + 1] = 0\n 13608: u8 [a0 + 0] = 0\n 13610: a1 = u64 [sp + 0x98]\n 13614: u8 [a0 + 0x1f] = a1\n 13617: a1 = 0x80\n 13621: a0 = s1\n 13623: ra = 178, jump @0\n      : @199 [@dyn 89] (gas: 6)\n 13629: i32 a1 = a0 + 0\n 13631: a2 = 0x80\n 13635: a0 = 0\n 13637: ra = 0xb4\n 13641: ecalli 11 // 'seal_return'\n 13643: fallthrough\n      : @200 [@dyn 90] (gas: 9)\n 13644: a2 = u64 [a1 + 0x18]\n 13647: a3 = u64 [a1 + 0x10]\n 13650: a4 = u64 [a1 + 0x8]\n 13653: a1 = u64 [a1]\n 13655: u64 [a0 + 0x18] = a2\n 13658: u64 [a0 + 0x10] = a3\n 13661: u64 [a0 + 0x8] = a4\n 13664: u64 [a0] = a1\n 13666: ret\n      : @201 (gas: 17)\n 13668: sp = sp + 0xffffffffffffffa0\n 13671: u64 [sp + 0x58] = ra\n 13674: u64 [sp + 0x50] = s0\n 13677: u64 [sp + 0x48] = s1\n 13680: a3 = u64 [a1 + 0x18]\n 13683: a4 = u64 [a1 + 0x10]\n 13686: a5 = u64 [a1 + 0x8]\n 13689: s1 = u64 [a1]\n 13691: a1 = a5 | a3\n 13694: a2 = s1 | a4\n 13697: a2 = a2 | a1\n 13700: a2 = a2 >> 0x20\n 13703: a1 = a1 | a4\n 13706: a1 = a1 << 0x20\n 13709: a1 = a1 | a2\n 13712: u64 [sp + 0x28] = a0\n 13715: jump @208 if a1 != 0\n      : @202 (gas: 19)\n 13719: a0 = s1 + 0x20\n 13722: u64 [sp + 0x30] = a0\n 13725: a0 = a0 <u s1\n 13728: a1 = a5 + a0\n 13731: u64 [sp + 0x40] = a1\n 13734: u64 [sp + 0x8] = a5\n 13737: s0 = a1 <u a5\n 13740: s0 = a0 if a0 == 0\n 13743: s0 = s0 + a4\n 13746: u64 [sp + 0x10] = a4\n 13749: a0 = s0 <u a4\n 13752: u64 [sp + 0x18] = a3\n 13755: a0 = a0 + a3\n 13758: u64 [sp + 0x38] = a0\n 13761: u64 [sp] = s1\n 13763: i32 a0 = s1 + 0\n 13765: a1 = 0x20\n 13768: s1 = 0x20\n 13771: ra = 182, jump @0\n      : @203 [@dyn 91] (gas: 45)\n 13777: u8 [a0 + 0x1f] = s1\n 13780: a1 = u64 [sp + 0x30]\n 13783: s1 = a1\n 13785: a1 = a1 | s0\n 13788: a2 = u64 [sp + 0x40]\n 13791: a4 = u64 [sp + 0x38]\n 13794: a2 = a2 | a4\n 13797: a1 = a1 | a2\n 13800: a1 = a1 >> 0x20\n 13803: u64 [sp + 0x20] = s0\n 13806: a2 = a2 | s0\n 13809: a2 = a2 << 0x20\n 13812: a1 = a1 | a2\n 13815: u8 [a0 + 30] = 0\n 13818: u8 [a0 + 29] = 0\n 13821: u8 [a0 + 28] = 0\n 13824: u8 [a0 + 27] = 0\n 13827: u8 [a0 + 26] = 0\n 13830: u8 [a0 + 25] = 0\n 13833: u8 [a0 + 24] = 0\n 13836: u8 [a0 + 23] = 0\n 13839: u8 [a0 + 22] = 0\n 13842: u8 [a0 + 21] = 0\n 13845: u8 [a0 + 20] = 0\n 13848: u8 [a0 + 19] = 0\n 13851: u8 [a0 + 18] = 0\n 13854: u8 [a0 + 17] = 0\n 13857: u8 [a0 + 16] = 0\n 13860: u8 [a0 + 15] = 0\n 13863: u8 [a0 + 14] = 0\n 13866: u8 [a0 + 13] = 0\n 13869: u8 [a0 + 12] = 0\n 13872: u8 [a0 + 11] = 0\n 13875: u8 [a0 + 10] = 0\n 13878: u8 [a0 + 9] = 0\n 13881: u8 [a0 + 8] = 0\n 13884: u8 [a0 + 7] = 0\n 13887: u8 [a0 + 6] = 0\n 13890: u8 [a0 + 5] = 0\n 13893: u8 [a0 + 4] = 0\n 13896: u8 [a0 + 3] = 0\n 13899: u8 [a0 + 2] = 0\n 13902: u8 [a0 + 1] = 0\n 13905: u8 [a0 + 0] = 0\n 13907: jump @208 if a1 != 0\n      : @204 (gas: 4)\n 13911: i32 s0 = s1 + 0\n 13913: a1 = 0x20\n 13916: a0 = s0\n 13918: ra = 184, jump @0\n      : @205 [@dyn 92] (gas: 41)\n 13924: u8 [a0 + 31] = 0xf\n 13928: u8 [a0 + 30] = 0\n 13931: u8 [a0 + 29] = 0\n 13934: u8 [a0 + 28] = 0\n 13937: u8 [a0 + 27] = 0\n 13940: u8 [a0 + 26] = 0\n 13943: u8 [a0 + 25] = 0\n 13946: u8 [a0 + 24] = 0\n 13949: u8 [a0 + 23] = 0\n 13952: u8 [a0 + 22] = 0\n 13955: u8 [a0 + 21] = 0\n 13958: u8 [a0 + 20] = 0\n 13961: u8 [a0 + 19] = 0\n 13964: u8 [a0 + 18] = 0\n 13967: u8 [a0 + 17] = 0\n 13970: u8 [a0 + 16] = 0\n 13973: u8 [a0 + 15] = 0\n 13976: u8 [a0 + 14] = 0\n 13979: u8 [a0 + 13] = 0\n 13982: u8 [a0 + 12] = 0\n 13985: u8 [a0 + 11] = 0\n 13988: u8 [a0 + 10] = 0\n 13991: u8 [a0 + 9] = 0\n 13994: u8 [a0 + 8] = 0\n 13997: u8 [a0 + 7] = 0\n 14000: u8 [a0 + 6] = 0\n 14003: u8 [a0 + 5] = 0\n 14006: u8 [a0 + 4] = 0\n 14009: u8 [a0 + 3] = 0\n 14012: u8 [a0 + 2] = 0\n 14015: u8 [a0 + 1] = 0\n 14018: a1 = u64 [sp + 0x20]\n 14021: a2 = u64 [sp + 0x38]\n 14024: a1 = a1 | a2\n 14027: a2 = 0xffffffe0\n 14037: a2 = s1 <u a2\n 14040: a3 = u64 [sp + 0x40]\n 14043: a2 = 0 if a3 != 0\n 14045: a2 = 0 if a1 != 0\n 14047: u8 [a0 + 0] = 0\n 14049: jump @208 if a2 == 0\n      : @206 (gas: 3)\n 14053: i32 a0 = s0 + 0x20\n 14056: a1 = 0x20\n 14059: ra = 186, jump @0\n      : @207 [@dyn 93] (gas: 55)\n 14065: u8 [a0 + 31] = 0\n 14068: u8 [a0 + 30] = 0\n 14071: u8 [a0 + 29] = 0\n 14074: u8 [a0 + 28] = 0\n 14077: u8 [a0 + 27] = 0\n 14080: u8 [a0 + 26] = 0\n 14083: u8 [a0 + 25] = 0\n 14086: u8 [a0 + 24] = 0\n 14089: u8 [a0 + 23] = 0\n 14092: u8 [a0 + 22] = 0\n 14095: u8 [a0 + 21] = 0\n 14098: u8 [a0 + 20] = 0\n 14101: u8 [a0 + 19] = 0\n 14104: u8 [a0 + 18] = 0\n 14107: u8 [a0 + 17] = 0\n 14110: u8 [a0 + 16] = 0\n 14113: u8 [a0 + 15] = 0\n 14116: u8 [a0 + 14] = 0x44\n 14120: u8 [a0 + 13] = 0x49\n 14124: a5 = 0x20\n 14127: u8 [a0 + 0xc] = a5\n 14130: u8 [a0 + 11] = 0x64\n 14134: u8 [a0 + 10] = 0x72\n 14138: u8 [a0 + 9] = 0x61\n 14142: u8 [a0 + 8] = 0x63\n 14146: u8 [a0 + 0x7] = a5\n 14149: u8 [a0 + 6] = 0x64\n 14153: u8 [a0 + 5] = 0x69\n 14157: u8 [a0 + 4] = 0x6c\n 14161: u8 [a0 + 3] = 0x61\n 14165: u8 [a0 + 2] = 0x76\n 14169: u8 [a0 + 1] = 0x6e\n 14173: u8 [a0 + 0] = 0x49\n 14176: a1 = u64 [sp]\n 14178: a0 = a1 + 0x60\n 14181: a1 = a0 <u a1\n 14184: a3 = u64 [sp + 0x8]\n 14187: a2 = a3 + a1\n 14190: a3 = a2 <u a3\n 14193: a3 = a1 if a1 == 0\n 14196: a1 = u64 [sp + 0x10]\n 14199: a3 = a3 + a1\n 14202: a1 = a3 <u a1\n 14205: a4 = u64 [sp + 0x18]\n 14208: a1 = a1 + a4\n 14211: a4 = u64 [sp + 0x28]\n 14214: u64 [a4] = a0\n 14216: u64 [a4 + 0x8] = a2\n 14219: u64 [a4 + 0x10] = a3\n 14222: u64 [a4 + 0x18] = a1\n 14225: ra = u64 [sp + 0x58]\n 14228: s0 = u64 [sp + 0x50]\n 14231: s1 = u64 [sp + 0x48]\n 14234: sp = sp + 0x60\n 14237: ret\n      : @208 (gas: 1)\n 14239: trap\n      : @209 [@dyn 94] (gas: 6)\n 14240: i32 a1 = a0 + 0\n 14242: a0 = 0x1\n 14245: a2 = 0\n 14247: ra = 0xbe\n 14251: ecalli 11 // 'seal_return'\n 14253: fallthrough\n      : @210 [@dyn 95] (gas: 7)\n 14254: a1 = u64 [a1]\n 14256: a1 = a1 << 0x20\n 14259: u64 [a0 + 0x18] = a1\n 14262: u64 [a0 + 16] = 0\n 14265: u64 [a0 + 8] = 0\n 14268: u64 [a0 + 0] = 0\n 14270: ret\n      : @211 (gas: 9)\n 14272: sp = sp + 0xffffffffffffffc0\n 14275: u64 [sp + 0x38] = ra\n 14278: u64 [sp + 0x30] = s0\n 14281: u64 [sp + 0x28] = s1\n 14284: s0 = sp + 0x40\n 14287: sp = sp & 0xffffffffffffffe0\n 14290: a0 = 0x40\n 14293: a1 = 0x20\n 14296: ra = 192, jump @0\n      : @212 [@dyn 96] (gas: 97)\n 14302: a1 = u8 [a0 + 0x11]\n 14305: a2 = u8 [a0 + 0x10]\n 14308: a3 = u8 [a0 + 0x12]\n 14311: a4 = u8 [a0 + 0x13]\n 14314: a1 = a1 << 0x8\n 14317: a1 = a1 | a2\n 14320: a3 = a3 << 0x10\n 14323: a4 = a4 << 0x18\n 14326: a3 = a3 | a4\n 14329: a1 = a1 | a3\n 14332: a2 = u8 [a0 + 0x15]\n 14335: a3 = u8 [a0 + 0x14]\n 14338: a4 = u8 [a0 + 0x16]\n 14341: a5 = u8 [a0 + 0x17]\n 14344: a2 = a2 << 0x8\n 14347: a2 = a2 | a3\n 14350: a4 = a4 << 0x10\n 14353: a5 = a5 << 0x18\n 14356: a4 = a4 | a5\n 14359: a2 = a2 | a4\n 14362: a2 = a2 << 0x20\n 14365: t0 = a2 | a1\n 14368: a2 = u8 [a0 + 0x1]\n 14371: a3 = u8 [a0]\n 14373: a4 = u8 [a0 + 0x2]\n 14376: a5 = u8 [a0 + 0x3]\n 14379: a2 = a2 << 0x8\n 14382: a2 = a2 | a3\n 14385: a4 = a4 << 0x10\n 14388: a5 = a5 << 0x18\n 14391: a4 = a4 | a5\n 14394: a2 = a2 | a4\n 14397: a3 = u8 [a0 + 0x5]\n 14400: a4 = u8 [a0 + 0x4]\n 14403: a5 = u8 [a0 + 0x6]\n 14406: s1 = u8 [a0 + 0x7]\n 14409: a3 = a3 << 0x8\n 14412: a3 = a3 | a4\n 14415: a5 = a5 << 0x10\n 14418: s1 = s1 << 0x18\n 14421: a5 = a5 | s1\n 14424: a3 = a3 | a5\n 14427: a3 = a3 << 0x20\n 14430: a2 = a2 | a3\n 14433: a3 = u8 [a0 + 0x19]\n 14436: a4 = u8 [a0 + 0x18]\n 14439: a5 = u8 [a0 + 0x1a]\n 14442: s1 = u8 [a0 + 0x1b]\n 14445: a3 = a3 << 0x8\n 14448: a3 = a3 | a4\n 14451: a5 = a5 << 0x10\n 14454: s1 = s1 << 0x18\n 14457: a5 = a5 | s1\n 14460: a3 = a3 | a5\n 14463: a4 = u8 [a0 + 0x1d]\n 14466: a5 = u8 [a0 + 0x1c]\n 14469: s1 = u8 [a0 + 0x1e]\n 14472: a1 = u8 [a0 + 0x1f]\n 14475: a4 = a4 << 0x8\n 14478: a4 = a4 | a5\n 14481: s1 = s1 << 0x10\n 14484: a1 = a1 << 0x18\n 14487: a1 = a1 | s1\n 14490: a1 = a1 | a4\n 14493: a1 = a1 << 0x20\n 14496: a3 = a3 | a1\n 14499: a1 = u8 [a0 + 0x9]\n 14502: a4 = u8 [a0 + 0x8]\n 14505: a5 = u8 [a0 + 0xa]\n 14508: s1 = u8 [a0 + 0xb]\n 14511: a1 = a1 << 0x8\n 14514: a1 = a1 | a4\n 14517: a5 = a5 << 0x10\n 14520: s1 = s1 << 0x18\n 14523: a5 = a5 | s1\n 14526: a1 = a1 | a5\n 14529: a4 = u8 [a0 + 0xd]\n 14532: a5 = u8 [a0 + 0xc]\n 14535: s1 = u8 [a0 + 0xe]\n 14538: a0 = u8 [a0 + 0xf]\n 14541: a4 = a4 << 0x8\n 14544: a4 = a4 | a5\n 14547: s1 = s1 << 0x10\n 14550: a0 = a0 << 0x18\n 14553: a0 = a0 | s1\n 14556: a0 = a0 | a4\n 14559: a0 = a0 << 0x20\n 14562: a0 = a0 | a1\n 14565: s1 = reverse a0\n 14567: a0 = reverse a3\n 14569: u64 [sp + 0x8] = a0\n 14572: a0 = reverse a2\n 14574: u64 [sp + 0x18] = a0\n 14577: a0 = reverse t0\n 14579: u64 [sp + 0x10] = a0\n 14582: ecalli 10 // 'return_data_size'\n 14584: fallthrough\n      : @213 (gas: 11)\n 14585: a3 = u64 [sp + 0x8]\n 14588: a1 = u64 [sp + 0x18]\n 14591: a2 = u64 [sp + 0x10]\n 14594: a1 = a1 | a2\n 14597: a2 = a3 | s1\n 14600: a2 = a2 | a1\n 14603: a2 = a2 >> 0x20\n 14606: a1 = a1 | s1\n 14609: a1 = a1 << 0x20\n 14612: a1 = a1 | a2\n 14615: jump @220 if a1 != 0\n      : @214 (gas: 3)\n 14618: s1 = a0\n 14620: a0 = a0 >> 0x20\n 14623: jump @220 if a0 != 0\n      : @215 (gas: 5)\n 14626: i32 a0 = a3 + 0\n 14628: i32 a1 = s1 + 0\n 14630: u64 [sp + 0x18] = a1\n 14633: u64 [sp + 0x10] = a0\n 14636: ra = 194, jump @0\n      : @216 [@dyn 97] (gas: 6)\n 14642: u32 [sp + 0x20] = s1\n 14645: i32 a0 = a0 + 0\n 14647: i32 a1 = sp + 0x20\n 14650: a2 = 0\n 14652: ecalli 9 // 'return_data_copy'\n 14654: fallthrough\n      : @217 (gas: 3)\n 14655: a0 = i32 [sp + 0x20]\n 14658: a1 = u64 [sp + 0x18]\n 14661: jump @220 if a0 <u a1\n      : @218 (gas: 2)\n 14664: ecalli 10 // 'return_data_size'\n 14666: fallthrough\n      : @219 (gas: 2)\n 14667: a1 = a0 >> 0x20\n 14670: jump @221 if a1 == 0\n      : @220 (gas: 1)\n 14673: trap\n      : @221 (gas: 4)\n 14674: i32 s1 = a0 + 0\n 14676: a0 = u64 [sp + 0x10]\n 14679: a1 = s1\n 14681: ra = 196, jump @0\n      : @222 [@dyn 98] (gas: 6)\n 14687: i32 a1 = a0 + 0\n 14689: a0 = 0x1\n 14692: a2 = s1\n 14694: ra = 0xc6\n 14698: ecalli 11 // 'seal_return'\n 14700: fallthrough\n      : @223 [@dyn 99] (gas: 12)\n 14701: a1 = u64 [a0 + 0x10]\n 14704: a2 = u64 [a0 + 0x18]\n 14707: a3 = u64 [a0 + 0x8]\n 14710: a0 = u64 [a0]\n 14712: a2 = a2 | a3\n 14715: a3 = a0 | a1\n 14718: a3 = a3 | a2\n 14721: a3 = a3 >> 0x20\n 14724: a1 = a1 | a2\n 14727: a1 = a1 << 0x20\n 14730: a1 = a1 | a3\n 14733: jump @226 if a1 != 0\n      : @224 (gas: 7)\n 14737: sp = sp + 0xfffffffffffffff0\n 14740: u64 [sp + 0x8] = ra\n 14743: u64 [sp] = s0\n 14745: i32 a0 = a0 + 0\n 14747: a1 = 0x20\n 14750: s0 = 0x20\n 14753: ra = 200, jump @0\n      : @225 [@dyn 100] (gas: 37)\n 14759: u8 [a0 + 31] = 0\n 14762: u8 [a0 + 30] = 0\n 14765: u8 [a0 + 29] = 0\n 14768: u8 [a0 + 28] = 0\n 14771: u8 [a0 + 27] = 0\n 14774: u8 [a0 + 26] = 0\n 14777: u8 [a0 + 25] = 0\n 14780: u8 [a0 + 24] = 0\n 14783: u8 [a0 + 23] = 0\n 14786: u8 [a0 + 22] = 0\n 14789: u8 [a0 + 21] = 0\n 14792: u8 [a0 + 20] = 0\n 14795: u8 [a0 + 19] = 0\n 14798: u8 [a0 + 18] = 0\n 14801: u8 [a0 + 17] = 0\n 14804: u8 [a0 + 16] = 0\n 14807: u8 [a0 + 15] = 0\n 14810: u8 [a0 + 14] = 0\n 14813: u8 [a0 + 13] = 0\n 14816: u8 [a0 + 12] = 0\n 14819: u8 [a0 + 11] = 0\n 14822: u8 [a0 + 10] = 0\n 14825: u8 [a0 + 9] = 0\n 14828: u8 [a0 + 8] = 0\n 14831: u8 [a0 + 7] = 0\n 14834: u8 [a0 + 6] = 0x64\n 14838: u8 [a0 + 5] = 0x72\n 14842: u8 [a0 + 4] = 0x61\n 14846: u8 [a0 + 3] = 0x63\n 14850: u8 [a0 + 0x2] = s0\n 14853: u8 [a0 + 1] = 0x6f\n 14857: a1 = 0x4e\n 14860: u8 [a0] = a1\n 14862: ra = u64 [sp + 0x8]\n 14865: s0 = u64 [sp]\n 14867: sp = sp + 0x10\n 14870: ret\n      : @226 (gas: 1)\n 14872: trap\n      : @227 (gas: 17)\n 14873: sp = sp + 0xffffffffffffffa0\n 14876: u64 [sp + 0x58] = ra\n 14879: u64 [sp + 0x50] = s0\n 14882: u64 [sp + 0x48] = s1\n 14885: a3 = u64 [a1 + 0x18]\n 14888: a4 = u64 [a1 + 0x10]\n 14891: a5 = u64 [a1 + 0x8]\n 14894: s1 = u64 [a1]\n 14896: a1 = a5 | a3\n 14899: a2 = s1 | a4\n 14902: a2 = a2 | a1\n 14905: a2 = a2 >> 0x20\n 14908: a1 = a1 | a4\n 14911: a1 = a1 << 0x20\n 14914: a1 = a1 | a2\n 14917: u64 [sp + 0x28] = a0\n 14920: jump @234 if a1 != 0\n      : @228 (gas: 19)\n 14924: a0 = s1 + 0x20\n 14927: u64 [sp + 0x30] = a0\n 14930: a0 = a0 <u s1\n 14933: a1 = a5 + a0\n 14936: u64 [sp + 0x40] = a1\n 14939: u64 [sp + 0x8] = a5\n 14942: s0 = a1 <u a5\n 14945: s0 = a0 if a0 == 0\n 14948: s0 = s0 + a4\n 14951: u64 [sp + 0x10] = a4\n 14954: a0 = s0 <u a4\n 14957: u64 [sp + 0x18] = a3\n 14960: a0 = a0 + a3\n 14963: u64 [sp + 0x38] = a0\n 14966: u64 [sp] = s1\n 14968: i32 a0 = s1 + 0\n 14970: a1 = 0x20\n 14973: s1 = 0x20\n 14976: ra = 202, jump @0\n      : @229 [@dyn 101] (gas: 45)\n 14982: u8 [a0 + 0x1f] = s1\n 14985: a1 = u64 [sp + 0x30]\n 14988: s1 = a1\n 14990: a1 = a1 | s0\n 14993: a2 = u64 [sp + 0x40]\n 14996: a4 = u64 [sp + 0x38]\n 14999: a2 = a2 | a4\n 15002: a1 = a1 | a2\n 15005: a1 = a1 >> 0x20\n 15008: u64 [sp + 0x20] = s0\n 15011: a2 = a2 | s0\n 15014: a2 = a2 << 0x20\n 15017: a1 = a1 | a2\n 15020: u8 [a0 + 30] = 0\n 15023: u8 [a0 + 29] = 0\n 15026: u8 [a0 + 28] = 0\n 15029: u8 [a0 + 27] = 0\n 15032: u8 [a0 + 26] = 0\n 15035: u8 [a0 + 25] = 0\n 15038: u8 [a0 + 24] = 0\n 15041: u8 [a0 + 23] = 0\n 15044: u8 [a0 + 22] = 0\n 15047: u8 [a0 + 21] = 0\n 15050: u8 [a0 + 20] = 0\n 15053: u8 [a0 + 19] = 0\n 15056: u8 [a0 + 18] = 0\n 15059: u8 [a0 + 17] = 0\n 15062: u8 [a0 + 16] = 0\n 15065: u8 [a0 + 15] = 0\n 15068: u8 [a0 + 14] = 0\n 15071: u8 [a0 + 13] = 0\n 15074: u8 [a0 + 12] = 0\n 15077: u8 [a0 + 11] = 0\n 15080: u8 [a0 + 10] = 0\n 15083: u8 [a0 + 9] = 0\n 15086: u8 [a0 + 8] = 0\n 15089: u8 [a0 + 7] = 0\n 15092: u8 [a0 + 6] = 0\n 15095: u8 [a0 + 5] = 0\n 15098: u8 [a0 + 4] = 0\n 15101: u8 [a0 + 3] = 0\n 15104: u8 [a0 + 2] = 0\n 15107: u8 [a0 + 1] = 0\n 15110: u8 [a0 + 0] = 0\n 15112: jump @234 if a1 != 0\n      : @230 (gas: 4)\n 15116: i32 s0 = s1 + 0\n 15118: a1 = 0x20\n 15121: a0 = s0\n 15123: ra = 204, jump @0\n      : @231 [@dyn 102] (gas: 41)\n 15129: u8 [a0 + 31] = 0x7\n 15133: u8 [a0 + 30] = 0\n 15136: u8 [a0 + 29] = 0\n 15139: u8 [a0 + 28] = 0\n 15142: u8 [a0 + 27] = 0\n 15145: u8 [a0 + 26] = 0\n 15148: u8 [a0 + 25] = 0\n 15151: u8 [a0 + 24] = 0\n 15154: u8 [a0 + 23] = 0\n 15157: u8 [a0 + 22] = 0\n 15160: u8 [a0 + 21] = 0\n 15163: u8 [a0 + 20] = 0\n 15166: u8 [a0 + 19] = 0\n 15169: u8 [a0 + 18] = 0\n 15172: u8 [a0 + 17] = 0\n 15175: u8 [a0 + 16] = 0\n 15178: u8 [a0 + 15] = 0\n 15181: u8 [a0 + 14] = 0\n 15184: u8 [a0 + 13] = 0\n 15187: u8 [a0 + 12] = 0\n 15190: u8 [a0 + 11] = 0\n 15193: u8 [a0 + 10] = 0\n 15196: u8 [a0 + 9] = 0\n 15199: u8 [a0 + 8] = 0\n 15202: u8 [a0 + 7] = 0\n 15205: u8 [a0 + 6] = 0\n 15208: u8 [a0 + 5] = 0\n 15211: u8 [a0 + 4] = 0\n 15214: u8 [a0 + 3] = 0\n 15217: u8 [a0 + 2] = 0\n 15220: u8 [a0 + 1] = 0\n 15223: a1 = u64 [sp + 0x20]\n 15226: a2 = u64 [sp + 0x38]\n 15229: a1 = a1 | a2\n 15232: a2 = 0xffffffe0\n 15242: a2 = s1 <u a2\n 15245: a3 = u64 [sp + 0x40]\n 15248: a2 = 0 if a3 != 0\n 15250: a2 = 0 if a1 != 0\n 15252: u8 [a0 + 0] = 0\n 15254: jump @234 if a2 == 0\n      : @232 (gas: 3)\n 15258: i32 a0 = s0 + 0x20\n 15261: a1 = 0x20\n 15264: ra = 206, jump @0\n      : @233 [@dyn 103] (gas: 54)\n 15270: u8 [a0 + 31] = 0\n 15273: u8 [a0 + 30] = 0\n 15276: u8 [a0 + 29] = 0\n 15279: u8 [a0 + 28] = 0\n 15282: u8 [a0 + 27] = 0\n 15285: u8 [a0 + 26] = 0\n 15288: u8 [a0 + 25] = 0\n 15291: u8 [a0 + 24] = 0\n 15294: u8 [a0 + 23] = 0\n 15297: u8 [a0 + 22] = 0\n 15300: u8 [a0 + 21] = 0\n 15303: u8 [a0 + 20] = 0\n 15306: u8 [a0 + 19] = 0\n 15309: u8 [a0 + 18] = 0\n 15312: u8 [a0 + 17] = 0\n 15315: u8 [a0 + 16] = 0\n 15318: u8 [a0 + 15] = 0\n 15321: u8 [a0 + 14] = 0\n 15324: u8 [a0 + 13] = 0\n 15327: u8 [a0 + 12] = 0\n 15330: u8 [a0 + 11] = 0\n 15333: u8 [a0 + 10] = 0\n 15336: u8 [a0 + 9] = 0\n 15339: u8 [a0 + 8] = 0\n 15342: u8 [a0 + 7] = 0\n 15345: u8 [a0 + 6] = 0x64\n 15349: u8 [a0 + 5] = 0x72\n 15353: u8 [a0 + 4] = 0x61\n 15357: u8 [a0 + 3] = 0x63\n 15361: u8 [a0 + 2] = 0x20\n 15365: u8 [a0 + 1] = 0x6f\n 15369: u8 [a0 + 0] = 0x4e\n 15372: a1 = u64 [sp]\n 15374: a0 = a1 + 0x60\n 15377: a1 = a0 <u a1\n 15380: a3 = u64 [sp + 0x8]\n 15383: a2 = a3 + a1\n 15386: a3 = a2 <u a3\n 15389: a3 = a1 if a1 == 0\n 15392: a1 = u64 [sp + 0x10]\n 15395: a3 = a3 + a1\n 15398: a1 = a3 <u a1\n 15401: a4 = u64 [sp + 0x18]\n 15404: a1 = a1 + a4\n 15407: a4 = u64 [sp + 0x28]\n 15410: u64 [a4] = a0\n 15412: u64 [a4 + 0x8] = a2\n 15415: u64 [a4 + 0x10] = a3\n 15418: u64 [a4 + 0x18] = a1\n 15421: ra = u64 [sp + 0x58]\n 15424: s0 = u64 [sp + 0x50]\n 15427: s1 = u64 [sp + 0x48]\n 15430: sp = sp + 0x60\n 15433: ret\n      : @234 (gas: 1)\n 15435: trap\n      : @235 (gas: 22)\n 15436: sp = sp + 0xfffffffffffffee0\n 15440: u64 [sp + 0x118] = ra\n 15444: u64 [sp + 0x110] = s0\n 15448: u64 [sp + 0x108] = s1\n 15452: s0 = sp + 0x120\n 15456: sp = sp & 0xffffffffffffffe0\n 15459: a4 = u64 [a1 + 0x10]\n 15462: a5 = u64 [a1 + 0x18]\n 15465: a2 = u64 [a1 + 0x8]\n 15468: a3 = u64 [a1]\n 15470: u64 [sp + 0x70] = a2\n 15473: u64 [sp + 0x58] = a5\n 15476: a1 = a2 | a5\n 15479: u64 [sp + 0x80] = a3\n 15483: a2 = a3 | a4\n 15486: a2 = a2 | a1\n 15489: a2 = a2 >> 0x20\n 15492: u64 [sp + 0x60] = a4\n 15495: a1 = a1 | a4\n 15498: a1 = a1 << 0x20\n 15501: a1 = a1 | a2\n 15504: jump @247 if a1 != 0\n      : @236 (gas: 12)\n 15508: a1 = u64 [a0 + 0x18]\n 15511: u64 [sp + 0x78] = a1\n 15514: a1 = u64 [a0 + 0x10]\n 15517: u64 [sp + 0x98] = a1\n 15521: a1 = u64 [a0 + 0x8]\n 15524: u64 [sp + 0x90] = a1\n 15528: a0 = u64 [a0]\n 15530: u64 [sp + 0x88] = a0\n 15534: a0 = i32 [sp + 0x80]\n 15538: a1 = 0x20\n 15541: u64 [sp + 0x68] = a0\n 15544: ra = 208, jump @0\n      : @237 [@dyn 104] (gas: 105)\n 15550: a1 = u8 [a0 + 0x11]\n 15553: a2 = u8 [a0 + 0x10]\n 15556: a3 = u8 [a0 + 0x12]\n 15559: a4 = u8 [a0 + 0x13]\n 15562: a1 = a1 << 0x8\n 15565: a1 = a1 | a2\n 15568: a3 = a3 << 0x10\n 15571: a4 = a4 << 0x18\n 15574: a3 = a3 | a4\n 15577: a1 = a1 | a3\n 15580: a2 = u8 [a0 + 0x15]\n 15583: a3 = u8 [a0 + 0x14]\n 15586: a4 = u8 [a0 + 0x16]\n 15589: a5 = u8 [a0 + 0x17]\n 15592: a2 = a2 << 0x8\n 15595: a2 = a2 | a3\n 15598: a4 = a4 << 0x10\n 15601: a5 = a5 << 0x18\n 15604: a4 = a4 | a5\n 15607: a2 = a2 | a4\n 15610: a2 = a2 << 0x20\n 15613: a1 = a1 | a2\n 15616: a2 = u8 [a0 + 0x19]\n 15619: a3 = u8 [a0 + 0x18]\n 15622: a4 = u8 [a0 + 0x1a]\n 15625: a5 = u8 [a0 + 0x1b]\n 15628: a2 = a2 << 0x8\n 15631: a2 = a2 | a3\n 15634: a4 = a4 << 0x10\n 15637: a5 = a5 << 0x18\n 15640: a4 = a4 | a5\n 15643: a2 = a2 | a4\n 15646: a3 = u8 [a0 + 0x1d]\n 15649: a4 = u8 [a0 + 0x1c]\n 15652: a5 = u8 [a0 + 0x1e]\n 15655: s1 = u8 [a0 + 0x1f]\n 15658: a3 = a3 << 0x8\n 15661: a3 = a3 | a4\n 15664: a5 = a5 << 0x10\n 15667: s1 = s1 << 0x18\n 15670: a5 = a5 | s1\n 15673: a3 = a3 | a5\n 15676: a3 = a3 << 0x20\n 15679: a2 = a2 | a3\n 15682: a3 = u8 [a0 + 0xd]\n 15685: a4 = u8 [a0 + 0xc]\n 15688: a5 = u8 [a0 + 0xe]\n 15691: a0 = u8 [a0 + 0xf]\n 15694: a3 = a3 << 0x8\n 15697: a3 = a3 | a4\n 15700: a5 = a5 << 0x10\n 15703: a0 = a0 << 0x18\n 15706: a0 = a0 | a5\n 15709: a0 = a0 | a3\n 15712: a2 = reverse a2\n 15714: u64 [sp + 0x50] = a2\n 15717: a1 = reverse a1\n 15719: u64 [sp + 0x48] = a1\n 15722: s1 = reverse a0\n 15724: s1 = s1 >> 0x20\n 15727: u64 [sp + 0x40] = s1\n 15730: s1 = u64 [sp + 0x78]\n 15733: u64 [sp + 0xd8] = s1\n 15737: a0 = u64 [sp + 0x98]\n 15741: u64 [sp + 0xd0] = a0\n 15745: a0 = u64 [sp + 0x90]\n 15749: u64 [sp + 0xc8] = a0\n 15753: a0 = u64 [sp + 0x88]\n 15757: u64 [sp + 0xc0] = a0\n 15761: u64 [sp + 248] = 0\n 15765: u64 [sp + 240] = 0\n 15769: u64 [sp + 232] = 0\n 15773: u64 [sp + 224] = 0\n 15777: u32 [sp + 160] = 0x20\n 15782: i32 a1 = sp + 0xc0\n 15786: i32 a3 = sp + 0xe0\n 15790: i32 a4 = sp + 0xa0\n 15794: a2 = 0xffffffffffffffff\n 15797: a0 = 0\n 15799: ecalli 6 // 'get_storage'\n 15801: a0 = u32 [sp + 0xf4]\n 15805: a0 = a0 << 0x20\n 15808: a1 = u64 [sp + 0xf8]\n 15812: a2 = u64 [sp + 0x40]\n 15815: a0 = a0 | a2\n 15818: u64 [sp + 0xd8] = s1\n 15822: a2 = u64 [sp + 0x98]\n 15826: u64 [sp + 0xd0] = a2\n 15830: a2 = u64 [sp + 0x90]\n 15834: u64 [sp + 0xc8] = a2\n 15838: a2 = u64 [sp + 0x88]\n 15842: u64 [sp + 0xc0] = a2\n 15846: u64 [sp + 0xf8] = a1\n 15850: u64 [sp + 0xf0] = a0\n 15854: a0 = u64 [sp + 0x48]\n 15857: u64 [sp + 0xe8] = a0\n 15861: a0 = u64 [sp + 0x50]\n 15864: u64 [sp + 0xe0] = a0\n 15868: i32 a1 = sp + 0xc0\n 15872: i32 a3 = sp + 0xe0\n 15876: a2 = 0xffffffffffffffff\n 15879: a4 = 0x20\n 15882: a0 = 0\n 15884: ecalli 13 // 'set_storage'\n 15886: fallthrough\n      : @238 (gas: 13)\n 15887: a0 = u64 [sp + 0x60]\n 15890: a2 = u64 [sp + 0x58]\n 15893: a2 = a2 | a0\n 15896: a0 = 0x100000000\n 15906: u64 [sp + 0x40] = a0\n 15909: a0 = 0xffffffe0\n 15919: a1 = u64 [sp + 0x80]\n 15923: a0 = a1 <u a0\n 15926: a1 = u64 [sp + 0x70]\n 15929: a0 = 0 if a1 != 0\n 15931: u64 [sp + 0x60] = a2\n 15934: a0 = 0 if a2 != 0\n 15936: jump @247 if a0 == 0\n      : @239 (gas: 20)\n 15940: a0 = u64 [sp + 0x88]\n 15944: a2 = a0 + 0x1\n 15947: u64 [sp + 0x48] = a2\n 15950: a0 = a2 <u 0x1\n 15953: a1 = u64 [sp + 0x90]\n 15957: a0 = a0 + a1\n 15960: u64 [sp + 0x58] = a0\n 15963: a0 = a0 | a2\n 15966: a0 = a0 <u 0x1\n 15969: a1 = u64 [sp + 0x98]\n 15973: a0 = a0 + a1\n 15976: u64 [sp + 0x50] = a0\n 15979: a0 = a0 <u a1\n 15982: a1 = u64 [sp + 0x78]\n 15985: a0 = a0 + a1\n 15988: u64 [sp + 0x38] = a0\n 15991: a0 = u64 [sp + 0x68]\n 15994: i32 a0 = a0 + 0x20\n 15997: a1 = 0x20\n 16000: ra = 210, jump @0\n      : @240 [@dyn 105] (gas: 137)\n 16006: a1 = u8 [a0 + 0x1]\n 16009: a2 = u8 [a0]\n 16011: a3 = u8 [a0 + 0x2]\n 16014: a4 = u8 [a0 + 0x3]\n 16017: a1 = a1 << 0x8\n 16020: a1 = a1 | a2\n 16023: a3 = a3 << 0x10\n 16026: a4 = a4 << 0x18\n 16029: a3 = a3 | a4\n 16032: a1 = a1 | a3\n 16035: a2 = u8 [a0 + 0x5]\n 16038: a3 = u8 [a0 + 0x4]\n 16041: a4 = u8 [a0 + 0x6]\n 16044: a5 = u8 [a0 + 0x7]\n 16047: a2 = a2 << 0x8\n 16050: a2 = a2 | a3\n 16053: a4 = a4 << 0x10\n 16056: a5 = a5 << 0x18\n 16059: a4 = a4 | a5\n 16062: a2 = a2 | a4\n 16065: a2 = a2 << 0x20\n 16068: t0 = a2 | a1\n 16071: a2 = u8 [a0 + 0x9]\n 16074: a3 = u8 [a0 + 0x8]\n 16077: a4 = u8 [a0 + 0xa]\n 16080: a5 = u8 [a0 + 0xb]\n 16083: a2 = a2 << 0x8\n 16086: a2 = a2 | a3\n 16089: a4 = a4 << 0x10\n 16092: a5 = a5 << 0x18\n 16095: a4 = a4 | a5\n 16098: a2 = a2 | a4\n 16101: a3 = u8 [a0 + 0xd]\n 16104: a4 = u8 [a0 + 0xc]\n 16107: a5 = u8 [a0 + 0xe]\n 16110: s1 = u8 [a0 + 0xf]\n 16113: a3 = a3 << 0x8\n 16116: a3 = a3 | a4\n 16119: a5 = a5 << 0x10\n 16122: s1 = s1 << 0x18\n 16125: a5 = a5 | s1\n 16128: a3 = a3 | a5\n 16131: a3 = a3 << 0x20\n 16134: a2 = a2 | a3\n 16137: a3 = u8 [a0 + 0x11]\n 16140: a4 = u8 [a0 + 0x10]\n 16143: a5 = u8 [a0 + 0x12]\n 16146: s1 = u8 [a0 + 0x13]\n 16149: a3 = a3 << 0x8\n 16152: a3 = a3 | a4\n 16155: a5 = a5 << 0x10\n 16158: s1 = s1 << 0x18\n 16161: a5 = a5 | s1\n 16164: a3 = a3 | a5\n 16167: a4 = u8 [a0 + 0x15]\n 16170: a5 = u8 [a0 + 0x14]\n 16173: s1 = u8 [a0 + 0x16]\n 16176: a1 = u8 [a0 + 0x17]\n 16179: a4 = a4 << 0x8\n 16182: a4 = a4 | a5\n 16185: s1 = s1 << 0x10\n 16188: a1 = a1 << 0x18\n 16191: a1 = a1 | s1\n 16194: a1 = a1 | a4\n 16197: a1 = a1 << 0x20\n 16200: a3 = a3 | a1\n 16203: a1 = u8 [a0 + 0x19]\n 16206: a4 = u8 [a0 + 0x18]\n 16209: a5 = u8 [a0 + 0x1a]\n 16212: s1 = u8 [a0 + 0x1b]\n 16215: a1 = a1 << 0x8\n 16218: a1 = a1 | a4\n 16221: a5 = a5 << 0x10\n 16224: s1 = s1 << 0x18\n 16227: a5 = a5 | s1\n 16230: a1 = a1 | a5\n 16233: a4 = u8 [a0 + 0x1d]\n 16236: a5 = u8 [a0 + 0x1c]\n 16239: s1 = u8 [a0 + 0x1e]\n 16242: a0 = u8 [a0 + 0x1f]\n 16245: a4 = a4 << 0x8\n 16248: a4 = a4 | a5\n 16251: s1 = s1 << 0x10\n 16254: a0 = a0 << 0x18\n 16257: a0 = a0 | s1\n 16260: a0 = a0 | a4\n 16263: a0 = a0 << 0x20\n 16266: a0 = a0 | a1\n 16269: u32 [sp + 160] = 0x20\n 16274: a0 = reverse a0\n 16276: u64 [sp + 0x30] = a0\n 16279: a0 = reverse a3\n 16281: u64 [sp + 0x28] = a0\n 16284: a0 = reverse a2\n 16286: u64 [sp + 0x20] = a0\n 16289: a0 = reverse t0\n 16291: u64 [sp + 0x18] = a0\n 16294: a0 = u64 [sp + 0x50]\n 16297: u64 [sp + 0xd0] = a0\n 16301: a0 = u64 [sp + 0x58]\n 16304: u64 [sp + 0xc8] = a0\n 16308: a0 = u64 [sp + 0x48]\n 16311: u64 [sp + 0xc0] = a0\n 16315: s1 = u64 [sp + 0x38]\n 16318: u64 [sp + 0xd8] = s1\n 16322: u64 [sp + 248] = 0\n 16326: u64 [sp + 240] = 0\n 16330: u64 [sp + 232] = 0\n 16334: u64 [sp + 224] = 0\n 16338: i32 a1 = sp + 0xc0\n 16342: i32 a3 = sp + 0xe0\n 16346: i32 a4 = sp + 0xa0\n 16350: a2 = 0xffffffffffffffff\n 16353: a0 = 0\n 16355: ecalli 6 // 'get_storage'\n 16357: u64 [sp + 0xd8] = s1\n 16361: a0 = u64 [sp + 0x50]\n 16364: u64 [sp + 0xd0] = a0\n 16368: a0 = u64 [sp + 0x58]\n 16371: u64 [sp + 0xc8] = a0\n 16375: a0 = u64 [sp + 0x48]\n 16378: u64 [sp + 0xc0] = a0\n 16382: a0 = u64 [sp + 0x18]\n 16385: u64 [sp + 0xf8] = a0\n 16389: a0 = u64 [sp + 0x20]\n 16392: u64 [sp + 0xf0] = a0\n 16396: a0 = u64 [sp + 0x28]\n 16399: u64 [sp + 0xe8] = a0\n 16403: a0 = u64 [sp + 0x30]\n 16406: u64 [sp + 0xe0] = a0\n 16410: i32 a1 = sp + 0xc0\n 16414: i32 a3 = sp + 0xe0\n 16418: a2 = 0xffffffffffffffff\n 16421: a4 = 0x20\n 16424: a0 = 0\n 16426: ecalli 13 // 'set_storage'\n 16428: fallthrough\n      : @241 (gas: 9)\n 16429: a0 = u64 [sp + 0x40]\n 16432: a0 = a0 + 0xffffffffffffffc0\n 16435: a1 = u64 [sp + 0x80]\n 16439: a0 = a1 <u a0\n 16442: a1 = u64 [sp + 0x70]\n 16445: a0 = 0 if a1 != 0\n 16447: a1 = u64 [sp + 0x60]\n 16450: a0 = 0 if a1 != 0\n 16452: jump @247 if a0 == 0\n      : @242 (gas: 20)\n 16456: a0 = u64 [sp + 0x88]\n 16460: a1 = a0 + 0x2\n 16463: u64 [sp + 0x48] = a1\n 16466: a0 = a1 <u a0\n 16469: a1 = u64 [sp + 0x90]\n 16473: a2 = a1 + a0\n 16476: u64 [sp + 0x58] = a2\n 16479: a1 = a2 <u a1\n 16482: a1 = a0 if a0 == 0\n 16485: a0 = u64 [sp + 0x98]\n 16489: a1 = a1 + a0\n 16492: u64 [sp + 0x50] = a1\n 16495: a0 = a1 <u a0\n 16498: a1 = u64 [sp + 0x78]\n 16501: a0 = a0 + a1\n 16504: u64 [sp + 0x40] = a0\n 16507: a0 = u64 [sp + 0x68]\n 16510: i32 a0 = a0 + 0x40\n 16513: a1 = 0x20\n 16516: ra = 212, jump @0\n      : @243 [@dyn 106] (gas: 137)\n 16522: a1 = u8 [a0 + 0x1]\n 16525: a2 = u8 [a0]\n 16527: a3 = u8 [a0 + 0x2]\n 16530: a4 = u8 [a0 + 0x3]\n 16533: a1 = a1 << 0x8\n 16536: a1 = a1 | a2\n 16539: a3 = a3 << 0x10\n 16542: a4 = a4 << 0x18\n 16545: a3 = a3 | a4\n 16548: a1 = a1 | a3\n 16551: a2 = u8 [a0 + 0x5]\n 16554: a3 = u8 [a0 + 0x4]\n 16557: a4 = u8 [a0 + 0x6]\n 16560: a5 = u8 [a0 + 0x7]\n 16563: a2 = a2 << 0x8\n 16566: a2 = a2 | a3\n 16569: a4 = a4 << 0x10\n 16572: a5 = a5 << 0x18\n 16575: a4 = a4 | a5\n 16578: a2 = a2 | a4\n 16581: a2 = a2 << 0x20\n 16584: t0 = a2 | a1\n 16587: a2 = u8 [a0 + 0x9]\n 16590: a3 = u8 [a0 + 0x8]\n 16593: a4 = u8 [a0 + 0xa]\n 16596: a5 = u8 [a0 + 0xb]\n 16599: a2 = a2 << 0x8\n 16602: a2 = a2 | a3\n 16605: a4 = a4 << 0x10\n 16608: a5 = a5 << 0x18\n 16611: a4 = a4 | a5\n 16614: a2 = a2 | a4\n 16617: a3 = u8 [a0 + 0xd]\n 16620: a4 = u8 [a0 + 0xc]\n 16623: a5 = u8 [a0 + 0xe]\n 16626: s1 = u8 [a0 + 0xf]\n 16629: a3 = a3 << 0x8\n 16632: a3 = a3 | a4\n 16635: a5 = a5 << 0x10\n 16638: s1 = s1 << 0x18\n 16641: a5 = a5 | s1\n 16644: a3 = a3 | a5\n 16647: a3 = a3 << 0x20\n 16650: a2 = a2 | a3\n 16653: a3 = u8 [a0 + 0x11]\n 16656: a4 = u8 [a0 + 0x10]\n 16659: a5 = u8 [a0 + 0x12]\n 16662: s1 = u8 [a0 + 0x13]\n 16665: a3 = a3 << 0x8\n 16668: a3 = a3 | a4\n 16671: a5 = a5 << 0x10\n 16674: s1 = s1 << 0x18\n 16677: a5 = a5 | s1\n 16680: a3 = a3 | a5\n 16683: a4 = u8 [a0 + 0x15]\n 16686: a5 = u8 [a0 + 0x14]\n 16689: s1 = u8 [a0 + 0x16]\n 16692: a1 = u8 [a0 + 0x17]\n 16695: a4 = a4 << 0x8\n 16698: a4 = a4 | a5\n 16701: s1 = s1 << 0x10\n 16704: a1 = a1 << 0x18\n 16707: a1 = a1 | s1\n 16710: a1 = a1 | a4\n 16713: a1 = a1 << 0x20\n 16716: a3 = a3 | a1\n 16719: a1 = u8 [a0 + 0x19]\n 16722: a4 = u8 [a0 + 0x18]\n 16725: a5 = u8 [a0 + 0x1a]\n 16728: s1 = u8 [a0 + 0x1b]\n 16731: a1 = a1 << 0x8\n 16734: a1 = a1 | a4\n 16737: a5 = a5 << 0x10\n 16740: s1 = s1 << 0x18\n 16743: a5 = a5 | s1\n 16746: a1 = a1 | a5\n 16749: a4 = u8 [a0 + 0x1d]\n 16752: a5 = u8 [a0 + 0x1c]\n 16755: s1 = u8 [a0 + 0x1e]\n 16758: a0 = u8 [a0 + 0x1f]\n 16761: a4 = a4 << 0x8\n 16764: a4 = a4 | a5\n 16767: s1 = s1 << 0x10\n 16770: a0 = a0 << 0x18\n 16773: a0 = a0 | s1\n 16776: a0 = a0 | a4\n 16779: a0 = a0 << 0x20\n 16782: a0 = a0 | a1\n 16785: a0 = reverse a0\n 16787: u64 [sp + 0x38] = a0\n 16790: a0 = reverse a3\n 16792: u64 [sp + 0x30] = a0\n 16795: a0 = reverse a2\n 16797: u64 [sp + 0x28] = a0\n 16800: a0 = reverse t0\n 16802: u64 [sp + 0x20] = a0\n 16805: a0 = u64 [sp + 0x50]\n 16808: u64 [sp + 0xd0] = a0\n 16812: a0 = u64 [sp + 0x58]\n 16815: u64 [sp + 0xc8] = a0\n 16819: a0 = u64 [sp + 0x48]\n 16822: u64 [sp + 0xc0] = a0\n 16826: s1 = u64 [sp + 0x40]\n 16829: u64 [sp + 0xd8] = s1\n 16833: u64 [sp + 248] = 0\n 16837: u64 [sp + 240] = 0\n 16841: u64 [sp + 232] = 0\n 16845: u64 [sp + 224] = 0\n 16849: u32 [sp + 160] = 0x20\n 16854: i32 a1 = sp + 0xc0\n 16858: i32 a3 = sp + 0xe0\n 16862: i32 a4 = sp + 0xa0\n 16866: a2 = 0xffffffffffffffff\n 16869: a0 = 0\n 16871: ecalli 6 // 'get_storage'\n 16873: u64 [sp + 0xd8] = s1\n 16877: a0 = u64 [sp + 0x50]\n 16880: u64 [sp + 0xd0] = a0\n 16884: a0 = u64 [sp + 0x58]\n 16887: u64 [sp + 0xc8] = a0\n 16891: a0 = u64 [sp + 0x48]\n 16894: u64 [sp + 0xc0] = a0\n 16898: a0 = u64 [sp + 0x20]\n 16901: u64 [sp + 0xf8] = a0\n 16905: a0 = u64 [sp + 0x28]\n 16908: u64 [sp + 0xf0] = a0\n 16912: a0 = u64 [sp + 0x30]\n 16915: u64 [sp + 0xe8] = a0\n 16919: a0 = u64 [sp + 0x38]\n 16922: u64 [sp + 0xe0] = a0\n 16926: i32 a1 = sp + 0xc0\n 16930: i32 a3 = sp + 0xe0\n 16934: a2 = 0xffffffffffffffff\n 16937: a4 = 0x20\n 16940: a0 = 0\n 16942: ecalli 13 // 'set_storage'\n 16944: fallthrough\n      : @244 (gas: 8)\n 16945: a0 = 0xffffffa0\n 16955: a1 = u64 [sp + 0x80]\n 16959: a0 = a1 <u a0\n 16962: a1 = u64 [sp + 0x70]\n 16965: a0 = 0 if a1 != 0\n 16967: a1 = u64 [sp + 0x60]\n 16970: a0 = 0 if a1 != 0\n 16972: jump @247 if a0 == 0\n      : @245 (gas: 20)\n 16976: a0 = u64 [sp + 0x88]\n 16980: a1 = a0 + 0x3\n 16983: u64 [sp + 0x80] = a1\n 16987: a0 = a1 <u a0\n 16990: a1 = u64 [sp + 0x90]\n 16994: a2 = a1 + a0\n 16997: u64 [sp + 0x88] = a2\n 17001: a1 = a2 <u a1\n 17004: a1 = a0 if a0 == 0\n 17007: a0 = u64 [sp + 0x98]\n 17011: a1 = a1 + a0\n 17014: u64 [sp + 0x90] = a1\n 17018: a0 = a1 <u a0\n 17021: a1 = u64 [sp + 0x78]\n 17024: a0 = a0 + a1\n 17027: u64 [sp + 0x98] = a0\n 17031: a0 = u64 [sp + 0x68]\n 17034: i32 a0 = a0 + 0x60\n 17037: a1 = 0x20\n 17040: ra = 214, jump @0\n      : @246 [@dyn 107] (gas: 140)\n 17046: a1 = u8 [a0 + 0x11]\n 17049: a2 = u8 [a0 + 0x10]\n 17052: a3 = u8 [a0 + 0x12]\n 17055: a4 = u8 [a0 + 0x13]\n 17058: a1 = a1 << 0x8\n 17061: a1 = a1 | a2\n 17064: a3 = a3 << 0x10\n 17067: a4 = a4 << 0x18\n 17070: a3 = a3 | a4\n 17073: t0 = a3 | a1\n 17076: a1 = u8 [a0 + 0x1]\n 17079: a2 = u8 [a0]\n 17081: a3 = u8 [a0 + 0x2]\n 17084: a4 = u8 [a0 + 0x3]\n 17087: a1 = a1 << 0x8\n 17090: a1 = a1 | a2\n 17093: a3 = a3 << 0x10\n 17096: a4 = a4 << 0x18\n 17099: a2 = a4 | a3\n 17102: t1 = a2 | a1\n 17105: a1 = u8 [a0 + 0x15]\n 17108: a3 = u8 [a0 + 0x14]\n 17111: a4 = u8 [a0 + 0x16]\n 17114: a5 = u8 [a0 + 0x17]\n 17117: a1 = a1 << 0x8\n 17120: a1 = a1 | a3\n 17123: a4 = a4 << 0x10\n 17126: a5 = a5 << 0x18\n 17129: a3 = a5 | a4\n 17132: t2 = a3 | a1\n 17135: a1 = u8 [a0 + 0x5]\n 17138: a4 = u8 [a0 + 0x4]\n 17141: a5 = u8 [a0 + 0x6]\n 17144: s1 = u8 [a0 + 0x7]\n 17147: a1 = a1 << 0x8\n 17150: a1 = a1 | a4\n 17153: a5 = a5 << 0x10\n 17156: s1 = s1 << 0x18\n 17159: a4 = s1 | a5\n 17162: ra = a4 | a1\n 17165: a1 = u8 [a0 + 0x19]\n 17168: a5 = u8 [a0 + 0x18]\n 17171: s1 = u8 [a0 + 0x1a]\n 17174: a2 = u8 [a0 + 0x1b]\n 17177: a1 = a1 << 0x8\n 17180: a1 = a1 | a5\n 17183: s1 = s1 << 0x10\n 17186: a2 = a2 << 0x18\n 17189: a2 = a2 | s1\n 17192: a5 = a2 | a1\n 17195: a1 = u8 [a0 + 0x9]\n 17198: a2 = u8 [a0 + 0x8]\n 17201: s1 = u8 [a0 + 0xa]\n 17204: a3 = u8 [a0 + 0xb]\n 17207: a1 = a1 << 0x8\n 17210: a1 = a1 | a2\n 17213: s1 = s1 << 0x10\n 17216: a3 = a3 << 0x18\n 17219: a3 = a3 | s1\n 17222: a1 = a1 | a3\n 17225: a2 = u8 [a0 + 0x1d]\n 17228: a3 = u8 [a0 + 0x1c]\n 17231: s1 = u8 [a0 + 0x1e]\n 17234: a4 = u8 [a0 + 0x1f]\n 17237: a2 = a2 << 0x8\n 17240: a2 = a2 | a3\n 17243: s1 = s1 << 0x10\n 17246: a4 = a4 << 0x18\n 17249: a4 = a4 | s1\n 17252: a2 = a2 | a4\n 17255: a3 = u8 [a0 + 0xd]\n 17258: a4 = u8 [a0 + 0xc]\n 17261: s1 = u8 [a0 + 0xe]\n 17264: a0 = u8 [a0 + 0xf]\n 17267: a3 = a3 << 0x8\n 17270: a3 = a3 | a4\n 17273: s1 = s1 << 0x10\n 17276: a0 = a0 << 0x18\n 17279: a0 = a0 | s1\n 17282: a0 = a0 | a3\n 17285: a0 = a0 | a2\n 17288: a1 = a1 | a5\n 17291: a0 = a0 << 0x20\n 17294: a0 = a0 | a1\n 17297: a1 = ra | t2\n 17300: a2 = t1 | t0\n 17303: a1 = a1 << 0x20\n 17306: a1 = a1 | a2\n 17309: a0 = a0 | a1\n 17312: u32 [sp + 160] = 0x20\n 17317: a0 = a0 >u 0\n 17319: u64 [sp + 0x78] = a0\n 17322: a0 = u64 [sp + 0x90]\n 17326: u64 [sp + 0xd0] = a0\n 17330: a0 = u64 [sp + 0x88]\n 17334: u64 [sp + 0xc8] = a0\n 17338: a0 = u64 [sp + 0x80]\n 17342: u64 [sp + 0xc0] = a0\n 17346: s1 = u64 [sp + 0x98]\n 17350: u64 [sp + 0xd8] = s1\n 17354: u64 [sp + 248] = 0\n 17358: u64 [sp + 240] = 0\n 17362: u64 [sp + 232] = 0\n 17366: u64 [sp + 224] = 0\n 17370: i32 a1 = sp + 0xc0\n 17374: i32 a3 = sp + 0xe0\n 17378: i32 a4 = sp + 0xa0\n 17382: a2 = 0xffffffffffffffff\n 17385: a0 = 0\n 17387: ecalli 6 // 'get_storage'\n 17389: a0 = u64 [sp + 0xe0]\n 17393: a1 = u64 [sp + 0xe8]\n 17397: a2 = u64 [sp + 0xf0]\n 17401: a3 = u64 [sp + 0xf8]\n 17405: a0 = a0 & 0xffffffffffffff00\n 17409: a4 = u64 [sp + 0x78]\n 17412: a0 = a0 | a4\n 17415: u64 [sp + 0xd8] = s1\n 17419: a4 = u64 [sp + 0x90]\n 17423: u64 [sp + 0xd0] = a4\n 17427: a4 = u64 [sp + 0x88]\n 17431: u64 [sp + 0xc8] = a4\n 17435: a4 = u64 [sp + 0x80]\n 17439: u64 [sp + 0xc0] = a4\n 17443: u64 [sp + 0xf8] = a3\n 17447: u64 [sp + 0xf0] = a2\n 17451: u64 [sp + 0xe8] = a1\n 17455: u64 [sp + 0xe0] = a0\n 17459: i32 a1 = sp + 0xc0\n 17463: i32 a3 = sp + 0xe0\n 17467: a2 = 0xffffffffffffffff\n 17470: a4 = 0x20\n 17473: a0 = 0\n 17475: ecalli 13 // 'set_storage'\n 17477: sp = s0 + 0xfffffffffffffee0\n 17481: ra = u64 [sp + 0x118]\n 17485: s0 = u64 [sp + 0x110]\n 17489: s1 = u64 [sp + 0x108]\n 17493: sp = sp + 0x120\n 17497: ret\n      : @247 (gas: 1)\n 17499: trap\n      : @248 (gas: 7)\n 17500: a3 = u64 [sp + 0x1f8]\n 17504: s1 = u64 [sp + 0x1f0]\n 17508: a2 = u64 [sp + 0x1e8]\n 17512: a0 = s1 | a3\n 17515: a1 = a2 <u 0x1\n 17518: a1 = 0 if a0 != 0\n 17520: jump @253 if a1 == 0\n      : @249 (gas: 49)\n 17524: a0 = u64 [sp + 0x1e0]\n 17528: u64 [sp + 0x18] = a0\n 17531: a0 = a0 + 0x1\n 17534: a1 = a0 <u 0x1\n 17537: a1 = a1 + a2\n 17540: u64 [sp + 0x1e0] = a0\n 17544: a0 = a0 | a1\n 17547: u64 [sp + 0x1e8] = a1\n 17551: a0 = a0 <u 0x1\n 17554: a0 = a0 + s1\n 17557: u64 [sp + 0x1f0] = a0\n 17561: a0 = a0 <u s1\n 17564: a0 = a0 + a3\n 17567: u64 [sp + 0x1f8] = a0\n 17571: a0 = u64 [sp + 0x50]\n 17574: u64 [sp + 0x1c8] = a0\n 17578: a0 = u64 [sp + 0x58]\n 17581: u64 [sp + 0x1c0] = a0\n 17585: a0 = u64 [sp + 0x48]\n 17588: u64 [sp + 0x1d0] = a0\n 17592: a0 = u64 [sp + 0x40]\n 17595: u64 [sp + 0x1d8] = a0\n 17599: i32 a1 = sp + 0x1c0\n 17603: u64 [sp + 0x10] = a3\n 17606: i32 a3 = sp + 0x1e0\n 17610: u64 [sp + 0x8] = a2\n 17613: a2 = 0xffffffffffffffff\n 17616: a4 = 0x20\n 17619: a0 = 0\n 17621: ecalli 13 // 'set_storage'\n 17623: a0 = u64 [sp + 0x10]\n 17626: u64 [sp + 0x138] = a0\n 17630: u64 [sp + 0x130] = s1\n 17634: a0 = u64 [sp + 0x8]\n 17637: u64 [sp + 0x128] = a0\n 17641: a0 = u64 [sp + 0x18]\n 17644: u64 [sp + 0x120] = a0\n 17648: a0 = u64 [sp + 0x40]\n 17651: u64 [sp + 0x158] = a0\n 17655: a0 = u64 [sp + 0x48]\n 17658: u64 [sp + 0x150] = a0\n 17662: a0 = u64 [sp + 0x50]\n 17665: u64 [sp + 0x148] = a0\n 17669: a0 = sp + 0x160\n 17673: a1 = sp + 0x140\n 17677: a2 = sp + 0x120\n 17681: a3 = u64 [sp + 0x58]\n 17684: u64 [sp + 0x140] = a3\n 17688: ra = 216, jump @164\n      : @250 [@dyn 108] (gas: 8)\n 17694: a0 = u64 [sp + 0x198]\n 17698: a1 = u64 [sp + 0x190]\n 17702: a2 = u64 [sp + 0x188]\n 17706: a3 = u64 [sp + 0x180]\n 17710: a0 = a0 | a2\n 17713: a1 = a1 | a3\n 17716: a0 = a0 | a1\n 17719: jump @255 if a0 != 0\n      : @251 (gas: 19)\n 17723: a2 = u64 [sp + 0x178]\n 17727: a0 = u64 [sp + 0x170]\n 17731: a1 = u64 [sp + 0x168]\n 17735: a3 = u64 [sp + 0x160]\n 17739: a4 = u64 [sp + 0x20]\n 17742: u64 [sp + 0xa0] = a4\n 17746: u64 [sp + 0xc0] = a3\n 17750: a3 = u64 [sp + 0x28]\n 17753: u64 [sp + 0xa8] = a3\n 17757: u64 [sp + 0xc8] = a1\n 17761: a1 = u64 [sp + 0x30]\n 17764: u64 [sp + 0xb0] = a1\n 17768: u64 [sp + 0xd0] = a0\n 17772: a0 = u64 [sp + 0x38]\n 17775: u64 [sp + 0xb8] = a0\n 17779: a0 = sp + 0xc0\n 17783: a1 = sp + 0xa0\n 17787: u64 [sp + 0xd8] = a2\n 17791: ra = 218, jump @235\n      : @252 [@dyn 109] (gas: 6)\n 17797: sp = s0 + 0xfffffffffffffde0\n 17801: ra = u64 [sp + 0x218]\n 17805: s0 = u64 [sp + 0x210]\n 17809: s1 = u64 [sp + 0x208]\n 17813: sp = sp + 0x220\n 17817: ret\n      : @253 (gas: 8)\n 17819: u64 [sp + 144] = 0\n 17823: u64 [sp + 136] = 0\n 17827: u64 [sp + 128] = 0\n 17831: a0 = 0x4e487b7100000000\n 17841: a1 = sp + 0x80\n 17845: u64 [sp + 0x98] = a0\n 17849: a0 = 0\n 17851: ra = 220, jump @8\n      : @254 [@dyn 110] (gas: 8)\n 17857: u64 [sp + 120] = 0\n 17860: u64 [sp + 112] = 0\n 17863: u64 [sp + 96] = 0x41\n 17867: a0 = 0x4\n 17870: a1 = sp + 0x60\n 17873: u64 [sp + 104] = 0\n 17876: ra = 0xe0\n 17880: jump @8\n      : @255 (gas: 8)\n 17883: u64 [sp + 272] = 0\n 17887: u64 [sp + 264] = 0\n 17891: u64 [sp + 256] = 0\n 17895: a0 = 0x4e487b7100000000\n 17905: a1 = sp + 0x100\n 17909: u64 [sp + 0x118] = a0\n 17913: a0 = 0\n 17915: ra = 222, jump @8\n      : @256 [@dyn 111] (gas: 7)\n 17921: u64 [sp + 248] = 0\n 17925: u64 [sp + 240] = 0\n 17929: u64 [sp + 232] = 0\n 17933: a0 = 0x4\n 17936: a1 = sp + 0xe0\n 17940: u64 [sp + 224] = 0\n 17944: ra = 224, jump @8\n      : @257 [@dyn 112] (gas: 3)\n 17950: a1 = 0x24\n 17953: a0 = 0\n 17955: ra = 226, jump @0\n      : @258 [@dyn 113] (gas: 6)\n 17961: i32 a1 = a0 + 0\n 17963: a0 = 0x1\n 17966: a2 = 0x24\n 17969: ra = 0xe4\n 17973: ecalli 11 // 'seal_return'\n 17975: fallthrough\n      : @259 [@dyn 114] (gas: 21)\n 17976: sp = sp + 0xfffffffffffffd20\n 17980: u64 [sp + 0x2d8] = ra\n 17984: u64 [sp + 0x2d0] = s0\n 17988: u64 [sp + 0x2c8] = s1\n 17992: s0 = sp + 0x2e0\n 17996: sp = sp & 0xffffffffffffffe0\n 17999: a2 = u64 [a0 + 0x18]\n 18002: a3 = u64 [a0 + 0x10]\n 18005: s1 = u64 [a0]\n 18007: a0 = u64 [a0 + 0x8]\n 18010: a4 = a2 >u 0\n 18012: a5 = a3 >u 0\n 18014: a5 = a4 if a2 != 0\n 18017: a4 = a0 >u 0\n 18019: u64 [sp + 0x50] = s1\n 18022: s1 = s1 <u 0x9\n 18025: s1 = s1 ^ 0x1\n 18028: s1 = a4 if a0 != 0\n 18031: a2 = a2 | a3\n 18034: s1 = a5 if a2 != 0\n 18037: jump @294 if s1 != 0\n      : @260 (gas: 10)\n 18041: a0 = u64 [a1 + 0x18]\n 18044: a3 = u64 [a1]\n 18046: a2 = u64 [a1 + 0x8]\n 18049: a1 = u64 [a1 + 0x10]\n 18052: u64 [sp + 0x10] = a3\n 18055: a3 = a3 <u 0x9\n 18058: a3 = 0 if a2 != 0\n 18060: a0 = a0 | a1\n 18063: a3 = 0 if a0 != 0\n 18065: jump @294 if a3 == 0\n      : @261 (gas: 32)\n 18069: u64 [sp + 664] = 0\n 18073: u64 [sp + 656] = 0\n 18077: u64 [sp + 648] = 0\n 18081: u64 [sp + 640] = 0x1\n 18086: u64 [sp + 696] = 0\n 18090: u64 [sp + 688] = 0\n 18094: u64 [sp + 680] = 0\n 18098: u64 [sp + 672] = 0\n 18102: u32 [sp + 704] = 0x20\n 18107: i32 a1 = sp + 0x280\n 18111: i32 a3 = sp + 0x2a0\n 18115: i32 a4 = sp + 0x2c0\n 18119: a2 = 0xffffffffffffffff\n 18122: a0 = 0\n 18124: ecalli 6 // 'get_storage'\n 18126: a0 = u64 [sp + 0x2b0]\n 18130: u64 [sp + 0x28] = a0\n 18133: a0 = u64 [sp + 0x2a8]\n 18137: u64 [sp + 0x20] = a0\n 18140: a0 = u64 [sp + 0x2a0]\n 18144: u64 [sp + 0x30] = a0\n 18147: i32 a0 = sp + 0x1c0\n 18151: ecalli 4 // 'caller'\n 18153: a0 = i32 [sp + 0x1d0]\n 18157: u64 [sp + 0x48] = a0\n 18160: a0 = u64 [sp + 0x1c0]\n 18164: u64 [sp + 0x40] = a0\n 18167: a0 = u64 [sp + 0x1c8]\n 18171: u64 [sp + 0x38] = a0\n 18174: a0 = 0x40\n 18177: a1 = 0x20\n 18180: ra = 230, jump @0\n      : @262 [@dyn 115] (gas: 102)\n 18186: a1 = u8 [a0 + 0x11]\n 18189: a2 = u8 [a0 + 0x10]\n 18192: a3 = u8 [a0 + 0x12]\n 18195: a4 = u8 [a0 + 0x13]\n 18198: a1 = a1 << 0x8\n 18201: a1 = a1 | a2\n 18204: a3 = a3 << 0x10\n 18207: a4 = a4 << 0x18\n 18210: a3 = a3 | a4\n 18213: a1 = a1 | a3\n 18216: a2 = u8 [a0 + 0x15]\n 18219: a3 = u8 [a0 + 0x14]\n 18222: a4 = u8 [a0 + 0x16]\n 18225: a5 = u8 [a0 + 0x17]\n 18228: a2 = a2 << 0x8\n 18231: a2 = a2 | a3\n 18234: a4 = a4 << 0x10\n 18237: a5 = a5 << 0x18\n 18240: a4 = a4 | a5\n 18243: a2 = a2 | a4\n 18246: a2 = a2 << 0x20\n 18249: t0 = a2 | a1\n 18252: a2 = u8 [a0 + 0x1]\n 18255: a3 = u8 [a0]\n 18257: a4 = u8 [a0 + 0x2]\n 18260: a5 = u8 [a0 + 0x3]\n 18263: a2 = a2 << 0x8\n 18266: a2 = a2 | a3\n 18269: a4 = a4 << 0x10\n 18272: a5 = a5 << 0x18\n 18275: a4 = a4 | a5\n 18278: a2 = a2 | a4\n 18281: a3 = u8 [a0 + 0x5]\n 18284: a4 = u8 [a0 + 0x4]\n 18287: a5 = u8 [a0 + 0x6]\n 18290: s1 = u8 [a0 + 0x7]\n 18293: a3 = a3 << 0x8\n 18296: a3 = a3 | a4\n 18299: a5 = a5 << 0x10\n 18302: s1 = s1 << 0x18\n 18305: a5 = a5 | s1\n 18308: a3 = a3 | a5\n 18311: a3 = a3 << 0x20\n 18314: a2 = a2 | a3\n 18317: a3 = u8 [a0 + 0x19]\n 18320: a4 = u8 [a0 + 0x18]\n 18323: a5 = u8 [a0 + 0x1a]\n 18326: s1 = u8 [a0 + 0x1b]\n 18329: a3 = a3 << 0x8\n 18332: a3 = a3 | a4\n 18335: a5 = a5 << 0x10\n 18338: s1 = s1 << 0x18\n 18341: a5 = a5 | s1\n 18344: a3 = a3 | a5\n 18347: a4 = u8 [a0 + 0x1d]\n 18350: a5 = u8 [a0 + 0x1c]\n 18353: s1 = u8 [a0 + 0x1e]\n 18356: a1 = u8 [a0 + 0x1f]\n 18359: a4 = a4 << 0x8\n 18362: a4 = a4 | a5\n 18365: s1 = s1 << 0x10\n 18368: a1 = a1 << 0x18\n 18371: a1 = a1 | s1\n 18374: a1 = a1 | a4\n 18377: a1 = a1 << 0x20\n 18380: a3 = a3 | a1\n 18383: a1 = u8 [a0 + 0x9]\n 18386: a4 = u8 [a0 + 0x8]\n 18389: a5 = u8 [a0 + 0xa]\n 18392: s1 = u8 [a0 + 0xb]\n 18395: a1 = a1 << 0x8\n 18398: a1 = a1 | a4\n 18401: a5 = a5 << 0x10\n 18404: s1 = s1 << 0x18\n 18407: a5 = a5 | s1\n 18410: a1 = a1 | a5\n 18413: a4 = u8 [a0 + 0xd]\n 18416: a5 = u8 [a0 + 0xc]\n 18419: s1 = u8 [a0 + 0xe]\n 18422: a0 = u8 [a0 + 0xf]\n 18425: a4 = a4 << 0x8\n 18428: a4 = a4 | a5\n 18431: s1 = s1 << 0x10\n 18434: a0 = a0 << 0x18\n 18437: a0 = a0 | s1\n 18440: a0 = a0 | a4\n 18443: a0 = a0 << 0x20\n 18446: a0 = a0 | a1\n 18449: s1 = reverse a0\n 18451: a3 = reverse a3\n 18453: a1 = reverse a2\n 18455: a0 = reverse t0\n 18457: u64 [sp + 0x78] = a0\n 18460: u64 [sp + 0x60] = a1\n 18463: a0 = a0 | a1\n 18466: a1 = a3 | s1\n 18469: a1 = a1 | a0\n 18472: a1 = a1 >> 0x20\n 18475: a0 = a0 | s1\n 18478: a0 = a0 << 0x20\n 18481: a0 = a0 | a1\n 18484: jump @306 if a0 != 0\n      : @263 (gas: 5)\n 18488: i32 a0 = a3 + 0\n 18490: a1 = 0x20\n 18493: u64 [sp + 0x68] = a0\n 18496: u64 [sp + 0x70] = a3\n 18499: ra = 232, jump @0\n      : @264 [@dyn 116] (gas: 43)\n 18505: u8 [a0 + 31] = 0\n 18508: u8 [a0 + 30] = 0\n 18511: u8 [a0 + 29] = 0\n 18514: u8 [a0 + 28] = 0\n 18517: u8 [a0 + 27] = 0\n 18520: u8 [a0 + 26] = 0\n 18523: u8 [a0 + 25] = 0\n 18526: u8 [a0 + 24] = 0\n 18529: u8 [a0 + 23] = 0\n 18532: u8 [a0 + 22] = 0\n 18535: u8 [a0 + 21] = 0\n 18538: u8 [a0 + 20] = 0\n 18541: u8 [a0 + 19] = 0\n 18544: u8 [a0 + 18] = 0\n 18547: u8 [a0 + 17] = 0\n 18550: u8 [a0 + 16] = 0\n 18553: u8 [a0 + 15] = 0\n 18556: u8 [a0 + 14] = 0\n 18559: u8 [a0 + 13] = 0\n 18562: u8 [a0 + 12] = 0\n 18565: u8 [a0 + 11] = 0\n 18568: u8 [a0 + 10] = 0\n 18571: u8 [a0 + 9] = 0\n 18574: u8 [a0 + 8] = 0\n 18577: u8 [a0 + 7] = 0\n 18580: u8 [a0 + 6] = 0\n 18583: u8 [a0 + 5] = 0\n 18586: u8 [a0 + 3] = 0xe6\n 18591: u8 [a0 + 2] = 0x8c\n 18596: u8 [a0 + 1] = 0xca\n 18601: u8 [a0 + 0] = 0x4d\n 18604: u64 [sp + 0x18] = s1\n 18607: a3 = u64 [sp + 0x60]\n 18610: a3 = a3 | s1\n 18613: a1 = 0xfffffffc\n 18623: a2 = u64 [sp + 0x70]\n 18626: a1 = a2 <u a1\n 18629: a2 = u64 [sp + 0x78]\n 18632: a1 = 0 if a2 != 0\n 18634: u64 [sp + 0x58] = a3\n 18637: a1 = 0 if a3 != 0\n 18639: u8 [a0 + 4] = 0\n 18642: jump @306 if a1 == 0\n      : @265 (gas: 19)\n 18646: a0 = u64 [sp + 0x38]\n 18649: a0 = reverse a0\n 18651: a1 = a0 >> 0x20\n 18654: a2 = u64 [sp + 0x40]\n 18657: a2 = reverse a2\n 18659: a3 = a2 << 0x20\n 18662: a1 = a1 | a3\n 18665: u64 [sp + 0x40] = a1\n 18668: a0 = a0 << 0x20\n 18671: a1 = u64 [sp + 0x48]\n 18674: a1 = reverse a1\n 18676: a1 = a1 >> 0x20\n 18679: a0 = a0 | a1\n 18682: u64 [sp + 0x48] = a0\n 18685: s1 = a2 >> 0x20\n 18688: a0 = u64 [sp + 0x68]\n 18691: i32 a0 = a0 + 0x4\n 18694: a1 = 0x20\n 18697: ra = 234, jump @0\n      : @266 [@dyn 117] (gas: 64)\n 18703: a1 = reverse s1\n 18705: a2 = u64 [sp + 0x40]\n 18708: a2 = reverse a2\n 18710: a3 = u64 [sp + 0x48]\n 18713: a3 = reverse a3\n 18715: a4 = a3 >> 0x38\n 18718: u8 [a0 + 0x1f] = a4\n 18721: a4 = a3 >> 0x30\n 18724: u8 [a0 + 0x1e] = a4\n 18727: a4 = a3 >> 0x28\n 18730: u8 [a0 + 0x1d] = a4\n 18733: a4 = a3 >> 0x20\n 18736: u8 [a0 + 0x1c] = a4\n 18739: a4 = a3 >> 0x18\n 18742: u8 [a0 + 0x1b] = a4\n 18745: a4 = a3 >> 0x10\n 18748: u8 [a0 + 0x1a] = a4\n 18751: a4 = a3 >> 0x8\n 18754: u8 [a0 + 0x19] = a4\n 18757: u8 [a0 + 0x18] = a3\n 18760: u8 [a0 + 0x10] = a2\n 18763: u8 [a0 + 11] = 0\n 18766: u8 [a0 + 10] = 0\n 18769: u8 [a0 + 9] = 0\n 18772: u8 [a0 + 7] = 0\n 18775: u8 [a0 + 6] = 0\n 18778: u8 [a0 + 5] = 0\n 18781: u8 [a0 + 4] = 0\n 18784: u8 [a0 + 3] = 0\n 18787: u8 [a0 + 2] = 0\n 18790: u8 [a0 + 1] = 0\n 18793: u8 [a0 + 0] = 0\n 18795: a3 = a2 >> 0x38\n 18798: u8 [a0 + 0x17] = a3\n 18801: a3 = a2 >> 0x30\n 18804: u8 [a0 + 0x16] = a3\n 18807: a3 = a2 >> 0x28\n 18810: u8 [a0 + 0x15] = a3\n 18813: a3 = a2 >> 0x20\n 18816: u8 [a0 + 0x14] = a3\n 18819: a3 = a2 >> 0x18\n 18822: u8 [a0 + 0x13] = a3\n 18825: a3 = a2 >> 0x10\n 18828: u8 [a0 + 0x12] = a3\n 18831: a2 = a2 >> 0x8\n 18834: u8 [a0 + 0x11] = a2\n 18837: u8 [a0 + 0x8] = a1\n 18840: a2 = a1 >> 0x38\n 18843: u8 [a0 + 0xf] = a2\n 18846: a2 = a1 >> 0x30\n 18849: u8 [a0 + 0xe] = a2\n 18852: a2 = a1 >> 0x28\n 18855: u8 [a0 + 0xd] = a2\n 18858: a1 = a1 >> 0x20\n 18861: s1 = 0x100000000\n 18871: a2 = 0xffffffdc\n 18881: a3 = u64 [sp + 0x70]\n 18884: a2 = a3 <u a2\n 18887: a3 = u64 [sp + 0x78]\n 18890: a2 = 0 if a3 != 0\n 18892: a3 = u64 [sp + 0x58]\n 18895: a2 = 0 if a3 != 0\n 18897: u8 [a0 + 0xc] = a1\n 18900: jump @306 if a2 == 0\n      : @267 (gas: 4)\n 18904: a0 = u64 [sp + 0x68]\n 18907: i32 a0 = a0 + 0x24\n 18910: a1 = 0x20\n 18913: ra = 236, jump @0\n      : @268 [@dyn 118] (gas: 43)\n 18919: a2 = u64 [sp + 0x50]\n 18922: a1 = a2 << 0x38\n 18925: u8 [a0 + 0x1f] = a2\n 18928: u8 [a0 + 30] = 0\n 18931: u8 [a0 + 29] = 0\n 18934: u8 [a0 + 28] = 0\n 18937: u8 [a0 + 27] = 0\n 18940: u8 [a0 + 26] = 0\n 18943: u8 [a0 + 25] = 0\n 18946: u64 [sp + 0x48] = a1\n 18949: u8 [a0 + 0x18] = a1\n 18952: u8 [a0 + 23] = 0\n 18955: u8 [a0 + 22] = 0\n 18958: u8 [a0 + 21] = 0\n 18961: u8 [a0 + 20] = 0\n 18964: u8 [a0 + 19] = 0\n 18967: u8 [a0 + 18] = 0\n 18970: u8 [a0 + 17] = 0\n 18973: u8 [a0 + 16] = 0\n 18976: u8 [a0 + 15] = 0\n 18979: u8 [a0 + 14] = 0\n 18982: u8 [a0 + 13] = 0\n 18985: u8 [a0 + 12] = 0\n 18988: u8 [a0 + 11] = 0\n 18991: u8 [a0 + 10] = 0\n 18994: u8 [a0 + 9] = 0\n 18997: u8 [a0 + 8] = 0\n 19000: u8 [a0 + 7] = 0\n 19003: u8 [a0 + 6] = 0\n 19006: u8 [a0 + 5] = 0\n 19009: u8 [a0 + 4] = 0\n 19012: u8 [a0 + 3] = 0\n 19015: u8 [a0 + 2] = 0\n 19018: u8 [a0 + 1] = 0\n 19021: a1 = s1 + 0xffffffffffffffbc\n 19024: a2 = u64 [sp + 0x70]\n 19027: a1 = a2 <u a1\n 19030: a2 = u64 [sp + 0x78]\n 19033: a1 = 0 if a2 != 0\n 19035: a2 = u64 [sp + 0x58]\n 19038: a1 = 0 if a2 != 0\n 19040: u8 [a0 + 0] = 0\n 19042: jump @306 if a1 == 0\n      : @269 (gas: 4)\n 19046: s1 = u64 [sp + 0x68]\n 19049: i32 a0 = s1 + 0x44\n 19052: a1 = 0x20\n 19055: ra = 238, jump @0\n      : @270 [@dyn 119] (gas: 56)\n 19061: u8 [a0 + 31] = 0x1\n 19065: u8 [a0 + 30] = 0\n 19068: u8 [a0 + 29] = 0\n 19071: u8 [a0 + 28] = 0\n 19074: u8 [a0 + 27] = 0\n 19077: u8 [a0 + 26] = 0\n 19080: u8 [a0 + 25] = 0\n 19083: u8 [a0 + 24] = 0\n 19086: u8 [a0 + 23] = 0\n 19089: u8 [a0 + 22] = 0\n 19092: u8 [a0 + 21] = 0\n 19095: u8 [a0 + 20] = 0\n 19098: u8 [a0 + 19] = 0\n 19101: u8 [a0 + 18] = 0\n 19104: u8 [a0 + 17] = 0\n 19107: u8 [a0 + 16] = 0\n 19110: u8 [a0 + 15] = 0\n 19113: u8 [a0 + 14] = 0\n 19116: u8 [a0 + 13] = 0\n 19119: u8 [a0 + 12] = 0\n 19122: u8 [a0 + 11] = 0\n 19125: u8 [a0 + 10] = 0\n 19128: u8 [a0 + 9] = 0\n 19131: u8 [a0 + 8] = 0\n 19134: u8 [a0 + 7] = 0\n 19137: u8 [a0 + 6] = 0\n 19140: u8 [a0 + 5] = 0\n 19143: u8 [a0 + 4] = 0\n 19146: u8 [a0 + 3] = 0\n 19149: u8 [a0 + 2] = 0\n 19152: u8 [a0 + 1] = 0\n 19155: u8 [a0 + 0] = 0\n 19157: ecalli 8 // 'ref_time_left'\n 19159: a0 = u64 [sp + 0x20]\n 19162: a0 = reverse a0\n 19164: a1 = a0 << 0x20\n 19167: a2 = u64 [sp + 0x28]\n 19170: a2 = reverse a2\n 19172: a2 = a2 >> 0x20\n 19175: a1 = a1 | a2\n 19178: a2 = u64 [sp + 0x30]\n 19181: a2 = reverse a2\n 19183: a3 = a2 << 0x20\n 19186: a0 = a0 >> 0x20\n 19189: a0 = a0 | a3\n 19192: a2 = a2 >> 0x20\n 19195: u64 [sp + 0x1e8] = a0\n 19199: u64 [sp + 0x1e0] = a1\n 19203: u32 [sp + 0x1f0] = a2\n 19207: u64 [sp + 536] = 0\n 19211: u64 [sp + 528] = 0\n 19215: u64 [sp + 520] = 0\n 19219: u64 [sp + 512] = 0\n 19223: a1 = 0x64\n 19226: a0 = s1\n 19228: ra = 240, jump @0\n      : @271 [@dyn 120] (gas: 4)\n 19234: u64 [sp + 0x58] = a0\n 19237: a1 = 0x20\n 19240: a0 = s1\n 19242: ra = 242, jump @0\n      : @272 [@dyn 121] (gas: 31)\n 19248: u32 [sp + 544] = 0x20\n 19253: u64 [sp + 600] = 0\n 19257: u64 [sp + 592] = 0\n 19261: u64 [sp + 584] = 0\n 19265: u64 [sp + 576] = 0\n 19269: a1 = sp + 0x1e0\n 19273: a1 = a1 << 0x20\n 19276: a1 = a1 >> 0x20\n 19279: a2 = 0x1800000000\n 19289: s1 = a1 | a2\n 19292: a1 = sp + 0x200\n 19296: a1 = a1 << 0x20\n 19299: a1 = a1 >> 0x20\n 19302: a2 = sp + 0x240\n 19306: a2 = a2 << 0x20\n 19309: a3 = a2 | a1\n 19312: a1 = u64 [sp + 0x58]\n 19315: a1 = a1 << 0x20\n 19318: a1 = a1 >> 0x20\n 19321: a2 = 0x6400000000\n 19331: a4 = a1 | a2\n 19334: a0 = a0 << 0x20\n 19337: a0 = a0 >> 0x20\n 19340: a1 = sp + 0x220\n 19344: a1 = a1 << 0x20\n 19347: a5 = a1 | a0\n 19350: a1 = 0xffffffffffffffff\n 19353: a2 = 0xffffffffffffffff\n 19356: a0 = s1\n 19358: ecalli 0 // 'call'\n 19359: fallthrough\n      : @273 (gas: 1)\n 19360: jump @299 if a0 != 0\n      : @274 (gas: 2)\n 19364: ecalli 10 // 'return_data_size'\n 19366: fallthrough\n      : @275 (gas: 2)\n 19367: a1 = 0x20\n 19370: jump @277 if a0 >=u a1\n      : @276 (gas: 3)\n 19373: ecalli 10 // 'return_data_size'\n 19375: a1 = a0\n 19377: fallthrough\n      : @277 (gas: 28)\n 19378: a4 = 0\n 19380: a3 = u64 [sp + 0x60]\n 19383: a2 = u64 [sp + 0x70]\n 19386: s1 = u64 [sp + 0x78]\n 19389: a0 = a1 + 0x1f\n 19392: u64 [sp + 0x70] = a1\n 19395: a1 = a0 <u a1\n 19398: u64 [sp + 120] = 0\n 19401: a1 = a1 & 0x1\n 19404: a0 = a0 & 0xffffffffffffffe0\n 19407: a2 = a2 + a0\n 19410: u64 [sp + 0x60] = a2\n 19413: a0 = a2 <u a0\n 19416: s1 = s1 + a1\n 19419: s1 = s1 + a0\n 19422: a2 = s1 ^ a1\n 19425: a1 = s1 <u a1\n 19428: a1 = a0 if a2 == 0\n 19431: a0 = u64 [sp + 0x18]\n 19434: a1 = a1 + a0\n 19437: a0 = a1 <u a0\n 19440: a0 = a0 + a3\n 19443: u64 [sp + 0x58] = a1\n 19446: u64 [sp + 0x50] = a0\n 19449: a0 = a0 | a1\n 19452: a1 = s1 <u 0x1\n 19455: a1 = 0 if a0 != 0\n 19457: jump @309 if a1 == 0\n      : @278 (gas: 3)\n 19461: a0 = 0x40\n 19464: a1 = 0x20\n 19467: ra = 244, jump @0\n      : @279 [@dyn 122] (gas: 79)\n 19473: a1 = u64 [sp + 0x50]\n 19476: a1 = reverse a1\n 19478: a2 = u64 [sp + 0x58]\n 19481: a2 = reverse a2\n 19483: a3 = reverse s1\n 19485: a4 = u64 [sp + 0x60]\n 19488: a4 = reverse a4\n 19490: u8 [a0 + 0x18] = a4\n 19493: a5 = a4 >> 0x38\n 19496: u8 [a0 + 0x1f] = a5\n 19499: a5 = a4 >> 0x30\n 19502: u8 [a0 + 0x1e] = a5\n 19505: a5 = a4 >> 0x28\n 19508: u8 [a0 + 0x1d] = a5\n 19511: a5 = a4 >> 0x20\n 19514: u8 [a0 + 0x1c] = a5\n 19517: a5 = a4 >> 0x18\n 19520: u8 [a0 + 0x1b] = a5\n 19523: a5 = a4 >> 0x10\n 19526: u8 [a0 + 0x1a] = a5\n 19529: a4 = a4 >> 0x8\n 19532: u8 [a0 + 0x19] = a4\n 19535: u8 [a0 + 0x10] = a3\n 19538: a4 = a3 >> 0x38\n 19541: u8 [a0 + 0x17] = a4\n 19544: a4 = a3 >> 0x30\n 19547: u8 [a0 + 0x16] = a4\n 19550: a4 = a3 >> 0x28\n 19553: u8 [a0 + 0x15] = a4\n 19556: a4 = a3 >> 0x20\n 19559: u8 [a0 + 0x14] = a4\n 19562: a4 = a3 >> 0x18\n 19565: u8 [a0 + 0x13] = a4\n 19568: a4 = a3 >> 0x10\n 19571: u8 [a0 + 0x12] = a4\n 19574: a3 = a3 >> 0x8\n 19577: u8 [a0 + 0x11] = a3\n 19580: u8 [a0 + 0x8] = a2\n 19583: a3 = a2 >> 0x38\n 19586: u8 [a0 + 0xf] = a3\n 19589: a3 = a2 >> 0x30\n 19592: u8 [a0 + 0xe] = a3\n 19595: a3 = a2 >> 0x28\n 19598: u8 [a0 + 0xd] = a3\n 19601: a3 = a2 >> 0x20\n 19604: u8 [a0 + 0xc] = a3\n 19607: a3 = a2 >> 0x18\n 19610: u8 [a0 + 0xb] = a3\n 19613: a3 = a2 >> 0x10\n 19616: u8 [a0 + 0xa] = a3\n 19619: a2 = a2 >> 0x8\n 19622: u8 [a0 + 0x9] = a2\n 19625: u8 [a0] = a1\n 19627: a2 = a1 >> 0x38\n 19630: u8 [a0 + 0x7] = a2\n 19633: a2 = a1 >> 0x30\n 19636: u8 [a0 + 0x6] = a2\n 19639: a2 = a1 >> 0x28\n 19642: u8 [a0 + 0x5] = a2\n 19645: a2 = a1 >> 0x20\n 19648: u8 [a0 + 0x4] = a2\n 19651: a2 = a1 >> 0x18\n 19654: u8 [a0 + 0x3] = a2\n 19657: a2 = a1 >> 0x10\n 19660: u8 [a0 + 0x2] = a2\n 19663: a1 = a1 >> 0x8\n 19666: a5 = u64 [sp + 0x78]\n 19669: a2 = a5 >u 0\n 19671: a3 = u64 [sp + 0x70]\n 19674: a3 = a3 <u 0x20\n 19677: a3 = a3 ^ 0x1\n 19680: a3 = a2 if a5 != 0\n 19683: a2 = a5 >u 0\n 19685: a4 = a5 >u 0\n 19687: a4 = a2 if a5 == 0\n 19690: a2 = a5 | a5\n 19693: a4 = a3 if a2 == 0\n 19696: u8 [a0 + 0x1] = a1\n 19699: jump @307 if a4 == 0\n      : @280 (gas: 3)\n 19703: a1 = 0x20\n 19706: a0 = u64 [sp + 0x68]\n 19709: ra = 246, jump @0\n      : @281 [@dyn 123] (gas: 96)\n 19715: a1 = u8 [a0 + 0x9]\n 19718: a2 = u8 [a0 + 0x8]\n 19721: a3 = u8 [a0 + 0xa]\n 19724: a4 = u8 [a0 + 0xb]\n 19727: a1 = a1 << 0x8\n 19730: a1 = a1 | a2\n 19733: a3 = a3 << 0x10\n 19736: a4 = a4 << 0x18\n 19739: a3 = a3 | a4\n 19742: a1 = a1 | a3\n 19745: a2 = u8 [a0 + 0xd]\n 19748: a3 = u8 [a0 + 0xc]\n 19751: a4 = u8 [a0 + 0xe]\n 19754: a5 = u8 [a0 + 0xf]\n 19757: a2 = a2 << 0x8\n 19760: a2 = a2 | a3\n 19763: a4 = a4 << 0x10\n 19766: a5 = a5 << 0x18\n 19769: a4 = a4 | a5\n 19772: a2 = a2 | a4\n 19775: a2 = a2 << 0x20\n 19778: t0 = a2 | a1\n 19781: a2 = u8 [a0 + 0x1]\n 19784: a3 = u8 [a0]\n 19786: a4 = u8 [a0 + 0x2]\n 19789: a5 = u8 [a0 + 0x3]\n 19792: a2 = a2 << 0x8\n 19795: a2 = a2 | a3\n 19798: a4 = a4 << 0x10\n 19801: a5 = a5 << 0x18\n 19804: a4 = a4 | a5\n 19807: a2 = a2 | a4\n 19810: a3 = u8 [a0 + 0x5]\n 19813: a4 = u8 [a0 + 0x4]\n 19816: a5 = u8 [a0 + 0x6]\n 19819: s1 = u8 [a0 + 0x7]\n 19822: a3 = a3 << 0x8\n 19825: a3 = a3 | a4\n 19828: a5 = a5 << 0x10\n 19831: s1 = s1 << 0x18\n 19834: a5 = a5 | s1\n 19837: a3 = a3 | a5\n 19840: a3 = a3 << 0x20\n 19843: a2 = a2 | a3\n 19846: a3 = u8 [a0 + 0x19]\n 19849: a4 = u8 [a0 + 0x18]\n 19852: a5 = u8 [a0 + 0x1a]\n 19855: s1 = u8 [a0 + 0x1b]\n 19858: a3 = a3 << 0x8\n 19861: a3 = a3 | a4\n 19864: a5 = a5 << 0x10\n 19867: s1 = s1 << 0x18\n 19870: a5 = a5 | s1\n 19873: a3 = a3 | a5\n 19876: a4 = u8 [a0 + 0x1d]\n 19879: a5 = u8 [a0 + 0x1c]\n 19882: s1 = u8 [a0 + 0x1e]\n 19885: a1 = u8 [a0 + 0x1f]\n 19888: a4 = a4 << 0x8\n 19891: a4 = a4 | a5\n 19894: s1 = s1 << 0x10\n 19897: a1 = a1 << 0x18\n 19900: a1 = a1 | s1\n 19903: a1 = a1 | a4\n 19906: a1 = a1 << 0x20\n 19909: a3 = a3 | a1\n 19912: a1 = u8 [a0 + 0x11]\n 19915: a4 = u8 [a0 + 0x10]\n 19918: a5 = u8 [a0 + 0x12]\n 19921: s1 = u8 [a0 + 0x13]\n 19924: a1 = a1 << 0x8\n 19927: a1 = a1 | a4\n 19930: a5 = a5 << 0x10\n 19933: s1 = s1 << 0x18\n 19936: a5 = a5 | s1\n 19939: a1 = a1 | a5\n 19942: a4 = u8 [a0 + 0x15]\n 19945: a5 = u8 [a0 + 0x14]\n 19948: s1 = u8 [a0 + 0x16]\n 19951: a0 = u8 [a0 + 0x17]\n 19954: a4 = a4 << 0x8\n 19957: a4 = a4 | a5\n 19960: s1 = s1 << 0x10\n 19963: a0 = a0 << 0x18\n 19966: a0 = a0 | s1\n 19969: a0 = a0 | a4\n 19972: a0 = a0 << 0x20\n 19975: a0 = a0 | a1\n 19978: a1 = reverse a0\n 19980: a4 = reverse a3\n 19982: a4 = a4 <u 0x2\n 19985: a4 = 0 if a1 != 0\n 19987: a1 = t0 | a2\n 19990: a1 = reverse a1\n 19992: a4 = 0 if a1 != 0\n 19994: jump @307 if a4 == 0\n      : @282 (gas: 4)\n 19998: a0 = a0 | a2\n 20001: a1 = t0 | a3\n 20004: a0 = a0 | a1\n 20007: jump @300 if a0 == 0\n      : @283 (gas: 14)\n 20011: i32 a0 = sp + 0x260\n 20015: ecalli 4 // 'caller'\n 20017: a0 = u32 [sp + 0x270]\n 20021: u64 [sp + 0x68] = a0\n 20024: a0 = u64 [sp + 0x268]\n 20028: u64 [sp + 0x50] = a0\n 20031: s1 = u64 [sp + 0x260]\n 20035: u64 [sp + 408] = 0\n 20039: u64 [sp + 400] = 0\n 20043: u64 [sp + 384] = 0x80\n 20049: a0 = sp + 0x1a0\n 20053: a1 = sp + 0x180\n 20057: u64 [sp + 392] = 0\n 20061: ra = 248, jump @46\n      : @284 [@dyn 124] (gas: 16)\n 20067: a2 = u64 [sp + 0x1b8]\n 20071: a3 = u64 [sp + 0x1b0]\n 20075: a0 = u64 [sp + 0x1a8]\n 20079: a1 = u64 [sp + 0x1a0]\n 20083: u64 [sp + 0x70] = a0\n 20086: u64 [sp + 0x58] = a2\n 20089: a0 = a0 | a2\n 20092: u64 [sp + 0x78] = a1\n 20095: a1 = a1 | a3\n 20098: a1 = a1 | a0\n 20101: a1 = a1 >> 0x20\n 20104: u64 [sp + 0x60] = a3\n 20107: a0 = a0 | a3\n 20110: a0 = a0 << 0x20\n 20113: a0 = a0 | a1\n 20116: jump @306 if a0 != 0\n      : @285 (gas: 17)\n 20120: a0 = reverse s1\n 20122: a0 = a0 << 0x20\n 20125: a1 = u64 [sp + 0x50]\n 20128: a1 = reverse a1\n 20130: a2 = a1 >> 0x20\n 20133: a0 = a0 | a2\n 20136: u64 [sp + 0x50] = a0\n 20139: a1 = a1 << 0x20\n 20142: a0 = u64 [sp + 0x68]\n 20145: a0 = reverse a0\n 20147: a0 = a0 >> 0x20\n 20150: a0 = a0 | a1\n 20153: u64 [sp + 0x40] = a0\n 20156: a0 = i32 [sp + 0x78]\n 20159: a1 = 0x20\n 20162: u64 [sp + 0x68] = a0\n 20165: ra = 250, jump @0\n      : @286 [@dyn 125] (gas: 65)\n 20171: a1 = u64 [sp + 0x40]\n 20174: a1 = reverse a1\n 20176: a2 = u64 [sp + 0x50]\n 20179: a2 = reverse a2\n 20181: a3 = s1 >> 0x18\n 20184: u8 [a0 + 0xf] = a3\n 20187: a3 = s1 >> 0x10\n 20190: u8 [a0 + 0xe] = a3\n 20193: a3 = s1 >> 0x8\n 20196: u8 [a0 + 0xd] = a3\n 20199: u8 [a0 + 0xc] = s1\n 20202: u8 [a0 + 11] = 0\n 20205: u8 [a0 + 10] = 0\n 20208: u8 [a0 + 9] = 0\n 20211: u8 [a0 + 8] = 0\n 20214: u8 [a0 + 7] = 0\n 20217: u8 [a0 + 6] = 0\n 20220: u8 [a0 + 5] = 0\n 20223: u8 [a0 + 4] = 0\n 20226: u8 [a0 + 3] = 0\n 20229: u8 [a0 + 2] = 0\n 20232: u8 [a0 + 1] = 0\n 20235: u8 [a0 + 0] = 0\n 20237: u8 [a0 + 0x10] = a2\n 20240: u8 [a0 + 0x18] = a1\n 20243: a3 = a2 >> 0x38\n 20246: u8 [a0 + 0x17] = a3\n 20249: a3 = a2 >> 0x30\n 20252: u8 [a0 + 0x16] = a3\n 20255: a3 = a2 >> 0x28\n 20258: u8 [a0 + 0x15] = a3\n 20261: a3 = a2 >> 0x20\n 20264: u8 [a0 + 0x14] = a3\n 20267: a3 = a2 >> 0x18\n 20270: u8 [a0 + 0x13] = a3\n 20273: a3 = a2 >> 0x10\n 20276: u8 [a0 + 0x12] = a3\n 20279: a2 = a2 >> 0x8\n 20282: u8 [a0 + 0x11] = a2\n 20285: a2 = a1 >> 0x38\n 20288: u8 [a0 + 0x1f] = a2\n 20291: a2 = a1 >> 0x30\n 20294: u8 [a0 + 0x1e] = a2\n 20297: a2 = a1 >> 0x28\n 20300: u8 [a0 + 0x1d] = a2\n 20303: a2 = a1 >> 0x20\n 20306: u8 [a0 + 0x1c] = a2\n 20309: a2 = a1 >> 0x18\n 20312: u8 [a0 + 0x1b] = a2\n 20315: a2 = a1 >> 0x10\n 20318: u8 [a0 + 0x1a] = a2\n 20321: a1 = a1 >> 0x8\n 20324: a2 = u64 [sp + 0x58]\n 20327: a4 = u64 [sp + 0x60]\n 20330: a4 = a4 | a2\n 20333: s1 = 0x100000000\n 20343: a2 = 0xffffffe0\n 20353: a3 = u64 [sp + 0x78]\n 20356: a2 = a3 <u a2\n 20359: a3 = u64 [sp + 0x70]\n 20362: a2 = 0 if a3 != 0\n 20364: u64 [sp + 0x50] = a4\n 20367: a2 = 0 if a4 != 0\n 20369: u8 [a0 + 0x19] = a1\n 20372: jump @306 if a2 == 0\n      : @287 (gas: 4)\n 20376: a0 = u64 [sp + 0x68]\n 20379: i32 a0 = a0 + 0x20\n 20382: a1 = 0x20\n 20385: ra = 252, jump @0\n      : @288 [@dyn 126] (gas: 48)\n 20391: u8 [a0 + 23] = 0\n 20394: u8 [a0 + 22] = 0\n 20397: u8 [a0 + 21] = 0\n 20400: u8 [a0 + 20] = 0\n 20403: u8 [a0 + 19] = 0\n 20406: u8 [a0 + 18] = 0\n 20409: u8 [a0 + 17] = 0\n 20412: u8 [a0 + 16] = 0\n 20415: u8 [a0 + 15] = 0\n 20418: u8 [a0 + 14] = 0\n 20421: u8 [a0 + 13] = 0\n 20424: u8 [a0 + 12] = 0\n 20427: u8 [a0 + 11] = 0\n 20430: u8 [a0 + 10] = 0\n 20433: u8 [a0 + 9] = 0\n 20436: u8 [a0 + 8] = 0\n 20439: u8 [a0 + 7] = 0\n 20442: u8 [a0 + 6] = 0\n 20445: u8 [a0 + 5] = 0\n 20448: u8 [a0 + 4] = 0\n 20451: u8 [a0 + 3] = 0\n 20454: u8 [a0 + 2] = 0\n 20457: u8 [a0 + 1] = 0\n 20460: u8 [a0 + 0] = 0\n 20462: a2 = u64 [sp + 0x48]\n 20465: u8 [a0 + 0x18] = a2\n 20468: a1 = a2 >> 0x38\n 20471: u8 [a0 + 0x1f] = a1\n 20474: a1 = a2 >> 0x30\n 20477: u8 [a0 + 0x1e] = a1\n 20480: a1 = a2 >> 0x28\n 20483: u8 [a0 + 0x1d] = a1\n 20486: a1 = a2 >> 0x20\n 20489: u8 [a0 + 0x1c] = a1\n 20492: a1 = a2 >> 0x18\n 20495: u8 [a0 + 0x1b] = a1\n 20498: a1 = a2 >> 0x10\n 20501: u8 [a0 + 0x1a] = a1\n 20504: a1 = a2 >> 0x8\n 20507: a2 = s1 + 0xffffffffffffffc0\n 20510: a3 = u64 [sp + 0x78]\n 20513: a2 = a3 <u a2\n 20516: a3 = u64 [sp + 0x70]\n 20519: a2 = 0 if a3 != 0\n 20521: a3 = u64 [sp + 0x50]\n 20524: a2 = 0 if a3 != 0\n 20526: u8 [a0 + 0x19] = a1\n 20529: jump @306 if a2 == 0\n      : @289 (gas: 4)\n 20533: a0 = u64 [sp + 0x68]\n 20536: i32 a0 = a0 + 0x40\n 20539: a1 = 0x20\n 20542: ra = 254, jump @0\n      : @290 [@dyn 127] (gas: 42)\n 20548: a1 = u64 [sp + 0x10]\n 20551: u8 [a0 + 0x1f] = a1\n 20554: s1 = 0x1\n 20557: a1 = 0xffffffa0\n 20567: a2 = u64 [sp + 0x78]\n 20570: a1 = a2 <u a1\n 20573: a2 = u64 [sp + 0x70]\n 20576: a1 = 0 if a2 != 0\n 20578: a2 = u64 [sp + 0x50]\n 20581: a1 = 0 if a2 != 0\n 20583: u8 [a0 + 30] = 0\n 20586: u8 [a0 + 29] = 0\n 20589: u8 [a0 + 28] = 0\n 20592: u8 [a0 + 27] = 0\n 20595: u8 [a0 + 26] = 0\n 20598: u8 [a0 + 25] = 0\n 20601: u8 [a0 + 24] = 0\n 20604: u8 [a0 + 23] = 0\n 20607: u8 [a0 + 22] = 0\n 20610: u8 [a0 + 21] = 0\n 20613: u8 [a0 + 20] = 0\n 20616: u8 [a0 + 19] = 0\n 20619: u8 [a0 + 18] = 0\n 20622: u8 [a0 + 17] = 0\n 20625: u8 [a0 + 16] = 0\n 20628: u8 [a0 + 15] = 0\n 20631: u8 [a0 + 14] = 0\n 20634: u8 [a0 + 13] = 0\n 20637: u8 [a0 + 12] = 0\n 20640: u8 [a0 + 11] = 0\n 20643: u8 [a0 + 10] = 0\n 20646: u8 [a0 + 9] = 0\n 20649: u8 [a0 + 8] = 0\n 20652: u8 [a0 + 7] = 0\n 20655: u8 [a0 + 6] = 0\n 20658: u8 [a0 + 5] = 0\n 20661: u8 [a0 + 4] = 0\n 20664: u8 [a0 + 3] = 0\n 20667: u8 [a0 + 2] = 0\n 20670: u8 [a0 + 1] = 0\n 20673: u8 [a0 + 0] = 0\n 20675: jump @306 if a1 == 0\n      : @291 (gas: 4)\n 20679: a0 = u64 [sp + 0x68]\n 20682: i32 a0 = a0 + 0x60\n 20685: a1 = 0x20\n 20688: ra = 256, jump @0\n      : @292 [@dyn 128] (gas: 85)\n 20694: u8 [a0 + 0x1f] = s1\n 20697: u8 [a0 + 30] = 0\n 20700: u8 [a0 + 29] = 0\n 20703: u8 [a0 + 28] = 0\n 20706: u8 [a0 + 27] = 0\n 20709: u8 [a0 + 26] = 0\n 20712: u8 [a0 + 25] = 0\n 20715: u8 [a0 + 24] = 0\n 20718: u8 [a0 + 23] = 0\n 20721: u8 [a0 + 22] = 0\n 20724: u8 [a0 + 21] = 0\n 20727: u8 [a0 + 20] = 0\n 20730: u8 [a0 + 19] = 0\n 20733: u8 [a0 + 18] = 0\n 20736: u8 [a0 + 17] = 0\n 20739: u8 [a0 + 16] = 0\n 20742: u8 [a0 + 15] = 0\n 20745: u8 [a0 + 14] = 0\n 20748: u8 [a0 + 13] = 0\n 20751: u8 [a0 + 12] = 0\n 20754: u8 [a0 + 11] = 0\n 20757: u8 [a0 + 10] = 0\n 20760: u8 [a0 + 9] = 0\n 20763: u8 [a0 + 8] = 0\n 20766: u8 [a0 + 7] = 0\n 20769: u8 [a0 + 6] = 0\n 20772: u8 [a0 + 5] = 0\n 20775: u8 [a0 + 4] = 0\n 20778: u8 [a0 + 3] = 0\n 20781: u8 [a0 + 2] = 0\n 20784: u8 [a0 + 1] = 0\n 20787: u8 [a0 + 0] = 0\n 20789: a0 = u64 [sp + 0x58]\n 20792: u64 [sp + 0x158] = a0\n 20796: a0 = u64 [sp + 0x60]\n 20799: u64 [sp + 0x150] = a0\n 20803: a0 = u64 [sp + 0x70]\n 20806: u64 [sp + 0x148] = a0\n 20810: a0 = u64 [sp + 0x78]\n 20813: u64 [sp + 0x140] = a0\n 20817: u64 [sp + 376] = 0\n 20821: u64 [sp + 368] = 0\n 20825: u64 [sp + 360] = 0\n 20829: a0 = sp + 0x160\n 20833: a1 = sp + 0x140\n 20837: u64 [sp + 352] = 0\n 20841: ra = 0x102\n 20845: sp = sp + 0xfffffffffffffde0\n 20849: u64 [sp + 0x218] = ra\n 20853: u64 [sp + 0x210] = s0\n 20857: u64 [sp + 0x208] = s1\n 20861: s0 = sp + 0x220\n 20865: sp = sp & 0xffffffffffffffe0\n 20868: a2 = u64 [a1 + 0x18]\n 20871: u64 [sp + 0x38] = a2\n 20874: a2 = u64 [a1 + 0x10]\n 20877: u64 [sp + 0x30] = a2\n 20880: a2 = u64 [a1 + 0x8]\n 20883: u64 [sp + 0x28] = a2\n 20886: a1 = u64 [a1]\n 20888: u64 [sp + 0x20] = a1\n 20891: a3 = u64 [a0 + 0x18]\n 20894: a2 = u64 [a0 + 0x10]\n 20897: a1 = u64 [a0 + 0x8]\n 20900: a0 = u64 [a0]\n 20902: u64 [sp + 0x40] = a3\n 20905: u64 [sp + 0x1d8] = a3\n 20909: u64 [sp + 0x48] = a2\n 20912: u64 [sp + 0x1d0] = a2\n 20916: u64 [sp + 0x50] = a1\n 20919: u64 [sp + 0x1c8] = a1\n 20923: u64 [sp + 0x58] = a0\n 20926: u64 [sp + 0x1c0] = a0\n 20930: u64 [sp + 504] = 0\n 20934: u64 [sp + 496] = 0\n 20938: u64 [sp + 488] = 0\n 20942: u64 [sp + 480] = 0\n 20946: u32 [sp + 416] = 0x20\n 20951: i32 a1 = sp + 0x1c0\n 20955: i32 a3 = sp + 0x1e0\n 20959: i32 a4 = sp + 0x1a0\n 20963: a2 = 0xffffffffffffffff\n 20966: a0 = 0\n 20968: ecalli 6 // 'get_storage'\n 20970: jump @248\n      : @293 [@dyn 129] (gas: 6)\n 20973: sp = s0 + 0xfffffffffffffd20\n 20977: ra = u64 [sp + 0x2d8]\n 20981: s0 = u64 [sp + 0x2d0]\n 20985: s1 = u64 [sp + 0x2c8]\n 20989: sp = sp + 0x2e0\n 20993: ret\n      : @294 (gas: 3)\n 20995: a0 = 0x40\n 20998: a1 = 0x20\n 21001: ra = 260, jump @0\n      : @295 [@dyn 130] (gas: 103)\n 21007: a1 = u8 [a0 + 0x11]\n 21010: a2 = u8 [a0 + 0x10]\n 21013: a3 = u8 [a0 + 0x12]\n 21016: a4 = u8 [a0 + 0x13]\n 21019: a1 = a1 << 0x8\n 21022: a1 = a1 | a2\n 21025: a3 = a3 << 0x10\n 21028: a4 = a4 << 0x18\n 21031: a3 = a3 | a4\n 21034: a1 = a1 | a3\n 21037: a2 = u8 [a0 + 0x15]\n 21040: a3 = u8 [a0 + 0x14]\n 21043: a4 = u8 [a0 + 0x16]\n 21046: a5 = u8 [a0 + 0x17]\n 21049: a2 = a2 << 0x8\n 21052: a2 = a2 | a3\n 21055: a4 = a4 << 0x10\n 21058: a5 = a5 << 0x18\n 21061: a4 = a4 | a5\n 21064: a2 = a2 | a4\n 21067: a2 = a2 << 0x20\n 21070: t0 = a2 | a1\n 21073: a2 = u8 [a0 + 0x1]\n 21076: a3 = u8 [a0]\n 21078: a4 = u8 [a0 + 0x2]\n 21081: a5 = u8 [a0 + 0x3]\n 21084: a2 = a2 << 0x8\n 21087: a2 = a2 | a3\n 21090: a4 = a4 << 0x10\n 21093: a5 = a5 << 0x18\n 21096: a4 = a4 | a5\n 21099: a2 = a2 | a4\n 21102: a3 = u8 [a0 + 0x5]\n 21105: a4 = u8 [a0 + 0x4]\n 21108: a5 = u8 [a0 + 0x6]\n 21111: s1 = u8 [a0 + 0x7]\n 21114: a3 = a3 << 0x8\n 21117: a3 = a3 | a4\n 21120: a5 = a5 << 0x10\n 21123: s1 = s1 << 0x18\n 21126: a5 = a5 | s1\n 21129: a3 = a3 | a5\n 21132: a3 = a3 << 0x20\n 21135: a2 = a2 | a3\n 21138: a3 = u8 [a0 + 0x19]\n 21141: a4 = u8 [a0 + 0x18]\n 21144: a5 = u8 [a0 + 0x1a]\n 21147: s1 = u8 [a0 + 0x1b]\n 21150: a3 = a3 << 0x8\n 21153: a3 = a3 | a4\n 21156: a5 = a5 << 0x10\n 21159: s1 = s1 << 0x18\n 21162: a5 = a5 | s1\n 21165: a3 = a3 | a5\n 21168: a4 = u8 [a0 + 0x1d]\n 21171: a5 = u8 [a0 + 0x1c]\n 21174: s1 = u8 [a0 + 0x1e]\n 21177: a1 = u8 [a0 + 0x1f]\n 21180: a4 = a4 << 0x8\n 21183: a4 = a4 | a5\n 21186: s1 = s1 << 0x10\n 21189: a1 = a1 << 0x18\n 21192: a1 = a1 | s1\n 21195: a1 = a1 | a4\n 21198: a1 = a1 << 0x20\n 21201: a3 = a3 | a1\n 21204: a1 = u8 [a0 + 0x9]\n 21207: a4 = u8 [a0 + 0x8]\n 21210: a5 = u8 [a0 + 0xa]\n 21213: s1 = u8 [a0 + 0xb]\n 21216: a1 = a1 << 0x8\n 21219: a1 = a1 | a4\n 21222: a5 = a5 << 0x10\n 21225: s1 = s1 << 0x18\n 21228: a5 = a5 | s1\n 21231: a1 = a1 | a5\n 21234: a4 = u8 [a0 + 0xd]\n 21237: a5 = u8 [a0 + 0xc]\n 21240: s1 = u8 [a0 + 0xe]\n 21243: a0 = u8 [a0 + 0xf]\n 21246: a4 = a4 << 0x8\n 21249: a4 = a4 | a5\n 21252: s1 = s1 << 0x10\n 21255: a0 = a0 << 0x18\n 21258: a0 = a0 | s1\n 21261: a0 = a0 | a4\n 21264: a0 = a0 << 0x20\n 21267: a0 = a0 | a1\n 21270: s1 = reverse a0\n 21272: a1 = reverse a3\n 21274: a2 = reverse a2\n 21276: a0 = reverse t0\n 21278: u64 [sp + 0x78] = a0\n 21281: u64 [sp + 0x70] = a2\n 21284: a0 = a0 | a2\n 21287: a2 = a1\n 21289: a1 = a1 | s1\n 21292: a1 = a1 | a0\n 21295: a1 = a1 >> 0x20\n 21298: a0 = a0 | s1\n 21301: a0 = a0 << 0x20\n 21304: a0 = a0 | a1\n 21307: jump @306 if a0 != 0\n      : @296 (gas: 5)\n 21311: u64 [sp + 0x68] = a2\n 21314: i32 a0 = a2 + 0\n 21316: a1 = 0x20\n 21319: u64 [sp + 0x60] = a0\n 21322: ra = 262, jump @0\n      : @297 [@dyn 131] (gas: 50)\n 21328: u8 [a0 + 31] = 0\n 21331: u8 [a0 + 30] = 0\n 21334: u8 [a0 + 29] = 0\n 21337: u8 [a0 + 28] = 0\n 21340: u8 [a0 + 27] = 0\n 21343: u8 [a0 + 26] = 0\n 21346: u8 [a0 + 25] = 0\n 21349: u8 [a0 + 24] = 0\n 21352: u8 [a0 + 23] = 0\n 21355: u8 [a0 + 22] = 0\n 21358: u8 [a0 + 21] = 0\n 21361: u8 [a0 + 20] = 0\n 21364: u8 [a0 + 19] = 0\n 21367: u8 [a0 + 18] = 0\n 21370: u8 [a0 + 17] = 0\n 21373: u8 [a0 + 16] = 0\n 21376: u8 [a0 + 15] = 0\n 21379: u8 [a0 + 14] = 0\n 21382: u8 [a0 + 13] = 0\n 21385: u8 [a0 + 12] = 0\n 21388: u8 [a0 + 11] = 0\n 21391: u8 [a0 + 10] = 0\n 21394: u8 [a0 + 9] = 0\n 21397: u8 [a0 + 8] = 0\n 21400: u8 [a0 + 7] = 0\n 21403: u8 [a0 + 6] = 0\n 21406: u8 [a0 + 5] = 0\n 21409: u8 [a0 + 4] = 0\n 21412: u8 [a0 + 3] = 0xa0\n 21417: u8 [a0 + 2] = 0x79\n 21421: u8 [a0 + 1] = 0xc3\n 21426: u8 [a0 + 0] = 0x8\n 21429: a1 = u64 [sp + 0x68]\n 21432: a0 = a1 + 0x4\n 21435: a1 = a0 <u a1\n 21438: a3 = u64 [sp + 0x78]\n 21441: a2 = a3 + a1\n 21444: a3 = a2 <u a3\n 21447: a3 = a1 if a1 == 0\n 21450: a3 = a3 + s1\n 21453: a1 = a3 <u s1\n 21456: a4 = u64 [sp + 0x70]\n 21459: a4 = a4 + a1\n 21462: u64 [sp + 0x88] = a2\n 21466: u64 [sp + 0x80] = a0\n 21470: u64 [sp + 0x90] = a3\n 21474: a0 = sp + 0xa0\n 21478: a1 = sp + 0x80\n 21482: u64 [sp + 0x98] = a4\n 21486: ra = 264, jump @201\n      : @298 [@dyn 132] (gas: 5)\n 21492: a0 = u64 [sp + 0xa8]\n 21496: t0 = u64 [sp + 0xb8]\n 21500: t1 = u64 [sp + 0xa0]\n 21504: a3 = u64 [sp + 0xb0]\n 21508: jump @305\n      : @299 (gas: 1)\n 21511: ra = 266, jump @211\n      : @300 [@dyn 133] (gas: 3)\n 21517: a0 = 0x40\n 21520: a1 = 0x20\n 21523: ra = 268, jump @0\n      : @301 [@dyn 134] (gas: 103)\n 21529: a1 = u8 [a0 + 0x11]\n 21532: a2 = u8 [a0 + 0x10]\n 21535: a3 = u8 [a0 + 0x12]\n 21538: a4 = u8 [a0 + 0x13]\n 21541: a1 = a1 << 0x8\n 21544: a1 = a1 | a2\n 21547: a3 = a3 << 0x10\n 21550: a4 = a4 << 0x18\n 21553: a3 = a3 | a4\n 21556: a1 = a1 | a3\n 21559: a2 = u8 [a0 + 0x15]\n 21562: a3 = u8 [a0 + 0x14]\n 21565: a4 = u8 [a0 + 0x16]\n 21568: a5 = u8 [a0 + 0x17]\n 21571: a2 = a2 << 0x8\n 21574: a2 = a2 | a3\n 21577: a4 = a4 << 0x10\n 21580: a5 = a5 << 0x18\n 21583: a4 = a4 | a5\n 21586: a2 = a2 | a4\n 21589: a2 = a2 << 0x20\n 21592: t0 = a2 | a1\n 21595: a2 = u8 [a0 + 0x1]\n 21598: a3 = u8 [a0]\n 21600: a4 = u8 [a0 + 0x2]\n 21603: a5 = u8 [a0 + 0x3]\n 21606: a2 = a2 << 0x8\n 21609: a2 = a2 | a3\n 21612: a4 = a4 << 0x10\n 21615: a5 = a5 << 0x18\n 21618: a4 = a4 | a5\n 21621: a2 = a2 | a4\n 21624: a3 = u8 [a0 + 0x5]\n 21627: a4 = u8 [a0 + 0x4]\n 21630: a5 = u8 [a0 + 0x6]\n 21633: s1 = u8 [a0 + 0x7]\n 21636: a3 = a3 << 0x8\n 21639: a3 = a3 | a4\n 21642: a5 = a5 << 0x10\n 21645: s1 = s1 << 0x18\n 21648: a5 = a5 | s1\n 21651: a3 = a3 | a5\n 21654: a3 = a3 << 0x20\n 21657: a2 = a2 | a3\n 21660: a3 = u8 [a0 + 0x19]\n 21663: a4 = u8 [a0 + 0x18]\n 21666: a5 = u8 [a0 + 0x1a]\n 21669: s1 = u8 [a0 + 0x1b]\n 21672: a3 = a3 << 0x8\n 21675: a3 = a3 | a4\n 21678: a5 = a5 << 0x10\n 21681: s1 = s1 << 0x18\n 21684: a5 = a5 | s1\n 21687: a3 = a3 | a5\n 21690: a4 = u8 [a0 + 0x1d]\n 21693: a5 = u8 [a0 + 0x1c]\n 21696: s1 = u8 [a0 + 0x1e]\n 21699: a1 = u8 [a0 + 0x1f]\n 21702: a4 = a4 << 0x8\n 21705: a4 = a4 | a5\n 21708: s1 = s1 << 0x10\n 21711: a1 = a1 << 0x18\n 21714: a1 = a1 | s1\n 21717: a1 = a1 | a4\n 21720: a1 = a1 << 0x20\n 21723: a3 = a3 | a1\n 21726: a1 = u8 [a0 + 0x9]\n 21729: a4 = u8 [a0 + 0x8]\n 21732: a5 = u8 [a0 + 0xa]\n 21735: s1 = u8 [a0 + 0xb]\n 21738: a1 = a1 << 0x8\n 21741: a1 = a1 | a4\n 21744: a5 = a5 << 0x10\n 21747: s1 = s1 << 0x18\n 21750: a5 = a5 | s1\n 21753: a1 = a1 | a5\n 21756: a4 = u8 [a0 + 0xd]\n 21759: a5 = u8 [a0 + 0xc]\n 21762: s1 = u8 [a0 + 0xe]\n 21765: a0 = u8 [a0 + 0xf]\n 21768: a4 = a4 << 0x8\n 21771: a4 = a4 | a5\n 21774: s1 = s1 << 0x10\n 21777: a0 = a0 << 0x18\n 21780: a0 = a0 | s1\n 21783: a0 = a0 | a4\n 21786: a0 = a0 << 0x20\n 21789: a0 = a0 | a1\n 21792: s1 = reverse a0\n 21794: a1 = reverse a3\n 21796: a2 = reverse a2\n 21798: a0 = reverse t0\n 21800: u64 [sp + 0x78] = a0\n 21803: u64 [sp + 0x70] = a2\n 21806: a0 = a0 | a2\n 21809: a2 = a1\n 21811: a1 = a1 | s1\n 21814: a1 = a1 | a0\n 21817: a1 = a1 >> 0x20\n 21820: a0 = a0 | s1\n 21823: a0 = a0 << 0x20\n 21826: a0 = a0 | a1\n 21829: jump @306 if a0 != 0\n      : @302 (gas: 5)\n 21833: u64 [sp + 0x68] = a2\n 21836: i32 a0 = a2 + 0\n 21838: a1 = 0x20\n 21841: u64 [sp + 0x60] = a0\n 21844: ra = 270, jump @0\n      : @303 [@dyn 135] (gas: 50)\n 21850: u8 [a0 + 31] = 0\n 21853: u8 [a0 + 30] = 0\n 21856: u8 [a0 + 29] = 0\n 21859: u8 [a0 + 28] = 0\n 21862: u8 [a0 + 27] = 0\n 21865: u8 [a0 + 26] = 0\n 21868: u8 [a0 + 25] = 0\n 21871: u8 [a0 + 24] = 0\n 21874: u8 [a0 + 23] = 0\n 21877: u8 [a0 + 22] = 0\n 21880: u8 [a0 + 21] = 0\n 21883: u8 [a0 + 20] = 0\n 21886: u8 [a0 + 19] = 0\n 21889: u8 [a0 + 18] = 0\n 21892: u8 [a0 + 17] = 0\n 21895: u8 [a0 + 16] = 0\n 21898: u8 [a0 + 15] = 0\n 21901: u8 [a0 + 14] = 0\n 21904: u8 [a0 + 13] = 0\n 21907: u8 [a0 + 12] = 0\n 21910: u8 [a0 + 11] = 0\n 21913: u8 [a0 + 10] = 0\n 21916: u8 [a0 + 9] = 0\n 21919: u8 [a0 + 8] = 0\n 21922: u8 [a0 + 7] = 0\n 21925: u8 [a0 + 6] = 0\n 21928: u8 [a0 + 5] = 0\n 21931: u8 [a0 + 4] = 0\n 21934: u8 [a0 + 3] = 0xa0\n 21939: u8 [a0 + 2] = 0x79\n 21943: u8 [a0 + 1] = 0xc3\n 21948: u8 [a0 + 0] = 0x8\n 21951: a1 = u64 [sp + 0x68]\n 21954: a0 = a1 + 0x4\n 21957: a1 = a0 <u a1\n 21960: a3 = u64 [sp + 0x78]\n 21963: a2 = a3 + a1\n 21966: a3 = a2 <u a3\n 21969: a3 = a1 if a1 == 0\n 21972: a3 = a3 + s1\n 21975: a1 = a3 <u s1\n 21978: a4 = u64 [sp + 0x70]\n 21981: a4 = a4 + a1\n 21984: u64 [sp + 0x108] = a2\n 21988: u64 [sp + 0x100] = a0\n 21992: u64 [sp + 0x110] = a3\n 21996: a0 = sp + 0x120\n 22000: a1 = sp + 0x100\n 22004: u64 [sp + 0x118] = a4\n 22008: ra = 272, jump @227\n      : @304 [@dyn 136] (gas: 5)\n 22014: a0 = u64 [sp + 0x128]\n 22018: t0 = u64 [sp + 0x138]\n 22022: t1 = u64 [sp + 0x120]\n 22026: a3 = u64 [sp + 0x130]\n 22030: fallthrough\n      : @305 (gas: 26)\n 22031: a1 = u64 [sp + 0x78]\n 22034: a4 = a0 ^ a1\n 22037: a5 = a0 <u a1\n 22040: t2 = a1\n 22042: a2 = u64 [sp + 0x68]\n 22045: a1 = t1 <u a2\n 22048: a5 = a1 if a4 == 0\n 22051: a4 = a3 - s1\n 22054: a3 = a3 <u s1\n 22057: s1 = u64 [sp + 0x70]\n 22060: s1 = t0 - s1\n 22063: s1 = s1 - a3\n 22066: a3 = a4 <u a5\n 22069: s1 = s1 - a3\n 22072: a4 = a4 - a5\n 22075: a0 = a0 - t2\n 22078: a1 = a0 - a1\n 22081: a0 = t1 - a2\n 22084: a1 = a1 | s1\n 22087: a2 = a0 | a4\n 22090: a2 = a2 | a1\n 22093: a1 = a1 | a4\n 22096: a2 = a2 >> 0x20\n 22099: a1 = a1 << 0x20\n 22102: a1 = a1 | a2\n 22105: jump @313 if a1 == 0\n      : @306 (gas: 1)\n 22108: trap\n      : @307 (gas: 3)\n 22109: a0 = 0\n 22111: a1 = 0\n 22113: ra = 274, jump @0\n      : @308 [@dyn 137] (gas: 5)\n 22119: i32 a1 = a0 + 0\n 22121: a0 = 0x1\n 22124: a2 = 0\n 22126: ecalli 11 // 'seal_return'\n 22128: fallthrough\n      : @309 (gas: 8)\n 22129: u64 [sp + 240] = 0\n 22133: u64 [sp + 232] = 0\n 22137: u64 [sp + 224] = 0\n 22141: a0 = 0x4e487b7100000000\n 22151: a1 = sp + 0xe0\n 22155: u64 [sp + 0xf8] = a0\n 22159: a0 = 0\n 22161: ra = 276, jump @8\n      : @310 [@dyn 138] (gas: 7)\n 22167: u64 [sp + 216] = 0\n 22171: u64 [sp + 208] = 0\n 22175: u64 [sp + 192] = 0x41\n 22180: a0 = 0x4\n 22183: a1 = sp + 0xc0\n 22187: u64 [sp + 200] = 0\n 22191: ra = 278, jump @8\n      : @311 [@dyn 139] (gas: 3)\n 22197: a1 = 0x24\n 22200: a0 = 0\n 22202: ra = 280, jump @0\n      : @312 [@dyn 140] (gas: 5)\n 22208: i32 a1 = a0 + 0\n 22210: a0 = 0x1\n 22213: a2 = 0x24\n 22216: ecalli 11 // 'seal_return'\n 22218: fallthrough\n      : @313 (gas: 4)\n 22219: i32 s1 = a0 + 0\n 22221: a0 = u64 [sp + 0x60]\n 22224: a1 = s1\n 22226: ra = 282, jump @0\n      : @314 [@dyn 141] (gas: 6)\n 22232: i32 a1 = a0 + 0\n 22234: a0 = 0x1\n 22237: a2 = s1\n 22239: ra = 0x11c\n 22243: ecalli 11 // 'seal_return'\n 22245: fallthrough\n      : @315 [@dyn 142] (gas: 6)\n 22246: u64 [a0 + 24] = 0\n 22249: u64 [a0 + 16] = 0\n 22252: u64 [a0 + 8] = 0\n 22255: a1 = 0x60\n 22258: u64 [a0] = a1\n 22260: ret\n      : @316 (gas: 14)\n 22262: sp = sp + 0xffffffffffffff10\n 22266: u64 [sp + 0xe8] = ra\n 22270: u64 [sp + 0xe0] = s0\n 22274: u64 [sp + 0xd8] = s1\n 22278: s0 = sp + 0xf0\n 22282: sp = sp & 0xfffffffffffffff0\n 22285: a2 = u64 [a1 + 0x18]\n 22288: a4 = u64 [a1 + 0x10]\n 22291: a5 = u64 [a1 + 0x8]\n 22294: s1 = a4 | a2\n 22297: a3 = a5 <u 0x1\n 22300: a3 = 0 if s1 != 0\n 22302: u64 [sp + 0x48] = a0\n 22305: jump @322 if a3 == 0\n      : @317 (gas: 30)\n 22309: s1 = u64 [a1]\n 22311: a0 = a4 >> 0x3b\n 22314: u64 [sp + 0x20] = a2\n 22317: a1 = a2 << 0x5\n 22320: a0 = a0 | a1\n 22323: a1 = a5 >> 0x3b\n 22326: u64 [sp + 0x28] = a4\n 22329: a2 = a4 << 0x5\n 22332: a1 = a1 | a2\n 22335: a2 = s1 >> 0x3b\n 22338: u64 [sp + 0x10] = a5\n 22341: a3 = a5 << 0x5\n 22344: a2 = a2 | a3\n 22347: u64 [sp + 0x18] = s1\n 22350: a3 = s1 << 0x5\n 22353: a4 = a3 + 0x20\n 22356: a3 = a4 <u a3\n 22359: a5 = a2 + a3\n 22362: a2 = a5 <u a2\n 22365: a2 = a3 if a3 == 0\n 22368: a2 = a2 + a1\n 22371: a1 = a2 <u a1\n 22374: a3 = a0 + a1\n 22377: u64 [sp + 0x90] = a4\n 22381: u64 [sp + 0x98] = a5\n 22385: u64 [sp + 0xa0] = a2\n 22389: a0 = sp + 0xb0\n 22393: a1 = sp + 0x90\n 22397: u64 [sp + 0xa8] = a3\n 22401: ra = 286, jump @46\n      : @318 [@dyn 143] (gas: 15)\n 22407: a0 = u64 [sp + 0xc8]\n 22411: a2 = u64 [sp + 0xc0]\n 22415: a1 = u64 [sp + 0xb8]\n 22419: a3 = u64 [sp + 0xb0]\n 22423: u64 [sp + 0x38] = a0\n 22426: u64 [sp + 0x30] = a1\n 22429: a0 = a0 | a1\n 22432: a1 = a3 | a2\n 22435: a1 = a1 | a0\n 22438: a1 = a1 >> 0x20\n 22441: u64 [sp + 0x40] = a2\n 22444: a0 = a0 | a2\n 22447: a0 = a0 << 0x20\n 22450: a0 = a0 | a1\n 22453: jump @321 if a0 != 0\n      : @319 (gas: 4)\n 22457: i32 a0 = a3 + 0\n 22459: a1 = 0x20\n 22462: u64 [sp + 0x8] = a3\n 22465: ra = 288, jump @0\n      : @320 [@dyn 144] (gas: 83)\n 22471: a1 = u64 [sp + 0x20]\n 22474: a1 = reverse a1\n 22476: a2 = u64 [sp + 0x28]\n 22479: a2 = reverse a2\n 22481: a3 = u64 [sp + 0x10]\n 22484: a3 = reverse a3\n 22486: a4 = u64 [sp + 0x18]\n 22489: a4 = reverse a4\n 22491: a5 = a4 >> 0x38\n 22494: u8 [a0 + 0x1f] = a5\n 22497: a5 = a4 >> 0x30\n 22500: u8 [a0 + 0x1e] = a5\n 22503: a5 = a4 >> 0x28\n 22506: u8 [a0 + 0x1d] = a5\n 22509: a5 = a4 >> 0x20\n 22512: u8 [a0 + 0x1c] = a5\n 22515: a5 = a4 >> 0x18\n 22518: u8 [a0 + 0x1b] = a5\n 22521: a5 = a4 >> 0x10\n 22524: u8 [a0 + 0x1a] = a5\n 22527: a5 = a4 >> 0x8\n 22530: u8 [a0 + 0x19] = a5\n 22533: u8 [a0 + 0x18] = a4\n 22536: u8 [a0 + 0x10] = a3\n 22539: a4 = a3 >> 0x38\n 22542: u8 [a0 + 0x17] = a4\n 22545: a4 = a3 >> 0x30\n 22548: u8 [a0 + 0x16] = a4\n 22551: a4 = a3 >> 0x28\n 22554: u8 [a0 + 0x15] = a4\n 22557: a4 = a3 >> 0x20\n 22560: u8 [a0 + 0x14] = a4\n 22563: a4 = a3 >> 0x18\n 22566: u8 [a0 + 0x13] = a4\n 22569: a4 = a3 >> 0x10\n 22572: u8 [a0 + 0x12] = a4\n 22575: a3 = a3 >> 0x8\n 22578: u8 [a0 + 0x11] = a3\n 22581: u8 [a0 + 0x8] = a2\n 22584: a3 = a2 >> 0x38\n 22587: u8 [a0 + 0xf] = a3\n 22590: a3 = a2 >> 0x30\n 22593: u8 [a0 + 0xe] = a3\n 22596: a3 = a2 >> 0x28\n 22599: u8 [a0 + 0xd] = a3\n 22602: a3 = a2 >> 0x20\n 22605: u8 [a0 + 0xc] = a3\n 22608: a3 = a2 >> 0x18\n 22611: u8 [a0 + 0xb] = a3\n 22614: a3 = a2 >> 0x10\n 22617: u8 [a0 + 0xa] = a3\n 22620: a2 = a2 >> 0x8\n 22623: u8 [a0 + 0x9] = a2\n 22626: u8 [a0] = a1\n 22628: a2 = a1 >> 0x38\n 22631: u8 [a0 + 0x7] = a2\n 22634: a2 = a1 >> 0x30\n 22637: u8 [a0 + 0x6] = a2\n 22640: a2 = a1 >> 0x28\n 22643: u8 [a0 + 0x5] = a2\n 22646: a2 = a1 >> 0x20\n 22649: u8 [a0 + 0x4] = a2\n 22652: a2 = a1 >> 0x18\n 22655: u8 [a0 + 0x3] = a2\n 22658: a2 = a1 >> 0x10\n 22661: u8 [a0 + 0x2] = a2\n 22664: a1 = a1 >> 0x8\n 22667: u8 [a0 + 0x1] = a1\n 22670: a0 = u64 [sp + 0x48]\n 22673: a1 = u64 [sp + 0x8]\n 22676: u64 [a0] = a1\n 22678: a1 = u64 [sp + 0x38]\n 22681: u64 [a0 + 0x18] = a1\n 22684: a1 = u64 [sp + 0x30]\n 22687: u64 [a0 + 0x8] = a1\n 22690: a1 = u64 [sp + 0x40]\n 22693: u64 [a0 + 0x10] = a1\n 22696: sp = s0 + 0xffffffffffffff10\n 22700: ra = u64 [sp + 0xe8]\n 22704: s0 = u64 [sp + 0xe0]\n 22708: s1 = u64 [sp + 0xd8]\n 22712: sp = sp + 0xf0\n 22716: ret\n      : @321 (gas: 1)\n 22718: trap\n      : @322 (gas: 8)\n 22719: u64 [sp + 128] = 0\n 22723: u64 [sp + 120] = 0\n 22726: u64 [sp + 112] = 0\n 22729: a0 = 0x4e487b7100000000\n 22739: a1 = sp + 0x70\n 22742: u64 [sp + 0x88] = a0\n 22746: a0 = 0\n 22748: ra = 290, jump @8\n      : @323 [@dyn 145] (gas: 7)\n 22754: u64 [sp + 104] = 0\n 22757: u64 [sp + 96] = 0\n 22760: u64 [sp + 80] = 0x41\n 22764: a0 = 0x4\n 22767: a1 = sp + 0x50\n 22770: u64 [sp + 88] = 0\n 22773: ra = 292, jump @8\n      : @324 [@dyn 146] (gas: 3)\n 22779: a1 = 0x24\n 22782: a0 = 0\n 22784: ra = 294, jump @0\n      : @325 [@dyn 147] (gas: 6)\n 22790: i32 a1 = a0 + 0\n 22792: a0 = 0x1\n 22795: a2 = 0x24\n 22798: ra = 0x128\n 22802: ecalli 11 // 'seal_return'\n 22804: fallthrough\n      : @326 [@dyn 148] (gas: 14)\n 22805: sp = sp + 0xffffffffffffffa0\n 22808: u64 [sp + 0x58] = ra\n 22811: u64 [sp + 0x50] = s0\n 22814: u64 [sp + 0x48] = s1\n 22817: s0 = sp + 0x60\n 22820: sp = sp & 0xfffffffffffffff0\n 22823: s1 = a0\n 22825: u64 [sp + 24] = 0\n 22828: u64 [sp + 16] = 0\n 22831: u64 [sp + 0] = 0x80\n 22835: a0 = sp + 0x20\n 22838: a1 = sp\n 22840: u64 [sp + 8] = 0\n 22843: ra = 298, jump @46\n      : @327 [@dyn 149] (gas: 14)\n 22849: a0 = u64 [sp + 0x30]\n 22852: a1 = u64 [sp + 0x38]\n 22855: a2 = u64 [sp + 0x20]\n 22858: a3 = u64 [sp + 0x28]\n 22861: u64 [s1 + 0x10] = a0\n 22864: u64 [s1 + 0x18] = a1\n 22867: u64 [s1] = a2\n 22869: u64 [s1 + 0x8] = a3\n 22872: sp = s0 + 0xffffffffffffffa0\n 22875: ra = u64 [sp + 0x58]\n 22878: s0 = u64 [sp + 0x50]\n 22881: s1 = u64 [sp + 0x48]\n 22884: sp = sp + 0x60\n 22887: ret\n      : @328 [@dyn 150] (gas: 27)\n 22889: a0 = u64 [sp + 0xb8]\n 22893: u64 [sp + 0x48] = a0\n 22896: s1 = u64 [sp + 0xb0]\n 22900: a0 = u64 [sp + 0xa8]\n 22904: u64 [sp + 0x70] = a0\n 22907: a0 = u64 [sp + 0xa0]\n 22911: u64 [sp + 0x78] = a0\n 22914: a0 = u64 [sp + 0x60]\n 22917: u64 [sp + 0xd8] = a0\n 22921: a0 = u64 [sp + 0x68]\n 22924: u64 [sp + 0xd0] = a0\n 22928: a0 = u64 [sp + 0x58]\n 22931: u64 [sp + 0xc8] = a0\n 22935: a0 = u64 [sp + 0x50]\n 22938: u64 [sp + 0xc0] = a0\n 22942: u64 [sp + 248] = 0\n 22946: u64 [sp + 240] = 0\n 22950: u64 [sp + 232] = 0\n 22954: u64 [sp + 224] = 0\n 22958: u32 [sp + 256] = 0x20\n 22963: i32 a1 = sp + 0xc0\n 22967: i32 a3 = sp + 0xe0\n 22971: i32 a4 = sp + 0x100\n 22975: a2 = 0xffffffffffffffff\n 22978: a0 = 0\n 22980: ecalli 6 // 'get_storage'\n 22982: fallthrough\n      : @329 (gas: 12)\n 22983: a0 = u64 [sp + 0x48]\n 22986: a1 = u64 [sp + 0x70]\n 22989: a0 = a0 | a1\n 22992: a1 = u64 [sp + 0x78]\n 22995: a1 = a1 | s1\n 22998: a1 = a1 | a0\n 23001: a1 = a1 >> 0x20\n 23004: u64 [sp + 0x38] = s1\n 23007: a0 = a0 | s1\n 23010: a0 = a0 << 0x20\n 23013: a0 = a0 | a1\n 23016: jump @341 if a0 != 0\n      : @330 (gas: 11)\n 23020: a0 = u64 [sp + 0xf0]\n 23024: a1 = u64 [sp + 0xe8]\n 23028: u64 [sp + 0x28] = a1\n 23031: a1 = u64 [sp + 0xe0]\n 23035: u64 [sp + 0x30] = a1\n 23038: a0 = a0 << 0x20\n 23041: s1 = a0 >> 0x20\n 23044: a0 = i32 [sp + 0x78]\n 23047: a1 = 0x20\n 23050: u64 [sp + 0x40] = a0\n 23053: ra = 302, jump @0\n      : @331 [@dyn 151] (gas: 83)\n 23059: a1 = reverse s1\n 23061: a2 = u64 [sp + 0x28]\n 23064: a2 = reverse a2\n 23066: a3 = u64 [sp + 0x30]\n 23069: a3 = reverse a3\n 23071: a4 = a3 >> 0x38\n 23074: u8 [a0 + 0x1f] = a4\n 23077: a4 = a3 >> 0x30\n 23080: u8 [a0 + 0x1e] = a4\n 23083: a4 = a3 >> 0x28\n 23086: u8 [a0 + 0x1d] = a4\n 23089: a4 = a3 >> 0x20\n 23092: u8 [a0 + 0x1c] = a4\n 23095: a4 = a3 >> 0x18\n 23098: u8 [a0 + 0x1b] = a4\n 23101: a4 = a3 >> 0x10\n 23104: u8 [a0 + 0x1a] = a4\n 23107: a4 = a3 >> 0x8\n 23110: u8 [a0 + 0x19] = a4\n 23113: u8 [a0 + 0x18] = a3\n 23116: u8 [a0 + 0x10] = a2\n 23119: u8 [a0 + 11] = 0\n 23122: u8 [a0 + 10] = 0\n 23125: u8 [a0 + 9] = 0\n 23128: u8 [a0 + 7] = 0\n 23131: u8 [a0 + 6] = 0\n 23134: u8 [a0 + 5] = 0\n 23137: u8 [a0 + 4] = 0\n 23140: u8 [a0 + 3] = 0\n 23143: u8 [a0 + 2] = 0\n 23146: u8 [a0 + 1] = 0\n 23149: u8 [a0 + 0] = 0\n 23151: a3 = a2 >> 0x38\n 23154: u8 [a0 + 0x17] = a3\n 23157: a3 = a2 >> 0x30\n 23160: u8 [a0 + 0x16] = a3\n 23163: a3 = a2 >> 0x28\n 23166: u8 [a0 + 0x15] = a3\n 23169: a3 = a2 >> 0x20\n 23172: u8 [a0 + 0x14] = a3\n 23175: a3 = a2 >> 0x18\n 23178: u8 [a0 + 0x13] = a3\n 23181: a3 = a2 >> 0x10\n 23184: u8 [a0 + 0x12] = a3\n 23187: a2 = a2 >> 0x8\n 23190: u8 [a0 + 0x11] = a2\n 23193: u8 [a0 + 0x8] = a1\n 23196: a2 = a1 >> 0x38\n 23199: u8 [a0 + 0xf] = a2\n 23202: a2 = a1 >> 0x30\n 23205: u8 [a0 + 0xe] = a2\n 23208: a2 = a1 >> 0x28\n 23211: u8 [a0 + 0xd] = a2\n 23214: a1 = a1 >> 0x20\n 23217: u8 [a0 + 0xc] = a1\n 23220: a0 = u64 [sp + 0x50]\n 23223: a0 = a0 + 0x1\n 23226: a1 = a0 <u 0x1\n 23229: a2 = u64 [sp + 0x58]\n 23232: a1 = a1 + a2\n 23235: a2 = a0 | a1\n 23238: a2 = a2 <u 0x1\n 23241: a3 = u64 [sp + 0x68]\n 23244: a2 = a2 + a3\n 23247: a3 = a2 <u a3\n 23250: a4 = u64 [sp + 0x60]\n 23253: a3 = a3 + a4\n 23256: u64 [sp + 0xd8] = a3\n 23260: u64 [sp + 0xd0] = a2\n 23264: u64 [sp + 0xc8] = a1\n 23268: u64 [sp + 0xc0] = a0\n 23272: u64 [sp + 248] = 0\n 23276: u64 [sp + 240] = 0\n 23280: u64 [sp + 232] = 0\n 23284: u64 [sp + 224] = 0\n 23288: u32 [sp + 256] = 0x20\n 23293: i32 a1 = sp + 0xc0\n 23297: i32 a3 = sp + 0xe0\n 23301: i32 a4 = sp + 0x100\n 23305: a2 = 0xffffffffffffffff\n 23308: a0 = 0\n 23310: ecalli 6 // 'get_storage'\n 23312: fallthrough\n      : @332 (gas: 13)\n 23313: a0 = u64 [sp + 0x48]\n 23316: a2 = u64 [sp + 0x38]\n 23319: a2 = a2 | a0\n 23322: a0 = 0x100000000\n 23332: u64 [sp + 0x28] = a0\n 23335: a0 = 0xffffffe0\n 23345: a1 = u64 [sp + 0x78]\n 23348: a0 = a1 <u a0\n 23351: a1 = u64 [sp + 0x70]\n 23354: a0 = 0 if a1 != 0\n 23356: u64 [sp + 0x30] = a2\n 23359: a0 = 0 if a2 != 0\n 23361: jump @341 if a0 == 0\n      : @333 (gas: 11)\n 23365: s1 = u64 [sp + 0xf8]\n 23369: a0 = u64 [sp + 0xf0]\n 23373: u64 [sp + 0x8] = a0\n 23376: a0 = u64 [sp + 0xe8]\n 23380: u64 [sp + 0x10] = a0\n 23383: a0 = u64 [sp + 0xe0]\n 23387: u64 [sp + 0x18] = a0\n 23390: a0 = u64 [sp + 0x40]\n 23393: i32 a0 = a0 + 0x20\n 23396: a1 = 0x20\n 23399: ra = 304, jump @0\n      : @334 [@dyn 152] (gas: 95)\n 23405: a1 = reverse s1\n 23407: a2 = u64 [sp + 0x8]\n 23410: a2 = reverse a2\n 23412: a3 = u64 [sp + 0x10]\n 23415: a3 = reverse a3\n 23417: a4 = u64 [sp + 0x18]\n 23420: a4 = reverse a4\n 23422: a5 = a4 >> 0x38\n 23425: u8 [a0 + 0x1f] = a5\n 23428: a5 = a4 >> 0x30\n 23431: u8 [a0 + 0x1e] = a5\n 23434: a5 = a4 >> 0x28\n 23437: u8 [a0 + 0x1d] = a5\n 23440: a5 = a4 >> 0x20\n 23443: u8 [a0 + 0x1c] = a5\n 23446: a5 = a4 >> 0x18\n 23449: u8 [a0 + 0x1b] = a5\n 23452: a5 = a4 >> 0x10\n 23455: u8 [a0 + 0x1a] = a5\n 23458: a5 = a4 >> 0x8\n 23461: u8 [a0 + 0x19] = a5\n 23464: u8 [a0 + 0x18] = a4\n 23467: u8 [a0 + 0x10] = a3\n 23470: a4 = a3 >> 0x38\n 23473: u8 [a0 + 0x17] = a4\n 23476: a4 = a3 >> 0x30\n 23479: u8 [a0 + 0x16] = a4\n 23482: a4 = a3 >> 0x28\n 23485: u8 [a0 + 0x15] = a4\n 23488: a4 = a3 >> 0x20\n 23491: u8 [a0 + 0x14] = a4\n 23494: a4 = a3 >> 0x18\n 23497: u8 [a0 + 0x13] = a4\n 23500: a4 = a3 >> 0x10\n 23503: u8 [a0 + 0x12] = a4\n 23506: a3 = a3 >> 0x8\n 23509: u8 [a0 + 0x11] = a3\n 23512: u8 [a0 + 0x8] = a2\n 23515: a3 = a2 >> 0x38\n 23518: u8 [a0 + 0xf] = a3\n 23521: a3 = a2 >> 0x30\n 23524: u8 [a0 + 0xe] = a3\n 23527: a3 = a2 >> 0x28\n 23530: u8 [a0 + 0xd] = a3\n 23533: a3 = a2 >> 0x20\n 23536: u8 [a0 + 0xc] = a3\n 23539: a3 = a2 >> 0x18\n 23542: u8 [a0 + 0xb] = a3\n 23545: a3 = a2 >> 0x10\n 23548: u8 [a0 + 0xa] = a3\n 23551: a2 = a2 >> 0x8\n 23554: u8 [a0 + 0x9] = a2\n 23557: u8 [a0] = a1\n 23559: a2 = a1 >> 0x38\n 23562: u8 [a0 + 0x7] = a2\n 23565: a2 = a1 >> 0x30\n 23568: u8 [a0 + 0x6] = a2\n 23571: a2 = a1 >> 0x28\n 23574: u8 [a0 + 0x5] = a2\n 23577: a2 = a1 >> 0x20\n 23580: u8 [a0 + 0x4] = a2\n 23583: a2 = a1 >> 0x18\n 23586: u8 [a0 + 0x3] = a2\n 23589: a2 = a1 >> 0x10\n 23592: u8 [a0 + 0x2] = a2\n 23595: a1 = a1 >> 0x8\n 23598: u8 [a0 + 0x1] = a1\n 23601: a1 = u64 [sp + 0x50]\n 23604: a0 = a1 + 0x2\n 23607: a1 = a0 <u a1\n 23610: a3 = u64 [sp + 0x58]\n 23613: a2 = a3 + a1\n 23616: a3 = a2 <u a3\n 23619: a3 = a1 if a1 == 0\n 23622: a1 = u64 [sp + 0x68]\n 23625: a3 = a3 + a1\n 23628: a1 = a3 <u a1\n 23631: a4 = u64 [sp + 0x60]\n 23634: a1 = a1 + a4\n 23637: u64 [sp + 0xd8] = a1\n 23641: u64 [sp + 0xd0] = a3\n 23645: u64 [sp + 0xc8] = a2\n 23649: u64 [sp + 0xc0] = a0\n 23653: u64 [sp + 248] = 0\n 23657: u64 [sp + 240] = 0\n 23661: u64 [sp + 232] = 0\n 23665: u64 [sp + 224] = 0\n 23669: u32 [sp + 256] = 0x20\n 23674: i32 a1 = sp + 0xc0\n 23678: i32 a3 = sp + 0xe0\n 23682: i32 a4 = sp + 0x100\n 23686: a2 = 0xffffffffffffffff\n 23689: a0 = 0\n 23691: ecalli 6 // 'get_storage'\n 23693: fallthrough\n      : @335 (gas: 9)\n 23694: a0 = u64 [sp + 0x28]\n 23697: a0 = a0 + 0xffffffffffffffc0\n 23700: a1 = u64 [sp + 0x78]\n 23703: a0 = a1 <u a0\n 23706: a1 = u64 [sp + 0x70]\n 23709: a0 = 0 if a1 != 0\n 23711: a1 = u64 [sp + 0x30]\n 23714: a0 = 0 if a1 != 0\n 23716: jump @341 if a0 == 0\n      : @336 (gas: 11)\n 23720: s1 = u64 [sp + 0xf8]\n 23724: a0 = u64 [sp + 0xf0]\n 23728: u64 [sp + 0x10] = a0\n 23731: a0 = u64 [sp + 0xe8]\n 23735: u64 [sp + 0x18] = a0\n 23738: a0 = u64 [sp + 0xe0]\n 23742: u64 [sp + 0x28] = a0\n 23745: a0 = u64 [sp + 0x40]\n 23748: i32 a0 = a0 + 0x40\n 23751: a1 = 0x20\n 23754: ra = 306, jump @0\n      : @337 [@dyn 153] (gas: 95)\n 23760: a1 = reverse s1\n 23762: a2 = u64 [sp + 0x10]\n 23765: a2 = reverse a2\n 23767: a3 = u64 [sp + 0x18]\n 23770: a3 = reverse a3\n 23772: a4 = u64 [sp + 0x28]\n 23775: a4 = reverse a4\n 23777: a5 = a4 >> 0x38\n 23780: u8 [a0 + 0x1f] = a5\n 23783: a5 = a4 >> 0x30\n 23786: u8 [a0 + 0x1e] = a5\n 23789: a5 = a4 >> 0x28\n 23792: u8 [a0 + 0x1d] = a5\n 23795: a5 = a4 >> 0x20\n 23798: u8 [a0 + 0x1c] = a5\n 23801: a5 = a4 >> 0x18\n 23804: u8 [a0 + 0x1b] = a5\n 23807: a5 = a4 >> 0x10\n 23810: u8 [a0 + 0x1a] = a5\n 23813: a5 = a4 >> 0x8\n 23816: u8 [a0 + 0x19] = a5\n 23819: u8 [a0 + 0x18] = a4\n 23822: u8 [a0 + 0x10] = a3\n 23825: a4 = a3 >> 0x38\n 23828: u8 [a0 + 0x17] = a4\n 23831: a4 = a3 >> 0x30\n 23834: u8 [a0 + 0x16] = a4\n 23837: a4 = a3 >> 0x28\n 23840: u8 [a0 + 0x15] = a4\n 23843: a4 = a3 >> 0x20\n 23846: u8 [a0 + 0x14] = a4\n 23849: a4 = a3 >> 0x18\n 23852: u8 [a0 + 0x13] = a4\n 23855: a4 = a3 >> 0x10\n 23858: u8 [a0 + 0x12] = a4\n 23861: a3 = a3 >> 0x8\n 23864: u8 [a0 + 0x11] = a3\n 23867: u8 [a0 + 0x8] = a2\n 23870: a3 = a2 >> 0x38\n 23873: u8 [a0 + 0xf] = a3\n 23876: a3 = a2 >> 0x30\n 23879: u8 [a0 + 0xe] = a3\n 23882: a3 = a2 >> 0x28\n 23885: u8 [a0 + 0xd] = a3\n 23888: a3 = a2 >> 0x20\n 23891: u8 [a0 + 0xc] = a3\n 23894: a3 = a2 >> 0x18\n 23897: u8 [a0 + 0xb] = a3\n 23900: a3 = a2 >> 0x10\n 23903: u8 [a0 + 0xa] = a3\n 23906: a2 = a2 >> 0x8\n 23909: u8 [a0 + 0x9] = a2\n 23912: u8 [a0] = a1\n 23914: a2 = a1 >> 0x38\n 23917: u8 [a0 + 0x7] = a2\n 23920: a2 = a1 >> 0x30\n 23923: u8 [a0 + 0x6] = a2\n 23926: a2 = a1 >> 0x28\n 23929: u8 [a0 + 0x5] = a2\n 23932: a2 = a1 >> 0x20\n 23935: u8 [a0 + 0x4] = a2\n 23938: a2 = a1 >> 0x18\n 23941: u8 [a0 + 0x3] = a2\n 23944: a2 = a1 >> 0x10\n 23947: u8 [a0 + 0x2] = a2\n 23950: a1 = a1 >> 0x8\n 23953: u8 [a0 + 0x1] = a1\n 23956: a1 = u64 [sp + 0x50]\n 23959: a0 = a1 + 0x3\n 23962: a1 = a0 <u a1\n 23965: a3 = u64 [sp + 0x58]\n 23968: a2 = a3 + a1\n 23971: a3 = a2 <u a3\n 23974: a3 = a1 if a1 == 0\n 23977: a1 = u64 [sp + 0x68]\n 23980: a3 = a3 + a1\n 23983: a1 = a3 <u a1\n 23986: a4 = u64 [sp + 0x60]\n 23989: a1 = a1 + a4\n 23992: u64 [sp + 0xd8] = a1\n 23996: u64 [sp + 0xd0] = a3\n 24000: u64 [sp + 0xc8] = a2\n 24004: u64 [sp + 0xc0] = a0\n 24008: u64 [sp + 248] = 0\n 24012: u64 [sp + 240] = 0\n 24016: u64 [sp + 232] = 0\n 24020: u64 [sp + 224] = 0\n 24024: u32 [sp + 256] = 0x20\n 24029: i32 a1 = sp + 0xc0\n 24033: i32 a3 = sp + 0xe0\n 24037: i32 a4 = sp + 0x100\n 24041: a2 = 0xffffffffffffffff\n 24044: a0 = 0\n 24046: ecalli 6 // 'get_storage'\n 24048: fallthrough\n      : @338 (gas: 8)\n 24049: a0 = 0xffffffa0\n 24059: a1 = u64 [sp + 0x78]\n 24062: a0 = a1 <u a0\n 24065: a1 = u64 [sp + 0x70]\n 24068: a0 = 0 if a1 != 0\n 24070: a1 = u64 [sp + 0x30]\n 24073: a0 = 0 if a1 != 0\n 24075: jump @341 if a0 == 0\n      : @339 (gas: 7)\n 24079: a0 = u64 [sp + 0xe0]\n 24083: a0 = a0 & 0xff\n 24087: s1 = a0 >u 0\n 24089: a0 = u64 [sp + 0x40]\n 24092: i32 a0 = a0 + 0x60\n 24095: a1 = 0x20\n 24098: ra = 308, jump @0\n      : @340 [@dyn 154] (gas: 47)\n 24104: u8 [a0 + 0x1f] = s1\n 24107: u8 [a0 + 30] = 0\n 24110: u8 [a0 + 29] = 0\n 24113: u8 [a0 + 28] = 0\n 24116: u8 [a0 + 27] = 0\n 24119: u8 [a0 + 26] = 0\n 24122: u8 [a0 + 25] = 0\n 24125: u8 [a0 + 24] = 0\n 24128: u8 [a0 + 23] = 0\n 24131: u8 [a0 + 22] = 0\n 24134: u8 [a0 + 21] = 0\n 24137: u8 [a0 + 20] = 0\n 24140: u8 [a0 + 19] = 0\n 24143: u8 [a0 + 18] = 0\n 24146: u8 [a0 + 17] = 0\n 24149: u8 [a0 + 16] = 0\n 24152: u8 [a0 + 15] = 0\n 24155: u8 [a0 + 14] = 0\n 24158: u8 [a0 + 13] = 0\n 24161: u8 [a0 + 12] = 0\n 24164: u8 [a0 + 11] = 0\n 24167: u8 [a0 + 10] = 0\n 24170: u8 [a0 + 9] = 0\n 24173: u8 [a0 + 8] = 0\n 24176: u8 [a0 + 7] = 0\n 24179: u8 [a0 + 6] = 0\n 24182: u8 [a0 + 5] = 0\n 24185: u8 [a0 + 4] = 0\n 24188: u8 [a0 + 3] = 0\n 24191: u8 [a0 + 2] = 0\n 24194: u8 [a0 + 1] = 0\n 24197: u8 [a0 + 0] = 0\n 24199: a0 = u64 [sp + 0x20]\n 24202: a1 = u64 [sp + 0x78]\n 24205: u64 [a0] = a1\n 24207: a1 = u64 [sp + 0x48]\n 24210: u64 [a0 + 0x18] = a1\n 24213: a1 = u64 [sp + 0x70]\n 24216: u64 [a0 + 0x8] = a1\n 24219: a1 = u64 [sp + 0x38]\n 24222: u64 [a0 + 0x10] = a1\n 24225: sp = s0 + 0xfffffffffffffee0\n 24229: ra = u64 [sp + 0x118]\n 24233: s0 = u64 [sp + 0x110]\n 24237: s1 = u64 [sp + 0x108]\n 24241: sp = sp + 0x120\n 24245: ret\n      : @341 (gas: 1)\n 24247: trap\n      : @342 [@dyn 155] (gas: 11)\n 24248: a0 = u64 [sp + 0x138]\n 24252: u64 [sp + 0x38] = a0\n 24255: a0 = u64 [sp + 0x130]\n 24259: u64 [sp + 0x30] = a0\n 24262: a0 = u64 [sp + 0x128]\n 24266: u64 [sp + 0x28] = a0\n 24269: a0 = u64 [sp + 0x120]\n 24273: u64 [sp + 0x20] = a0\n 24276: a1 = 0x20\n 24279: a0 = 0\n 24281: ra = 312, jump @0\n      : @343 [@dyn 156] (gas: 70)\n 24287: a1 = u64 [sp + 0x88]\n 24291: a1 = reverse a1\n 24293: a2 = u64 [sp + 0x90]\n 24297: a2 = reverse a2\n 24299: a3 = u64 [sp + 0x98]\n 24303: a3 = reverse a3\n 24305: a4 = reverse s1\n 24307: a5 = a4 >> 0x38\n 24310: u8 [a0 + 0x1f] = a5\n 24313: a5 = a4 >> 0x30\n 24316: u8 [a0 + 0x1e] = a5\n 24319: a5 = a4 >> 0x28\n 24322: u8 [a0 + 0x1d] = a5\n 24325: a5 = a4 >> 0x20\n 24328: u8 [a0 + 0x1c] = a5\n 24331: a5 = a4 >> 0x18\n 24334: u8 [a0 + 0x1b] = a5\n 24337: a5 = a4 >> 0x10\n 24340: u8 [a0 + 0x1a] = a5\n 24343: a5 = a4 >> 0x8\n 24346: u8 [a0 + 0x19] = a5\n 24349: u8 [a0 + 0x18] = a4\n 24352: a4 = a3 >> 0x38\n 24355: u8 [a0 + 0x17] = a4\n 24358: a4 = a3 >> 0x30\n 24361: u8 [a0 + 0x16] = a4\n 24364: a4 = a3 >> 0x28\n 24367: u8 [a0 + 0x15] = a4\n 24370: a4 = a3 >> 0x20\n 24373: u8 [a0 + 0x14] = a4\n 24376: a4 = a3 >> 0x18\n 24379: u8 [a0 + 0x13] = a4\n 24382: a4 = a3 >> 0x10\n 24385: u8 [a0 + 0x12] = a4\n 24388: a4 = a3 >> 0x8\n 24391: u8 [a0 + 0x11] = a4\n 24394: u8 [a0 + 0x10] = a3\n 24397: a3 = a2 >> 0x38\n 24400: u8 [a0 + 0xf] = a3\n 24403: a3 = a2 >> 0x30\n 24406: u8 [a0 + 0xe] = a3\n 24409: a3 = a2 >> 0x28\n 24412: u8 [a0 + 0xd] = a3\n 24415: a3 = a2 >> 0x20\n 24418: u8 [a0 + 0xc] = a3\n 24421: a3 = a2 >> 0x18\n 24424: u8 [a0 + 0xb] = a3\n 24427: a3 = a2 >> 0x10\n 24430: u8 [a0 + 0xa] = a3\n 24433: a3 = a2 >> 0x8\n 24436: u8 [a0 + 0x9] = a3\n 24439: u8 [a0 + 0x8] = a2\n 24442: a2 = a1 >> 0x38\n 24445: u8 [a0 + 0x7] = a2\n 24448: a2 = a1 >> 0x30\n 24451: u8 [a0 + 0x6] = a2\n 24454: a2 = a1 >> 0x28\n 24457: u8 [a0 + 0x5] = a2\n 24460: a2 = a1 >> 0x20\n 24463: u8 [a0 + 0x4] = a2\n 24466: a2 = a1 >> 0x18\n 24469: u8 [a0 + 0x3] = a2\n 24472: a2 = a1 >> 0x10\n 24475: u8 [a0 + 0x2] = a2\n 24478: a2 = a1 >> 0x8\n 24481: u8 [a0 + 0x1] = a2\n 24484: u8 [a0] = a1\n 24486: a1 = 0x20\n 24489: a0 = 0\n 24491: ra = 314, jump @0\n      : @344 [@dyn 157] (gas: 5)\n 24497: i32 a0 = a0 + 0\n 24499: i32 a2 = sp + 0x180\n 24503: a1 = 0x20\n 24506: ecalli 7 // 'hash_keccak_256'\n 24508: fallthrough\n      : @345 (gas: 8)\n 24509: a0 = u64 [sp + 0xb8]\n 24513: a2 = u64 [sp + 0xb0]\n 24517: a0 = a0 | a2\n 24520: a1 = u64 [sp + 0xa0]\n 24524: a2 = u64 [sp + 0xa8]\n 24528: a1 = a1 | a2\n 24531: a0 = a0 | a1\n 24534: jump @351 if a0 == 0\n      : @346 (gas: 143)\n 24538: a1 = u64 [sp + 0x20]\n 24541: a2 = a1 + 0x20\n 24544: a0 = a2 <u a1\n 24547: t0 = a1\n 24549: a1 = u64 [sp + 0x28]\n 24552: a5 = a1 + a0\n 24555: t2 = a5 <u a1\n 24558: s1 = a1\n 24560: t2 = a0 if a0 == 0\n 24563: ra = u64 [sp + 0x30]\n 24566: t2 = t2 + ra\n 24569: t1 = t2 <u ra\n 24572: a0 = u64 [sp + 0x38]\n 24575: t1 = t1 + a0\n 24578: a0 = t2 >u 0\n 24580: a1 = t1 >u 0\n 24582: a1 = a0 if t1 == 0\n 24585: a0 = 0x100000000\n 24595: u64 [sp + 0x90] = a2\n 24599: a4 = a2\n 24601: a4 = a0 if a1 == 0\n 24604: a3 = a2\n 24606: u64 [sp + 0x88] = a5\n 24610: a3 = a0 if a5 == 0\n 24613: a0 = maxu(a2, a0)\n 24616: a0 = a3 if a5 != 0\n 24619: a3 = t2 | t1\n 24622: a0 = a4 if a3 != 0\n 24625: a2 = a5\n 24627: a2 = 0 if a1 == 0\n 24629: a2 = a5 if a3 == 0\n 24632: a3 = s1 ^ 0xffffffffffffffff\n 24635: a1 = a3 + a2\n 24638: a2 = t0 ^ 0xffffffffffffffff\n 24641: a0 = a0 + a2\n 24644: a2 = a0 <u a2\n 24647: a1 = a1 + a2\n 24650: a4 = a1 ^ a3\n 24653: t0 = a1 <u a3\n 24656: t0 = a2 if a4 == 0\n 24659: u64 [sp + 0x80] = t2\n 24663: a3 = t2\n 24665: u64 [sp + 0x98] = t1\n 24669: a3 = 0 if t1 == 0\n 24671: a3 = t2 if t1 == 0\n 24674: ra = ra ^ 0xffffffffffffffff\n 24677: t1 = ra + a3\n 24680: t0 = t0 + t1\n 24683: a2 = t0 << 0x3b\n 24686: s1 = a1 >> 0x5\n 24689: a2 = a2 | s1\n 24692: u64 [sp + 0x70] = a2\n 24695: a1 = a1 << 0x3b\n 24698: a0 = a0 >> 0x5\n 24701: s1 = a0 | a1\n 24704: u64 [sp + 0x78] = s1\n 24707: a4 = u64 [sp + 0xa8]\n 24711: a0 = a4 <u 0x1\n 24714: a3 = u64 [sp + 0xb0]\n 24718: a5 = a3 - a0\n 24721: t2 = a4 + 0xffffffffffffffff\n 24724: a0 = a5 ^ a2\n 24727: a1 = a5 <u a2\n 24730: a2 = t2 <u s1\n 24733: a2 = a1 if a0 != 0\n 24736: a0 = a4 | a3\n 24739: a0 = a0 <u 0x1\n 24742: a4 = u64 [sp + 0xa0]\n 24746: a1 = a4 <u a0\n 24749: a3 = u64 [sp + 0xb8]\n 24753: a1 = a3 - a1\n 24756: a0 = a4 - a0\n 24759: a3 = t1 <u ra\n 24762: a4 = u64 [sp + 0x38]\n 24765: ra = a4 ^ 0xffffffffffffffff\n 24768: a4 = u64 [sp + 0x98]\n 24772: ra = ra + a4\n 24775: a3 = a3 + ra\n 24778: s1 = t0 <u t1\n 24781: s1 = s1 + a3\n 24784: t0 = t0 >> 0x5\n 24787: a3 = s1 << 0x3b\n 24790: ra = t0 | a3\n 24793: s1 = s1 >> 0x5\n 24796: t0 = a0 <u ra\n 24799: t1 = a1 ^ s1\n 24802: a3 = a1 <u s1\n 24805: a3 = t0 if t1 == 0\n 24808: a4 = a0 ^ ra\n 24811: a4 = a4 | t1\n 24814: a3 = a2 if a4 == 0\n 24817: a1 = s1 if a3 == 0\n 24820: a0 = ra if a3 == 0\n 24823: a2 = u64 [sp + 0x70]\n 24826: a5 = a2 if a3 == 0\n 24829: a2 = u64 [sp + 0x190]\n 24833: a4 = u64 [sp + 0x78]\n 24836: t2 = a4 if a3 == 0\n 24839: a3 = t2 >> 0x3b\n 24842: a4 = a5 << 0x5\n 24845: t0 = a4 | a3\n 24848: a5 = a5 >> 0x3b\n 24851: a4 = a0 << 0x5\n 24854: a3 = a4 | a5\n 24857: a5 = u64 [sp + 0x180]\n 24861: a0 = a0 >> 0x3b\n 24864: a1 = a1 << 0x5\n 24867: a0 = a0 | a1\n 24870: a1 = u64 [sp + 0x188]\n 24874: a4 = u64 [sp + 0x98]\n 24878: a0 = a0 + a4\n 24881: s1 = u64 [sp + 0x198]\n 24885: a5 = reverse a5\n 24887: t1 = reverse a1\n 24889: ra = reverse a2\n 24891: a4 = reverse s1\n 24893: t2 = t2 << 0x5\n 24896: a1 = u64 [sp + 0x80]\n 24900: s1 = a1 + a3\n 24903: a1 = s1 <u a1\n 24906: a0 = a0 + a1\n 24909: a2 = u64 [sp + 0x88]\n 24913: a3 = a2 + t0\n 24916: a1 = u64 [sp + 0x90]\n 24920: t2 = t2 + a1\n 24923: u64 [sp + 0x58] = t2\n 24926: a1 = t2 <u a1\n 24929: a3 = a3 + a1\n 24932: t0 = a3 ^ a2\n 24935: u64 [sp + 0x50] = a3\n 24938: a3 = a3 <u a2\n 24941: a3 = a1 if t0 == 0\n 24944: a3 = a3 + s1\n 24947: u64 [sp + 0x48] = a3\n 24950: a1 = a3 <u s1\n 24953: a0 = a0 + a1\n 24956: u64 [sp + 0x40] = a0\n 24959: t0 = u64 [sp + 0x20]\n 24962: a1 = u64 [sp + 0x28]\n 24965: a2 = u64 [sp + 0x30]\n 24968: a0 = u64 [sp + 0x38]\n 24971: u64 [sp + 0xb8] = a0\n 24975: fallthrough\n      : @347 (gas: 47)\n 24976: a0 = a2\n 24978: a3 = t0 + 0x20\n 24981: u64 [sp + 0xa0] = a3\n 24985: a2 = a3 <u t0\n 24988: a3 = a1 + a2\n 24991: u64 [sp + 0xb0] = a3\n 24995: s1 = a3 <u a1\n 24998: s1 = a2 if a2 == 0\n 25001: s1 = s1 + a0\n 25004: u64 [sp + 0xa8] = s1\n 25008: a0 = s1 <u a0\n 25011: s1 = u64 [sp + 0xb8]\n 25015: s1 = s1 + a0\n 25018: u64 [sp + 0x80] = a4\n 25022: u64 [sp + 0xc0] = a4\n 25026: u64 [sp + 0x88] = ra\n 25030: u64 [sp + 0xc8] = ra\n 25034: u64 [sp + 0x90] = t1\n 25038: u64 [sp + 0xd0] = t1\n 25042: a0 = sp + 0xe0\n 25046: a1 = sp + 0xc0\n 25050: u64 [sp + 0x98] = a5\n 25054: u64 [sp + 0xd8] = a5\n 25058: ra = 0x13c\n 25062: sp = sp + 0xfffffffffffffee0\n 25066: u64 [sp + 0x118] = ra\n 25070: u64 [sp + 0x110] = s0\n 25074: u64 [sp + 0x108] = s1\n 25078: s0 = sp + 0x120\n 25082: sp = sp & 0xffffffffffffffe0\n 25085: a2 = u64 [a1]\n 25087: u64 [sp + 0x50] = a2\n 25090: a2 = u64 [a1 + 0x8]\n 25093: u64 [sp + 0x58] = a2\n 25096: a2 = u64 [a1 + 0x10]\n 25099: u64 [sp + 0x68] = a2\n 25102: a1 = u64 [a1 + 0x18]\n 25105: u64 [sp + 0x60] = a1\n 25108: u64 [sp + 0x20] = a0\n 25111: u64 [sp + 152] = 0\n 25115: u64 [sp + 144] = 0\n 25119: u64 [sp + 128] = 0x80\n 25125: a0 = sp + 0xa0\n 25129: a1 = sp + 0x80\n 25133: u64 [sp + 136] = 0\n 25137: ra = 0x12c\n 25141: jump @46\n      : @348 [@dyn 158] (gas: 12)\n 25144: a2 = u64 [sp + 0xa0]\n 25148: a3 = u64 [sp + 0xa8]\n 25152: a0 = a2 | a3\n 25155: u64 [sp + 0xb8] = s1\n 25159: a1 = u64 [sp + 0xb0]\n 25163: a1 = a1 | s1\n 25166: a0 = a0 | a1\n 25169: a0 = a0 >> 0x20\n 25172: a1 = a1 | a3\n 25175: a1 = a1 << 0x20\n 25178: a0 = a0 | a1\n 25181: jump @352 if a0 != 0\n      : @349 (gas: 12)\n 25185: a0 = u64 [sp + 0xf8]\n 25189: u64 [sp + 0x70] = a0\n 25192: a0 = u64 [sp + 0xf0]\n 25196: u64 [sp + 0x78] = a0\n 25199: a0 = u64 [sp + 0xe8]\n 25203: u64 [sp + 0x68] = a0\n 25206: a0 = u64 [sp + 0xe0]\n 25210: u64 [sp + 0x60] = a0\n 25213: i32 a0 = a2 + 0\n 25215: a1 = 0x20\n 25218: s1 = a2\n 25220: ra = 318, jump @0\n      : @350 [@dyn 159] (gas: 99)\n 25226: t0 = s1\n 25228: a1 = u64 [sp + 0x60]\n 25231: a1 = reverse a1\n 25233: a2 = a1 >> 0x38\n 25236: u8 [a0 + 0x1f] = a2\n 25239: a2 = a1 >> 0x30\n 25242: u8 [a0 + 0x1e] = a2\n 25245: a2 = a1 >> 0x28\n 25248: u8 [a0 + 0x1d] = a2\n 25251: a2 = a1 >> 0x20\n 25254: u8 [a0 + 0x1c] = a2\n 25257: a2 = a1 >> 0x18\n 25260: u8 [a0 + 0x1b] = a2\n 25263: a2 = a1 >> 0x10\n 25266: u8 [a0 + 0x1a] = a2\n 25269: a2 = a1 >> 0x8\n 25272: u8 [a0 + 0x19] = a2\n 25275: a2 = u64 [sp + 0x68]\n 25278: a2 = reverse a2\n 25280: u8 [a0 + 0x18] = a1\n 25283: a1 = a2 >> 0x38\n 25286: u8 [a0 + 0x17] = a1\n 25289: a1 = a2 >> 0x30\n 25292: u8 [a0 + 0x16] = a1\n 25295: a1 = a2 >> 0x28\n 25298: u8 [a0 + 0x15] = a1\n 25301: a1 = a2 >> 0x20\n 25304: u8 [a0 + 0x14] = a1\n 25307: a1 = a2 >> 0x18\n 25310: u8 [a0 + 0x13] = a1\n 25313: a1 = a2 >> 0x10\n 25316: u8 [a0 + 0x12] = a1\n 25319: a1 = u64 [sp + 0x70]\n 25322: a1 = reverse a1\n 25324: a3 = u64 [sp + 0x78]\n 25327: a3 = reverse a3\n 25329: u8 [a0 + 0x10] = a2\n 25332: a2 = a2 >> 0x8\n 25335: u8 [a0 + 0x11] = a2\n 25338: u8 [a0 + 0x8] = a3\n 25341: a2 = a3 >> 0x38\n 25344: u8 [a0 + 0xf] = a2\n 25347: a2 = a3 >> 0x30\n 25350: u8 [a0 + 0xe] = a2\n 25353: a2 = a3 >> 0x28\n 25356: u8 [a0 + 0xd] = a2\n 25359: a2 = a3 >> 0x20\n 25362: u8 [a0 + 0xc] = a2\n 25365: a2 = a3 >> 0x18\n 25368: u8 [a0 + 0xb] = a2\n 25371: a2 = a3 >> 0x10\n 25374: u8 [a0 + 0xa] = a2\n 25377: a3 = a3 >> 0x8\n 25380: u8 [a0 + 0x9] = a3\n 25383: u8 [a0] = a1\n 25385: a2 = a1 >> 0x38\n 25388: u8 [a0 + 0x7] = a2\n 25391: a2 = a1 >> 0x30\n 25394: u8 [a0 + 0x6] = a2\n 25397: a2 = a1 >> 0x28\n 25400: u8 [a0 + 0x5] = a2\n 25403: a2 = a1 >> 0x20\n 25406: u8 [a0 + 0x4] = a2\n 25409: a2 = a1 >> 0x18\n 25412: u8 [a0 + 0x3] = a2\n 25415: a2 = a1 >> 0x10\n 25418: u8 [a0 + 0x2] = a2\n 25421: a1 = a1 >> 0x8\n 25424: u8 [a0 + 0x1] = a1\n 25427: a1 = u64 [sp + 0x80]\n 25431: t1 = a1 + 0x4\n 25434: a1 = t1 <u a1\n 25437: a3 = u64 [sp + 0x88]\n 25441: a0 = a3 + a1\n 25444: a3 = a0 <u a3\n 25447: a3 = a1 if a1 == 0\n 25450: a1 = u64 [sp + 0x58]\n 25453: a1 = a1 ^ s1\n 25456: a4 = u64 [sp + 0x48]\n 25459: a2 = u64 [sp + 0xa8]\n 25463: a4 = a4 ^ a2\n 25466: t2 = a1 | a4\n 25469: a4 = u64 [sp + 0x50]\n 25472: a1 = u64 [sp + 0xb0]\n 25476: a4 = a4 ^ a1\n 25479: a5 = u64 [sp + 0x40]\n 25482: s1 = u64 [sp + 0xb8]\n 25486: a5 = a5 ^ s1\n 25489: a4 = a4 | a5\n 25492: s1 = t2 | a4\n 25495: a4 = u64 [sp + 0x90]\n 25499: a3 = a3 + a4\n 25502: a4 = a3 <u a4\n 25505: a5 = u64 [sp + 0x98]\n 25509: a5 = a5 + a4\n 25512: a4 = t1\n 25514: ra = a0\n 25516: t1 = a3\n 25518: jump @347 if s1 != 0\n      : @351 (gas: 15)\n 25522: a0 = u64 [sp + 0x18]\n 25525: a1 = u64 [sp + 0x20]\n 25528: u64 [a0] = a1\n 25530: a1 = u64 [sp + 0x28]\n 25533: u64 [a0 + 0x8] = a1\n 25536: a1 = u64 [sp + 0x30]\n 25539: u64 [a0 + 0x10] = a1\n 25542: a1 = u64 [sp + 0x38]\n 25545: u64 [a0 + 0x18] = a1\n 25548: sp = s0 + 0xfffffffffffffe40\n 25552: ra = u64 [sp + 0x1b8]\n 25556: s0 = u64 [sp + 0x1b0]\n 25560: s1 = u64 [sp + 0x1a8]\n 25564: sp = sp + 0x1c0\n 25568: ret\n      : @352 (gas: 1)\n 25570: trap\n      : @353 (gas: 17)\n 25571: sp = sp + 0xffffffffffffffa0\n 25574: u64 [sp + 0x58] = ra\n 25577: u64 [sp + 0x50] = s0\n 25580: u64 [sp + 0x48] = s1\n 25583: a3 = u64 [a1 + 0x18]\n 25586: a4 = u64 [a1 + 0x10]\n 25589: a5 = u64 [a1 + 0x8]\n 25592: s1 = u64 [a1]\n 25594: a1 = a5 | a3\n 25597: a2 = s1 | a4\n 25600: a2 = a2 | a1\n 25603: a2 = a2 >> 0x20\n 25606: a1 = a1 | a4\n 25609: a1 = a1 << 0x20\n 25612: a1 = a1 | a2\n 25615: u64 [sp + 0x28] = a0\n 25618: jump @360 if a1 != 0\n      : @354 (gas: 19)\n 25622: a0 = s1 + 0x20\n 25625: u64 [sp + 0x30] = a0\n 25628: a0 = a0 <u s1\n 25631: a1 = a5 + a0\n 25634: u64 [sp + 0x40] = a1\n 25637: u64 [sp + 0x8] = a5\n 25640: s0 = a1 <u a5\n 25643: s0 = a0 if a0 == 0\n 25646: s0 = s0 + a4\n 25649: u64 [sp + 0x10] = a4\n 25652: a0 = s0 <u a4\n 25655: u64 [sp + 0x18] = a3\n 25658: a0 = a0 + a3\n 25661: u64 [sp + 0x38] = a0\n 25664: u64 [sp] = s1\n 25666: i32 a0 = s1 + 0\n 25668: a1 = 0x20\n 25671: s1 = 0x20\n 25674: ra = 320, jump @0\n      : @355 [@dyn 160] (gas: 45)\n 25680: u8 [a0 + 0x1f] = s1\n 25683: a1 = u64 [sp + 0x30]\n 25686: s1 = a1\n 25688: a1 = a1 | s0\n 25691: a2 = u64 [sp + 0x40]\n 25694: a4 = u64 [sp + 0x38]\n 25697: a2 = a2 | a4\n 25700: a1 = a1 | a2\n 25703: a1 = a1 >> 0x20\n 25706: u64 [sp + 0x20] = s0\n 25709: a2 = a2 | s0\n 25712: a2 = a2 << 0x20\n 25715: a1 = a1 | a2\n 25718: u8 [a0 + 30] = 0\n 25721: u8 [a0 + 29] = 0\n 25724: u8 [a0 + 28] = 0\n 25727: u8 [a0 + 27] = 0\n 25730: u8 [a0 + 26] = 0\n 25733: u8 [a0 + 25] = 0\n 25736: u8 [a0 + 24] = 0\n 25739: u8 [a0 + 23] = 0\n 25742: u8 [a0 + 22] = 0\n 25745: u8 [a0 + 21] = 0\n 25748: u8 [a0 + 20] = 0\n 25751: u8 [a0 + 19] = 0\n 25754: u8 [a0 + 18] = 0\n 25757: u8 [a0 + 17] = 0\n 25760: u8 [a0 + 16] = 0\n 25763: u8 [a0 + 15] = 0\n 25766: u8 [a0 + 14] = 0\n 25769: u8 [a0 + 13] = 0\n 25772: u8 [a0 + 12] = 0\n 25775: u8 [a0 + 11] = 0\n 25778: u8 [a0 + 10] = 0\n 25781: u8 [a0 + 9] = 0\n 25784: u8 [a0 + 8] = 0\n 25787: u8 [a0 + 7] = 0\n 25790: u8 [a0 + 6] = 0\n 25793: u8 [a0 + 5] = 0\n 25796: u8 [a0 + 4] = 0\n 25799: u8 [a0 + 3] = 0\n 25802: u8 [a0 + 2] = 0\n 25805: u8 [a0 + 1] = 0\n 25808: u8 [a0 + 0] = 0\n 25810: jump @360 if a1 != 0\n      : @356 (gas: 4)\n 25814: i32 s0 = s1 + 0\n 25816: a1 = 0x20\n 25819: a0 = s0\n 25821: ra = 322, jump @0\n      : @357 [@dyn 161] (gas: 41)\n 25827: u8 [a0 + 31] = 0xa\n 25831: u8 [a0 + 30] = 0\n 25834: u8 [a0 + 29] = 0\n 25837: u8 [a0 + 28] = 0\n 25840: u8 [a0 + 27] = 0\n 25843: u8 [a0 + 26] = 0\n 25846: u8 [a0 + 25] = 0\n 25849: u8 [a0 + 24] = 0\n 25852: u8 [a0 + 23] = 0\n 25855: u8 [a0 + 22] = 0\n 25858: u8 [a0 + 21] = 0\n 25861: u8 [a0 + 20] = 0\n 25864: u8 [a0 + 19] = 0\n 25867: u8 [a0 + 18] = 0\n 25870: u8 [a0 + 17] = 0\n 25873: u8 [a0 + 16] = 0\n 25876: u8 [a0 + 15] = 0\n 25879: u8 [a0 + 14] = 0\n 25882: u8 [a0 + 13] = 0\n 25885: u8 [a0 + 12] = 0\n 25888: u8 [a0 + 11] = 0\n 25891: u8 [a0 + 10] = 0\n 25894: u8 [a0 + 9] = 0\n 25897: u8 [a0 + 8] = 0\n 25900: u8 [a0 + 7] = 0\n 25903: u8 [a0 + 6] = 0\n 25906: u8 [a0 + 5] = 0\n 25909: u8 [a0 + 4] = 0\n 25912: u8 [a0 + 3] = 0\n 25915: u8 [a0 + 2] = 0\n 25918: u8 [a0 + 1] = 0\n 25921: a1 = u64 [sp + 0x20]\n 25924: a2 = u64 [sp + 0x38]\n 25927: a1 = a1 | a2\n 25930: a2 = 0xffffffe0\n 25940: a2 = s1 <u a2\n 25943: a3 = u64 [sp + 0x40]\n 25946: a2 = 0 if a3 != 0\n 25948: a2 = 0 if a1 != 0\n 25950: u8 [a0 + 0] = 0\n 25952: jump @360 if a2 == 0\n      : @358 (gas: 3)\n 25956: i32 a0 = s0 + 0x20\n 25959: a1 = 0x20\n 25962: ra = 324, jump @0\n      : @359 [@dyn 162] (gas: 54)\n 25968: u8 [a0 + 31] = 0\n 25971: u8 [a0 + 30] = 0\n 25974: u8 [a0 + 29] = 0\n 25977: u8 [a0 + 28] = 0\n 25980: u8 [a0 + 27] = 0\n 25983: u8 [a0 + 26] = 0\n 25986: u8 [a0 + 25] = 0\n 25989: u8 [a0 + 24] = 0\n 25992: u8 [a0 + 23] = 0\n 25995: u8 [a0 + 22] = 0\n 25998: u8 [a0 + 21] = 0\n 26001: u8 [a0 + 20] = 0\n 26004: u8 [a0 + 19] = 0\n 26007: u8 [a0 + 18] = 0\n 26010: u8 [a0 + 17] = 0\n 26013: u8 [a0 + 16] = 0\n 26016: u8 [a0 + 15] = 0\n 26019: u8 [a0 + 14] = 0\n 26022: u8 [a0 + 13] = 0\n 26025: u8 [a0 + 12] = 0\n 26028: u8 [a0 + 11] = 0\n 26031: u8 [a0 + 10] = 0\n 26034: u8 [a0 + 9] = 0x44\n 26038: u8 [a0 + 8] = 0x49\n 26042: u8 [a0 + 7] = 0x20\n 26046: u8 [a0 + 6] = 0x64\n 26050: u8 [a0 + 5] = 0x69\n 26054: u8 [a0 + 4] = 0x6c\n 26058: u8 [a0 + 3] = 0x61\n 26062: u8 [a0 + 2] = 0x76\n 26066: u8 [a0 + 1] = 0x6e\n 26070: u8 [a0 + 0] = 0x49\n 26073: a1 = u64 [sp]\n 26075: a0 = a1 + 0x60\n 26078: a1 = a0 <u a1\n 26081: a3 = u64 [sp + 0x8]\n 26084: a2 = a3 + a1\n 26087: a3 = a2 <u a3\n 26090: a3 = a1 if a1 == 0\n 26093: a1 = u64 [sp + 0x10]\n 26096: a3 = a3 + a1\n 26099: a1 = a3 <u a1\n 26102: a4 = u64 [sp + 0x18]\n 26105: a1 = a1 + a4\n 26108: a4 = u64 [sp + 0x28]\n 26111: u64 [a4] = a0\n 26113: u64 [a4 + 0x8] = a2\n 26116: u64 [a4 + 0x10] = a3\n 26119: u64 [a4 + 0x18] = a1\n 26122: ra = u64 [sp + 0x58]\n 26125: s0 = u64 [sp + 0x50]\n 26128: s1 = u64 [sp + 0x48]\n 26131: sp = sp + 0x60\n 26134: ret\n      : @360 (gas: 1)\n 26136: trap\n      : @361 (gas: 17)\n 26137: sp = sp + 0xffffffffffffffa0\n 26140: u64 [sp + 0x58] = ra\n 26143: u64 [sp + 0x50] = s0\n 26146: u64 [sp + 0x48] = s1\n 26149: a3 = u64 [a1 + 0x18]\n 26152: a4 = u64 [a1 + 0x10]\n 26155: a5 = u64 [a1 + 0x8]\n 26158: s1 = u64 [a1]\n 26160: a1 = a5 | a3\n 26163: a2 = s1 | a4\n 26166: a2 = a2 | a1\n 26169: a2 = a2 >> 0x20\n 26172: a1 = a1 | a4\n 26175: a1 = a1 << 0x20\n 26178: a1 = a1 | a2\n 26181: u64 [sp + 0x28] = a0\n 26184: jump @368 if a1 != 0\n      : @362 (gas: 19)\n 26188: a0 = s1 + 0x20\n 26191: u64 [sp + 0x30] = a0\n 26194: a0 = a0 <u s1\n 26197: a1 = a5 + a0\n 26200: u64 [sp + 0x40] = a1\n 26203: u64 [sp + 0x8] = a5\n 26206: s0 = a1 <u a5\n 26209: s0 = a0 if a0 == 0\n 26212: s0 = s0 + a4\n 26215: u64 [sp + 0x10] = a4\n 26218: a0 = s0 <u a4\n 26221: u64 [sp + 0x18] = a3\n 26224: a0 = a0 + a3\n 26227: u64 [sp + 0x38] = a0\n 26230: u64 [sp] = s1\n 26232: i32 a0 = s1 + 0\n 26234: a1 = 0x20\n 26237: s1 = 0x20\n 26240: ra = 326, jump @0\n      : @363 [@dyn 163] (gas: 45)\n 26246: u8 [a0 + 0x1f] = s1\n 26249: a1 = u64 [sp + 0x30]\n 26252: s1 = a1\n 26254: a1 = a1 | s0\n 26257: a2 = u64 [sp + 0x40]\n 26260: a4 = u64 [sp + 0x38]\n 26263: a2 = a2 | a4\n 26266: a1 = a1 | a2\n 26269: a1 = a1 >> 0x20\n 26272: u64 [sp + 0x20] = s0\n 26275: a2 = a2 | s0\n 26278: a2 = a2 << 0x20\n 26281: a1 = a1 | a2\n 26284: u8 [a0 + 30] = 0\n 26287: u8 [a0 + 29] = 0\n 26290: u8 [a0 + 28] = 0\n 26293: u8 [a0 + 27] = 0\n 26296: u8 [a0 + 26] = 0\n 26299: u8 [a0 + 25] = 0\n 26302: u8 [a0 + 24] = 0\n 26305: u8 [a0 + 23] = 0\n 26308: u8 [a0 + 22] = 0\n 26311: u8 [a0 + 21] = 0\n 26314: u8 [a0 + 20] = 0\n 26317: u8 [a0 + 19] = 0\n 26320: u8 [a0 + 18] = 0\n 26323: u8 [a0 + 17] = 0\n 26326: u8 [a0 + 16] = 0\n 26329: u8 [a0 + 15] = 0\n 26332: u8 [a0 + 14] = 0\n 26335: u8 [a0 + 13] = 0\n 26338: u8 [a0 + 12] = 0\n 26341: u8 [a0 + 11] = 0\n 26344: u8 [a0 + 10] = 0\n 26347: u8 [a0 + 9] = 0\n 26350: u8 [a0 + 8] = 0\n 26353: u8 [a0 + 7] = 0\n 26356: u8 [a0 + 6] = 0\n 26359: u8 [a0 + 5] = 0\n 26362: u8 [a0 + 4] = 0\n 26365: u8 [a0 + 3] = 0\n 26368: u8 [a0 + 2] = 0\n 26371: u8 [a0 + 1] = 0\n 26374: u8 [a0 + 0] = 0\n 26376: jump @368 if a1 != 0\n      : @364 (gas: 4)\n 26380: i32 s0 = s1 + 0\n 26382: a1 = 0x20\n 26385: a0 = s0\n 26387: ra = 328, jump @0\n      : @365 [@dyn 164] (gas: 41)\n 26393: u8 [a0 + 31] = 0x8\n 26397: u8 [a0 + 30] = 0\n 26400: u8 [a0 + 29] = 0\n 26403: u8 [a0 + 28] = 0\n 26406: u8 [a0 + 27] = 0\n 26409: u8 [a0 + 26] = 0\n 26412: u8 [a0 + 25] = 0\n 26415: u8 [a0 + 24] = 0\n 26418: u8 [a0 + 23] = 0\n 26421: u8 [a0 + 22] = 0\n 26424: u8 [a0 + 21] = 0\n 26427: u8 [a0 + 20] = 0\n 26430: u8 [a0 + 19] = 0\n 26433: u8 [a0 + 18] = 0\n 26436: u8 [a0 + 17] = 0\n 26439: u8 [a0 + 16] = 0\n 26442: u8 [a0 + 15] = 0\n 26445: u8 [a0 + 14] = 0\n 26448: u8 [a0 + 13] = 0\n 26451: u8 [a0 + 12] = 0\n 26454: u8 [a0 + 11] = 0\n 26457: u8 [a0 + 10] = 0\n 26460: u8 [a0 + 9] = 0\n 26463: u8 [a0 + 8] = 0\n 26466: u8 [a0 + 7] = 0\n 26469: u8 [a0 + 6] = 0\n 26472: u8 [a0 + 5] = 0\n 26475: u8 [a0 + 4] = 0\n 26478: u8 [a0 + 3] = 0\n 26481: u8 [a0 + 2] = 0\n 26484: u8 [a0 + 1] = 0\n 26487: a1 = u64 [sp + 0x20]\n 26490: a2 = u64 [sp + 0x38]\n 26493: a1 = a1 | a2\n 26496: a2 = 0xffffffe0\n 26506: a2 = s1 <u a2\n 26509: a3 = u64 [sp + 0x40]\n 26512: a2 = 0 if a3 != 0\n 26514: a2 = 0 if a1 != 0\n 26516: u8 [a0 + 0] = 0\n 26518: jump @368 if a2 == 0\n      : @366 (gas: 3)\n 26522: i32 a0 = s0 + 0x20\n 26525: a1 = 0x20\n 26528: ra = 330, jump @0\n      : @367 [@dyn 165] (gas: 54)\n 26534: u8 [a0 + 31] = 0\n 26537: u8 [a0 + 30] = 0\n 26540: u8 [a0 + 29] = 0\n 26543: u8 [a0 + 28] = 0\n 26546: u8 [a0 + 27] = 0\n 26549: u8 [a0 + 26] = 0\n 26552: u8 [a0 + 25] = 0\n 26555: u8 [a0 + 24] = 0\n 26558: u8 [a0 + 23] = 0\n 26561: u8 [a0 + 22] = 0\n 26564: u8 [a0 + 21] = 0\n 26567: u8 [a0 + 20] = 0\n 26570: u8 [a0 + 19] = 0\n 26573: u8 [a0 + 18] = 0\n 26576: u8 [a0 + 17] = 0\n 26579: u8 [a0 + 16] = 0\n 26582: u8 [a0 + 15] = 0\n 26585: u8 [a0 + 14] = 0\n 26588: u8 [a0 + 13] = 0\n 26591: u8 [a0 + 12] = 0\n 26594: u8 [a0 + 11] = 0\n 26597: u8 [a0 + 10] = 0\n 26600: u8 [a0 + 9] = 0\n 26603: u8 [a0 + 8] = 0\n 26606: u8 [a0 + 7] = 0x65\n 26610: u8 [a0 + 6] = 0x76\n 26614: u8 [a0 + 5] = 0x69\n 26618: u8 [a0 + 4] = 0x74\n 26622: u8 [a0 + 3] = 0x63\n 26626: u8 [a0 + 2] = 0x61\n 26630: u8 [a0 + 1] = 0x6e\n 26634: u8 [a0 + 0] = 0x49\n 26637: a1 = u64 [sp]\n 26639: a0 = a1 + 0x60\n 26642: a1 = a0 <u a1\n 26645: a3 = u64 [sp + 0x8]\n 26648: a2 = a3 + a1\n 26651: a3 = a2 <u a3\n 26654: a3 = a1 if a1 == 0\n 26657: a1 = u64 [sp + 0x10]\n 26660: a3 = a3 + a1\n 26663: a1 = a3 <u a1\n 26666: a4 = u64 [sp + 0x18]\n 26669: a1 = a1 + a4\n 26672: a4 = u64 [sp + 0x28]\n 26675: u64 [a4] = a0\n 26677: u64 [a4 + 0x8] = a2\n 26680: u64 [a4 + 0x10] = a3\n 26683: u64 [a4 + 0x18] = a1\n 26686: ra = u64 [sp + 0x58]\n 26689: s0 = u64 [sp + 0x50]\n 26692: s1 = u64 [sp + 0x48]\n 26695: sp = sp + 0x60\n 26698: ret\n      : @368 (gas: 1)\n 26700: trap\n      : @369 (gas: 17)\n 26701: sp = sp + 0xffffffffffffffa0\n 26704: u64 [sp + 0x58] = ra\n 26707: u64 [sp + 0x50] = s0\n 26710: u64 [sp + 0x48] = s1\n 26713: a3 = u64 [a1 + 0x18]\n 26716: a4 = u64 [a1 + 0x10]\n 26719: a5 = u64 [a1 + 0x8]\n 26722: s1 = u64 [a1]\n 26724: a1 = a5 | a3\n 26727: a2 = s1 | a4\n 26730: a2 = a2 | a1\n 26733: a2 = a2 >> 0x20\n 26736: a1 = a1 | a4\n 26739: a1 = a1 << 0x20\n 26742: a1 = a1 | a2\n 26745: u64 [sp + 0x28] = a0\n 26748: jump @376 if a1 != 0\n      : @370 (gas: 19)\n 26752: a0 = s1 + 0x20\n 26755: u64 [sp + 0x30] = a0\n 26758: a0 = a0 <u s1\n 26761: a1 = a5 + a0\n 26764: u64 [sp + 0x40] = a1\n 26767: u64 [sp + 0x8] = a5\n 26770: s0 = a1 <u a5\n 26773: s0 = a0 if a0 == 0\n 26776: s0 = s0 + a4\n 26779: u64 [sp + 0x10] = a4\n 26782: a0 = s0 <u a4\n 26785: u64 [sp + 0x18] = a3\n 26788: a0 = a0 + a3\n 26791: u64 [sp + 0x38] = a0\n 26794: u64 [sp] = s1\n 26796: i32 a0 = s1 + 0\n 26798: a1 = 0x20\n 26801: s1 = 0x20\n 26804: ra = 332, jump @0\n      : @371 [@dyn 166] (gas: 45)\n 26810: u8 [a0 + 0x1f] = s1\n 26813: a1 = u64 [sp + 0x30]\n 26816: s1 = a1\n 26818: a1 = a1 | s0\n 26821: a2 = u64 [sp + 0x40]\n 26824: a4 = u64 [sp + 0x38]\n 26827: a2 = a2 | a4\n 26830: a1 = a1 | a2\n 26833: a1 = a1 >> 0x20\n 26836: u64 [sp + 0x20] = s0\n 26839: a2 = a2 | s0\n 26842: a2 = a2 << 0x20\n 26845: a1 = a1 | a2\n 26848: u8 [a0 + 30] = 0\n 26851: u8 [a0 + 29] = 0\n 26854: u8 [a0 + 28] = 0\n 26857: u8 [a0 + 27] = 0\n 26860: u8 [a0 + 26] = 0\n 26863: u8 [a0 + 25] = 0\n 26866: u8 [a0 + 24] = 0\n 26869: u8 [a0 + 23] = 0\n 26872: u8 [a0 + 22] = 0\n 26875: u8 [a0 + 21] = 0\n 26878: u8 [a0 + 20] = 0\n 26881: u8 [a0 + 19] = 0\n 26884: u8 [a0 + 18] = 0\n 26887: u8 [a0 + 17] = 0\n 26890: u8 [a0 + 16] = 0\n 26893: u8 [a0 + 15] = 0\n 26896: u8 [a0 + 14] = 0\n 26899: u8 [a0 + 13] = 0\n 26902: u8 [a0 + 12] = 0\n 26905: u8 [a0 + 11] = 0\n 26908: u8 [a0 + 10] = 0\n 26911: u8 [a0 + 9] = 0\n 26914: u8 [a0 + 8] = 0\n 26917: u8 [a0 + 7] = 0\n 26920: u8 [a0 + 6] = 0\n 26923: u8 [a0 + 5] = 0\n 26926: u8 [a0 + 4] = 0\n 26929: u8 [a0 + 3] = 0\n 26932: u8 [a0 + 2] = 0\n 26935: u8 [a0 + 1] = 0\n 26938: u8 [a0 + 0] = 0\n 26940: jump @376 if a1 != 0\n      : @372 (gas: 4)\n 26944: i32 s0 = s1 + 0\n 26946: a1 = 0x20\n 26949: a0 = s0\n 26951: ra = 334, jump @0\n      : @373 [@dyn 167] (gas: 41)\n 26957: u8 [a0 + 31] = 0xb\n 26961: u8 [a0 + 30] = 0\n 26964: u8 [a0 + 29] = 0\n 26967: u8 [a0 + 28] = 0\n 26970: u8 [a0 + 27] = 0\n 26973: u8 [a0 + 26] = 0\n 26976: u8 [a0 + 25] = 0\n 26979: u8 [a0 + 24] = 0\n 26982: u8 [a0 + 23] = 0\n 26985: u8 [a0 + 22] = 0\n 26988: u8 [a0 + 21] = 0\n 26991: u8 [a0 + 20] = 0\n 26994: u8 [a0 + 19] = 0\n 26997: u8 [a0 + 18] = 0\n 27000: u8 [a0 + 17] = 0\n 27003: u8 [a0 + 16] = 0\n 27006: u8 [a0 + 15] = 0\n 27009: u8 [a0 + 14] = 0\n 27012: u8 [a0 + 13] = 0\n 27015: u8 [a0 + 12] = 0\n 27018: u8 [a0 + 11] = 0\n 27021: u8 [a0 + 10] = 0\n 27024: u8 [a0 + 9] = 0\n 27027: u8 [a0 + 8] = 0\n 27030: u8 [a0 + 7] = 0\n 27033: u8 [a0 + 6] = 0\n 27036: u8 [a0 + 5] = 0\n 27039: u8 [a0 + 4] = 0\n 27042: u8 [a0 + 3] = 0\n 27045: u8 [a0 + 2] = 0\n 27048: u8 [a0 + 1] = 0\n 27051: a1 = u64 [sp + 0x20]\n 27054: a2 = u64 [sp + 0x38]\n 27057: a1 = a1 | a2\n 27060: a2 = 0xffffffe0\n 27070: a2 = s1 <u a2\n 27073: a3 = u64 [sp + 0x40]\n 27076: a2 = 0 if a3 != 0\n 27078: a2 = 0 if a1 != 0\n 27080: u8 [a0 + 0] = 0\n 27082: jump @376 if a2 == 0\n      : @374 (gas: 3)\n 27086: i32 a0 = s0 + 0x20\n 27089: a1 = 0x20\n 27092: ra = 336, jump @0\n      : @375 [@dyn 168] (gas: 54)\n 27098: u8 [a0 + 31] = 0\n 27101: u8 [a0 + 30] = 0\n 27104: u8 [a0 + 29] = 0\n 27107: u8 [a0 + 28] = 0\n 27110: u8 [a0 + 27] = 0\n 27113: u8 [a0 + 26] = 0\n 27116: u8 [a0 + 25] = 0\n 27119: u8 [a0 + 24] = 0\n 27122: u8 [a0 + 23] = 0\n 27125: u8 [a0 + 22] = 0\n 27128: u8 [a0 + 21] = 0\n 27131: u8 [a0 + 20] = 0\n 27134: u8 [a0 + 19] = 0\n 27137: u8 [a0 + 18] = 0\n 27140: u8 [a0 + 17] = 0\n 27143: u8 [a0 + 16] = 0\n 27146: u8 [a0 + 15] = 0\n 27149: u8 [a0 + 14] = 0\n 27152: u8 [a0 + 13] = 0\n 27155: u8 [a0 + 12] = 0\n 27158: u8 [a0 + 11] = 0\n 27161: u8 [a0 + 10] = 0x67\n 27165: u8 [a0 + 9] = 0x6e\n 27169: u8 [a0 + 8] = 0x69\n 27173: u8 [a0 + 7] = 0x74\n 27177: u8 [a0 + 6] = 0x73\n 27181: u8 [a0 + 5] = 0x69\n 27185: u8 [a0 + 4] = 0x6c\n 27189: u8 [a0 + 3] = 0x20\n 27193: u8 [a0 + 2] = 0x6e\n 27197: u8 [a0 + 1] = 0x77\n 27201: u8 [a0 + 0] = 0x4f\n 27204: a1 = u64 [sp]\n 27206: a0 = a1 + 0x60\n 27209: a1 = a0 <u a1\n 27212: a3 = u64 [sp + 0x8]\n 27215: a2 = a3 + a1\n 27218: a3 = a2 <u a3\n 27221: a3 = a1 if a1 == 0\n 27224: a1 = u64 [sp + 0x10]\n 27227: a3 = a3 + a1\n 27230: a1 = a3 <u a1\n 27233: a4 = u64 [sp + 0x18]\n 27236: a1 = a1 + a4\n 27239: a4 = u64 [sp + 0x28]\n 27242: u64 [a4] = a0\n 27244: u64 [a4 + 0x8] = a2\n 27247: u64 [a4 + 0x10] = a3\n 27250: u64 [a4 + 0x18] = a1\n 27253: ra = u64 [sp + 0x58]\n 27256: s0 = u64 [sp + 0x50]\n 27259: s1 = u64 [sp + 0x48]\n 27262: sp = sp + 0x60\n 27265: ret\n      : @376 (gas: 1)\n 27267: trap\n      : @377 (gas: 19)\n 27268: t1 = u64 [sp + 0xf0]\n 27272: t0 = u64 [sp + 0xe8]\n 27276: a0 = u64 [sp + 0x558]\n 27280: a1 = u64 [sp + 0x540]\n 27284: t2 = u64 [sp + 0x550]\n 27288: a3 = u64 [sp + 0x548]\n 27292: a4 = a0 ^ s1\n 27295: a0 = s1 <u a0\n 27298: a2 = u64 [sp + 0xf8]\n 27302: a5 = a2 <u t2\n 27305: a5 = a0 if a4 != 0\n 27308: a0 = a3 ^ t0\n 27311: a3 = t0 <u a3\n 27314: a1 = t1 <u a1\n 27317: a1 = a3 if a0 != 0\n 27320: a0 = t2 ^ a2\n 27323: a0 = a0 | a4\n 27326: a1 = a5 if a0 != 0\n 27329: jump @379 if a1 != 0\n      : @378 (gas: 1)\n 27332: jump @462\n      : @379 (gas: 12)\n 27335: u64 [sp + 0x200] = t1\n 27339: u64 [sp + 568] = 0\n 27343: u64 [sp + 560] = 0\n 27347: u64 [sp + 552] = 0\n 27351: u64 [sp + 544] = 0\n 27355: u64 [sp + 0x208] = t0\n 27359: u64 [sp + 0x210] = a2\n 27363: a0 = sp + 0x240\n 27367: a1 = sp + 0x220\n 27371: a2 = sp + 0x200\n 27375: u64 [sp + 0x218] = s1\n 27379: ra = 338, jump @164\n      : @380 [@dyn 169] (gas: 36)\n 27385: a0 = u64 [sp + 0x240]\n 27389: a4 = u64 [sp + 0x258]\n 27393: a1 = u64 [sp + 0x248]\n 27397: a5 = u64 [sp + 0x250]\n 27401: a2 = a0 + 0x3\n 27404: u64 [sp + 0xf0] = a0\n 27408: a0 = a2 <u a0\n 27411: a3 = a1 + a0\n 27414: u64 [sp + 0xe8] = a1\n 27418: a1 = a3 <u a1\n 27421: a1 = a0 if a0 == 0\n 27424: a1 = a1 + a5\n 27427: u64 [sp + 0xd0] = a5\n 27431: a0 = a1 <u a5\n 27434: u64 [sp + 0xf8] = a4\n 27438: a0 = a0 + a4\n 27441: u64 [sp + 0xb0] = a3\n 27445: u64 [sp + 0x528] = a3\n 27449: u64 [sp + 0x20] = a2\n 27452: u64 [sp + 0x520] = a2\n 27456: u64 [sp + 0xa8] = a1\n 27460: u64 [sp + 0x530] = a1\n 27464: u64 [sp + 0xa0] = a0\n 27468: u64 [sp + 0x538] = a0\n 27472: u64 [sp + 1368] = 0\n 27476: u64 [sp + 1360] = 0\n 27480: u64 [sp + 1352] = 0\n 27484: u64 [sp + 1344] = 0\n 27488: u32 [sp + 1280] = 0x20\n 27493: i32 a1 = sp + 0x520\n 27497: i32 a3 = sp + 0x540\n 27501: i32 a4 = sp + 0x500\n 27505: a2 = 0xffffffffffffffff\n 27508: a0 = 0\n 27510: ecalli 6 // 'get_storage'\n 27512: fallthrough\n      : @381 (gas: 2)\n 27513: a0 = u8 [sp + 0x540]\n 27517: jump @383 if a0 != 0\n      : @382 (gas: 1)\n 27520: jump @467\n      : @383 (gas: 37)\n 27523: i32 a0 = sp + 0x2c0\n 27527: ecalli 4 // 'caller'\n 27529: a0 = u64 [sp + 0x2c8]\n 27533: a1 = u64 [sp + 0x2c0]\n 27537: a2 = i32 [sp + 0x2d0]\n 27541: a0 = reverse a0\n 27543: a3 = a0 >> 0x20\n 27546: s1 = reverse a1\n 27548: a1 = s1 << 0x20\n 27551: a1 = a1 | a3\n 27554: u64 [sp + 0xe0] = a1\n 27558: a0 = a0 << 0x20\n 27561: a1 = reverse a2\n 27563: a1 = a1 >> 0x20\n 27566: a0 = a0 | a1\n 27569: u64 [sp + 0xd8] = a0\n 27573: s1 = s1 >> 0x20\n 27576: a0 = u64 [sp + 0xf8]\n 27580: u64 [sp + 0x538] = a0\n 27584: a0 = u64 [sp + 0xd0]\n 27588: u64 [sp + 0x530] = a0\n 27592: a0 = u64 [sp + 0xe8]\n 27596: u64 [sp + 0x528] = a0\n 27600: a0 = u64 [sp + 0xf0]\n 27604: u64 [sp + 0x520] = a0\n 27608: u64 [sp + 1368] = 0\n 27612: u64 [sp + 1360] = 0\n 27616: u64 [sp + 1352] = 0\n 27620: u64 [sp + 1344] = 0\n 27624: u32 [sp + 1280] = 0x20\n 27629: i32 a1 = sp + 0x520\n 27633: i32 a3 = sp + 0x540\n 27637: i32 a4 = sp + 0x500\n 27641: a2 = 0xffffffffffffffff\n 27644: a0 = 0\n 27646: ecalli 6 // 'get_storage'\n 27648: fallthrough\n      : @384 (gas: 11)\n 27649: a0 = u32 [sp + 0x550]\n 27653: a1 = u64 [sp + 0x540]\n 27657: a2 = u64 [sp + 0x548]\n 27661: a0 = a0 ^ s1\n 27664: a3 = u64 [sp + 0xd8]\n 27668: a1 = a1 ^ a3\n 27671: a0 = a0 | a1\n 27674: a1 = u64 [sp + 0xe0]\n 27678: a1 = a1 ^ a2\n 27681: a0 = a0 | a1\n 27684: jump @386 if a0 != 0\n      : @385 (gas: 1)\n 27687: jump @472\n      : @386 (gas: 72)\n 27690: u64 [sp + 1336] = 0\n 27694: u64 [sp + 1328] = 0\n 27698: u64 [sp + 1320] = 0\n 27702: u64 [sp + 1312] = 0x1\n 27707: u64 [sp + 1368] = 0\n 27711: u64 [sp + 1360] = 0\n 27715: u64 [sp + 1352] = 0\n 27719: u64 [sp + 1344] = 0\n 27723: s1 = 0x20\n 27726: u32 [sp + 0x500] = s1\n 27730: i32 a1 = sp + 0x520\n 27734: i32 a3 = sp + 0x540\n 27738: i32 a4 = sp + 0x500\n 27742: a2 = 0xffffffffffffffff\n 27745: a0 = 0\n 27747: ecalli 6 // 'get_storage'\n 27749: a0 = u64 [sp + 0x550]\n 27753: u64 [sp + 0x58] = a0\n 27756: a0 = u64 [sp + 0x548]\n 27760: u64 [sp + 0x50] = a0\n 27763: a0 = u64 [sp + 0x540]\n 27767: u64 [sp + 0x60] = a0\n 27770: i32 a0 = sp + 0x2e0\n 27774: ecalli 4 // 'caller'\n 27776: a0 = i32 [sp + 0x2f0]\n 27780: u64 [sp + 0x98] = a0\n 27784: a0 = u64 [sp + 0x2e0]\n 27788: u64 [sp + 0x90] = a0\n 27792: a0 = u64 [sp + 0xf0]\n 27796: a2 = a0 + 0x2\n 27799: a0 = a2 <u a0\n 27802: a1 = u64 [sp + 0xe8]\n 27806: a3 = a1 + a0\n 27809: a1 = a3 <u a1\n 27812: a1 = a0 if a0 == 0\n 27815: a0 = u64 [sp + 0x2e8]\n 27819: u64 [sp + 0x88] = a0\n 27823: a0 = u64 [sp + 0xd0]\n 27827: a1 = a1 + a0\n 27830: u32 [sp + 0x500] = s1\n 27834: a0 = a1 <u a0\n 27837: a4 = u64 [sp + 0xf8]\n 27841: a0 = a0 + a4\n 27844: u64 [sp + 0x30] = a0\n 27847: u64 [sp + 0x538] = a0\n 27851: u64 [sp + 0x38] = a1\n 27854: u64 [sp + 0x530] = a1\n 27858: u64 [sp + 0x40] = a3\n 27861: u64 [sp + 0x528] = a3\n 27865: u64 [sp + 0x48] = a2\n 27868: u64 [sp + 0x520] = a2\n 27872: u64 [sp + 1368] = 0\n 27876: u64 [sp + 1360] = 0\n 27880: u64 [sp + 1352] = 0\n 27884: u64 [sp + 1344] = 0\n 27888: i32 a1 = sp + 0x520\n 27892: i32 a3 = sp + 0x540\n 27896: i32 a4 = sp + 0x500\n 27900: a2 = 0xffffffffffffffff\n 27903: a0 = 0\n 27905: ecalli 6 // 'get_storage'\n 27907: a0 = u64 [sp + 0x558]\n 27911: u64 [sp + 0x68] = a0\n 27914: a0 = u64 [sp + 0x550]\n 27918: u64 [sp + 0x70] = a0\n 27921: a0 = u64 [sp + 0x548]\n 27925: u64 [sp + 0x78] = a0\n 27928: a0 = u64 [sp + 0x540]\n 27932: u64 [sp + 0x80] = a0\n 27936: a0 = 0x40\n 27939: a1 = 0x20\n 27942: ra = 340, jump @0\n      : @387 [@dyn 170] (gas: 102)\n 27948: a1 = u8 [a0 + 0x11]\n 27951: a2 = u8 [a0 + 0x10]\n 27954: a3 = u8 [a0 + 0x12]\n 27957: a4 = u8 [a0 + 0x13]\n 27960: a1 = a1 << 0x8\n 27963: a1 = a1 | a2\n 27966: a3 = a3 << 0x10\n 27969: a4 = a4 << 0x18\n 27972: a3 = a3 | a4\n 27975: a1 = a1 | a3\n 27978: a2 = u8 [a0 + 0x15]\n 27981: a3 = u8 [a0 + 0x14]\n 27984: a4 = u8 [a0 + 0x16]\n 27987: a5 = u8 [a0 + 0x17]\n 27990: a2 = a2 << 0x8\n 27993: a2 = a2 | a3\n 27996: a4 = a4 << 0x10\n 27999: a5 = a5 << 0x18\n 28002: a4 = a4 | a5\n 28005: a2 = a2 | a4\n 28008: a2 = a2 << 0x20\n 28011: t0 = a2 | a1\n 28014: a2 = u8 [a0 + 0x1]\n 28017: a3 = u8 [a0]\n 28019: a4 = u8 [a0 + 0x2]\n 28022: a5 = u8 [a0 + 0x3]\n 28025: a2 = a2 << 0x8\n 28028: a2 = a2 | a3\n 28031: a4 = a4 << 0x10\n 28034: a5 = a5 << 0x18\n 28037: a4 = a4 | a5\n 28040: a2 = a2 | a4\n 28043: a3 = u8 [a0 + 0x5]\n 28046: a4 = u8 [a0 + 0x4]\n 28049: a5 = u8 [a0 + 0x6]\n 28052: s1 = u8 [a0 + 0x7]\n 28055: a3 = a3 << 0x8\n 28058: a3 = a3 | a4\n 28061: a5 = a5 << 0x10\n 28064: s1 = s1 << 0x18\n 28067: a5 = a5 | s1\n 28070: a3 = a3 | a5\n 28073: a3 = a3 << 0x20\n 28076: a2 = a2 | a3\n 28079: a3 = u8 [a0 + 0x19]\n 28082: a4 = u8 [a0 + 0x18]\n 28085: a5 = u8 [a0 + 0x1a]\n 28088: s1 = u8 [a0 + 0x1b]\n 28091: a3 = a3 << 0x8\n 28094: a3 = a3 | a4\n 28097: a5 = a5 << 0x10\n 28100: s1 = s1 << 0x18\n 28103: a5 = a5 | s1\n 28106: a3 = a3 | a5\n 28109: a4 = u8 [a0 + 0x1d]\n 28112: a5 = u8 [a0 + 0x1c]\n 28115: s1 = u8 [a0 + 0x1e]\n 28118: a1 = u8 [a0 + 0x1f]\n 28121: a4 = a4 << 0x8\n 28124: a4 = a4 | a5\n 28127: s1 = s1 << 0x10\n 28130: a1 = a1 << 0x18\n 28133: a1 = a1 | s1\n 28136: a1 = a1 | a4\n 28139: a1 = a1 << 0x20\n 28142: a3 = a3 | a1\n 28145: a1 = u8 [a0 + 0x9]\n 28148: a4 = u8 [a0 + 0x8]\n 28151: a5 = u8 [a0 + 0xa]\n 28154: s1 = u8 [a0 + 0xb]\n 28157: a1 = a1 << 0x8\n 28160: a1 = a1 | a4\n 28163: a5 = a5 << 0x10\n 28166: s1 = s1 << 0x18\n 28169: a5 = a5 | s1\n 28172: a1 = a1 | a5\n 28175: a4 = u8 [a0 + 0xd]\n 28178: a5 = u8 [a0 + 0xc]\n 28181: s1 = u8 [a0 + 0xe]\n 28184: a0 = u8 [a0 + 0xf]\n 28187: a4 = a4 << 0x8\n 28190: a4 = a4 | a5\n 28193: s1 = s1 << 0x10\n 28196: a0 = a0 << 0x18\n 28199: a0 = a0 | s1\n 28202: a0 = a0 | a4\n 28205: a0 = a0 << 0x20\n 28208: a0 = a0 | a1\n 28211: s1 = reverse a0\n 28213: a3 = reverse a3\n 28215: a1 = reverse a2\n 28217: a0 = reverse t0\n 28219: u64 [sp + 0xe0] = a0\n 28223: u64 [sp + 0xc0] = a1\n 28227: a0 = a0 | a1\n 28230: a1 = a3 | s1\n 28233: a1 = a1 | a0\n 28236: a1 = a1 >> 0x20\n 28239: a0 = a0 | s1\n 28242: a0 = a0 << 0x20\n 28245: a0 = a0 | a1\n 28248: jump @389 if a0 == 0\n      : @388 (gas: 1)\n 28251: jump @483\n      : @389 (gas: 5)\n 28254: i32 a0 = a3 + 0\n 28256: a1 = 0x20\n 28259: u64 [sp + 0xc8] = a0\n 28263: u64 [sp + 0xd8] = a3\n 28267: ra = 342, jump @0\n      : @390 [@dyn 171] (gas: 43)\n 28273: u8 [a0 + 31] = 0\n 28276: u8 [a0 + 30] = 0\n 28279: u8 [a0 + 29] = 0\n 28282: u8 [a0 + 28] = 0\n 28285: u8 [a0 + 27] = 0\n 28288: u8 [a0 + 26] = 0\n 28291: u8 [a0 + 25] = 0\n 28294: u8 [a0 + 24] = 0\n 28297: u8 [a0 + 23] = 0\n 28300: u8 [a0 + 22] = 0\n 28303: u8 [a0 + 21] = 0\n 28306: u8 [a0 + 20] = 0\n 28309: u8 [a0 + 19] = 0\n 28312: u8 [a0 + 18] = 0\n 28315: u8 [a0 + 17] = 0\n 28318: u8 [a0 + 16] = 0\n 28321: u8 [a0 + 15] = 0\n 28324: u8 [a0 + 14] = 0\n 28327: u8 [a0 + 13] = 0\n 28330: u8 [a0 + 12] = 0\n 28333: u8 [a0 + 11] = 0\n 28336: u8 [a0 + 10] = 0\n 28339: u8 [a0 + 9] = 0\n 28342: u8 [a0 + 8] = 0\n 28345: u8 [a0 + 7] = 0\n 28348: u8 [a0 + 6] = 0\n 28351: u8 [a0 + 5] = 0\n 28354: u8 [a0 + 3] = 0xe6\n 28359: u8 [a0 + 2] = 0x8c\n 28364: u8 [a0 + 1] = 0xca\n 28369: u8 [a0 + 0] = 0x4d\n 28372: u64 [sp + 0x28] = s1\n 28375: a3 = u64 [sp + 0xc0]\n 28379: a3 = a3 | s1\n 28382: a1 = 0xfffffffc\n 28392: a2 = u64 [sp + 0xd8]\n 28396: a1 = a2 <u a1\n 28399: a2 = u64 [sp + 0xe0]\n 28403: a1 = 0 if a2 != 0\n 28405: u64 [sp + 0xb8] = a3\n 28409: a1 = 0 if a3 != 0\n 28411: u8 [a0 + 4] = 0\n 28414: jump @392 if a1 != 0\n      : @391 (gas: 1)\n 28417: jump @483\n      : @392 (gas: 19)\n 28420: a0 = u64 [sp + 0x88]\n 28424: a0 = reverse a0\n 28426: a1 = a0 >> 0x20\n 28429: a2 = u64 [sp + 0x90]\n 28433: a2 = reverse a2\n 28435: a3 = a2 << 0x20\n 28438: a1 = a1 | a3\n 28441: u64 [sp + 0x90] = a1\n 28445: a0 = a0 << 0x20\n 28448: a1 = u64 [sp + 0x98]\n 28452: a1 = reverse a1\n 28454: a1 = a1 >> 0x20\n 28457: a0 = a0 | a1\n 28460: u64 [sp + 0x98] = a0\n 28464: s1 = a2 >> 0x20\n 28467: a0 = u64 [sp + 0xc8]\n 28471: i32 a0 = a0 + 0x4\n 28474: a1 = 0x20\n 28477: ra = 344, jump @0\n      : @393 [@dyn 172] (gas: 64)\n 28483: a1 = reverse s1\n 28485: a2 = u64 [sp + 0x90]\n 28489: a2 = reverse a2\n 28491: a3 = u64 [sp + 0x98]\n 28495: a3 = reverse a3\n 28497: a4 = a3 >> 0x38\n 28500: u8 [a0 + 0x1f] = a4\n 28503: a4 = a3 >> 0x30\n 28506: u8 [a0 + 0x1e] = a4\n 28509: a4 = a3 >> 0x28\n 28512: u8 [a0 + 0x1d] = a4\n 28515: a4 = a3 >> 0x20\n 28518: u8 [a0 + 0x1c] = a4\n 28521: a4 = a3 >> 0x18\n 28524: u8 [a0 + 0x1b] = a4\n 28527: a4 = a3 >> 0x10\n 28530: u8 [a0 + 0x1a] = a4\n 28533: a4 = a3 >> 0x8\n 28536: u8 [a0 + 0x19] = a4\n 28539: u8 [a0 + 0x18] = a3\n 28542: u8 [a0 + 0x10] = a2\n 28545: u8 [a0 + 11] = 0\n 28548: u8 [a0 + 10] = 0\n 28551: u8 [a0 + 9] = 0\n 28554: u8 [a0 + 7] = 0\n 28557: u8 [a0 + 6] = 0\n 28560: u8 [a0 + 5] = 0\n 28563: u8 [a0 + 4] = 0\n 28566: u8 [a0 + 3] = 0\n 28569: u8 [a0 + 2] = 0\n 28572: u8 [a0 + 1] = 0\n 28575: u8 [a0 + 0] = 0\n 28577: a3 = a2 >> 0x38\n 28580: u8 [a0 + 0x17] = a3\n 28583: a3 = a2 >> 0x30\n 28586: u8 [a0 + 0x16] = a3\n 28589: a3 = a2 >> 0x28\n 28592: u8 [a0 + 0x15] = a3\n 28595: a3 = a2 >> 0x20\n 28598: u8 [a0 + 0x14] = a3\n 28601: a3 = a2 >> 0x18\n 28604: u8 [a0 + 0x13] = a3\n 28607: a3 = a2 >> 0x10\n 28610: u8 [a0 + 0x12] = a3\n 28613: a2 = a2 >> 0x8\n 28616: u8 [a0 + 0x11] = a2\n 28619: u8 [a0 + 0x8] = a1\n 28622: a2 = a1 >> 0x38\n 28625: u8 [a0 + 0xf] = a2\n 28628: a2 = a1 >> 0x30\n 28631: u8 [a0 + 0xe] = a2\n 28634: a2 = a1 >> 0x28\n 28637: u8 [a0 + 0xd] = a2\n 28640: a1 = a1 >> 0x20\n 28643: s1 = 0x100000000\n 28653: a2 = 0xffffffdc\n 28663: a3 = u64 [sp + 0xd8]\n 28667: a2 = a3 <u a2\n 28670: a3 = u64 [sp + 0xe0]\n 28674: a2 = 0 if a3 != 0\n 28676: a3 = u64 [sp + 0xb8]\n 28680: a2 = 0 if a3 != 0\n 28682: u8 [a0 + 0xc] = a1\n 28685: jump @395 if a2 != 0\n      : @394 (gas: 1)\n 28688: jump @483\n      : @395 (gas: 4)\n 28691: a0 = u64 [sp + 0xc8]\n 28695: i32 a0 = a0 + 0x24\n 28698: a1 = 0x20\n 28701: ra = 346, jump @0\n      : @396 [@dyn 173] (gas: 76)\n 28707: a1 = u64 [sp + 0x68]\n 28710: a1 = reverse a1\n 28712: a2 = u64 [sp + 0x70]\n 28715: a2 = reverse a2\n 28717: a3 = u64 [sp + 0x78]\n 28720: a3 = reverse a3\n 28722: a4 = u64 [sp + 0x80]\n 28726: a4 = reverse a4\n 28728: a5 = a4 >> 0x38\n 28731: u8 [a0 + 0x1f] = a5\n 28734: a5 = a4 >> 0x30\n 28737: u8 [a0 + 0x1e] = a5\n 28740: a5 = a4 >> 0x28\n 28743: u8 [a0 + 0x1d] = a5\n 28746: a5 = a4 >> 0x20\n 28749: u8 [a0 + 0x1c] = a5\n 28752: a5 = a4 >> 0x18\n 28755: u8 [a0 + 0x1b] = a5\n 28758: a5 = a4 >> 0x10\n 28761: u8 [a0 + 0x1a] = a5\n 28764: a5 = a4 >> 0x8\n 28767: u8 [a0 + 0x19] = a5\n 28770: u8 [a0 + 0x18] = a4\n 28773: u8 [a0 + 0x10] = a3\n 28776: a4 = a3 >> 0x38\n 28779: u8 [a0 + 0x17] = a4\n 28782: a4 = a3 >> 0x30\n 28785: u8 [a0 + 0x16] = a4\n 28788: a4 = a3 >> 0x28\n 28791: u8 [a0 + 0x15] = a4\n 28794: a4 = a3 >> 0x20\n 28797: u8 [a0 + 0x14] = a4\n 28800: a4 = a3 >> 0x18\n 28803: u8 [a0 + 0x13] = a4\n 28806: a4 = a3 >> 0x10\n 28809: u8 [a0 + 0x12] = a4\n 28812: a3 = a3 >> 0x8\n 28815: u8 [a0 + 0x11] = a3\n 28818: u8 [a0 + 0x8] = a2\n 28821: a3 = a2 >> 0x38\n 28824: u8 [a0 + 0xf] = a3\n 28827: a3 = a2 >> 0x30\n 28830: u8 [a0 + 0xe] = a3\n 28833: a3 = a2 >> 0x28\n 28836: u8 [a0 + 0xd] = a3\n 28839: a3 = a2 >> 0x20\n 28842: u8 [a0 + 0xc] = a3\n 28845: a3 = a2 >> 0x18\n 28848: u8 [a0 + 0xb] = a3\n 28851: a3 = a2 >> 0x10\n 28854: u8 [a0 + 0xa] = a3\n 28857: a2 = a2 >> 0x8\n 28860: u8 [a0 + 0x9] = a2\n 28863: u8 [a0] = a1\n 28865: a2 = a1 >> 0x38\n 28868: u8 [a0 + 0x7] = a2\n 28871: a2 = a1 >> 0x30\n 28874: u8 [a0 + 0x6] = a2\n 28877: a2 = a1 >> 0x28\n 28880: u8 [a0 + 0x5] = a2\n 28883: a2 = a1 >> 0x20\n 28886: u8 [a0 + 0x4] = a2\n 28889: a2 = a1 >> 0x18\n 28892: u8 [a0 + 0x3] = a2\n 28895: a2 = a1 >> 0x10\n 28898: u8 [a0 + 0x2] = a2\n 28901: a1 = a1 >> 0x8\n 28904: a2 = s1 + 0xffffffffffffffbc\n 28907: a3 = u64 [sp + 0xd8]\n 28911: a2 = a3 <u a2\n 28914: a3 = u64 [sp + 0xe0]\n 28918: a2 = 0 if a3 != 0\n 28920: a3 = u64 [sp + 0xb8]\n 28924: a2 = 0 if a3 != 0\n 28926: u8 [a0 + 0x1] = a1\n 28929: jump @398 if a2 != 0\n      : @397 (gas: 1)\n 28932: jump @483\n      : @398 (gas: 4)\n 28935: s1 = u64 [sp + 0xc8]\n 28939: i32 a0 = s1 + 0x44\n 28942: a1 = 0x20\n 28945: ra = 348, jump @0\n      : @399 [@dyn 174] (gas: 56)\n 28951: u8 [a0 + 31] = 0x1\n 28955: u8 [a0 + 30] = 0\n 28958: u8 [a0 + 29] = 0\n 28961: u8 [a0 + 28] = 0\n 28964: u8 [a0 + 27] = 0\n 28967: u8 [a0 + 26] = 0\n 28970: u8 [a0 + 25] = 0\n 28973: u8 [a0 + 24] = 0\n 28976: u8 [a0 + 23] = 0\n 28979: u8 [a0 + 22] = 0\n 28982: u8 [a0 + 21] = 0\n 28985: u8 [a0 + 20] = 0\n 28988: u8 [a0 + 19] = 0\n 28991: u8 [a0 + 18] = 0\n 28994: u8 [a0 + 17] = 0\n 28997: u8 [a0 + 16] = 0\n 29000: u8 [a0 + 15] = 0\n 29003: u8 [a0 + 14] = 0\n 29006: u8 [a0 + 13] = 0\n 29009: u8 [a0 + 12] = 0\n 29012: u8 [a0 + 11] = 0\n 29015: u8 [a0 + 10] = 0\n 29018: u8 [a0 + 9] = 0\n 29021: u8 [a0 + 8] = 0\n 29024: u8 [a0 + 7] = 0\n 29027: u8 [a0 + 6] = 0\n 29030: u8 [a0 + 5] = 0\n 29033: u8 [a0 + 4] = 0\n 29036: u8 [a0 + 3] = 0\n 29039: u8 [a0 + 2] = 0\n 29042: u8 [a0 + 1] = 0\n 29045: u8 [a0 + 0] = 0\n 29047: ecalli 8 // 'ref_time_left'\n 29049: a0 = u64 [sp + 0x50]\n 29052: a0 = reverse a0\n 29054: a1 = a0 << 0x20\n 29057: a2 = u64 [sp + 0x58]\n 29060: a2 = reverse a2\n 29062: a2 = a2 >> 0x20\n 29065: a1 = a1 | a2\n 29068: a2 = u64 [sp + 0x60]\n 29071: a2 = reverse a2\n 29073: a3 = a2 << 0x20\n 29076: a0 = a0 >> 0x20\n 29079: a0 = a0 | a3\n 29082: a2 = a2 >> 0x20\n 29085: u64 [sp + 0x308] = a0\n 29089: u64 [sp + 0x300] = a1\n 29093: u32 [sp + 0x310] = a2\n 29097: u64 [sp + 824] = 0\n 29101: u64 [sp + 816] = 0\n 29105: u64 [sp + 808] = 0\n 29109: u64 [sp + 800] = 0\n 29113: a1 = 0x64\n 29116: a0 = s1\n 29118: ra = 350, jump @0\n      : @400 [@dyn 175] (gas: 4)\n 29124: u64 [sp + 0xb8] = a0\n 29128: a1 = 0x20\n 29131: a0 = s1\n 29133: ra = 352, jump @0\n      : @401 [@dyn 176] (gas: 31)\n 29139: u32 [sp + 832] = 0x20\n 29144: u64 [sp + 888] = 0\n 29148: u64 [sp + 880] = 0\n 29152: u64 [sp + 872] = 0\n 29156: u64 [sp + 864] = 0\n 29160: a1 = sp + 0x300\n 29164: a1 = a1 << 0x20\n 29167: a1 = a1 >> 0x20\n 29170: a2 = 0x1800000000\n 29180: s1 = a1 | a2\n 29183: a1 = sp + 0x320\n 29187: a1 = a1 << 0x20\n 29190: a1 = a1 >> 0x20\n 29193: a2 = sp + 0x360\n 29197: a2 = a2 << 0x20\n 29200: a3 = a2 | a1\n 29203: a1 = u64 [sp + 0xb8]\n 29207: a1 = a1 << 0x20\n 29210: a1 = a1 >> 0x20\n 29213: a2 = 0x6400000000\n 29223: a4 = a1 | a2\n 29226: a0 = a0 << 0x20\n 29229: a0 = a0 >> 0x20\n 29232: a1 = sp + 0x340\n 29236: a1 = a1 << 0x20\n 29239: a5 = a1 | a0\n 29242: a1 = 0xffffffffffffffff\n 29245: a2 = 0xffffffffffffffff\n 29248: a0 = s1\n 29250: ecalli 0 // 'call'\n 29251: fallthrough\n      : @402 (gas: 1)\n 29252: jump @404 if a0 == 0\n      : @403 (gas: 1)\n 29255: jump @461\n      : @404 (gas: 2)\n 29258: ecalli 10 // 'return_data_size'\n 29260: fallthrough\n      : @405 (gas: 2)\n 29261: a1 = 0x20\n 29264: jump @407 if a0 >=u a1\n      : @406 (gas: 3)\n 29267: ecalli 10 // 'return_data_size'\n 29269: a1 = a0\n 29271: fallthrough\n      : @407 (gas: 28)\n 29272: a4 = 0\n 29274: a3 = u64 [sp + 0xc0]\n 29278: a2 = u64 [sp + 0xd8]\n 29282: s1 = u64 [sp + 0xe0]\n 29286: a0 = a1 + 0x1f\n 29289: u64 [sp + 0xd8] = a1\n 29293: a1 = a0 <u a1\n 29296: u64 [sp + 224] = 0\n 29300: a1 = a1 & 0x1\n 29303: a0 = a0 & 0xffffffffffffffe0\n 29306: a2 = a2 + a0\n 29309: u64 [sp + 0xc0] = a2\n 29313: a0 = a2 <u a0\n 29316: s1 = s1 + a1\n 29319: s1 = s1 + a0\n 29322: a2 = s1 ^ a1\n 29325: a1 = s1 <u a1\n 29328: a1 = a0 if a2 == 0\n 29331: a0 = u64 [sp + 0x28]\n 29334: a1 = a1 + a0\n 29337: a0 = a1 <u a0\n 29340: a0 = a0 + a3\n 29343: u64 [sp + 0xb8] = a1\n 29347: u64 [sp + 0x98] = a0\n 29351: a0 = a0 | a1\n 29354: a1 = s1 <u 0x1\n 29357: a1 = 0 if a0 != 0\n 29359: jump @409 if a1 != 0\n      : @408 (gas: 1)\n 29362: jump @487\n      : @409 (gas: 3)\n 29365: a0 = 0x40\n 29368: a1 = 0x20\n 29371: ra = 354, jump @0\n      : @410 [@dyn 177] (gas: 79)\n 29377: a1 = u64 [sp + 0x98]\n 29381: a1 = reverse a1\n 29383: a2 = u64 [sp + 0xb8]\n 29387: a2 = reverse a2\n 29389: a3 = reverse s1\n 29391: a4 = u64 [sp + 0xc0]\n 29395: a4 = reverse a4\n 29397: u8 [a0 + 0x18] = a4\n 29400: a5 = a4 >> 0x38\n 29403: u8 [a0 + 0x1f] = a5\n 29406: a5 = a4 >> 0x30\n 29409: u8 [a0 + 0x1e] = a5\n 29412: a5 = a4 >> 0x28\n 29415: u8 [a0 + 0x1d] = a5\n 29418: a5 = a4 >> 0x20\n 29421: u8 [a0 + 0x1c] = a5\n 29424: a5 = a4 >> 0x18\n 29427: u8 [a0 + 0x1b] = a5\n 29430: a5 = a4 >> 0x10\n 29433: u8 [a0 + 0x1a] = a5\n 29436: a4 = a4 >> 0x8\n 29439: u8 [a0 + 0x19] = a4\n 29442: u8 [a0 + 0x10] = a3\n 29445: a4 = a3 >> 0x38\n 29448: u8 [a0 + 0x17] = a4\n 29451: a4 = a3 >> 0x30\n 29454: u8 [a0 + 0x16] = a4\n 29457: a4 = a3 >> 0x28\n 29460: u8 [a0 + 0x15] = a4\n 29463: a4 = a3 >> 0x20\n 29466: u8 [a0 + 0x14] = a4\n 29469: a4 = a3 >> 0x18\n 29472: u8 [a0 + 0x13] = a4\n 29475: a4 = a3 >> 0x10\n 29478: u8 [a0 + 0x12] = a4\n 29481: a3 = a3 >> 0x8\n 29484: u8 [a0 + 0x11] = a3\n 29487: u8 [a0 + 0x8] = a2\n 29490: a3 = a2 >> 0x38\n 29493: u8 [a0 + 0xf] = a3\n 29496: a3 = a2 >> 0x30\n 29499: u8 [a0 + 0xe] = a3\n 29502: a3 = a2 >> 0x28\n 29505: u8 [a0 + 0xd] = a3\n 29508: a3 = a2 >> 0x20\n 29511: u8 [a0 + 0xc] = a3\n 29514: a3 = a2 >> 0x18\n 29517: u8 [a0 + 0xb] = a3\n 29520: a3 = a2 >> 0x10\n 29523: u8 [a0 + 0xa] = a3\n 29526: a2 = a2 >> 0x8\n 29529: u8 [a0 + 0x9] = a2\n 29532: u8 [a0] = a1\n 29534: a2 = a1 >> 0x38\n 29537: u8 [a0 + 0x7] = a2\n 29540: a2 = a1 >> 0x30\n 29543: u8 [a0 + 0x6] = a2\n 29546: a2 = a1 >> 0x28\n 29549: u8 [a0 + 0x5] = a2\n 29552: a2 = a1 >> 0x20\n 29555: u8 [a0 + 0x4] = a2\n 29558: a2 = a1 >> 0x18\n 29561: u8 [a0 + 0x3] = a2\n 29564: a2 = a1 >> 0x10\n 29567: u8 [a0 + 0x2] = a2\n 29570: a1 = a1 >> 0x8\n 29573: a5 = u64 [sp + 0xe0]\n 29577: a2 = a5 >u 0\n 29579: a3 = u64 [sp + 0xd8]\n 29583: a3 = a3 <u 0x20\n 29586: a3 = a3 ^ 0x1\n 29589: a3 = a2 if a5 != 0\n 29592: a2 = a5 >u 0\n 29594: a4 = a5 >u 0\n 29596: a4 = a2 if a5 == 0\n 29599: a2 = a5 | a5\n 29602: a4 = a3 if a2 == 0\n 29605: u8 [a0 + 0x1] = a1\n 29608: jump @412 if a4 != 0\n      : @411 (gas: 1)\n 29611: jump @484\n      : @412 (gas: 3)\n 29614: a1 = 0x20\n 29617: a0 = u64 [sp + 0xc8]\n 29621: ra = 356, jump @0\n      : @413 [@dyn 178] (gas: 96)\n 29627: a1 = u8 [a0 + 0x9]\n 29630: a2 = u8 [a0 + 0x8]\n 29633: a3 = u8 [a0 + 0xa]\n 29636: a4 = u8 [a0 + 0xb]\n 29639: a1 = a1 << 0x8\n 29642: a1 = a1 | a2\n 29645: a3 = a3 << 0x10\n 29648: a4 = a4 << 0x18\n 29651: a3 = a3 | a4\n 29654: a1 = a1 | a3\n 29657: a2 = u8 [a0 + 0xd]\n 29660: a3 = u8 [a0 + 0xc]\n 29663: a4 = u8 [a0 + 0xe]\n 29666: a5 = u8 [a0 + 0xf]\n 29669: a2 = a2 << 0x8\n 29672: a2 = a2 | a3\n 29675: a4 = a4 << 0x10\n 29678: a5 = a5 << 0x18\n 29681: a4 = a4 | a5\n 29684: a2 = a2 | a4\n 29687: a2 = a2 << 0x20\n 29690: t0 = a2 | a1\n 29693: a2 = u8 [a0 + 0x1]\n 29696: a3 = u8 [a0]\n 29698: a4 = u8 [a0 + 0x2]\n 29701: a5 = u8 [a0 + 0x3]\n 29704: a2 = a2 << 0x8\n 29707: a2 = a2 | a3\n 29710: a4 = a4 << 0x10\n 29713: a5 = a5 << 0x18\n 29716: a4 = a4 | a5\n 29719: a2 = a2 | a4\n 29722: a3 = u8 [a0 + 0x5]\n 29725: a4 = u8 [a0 + 0x4]\n 29728: a5 = u8 [a0 + 0x6]\n 29731: s1 = u8 [a0 + 0x7]\n 29734: a3 = a3 << 0x8\n 29737: a3 = a3 | a4\n 29740: a5 = a5 << 0x10\n 29743: s1 = s1 << 0x18\n 29746: a5 = a5 | s1\n 29749: a3 = a3 | a5\n 29752: a3 = a3 << 0x20\n 29755: a2 = a2 | a3\n 29758: a3 = u8 [a0 + 0x19]\n 29761: a4 = u8 [a0 + 0x18]\n 29764: a5 = u8 [a0 + 0x1a]\n 29767: s1 = u8 [a0 + 0x1b]\n 29770: a3 = a3 << 0x8\n 29773: a3 = a3 | a4\n 29776: a5 = a5 << 0x10\n 29779: s1 = s1 << 0x18\n 29782: a5 = a5 | s1\n 29785: a3 = a3 | a5\n 29788: a4 = u8 [a0 + 0x1d]\n 29791: a5 = u8 [a0 + 0x1c]\n 29794: s1 = u8 [a0 + 0x1e]\n 29797: a1 = u8 [a0 + 0x1f]\n 29800: a4 = a4 << 0x8\n 29803: a4 = a4 | a5\n 29806: s1 = s1 << 0x10\n 29809: a1 = a1 << 0x18\n 29812: a1 = a1 | s1\n 29815: a1 = a1 | a4\n 29818: a1 = a1 << 0x20\n 29821: a3 = a3 | a1\n 29824: a1 = u8 [a0 + 0x11]\n 29827: a4 = u8 [a0 + 0x10]\n 29830: a5 = u8 [a0 + 0x12]\n 29833: s1 = u8 [a0 + 0x13]\n 29836: a1 = a1 << 0x8\n 29839: a1 = a1 | a4\n 29842: a5 = a5 << 0x10\n 29845: s1 = s1 << 0x18\n 29848: a5 = a5 | s1\n 29851: a1 = a1 | a5\n 29854: a4 = u8 [a0 + 0x15]\n 29857: a5 = u8 [a0 + 0x14]\n 29860: s1 = u8 [a0 + 0x16]\n 29863: a0 = u8 [a0 + 0x17]\n 29866: a4 = a4 << 0x8\n 29869: a4 = a4 | a5\n 29872: s1 = s1 << 0x10\n 29875: a0 = a0 << 0x18\n 29878: a0 = a0 | s1\n 29881: a0 = a0 | a4\n 29884: a0 = a0 << 0x20\n 29887: a0 = a0 | a1\n 29890: a1 = reverse a0\n 29892: a4 = reverse a3\n 29894: a4 = a4 <u 0x2\n 29897: a4 = 0 if a1 != 0\n 29899: a1 = t0 | a2\n 29902: a1 = reverse a1\n 29904: a4 = 0 if a1 != 0\n 29906: jump @415 if a4 != 0\n      : @414 (gas: 1)\n 29909: jump @484\n      : @415 (gas: 4)\n 29912: a0 = a0 | a2\n 29915: a1 = t0 | a3\n 29918: a0 = a0 | a1\n 29921: jump @417 if a0 != 0\n      : @416 (gas: 1)\n 29924: jump @477\n      : @417 (gas: 104)\n 29927: u64 [sp + 1336] = 0\n 29931: u64 [sp + 1328] = 0\n 29935: u64 [sp + 1320] = 0\n 29939: u64 [sp + 1312] = 0x1\n 29944: u64 [sp + 1368] = 0\n 29948: u64 [sp + 1360] = 0\n 29952: u64 [sp + 1352] = 0\n 29956: u64 [sp + 1344] = 0\n 29960: s1 = 0x20\n 29963: u32 [sp + 0x500] = s1\n 29967: i32 a1 = sp + 0x520\n 29971: i32 a3 = sp + 0x540\n 29975: i32 a4 = sp + 0x500\n 29979: a2 = 0xffffffffffffffff\n 29982: a0 = 0\n 29984: ecalli 6 // 'get_storage'\n 29986: a0 = u64 [sp + 0x540]\n 29990: u64 [sp + 0xe0] = a0\n 29994: a0 = u64 [sp + 0x550]\n 29998: u64 [sp + 0xd8] = a0\n 30002: a0 = u64 [sp + 0x548]\n 30006: u64 [sp + 0xc8] = a0\n 30010: i32 a0 = sp + 0x380\n 30014: ecalli 4 // 'caller'\n 30016: a0 = i32 [sp + 0x390]\n 30020: u64 [sp + 0xb8] = a0\n 30024: a0 = u64 [sp + 0x380]\n 30028: u64 [sp + 0x98] = a0\n 30032: a0 = u64 [sp + 0x388]\n 30036: u64 [sp + 0x90] = a0\n 30040: a0 = u64 [sp + 0xf8]\n 30044: u64 [sp + 0x538] = a0\n 30048: a0 = u64 [sp + 0xd0]\n 30052: u64 [sp + 0x530] = a0\n 30056: a0 = u64 [sp + 0xe8]\n 30060: u64 [sp + 0x528] = a0\n 30064: a0 = u64 [sp + 0xf0]\n 30068: u64 [sp + 0x520] = a0\n 30072: u64 [sp + 1368] = 0\n 30076: u64 [sp + 1360] = 0\n 30080: u64 [sp + 1352] = 0\n 30084: u64 [sp + 1344] = 0\n 30088: u32 [sp + 0x500] = s1\n 30092: i32 a1 = sp + 0x520\n 30096: i32 a3 = sp + 0x540\n 30100: i32 a4 = sp + 0x500\n 30104: a2 = 0xffffffffffffffff\n 30107: a0 = 0\n 30109: ecalli 6 // 'get_storage'\n 30111: a0 = u64 [sp + 0x548]\n 30115: u64 [sp + 0x80] = a0\n 30119: a0 = u64 [sp + 0x540]\n 30123: u64 [sp + 0x88] = a0\n 30127: a0 = u32 [sp + 0x550]\n 30131: u64 [sp + 0x78] = a0\n 30134: a0 = u64 [sp + 0x30]\n 30137: u64 [sp + 0x538] = a0\n 30141: a0 = u64 [sp + 0x38]\n 30144: u64 [sp + 0x530] = a0\n 30148: a0 = u64 [sp + 0x40]\n 30151: u64 [sp + 0x528] = a0\n 30155: a0 = u64 [sp + 0x48]\n 30158: u64 [sp + 0x520] = a0\n 30162: u64 [sp + 1368] = 0\n 30166: u64 [sp + 1360] = 0\n 30170: u64 [sp + 1352] = 0\n 30174: u64 [sp + 1344] = 0\n 30178: u32 [sp + 0x500] = s1\n 30182: i32 a1 = sp + 0x520\n 30186: i32 a3 = sp + 0x540\n 30190: i32 a4 = sp + 0x500\n 30194: a2 = 0xffffffffffffffff\n 30197: a0 = 0\n 30199: ecalli 6 // 'get_storage'\n 30201: a0 = u64 [sp + 0x558]\n 30205: u64 [sp + 0x50] = a0\n 30208: a0 = u64 [sp + 0x550]\n 30212: u64 [sp + 0x58] = a0\n 30215: a0 = u64 [sp + 0x548]\n 30219: u64 [sp + 0x60] = a0\n 30222: a0 = u64 [sp + 0x540]\n 30226: u64 [sp + 0x68] = a0\n 30229: a0 = u64 [sp + 0xc8]\n 30233: a0 = reverse a0\n 30235: a1 = a0 << 0x20\n 30238: a2 = u64 [sp + 0xd8]\n 30242: a2 = reverse a2\n 30244: a2 = a2 >> 0x20\n 30247: a3 = a2 | a1\n 30250: a0 = a0 >> 0x20\n 30253: a1 = u64 [sp + 0xe0]\n 30257: a1 = reverse a1\n 30259: a2 = a1 << 0x20\n 30262: a0 = a0 | a2\n 30265: a1 = a1 >> 0x20\n 30268: u64 [sp + 0x38] = a0\n 30271: u64 [sp + 0x3a8] = a0\n 30275: u64 [sp + 0x48] = a3\n 30278: u64 [sp + 0x3a0] = a3\n 30282: u64 [sp + 0x40] = a1\n 30285: u32 [sp + 0x3b0] = a1\n 30289: i32 a0 = sp + 0x3a0\n 30293: ecalli 5 // 'code_size'\n 30295: fallthrough\n      : @418 (gas: 1)\n 30296: jump @420 if a0 != 0\n      : @419 (gas: 1)\n 30299: jump @485\n      : @420 (gas: 3)\n 30302: a0 = 0x40\n 30305: a1 = 0x20\n 30308: ra = 358, jump @0\n      : @421 [@dyn 179] (gas: 107)\n 30314: a1 = u8 [a0 + 0x11]\n 30317: a2 = u8 [a0 + 0x10]\n 30320: a3 = u8 [a0 + 0x12]\n 30323: a4 = u8 [a0 + 0x13]\n 30326: a1 = a1 << 0x8\n 30329: a1 = a1 | a2\n 30332: a3 = a3 << 0x10\n 30335: a4 = a4 << 0x18\n 30338: a3 = a3 | a4\n 30341: a1 = a1 | a3\n 30344: a2 = u8 [a0 + 0x15]\n 30347: a3 = u8 [a0 + 0x14]\n 30350: a4 = u8 [a0 + 0x16]\n 30353: a5 = u8 [a0 + 0x17]\n 30356: a2 = a2 << 0x8\n 30359: a2 = a2 | a3\n 30362: a4 = a4 << 0x10\n 30365: a5 = a5 << 0x18\n 30368: a4 = a4 | a5\n 30371: a2 = a2 | a4\n 30374: a2 = a2 << 0x20\n 30377: t1 = a2 | a1\n 30380: a1 = u8 [a0 + 0x1]\n 30383: a2 = u8 [a0]\n 30385: a3 = u8 [a0 + 0x2]\n 30388: a4 = u8 [a0 + 0x3]\n 30391: a1 = a1 << 0x8\n 30394: a1 = a1 | a2\n 30397: a3 = a3 << 0x10\n 30400: a4 = a4 << 0x18\n 30403: a3 = a3 | a4\n 30406: a1 = a1 | a3\n 30409: a2 = u8 [a0 + 0x5]\n 30412: a3 = u8 [a0 + 0x4]\n 30415: a4 = u8 [a0 + 0x6]\n 30418: a5 = u8 [a0 + 0x7]\n 30421: a2 = a2 << 0x8\n 30424: a2 = a2 | a3\n 30427: a4 = a4 << 0x10\n 30430: a5 = a5 << 0x18\n 30433: a4 = a4 | a5\n 30436: a2 = a2 | a4\n 30439: a2 = a2 << 0x20\n 30442: t0 = a2 | a1\n 30445: a1 = u8 [a0 + 0x19]\n 30448: a2 = u8 [a0 + 0x18]\n 30451: a3 = u8 [a0 + 0x1a]\n 30454: a4 = u8 [a0 + 0x1b]\n 30457: a1 = a1 << 0x8\n 30460: a1 = a1 | a2\n 30463: a3 = a3 << 0x10\n 30466: a4 = a4 << 0x18\n 30469: a3 = a3 | a4\n 30472: a1 = a1 | a3\n 30475: a2 = u8 [a0 + 0x1d]\n 30478: a3 = u8 [a0 + 0x1c]\n 30481: a4 = u8 [a0 + 0x1e]\n 30484: a5 = u8 [a0 + 0x1f]\n 30487: a2 = a2 << 0x8\n 30490: a2 = a2 | a3\n 30493: a4 = a4 << 0x10\n 30496: a5 = a5 << 0x18\n 30499: a4 = a4 | a5\n 30502: a2 = a2 | a4\n 30505: a2 = a2 << 0x20\n 30508: a5 = a2 | a1\n 30511: a1 = u8 [a0 + 0x9]\n 30514: a2 = u8 [a0 + 0x8]\n 30517: a3 = u8 [a0 + 0xa]\n 30520: a4 = u8 [a0 + 0xb]\n 30523: a1 = a1 << 0x8\n 30526: a1 = a1 | a2\n 30529: a3 = a3 << 0x10\n 30532: a4 = a4 << 0x18\n 30535: a3 = a3 | a4\n 30538: a1 = a1 | a3\n 30541: a2 = u8 [a0 + 0xd]\n 30544: a3 = u8 [a0 + 0xc]\n 30547: a4 = u8 [a0 + 0xe]\n 30550: a0 = u8 [a0 + 0xf]\n 30553: a2 = a2 << 0x8\n 30556: a2 = a2 | a3\n 30559: a4 = a4 << 0x10\n 30562: a0 = a0 << 0x18\n 30565: a0 = a0 | a4\n 30568: a0 = a0 | a2\n 30571: a0 = a0 << 0x20\n 30574: a0 = a0 | a1\n 30577: u64 [sp + 0x10] = a0\n 30580: s1 = reverse a0\n 30582: u64 [sp + 0x18] = a5\n 30585: a1 = reverse a5\n 30587: u64 [sp + 0x30] = t0\n 30590: a2 = reverse t0\n 30592: u64 [sp + 0x28] = t1\n 30595: a0 = reverse t1\n 30597: u64 [sp + 0xd8] = a0\n 30601: u64 [sp + 0xc0] = a2\n 30605: a0 = a0 | a2\n 30608: u64 [sp + 0xe0] = a1\n 30612: a1 = a1 | s1\n 30615: a1 = a1 | a0\n 30618: a1 = a1 >> 0x20\n 30621: a0 = a0 | s1\n 30624: a0 = a0 << 0x20\n 30627: a0 = a0 | a1\n 30630: jump @423 if a0 == 0\n      : @422 (gas: 1)\n 30633: jump @483\n      : @423 (gas: 4)\n 30636: a0 = i32 [sp + 0xe0]\n 30640: a1 = 0x20\n 30643: u64 [sp + 0xc8] = a0\n 30647: ra = 360, jump @0\n      : @424 [@dyn 180] (gas: 44)\n 30653: u8 [a0 + 31] = 0\n 30656: u8 [a0 + 30] = 0\n 30659: u8 [a0 + 29] = 0\n 30662: u8 [a0 + 28] = 0\n 30665: u8 [a0 + 27] = 0\n 30668: u8 [a0 + 26] = 0\n 30671: u8 [a0 + 25] = 0\n 30674: u8 [a0 + 24] = 0\n 30677: u8 [a0 + 23] = 0\n 30680: u8 [a0 + 22] = 0\n 30683: u8 [a0 + 21] = 0\n 30686: u8 [a0 + 20] = 0\n 30689: u8 [a0 + 19] = 0\n 30692: u8 [a0 + 18] = 0\n 30695: u8 [a0 + 17] = 0\n 30698: u8 [a0 + 16] = 0\n 30701: u8 [a0 + 15] = 0\n 30704: u8 [a0 + 14] = 0\n 30707: u8 [a0 + 13] = 0\n 30710: u8 [a0 + 12] = 0\n 30713: u8 [a0 + 11] = 0\n 30716: u8 [a0 + 10] = 0\n 30719: u8 [a0 + 9] = 0\n 30722: u8 [a0 + 8] = 0\n 30725: u8 [a0 + 7] = 0\n 30728: u8 [a0 + 6] = 0\n 30731: u8 [a0 + 5] = 0\n 30734: u8 [a0 + 3] = 0x42\n 30738: u8 [a0 + 2] = 0x24\n 30742: u8 [a0 + 1] = 0x35\n 30746: u8 [a0 + 0] = 0x65\n 30749: a3 = u64 [sp + 0xc0]\n 30753: a3 = a3 | s1\n 30756: a1 = 0x100000000\n 30766: u64 [sp + 0x70] = a1\n 30769: a1 = 0xfffffffc\n 30779: a2 = u64 [sp + 0xe0]\n 30783: a1 = a2 <u a1\n 30786: a2 = u64 [sp + 0xd8]\n 30790: a1 = 0 if a2 != 0\n 30792: u64 [sp + 0xc0] = a3\n 30796: a1 = 0 if a3 != 0\n 30798: u8 [a0 + 4] = 0\n 30801: jump @426 if a1 != 0\n      : @425 (gas: 1)\n 30804: jump @483\n      : @426 (gas: 19)\n 30807: a0 = u64 [sp + 0x90]\n 30811: a0 = reverse a0\n 30813: a1 = a0 >> 0x20\n 30816: a2 = u64 [sp + 0x98]\n 30820: a2 = reverse a2\n 30822: a3 = a2 << 0x20\n 30825: a1 = a1 | a3\n 30828: u64 [sp + 0x98] = a1\n 30832: a0 = a0 << 0x20\n 30835: a1 = u64 [sp + 0xb8]\n 30839: a1 = reverse a1\n 30841: a1 = a1 >> 0x20\n 30844: a0 = a0 | a1\n 30847: u64 [sp + 0xb8] = a0\n 30851: s1 = a2 >> 0x20\n 30854: a0 = u64 [sp + 0xc8]\n 30858: i32 a0 = a0 + 0x4\n 30861: a1 = 0x20\n 30864: ra = 362, jump @0\n      : @427 [@dyn 181] (gas: 64)\n 30870: a1 = reverse s1\n 30872: a2 = u64 [sp + 0x98]\n 30876: a2 = reverse a2\n 30878: a3 = u64 [sp + 0xb8]\n 30882: a3 = reverse a3\n 30884: a4 = a3 >> 0x38\n 30887: u8 [a0 + 0x1f] = a4\n 30890: a4 = a3 >> 0x30\n 30893: u8 [a0 + 0x1e] = a4\n 30896: a4 = a3 >> 0x28\n 30899: u8 [a0 + 0x1d] = a4\n 30902: a4 = a3 >> 0x20\n 30905: u8 [a0 + 0x1c] = a4\n 30908: a4 = a3 >> 0x18\n 30911: u8 [a0 + 0x1b] = a4\n 30914: a4 = a3 >> 0x10\n 30917: u8 [a0 + 0x1a] = a4\n 30920: a4 = a3 >> 0x8\n 30923: u8 [a0 + 0x19] = a4\n 30926: u8 [a0 + 0x18] = a3\n 30929: u8 [a0 + 0x10] = a2\n 30932: u8 [a0 + 11] = 0\n 30935: u8 [a0 + 10] = 0\n 30938: u8 [a0 + 9] = 0\n 30941: u8 [a0 + 7] = 0\n 30944: u8 [a0 + 6] = 0\n 30947: u8 [a0 + 5] = 0\n 30950: u8 [a0 + 4] = 0\n 30953: u8 [a0 + 3] = 0\n 30956: u8 [a0 + 2] = 0\n 30959: u8 [a0 + 1] = 0\n 30962: u8 [a0 + 0] = 0\n 30964: a3 = a2 >> 0x38\n 30967: u8 [a0 + 0x17] = a3\n 30970: a3 = a2 >> 0x30\n 30973: u8 [a0 + 0x16] = a3\n 30976: a3 = a2 >> 0x28\n 30979: u8 [a0 + 0x15] = a3\n 30982: a3 = a2 >> 0x20\n 30985: u8 [a0 + 0x14] = a3\n 30988: a3 = a2 >> 0x18\n 30991: u8 [a0 + 0x13] = a3\n 30994: a3 = a2 >> 0x10\n 30997: u8 [a0 + 0x12] = a3\n 31000: a2 = a2 >> 0x8\n 31003: u8 [a0 + 0x11] = a2\n 31006: u8 [a0 + 0x8] = a1\n 31009: a2 = a1 >> 0x38\n 31012: u8 [a0 + 0xf] = a2\n 31015: a2 = a1 >> 0x30\n 31018: u8 [a0 + 0xe] = a2\n 31021: a2 = a1 >> 0x28\n 31024: u8 [a0 + 0xd] = a2\n 31027: a1 = a1 >> 0x20\n 31030: a2 = u64 [sp + 0x70]\n 31033: a2 = a2 + 0xffffffffffffffdc\n 31036: a3 = u64 [sp + 0xe0]\n 31040: a2 = a3 <u a2\n 31043: a3 = u64 [sp + 0xd8]\n 31047: a2 = 0 if a3 != 0\n 31049: a3 = u64 [sp + 0xc0]\n 31053: a2 = 0 if a3 != 0\n 31055: u8 [a0 + 0xc] = a1\n 31058: jump @429 if a2 != 0\n      : @428 (gas: 1)\n 31061: jump @483\n      : @429 (gas: 4)\n 31064: a0 = u64 [sp + 0xc8]\n 31068: i32 a0 = a0 + 0x24\n 31071: a1 = 0x20\n 31074: ra = 364, jump @0\n      : @430 [@dyn 182] (gas: 65)\n 31080: a1 = u64 [sp + 0x78]\n 31083: a1 = reverse a1\n 31085: a2 = u64 [sp + 0x80]\n 31089: a2 = reverse a2\n 31091: a3 = u64 [sp + 0x88]\n 31095: a3 = reverse a3\n 31097: a4 = a3 >> 0x38\n 31100: u8 [a0 + 0x1f] = a4\n 31103: a4 = a3 >> 0x30\n 31106: u8 [a0 + 0x1e] = a4\n 31109: a4 = a3 >> 0x28\n 31112: u8 [a0 + 0x1d] = a4\n 31115: a4 = a3 >> 0x20\n 31118: u8 [a0 + 0x1c] = a4\n 31121: a4 = a3 >> 0x18\n 31124: u8 [a0 + 0x1b] = a4\n 31127: a4 = a3 >> 0x10\n 31130: u8 [a0 + 0x1a] = a4\n 31133: a4 = a3 >> 0x8\n 31136: u8 [a0 + 0x19] = a4\n 31139: u8 [a0 + 0x18] = a3\n 31142: u8 [a0 + 0x10] = a2\n 31145: u8 [a0 + 11] = 0\n 31148: u8 [a0 + 10] = 0\n 31151: u8 [a0 + 9] = 0\n 31154: u8 [a0 + 7] = 0\n 31157: u8 [a0 + 6] = 0\n 31160: u8 [a0 + 5] = 0\n 31163: u8 [a0 + 4] = 0\n 31166: u8 [a0 + 3] = 0\n 31169: u8 [a0 + 2] = 0\n 31172: u8 [a0 + 1] = 0\n 31175: u8 [a0 + 0] = 0\n 31177: a3 = a2 >> 0x38\n 31180: u8 [a0 + 0x17] = a3\n 31183: a3 = a2 >> 0x30\n 31186: u8 [a0 + 0x16] = a3\n 31189: a3 = a2 >> 0x28\n 31192: u8 [a0 + 0x15] = a3\n 31195: a3 = a2 >> 0x20\n 31198: u8 [a0 + 0x14] = a3\n 31201: a3 = a2 >> 0x18\n 31204: u8 [a0 + 0x13] = a3\n 31207: a3 = a2 >> 0x10\n 31210: u8 [a0 + 0x12] = a3\n 31213: a2 = a2 >> 0x8\n 31216: u8 [a0 + 0x11] = a2\n 31219: u8 [a0 + 0x8] = a1\n 31222: a2 = a1 >> 0x38\n 31225: u8 [a0 + 0xf] = a2\n 31228: a2 = a1 >> 0x30\n 31231: u8 [a0 + 0xe] = a2\n 31234: a2 = a1 >> 0x28\n 31237: u8 [a0 + 0xd] = a2\n 31240: a1 = a1 >> 0x20\n 31243: s1 = 0x100000000\n 31253: a2 = 0xffffffbc\n 31263: a3 = u64 [sp + 0xe0]\n 31267: a2 = a3 <u a2\n 31270: a3 = u64 [sp + 0xd8]\n 31274: a2 = 0 if a3 != 0\n 31276: a3 = u64 [sp + 0xc0]\n 31280: a2 = 0 if a3 != 0\n 31282: u8 [a0 + 0xc] = a1\n 31285: jump @432 if a2 != 0\n      : @431 (gas: 1)\n 31288: jump @483\n      : @432 (gas: 4)\n 31291: a0 = u64 [sp + 0xc8]\n 31295: i32 a0 = a0 + 0x44\n 31298: a1 = 0x20\n 31301: ra = 366, jump @0\n      : @433 [@dyn 183] (gas: 76)\n 31307: a1 = u64 [sp + 0x50]\n 31310: a1 = reverse a1\n 31312: a2 = u64 [sp + 0x58]\n 31315: a2 = reverse a2\n 31317: a3 = u64 [sp + 0x60]\n 31320: a3 = reverse a3\n 31322: a4 = u64 [sp + 0x68]\n 31325: a4 = reverse a4\n 31327: a5 = a4 >> 0x38\n 31330: u8 [a0 + 0x1f] = a5\n 31333: a5 = a4 >> 0x30\n 31336: u8 [a0 + 0x1e] = a5\n 31339: a5 = a4 >> 0x28\n 31342: u8 [a0 + 0x1d] = a5\n 31345: a5 = a4 >> 0x20\n 31348: u8 [a0 + 0x1c] = a5\n 31351: a5 = a4 >> 0x18\n 31354: u8 [a0 + 0x1b] = a5\n 31357: a5 = a4 >> 0x10\n 31360: u8 [a0 + 0x1a] = a5\n 31363: a5 = a4 >> 0x8\n 31366: u8 [a0 + 0x19] = a5\n 31369: u8 [a0 + 0x18] = a4\n 31372: u8 [a0 + 0x10] = a3\n 31375: a4 = a3 >> 0x38\n 31378: u8 [a0 + 0x17] = a4\n 31381: a4 = a3 >> 0x30\n 31384: u8 [a0 + 0x16] = a4\n 31387: a4 = a3 >> 0x28\n 31390: u8 [a0 + 0x15] = a4\n 31393: a4 = a3 >> 0x20\n 31396: u8 [a0 + 0x14] = a4\n 31399: a4 = a3 >> 0x18\n 31402: u8 [a0 + 0x13] = a4\n 31405: a4 = a3 >> 0x10\n 31408: u8 [a0 + 0x12] = a4\n 31411: a3 = a3 >> 0x8\n 31414: u8 [a0 + 0x11] = a3\n 31417: u8 [a0 + 0x8] = a2\n 31420: a3 = a2 >> 0x38\n 31423: u8 [a0 + 0xf] = a3\n 31426: a3 = a2 >> 0x30\n 31429: u8 [a0 + 0xe] = a3\n 31432: a3 = a2 >> 0x28\n 31435: u8 [a0 + 0xd] = a3\n 31438: a3 = a2 >> 0x20\n 31441: u8 [a0 + 0xc] = a3\n 31444: a3 = a2 >> 0x18\n 31447: u8 [a0 + 0xb] = a3\n 31450: a3 = a2 >> 0x10\n 31453: u8 [a0 + 0xa] = a3\n 31456: a2 = a2 >> 0x8\n 31459: u8 [a0 + 0x9] = a2\n 31462: u8 [a0] = a1\n 31464: a2 = a1 >> 0x38\n 31467: u8 [a0 + 0x7] = a2\n 31470: a2 = a1 >> 0x30\n 31473: u8 [a0 + 0x6] = a2\n 31476: a2 = a1 >> 0x28\n 31479: u8 [a0 + 0x5] = a2\n 31482: a2 = a1 >> 0x20\n 31485: u8 [a0 + 0x4] = a2\n 31488: a2 = a1 >> 0x18\n 31491: u8 [a0 + 0x3] = a2\n 31494: a2 = a1 >> 0x10\n 31497: u8 [a0 + 0x2] = a2\n 31500: a1 = a1 >> 0x8\n 31503: a2 = s1 + 0xffffffffffffff9c\n 31506: a3 = u64 [sp + 0xe0]\n 31510: a2 = a3 <u a2\n 31513: a3 = u64 [sp + 0xd8]\n 31517: a2 = 0 if a3 != 0\n 31519: a3 = u64 [sp + 0xc0]\n 31523: a2 = 0 if a3 != 0\n 31525: u8 [a0 + 0x1] = a1\n 31528: jump @435 if a2 != 0\n      : @434 (gas: 1)\n 31531: jump @483\n      : @435 (gas: 8)\n 31534: a0 = 0x8400000000\n 31544: u64 [sp + 0xd8] = a0\n 31548: a0 = 0x800000000\n 31558: u64 [sp + 0xc0] = a0\n 31562: s1 = u64 [sp + 0xc8]\n 31566: i32 a0 = s1 + 0x64\n 31569: a1 = 0x20\n 31572: ra = 368, jump @0\n      : @436 [@dyn 184] (gas: 46)\n 31578: u8 [a0 + 31] = 0x1\n 31582: u8 [a0 + 30] = 0\n 31585: u8 [a0 + 29] = 0\n 31588: u8 [a0 + 28] = 0\n 31591: u8 [a0 + 27] = 0\n 31594: u8 [a0 + 26] = 0\n 31597: u8 [a0 + 25] = 0\n 31600: u8 [a0 + 24] = 0\n 31603: u8 [a0 + 23] = 0\n 31606: u8 [a0 + 22] = 0\n 31609: u8 [a0 + 21] = 0\n 31612: u8 [a0 + 20] = 0\n 31615: u8 [a0 + 19] = 0\n 31618: u8 [a0 + 18] = 0\n 31621: u8 [a0 + 17] = 0\n 31624: u8 [a0 + 16] = 0\n 31627: u8 [a0 + 15] = 0\n 31630: u8 [a0 + 14] = 0\n 31633: u8 [a0 + 13] = 0\n 31636: u8 [a0 + 12] = 0\n 31639: u8 [a0 + 11] = 0\n 31642: u8 [a0 + 10] = 0\n 31645: u8 [a0 + 9] = 0\n 31648: u8 [a0 + 8] = 0\n 31651: u8 [a0 + 7] = 0\n 31654: u8 [a0 + 6] = 0\n 31657: u8 [a0 + 5] = 0\n 31660: u8 [a0 + 4] = 0\n 31663: u8 [a0 + 3] = 0\n 31666: u8 [a0 + 2] = 0\n 31669: u8 [a0 + 1] = 0\n 31672: u8 [a0 + 0] = 0\n 31674: ecalli 8 // 'ref_time_left'\n 31676: a0 = u64 [sp + 0x38]\n 31679: u64 [sp + 0x3c8] = a0\n 31683: a0 = u64 [sp + 0x48]\n 31686: u64 [sp + 0x3c0] = a0\n 31690: a0 = u64 [sp + 0x40]\n 31693: u32 [sp + 0x3d0] = a0\n 31697: u64 [sp + 1016] = 0\n 31701: u64 [sp + 1008] = 0\n 31705: u64 [sp + 1000] = 0\n 31709: u64 [sp + 992] = 0\n 31713: a1 = 0x84\n 31717: a0 = s1\n 31719: ra = 370, jump @0\n      : @437 [@dyn 185] (gas: 4)\n 31725: u64 [sp + 0xe0] = a0\n 31729: a0 = s1\n 31731: a1 = 0\n 31733: ra = 372, jump @0\n      : @438 [@dyn 186] (gas: 31)\n 31739: u32 [sp + 1024] = 0\n 31743: u64 [sp + 1080] = 0xffffffffffffffff\n 31748: u64 [sp + 1072] = 0xffffffffffffffff\n 31753: u64 [sp + 1064] = 0xffffffffffffffff\n 31758: u64 [sp + 1056] = 0xffffffffffffffff\n 31763: a1 = sp + 0x3c0\n 31767: a1 = a1 << 0x20\n 31770: a1 = a1 >> 0x20\n 31773: s1 = u64 [sp + 0xc0]\n 31777: s1 = s1 | a1\n 31780: a1 = sp + 0x3e0\n 31784: a1 = a1 << 0x20\n 31787: a1 = a1 >> 0x20\n 31790: a2 = sp + 0x420\n 31794: a2 = a2 << 0x20\n 31797: a3 = a2 | a1\n 31800: a1 = u64 [sp + 0xe0]\n 31804: a1 = a1 << 0x20\n 31807: a1 = a1 >> 0x20\n 31810: a4 = u64 [sp + 0xd8]\n 31814: a4 = a4 | a1\n 31817: a0 = a0 << 0x20\n 31820: a0 = a0 >> 0x20\n 31823: a1 = sp + 0x400\n 31827: a1 = a1 << 0x20\n 31830: a5 = a1 | a0\n 31833: a1 = 0xffffffffffffffff\n 31836: a2 = 0xffffffffffffffff\n 31839: a0 = s1\n 31841: ecalli 0 // 'call'\n 31842: fallthrough\n      : @439 (gas: 1)\n 31843: jump @461 if a0 != 0\n      : @440 (gas: 4)\n 31847: ecalli 10 // 'return_data_size'\n 31849: a0 = 0x40\n 31852: a1 = 0x20\n 31855: ra = 374, jump @0\n      : @441 [@dyn 187] (gas: 174)\n 31861: a3 = u64 [sp + 0x18]\n 31864: u8 [a0 + 0x18] = a3\n 31867: a2 = u64 [sp + 0x28]\n 31870: a1 = a2 >> 0x38\n 31873: u8 [a0 + 0x17] = a1\n 31876: a1 = a2 >> 0x30\n 31879: u8 [a0 + 0x16] = a1\n 31882: a1 = a2 >> 0x28\n 31885: u8 [a0 + 0x15] = a1\n 31888: a1 = a2 >> 0x20\n 31891: u8 [a0 + 0x14] = a1\n 31894: a1 = a2 >> 0x18\n 31897: u8 [a0 + 0x13] = a1\n 31900: a1 = a2 >> 0x10\n 31903: u8 [a0 + 0x12] = a1\n 31906: a1 = a2 >> 0x8\n 31909: u8 [a0 + 0x11] = a1\n 31912: u8 [a0 + 0x10] = a2\n 31915: a2 = u64 [sp + 0x10]\n 31918: a1 = a2 >> 0x38\n 31921: u8 [a0 + 0xf] = a1\n 31924: a1 = a2 >> 0x30\n 31927: u8 [a0 + 0xe] = a1\n 31930: a1 = a2 >> 0x28\n 31933: u8 [a0 + 0xd] = a1\n 31936: a1 = a2 >> 0x20\n 31939: u8 [a0 + 0xc] = a1\n 31942: a1 = a2 >> 0x18\n 31945: u8 [a0 + 0xb] = a1\n 31948: a1 = a2 >> 0x10\n 31951: u8 [a0 + 0xa] = a1\n 31954: a1 = a2 >> 0x8\n 31957: u8 [a0 + 0x9] = a1\n 31960: u8 [a0 + 0x8] = a2\n 31963: a2 = u64 [sp + 0x30]\n 31966: a1 = a2 >> 0x38\n 31969: u8 [a0 + 0x7] = a1\n 31972: a1 = a2 >> 0x30\n 31975: u8 [a0 + 0x6] = a1\n 31978: a1 = a2 >> 0x28\n 31981: u8 [a0 + 0x5] = a1\n 31984: a1 = a2 >> 0x20\n 31987: u8 [a0 + 0x4] = a1\n 31990: a1 = a2 >> 0x18\n 31993: u8 [a0 + 0x3] = a1\n 31996: a1 = a2 >> 0x10\n 31999: u8 [a0 + 0x2] = a1\n 32002: a1 = a2 >> 0x8\n 32005: u8 [a0 + 0x1] = a1\n 32008: u8 [a0] = a2\n 32010: a1 = a3 >> 0x38\n 32013: u8 [a0 + 0x1f] = a1\n 32016: a1 = a3 >> 0x30\n 32019: u8 [a0 + 0x1e] = a1\n 32022: a1 = a3 >> 0x28\n 32025: u8 [a0 + 0x1d] = a1\n 32028: a1 = a3 >> 0x20\n 32031: u8 [a0 + 0x1c] = a1\n 32034: a1 = a3 >> 0x18\n 32037: u8 [a0 + 0x1b] = a1\n 32040: a1 = a3 >> 0x10\n 32043: u8 [a0 + 0x1a] = a1\n 32046: a1 = a3 >> 0x8\n 32049: u8 [a0 + 0x19] = a1\n 32052: u64 [sp + 1336] = 0\n 32056: u64 [sp + 1328] = 0\n 32060: u64 [sp + 1320] = 0\n 32064: u64 [sp + 1312] = 0x1\n 32069: u64 [sp + 1368] = 0\n 32073: u64 [sp + 1360] = 0\n 32077: u64 [sp + 1352] = 0\n 32081: u64 [sp + 1344] = 0\n 32085: u32 [sp + 1280] = 0x20\n 32090: i32 a1 = sp + 0x520\n 32094: i32 a3 = sp + 0x540\n 32098: i32 a4 = sp + 0x500\n 32102: a2 = 0xffffffffffffffff\n 32105: a0 = 0\n 32107: ecalli 6 // 'get_storage'\n 32109: a0 = u64 [sp + 0x540]\n 32113: u64 [sp + 0xe0] = a0\n 32117: a0 = u64 [sp + 0x550]\n 32121: u64 [sp + 0xc8] = a0\n 32125: a0 = u64 [sp + 0x548]\n 32129: u64 [sp + 0xb8] = a0\n 32133: a0 = u64 [sp + 0xf8]\n 32137: u64 [sp + 0x538] = a0\n 32141: s1 = u64 [sp + 0xd0]\n 32145: u64 [sp + 0x530] = s1\n 32149: a0 = u64 [sp + 0xe8]\n 32153: u64 [sp + 0x528] = a0\n 32157: a0 = u64 [sp + 0xf0]\n 32161: u64 [sp + 0x520] = a0\n 32165: u64 [sp + 1368] = 0\n 32169: u64 [sp + 1360] = 0\n 32173: u64 [sp + 1352] = 0\n 32177: u64 [sp + 1344] = 0\n 32181: u32 [sp + 1280] = 0x20\n 32186: i32 a1 = sp + 0x520\n 32190: i32 a3 = sp + 0x540\n 32194: i32 a4 = sp + 0x500\n 32198: a2 = 0xffffffffffffffff\n 32201: a0 = 0\n 32203: ecalli 6 // 'get_storage'\n 32205: a0 = u64 [sp + 0x540]\n 32209: u64 [sp + 0x98] = a0\n 32213: a0 = u64 [sp + 0x548]\n 32217: u64 [sp + 0x90] = a0\n 32221: a0 = u64 [sp + 0x550]\n 32225: u64 [sp + 0x88] = a0\n 32229: i32 a0 = sp + 0x440\n 32233: ecalli 4 // 'caller'\n 32235: a0 = i32 [sp + 0x450]\n 32239: u64 [sp + 0x80] = a0\n 32243: a0 = u64 [sp + 0x440]\n 32247: u64 [sp + 0x78] = a0\n 32250: a0 = u64 [sp + 0x448]\n 32254: u64 [sp + 0x70] = a0\n 32257: a0 = u64 [sp + 0xf0]\n 32261: a0 = a0 + 0x1\n 32264: a1 = a0 <u 0x1\n 32267: a2 = u64 [sp + 0xe8]\n 32271: a1 = a1 + a2\n 32274: a2 = a0 | a1\n 32277: a2 = a2 <u 0x1\n 32280: a2 = a2 + s1\n 32283: a3 = a2 <u s1\n 32286: a4 = u64 [sp + 0xf8]\n 32290: a3 = a3 + a4\n 32293: u64 [sp + 0x538] = a3\n 32297: u64 [sp + 0x530] = a2\n 32301: u64 [sp + 0x528] = a1\n 32305: u64 [sp + 0x520] = a0\n 32309: u64 [sp + 1368] = 0\n 32313: u64 [sp + 1360] = 0\n 32317: u64 [sp + 1352] = 0\n 32321: u64 [sp + 1344] = 0\n 32325: u32 [sp + 1280] = 0x20\n 32330: i32 a1 = sp + 0x520\n 32334: i32 a3 = sp + 0x540\n 32338: i32 a4 = sp + 0x500\n 32342: a2 = 0xffffffffffffffff\n 32345: a0 = 0\n 32347: ecalli 6 // 'get_storage'\n 32349: a0 = u64 [sp + 0x558]\n 32353: u64 [sp + 0x50] = a0\n 32356: a0 = u64 [sp + 0x550]\n 32360: u64 [sp + 0x58] = a0\n 32363: a0 = u64 [sp + 0x548]\n 32367: u64 [sp + 0x60] = a0\n 32370: a0 = u64 [sp + 0x540]\n 32374: u64 [sp + 0x68] = a0\n 32377: a0 = u64 [sp + 0xb8]\n 32381: a0 = reverse a0\n 32383: a1 = a0 << 0x20\n 32386: a2 = u64 [sp + 0xc8]\n 32390: a2 = reverse a2\n 32392: a2 = a2 >> 0x20\n 32395: a3 = a2 | a1\n 32398: a0 = a0 >> 0x20\n 32401: a1 = u64 [sp + 0xe0]\n 32405: a1 = reverse a1\n 32407: a2 = a1 << 0x20\n 32410: a0 = a0 | a2\n 32413: a1 = a1 >> 0x20\n 32416: u64 [sp + 0x38] = a0\n 32419: u64 [sp + 0x468] = a0\n 32423: u64 [sp + 0x48] = a3\n 32426: u64 [sp + 0x460] = a3\n 32430: u64 [sp + 0x40] = a1\n 32433: u32 [sp + 0x470] = a1\n 32437: i32 a0 = sp + 0x460\n 32441: ecalli 5 // 'code_size'\n 32443: fallthrough\n      : @442 (gas: 1)\n 32444: jump @444 if a0 != 0\n      : @443 (gas: 1)\n 32447: jump @485\n      : @444 (gas: 3)\n 32450: a0 = 0x40\n 32453: a1 = 0x20\n 32456: ra = 376, jump @0\n      : @445 [@dyn 188] (gas: 107)\n 32462: a1 = u8 [a0 + 0x11]\n 32465: a2 = u8 [a0 + 0x10]\n 32468: a3 = u8 [a0 + 0x12]\n 32471: a4 = u8 [a0 + 0x13]\n 32474: a1 = a1 << 0x8\n 32477: a1 = a1 | a2\n 32480: a3 = a3 << 0x10\n 32483: a4 = a4 << 0x18\n 32486: a3 = a3 | a4\n 32489: a1 = a1 | a3\n 32492: a2 = u8 [a0 + 0x15]\n 32495: a3 = u8 [a0 + 0x14]\n 32498: a4 = u8 [a0 + 0x16]\n 32501: a5 = u8 [a0 + 0x17]\n 32504: a2 = a2 << 0x8\n 32507: a2 = a2 | a3\n 32510: a4 = a4 << 0x10\n 32513: a5 = a5 << 0x18\n 32516: a4 = a4 | a5\n 32519: a2 = a2 | a4\n 32522: a2 = a2 << 0x20\n 32525: t1 = a2 | a1\n 32528: a1 = u8 [a0 + 0x1]\n 32531: a2 = u8 [a0]\n 32533: a3 = u8 [a0 + 0x2]\n 32536: a4 = u8 [a0 + 0x3]\n 32539: a1 = a1 << 0x8\n 32542: a1 = a1 | a2\n 32545: a3 = a3 << 0x10\n 32548: a4 = a4 << 0x18\n 32551: a3 = a3 | a4\n 32554: a1 = a1 | a3\n 32557: a2 = u8 [a0 + 0x5]\n 32560: a3 = u8 [a0 + 0x4]\n 32563: a4 = u8 [a0 + 0x6]\n 32566: a5 = u8 [a0 + 0x7]\n 32569: a2 = a2 << 0x8\n 32572: a2 = a2 | a3\n 32575: a4 = a4 << 0x10\n 32578: a5 = a5 << 0x18\n 32581: a4 = a4 | a5\n 32584: a2 = a2 | a4\n 32587: a2 = a2 << 0x20\n 32590: t0 = a2 | a1\n 32593: a1 = u8 [a0 + 0x19]\n 32596: a2 = u8 [a0 + 0x18]\n 32599: a3 = u8 [a0 + 0x1a]\n 32602: a4 = u8 [a0 + 0x1b]\n 32605: a1 = a1 << 0x8\n 32608: a1 = a1 | a2\n 32611: a3 = a3 << 0x10\n 32614: a4 = a4 << 0x18\n 32617: a3 = a3 | a4\n 32620: a1 = a1 | a3\n 32623: a2 = u8 [a0 + 0x1d]\n 32626: a3 = u8 [a0 + 0x1c]\n 32629: a4 = u8 [a0 + 0x1e]\n 32632: a5 = u8 [a0 + 0x1f]\n 32635: a2 = a2 << 0x8\n 32638: a2 = a2 | a3\n 32641: a4 = a4 << 0x10\n 32644: a5 = a5 << 0x18\n 32647: a4 = a4 | a5\n 32650: a2 = a2 | a4\n 32653: a2 = a2 << 0x20\n 32656: a5 = a2 | a1\n 32659: a1 = u8 [a0 + 0x9]\n 32662: a2 = u8 [a0 + 0x8]\n 32665: a3 = u8 [a0 + 0xa]\n 32668: a4 = u8 [a0 + 0xb]\n 32671: a1 = a1 << 0x8\n 32674: a1 = a1 | a2\n 32677: a3 = a3 << 0x10\n 32680: a4 = a4 << 0x18\n 32683: a3 = a3 | a4\n 32686: a1 = a1 | a3\n 32689: a2 = u8 [a0 + 0xd]\n 32692: a3 = u8 [a0 + 0xc]\n 32695: a4 = u8 [a0 + 0xe]\n 32698: a0 = u8 [a0 + 0xf]\n 32701: a2 = a2 << 0x8\n 32704: a2 = a2 | a3\n 32707: a4 = a4 << 0x10\n 32710: a0 = a0 << 0x18\n 32713: a0 = a0 | a4\n 32716: a0 = a0 | a2\n 32719: a0 = a0 << 0x20\n 32722: a0 = a0 | a1\n 32725: u64 [sp + 0x10] = a0\n 32728: s1 = reverse a0\n 32730: u64 [sp + 0x18] = a5\n 32733: a1 = reverse a5\n 32735: u64 [sp + 0x30] = t0\n 32738: a2 = reverse t0\n 32740: u64 [sp + 0x28] = t1\n 32743: a0 = reverse t1\n 32745: u64 [sp + 0xf0] = a0\n 32749: u64 [sp + 0xe0] = a2\n 32753: a0 = a0 | a2\n 32756: u64 [sp + 0xf8] = a1\n 32760: a1 = a1 | s1\n 32763: a1 = a1 | a0\n 32766: a1 = a1 >> 0x20\n 32769: a0 = a0 | s1\n 32772: a0 = a0 << 0x20\n 32775: a0 = a0 | a1\n 32778: jump @483 if a0 != 0\n      : @446 (gas: 4)\n 32782: a0 = i32 [sp + 0xf8]\n 32786: a1 = 0x20\n 32789: u64 [sp + 0xe8] = a0\n 32793: ra = 378, jump @0\n      : @447 [@dyn 189] (gas: 44)\n 32800: u8 [a0 + 31] = 0\n 32803: u8 [a0 + 30] = 0\n 32806: u8 [a0 + 29] = 0\n 32809: u8 [a0 + 28] = 0\n 32812: u8 [a0 + 27] = 0\n 32815: u8 [a0 + 26] = 0\n 32818: u8 [a0 + 25] = 0\n 32821: u8 [a0 + 24] = 0\n 32824: u8 [a0 + 23] = 0\n 32827: u8 [a0 + 22] = 0\n 32830: u8 [a0 + 21] = 0\n 32833: u8 [a0 + 20] = 0\n 32836: u8 [a0 + 19] = 0\n 32839: u8 [a0 + 18] = 0\n 32842: u8 [a0 + 17] = 0\n 32845: u8 [a0 + 16] = 0\n 32848: u8 [a0 + 15] = 0\n 32851: u8 [a0 + 14] = 0\n 32854: u8 [a0 + 13] = 0\n 32857: u8 [a0 + 12] = 0\n 32860: u8 [a0 + 11] = 0\n 32863: u8 [a0 + 10] = 0\n 32866: u8 [a0 + 9] = 0\n 32869: u8 [a0 + 8] = 0\n 32872: u8 [a0 + 7] = 0\n 32875: u8 [a0 + 6] = 0\n 32878: u8 [a0 + 5] = 0\n 32881: u8 [a0 + 3] = 0x42\n 32885: u8 [a0 + 2] = 0x24\n 32889: u8 [a0 + 1] = 0x35\n 32893: u8 [a0 + 0] = 0x65\n 32896: a3 = u64 [sp + 0xe0]\n 32900: a3 = a3 | s1\n 32903: a1 = 0x100000000\n 32913: u64 [sp + 0xd0] = a1\n 32917: a1 = 0xfffffffc\n 32927: a2 = u64 [sp + 0xf8]\n 32931: a1 = a2 <u a1\n 32934: a2 = u64 [sp + 0xf0]\n 32938: a1 = 0 if a2 != 0\n 32940: u64 [sp + 0xe0] = a3\n 32944: a1 = 0 if a3 != 0\n 32946: u8 [a0 + 4] = 0\n 32949: jump @483 if a1 == 0\n      : @448 (gas: 13)\n 32953: a0 = 0xffffffff\n 32963: s1 = u64 [sp + 0x88]\n 32967: s1 = s1 & a0\n 32970: a0 = u64 [sp + 0x90]\n 32974: a0 = a0 & 0xffffffffffffffff\n 32977: u64 [sp + 0xb8] = a0\n 32981: a0 = u64 [sp + 0x98]\n 32985: a0 = a0 & 0xffffffffffffffff\n 32988: u64 [sp + 0xc8] = a0\n 32992: a0 = u64 [sp + 0xe8]\n 32996: i32 a0 = a0 + 0x4\n 32999: a1 = 0x20\n 33002: ra = 380, jump @0\n      : @449 [@dyn 190] (gas: 64)\n 33009: a1 = reverse s1\n 33011: a2 = u64 [sp + 0xb8]\n 33015: a2 = reverse a2\n 33017: a3 = u64 [sp + 0xc8]\n 33021: a3 = reverse a3\n 33023: a4 = a3 >> 0x38\n 33026: u8 [a0 + 0x1f] = a4\n 33029: a4 = a3 >> 0x30\n 33032: u8 [a0 + 0x1e] = a4\n 33035: a4 = a3 >> 0x28\n 33038: u8 [a0 + 0x1d] = a4\n 33041: a4 = a3 >> 0x20\n 33044: u8 [a0 + 0x1c] = a4\n 33047: a4 = a3 >> 0x18\n 33050: u8 [a0 + 0x1b] = a4\n 33053: a4 = a3 >> 0x10\n 33056: u8 [a0 + 0x1a] = a4\n 33059: a4 = a3 >> 0x8\n 33062: u8 [a0 + 0x19] = a4\n 33065: u8 [a0 + 0x18] = a3\n 33068: u8 [a0 + 0x10] = a2\n 33071: u8 [a0 + 11] = 0\n 33074: u8 [a0 + 10] = 0\n 33077: u8 [a0 + 9] = 0\n 33080: u8 [a0 + 7] = 0\n 33083: u8 [a0 + 6] = 0\n 33086: u8 [a0 + 5] = 0\n 33089: u8 [a0 + 4] = 0\n 33092: u8 [a0 + 3] = 0\n 33095: u8 [a0 + 2] = 0\n 33098: u8 [a0 + 1] = 0\n 33101: u8 [a0 + 0] = 0\n 33103: a3 = a2 >> 0x38\n 33106: u8 [a0 + 0x17] = a3\n 33109: a3 = a2 >> 0x30\n 33112: u8 [a0 + 0x16] = a3\n 33115: a3 = a2 >> 0x28\n 33118: u8 [a0 + 0x15] = a3\n 33121: a3 = a2 >> 0x20\n 33124: u8 [a0 + 0x14] = a3\n 33127: a3 = a2 >> 0x18\n 33130: u8 [a0 + 0x13] = a3\n 33133: a3 = a2 >> 0x10\n 33136: u8 [a0 + 0x12] = a3\n 33139: a2 = a2 >> 0x8\n 33142: u8 [a0 + 0x11] = a2\n 33145: u8 [a0 + 0x8] = a1\n 33148: a2 = a1 >> 0x38\n 33151: u8 [a0 + 0xf] = a2\n 33154: a2 = a1 >> 0x30\n 33157: u8 [a0 + 0xe] = a2\n 33160: a2 = a1 >> 0x28\n 33163: u8 [a0 + 0xd] = a2\n 33166: a1 = a1 >> 0x20\n 33169: a2 = u64 [sp + 0xd0]\n 33173: a2 = a2 + 0xffffffffffffffdc\n 33176: a3 = u64 [sp + 0xf8]\n 33180: a2 = a3 <u a2\n 33183: a3 = u64 [sp + 0xf0]\n 33187: a2 = 0 if a3 != 0\n 33189: a3 = u64 [sp + 0xe0]\n 33193: a2 = 0 if a3 != 0\n 33195: u8 [a0 + 0xc] = a1\n 33198: jump @483 if a2 == 0\n      : @450 (gas: 19)\n 33202: a0 = u64 [sp + 0x70]\n 33205: a0 = reverse a0\n 33207: a1 = a0 >> 0x20\n 33210: a2 = u64 [sp + 0x78]\n 33213: a2 = reverse a2\n 33215: a3 = a2 << 0x20\n 33218: a1 = a1 | a3\n 33221: u64 [sp + 0xd0] = a1\n 33225: a0 = a0 << 0x20\n 33228: a1 = u64 [sp + 0x80]\n 33232: a1 = reverse a1\n 33234: a1 = a1 >> 0x20\n 33237: a0 = a0 | a1\n 33240: u64 [sp + 0xc8] = a0\n 33244: s1 = a2 >> 0x20\n 33247: a0 = u64 [sp + 0xe8]\n 33251: i32 a0 = a0 + 0x24\n 33254: a1 = 0x20\n 33257: ra = 382, jump @0\n      : @451 [@dyn 191] (gas: 64)\n 33264: a1 = reverse s1\n 33266: a2 = u64 [sp + 0xd0]\n 33270: a2 = reverse a2\n 33272: a3 = u64 [sp + 0xc8]\n 33276: a3 = reverse a3\n 33278: a4 = a3 >> 0x38\n 33281: u8 [a0 + 0x1f] = a4\n 33284: a4 = a3 >> 0x30\n 33287: u8 [a0 + 0x1e] = a4\n 33290: a4 = a3 >> 0x28\n 33293: u8 [a0 + 0x1d] = a4\n 33296: a4 = a3 >> 0x20\n 33299: u8 [a0 + 0x1c] = a4\n 33302: a4 = a3 >> 0x18\n 33305: u8 [a0 + 0x1b] = a4\n 33308: a4 = a3 >> 0x10\n 33311: u8 [a0 + 0x1a] = a4\n 33314: a4 = a3 >> 0x8\n 33317: u8 [a0 + 0x19] = a4\n 33320: u8 [a0 + 0x18] = a3\n 33323: u8 [a0 + 0x10] = a2\n 33326: u8 [a0 + 11] = 0\n 33329: u8 [a0 + 10] = 0\n 33332: u8 [a0 + 9] = 0\n 33335: u8 [a0 + 7] = 0\n 33338: u8 [a0 + 6] = 0\n 33341: u8 [a0 + 5] = 0\n 33344: u8 [a0 + 4] = 0\n 33347: u8 [a0 + 3] = 0\n 33350: u8 [a0 + 2] = 0\n 33353: u8 [a0 + 1] = 0\n 33356: u8 [a0 + 0] = 0\n 33358: a3 = a2 >> 0x38\n 33361: u8 [a0 + 0x17] = a3\n 33364: a3 = a2 >> 0x30\n 33367: u8 [a0 + 0x16] = a3\n 33370: a3 = a2 >> 0x28\n 33373: u8 [a0 + 0x15] = a3\n 33376: a3 = a2 >> 0x20\n 33379: u8 [a0 + 0x14] = a3\n 33382: a3 = a2 >> 0x18\n 33385: u8 [a0 + 0x13] = a3\n 33388: a3 = a2 >> 0x10\n 33391: u8 [a0 + 0x12] = a3\n 33394: a2 = a2 >> 0x8\n 33397: u8 [a0 + 0x11] = a2\n 33400: u8 [a0 + 0x8] = a1\n 33403: a2 = a1 >> 0x38\n 33406: u8 [a0 + 0xf] = a2\n 33409: a2 = a1 >> 0x30\n 33412: u8 [a0 + 0xe] = a2\n 33415: a2 = a1 >> 0x28\n 33418: u8 [a0 + 0xd] = a2\n 33421: a1 = a1 >> 0x20\n 33424: s1 = 0x100000000\n 33434: a2 = 0xffffffbc\n 33444: a3 = u64 [sp + 0xf8]\n 33448: a2 = a3 <u a2\n 33451: a3 = u64 [sp + 0xf0]\n 33455: a2 = 0 if a3 != 0\n 33457: a3 = u64 [sp + 0xe0]\n 33461: a2 = 0 if a3 != 0\n 33463: u8 [a0 + 0xc] = a1\n 33466: jump @483 if a2 == 0\n      : @452 (gas: 4)\n 33470: a0 = u64 [sp + 0xe8]\n 33474: i32 a0 = a0 + 0x44\n 33477: a1 = 0x20\n 33480: ra = 384, jump @0\n      : @453 [@dyn 192] (gas: 76)\n 33487: a1 = u64 [sp + 0x50]\n 33490: a1 = reverse a1\n 33492: a2 = u64 [sp + 0x58]\n 33495: a2 = reverse a2\n 33497: a3 = u64 [sp + 0x60]\n 33500: a3 = reverse a3\n 33502: a4 = u64 [sp + 0x68]\n 33505: a4 = reverse a4\n 33507: a5 = a4 >> 0x38\n 33510: u8 [a0 + 0x1f] = a5\n 33513: a5 = a4 >> 0x30\n 33516: u8 [a0 + 0x1e] = a5\n 33519: a5 = a4 >> 0x28\n 33522: u8 [a0 + 0x1d] = a5\n 33525: a5 = a4 >> 0x20\n 33528: u8 [a0 + 0x1c] = a5\n 33531: a5 = a4 >> 0x18\n 33534: u8 [a0 + 0x1b] = a5\n 33537: a5 = a4 >> 0x10\n 33540: u8 [a0 + 0x1a] = a5\n 33543: a5 = a4 >> 0x8\n 33546: u8 [a0 + 0x19] = a5\n 33549: u8 [a0 + 0x18] = a4\n 33552: u8 [a0 + 0x10] = a3\n 33555: a4 = a3 >> 0x38\n 33558: u8 [a0 + 0x17] = a4\n 33561: a4 = a3 >> 0x30\n 33564: u8 [a0 + 0x16] = a4\n 33567: a4 = a3 >> 0x28\n 33570: u8 [a0 + 0x15] = a4\n 33573: a4 = a3 >> 0x20\n 33576: u8 [a0 + 0x14] = a4\n 33579: a4 = a3 >> 0x18\n 33582: u8 [a0 + 0x13] = a4\n 33585: a4 = a3 >> 0x10\n 33588: u8 [a0 + 0x12] = a4\n 33591: a3 = a3 >> 0x8\n 33594: u8 [a0 + 0x11] = a3\n 33597: u8 [a0 + 0x8] = a2\n 33600: a3 = a2 >> 0x38\n 33603: u8 [a0 + 0xf] = a3\n 33606: a3 = a2 >> 0x30\n 33609: u8 [a0 + 0xe] = a3\n 33612: a3 = a2 >> 0x28\n 33615: u8 [a0 + 0xd] = a3\n 33618: a3 = a2 >> 0x20\n 33621: u8 [a0 + 0xc] = a3\n 33624: a3 = a2 >> 0x18\n 33627: u8 [a0 + 0xb] = a3\n 33630: a3 = a2 >> 0x10\n 33633: u8 [a0 + 0xa] = a3\n 33636: a2 = a2 >> 0x8\n 33639: u8 [a0 + 0x9] = a2\n 33642: u8 [a0] = a1\n 33644: a2 = a1 >> 0x38\n 33647: u8 [a0 + 0x7] = a2\n 33650: a2 = a1 >> 0x30\n 33653: u8 [a0 + 0x6] = a2\n 33656: a2 = a1 >> 0x28\n 33659: u8 [a0 + 0x5] = a2\n 33662: a2 = a1 >> 0x20\n 33665: u8 [a0 + 0x4] = a2\n 33668: a2 = a1 >> 0x18\n 33671: u8 [a0 + 0x3] = a2\n 33674: a2 = a1 >> 0x10\n 33677: u8 [a0 + 0x2] = a2\n 33680: a1 = a1 >> 0x8\n 33683: a2 = s1 + 0xffffffffffffff9c\n 33686: a3 = u64 [sp + 0xf8]\n 33690: a2 = a3 <u a2\n 33693: a3 = u64 [sp + 0xf0]\n 33697: a2 = 0 if a3 != 0\n 33699: a3 = u64 [sp + 0xe0]\n 33703: a2 = 0 if a3 != 0\n 33705: u8 [a0 + 0x1] = a1\n 33708: jump @483 if a2 == 0\n      : @454 (gas: 4)\n 33712: s1 = u64 [sp + 0xe8]\n 33716: i32 a0 = s1 + 0x64\n 33719: a1 = 0x20\n 33722: ra = 386, jump @0\n      : @455 [@dyn 193] (gas: 46)\n 33729: u8 [a0 + 31] = 0x1\n 33733: u8 [a0 + 30] = 0\n 33736: u8 [a0 + 29] = 0\n 33739: u8 [a0 + 28] = 0\n 33742: u8 [a0 + 27] = 0\n 33745: u8 [a0 + 26] = 0\n 33748: u8 [a0 + 25] = 0\n 33751: u8 [a0 + 24] = 0\n 33754: u8 [a0 + 23] = 0\n 33757: u8 [a0 + 22] = 0\n 33760: u8 [a0 + 21] = 0\n 33763: u8 [a0 + 20] = 0\n 33766: u8 [a0 + 19] = 0\n 33769: u8 [a0 + 18] = 0\n 33772: u8 [a0 + 17] = 0\n 33775: u8 [a0 + 16] = 0\n 33778: u8 [a0 + 15] = 0\n 33781: u8 [a0 + 14] = 0\n 33784: u8 [a0 + 13] = 0\n 33787: u8 [a0 + 12] = 0\n 33790: u8 [a0 + 11] = 0\n 33793: u8 [a0 + 10] = 0\n 33796: u8 [a0 + 9] = 0\n 33799: u8 [a0 + 8] = 0\n 33802: u8 [a0 + 7] = 0\n 33805: u8 [a0 + 6] = 0\n 33808: u8 [a0 + 5] = 0\n 33811: u8 [a0 + 4] = 0\n 33814: u8 [a0 + 3] = 0\n 33817: u8 [a0 + 2] = 0\n 33820: u8 [a0 + 1] = 0\n 33823: u8 [a0 + 0] = 0\n 33825: ecalli 8 // 'ref_time_left'\n 33827: a0 = u64 [sp + 0x38]\n 33830: u64 [sp + 0x488] = a0\n 33834: a0 = u64 [sp + 0x48]\n 33837: u64 [sp + 0x480] = a0\n 33841: a0 = u64 [sp + 0x40]\n 33844: u32 [sp + 0x490] = a0\n 33848: u64 [sp + 1208] = 0\n 33852: u64 [sp + 1200] = 0\n 33856: u64 [sp + 1192] = 0\n 33860: u64 [sp + 1184] = 0\n 33864: a1 = 0x84\n 33868: a0 = s1\n 33870: ra = 388, jump @0\n      : @456 [@dyn 194] (gas: 4)\n 33877: u64 [sp + 0xf8] = a0\n 33881: a0 = s1\n 33883: a1 = 0\n 33885: ra = 390, jump @0\n      : @457 [@dyn 195] (gas: 31)\n 33892: u32 [sp + 1216] = 0\n 33896: u64 [sp + 1272] = 0xffffffffffffffff\n 33901: u64 [sp + 1264] = 0xffffffffffffffff\n 33906: u64 [sp + 1256] = 0xffffffffffffffff\n 33911: u64 [sp + 1248] = 0xffffffffffffffff\n 33916: a1 = sp + 0x480\n 33920: a1 = a1 << 0x20\n 33923: a1 = a1 >> 0x20\n 33926: s1 = u64 [sp + 0xc0]\n 33930: s1 = s1 | a1\n 33933: a1 = sp + 0x4a0\n 33937: a1 = a1 << 0x20\n 33940: a1 = a1 >> 0x20\n 33943: a2 = sp + 0x4e0\n 33947: a2 = a2 << 0x20\n 33950: a3 = a2 | a1\n 33953: a1 = u64 [sp + 0xf8]\n 33957: a1 = a1 << 0x20\n 33960: a1 = a1 >> 0x20\n 33963: a4 = u64 [sp + 0xd8]\n 33967: a4 = a4 | a1\n 33970: a0 = a0 << 0x20\n 33973: a0 = a0 >> 0x20\n 33976: a1 = sp + 0x4c0\n 33980: a1 = a1 << 0x20\n 33983: a5 = a1 | a0\n 33986: a1 = 0xffffffffffffffff\n 33989: a2 = 0xffffffffffffffff\n 33992: a0 = s1\n 33994: ecalli 0 // 'call'\n 33995: fallthrough\n      : @458 (gas: 1)\n 33996: jump @461 if a0 != 0\n      : @459 (gas: 4)\n 34000: ecalli 10 // 'return_data_size'\n 34002: a0 = 0x40\n 34005: a1 = 0x20\n 34008: ra = 392, jump @0\n      : @460 [@dyn 196] (gas: 111)\n 34015: a3 = u64 [sp + 0x18]\n 34018: u8 [a0 + 0x18] = a3\n 34021: a2 = u64 [sp + 0x28]\n 34024: a1 = a2 >> 0x38\n 34027: u8 [a0 + 0x17] = a1\n 34030: a1 = a2 >> 0x30\n 34033: u8 [a0 + 0x16] = a1\n 34036: a1 = a2 >> 0x28\n 34039: u8 [a0 + 0x15] = a1\n 34042: a1 = a2 >> 0x20\n 34045: u8 [a0 + 0x14] = a1\n 34048: a1 = a2 >> 0x18\n 34051: u8 [a0 + 0x13] = a1\n 34054: a1 = a2 >> 0x10\n 34057: u8 [a0 + 0x12] = a1\n 34060: a1 = a2 >> 0x8\n 34063: u8 [a0 + 0x11] = a1\n 34066: u8 [a0 + 0x10] = a2\n 34069: a2 = u64 [sp + 0x10]\n 34072: a1 = a2 >> 0x38\n 34075: u8 [a0 + 0xf] = a1\n 34078: a1 = a2 >> 0x30\n 34081: u8 [a0 + 0xe] = a1\n 34084: a1 = a2 >> 0x28\n 34087: u8 [a0 + 0xd] = a1\n 34090: a1 = a2 >> 0x20\n 34093: u8 [a0 + 0xc] = a1\n 34096: a1 = a2 >> 0x18\n 34099: u8 [a0 + 0xb] = a1\n 34102: a1 = a2 >> 0x10\n 34105: u8 [a0 + 0xa] = a1\n 34108: a1 = a2 >> 0x8\n 34111: u8 [a0 + 0x9] = a1\n 34114: u8 [a0 + 0x8] = a2\n 34117: a2 = u64 [sp + 0x30]\n 34120: a1 = a2 >> 0x38\n 34123: u8 [a0 + 0x7] = a1\n 34126: a1 = a2 >> 0x30\n 34129: u8 [a0 + 0x6] = a1\n 34132: a1 = a2 >> 0x28\n 34135: u8 [a0 + 0x5] = a1\n 34138: a1 = a2 >> 0x20\n 34141: u8 [a0 + 0x4] = a1\n 34144: a1 = a2 >> 0x18\n 34147: u8 [a0 + 0x3] = a1\n 34150: a1 = a2 >> 0x10\n 34153: u8 [a0 + 0x2] = a1\n 34156: a1 = a2 >> 0x8\n 34159: u8 [a0 + 0x1] = a1\n 34162: u8 [a0] = a2\n 34164: a1 = a3 >> 0x38\n 34167: u8 [a0 + 0x1f] = a1\n 34170: a1 = a3 >> 0x30\n 34173: u8 [a0 + 0x1e] = a1\n 34176: a1 = a3 >> 0x28\n 34179: u8 [a0 + 0x1d] = a1\n 34182: a1 = a3 >> 0x20\n 34185: u8 [a0 + 0x1c] = a1\n 34188: a1 = a3 >> 0x18\n 34191: u8 [a0 + 0x1b] = a1\n 34194: a1 = a3 >> 0x10\n 34197: u8 [a0 + 0x1a] = a1\n 34200: a1 = a3 >> 0x8\n 34203: u8 [a0 + 0x19] = a1\n 34206: a0 = u64 [sp + 0xa0]\n 34210: u64 [sp + 0x538] = a0\n 34214: a0 = u64 [sp + 0xa8]\n 34218: u64 [sp + 0x530] = a0\n 34222: a0 = u64 [sp + 0xb0]\n 34226: u64 [sp + 0x528] = a0\n 34230: s1 = u64 [sp + 0x20]\n 34233: u64 [sp + 0x520] = s1\n 34237: u64 [sp + 1368] = 0\n 34241: u64 [sp + 1360] = 0\n 34245: u64 [sp + 1352] = 0\n 34249: u64 [sp + 1344] = 0\n 34253: u32 [sp + 1280] = 0x20\n 34258: i32 a1 = sp + 0x520\n 34262: i32 a3 = sp + 0x540\n 34266: i32 a4 = sp + 0x500\n 34270: a2 = 0xffffffffffffffff\n 34273: a0 = 0\n 34275: ecalli 6 // 'get_storage'\n 34277: a0 = u64 [sp + 0x540]\n 34281: a1 = u64 [sp + 0x548]\n 34285: a2 = u64 [sp + 0x550]\n 34289: a3 = u64 [sp + 0x558]\n 34293: a0 = a0 & 0xffffffffffffff00\n 34297: a4 = u64 [sp + 0xa0]\n 34301: u64 [sp + 0x538] = a4\n 34305: a4 = u64 [sp + 0xa8]\n 34309: u64 [sp + 0x530] = a4\n 34313: a4 = u64 [sp + 0xb0]\n 34317: u64 [sp + 0x528] = a4\n 34321: u64 [sp + 0x520] = s1\n 34325: u64 [sp + 0x558] = a3\n 34329: u64 [sp + 0x550] = a2\n 34333: u64 [sp + 0x548] = a1\n 34337: u64 [sp + 0x540] = a0\n 34341: i32 a1 = sp + 0x520\n 34345: i32 a3 = sp + 0x540\n 34349: a2 = 0xffffffffffffffff\n 34352: a4 = 0x20\n 34355: a0 = 0\n 34357: ecalli 13 // 'set_storage'\n 34359: sp = s0 + 0xfffffffffffffa80\n 34363: ra = u64 [sp + 0x578]\n 34367: s0 = u64 [sp + 0x570]\n 34371: s1 = u64 [sp + 0x568]\n 34375: sp = sp + 0x580\n 34379: ret\n      : @461 (gas: 1)\n 34381: ra = 394, jump @211\n      : @462 [@dyn 197] (gas: 3)\n 34387: a0 = 0x40\n 34390: a1 = 0x20\n 34393: ra = 396, jump @0\n      : @463 [@dyn 198] (gas: 103)\n 34400: a1 = u8 [a0 + 0x11]\n 34403: a2 = u8 [a0 + 0x10]\n 34406: a3 = u8 [a0 + 0x12]\n 34409: a4 = u8 [a0 + 0x13]\n 34412: a1 = a1 << 0x8\n 34415: a1 = a1 | a2\n 34418: a3 = a3 << 0x10\n 34421: a4 = a4 << 0x18\n 34424: a3 = a3 | a4\n 34427: a1 = a1 | a3\n 34430: a2 = u8 [a0 + 0x15]\n 34433: a3 = u8 [a0 + 0x14]\n 34436: a4 = u8 [a0 + 0x16]\n 34439: a5 = u8 [a0 + 0x17]\n 34442: a2 = a2 << 0x8\n 34445: a2 = a2 | a3\n 34448: a4 = a4 << 0x10\n 34451: a5 = a5 << 0x18\n 34454: a4 = a4 | a5\n 34457: a2 = a2 | a4\n 34460: a2 = a2 << 0x20\n 34463: t0 = a2 | a1\n 34466: a2 = u8 [a0 + 0x1]\n 34469: a3 = u8 [a0]\n 34471: a4 = u8 [a0 + 0x2]\n 34474: a5 = u8 [a0 + 0x3]\n 34477: a2 = a2 << 0x8\n 34480: a2 = a2 | a3\n 34483: a4 = a4 << 0x10\n 34486: a5 = a5 << 0x18\n 34489: a4 = a4 | a5\n 34492: a2 = a2 | a4\n 34495: a3 = u8 [a0 + 0x5]\n 34498: a4 = u8 [a0 + 0x4]\n 34501: a5 = u8 [a0 + 0x6]\n 34504: s1 = u8 [a0 + 0x7]\n 34507: a3 = a3 << 0x8\n 34510: a3 = a3 | a4\n 34513: a5 = a5 << 0x10\n 34516: s1 = s1 << 0x18\n 34519: a5 = a5 | s1\n 34522: a3 = a3 | a5\n 34525: a3 = a3 << 0x20\n 34528: a2 = a2 | a3\n 34531: a3 = u8 [a0 + 0x19]\n 34534: a4 = u8 [a0 + 0x18]\n 34537: a5 = u8 [a0 + 0x1a]\n 34540: s1 = u8 [a0 + 0x1b]\n 34543: a3 = a3 << 0x8\n 34546: a3 = a3 | a4\n 34549: a5 = a5 << 0x10\n 34552: s1 = s1 << 0x18\n 34555: a5 = a5 | s1\n 34558: a3 = a3 | a5\n 34561: a4 = u8 [a0 + 0x1d]\n 34564: a5 = u8 [a0 + 0x1c]\n 34567: s1 = u8 [a0 + 0x1e]\n 34570: a1 = u8 [a0 + 0x1f]\n 34573: a4 = a4 << 0x8\n 34576: a4 = a4 | a5\n 34579: s1 = s1 << 0x10\n 34582: a1 = a1 << 0x18\n 34585: a1 = a1 | s1\n 34588: a1 = a1 | a4\n 34591: a1 = a1 << 0x20\n 34594: a3 = a3 | a1\n 34597: a1 = u8 [a0 + 0x9]\n 34600: a4 = u8 [a0 + 0x8]\n 34603: a5 = u8 [a0 + 0xa]\n 34606: s1 = u8 [a0 + 0xb]\n 34609: a1 = a1 << 0x8\n 34612: a1 = a1 | a4\n 34615: a5 = a5 << 0x10\n 34618: s1 = s1 << 0x18\n 34621: a5 = a5 | s1\n 34624: a1 = a1 | a5\n 34627: a4 = u8 [a0 + 0xd]\n 34630: a5 = u8 [a0 + 0xc]\n 34633: s1 = u8 [a0 + 0xe]\n 34636: a0 = u8 [a0 + 0xf]\n 34639: a4 = a4 << 0x8\n 34642: a4 = a4 | a5\n 34645: s1 = s1 << 0x10\n 34648: a0 = a0 << 0x18\n 34651: a0 = a0 | s1\n 34654: a0 = a0 | a4\n 34657: a0 = a0 << 0x20\n 34660: a0 = a0 | a1\n 34663: s1 = reverse a0\n 34665: a1 = reverse a3\n 34667: a2 = reverse a2\n 34669: a0 = reverse t0\n 34671: u64 [sp + 0xf8] = a0\n 34675: u64 [sp + 0xf0] = a2\n 34679: a0 = a0 | a2\n 34682: a2 = a1\n 34684: a1 = a1 | s1\n 34687: a1 = a1 | a0\n 34690: a1 = a1 >> 0x20\n 34693: a0 = a0 | s1\n 34696: a0 = a0 << 0x20\n 34699: a0 = a0 | a1\n 34702: jump @483 if a0 != 0\n      : @464 (gas: 5)\n 34706: u64 [sp + 0xe8] = a2\n 34710: i32 a0 = a2 + 0\n 34712: a1 = 0x20\n 34715: u64 [sp + 0xe0] = a0\n 34719: ra = 398, jump @0\n      : @465 [@dyn 199] (gas: 50)\n 34726: u8 [a0 + 31] = 0\n 34729: u8 [a0 + 30] = 0\n 34732: u8 [a0 + 29] = 0\n 34735: u8 [a0 + 28] = 0\n 34738: u8 [a0 + 27] = 0\n 34741: u8 [a0 + 26] = 0\n 34744: u8 [a0 + 25] = 0\n 34747: u8 [a0 + 24] = 0\n 34750: u8 [a0 + 23] = 0\n 34753: u8 [a0 + 22] = 0\n 34756: u8 [a0 + 21] = 0\n 34759: u8 [a0 + 20] = 0\n 34762: u8 [a0 + 19] = 0\n 34765: u8 [a0 + 18] = 0\n 34768: u8 [a0 + 17] = 0\n 34771: u8 [a0 + 16] = 0\n 34774: u8 [a0 + 15] = 0\n 34777: u8 [a0 + 14] = 0\n 34780: u8 [a0 + 13] = 0\n 34783: u8 [a0 + 12] = 0\n 34786: u8 [a0 + 11] = 0\n 34789: u8 [a0 + 10] = 0\n 34792: u8 [a0 + 9] = 0\n 34795: u8 [a0 + 8] = 0\n 34798: u8 [a0 + 7] = 0\n 34801: u8 [a0 + 6] = 0\n 34804: u8 [a0 + 5] = 0\n 34807: u8 [a0 + 4] = 0\n 34810: u8 [a0 + 3] = 0xa0\n 34815: u8 [a0 + 2] = 0x79\n 34819: u8 [a0 + 1] = 0xc3\n 34824: u8 [a0 + 0] = 0x8\n 34827: a1 = u64 [sp + 0xe8]\n 34831: a0 = a1 + 0x4\n 34834: a1 = a0 <u a1\n 34837: a3 = u64 [sp + 0xf8]\n 34841: a2 = a3 + a1\n 34844: a3 = a2 <u a3\n 34847: a3 = a1 if a1 == 0\n 34850: a3 = a3 + s1\n 34853: a1 = a3 <u s1\n 34856: a4 = u64 [sp + 0xf0]\n 34860: a4 = a4 + a1\n 34863: u64 [sp + 0x288] = a2\n 34867: u64 [sp + 0x280] = a0\n 34871: u64 [sp + 0x290] = a3\n 34875: a0 = sp + 0x2a0\n 34879: a1 = sp + 0x280\n 34883: u64 [sp + 0x298] = a4\n 34887: ra = 400, jump @353\n      : @466 [@dyn 200] (gas: 5)\n 34893: a0 = u64 [sp + 0x2a8]\n 34897: t0 = u64 [sp + 0x2b8]\n 34901: t1 = u64 [sp + 0x2a0]\n 34905: a3 = u64 [sp + 0x2b0]\n 34909: jump @482\n      : @467 (gas: 3)\n 34912: a0 = 0x40\n 34915: a1 = 0x20\n 34918: ra = 402, jump @0\n      : @468 [@dyn 201] (gas: 103)\n 34925: a1 = u8 [a0 + 0x11]\n 34928: a2 = u8 [a0 + 0x10]\n 34931: a3 = u8 [a0 + 0x12]\n 34934: a4 = u8 [a0 + 0x13]\n 34937: a1 = a1 << 0x8\n 34940: a1 = a1 | a2\n 34943: a3 = a3 << 0x10\n 34946: a4 = a4 << 0x18\n 34949: a3 = a3 | a4\n 34952: a1 = a1 | a3\n 34955: a2 = u8 [a0 + 0x15]\n 34958: a3 = u8 [a0 + 0x14]\n 34961: a4 = u8 [a0 + 0x16]\n 34964: a5 = u8 [a0 + 0x17]\n 34967: a2 = a2 << 0x8\n 34970: a2 = a2 | a3\n 34973: a4 = a4 << 0x10\n 34976: a5 = a5 << 0x18\n 34979: a4 = a4 | a5\n 34982: a2 = a2 | a4\n 34985: a2 = a2 << 0x20\n 34988: t0 = a2 | a1\n 34991: a2 = u8 [a0 + 0x1]\n 34994: a3 = u8 [a0]\n 34996: a4 = u8 [a0 + 0x2]\n 34999: a5 = u8 [a0 + 0x3]\n 35002: a2 = a2 << 0x8\n 35005: a2 = a2 | a3\n 35008: a4 = a4 << 0x10\n 35011: a5 = a5 << 0x18\n 35014: a4 = a4 | a5\n 35017: a2 = a2 | a4\n 35020: a3 = u8 [a0 + 0x5]\n 35023: a4 = u8 [a0 + 0x4]\n 35026: a5 = u8 [a0 + 0x6]\n 35029: s1 = u8 [a0 + 0x7]\n 35032: a3 = a3 << 0x8\n 35035: a3 = a3 | a4\n 35038: a5 = a5 << 0x10\n 35041: s1 = s1 << 0x18\n 35044: a5 = a5 | s1\n 35047: a3 = a3 | a5\n 35050: a3 = a3 << 0x20\n 35053: a2 = a2 | a3\n 35056: a3 = u8 [a0 + 0x19]\n 35059: a4 = u8 [a0 + 0x18]\n 35062: a5 = u8 [a0 + 0x1a]\n 35065: s1 = u8 [a0 + 0x1b]\n 35068: a3 = a3 << 0x8\n 35071: a3 = a3 | a4\n 35074: a5 = a5 << 0x10\n 35077: s1 = s1 << 0x18\n 35080: a5 = a5 | s1\n 35083: a3 = a3 | a5\n 35086: a4 = u8 [a0 + 0x1d]\n 35089: a5 = u8 [a0 + 0x1c]\n 35092: s1 = u8 [a0 + 0x1e]\n 35095: a1 = u8 [a0 + 0x1f]\n 35098: a4 = a4 << 0x8\n 35101: a4 = a4 | a5\n 35104: s1 = s1 << 0x10\n 35107: a1 = a1 << 0x18\n 35110: a1 = a1 | s1\n 35113: a1 = a1 | a4\n 35116: a1 = a1 << 0x20\n 35119: a3 = a3 | a1\n 35122: a1 = u8 [a0 + 0x9]\n 35125: a4 = u8 [a0 + 0x8]\n 35128: a5 = u8 [a0 + 0xa]\n 35131: s1 = u8 [a0 + 0xb]\n 35134: a1 = a1 << 0x8\n 35137: a1 = a1 | a4\n 35140: a5 = a5 << 0x10\n 35143: s1 = s1 << 0x18\n 35146: a5 = a5 | s1\n 35149: a1 = a1 | a5\n 35152: a4 = u8 [a0 + 0xd]\n 35155: a5 = u8 [a0 + 0xc]\n 35158: s1 = u8 [a0 + 0xe]\n 35161: a0 = u8 [a0 + 0xf]\n 35164: a4 = a4 << 0x8\n 35167: a4 = a4 | a5\n 35170: s1 = s1 << 0x10\n 35173: a0 = a0 << 0x18\n 35176: a0 = a0 | s1\n 35179: a0 = a0 | a4\n 35182: a0 = a0 << 0x20\n 35185: a0 = a0 | a1\n 35188: s1 = reverse a0\n 35190: a1 = reverse a3\n 35192: a2 = reverse a2\n 35194: a0 = reverse t0\n 35196: u64 [sp + 0xf8] = a0\n 35200: u64 [sp + 0xf0] = a2\n 35204: a0 = a0 | a2\n 35207: a2 = a1\n 35209: a1 = a1 | s1\n 35212: a1 = a1 | a0\n 35215: a1 = a1 >> 0x20\n 35218: a0 = a0 | s1\n 35221: a0 = a0 << 0x20\n 35224: a0 = a0 | a1\n 35227: jump @483 if a0 != 0\n      : @469 (gas: 5)\n 35231: u64 [sp + 0xe8] = a2\n 35235: i32 a0 = a2 + 0\n 35237: a1 = 0x20\n 35240: u64 [sp + 0xe0] = a0\n 35244: ra = 404, jump @0\n      : @470 [@dyn 202] (gas: 50)\n 35251: u8 [a0 + 31] = 0\n 35254: u8 [a0 + 30] = 0\n 35257: u8 [a0 + 29] = 0\n 35260: u8 [a0 + 28] = 0\n 35263: u8 [a0 + 27] = 0\n 35266: u8 [a0 + 26] = 0\n 35269: u8 [a0 + 25] = 0\n 35272: u8 [a0 + 24] = 0\n 35275: u8 [a0 + 23] = 0\n 35278: u8 [a0 + 22] = 0\n 35281: u8 [a0 + 21] = 0\n 35284: u8 [a0 + 20] = 0\n 35287: u8 [a0 + 19] = 0\n 35290: u8 [a0 + 18] = 0\n 35293: u8 [a0 + 17] = 0\n 35296: u8 [a0 + 16] = 0\n 35299: u8 [a0 + 15] = 0\n 35302: u8 [a0 + 14] = 0\n 35305: u8 [a0 + 13] = 0\n 35308: u8 [a0 + 12] = 0\n 35311: u8 [a0 + 11] = 0\n 35314: u8 [a0 + 10] = 0\n 35317: u8 [a0 + 9] = 0\n 35320: u8 [a0 + 8] = 0\n 35323: u8 [a0 + 7] = 0\n 35326: u8 [a0 + 6] = 0\n 35329: u8 [a0 + 5] = 0\n 35332: u8 [a0 + 4] = 0\n 35335: u8 [a0 + 3] = 0xa0\n 35340: u8 [a0 + 2] = 0x79\n 35344: u8 [a0 + 1] = 0xc3\n 35349: u8 [a0 + 0] = 0x8\n 35352: a1 = u64 [sp + 0xe8]\n 35356: a0 = a1 + 0x4\n 35359: a1 = a0 <u a1\n 35362: a3 = u64 [sp + 0xf8]\n 35366: a2 = a3 + a1\n 35369: a3 = a2 <u a3\n 35372: a3 = a1 if a1 == 0\n 35375: a3 = a3 + s1\n 35378: a1 = a3 <u s1\n 35381: a4 = u64 [sp + 0xf0]\n 35385: a4 = a4 + a1\n 35388: u64 [sp + 0x108] = a2\n 35392: u64 [sp + 0x100] = a0\n 35396: u64 [sp + 0x110] = a3\n 35400: a0 = sp + 0x120\n 35404: a1 = sp + 0x100\n 35408: u64 [sp + 0x118] = a4\n 35412: ra = 406, jump @361\n      : @471 [@dyn 203] (gas: 5)\n 35418: a0 = u64 [sp + 0x128]\n 35422: t0 = u64 [sp + 0x138]\n 35426: t1 = u64 [sp + 0x120]\n 35430: a3 = u64 [sp + 0x130]\n 35434: jump @482\n      : @472 (gas: 3)\n 35437: a0 = 0x40\n 35440: a1 = 0x20\n 35443: ra = 408, jump @0\n      : @473 [@dyn 204] (gas: 103)\n 35450: a1 = u8 [a0 + 0x11]\n 35453: a2 = u8 [a0 + 0x10]\n 35456: a3 = u8 [a0 + 0x12]\n 35459: a4 = u8 [a0 + 0x13]\n 35462: a1 = a1 << 0x8\n 35465: a1 = a1 | a2\n 35468: a3 = a3 << 0x10\n 35471: a4 = a4 << 0x18\n 35474: a3 = a3 | a4\n 35477: a1 = a1 | a3\n 35480: a2 = u8 [a0 + 0x15]\n 35483: a3 = u8 [a0 + 0x14]\n 35486: a4 = u8 [a0 + 0x16]\n 35489: a5 = u8 [a0 + 0x17]\n 35492: a2 = a2 << 0x8\n 35495: a2 = a2 | a3\n 35498: a4 = a4 << 0x10\n 35501: a5 = a5 << 0x18\n 35504: a4 = a4 | a5\n 35507: a2 = a2 | a4\n 35510: a2 = a2 << 0x20\n 35513: t0 = a2 | a1\n 35516: a2 = u8 [a0 + 0x1]\n 35519: a3 = u8 [a0]\n 35521: a4 = u8 [a0 + 0x2]\n 35524: a5 = u8 [a0 + 0x3]\n 35527: a2 = a2 << 0x8\n 35530: a2 = a2 | a3\n 35533: a4 = a4 << 0x10\n 35536: a5 = a5 << 0x18\n 35539: a4 = a4 | a5\n 35542: a2 = a2 | a4\n 35545: a3 = u8 [a0 + 0x5]\n 35548: a4 = u8 [a0 + 0x4]\n 35551: a5 = u8 [a0 + 0x6]\n 35554: s1 = u8 [a0 + 0x7]\n 35557: a3 = a3 << 0x8\n 35560: a3 = a3 | a4\n 35563: a5 = a5 << 0x10\n 35566: s1 = s1 << 0x18\n 35569: a5 = a5 | s1\n 35572: a3 = a3 | a5\n 35575: a3 = a3 << 0x20\n 35578: a2 = a2 | a3\n 35581: a3 = u8 [a0 + 0x19]\n 35584: a4 = u8 [a0 + 0x18]\n 35587: a5 = u8 [a0 + 0x1a]\n 35590: s1 = u8 [a0 + 0x1b]\n 35593: a3 = a3 << 0x8\n 35596: a3 = a3 | a4\n 35599: a5 = a5 << 0x10\n 35602: s1 = s1 << 0x18\n 35605: a5 = a5 | s1\n 35608: a3 = a3 | a5\n 35611: a4 = u8 [a0 + 0x1d]\n 35614: a5 = u8 [a0 + 0x1c]\n 35617: s1 = u8 [a0 + 0x1e]\n 35620: a1 = u8 [a0 + 0x1f]\n 35623: a4 = a4 << 0x8\n 35626: a4 = a4 | a5\n 35629: s1 = s1 << 0x10\n 35632: a1 = a1 << 0x18\n 35635: a1 = a1 | s1\n 35638: a1 = a1 | a4\n 35641: a1 = a1 << 0x20\n 35644: a3 = a3 | a1\n 35647: a1 = u8 [a0 + 0x9]\n 35650: a4 = u8 [a0 + 0x8]\n 35653: a5 = u8 [a0 + 0xa]\n 35656: s1 = u8 [a0 + 0xb]\n 35659: a1 = a1 << 0x8\n 35662: a1 = a1 | a4\n 35665: a5 = a5 << 0x10\n 35668: s1 = s1 << 0x18\n 35671: a5 = a5 | s1\n 35674: a1 = a1 | a5\n 35677: a4 = u8 [a0 + 0xd]\n 35680: a5 = u8 [a0 + 0xc]\n 35683: s1 = u8 [a0 + 0xe]\n 35686: a0 = u8 [a0 + 0xf]\n 35689: a4 = a4 << 0x8\n 35692: a4 = a4 | a5\n 35695: s1 = s1 << 0x10\n 35698: a0 = a0 << 0x18\n 35701: a0 = a0 | s1\n 35704: a0 = a0 | a4\n 35707: a0 = a0 << 0x20\n 35710: a0 = a0 | a1\n 35713: s1 = reverse a0\n 35715: a1 = reverse a3\n 35717: a2 = reverse a2\n 35719: a0 = reverse t0\n 35721: u64 [sp + 0xf8] = a0\n 35725: u64 [sp + 0xf0] = a2\n 35729: a0 = a0 | a2\n 35732: a2 = a1\n 35734: a1 = a1 | s1\n 35737: a1 = a1 | a0\n 35740: a1 = a1 >> 0x20\n 35743: a0 = a0 | s1\n 35746: a0 = a0 << 0x20\n 35749: a0 = a0 | a1\n 35752: jump @483 if a0 != 0\n      : @474 (gas: 5)\n 35756: u64 [sp + 0xe8] = a2\n 35760: i32 a0 = a2 + 0\n 35762: a1 = 0x20\n 35765: u64 [sp + 0xe0] = a0\n 35769: ra = 410, jump @0\n      : @475 [@dyn 205] (gas: 50)\n 35776: u8 [a0 + 31] = 0\n 35779: u8 [a0 + 30] = 0\n 35782: u8 [a0 + 29] = 0\n 35785: u8 [a0 + 28] = 0\n 35788: u8 [a0 + 27] = 0\n 35791: u8 [a0 + 26] = 0\n 35794: u8 [a0 + 25] = 0\n 35797: u8 [a0 + 24] = 0\n 35800: u8 [a0 + 23] = 0\n 35803: u8 [a0 + 22] = 0\n 35806: u8 [a0 + 21] = 0\n 35809: u8 [a0 + 20] = 0\n 35812: u8 [a0 + 19] = 0\n 35815: u8 [a0 + 18] = 0\n 35818: u8 [a0 + 17] = 0\n 35821: u8 [a0 + 16] = 0\n 35824: u8 [a0 + 15] = 0\n 35827: u8 [a0 + 14] = 0\n 35830: u8 [a0 + 13] = 0\n 35833: u8 [a0 + 12] = 0\n 35836: u8 [a0 + 11] = 0\n 35839: u8 [a0 + 10] = 0\n 35842: u8 [a0 + 9] = 0\n 35845: u8 [a0 + 8] = 0\n 35848: u8 [a0 + 7] = 0\n 35851: u8 [a0 + 6] = 0\n 35854: u8 [a0 + 5] = 0\n 35857: u8 [a0 + 4] = 0\n 35860: u8 [a0 + 3] = 0xa0\n 35865: u8 [a0 + 2] = 0x79\n 35869: u8 [a0 + 1] = 0xc3\n 35874: u8 [a0 + 0] = 0x8\n 35877: a1 = u64 [sp + 0xe8]\n 35881: a0 = a1 + 0x4\n 35884: a1 = a0 <u a1\n 35887: a3 = u64 [sp + 0xf8]\n 35891: a2 = a3 + a1\n 35894: a3 = a2 <u a3\n 35897: a3 = a1 if a1 == 0\n 35900: a3 = a3 + s1\n 35903: a1 = a3 <u s1\n 35906: a4 = u64 [sp + 0xf0]\n 35910: a4 = a4 + a1\n 35913: u64 [sp + 0x148] = a2\n 35917: u64 [sp + 0x140] = a0\n 35921: u64 [sp + 0x150] = a3\n 35925: a0 = sp + 0x160\n 35929: a1 = sp + 0x140\n 35933: u64 [sp + 0x158] = a4\n 35937: ra = 412, jump @369\n      : @476 [@dyn 206] (gas: 5)\n 35943: a0 = u64 [sp + 0x168]\n 35947: t0 = u64 [sp + 0x178]\n 35951: t1 = u64 [sp + 0x160]\n 35955: a3 = u64 [sp + 0x170]\n 35959: jump @482\n      : @477 (gas: 3)\n 35962: a0 = 0x40\n 35965: a1 = 0x20\n 35968: ra = 414, jump @0\n      : @478 [@dyn 207] (gas: 103)\n 35975: a1 = u8 [a0 + 0x11]\n 35978: a2 = u8 [a0 + 0x10]\n 35981: a3 = u8 [a0 + 0x12]\n 35984: a4 = u8 [a0 + 0x13]\n 35987: a1 = a1 << 0x8\n 35990: a1 = a1 | a2\n 35993: a3 = a3 << 0x10\n 35996: a4 = a4 << 0x18\n 35999: a3 = a3 | a4\n 36002: a1 = a1 | a3\n 36005: a2 = u8 [a0 + 0x15]\n 36008: a3 = u8 [a0 + 0x14]\n 36011: a4 = u8 [a0 + 0x16]\n 36014: a5 = u8 [a0 + 0x17]\n 36017: a2 = a2 << 0x8\n 36020: a2 = a2 | a3\n 36023: a4 = a4 << 0x10\n 36026: a5 = a5 << 0x18\n 36029: a4 = a4 | a5\n 36032: a2 = a2 | a4\n 36035: a2 = a2 << 0x20\n 36038: t0 = a2 | a1\n 36041: a2 = u8 [a0 + 0x1]\n 36044: a3 = u8 [a0]\n 36046: a4 = u8 [a0 + 0x2]\n 36049: a5 = u8 [a0 + 0x3]\n 36052: a2 = a2 << 0x8\n 36055: a2 = a2 | a3\n 36058: a4 = a4 << 0x10\n 36061: a5 = a5 << 0x18\n 36064: a4 = a4 | a5\n 36067: a2 = a2 | a4\n 36070: a3 = u8 [a0 + 0x5]\n 36073: a4 = u8 [a0 + 0x4]\n 36076: a5 = u8 [a0 + 0x6]\n 36079: s1 = u8 [a0 + 0x7]\n 36082: a3 = a3 << 0x8\n 36085: a3 = a3 | a4\n 36088: a5 = a5 << 0x10\n 36091: s1 = s1 << 0x18\n 36094: a5 = a5 | s1\n 36097: a3 = a3 | a5\n 36100: a3 = a3 << 0x20\n 36103: a2 = a2 | a3\n 36106: a3 = u8 [a0 + 0x19]\n 36109: a4 = u8 [a0 + 0x18]\n 36112: a5 = u8 [a0 + 0x1a]\n 36115: s1 = u8 [a0 + 0x1b]\n 36118: a3 = a3 << 0x8\n 36121: a3 = a3 | a4\n 36124: a5 = a5 << 0x10\n 36127: s1 = s1 << 0x18\n 36130: a5 = a5 | s1\n 36133: a3 = a3 | a5\n 36136: a4 = u8 [a0 + 0x1d]\n 36139: a5 = u8 [a0 + 0x1c]\n 36142: s1 = u8 [a0 + 0x1e]\n 36145: a1 = u8 [a0 + 0x1f]\n 36148: a4 = a4 << 0x8\n 36151: a4 = a4 | a5\n 36154: s1 = s1 << 0x10\n 36157: a1 = a1 << 0x18\n 36160: a1 = a1 | s1\n 36163: a1 = a1 | a4\n 36166: a1 = a1 << 0x20\n 36169: a3 = a3 | a1\n 36172: a1 = u8 [a0 + 0x9]\n 36175: a4 = u8 [a0 + 0x8]\n 36178: a5 = u8 [a0 + 0xa]\n 36181: s1 = u8 [a0 + 0xb]\n 36184: a1 = a1 << 0x8\n 36187: a1 = a1 | a4\n 36190: a5 = a5 << 0x10\n 36193: s1 = s1 << 0x18\n 36196: a5 = a5 | s1\n 36199: a1 = a1 | a5\n 36202: a4 = u8 [a0 + 0xd]\n 36205: a5 = u8 [a0 + 0xc]\n 36208: s1 = u8 [a0 + 0xe]\n 36211: a0 = u8 [a0 + 0xf]\n 36214: a4 = a4 << 0x8\n 36217: a4 = a4 | a5\n 36220: s1 = s1 << 0x10\n 36223: a0 = a0 << 0x18\n 36226: a0 = a0 | s1\n 36229: a0 = a0 | a4\n 36232: a0 = a0 << 0x20\n 36235: a0 = a0 | a1\n 36238: s1 = reverse a0\n 36240: a1 = reverse a3\n 36242: a2 = reverse a2\n 36244: a0 = reverse t0\n 36246: u64 [sp + 0xf8] = a0\n 36250: u64 [sp + 0xf0] = a2\n 36254: a0 = a0 | a2\n 36257: a2 = a1\n 36259: a1 = a1 | s1\n 36262: a1 = a1 | a0\n 36265: a1 = a1 >> 0x20\n 36268: a0 = a0 | s1\n 36271: a0 = a0 << 0x20\n 36274: a0 = a0 | a1\n 36277: jump @483 if a0 != 0\n      : @479 (gas: 5)\n 36281: u64 [sp + 0xe8] = a2\n 36285: i32 a0 = a2 + 0\n 36287: a1 = 0x20\n 36290: u64 [sp + 0xe0] = a0\n 36294: ra = 416, jump @0\n      : @480 [@dyn 208] (gas: 50)\n 36301: u8 [a0 + 31] = 0\n 36304: u8 [a0 + 30] = 0\n 36307: u8 [a0 + 29] = 0\n 36310: u8 [a0 + 28] = 0\n 36313: u8 [a0 + 27] = 0\n 36316: u8 [a0 + 26] = 0\n 36319: u8 [a0 + 25] = 0\n 36322: u8 [a0 + 24] = 0\n 36325: u8 [a0 + 23] = 0\n 36328: u8 [a0 + 22] = 0\n 36331: u8 [a0 + 21] = 0\n 36334: u8 [a0 + 20] = 0\n 36337: u8 [a0 + 19] = 0\n 36340: u8 [a0 + 18] = 0\n 36343: u8 [a0 + 17] = 0\n 36346: u8 [a0 + 16] = 0\n 36349: u8 [a0 + 15] = 0\n 36352: u8 [a0 + 14] = 0\n 36355: u8 [a0 + 13] = 0\n 36358: u8 [a0 + 12] = 0\n 36361: u8 [a0 + 11] = 0\n 36364: u8 [a0 + 10] = 0\n 36367: u8 [a0 + 9] = 0\n 36370: u8 [a0 + 8] = 0\n 36373: u8 [a0 + 7] = 0\n 36376: u8 [a0 + 6] = 0\n 36379: u8 [a0 + 5] = 0\n 36382: u8 [a0 + 4] = 0\n 36385: u8 [a0 + 3] = 0xa0\n 36390: u8 [a0 + 2] = 0x79\n 36394: u8 [a0 + 1] = 0xc3\n 36399: u8 [a0 + 0] = 0x8\n 36402: a1 = u64 [sp + 0xe8]\n 36406: a0 = a1 + 0x4\n 36409: a1 = a0 <u a1\n 36412: a3 = u64 [sp + 0xf8]\n 36416: a2 = a3 + a1\n 36419: a3 = a2 <u a3\n 36422: a3 = a1 if a1 == 0\n 36425: a3 = a3 + s1\n 36428: a1 = a3 <u s1\n 36431: a4 = u64 [sp + 0xf0]\n 36435: a4 = a4 + a1\n 36438: u64 [sp + 0x1c8] = a2\n 36442: u64 [sp + 0x1c0] = a0\n 36446: u64 [sp + 0x1d0] = a3\n 36450: a0 = sp + 0x1e0\n 36454: a1 = sp + 0x1c0\n 36458: u64 [sp + 0x1d8] = a4\n 36462: ra = 418, jump @227\n      : @481 [@dyn 209] (gas: 5)\n 36468: a0 = u64 [sp + 0x1e8]\n 36472: t0 = u64 [sp + 0x1f8]\n 36476: t1 = u64 [sp + 0x1e0]\n 36480: a3 = u64 [sp + 0x1f0]\n 36484: fallthrough\n      : @482 (gas: 26)\n 36485: a1 = u64 [sp + 0xf8]\n 36489: a4 = a0 ^ a1\n 36492: a5 = a0 <u a1\n 36495: t2 = a1\n 36497: a2 = u64 [sp + 0xe8]\n 36501: a1 = t1 <u a2\n 36504: a5 = a1 if a4 == 0\n 36507: a4 = a3 - s1\n 36510: a3 = a3 <u s1\n 36513: s1 = u64 [sp + 0xf0]\n 36517: s1 = t0 - s1\n 36520: s1 = s1 - a3\n 36523: a3 = a4 <u a5\n 36526: s1 = s1 - a3\n 36529: a4 = a4 - a5\n 36532: a0 = a0 - t2\n 36535: a1 = a0 - a1\n 36538: a0 = t1 - a2\n 36541: a1 = a1 | s1\n 36544: a2 = a0 | a4\n 36547: a2 = a2 | a1\n 36550: a1 = a1 | a4\n 36553: a2 = a2 >> 0x20\n 36556: a1 = a1 << 0x20\n 36559: a1 = a1 | a2\n 36562: jump @491 if a1 == 0\n      : @483 (gas: 1)\n 36566: trap\n      : @484 (gas: 4)\n 36567: a0 = 0\n 36569: a1 = 0\n 36571: ra = 0x1a4\n 36575: jump @0\n      : @485 (gas: 2)\n 36579: a1 = 0\n 36581: ra = 420, jump @0\n      : @486 [@dyn 210] (gas: 5)\n 36588: i32 a1 = a0 + 0\n 36590: a0 = 0x1\n 36593: a2 = 0\n 36595: ecalli 11 // 'seal_return'\n 36597: fallthrough\n      : @487 (gas: 8)\n 36598: u64 [sp + 432] = 0\n 36602: u64 [sp + 424] = 0\n 36606: u64 [sp + 416] = 0\n 36610: a0 = 0x4e487b7100000000\n 36620: a1 = sp + 0x1a0\n 36624: u64 [sp + 0x1b8] = a0\n 36628: a0 = 0\n 36630: ra = 422, jump @8\n      : @488 [@dyn 211] (gas: 7)\n 36637: u64 [sp + 408] = 0\n 36641: u64 [sp + 400] = 0\n 36645: u64 [sp + 384] = 0x41\n 36650: a0 = 0x4\n 36653: a1 = sp + 0x180\n 36657: u64 [sp + 392] = 0\n 36661: ra = 424, jump @8\n      : @489 [@dyn 212] (gas: 3)\n 36668: a1 = 0x24\n 36671: a0 = 0\n 36673: ra = 426, jump @0\n      : @490 [@dyn 213] (gas: 5)\n 36680: i32 a1 = a0 + 0\n 36682: a0 = 0x1\n 36685: a2 = 0x24\n 36688: ecalli 11 // 'seal_return'\n 36690: fallthrough\n      : @491 (gas: 4)\n 36691: i32 s1 = a0 + 0\n 36693: a0 = u64 [sp + 0xe0]\n 36697: a1 = s1\n 36699: ra = 428, jump @0\n      : @492 [@dyn 214] (gas: 7)\n 36706: i32 a1 = a0 + 0\n 36708: a0 = 0x1\n 36711: a2 = s1\n 36713: ecalli 11 // 'seal_return'\n 36715: a0 = 0\n 36717: ra = 0x1ae\n 36721: jump @10\n      : @493 [export #0: 'call'] (gas: 2)\n 36725: a0 = 0\n 36727: ra = 430, jump @10\n      : @494 [@dyn 215] [export #1: 'deploy'] (gas: 2)\n 36734: a0 = 0x1\n 36737: ra = 432, jump @10\n      : @495 [@dyn 216] (gas: 27)\n 36744: sp = sp + 0xffffffffffffff80\n 36747: u64 [sp + 0x78] = ra\n 36750: u64 [sp + 0x70] = s0\n 36753: u64 [sp + 0x68] = s1\n 36756: s0 = sp + 0x80\n 36760: sp = sp & 0xfffffffffffffff0\n 36763: t0 = u64 [a1]\n 36765: t1 = u64 [a1 + 0x8]\n 36768: t2 = u64 [a1 + 0x10]\n 36771: a1 = u64 [a1 + 0x18]\n 36774: a3 = u64 [a2]\n 36776: a4 = u64 [a2 + 0x8]\n 36779: a5 = u64 [a2 + 0x10]\n 36782: a2 = u64 [a2 + 0x18]\n 36785: s1 = a0\n 36787: u64 [sp + 0x18] = a2\n 36790: u64 [sp + 0x10] = a5\n 36793: u64 [sp + 0x8] = a4\n 36796: u64 [sp] = a3\n 36798: u64 [sp + 0x38] = a1\n 36801: u64 [sp + 0x30] = t2\n 36804: u64 [sp + 0x28] = t1\n 36807: a0 = sp + 0x40\n 36810: a1 = sp + 0x20\n 36813: a2 = sp\n 36815: u64 [sp + 0x20] = t0\n 36818: ra = 434, jump @92\n      : @496 [@dyn 217] (gas: 14)\n 36824: a0 = u64 [sp + 0x50]\n 36827: a1 = u64 [sp + 0x58]\n 36830: a2 = u64 [sp + 0x40]\n 36833: a3 = u64 [sp + 0x48]\n 36836: u64 [s1 + 0x10] = a0\n 36839: u64 [s1 + 0x18] = a1\n 36842: u64 [s1] = a2\n 36844: u64 [s1 + 0x8] = a3\n 36847: sp = s0 + 0xffffffffffffff80\n 36850: ra = u64 [sp + 0x78]\n 36853: s0 = u64 [sp + 0x70]\n 36856: s1 = u64 [sp + 0x68]\n 36859: sp = sp + 0x80\n 36863: ret\n",
				"bytecode": {
					"object": "50564d0000e7a4000000000000010700c11000c000400480fa0f000000000400000012000000200000002e000000340000003d00000048000000570000006400000074000000840000008f000000a1000000ac00000063616c6c63616c6c5f646174615f636f707963616c6c5f646174615f6c6f616463616c6c5f646174615f73697a6563616c6c6572636f64655f73697a656765745f73746f72616765686173685f6b656363616b5f3235367265665f74696d655f6c65667472657475726e5f646174615f636f707972657475726e5f646174615f73697a657365616c5f72657475726e7365745f696d6d757461626c655f646174617365745f73746f7261676576616c75655f7472616e73666572726564051302c0758f0463616c6cc07e8f066465706c6f7906c0baa380d902c0019065004d01520174013e02d60207041c0440044c046604270569057c058105b405e205f70557070209150a2d0a370a450a5a0a8a0aa20af80b050c8c0cbd0ddd0d890e960e380f430f74108c109810d0104e12b413691445153c1632171e181419461a261be11b1d1d18206021dc2203234e24d724ec24f824e925f625c826d426062820282d285d2874287f288e28c9299b2a682b812b8c2b9b2b232c412e4f2e9a2e0b308330d131b732ac339d34ce343d354c35d1356436f136a037ae37de3732395f396d39a739863a193ba63bbe3c863e8a4096421e458545c14501461e46294638460a4749480f49e749754a224b304b114c034d634ecb4ea74f4450d650ed510f525053f4530d5419545a55fe5567569756b556c056d856e6568757c757e258fb580659155941596959135a6d5bd05c285eb85edf5eb15f38628a625064e364706586661967a667ba684d69da69f96a2c6d716e436f23701771c471d371c172bb736a76bd77967868794b7a5a7bed7bfb7b757cce7e2080f180f081cf82c18355846484df8453866086a6874d886d88b3895a8a7a8ac08b678c878ccd8d748eec8e1d8f3c8f488f628f7e8f888fd88f8b791052093b3309010001ae9833c8780883881f8488e0553801000128390a000002ae8a123d080000023308100002c8870732003308100002c88707320000009511d87b10207b15187b161082897b19088289087b1982851082861883773308205010029f6f686f59821a6faa821b086fbb787b18787a10787908787898bc38787c1f98bc30787c1e98bc28787c1d98bc20787c1c98bc18787c1b98bc10787c1a98bb08787b1998ab38787b1798ab30787b1698ab28787b1598ab20787b1498ab18787b1398ab10787b1298aa08787a11989a38787a0f989a30787a0e989a28787a0d989a20787a0c989a18787a0b989a10787a0a98990878790998893878790798893078790698892878790598892078790498891878790398891078790298880878780182102082151882161095112832009511f07b10087b158475010a03013d0704000251050750100409501006ff02951120ff7b10d8007b15d0007b16c8009515e0008411e033074033082050100891fe46171f800046171e46171d46171c46171b46171a46171946171846171746171646171546171446171346171246171146171046170f46170e46170d46170c46170b46170a46170946170846170746170646170546170446170346170246170146074911584911404911484911508317400a0e01821750821858821948821a40d49808d4a707d487075207020295172033000a9511907b10687b15607b16589515708411f039060400027b17089767209877204911284911207b171095173095181049111833003228e0048217207b17188217287b171080163049219800492190004921880049218000014921b8004921b0004921a8004921a0004811602083188000831aa000831b603309ff33070a068017b4009777208218b800d4670749219800492190004921880049218000017b18b8007b17b0008217107b17a8008217187b17a00083188000831aa0003309ff330b2033070a0d33074033082050100c2ffd7c78117c79107c7a127c7b13978808d4980897aa1097bb18d4ba0ad4a8087c79157c7a147c7b167c7c17979908d4a90997bb1097cc18d4cb0bd4b909979920d489027c79017c7a7c7b027c7c03979908d4a90997bb1097cc18d4cb0bd4b9097c7a057c7b047c7c067c760797aa08d4ba0a97cc10976618d46c0cd4ca0a97aa20d4a9097c7a197c7b187c7c1a7c761b97aa08d4ba0a97cc10976618d46c0cd4ca0a7c7b1d7c7c1c7c761e7c781f97bb08d4cb0b976610978818d46808d4b808978820d48a0a7c78097c7b087c7c0a7c760b978808d4b80897cc10976618d46c0cd4c8087c7b0d7c7c0c7c760e7c770f97bb08d4cb0b976610977718d46707d4b707977720d487076f776fa66f986f29d49808d47609d48909989920d48707977720d49707510717003307330850100efefb837833070133090a0b01836664673308501010e9fb8377330833090a0101390808000251080d330710000383770a0c0164673308501012c5fb8378330733093300140a0b019511c07b10387b15309515408411e03307403308205010169ffb46171f800046171e46171d46171c46171b46171a46171946171846171746171646171546171446171346171246171146171046170f46170e46170d46170c46170b46170a461709461708461707461703461702461701460739080400024617064617054617045318049d00831733080a020181171c58477debecb04c51477eebecb09a0051477be574de970052475c2ad51577330018951160ff7b1098007b1590007b1688009515a0008411e04911384911304911284911208317200a0e28f9065147a92391a78d005247eccc73ae3a33001a9511e0fe7b1018017b1510017b160801951520018411e04921f8004921f0004921e8004921e0008317e0000a0e288c1c33001c9511f87b10330733083300bc002887fa50101e7a20330020951160fe7b1098017b1590017b1688019515a0018411e049215801492150014921480149214001831740010a0e289529330022951140ff7b10b8007b15b0007b16a8009515c0008411e04911784911704911684911608317600a0e28cf089511f07b10087b1564753307403308205010240efa7c78017c797c7a027c7b03978808d4980897aa1097bb18d4ba0ad4a8087c79057c7a047c7b067c7c07979908d4a90997bb1097cc18d4cb0bd4b909979920d489027c79097c7a087c7b0a7c7c0b979908d4a90997bb1097cc18d4cb0bd4b9097c7a0d7c7b0c7c7c0e7c780f97aa08d4ba0a97cc10978818d4c808d4a808978820d498037c78117c7a107c7b127c7c13978808d4a80897bb1097cc18d4cb0bd4b8087c7a157c7b147c7c167c791797aa08d4ba0a97cc10979918d4c909d4a909979920d4890a7c78197c79187c7b1a7c7c1b978808d4980897bb1097cc18d4cb0bd4b8087c791d7c7b1c7c7c1e7c771f979908d4b90997cc10977718d4c707d49707977720d487076f776fa86f396f2a7b5a187b59107b58087b5782100882159511103200951160ff7b1098007b1590007b1688009515a0008411f08289187b19308289107b19288289087b192082887b18187b1738330740330820501026aef87c78197c79187c7a1a7c7b1b978808d4980897aa1097bb18d4ba0ad4a8087c791d7c7a1c7c7b1e7c7c1f979908d4a90997bb1097cc18d4cb0bd4b909979920d489027c79117c7a107c7b127c7c13979908d4a90997bb1097cc18d4cb0bd4b9097c7a157c7b147c7c167c761797aa08d4ba0a97cc10976618d46c0cd4ca0a97aa20d4a9097c7a097c7b087c7c0a7c760b97aa08d4ba0a97cc10976618d46c0cd4ca0a7c7b0d7c7c0c7c760e7c780f97bb08d4cb0b976610978818d46808d4b808978820d48a0a7c78017c7b7c7c027c7603978808d4b80897cc10976618d46c0cd4c8087c7b057c7c047c76067c770797bb08d4cb0b976610977718d46707d4b707977720d487076f736fa46f966f2c82181895871fd88708821a20c88a09d8a90ada880a821828c88a0ad88a08821b30c8b8088477e0c8c7077b1c287b1710d8c70bc86909c8b90cd36c097b1630d86c07da9b07c84a0ac87a0bd8ab06d84a09c83808c89808c886068eb88e69da6809d46b087b1c088ecadb890a520a2301d84b08d33609d8360ada980ad34b08d49808db8a0752070a013307403308207b14207b13187b1b50102803f76f6882196f99821a086faa821b106fbb787b1898bc38787c1f98bc30787c1e98bc28787c1d98bc20787c1c98bc18787c1b98bc10787c1a98bb08787b19787a1098ab38787b1798ab30787b1698ab28787b1598ab20787b1498ab18787b1398ab10787b1298aa08787a11787908989a38787a0f989a30787a0e989a28787a0d989a20787a0c989a18787a0b989a10787a0a98990878790978789889387879079889307879069889287879059889207879049889187879039889107879029888087878018217388218287b788218187b78188218307b78088218207b7810955160ff8210980082159000821688009511a0003200491170491168491160140700000000717b484e9518607b1778330750102a30f64911584911504911404133070495184049114850102c18f6330824330750102ecef583783307013309243300300a0b01808910828a0882884917187b79107b7a087b783200821848821940821a38821730d4a808d4970ad48a0a98aa20d49808978820d4a8085208730183777b1764685010347bf58377646833090a010154161f5c01330820821750103663f57c78097c79087c7a0a7c7b0b978808d4980897aa1097bb18d4ba0ad4a8087c790d7c7a0c7c7b0e7c7c0f979908d4a90997bb1097cc18d4cb0bd4b909979920d489097c78017c7a7c7b027c7c03978808d4a80897bb1097cc18d4cb0bd4b8087c7a057c7b047c7c067c760797aa08d4ba0a97cc10976618d46c0cd4ca0a97aa20d4a8086f826f99140a0000000001000000d39a0ad42a0a989b2088bb01942b93ab510bac007c7a197c7b187c7c1a7c761b97aa08d4ba0a97cc10976618d46c0cd4ca0a7c7b1d7c7c1c7c761e7c781f97bb08d4cb0b976610978818d46808d4b808978820d48a0a7c78117c7b107c7c127c7613978808d4b80897cc10976618d46c0cd4c8087c7b157c7c147c76167c771797bb08d4cb0b976610977718d46707d4b707977720d487076f776fa8821a087ba87ba7087ba9107ba218955190821068821560821658951170320000330733085010380df48378330701330933003a0a0b01828918828a10828b0882887b79187b7a107b7b087b783200821730821838821928821a20d49808d4a707d487075207820139070400025417037901491158491150491148491140014911784911704911684911604821800020831840831a60831b80003309ff33070a068217707b17088217687b17108217607b171833074033082050103c79f37c78117c79107c7a127c7b13978808d4980897aa1097bb18d4ba0ad4a8087c79157c7a147c7b167c7c17979908d4a90997bb1097cc18d4cb0bd4b909979920d489027c79017c7a7c7b027c7c03979908d4a90997bb1097cc18d4cb0bd4b9097c7a057c7b047c7c067c760797aa08d4ba0a97cc10976618d46c0cd4ca0a97aa20d4a9097c7a197c7b187c7c1a7c761b97aa08d4ba0a97cc10976618d46c0cd4ca0a7c7b1d7c7c1c7c761e7c781f97bb08d4cb0b976610978818d46808d4b808978820d48a0a7c78097c7b087c7c0a7c760b978808d4b80897cc10976618d46c0cd4c8087c7b0d7c7c0c7c760e7c770f97bb08d4cb0b976610977718d46707d4b707977720d487076f786fa76f996f2ad4a909d4870ad49a0a98aa20d49808978820d4a808510817003307330850103e48f2837833070133090a0b0182180897882098862083777b170833082050104028f26f688219106f99821a186faa98ab38787b1f98ab30787b1e98ab28787b1d98ab20787b1c98ab18787b1b98ab10787b1a98ab08787b19787a1878791046170b46170a4617094617074617064617054617044617034617024617014607989a38787a17989a30787a16989a28787a15989a20787a14989a18787a13989a10787a1298990878791178780898893878790f98893078790e98892878790d98882078780c3308208217085010427cf1837833092033073300440a0b01828918828a10828b0882887b79187b7a107b7b087b783200821770821878821968821a60d49808d4a707d487075207a80139070400025417439f01831780003308040a02821780007b1718821788007b1710821790007b170882169800831780003308240a02821780008218880082199000821a98007b1a387b19307b18287b17207b16588217087b17508217107b17489517409518208219187b19405010460537330740330820501048c2f07c78117c79107c7a127c7b13978808d4980897aa1097bb18d4ba0ad4a8087c79157c7a147c7b167c7c17979908d4a90997bb1097cc18d4cb0bd4b909979920d489027c79017c7a7c7b027c7c03979908d4a90997bb1097cc18d4cb0bd4b9097c7a057c7b047c7c067c760797aa08d4ba0a97cc10976618d46c0cd4ca0a97aa20d4a9097c7a197c7b187c7c1a7c761b97aa08d4ba0a97cc10976618d46c0cd4ca0a7c7b1d7c7c1c7c761e7c781f97bb08d4cb0b976610978818d46808d4b808978820d48a0a7c78097c7b087c7c0a7c760b978808d4b80897cc10976618d46c0cd4c8087c7b0d7c7c0c7c760e7c770f97bb08d4cb0b976610977718d46707d4b707977720d487076f786fa76f996f2ad4a909d4870ad49a0a98aa20d49808978820d4a80851081e003307330850104a91ef837833070133090a0b837733004c287eef837750104c79ef83783307330933004e0a0b01828910828a18828b088288d4ba0ad4980bd4ab0b98bb20d4a909979920d4b90952093c019511f07b10087b156475838733082050105035ef7c78017c797c7a027c7b03978808d4980897aa1097bb18d4ba0ad4a8087c79057c7a047c7b067c7c07979908d4a90997bb1097cc18d4cb0bd4b909979920d489027c79097c7a087c7b0a7c7c0b979908d4a90997bb1097cc18d4cb0bd4b9097c7a0d7c7b0c7c7c0e7c780f97aa08d4ba0a97cc10978818d4c808d4a808978820d498037c78117c7a107c7b127c7c13978808d4a80897bb1097cc18d4cb0bd4b8087c7a157c7b147c7c167c791797aa08d4ba0a97cc10979918d4c909d4a909979920d4890a7c78197c79187c7b1a7c7c1b978808d4980897bb1097cc18d4cb0bd4b8087c791d7c7b1c7c7c1e7c771f979908d4b90997cc10977718d4c707d49707977720d487076f776fa86f396f2a7b5a187b59107b58087b5782100882159511103200009511b07b10487b15407b1638828b10828a18828c0882857b1a287b1c20d4ac08d4b50ad48a0a98aa207b1b30d4b808978820d4a8087b1718520821018297187b178296108297087b170882977b17108357330820501052b7ed82186f886f69821a086faa821b106fbb98bc38787c1f98bc30787c1e98bc28787c1d98bc20787c1c98bc18787c1b98bc10787c1a98bc08787c19787b18787a1098ab38787b1798ab30787b1698ab28787b1598ab20787b1498ab18787b1398ab10787b1298aa08787a11787908989a38787a0f989a30787a0e989a28787a0d989a20787a0c989a18787a0b989a10787a0a9899087879097878988938787907988930787906988928787905988920787904988918787903988910787902988808787801955720d85708821a20c88a09d8a90ada880a821830c88a0ad88a08821b28c8b808821b187bb77bb9087bba107bb8188210488215408216389511503200009511b8fe7b1040017b1538017b163001827b10827c18827908827a7b1920017b1ce800d4c907d4ba09d479099899207b1bf000d4b707977720d4970752072c078287187b17f80082861082850882877b17280183a73308207b1708017b1a180150105451ec821a2801d46a087b1510018219f800d45909d498089888207b16e000d46909979920d498085208de067c780c7b18d8007c780d7b18d0007c780e7b18c8007c780f7b18c0007c78107b18b8007c78117b18b0007c78127b18a8007c78137b18a0007c78147b1898007c78157b1890007c78167b1888007c78177b1880007c78187b18787c78197b18707c781a7b18687c781b7b18607c781c7b18587c781d7b18507c751e7c761f83a73308207b1700015010569ceb78761f78751e82185078781d82185878781c82186078781b82186878781a821870787819821878787818821880007878178218880078781682189000787815821898007878148218a0007878138218a8007878128218b0007878118218b8007878108218c00078780f8218c80078780e8218d00078780d8218d80078780c46170b46170a4617094617084617074617064617054617044617034617024617018218f000821ae800d48a0a1405e0ffffff0000000082181801d858088219200194987b1af00094a846075108850582170801837720330820501058c0ea8218f800821ae000d48a0a82182801d858088219100194987b1af80094a8510854057c787b18e8007c78017b18e0007c78027b18d8007c78037b18d0007c78047b18c8007c78057b18c0007c78067b18b8007c78077b18b0007c78087b18a8007c78097b18a0007c780a7b1898007c780b7b1890007c780c7b1888007c780d7b1880007c780e7b18787c780f7b18707c78107b18687c78117b18607c78127b18587c78137b18507c78147b18487c78157b18407c78167b18387c78177b18307c78187b18287c78197b18207c781a7b18187c781b7b18107c781c7b18087c781d7b187c751e7c761f8217000183772033082050105ac9e978761f78751e821878781d82180878781c82181078781b82181878781a82182078781982182878781882183078781782183878781682184078781582184878781482185078781382185878781282186078781182186878781082187078780f82187878780e8218800078780d8218880078780c8218900078780b8218980078780a8218a0007878098218a8007878088218b0007878078218b8007878068218c0007878058218c8007878048218d0007878038218d8007878028218e0007878011405c0ffffff0000000082181801d858088219200194988219f00094988219e8007879510898038217080183774033082050105cd3e882182801d858088219100194988219f8009498510872037c787b18e8007c78017b18e0007c78027b18d8007c78037b18d0007c78047b18c8007c78057b18c0007c78067b18b8007c78077b18b0007c78087b18a8007c78097b18a0007c780a7b1898007c780b7b1890007c780c7b1888007c780d7b1880007c780e7b18787c780f7b18707c78107b18687c78117b18607c78127b18587c78137b18507c78147b18487c78157b18407c78167b18387c78177b18307c78187b18287c78197b18207c781a7b18187c781b7b18107c781c7b18087c781d7b187c751e7c761f8217000183774033082050105ee7e778761f78751e821878781d82180878781c82181078781b82181878781a82182078781982182878781882183078781782183878781682184078781582184878781482185078781382185878781282186078781182186878781082187078780f82187878780e8218800078780d8218880078780c8218900078780b8218980078780a8218a0007878098218a8007878088218b0007878078218b8007878068218c0007878058218c8007878048218d0007878038218d8007878028218e0007878011405a0ffffff0000000082181801d858088219200194988219f00094988219e80078795108b60182170801837760330820501060f1e682182801d858088219100194988219f8009498510890017c781d7c791c7c7a1e7c7b1f978808d4980897aa1097bb18d4ba0ad4a8087c790d7c7a0c7c7b0e7c7c0f979908d4a90997bb1097cc18d4cb0bd4b909d498089788207c79097c7a087c7b0a7c7c0b979908d4a90997bb1097cc18d4cb0bd4b9097c7a197c7b187c7c1a7c761b97aa08d4ba0a97cc10976618d46c0cd4ca0ad4a909d498087c79157c7a147c7b167c7c17979908d4a90997bb1097cc18d4cb0bd4b9097c7a057c7b047c7c067c760797aa08d4ba0a97cc10976618d46c0cd4ca0ad4a9097c7a017c7b7c7c027c760397aa08d4ba0a97cc109766187c7b11d46c0cd4ca0a7c7c1097bb087c76127c7713d4cb0b979920976610977718d46707d4b707d4a707d49707d487078e7582170001837760330820501062bfe546171e46171d46171c46171b46171a46171946171846171746171646171546171446171346171246171146171046170f46170e46170d46170c46170b46170a461709461708461707461706461705461704461703461702461701460778751f82104001821538018216300195114801320000951120ff7b10d8007b15d0007b16c8009515e0008411f0828a18828b10828c0882867b1a787b1c68d4ac08d4b60ad48a0a98aa207b1b70d4b808978820d4a8087b17105208f6068297187b17608297107b17488297087b174082977b17507b16588367330820330620501064dfe4821a5078761f821b48d4ba08821960821c40d4c909d49808988820d4b909979920d4980846171e46171d46171c46171b46171a46171946171846171746171646171546171446171346171246171146171046170f46170e46170d46170c46170b46170a461709461708461707461706461705461704461703461702461701460752084b068217589578207b1830d87807821868c878097b1938d88908da7708821770c88706d87607821878c887077b172883a733082050106624e4821230d46208821938821a28d4a909d49808988820d46909979920d498085208f2057c78197c79187c7a1a7c7b1b978808d4980897aa1097bb18d4ba0ad4a8087c791d7c7a1c7c7b1e7c7c1f979908d4a90997bb1097cc18d4cb0bd4b909979920d498087b18387c78117c79107c7a127c7b13978808d4980897aa1097bb18d4ba0ad4a8087c79157c7a147c7b167c7c17979908d4a90997bb1097cc18d4cb0bd4b909979920d498087b18287c78097c79087c7a0a7c7b0b978808d4980897aa1097bb18d4ba0ad4a8087c790d7c7a0c7c7b0e7c7c0f979908d4a90997bb1097cc18d4cb0bd4b909979920d498087b18207c78017c797c7a027c7b03978808d4980897aa1097bb18d4ba0ad4a8087c79057c7a047c7b067c7707979908d4a90997bb10977718d4b707d49707977720d487068327330820501068e8e2646a821620821b28821438787b1098683878780f98683078780e98682878780d98682078780c98681878780b98681078780a98680878780978760898a83878780798a83078780698a82878780598a82078780498a81878780398a81078780298a808787801787a78741898b83878781798b83078781698b82878781598b82078781498b81878781398b81078781298b80878781198483878781f98483078781e98482878781d98482078781c98481878781b98481078781a984808787819821758957240d87207821868c87803d88308da7708d4ba07d44609d49707821c70c88c09d8c908821c78c8c8087b18785107ba037b19687b13707b12586fac6f6a7b1a206fb96f473302016478da9208e4270bdb980b8ea864c68eccda680c7b1630dac207d4a606da6b07649893c8da690864841408e0ffffff00000000821a50d8a80264ac821b408ebadab20a64b98216489a6bc9ab008e03d8ab0a8e6b821660c86b0b9ab6c9a6068e6bda630bc9c80c9a9ac92a097b1838d8c8038e9ada930ad46008db8b0a94ac95cb1fd8cb0894a9c8890cd89c03da880394a0c830087b1897883b98c905d4890997cc3b98bb05d4bc0c7b1c288878016442c984049573ff64987b1918d39409d88408d8c30bdb980b7b1b08821b2064b88219309398da9b08d42707887701d8780bc9b902c9780c94a6821ad80a07821060c8670798aa05977b3bd4ba0a987905d8ac08d39206d8920b6427da680bd3ac08d46808821240821608da860bdab9077b1730daba0c821718dab704821728dab70398373b974805d48707973305c82707821650c863037b1328d86308c88703d3230ad8230bdaa80b98483b97ca05d4a80898c93b821430974405d49409c80909821748c87808d8780ac8a909c88b0bd88b08c89808821a2895a9207b1930d8a909647c646ac893077b1728d83707da9907c8b7077b1720d8b707c887077b171801d40c07821838d88a089428947851080c0295a7207b1748d8a707c872087b1850d82806da7706c8c6067b1640d8c607c870007b106083a72033082050106aeddf7c78017c797c7a027c7b03978808d4980897aa1097bb18d4ba0ad4a8087c79057c7a047c7b067c7c07979908d4a90997bb1097cc18d4cb0bd4b909979920d489027c79097c7a087c7b0a7c7c0b979908d4a90997bb1097cc18d4cb0bd4b9097c7a0d7c7b0c7c7c0e7c780f97aa08d4ba0a97cc10978818d4c808d4a808978820d489097c78117c7a107c7b127c7c13978808d4a80897bb1097cc18d4cb0bd4b8087c7a157c7b147c7c167c761797aa08d4ba0a97cc10976618d46c0cd4ca0a97aa20d48a0a7c78197c7b187c7c1a7c761b978808d4b80897cc10976618d46c0cd4c8087c7b1d7c7c1c7c761e7c771f97bb08d4cb0b976610977718d46707d4b707977720d487076f7b6fa76f986f29821a787b1a9800821a687b1a9000821a707b1a88008216587b1680007b19b8007b18b0007b17a8009517a000951880007b1ba00050106cf4f182106095648000d86409821770c89708d8780ada990a821768c8a709d87902821b20821740d37b0b821c30821a48d3ac0cd4bc03821c18d3c00c821628821b50d3b606d46c0cd4c306821c78c82c0c7b1c7864b2647c7b14587b18707b1968520619fe28076424643801821a107ba47ba8087ba9108217787ba718955120ff8210d8008215d0008216c8009511e0003200008217f0008218f8008219e800821ae000d49808d4a707d487075207c3023907040002541703ba024921b8004921b0004921a8009517c0009518a0004921a00033006e951140fe7b10b8017b15b0017b16a8019515c0018411e07b1718828a187b1a88008289107b1990008287087b17980082867b1a58017b1950017b1748017b16400149219801492190014921880149218001482160012083184001831a8001831b60013309ff33070a06821798017b17b800821a90017b1aa000821888017b18b000821980017b19a8007b1718017b1a10017b18080195172001951800017b19000133003601281d348217c0007b17388217c8007b17308217d0007b17288217d8007b172033074033082050107002dd7c78017c797c7a027c7b03978808d4980897aa1097bb18d4ba0ad4a8087c79057c7a047c7b067c7c07979908d4a90997bb1097cc18d4cb0bd4b909979920d489027c79097c7a087c7b0a7c7c0b979908d4a90997bb1097cc18d4cb0bd4b9097c7a0d7c7b0c7c7c0e7c760f97aa08d4ba0a97cc10976618d46c0cd4ca0a97aa20d4a9097c7a117c7b107c7c127c761397aa08d4ba0a97cc10976618d46c0cd4ca0a7c7b157c7c147c76167c781797bb08d4cb0b976610978818d46808d4b808978820d48a0a7c78197c7b187c7c1a7c761b978808d4b80897cc10976618d46c0cd4c8087c7b1d7c7c1c7c761e7c771f97bb08d4cb0b976610977718d46707d4b707977720d487076f7b7b1b086faa7b1a106f987b18186f268217207b17588217287b17508217307b17488217387b17407b16787b18707b1a68951780009518609519407b1b605010726ff6821b108219087b1638d46b07821618d46908d47808988820d46707977720d4870752075e82178800821898007b18308213800082189000d3b704d8b70cd89300da400cc9680ac9ca04d8ca02d8680a821838821c30c98c0cc9ac0cc92c0cc9b707c90707c99306d4c707d44608d47808d44707988820977720d4870751071700330733085010742edb837833070133090a0b0183978366646850107619db8378330764693300780a0b019511807b10787b15707b1668951580008411e0828410828c0882920882867b1610829b7b1b18829010d3c20a7b1a38d8c20ad86b0b821338da3b0a64b38288187b18388298187b1820c94008c9a8097b1928d8a8097b1430d8400a821838821b20c98b08c9a808c99804c9c206c93609821210821818c9280a8e9b88aa2085aa01db9b0a8f498218288e8bdb490bd44808db8b0a510a546476821930d49207821838d4c808d48707987720d49808978820d4870752073383288317400a02821758821850821948821a407b67187b68107b69087b6a955180821078821570821668951180003200003307330850107a1cda8378330701330933007c0a0b019511807b10787b1570951580008411e04911384911304911284911208317200a0e01821730821838821928821a20d49808d4a707d487075207cf013907040002541723c6018317403308040a02821840821748821950821a587b1a187b19107b170864177b1833007e951180fa7b1078057b1570057b166805951580058411e082787b18f0008278087b18e8008278107b18f8008276184921380549213005492128054921200549215805492150054921480549214005482100052083182005831a4005831b00053309ff33070a0628bf433307403308205020800032d97c78117c79107c7a127c7b13978808d4980897aa1097bb18d4ba0ad4a8087c79157c7a147c7b167c7c17979908d4a90997bb1097cc18d4cb0bd4b909979920d489027c79017c7a7c7b027c7c03979908d4a90997bb1097cc18d4cb0bd4b9097c7a057c7b047c7c067c780797aa08d4ba0a97cc10978818d4c808d4a808978820d498037c78197c7a187c7b1a7c7c1b978808d4a80897bb1097cc18d4cb0bd4b8087c7a1d7c7b1c7c7c1e7c791f97aa08d4ba0a97cc10979918d4c909d4a909979920d4890a7c78097c79087c7b0a7c7c0b978808d4980897bb1097cc18d4cb0bd4b8087c790d7c7b0c7c7c0e7c770f979908d4b90997cc10977718d4c707d49707977720d487076f786fa76f396f2ad4a909d4870ad49a0a98aa20d49808978820d4a80851082000330733085020820000d8837833070133090a0b83773300840028ebd7837750208400e6d7837833073309330086000a0b019511b07b10487b15409515508411f0491130491128491120140700000000717b484e9518207b1738330750208800e9d7491118491110490132330704641849110850208a00d2d7330824330750208c0087d7837833070133092433008e000a0b019511a07b10587b15507b16489515608411e06476828718828910828a0882887b17187b19107b1a087b18491138491130491128491120481140208318831a20831b403309ff33070a06821738821830821928821a207b67187b68107b69087b6a9551a082105882155082164895116032009511e0fe7b1018017b1510017b160801951520018411e07b174082977b17508297087b17588297107b1748829618828b18828a1082890882877b1b187b1bb8007b1a207b1ab0007b19287b19a8007b17307b17a0004921f8004921f0004921e8004921e0004821c000208318a000831ae000831bc0003309ff33070a06018217f8008212e0008219f000821ae800d3670b7b1638d87607821648d8960cdbb70c821858d38a07d8a80a821850d82808db7a08d36907d4b707db7c08510888013308203307502090003dd68218186f888219206f99821a286faa821b306fbb98bc38787c1f98bc30787c1e98bc28787c1d98bc20787c1c98bc18787c1b98bc10787c1a98bc08787c19787b18787a1098ab38787b1798ab30787b1698ab28787b1598ab20787b1498ab18787b1398ab10787b1298aa08787a11787908989a38787a0f989a30787a0e989a28787a0d989a20787a0c989a18787a0b989a10787a0a98990878790978789889387879079889307879069889287879059889207879049889187879039889107879029888087878013308203307502092006bd583778319e0003308200a078217e0008218e8008219f800821af0006f726f886f996faa821648986b3e821c3897cc02d4bc03821c5898cb3e976702d4b704821b5098b73e97c602d4760c97b602c8ac0cc89606d89609c89c0cd3ac0bd8ac0adab90ac84807c87a0ad87a09c83202d88707c82707c897078218404918384918304918284918207b867b8c087b8a107b87189551e0fe821018018215100182160801951120013200492190004921880049218000140700000000717b484e951880007b179800330750209400ded44911784911704911603233070495186049116850209600c5d43308243307502098007ad4837833070133092433009a000a0b01828918828a10828b0882887b79187b7a107b7b087b783200821370821268821738018218200182143001821a2801d3270bd87207821978d8490cdbb70cd36a07d8a60ad88308db7a08d39407d4b707db7c0851084c027b1380004921b8004921b0004921a8004921a0007b1688007b1990009517c0009518a000951980007b12980050209c00e2fc8217d8007b1778821ad0007b1a688218c8007b18708216c0007b1718017b1a10017b1808017b16000149213801492130014921280149212001482140012083180001831a2001831b40013309ff33070a06956701887801821970c89808d48709889901821a68c8a909d8a90a821b78c8ba0a7b1a18017b191001821920017b19607b180801821828017b18587b170001801730017b175049213801492130014921280149212001482140012083180001831a2001831b40013309ff33070a06956702d86708821a70c88a09d8a90ada880a821868c88a0ad88a08821b78c8b8087b181801821820017b18487b1a1001821828017b18407b190801821830017b18387b170001821738017b173049213801492130014921280149212001482140012083180001831a2001831b40013309ff33070a06821720017b1710821728017b1720821730017b1718821738017b1708956703d86708821a70c88a09d8a90ada880a821868c88a0ad88a08821b78c8b8087b1818017b1a10017b1908017b17000149213801492130014921280149212001482140012083180001831a2001831b40013309ff33070a067c1720018218287b87608217087b87588217187b87508217207b87488217107b87408217307b87388217387b87308217407b87288217487b87208217507b87108217587b87088217607b874918784918704918684918189551a0fe821058018215500182164801951160013200330750209e00c5d1837833070133093300a0000a0b01828910828a18828b088288d4ba0ad4980bd4ab0b98bb20d4a909979920d4b9095209d6009511e07b10187b15107b1608827910827a087b1a827697992098952083873308205020a2006cd16f5882196f996f6a98ab38787b1f98ab30787b1e98ab28787b1d98ab20787b1c98ab18787b1b98ab10787b1a98ab08787b19787a1878791046170b46170a4617094617074617064617054617044617034617024617014607989a38787a17989a30787a16989a28787a15989a20787a14989a18787a13989a10787a1298990878791178780898893878790f98893078790e98892878790d98882078780c821018821510821608951120320000821750018218580182194801821a4001d49808d4a707d487075207340539070400025417232b05831760013308040a02821960018217680182187001821a78017b1ab8007b18b0007b17a8009517c0009518a0007b19a0003300a4009511a0fe7b1058017b1550017b164801951560018411e07b172882877b17708286088287107b17788287187b17684921180149211001492108014921000149213801492130014921280149212001482140012083180001831a2001831b40013309ff33070a0628abfb821738017b1730821730017b1720821728017b1728821720017b1718821718017b1738821710017b1740821708017b1748821700017b17508217f8007b17588217f0007b17608217e8007b17688217e0007b17708217d0007b1788008217c8007b1790008217c0007b1798003307403308205020a60083cf7c78117c79107c7a127c7b13978808d4980897aa1097bb18d4ba0ad4a8087c79157c7a147c7b167c7c17979908d4a90997bb1097cc18d4cb0bd4b909979920d489027c79017c7a7c7b027c7c03979908d4a90997bb1097cc18d4cb0bd4b9097c7a057c7b047c7c067c760797aa08d4ba0a97cc10976618d46c0cd4ca0a97aa20d4a9097c7a197c7b187c7c1a7c761b97aa08d4ba0a97cc10976618d46c0cd4ca0a7c7b1d7c7c1c7c761e7c781f97bb08d4cb0b976610978818d46808d4b808978820d48a0a7c78097c7b087c7c0a7c760b978808d4b80897cc10976618d46c0cd4c8087c7b0d7c7c0c7c760e7c770f97bb08d4cb0b976610977718d46707d4b707977720d487076f766faa6f9b6f29d4b907d46a08d47808988820d46707977720d487075207eb02821788009777209877207b171083a73308207b17087b1a80007b19787b1b88005020a80035ce8218106f88821990006f99821a98006faa98ab38787b1f98ab30787b1e98ab28787b1d98ab20787b1c98ab18787b1b98ab10787b1a98ab08787b19787a1878791046170b46170a4617094617074617064617054617044617034617024617014607989a38787a17989a30787a16989a28787a15989a20787a14989a18787a13989a10787a1298990878791178780898893878790f98893078790e98892878790d98882082198800d49606140b00000000010000001409e0ffffff00000000821a8000d89a09821a7894a9946978780c5109f2018217088377203308207b1b98005020aa004fcd8218586f888219606f99821a686faa821b706fbb98bc38787c1f98bc30787c1e98bc28787c1d98bc20787c1c98bc18787c1b98bc10787c1a98bc08787c19787b18787a1098ab38787b1798ab30787b1698ab28787b1598ab20787b1498ab18787b1398ab10787b12821b7898aa08787a11787908989a38787a0f989a30787a0e989a28787a0d989a20787a0c989a18787a0b989a10787a0a821a80009899087879097878988938787907988930787906988928787905988920787904988918787903988910787902988808821998009599c0d89a0994b994697878015109ff00646c8216088367403308207b1c98005020ac005acc8218386f888219406f99821a486faa821b506fbb98bc38787c1f98bc30787c1e98bc28787c1d98bc20787c1c98bc18787c1b98bc10787c1a98bc08787c19787b18787a1098ab38787b1798ab30787b1698ab28787b1598ab20787b1498ab18787b1398ab10787b1298aa08787a11787908989a38787a0f989a30787a0e989a28787a0d989a20787a0c989a18787a0b989a10787a0a98990878790978789889387879079889307879069889287879059889207879049889187879039889107879029888081409a0ffffff00000000821a8000d89a09821a7894a9821a980094a978780152091800330733085020ae0069cb837833070133090a0b01821720821818d48707821830821928d49808d487078e777b1798008367603308205020b00038cb46171e46171d46171c46171b46171a46171946171846171746171646171546171446171346171246171146171046170f46170e46170d46170c46170b46170a46170946170846170746170646170546170446170346170246170146078218980078781f3308800064675020b200c9ca83783309800033073300b4000a0b01828918828a10828b0882887b79187b7a107b7b087b7832009511a07b10587b15507b1648828a18828b10828c088286d4ac08d4b609d48909989920d4b808978820d498087b172852080c029567207b1730d86707c87c087b18407b1c08d8c805da7705c8b5057b1b10d8b5077b1a18c8a7077b17387b1683673308203306205020b60035ca78761f8218306486d45808821940821b38d4b909d498089888207b1520d45909979920d4980846171e46171d46171c46171b46171a46171946171846171746171646171546171446171346171246171146171046170f46170e46170d46170c46170b46170a461709461708461707461706461705461704461703461702461701460752084c01836533082064575020b800a2c946171f0f46171e46171d46171c46171b46171a46171946171846171746171646171546171446171346171246171146171046170f46170e46170d46170c46170b46170a461709461708461707461706461705461704461703461702461701821820821938d498081409e0ffffff00000000d89609821a4094a9948946075109be008357203308205020ba0015c946171f46171e46171d46171c46171b46171a46171946171846171746171646171546171446171346171246171146171046170f46170e4446170d49330c20787c0c46170b6446170a724617096146170863787c0746170664461705694617046c46170361461702764617016e4607498218958760d88708821a08c88a09d8a90ada880a821810c88a0ad88a08821b18c8b808821b287bb77bb9087bba107bb818821058821550821648951160320000837833070133093300be000a0b0182889788207b7818491710491708490732009511c07b10387b15307b16289515408411e03307403308205020c00028c87c78117c79107c7a127c7b13978808d4980897aa1097bb18d4ba0ad4a8087c79157c7a147c7b167c7c17979908d4a90997bb1097cc18d4cb0bd4b909979920d489027c79017c7a7c7b027c7c03979908d4a90997bb1097cc18d4cb0bd4b9097c7a057c7b047c7c067c760797aa08d4ba0a97cc10976618d46c0cd4ca0a97aa20d4a9097c7a197c7b187c7c1a7c761b97aa08d4ba0a97cc10976618d46c0cd4ca0a7c7b1d7c7c1c7c761e7c781f97bb08d4cb0b976610978818d46808d4b808978820d48a0a7c78097c7b087c7c0a7c760b978808d4b80897cc10976618d46c0cd4c8087c7b0d7c7c0c7c760e7c770f97bb08d4cb0b976610977718d46707d4b707977720d487076f766fa77b17086f977b17186f277b17100a0a01821a08821818821910d49808d46a09d48909989920d46808978820d4980852083a647698772052073283a783687b18187b17105020c200d4c67a1620837783182033090a0901811720821818ac870c0a0a0198782051080400837682171064685020c400a7c6837833070164693300c6000a0b01827810827918827a088277d4a909d4870ad49a0a98aa20d49808978820d4a80852088b009511f07b10087b1583773308203305205020c8005fc646171f46171e46171d46171c46171b46171a46171946171846171746171646171546171446171346171246171146171046170f46170e46170d46170c46170b46170a461709461708461707461706644617057246170461461703637875024617016f33084e787882100882159511103200009511a07b10587b15507b1648828a18828b10828c088286d4ac08d4b609d48909989920d4b808978820d498087b1728520803029567207b1730d86707c87c087b18407b1c08d8c805da7705c8b5057b1b10d8b5077b1a18c8a7077b17387b1683673308203306205020ca0080c578761f8218306486d45808821940821b38d4b909d498089888207b1520d45909979920d4980846171e46171d46171c46171b46171a46171946171846171746171646171546171446171346171246171146171046170f46170e46170d46170c46170b46170a461709461708461707461706461705461704461703461702461701460752084301836533082064575020cc00edc446171f0746171e46171d46171c46171b46171a46171946171846171746171646171546171446171346171246171146171046170f46170e46170d46170c46170b46170a461709461708461707461706461705461704461703461702461701821820821938d498081409e0ffffff00000000d89609821a4094a9948946075109b5008357203308205020ce0060c446171f46171e46171d46171c46171b46171a46171946171846171746171646171546171446171346171246171146171046170f46170e46170d46170c46170b46170a46170946170846170746170664461705724617046146170363461702204617016f46074e8218958760d88708821a08c88a09d8a90ada880a821810c88a0ad88a08821b18c8b808821b287bb77bb9087bba107bb8188210588215508216489511603200009511e0fe7b1018017b1510017b160801951520018411e0828b10828c18828908828a7b19707b1c58d4c9087b1a8000d4ba09d489099899207b1b60d4b808978820d498085208cb078278187b18788278107b1898008278087b18900082777b178800811780003308207b17685020d00048c37c78117c79107c7a127c7b13978808d4980897aa1097bb18d4ba0ad4a8087c79157c7a147c7b167c7c17979908d4a90997bb1097cc18d4cb0bd4b909979920d498087c79197c7a187c7b1a7c7c1b979908d4a90997bb1097cc18d4cb0bd4b9097c7a1d7c7b1c7c7c1e7c761f97aa08d4ba0a97cc10976618d46c0cd4ca0a97aa20d4a9097c7a0d7c7b0c7c7c0e7c770f97aa08d4ba0a97cc10977718d4c707d4a7076f997b19506f887b18486f769866207b16408216787b16d800821798007b17d000821790007b17c800821788007b17c0004921f8004921f0004921e8004921e0004821a000208318c000831ae000831ba0003309ff33070a068017f4009777208218f800821940d497077b16d800821998007b19d000821990007b19c800821988007b19c0007b18f8007b17f0008217487b17e8008217507b17e0008318c000831ae0003309ff330b2033070a0d01821760821958d47909140700000000010000007b17401407e0ffffff0000000082188000d8780782187094877b1960949751071b06821788009579017b194888970182189000c887077b1758d4970788770182189800c887077b1750d88707821878c887077b17388217688377203308205020d20080c17c78017c797c7a027c7b03978808d4980897aa1097bb18d4ba0ad4a8087c79057c7a047c7b067c7c07979908d4a90997bb1097cc18d4cb0bd4b909979920d489027c79097c7a087c7b0a7c7c0b979908d4a90997bb1097cc18d4cb0bd4b9097c7a0d7c7b0c7c7c0e7c760f97aa08d4ba0a97cc10976618d46c0cd4ca0a97aa20d4a9097c7a117c7b107c7c127c761397aa08d4ba0a97cc10976618d46c0cd4ca0a7c7b157c7c147c76167c781797bb08d4cb0b976610978818d46808d4b808978820d48a0a7c78197c7b187c7c1a7c761b978808d4b80897cc10976618d46c0cd4c8087c7b1d7c7c1c7c761e7c771f97bb08d4cb0b976610977718d46707d4b707977720d487074821a000206f777b17306fa77b17286f977b17206f277b17188217507b17d0008217587b17c8008217487b17c0008216387b16d8004921f8004921f0004921e8004921e0008318c000831ae000831ba0003309ff33070a067b16d8008217507b17d0008217587b17c8008217487b17c0008217187b17f8008217207b17f0008217287b17e8008217307b17e0008318c000831ae0003309ff330b2033070a0d018217409577c082188000d878078218709487821860948751071704821788009578027b1848d8780782189000c878097b1958d88908da770882179800c878087b1850d87807821878c887077b17408217688377403308205020d4007cbf7c78017c797c7a027c7b03978808d4980897aa1097bb18d4ba0ad4a8087c79057c7a047c7b067c7c07979908d4a90997bb1097cc18d4cb0bd4b909979920d489027c79097c7a087c7b0a7c7c0b979908d4a90997bb1097cc18d4cb0bd4b9097c7a0d7c7b0c7c7c0e7c760f97aa08d4ba0a97cc10976618d46c0cd4ca0a97aa20d4a9097c7a117c7b107c7c127c761397aa08d4ba0a97cc10976618d46c0cd4ca0a7c7b157c7c147c76167c781797bb08d4cb0b976610978818d46808d4b808978820d48a0a7c78197c7b187c7c1a7c761b978808d4b80897cc10976618d46c0cd4c8087c7b1d7c7c1c7c761e7c771f97bb08d4cb0b976610977718d46707d4b707977720d487076f777b17386fa77b17306f977b17286f277b17208217507b17d0008217587b17c8008217487b17c0008216407b16d8004921f8004921f0004921e8004921e0004821a000208318c000831ae000831ba0003309ff33070a067b16d8008217507b17d0008217587b17c8008217487b17c0008217207b17f8008217287b17f0008217307b17e8008217387b17e0008318c000831ae0003309ff330b2033070a0d011407a0ffffff0000000082188000d878078218709487821860948751070f02821788009578037b188000d8780782189000c878097b198800d88908da770882179800c878087b189000d87807821878c887077b1798008217688377603308205020d60070bd7c78117c79107c7a127c7b13978808d4980897aa1097bb18d4ba0ad48a027c78017c797c7a027c7b03978808d4980897aa1097bb18d4ab09d489037c78157c7a147c7b167c7c17978808d4a80897bb1097cc18d4bc0ad48a047c78057c7b047c7c067c7607978808d4b80897cc10976618d4c60bd48b007c78197c7c187c761a7c791b978808d4c808976610979918d46909d4890c7c78097c79087c760a7c7a0b978808d4980897661097aa18d46a0ad4a8087c791d7c7a1c7c761e7c7b1f979908d4a90997661097bb18d46b0bd4b9097c7a0d7c7b0c7c760e7c770f97aa08d4ba0a976610977718d46707d4a707d49707d4c808977720d48707d44008d42309978820d49808d487074821a000208e777b1778821790007b17d000821788007b17c800821780007b17c000821698007b16d8004921f8004921f0004921e8004921e0008318c000831ae000831ba0003309ff33070a068217e0008218e8008219f000821af800847700ff821b78d4b7077b16d800821b90007b1bd000821b88007b1bc800821b80007b1bc0007b1af8007b19f0007b18e8007b17e0008318c000831ae0003309ff330b2033070a0d9551e0fe82101801821510018216080195112001320000821af8018216f0018219e801d4a607889801947851082b018217e0017b1718957701887801c898087b17e001d487077b18e801887701c867077b17f001d86707c8a7077b17f8018217507b17c8018217587b17c0018217487b17d0018217407b17d8018318c0017b1a10831ae0017b19083309ff330b2033070a0d8217107b1738017b1630018217087b1728018217187b1720018217407b1758018217487b1750018217507b174801951760019518400195192001821a587b1a40015020d800e7e3821798018218900182198801821a8001d49707d4a808d487075207a400821978018217700182186801821a6001821b207b1ba0007b1ac000821a287b1aa8007b18c8008218307b18b0007b17d0008217387b17b8009517c0009518a0007b19d8005020da00cdf69551e0fd821018028215100282160802951120023200492190004921880049218000140700000000717b484e951880007b17980033075020dc0085ba491178491170491160413307049518604911683300e0002868ba492110014921080149210001140700000000717b484e951800017b17180133075020de0045ba4921f8004921f0004921e8003307049518e0004921e0005020e00028ba33082433075020e200ddb983783307013309243300e4000a0b01951120fd7b10d8027b15d0027b16c8029515e0028411e0827918827a1082768277088e9b8eacdb9b0c8e7b7b1650886609856601db7b06d4a909db9c0652068e0b828718828a8289088288107b1a1088aa09949ad48707947a510a720b49219802492190024921880249218002014921b8024921b0024921a8024921a0024821c0022083188002831aa002831bc0023309ff33070a068217b0027b17288217a8027b17208217a0027b17308317c0010a048117d0017b17488217c0017b17408217c8017b17383307403308205020e600fcb87c78117c79107c7a127c7b13978808d4980897aa1097bb18d4ba0ad4a8087c79157c7a147c7b167c7c17979908d4a90997bb1097cc18d4cb0bd4b909979920d489027c79017c7a7c7b027c7c03979908d4a90997bb1097cc18d4cb0bd4b9097c7a057c7b047c7c067c760797aa08d4ba0a97cc10976618d46c0cd4ca0a97aa20d4a9097c7a197c7b187c7c1a7c761b97aa08d4ba0a97cc10976618d46c0cd4ca0a7c7b1d7c7c1c7c761e7c781f97bb08d4cb0b976610978818d46808d4b808978820d48a0a7c78097c7b087c7c0a7c760b978808d4b80897cc10976618d46c0cd4c8087c7b0d7c7c0c7c760e7c770f97bb08d4cb0b976610977718d46707d4b707977720d487076f766faa6f986f277b17787b1860d48707d46a08d47808988820d46707977720d487075207280e83a73308207b17687b1a705020e800bdb746171f46171e46171d46171c46171b46171a46171946171846171746171646171546171446171346171246171146171046170f46170e46170d46170c46170b46170a461709461708461707461706461705461703e6004617028c00461701ca0046074d7b1618821a60d46a0a1408fcffffff00000000821970d8890882197894987b1a5894a846170451088a0d8217386f779878208219406f99979a20d4a8087b18409777208218486f88988820d487077b17489896208217688377043308205020ea00f7b66f688219406f99821a486faa98ab38787b1f98ab30787b1e98ab28787b1d98ab20787b1c98ab18787b1b98ab10787b1a98ab08787b19787a1878791046170b46170a4617094617074617064617054617044617034617024617014607989a38787a17989a30787a16989a28787a15989a20787a14989a18787a13989a10787a1298990878791178780898893878790f98893078790e98892878790d988820140600000000010000001409dcffffff00000000821a70d89a09821a7894a9821a5894a978780c5109880c8217688377243308205020ec001fb682195097983878791f46171e46171d46171c46171b46171a4617197b184878781846171746171646171546171446171346171246171146171046170f46170e46170d46170c46170b46170a4617094617084617074617064617054617044617034617024617019568bc821970d889088219789498821958949846075108fa0b8216688367443308205020ee0091b546171f0146171e46171d46171c46171b46171a46171946171846171746171646171546171446171346171246171146171046170f46170e46170d46170c46170b46170a46170946170846170746170646170546170446170346170246170146070a088217206f779778208219286f99989920d498088219306f99979a20987720d4a7079899207b17e8017b18e0017a19f0014921180249211002492108024921000233086464675020f000e4b47b175833082064675020f200d6b44821200220492158024921500249214802492140029518e00197882098882014090000000018000000d498069518000297882098882095194002979920d4890a82185897882098882014090000000064000000d4980b97772098772095182002978820d4780c3308ff3309ff64670a01520767080a0a01330820ae87080a0a647801330b821a6082197082167895871f7b1870d887084911788488018477e0c879097b1960d87907c88606c87606d38609d88608da9708821718c87808d87807c8a7077b18587b1750d4870788680194785108700a3307403308205020f400f5b38218506f888219586f996f6a821b606fbb787b1898bc38787c1f98bc30787c1e98bc28787c1d98bc20787c1c98bc18787c1b98bc10787c1a98bb08787b19787a1098ab38787b1798ab30787b1698ab28787b1598ab20787b1498ab18787b1398ab10787b1298aa08787a11787908989a38787a0f989a30787a0e989a28787a0d989a20787a0c989a18787a0b989a10787a0a9899087879097878988938787907988930787906988928787905988920787904988918787903988910787902988808821c788ec9821a7088aa2085aa01dbc90a8ec98ecbdac90bd4cc09da9a0b787801510b6a093308208217685020f60003b37c78097c79087c7a0a7c7b0b978808d4980897aa1097bb18d4ba0ad4a8087c790d7c7a0c7c7b0e7c7c0f979908d4a90997bb1097cc18d4cb0bd4b909979920d489027c79017c7a7c7b027c7c03979908d4a90997bb1097cc18d4cb0bd4b9097c7a057c7b047c7c067c760797aa08d4ba0a97cc10976618d46c0cd4ca0a97aa20d4a9097c7a197c7b187c7c1a7c761b97aa08d4ba0a97cc10976618d46c0cd4ca0a7c7b1d7c7c1c7c761e7c781f97bb08d4cb0b976610978818d46808d4b808978820d48a0a7c78117c7b107c7c127c7613978808d4b80897cc10976618d46c0cd4c8087c7b157c7c147c76167c771797bb08d4cb0b976610977718d46707d4b707977720d487076f786fab88bb02948bd492086f88948b510b4308d49707d4a208d487075107e605831760020a04801770027b1768821768027b17508216600249219801492190014921800180009517a00195188001492188015020f800beb88219b801821ab0018217a8018218a0017b17707b1958d497077b1878d4a808d478089888207b1a60d4a707977720d487075207c8076f679777208218506f88988920d497077b17509788208217686f77987720d487077b17408117783308207b17685020fa003bb18218406f888219506f99986a18787a0f986a10787a0e986a08787a0d78760c46170b46170a4617094617084617074617064617054617044617034617024617014607787910787818989a38787a17989a30787a16989a28787a15989a20787a14989a18787a13989a10787a1298990878791198893878791f98893078791e98892878791d98892078791c98891878791b98891078791a988808821958821b60d49b0b140600000000010000001409e0ffffff00000000821a78d89a09821a7094a97b1b5094b97878195109c8068217688377203308205020fc005fb046171746171646171546171446171346171246171146171046170f46170e46170d46170c46170b46170a461709461708461707461706461705461704461703461702461701460782194878791898983878781f98983078781e98982878781d98982078781c98981878781b98981078781a9898089569c0821a78d89a09821a7094a9821a5094a978781951092b068217688377403308205020fe00c2af82181078781f3306011408a0ffffff00000000821978d889088219709498821950949846171e46171d46171c46171b46171a46171946171846171746171646171546171446171346171246171146171046170f46170e46170d46170c46170b46170a4617094617084617074617064617054617044617034617024617014607510899058217688377603308205020000130af78761f46171e46171d46171c46171b46171a46171946171846171746171646171546171446171346171246171146171046170f46170e46170d46170c46170b46170a46170946170846170746170646170546170446170346170246170146078217587b1758018217607b1750018217707b1748018217787b174001492178014921700149216801951760019518400149216001330002019511e0fd7b1018027b1510027b160802951520028411e08289187b19388289107b19308289087b192882887b1820827a1882791082780882777b1a407b1ad8017b19487b19d0017b18507b18c8017b17587b17c0014921f8014921f0014921e8014921e0014821a001208318c001831ae001831ba0013309ff33070a062872f2955120fd8210d8028215d0028216c8029511e002320033074033082050200401f7ad7c78117c79107c7a127c7b13978808d4980897aa1097bb18d4ba0ad4a8087c79157c7a147c7b167c7c17979908d4a90997bb1097cc18d4cb0bd4b909979920d489027c79017c7a7c7b027c7c03979908d4a90997bb1097cc18d4cb0bd4b9097c7a057c7b047c7c067c760797aa08d4ba0a97cc10976618d46c0cd4ca0a97aa20d4a9097c7a197c7b187c7c1a7c761b97aa08d4ba0a97cc10976618d46c0cd4ca0a7c7b1d7c7c1c7c761e7c781f97bb08d4cb0b976610978818d46808d4b808978820d48a0a7c78097c7b087c7c0a7c760b978808d4b80897cc10976618d46c0cd4c8087c7b0d7c7c0c7c760e7c770f97bb08d4cb0b976610977718d46707d4b707977720d487076f766fa86f996f277b17787b1970d497076489d46808d47808988820d46707977720d48707520721037b196883973308207b176050200601b6ac46171f46171e46171d46171c46171b46171a46171946171846171746171646171546171446171346171246171146171046170f46170e46170d46170c46170b46170a461709461708461707461706461705461704461703a00046170279461701c300460708821868958704d88708821a78c88a09d8a90ada880ac86a0ad86a08821b70c88b0b7b1988007b1780007b1a90009517a000951880007b1b98005020080176e18217a8008212b8008213a000821ab000280b0250200a01b9e333074033082050200c01edab7c78117c79107c7a127c7b13978808d4980897aa1097bb18d4ba0ad4a8087c79157c7a147c7b167c7c17979908d4a90997bb1097cc18d4cb0bd4b909979920d489027c79017c7a7c7b027c7c03979908d4a90997bb1097cc18d4cb0bd4b9097c7a057c7b047c7c067c760797aa08d4ba0a97cc10976618d46c0cd4ca0a97aa20d4a9097c7a197c7b187c7c1a7c761b97aa08d4ba0a97cc10976618d46c0cd4ca0a7c7b1d7c7c1c7c761e7c781f97bb08d4cb0b976610978818d46808d4b808978820d48a0a7c78097c7b087c7c0a7c760b978808d4b80897cc10976618d46c0cd4c8087c7b0d7c7c0c7c760e7c770f97bb08d4cb0b976610977718d46707d4b707977720d487076f766fa86f996f277b17787b1970d497076489d46808d47808988820d46707977720d48707520717017b196883973308207b176050200e01acaa46171f46171e46171d46171c46171b46171a46171946171846171746171646171546171446171346171246171146171046170f46170e46170d46170c46170b46170a461709461708461707461706461705461704461703a00046170279461701c300460708821868958704d88708821a78c88a09d8a90ada880ac86a0ad86a08821b70c88b0b7b1908017b1700017b1a100195172001951800017b1b18015020100121e4821728018212380182132001821a300101821878d3870bd8870c6484821968d89308dab80cc96a0bd86a0a821670c96206c9a606d8cb0ac9a606c9cb0bc94707c98708c99307d46808d4b709d48909d4b808989920978820d498085108720033073308502012019fa9837833070133090a0b014921f0004921e8004921e000140700000000717b484e9518e0007b17f800330750201401afa94921d8004921d0004921c000413307049518c0004921c8005020160191a933082433075020180146a983783307013309240a0b018376821760646850201a012ea98378330701646933001c010a0b014917184917104917083308607b783200951110ff7b10e8007b15e0007b16d8009515f0008411f0828918828b10828c08d49b0688ca01946a7b1748510a9e01828698b73b7b1920979805d4870798c83b7b1b2897b905d4980898693b7b1c1097ca05d4a9097b1618976a0595ab20d8ab0ac8a90cd89c09daaa09c88909d88908c8870a7b1b90007b1c98007b19a0009517b000951890007b1aa80050201e019aaf8217c8008219c0008218b800821ab0007b17387b1830d48707d49a08d478089888207b1940d49707977720d487075207090183a73308207b1a08502020013fa88218206f888219286f99821a106faa821b186fbb98bc38787c1f98bc30787c1e98bc28787c1d98bc20787c1c98bc18787c1b98bc10787c1a98bc08787c19787b18787a1098ab38787b1798ab30787b1698ab28787b1598ab20787b1498ab18787b1398ab10787b1298aa08787a11787908989a38787a0f989a30787a0e989a28787a0d989a20787a0c989a18787a0b989a10787a0a98990878790978789889387879079889307879069889287879059889207879049889187879039889107879029888087878018217488218087b788218387b78188218307b78088218407b7810955110ff8210e8008215e0008216d8009511f00032000049218000491178491170140700000000717b484e9518707b17880033075020220164a749116849116049115041330704951850491158502024014ba733082433075020260100a78378330701330924330028010a0b019511a07b10587b15507b16489515608411f0647649111849111049018000951720641849110850202a01e0ad821730821838821920821a287b67107b68187b697b6a089551a082105882155082164895116032008217b8007b17488216b0008217a8007b17708217a0007b17788217607b17d8008217687b17d0008217587b17c8008217507b17c0004921f8004921f0004921e8004921e00048210001208318c000831ae000831b00013309ff33070a0601821748821870d48707821878d46808d478089888207b1638d46707977720d487075207cf048217f0008218e8007b18288218e0007b18309777209876208117783308207b174050202e01f3a56f688219286f99821a306faa98ab38787b1f98ab30787b1e98ab28787b1d98ab20787b1c98ab18787b1b98ab10787b1a98ab08787b19787a1878791046170b46170a4617094617074617064617054617044617034617024617014607989a38787a17989a30787a16989a28787a15989a20787a14989a18787a13989a10787a1298990878791178780898893878790f98893078790e98892878790d98882078780c821750957701887801821958c89808d48709889901821a68c8a909d8a90a821b60c8ba0a7b1ad8007b19d0007b18c8007b17c0004921f8004921f0004921e8004921e00048210001208318c000831ae000831b00013309ff33070a0601821748821938d47909140700000000010000007b17281407e0ffffff00000000821878d8780782187094877b19309497510776038216f8008217f0007b17088217e8007b17108217e0007b17188217408377203308205020300199a46f688219086f99821a106faa821b186fbb98bc38787c1f98bc30787c1e98bc28787c1d98bc20787c1c98bc18787c1b98bc10787c1a98bc08787c19787b18787a1098ab38787b1798ab30787b1698ab28787b1598ab20787b1498ab18787b1398ab10787b1298aa08787a11787908989a38787a0f989a30787a0e989a28787a0d989a20787a0c989a18787a0b989a10787a0a9899087879097878988938787907988930787906988928787905988920787904988918787903988910787902988808787801821850958702d88708821a58c88a09d8a90ada880a821868c88a0ad88a08821b60c8b8087b18d8007b1ad0007b19c8007b17c0004921f8004921f0004921e8004921e00048210001208318c000831ae000831b00013309ff33070a06018217289577c0821878d8780782187094878218309487510713028216f8008217f0007b17108217e8007b17188217e0007b17288217408377403308205020320136a36f688219106f99821a186faa821b286fbb98bc38787c1f98bc30787c1e98bc28787c1d98bc20787c1c98bc18787c1b98bc10787c1a98bc08787c19787b18787a1098ab38787b1798ab30787b1698ab28787b1598ab20787b1498ab18787b1398ab10787b1298aa08787a11787908989a38787a0f989a30787a0e989a28787a0d989a20787a0c989a18787a0b989a10787a0a9899087879097878988938787907988930787906988928787905988920787904988918787903988910787902988808787801821850958703d88708821a58c88a09d8a90ada880a821868c88a0ad88a08821b60c8b8087b18d8007b1ad0007b19c8007b17c0004921f8004921f0004921e8004921e00048210001208318c000831ae000831b00013309ff33070a06011407a0ffffff00000000821878d87807821870948782183094875107ac008217e0008477ff008e7682174083776033082050203401dea178761f46171e46171d46171c46171b46171a46171946171846171746171646171546171446171346171246171146171046170f46170e46170d46170c46170b46170a46170946170846170746170646170546170446170346170246170146078217208218787b788218487b78188218707b78088218387b78109551e0fe82101801821510018216080195112001320000821738017b1738821730017b1730821728017b1728821720017b172033082033075020380127a1821888006f88821990006f99821a98006faa6f6b98bc38787c1f98bc30787c1e98bc28787c1d98bc20787c1c98bc18787c1b98bc10787c1a98bc08787c19787b1898ab38787b1798ab30787b1698ab28787b1598ab20787b1498ab18787b1398ab10787b1298ab08787b11787a10989a38787a0f989a30787a0e989a28787a0d989a20787a0c989a18787a0b989a10787a0a989a08787a097879089889387879079889307879069889287879059889207879049889187879039889107879029889087879017878330820330750203a0155a08377831980013308200a07018217b8008219b000d497078218a0008219a800d49808d487075107dc03821820958920d889076482821828c8780cd88c046486da7704821030c80404d80403821738c873038e478e38da3708140700000000010000007b199000649bda870b649a7b1c8800dac70ae47907dbca07d4340adbab0764c99389daac09856affc89a088529ffc89707d89709c89808d3a80bd8a802dab9027b148000644a7b139800933ada340a8500ffc8a003c8320297293b988605d469097b197097883b987705d487067b1678821ba80088b701821ab000c97a0c95b4ffd39c07d89c08d86409db7809d4ab07887701821ba000d87b08821ab800c98a08c97b07d8030a821b3885b0ff821b9800c8b000c80a0ad83206c8a606982205976a3bd4a200986605d80702d36803d8680ada320ad3070bd43b0bdab90adaa608daa007821970daa90c82199001821b78daab04984a3b97cb05d4ab0298cc3b977b05d4cb0a821c800198773b978805d4870782188801821b9800c8b707821698016fcc6f836f906f6b97440582188000c8a806d88608c8870782198800c8290a82189000c884047b1458d88408c88a0ad39a027b1a50d89a0ada280ac86a0a7b1a48d86a08c887077b17408212208218288219308217387b17b800016497952a207b1aa000d82a09c8980a7b1ab000d88a06da9906c876067b16a800d876078216b800c876067b1b80007b1bc0007b1088007b10c8007b1390007b13d0009517e0009518c0007b1c98007b1cd80033003c019511e0fe7b1018017b1510017b160801951520018411e082897b19508289087b19588289107b19688288187b18607b172049219800492190004921800080009517a000951880004921880033002c0128e6a48219a000821aa800d4a9077b16b8008218b000d46808d48707987720d4a808978820d48707520785018217f8007b17708217f0007b17788217e8007b17688217e0007b17608397330820649650203e017c9d64628218606f8898893878791f98893078791e98892878791d98892078791c98891878791b98891078791a9889087879198219686f997878189898387878179898307878169898287878159898207878149898187878139898107878128218706f88821a786faa787910989908787911787a0898a93878790f98a93078790e98a92878790d98a92078790c98a91878790b98a91078790a98aa08787a09787898893878790798893078790698892878790598892078790498891878790398891078790298880878780182188000958304d88308821a8800c88a07d8a70ada880a821858d36808821b488219a800d39b0bd4b804821b508218b000d38b0b821c408216b800d36c0cd4cb0bd4b406821b9000c8ba0ad8ba0b821c9800c8bc0c643b647064a35206e2fd8217188218207b788218287b78088218307b78108218387b7818955140fe8210b8018215b0018216a8019511c0013200009511a07b10587b15507b1648828a18828b10828c088286d4ac08d4b609d48909989920d4b808978820d498087b1728520806029567207b1730d86707c87c087b18407b1c08d8c805da7705c8b5057b1b10d8b5077b1a18c8a7077b17387b16836733082033062050204001b69b78761f8218306486d45808821940821b38d4b909d498089888207b1520d45909979920d4980846171e46171d46171c46171b46171a46171946171846171746171646171546171446171346171246171146171046170f46170e46170d46170c46170b46170a4617094617084617074617064617054617044617034617024617014607520846018365330820645750204201239b46171f0a46171e46171d46171c46171b46171a46171946171846171746171646171546171446171346171246171146171046170f46170e46170d46170c46170b46170a461709461708461707461706461705461704461703461702461701821820821938d498081409e0ffffff00000000d89609821a4094a9948946075109b80083572033082050204401969a46171f46171e46171d46171c46171b46171a46171946171846171746171646171546171446171346171246171146171046170f46170e46170d46170c46170b46170a46170944461708494617072046170664461705694617046c46170361461702764617016e4607498218958760d88708821a08c88a09d8a90ada880a821810c88a0ad88a08821b18c8b808821b287bb77bb9087bba107bb8188210588215508216489511603200009511a07b10587b15507b1648828a18828b10828c088286d4ac08d4b609d48909989920d4b808978820d498087b1728520804029567207b1730d86707c87c087b18407b1c08d8c805da7705c8b5057b1b10d8b5077b1a18c8a7077b17387b16836733082033062050204601809978761f8218306486d45808821940821b38d4b909d498089888207b1520d45909979920d4980846171e46171d46171c46171b46171a46171946171846171746171646171546171446171346171246171146171046170f46170e46170d46170c46170b46170a4617094617084617074617064617054617044617034617024617014607520844018365330820645750204801ed9846171f0846171e46171d46171c46171b46171a46171946171846171746171646171546171446171346171246171146171046170f46170e46170d46170c46170b46170a461709461708461707461706461705461704461703461702461701821820821938d498081409e0ffffff00000000d89609821a4094a9948946075109b60083572033082050204a01609846171f46171e46171d46171c46171b46171a46171946171846171746171646171546171446171346171246171146171046170f46170e46170d46170c46170b46170a4617094617084617076546170676461705694617047446170363461702614617016e4607498218958760d88708821a08c88a09d8a90ada880a821810c88a0ad88a08821b18c8b808821b287bb77bb9087bba107bb8188210588215508216489511603200009511a07b10587b15507b1648828a18828b10828c088286d4ac08d4b609d48909989920d4b808978820d498087b1728520807029567207b1730d86707c87c087b18407b1c08d8c805da7705c8b5057b1b10d8b5077b1a18c8a7077b17387b16836733082033062050204c014c9778761f8218306486d45808821940821b38d4b909d498089888207b1520d45909979920d4980846171e46171d46171c46171b46171a46171946171846171746171646171546171446171346171246171146171046170f46170e46170d46170c46170b46170a4617094617084617074617064617054617044617034617024617014607520847018365330820645750204e01b99646171f0b46171e46171d46171c46171b46171a46171946171846171746171646171546171446171346171246171146171046170f46170e46170d46170c46170b46170a461709461708461707461706461705461704461703461702461701821820821938d498081409e0ffffff00000000d89609821a4094a9948946075109b900835720330820502050012c9646171f46171e46171d46171c46171b46171a46171946171846171746171646171546171446171346171246171146171046170f46170e46170d46170c46170b46170a674617096e461708694617077446170673461705694617046c461703204617026e4617017746074f8218958760d88708821a08c88a09d8a90ada880a821810c88a0ad88a08821b18c8b808821b287bb77bb9087bba107bb8188210588215508216489511603200008213f0008212e800821758058218400582145005821a4805d3670bd876078219f800d8490cdbb70cd32a07d8a20ad88308db7a08d39407d4b707db7c08520806288f1b7b130002492138024921300249212802492120027b1208027b1910029517400295182002951900027b161802502052010cbe82174002821b580282184802821c50029579037b17f000d87907c8780a7b18e800d88a08da7708c8c8087b1cd000d8c8077b1bf800c8b7077b1ab0007b1a28057b19207b1920057b18a8007b1830057b17a0007b17380549215805492150054921480549214005482100052083182005831a4005831b00053309ff33070a06017c17400552070628e01c8317c0020a048217c8028218c0028119d0026f77987a206f86976820d4a8087b18e0009777206f98988820d487077b17d8009866208217f8007b1738058217d0007b1730058217e8007b1728058217f0007b17200549215805492150054921480549214005482100052083182005831a4005831b00053309ff33070a0601801750058218400582194805d36707821ad800d3a808d487078218e000d39808d4870752070628461e4921380549213005492128054921200501492158054921500549214805492140053306207a16000583182005831a4005831b00053309ff33070a06821750057b1758821748057b1750821740057b17608317e0020a048117f0027b1798008217e0027b1790008217f000957902d879078218e800c8780ad88a08da77088217e8027b1788008217d000c878087a160005d87807821bf800c8b7077b17307b1738057b18387b1830057b1a407b1a28057b19487b1920054921580549215005492148054921400583182005831a4005831b00053309ff33070a06821758057b1768821750057b1770821748057b1778821740057b17800033074033082050205401da927c78117c79107c7a127c7b13978808d4980897aa1097bb18d4ba0ad4a8087c79157c7a147c7b167c7c17979908d4a90997bb1097cc18d4cb0bd4b909979920d489027c79017c7a7c7b027c7c03979908d4a90997bb1097cc18d4cb0bd4b9097c7a057c7b047c7c067c760797aa08d4ba0a97cc10976618d46c0cd4ca0a97aa20d4a9097c7a197c7b187c7c1a7c761b97aa08d4ba0a97cc10976618d46c0cd4ca0a7c7b1d7c7c1c7c761e7c781f97bb08d4cb0b976610978818d46808d4b808978820d48a0a7c78097c7b087c7c0a7c760b978808d4b80897cc10976618d46c0cd4c8087c7b0d7c7c0c7c760e7c770f97bb08d4cb0b976610977718d46707d4b707977720d487076f766faa6f986f277b17e0007b18c000d48707d46a08d47808988820d46707977720d48707510706287b2083a73308207b17c8007b1ad80050205601959146171f46171e46171d46171c46171b46171a46171946171846171746171646171546171446171346171246171146171046170f46170e46170d46170c46170b46170a461709461708461707461706461705461703e6004617028c00461701ca0046074d7b1628821ac000d46a0a1408fcffffff000000008219d800d889088219e00094987b1ab80094a846170452080628d51f821788006f77987820821990006f99979a20d4a8087b189000977720821898006f88988820d487077b1798009896208217c80083770433082050205801c3906f68821990006f99821a98006faa98ab38787b1f98ab30787b1e98ab28787b1d98ab20787b1c98ab18787b1b98ab10787b1a98ab08787b19787a1878791046170b46170a4617094617074617064617054617044617034617024617014607989a38787a17989a30787a16989a28787a15989a20787a14989a18787a13989a10787a1298990878791178780898893878790f98893078790e98892878790d988820140600000000010000001409dcffffff00000000821ad800d89a09821ae00094a9821ab80094a978780c52090628c61e8217c80083772433082050205a01e38f8218686f888219706f99821a786faa821b80006fbb98bc38787c1f98bc30787c1e98bc28787c1d98bc20787c1c98bc18787c1b98bc10787c1a98bc08787c19787b18787a1098ab38787b1798ab30787b1698ab28787b1598ab20787b1498ab18787b1398ab10787b1298aa08787a11787908989a38787a0f989a30787a0e989a28787a0d989a20787a0c989a18787a0b989a10787a0a98990878790978789889387879079889307879069889287879059889207879049889187879039889107879029888089569bc821ad800d89a09821ae00094a9821ab80094a978780152090628d21d8216c80083674433082050205c01ef8e46171f0146171e46171d46171c46171b46171a46171946171846171746171646171546171446171346171246171146171046170f46170e46170d46170c46170b46170a46170946170846170746170646170546170446170346170246170146070a088217506f779778208219586f99989920d498088219606f99979a20987720d4a7079899207b1708037b1800037a19100349213803492130034921280349212003330864646750205e01428e7b17b800330820646750206001338e4821400320492178034921700349216803492160039518000397882098882014090000000018000000d498069518200397882098882095196003979920d4890a8218b80097882098882014090000000064000000d4980b97772098772095184003978820d4780c3308ff3309ff64670a015107062806140a0a01330820ae87080a0a647801330b821ac0008219d8008216e00095871f7b18d800d887084921e0008488018477e0c879097b19c000d87907c88606c87606d38609d88608da9708821728c87808d87807c8a7077b18b8007b179800d48707886801947852080628441c33074033082050206201458d821898006f888219b8006f996f6a821bc0006fbb787b1898bc38787c1f98bc30787c1e98bc28787c1d98bc20787c1c98bc18787c1b98bc10787c1a98bb08787b19787a1098ab38787b1798ab30787b1698ab28787b1598ab20787b1498ab18787b1398ab10787b1298aa08787a11787908989a38787a0f989a30787a0e989a28787a0d989a20787a0c989a18787a0b989a10787a0a9899087879097878988938787907988930787906988928787905988920787904988918787903988910787902988808821ce0008ec9821ad80088aa2085aa01dbc90a8ec98ecbdac90bd4cc09da9a0b787801520b06282c1b3308208217c800502064014b8c7c78097c79087c7a0a7c7b0b978808d4980897aa1097bb18d4ba0ad4a8087c790d7c7a0c7c7b0e7c7c0f979908d4a90997bb1097cc18d4cb0bd4b909979920d489027c79017c7a7c7b027c7c03979908d4a90997bb1097cc18d4cb0bd4b9097c7a057c7b047c7c067c760797aa08d4ba0a97cc10976618d46c0cd4ca0a97aa20d4a9097c7a197c7b187c7c1a7c761b97aa08d4ba0a97cc10976618d46c0cd4ca0a7c7b1d7c7c1c7c761e7c781f97bb08d4cb0b976610978818d46808d4b808978820d48a0a7c78117c7b107c7c127c7613978808d4b80897cc10976618d46c0cd4c8087c7b157c7c147c76167c771797bb08d4cb0b976610977718d46707d4b707977720d487076f786fab88bb02948bd492086f88948b520b0628021ad49707d4a208d487075207062896174921380549213005492128054921200501492158054921500549214805492140053306207a16000583182005831a4005831b00053309ff33070a06821740057b17e000821750057b17d800821748057b17c800831780030a04811790037b17b800821780037b179800821788037b1790008217f8007b1738058217d0007b1730058217e8007b1728058217f0007b172005492158054921500549214805492140057a16000583182005831a4005831b00053309ff33070a06821748057b178000821740057b178800801750057b17788217307b1738058217387b1730058217407b1728058217487b172005492158054921500549214805492140057a16000583182005831a4005831b00053309ff33070a06821758057b1750821750057b1758821748057b1760821740057b17688217c8006f779778208219d8006f99989920d4890a9877208218e0006f88978920d497079888207b17387b17a8037b1a487b1aa0037b18407a18b0038317a0030a0501520706288818330740330820502066019c897c78117c79107c7a127c7b13978808d4980897aa1097bb18d4ba0ad4a8087c79157c7a147c7b167c7c17979908d4a90997bb1097cc18d4cb0bd4b909979920d489037c78017c797c7a027c7b03978808d4980897aa1097bb18d4ba0ad4a8087c79057c7a047c7b067c7c07979908d4a90997bb1097cc18d4cb0bd4b909979920d489027c78197c79187c7a1a7c7b1b978808d4980897aa1097bb18d4ba0ad4a8087c791d7c7a1c7c7b1e7c7c1f979908d4a90997bb1097cc18d4cb0bd4b909979920d4890c7c78097c79087c7a0a7c7b0b978808d4980897aa1097bb18d4ba0ad4a8087c790d7c7a0c7c7b0e7c770f979908d4a90997bb10977718d4b707d49707977720d487077b17106f767b1c186fc87b12306f297b13286f377b17d8007b19c000d497077b18e000d46808d47808988820d46707977720d48707510706282d178117e0003308207b17c80050206801498846171f46171e46171d46171c46171b46171a46171946171846171746171646171546171446171346171246171146171046170f46170e46170d46170c46170b46170a461709461708461707461706461705461703424617022446170135460765821ac000d46a0a140800000000010000007b18701408fcffffff000000008219e000d889088219d80094987b1ac00094a8461704520806288216821790006f77987820821998006f99979a20d4a8087b1898009777208218b8006f88988820d487077b17b8009896208217c80083770433082050206a0170876f68821998006f99821ab8006faa98ab38787b1f98ab30787b1e98ab28787b1d98ab20787b1c98ab18787b1b98ab10787b1a98ab08787b19787a1878791046170b46170a4617094617074617064617054617044617034617024617014607989a38787a17989a30787a16989a28787a15989a20787a14989a18787a13989a10787a1298990878791178780898893878790f98893078790e98892878790d9888208219709599dc821ae000d89a09821ad80094a9821ac00094a978780c5209062881158217c80083772433082050206c019e868218786f88821980006f99821a88006faa98ab38787b1f98ab30787b1e98ab28787b1d98ab20787b1c98ab18787b1b98ab10787b1a98ab08787b19787a1878791046170b46170a4617094617074617064617054617044617034617024617014607989a38787a17989a30787a16989a28787a15989a20787a14989a18787a13989a10787a1298990878791178780898893878790f98893078790e98892878790d988820140600000000010000001409bcffffff00000000821ae000d89a09821ad80094a9821ac00094a978780c520906289e148217c80083774433082050206e01bb858218506f888219586f99821a606faa821b686fbb98bc38787c1f98bc30787c1e98bc28787c1d98bc20787c1c98bc18787c1b98bc10787c1a98bc08787c19787b18787a1098ab38787b1798ab30787b1698ab28787b1598ab20787b1498ab18787b1398ab10787b1298aa08787a11787908989a38787a0f989a30787a0e989a28787a0d989a20787a0c989a18787a0b989a10787a0a989908787909787898893878790798893078790698892878790598892078790498891878790398891078790298880895699c821ae000d89a09821ad80094a9821ac00094a978780152090628ab13140700000000840000007b17d800140700000000080000007b17c0008216c80083676433082050207001ac8446171f0146171e46171d46171c46171b46171a46171946171846171746171646171546171446171346171246171146171046170f46170e46170d46170c46170b46170a46170946170846170746170646170546170446170346170246170146070a088217387b17c8038217487b17c0038217407a17d0034921f8034921f0034921e8034921e0033308840064675020720119847b17e00064673308502074010b844821000449213804ff49213004ff49212804ff49212004ff9518c0039788209888208216c000d486069518e00397882098882095192004979920d4890a8218e000978820988820821bd800d48b0b97772098772095180004978820d4780c3308ff3309ff64670a015207ea090a0a330740330820502076019183821a18787a1882192898983878781798983078781698982878781598982078781498981878781398981078781298980878781178791082191098983878780f98983078780e98982878780d98982078780c98981878780b98981078780a989808787809787908821930989838787807989830787806989828787805989820787804989818787803989810787802989808787801787998a83878781f98a83078781e98a82878781d98a82078781c98a81878781b98a81078781a98a808787819492138054921300549212805492120050149215805492150054921480549214005482100052083182005831a4005831b00053309ff33070a06821740057b17e000821750057b17c800821748057b17b8008217f8007b1738058216d0007b1630058217e8007b1728058217f0007b17200549215805492150054921480549214005482100052083182005831a4005831b00053309ff33070a06821740057b179800821748057b179000821750057b178800831740040a04811750047b178000821740047b1778821748047b17708217f0009577018878018219e800c89808d48709889901c86909d8690a821bf800c8ba0a7b1a38057b1930057b1828057b17200549215805492150054921480549214005482100052083182005831a4005831b00053309ff33070a06821758057b1750821750057b1758821748057b1760821740057b17688217b8006f779778208219c8006f99989920d4890a9877208218e0006f88978920d497079888207b17387b1768047b1a487b1a60047b18407a187004831760040a05015207062824103307403308205020780138817c78117c79107c7a127c7b13978808d4980897aa1097bb18d4ba0ad4a8087c79157c7a147c7b167c7c17979908d4a90997bb1097cc18d4cb0bd4b909979920d489037c78017c797c7a027c7b03978808d4980897aa1097bb18d4ba0ad4a8087c79057c7a047c7b067c7c07979908d4a90997bb1097cc18d4cb0bd4b909979920d489027c78197c79187c7a1a7c7b1b978808d4980897aa1097bb18d4ba0ad4a8087c791d7c7a1c7c7b1e7c7c1f979908d4a90997bb1097cc18d4cb0bd4b909979920d4890c7c78097c79087c7a0a7c7b0b978808d4980897aa1097bb18d4ba0ad4a8087c790d7c7a0c7c7b0e7c770f979908d4a90997bb10977718d4b707d49707977720d487077b17106f767b1c186fc87b12306f297b13286f377b17f0007b19e000d497077b18f800d46808d47808988820d46707977720d487075207cc0e8117f8003308207b17e80050207a01e77fff46171f46171e46171d46171c46171b46171a46171946171846171746171646171546171446171346171246171146171046170f46170e46170d46170c46170b46170a461709461708461707461706461705461703424617022446170135460765821ae000d46a0a140800000000010000007b18d0001408fcffffff000000008219f800d889088219f00094987b1ae00094a84617045108210e1407ffffffff0000000082168800d27606821790008477ff7b17b800821798008477ff7b17c8008217e80083770433082050207c01167fff6f688219b8006f99821ac8006faa98ab38787b1f98ab30787b1e98ab28787b1d98ab20787b1c98ab18787b1b98ab10787b1a98ab08787b19787a1878791046170b46170a4617094617074617064617054617044617034617024617014607989a38787a17989a30787a16989a28787a15989a20787a14989a18787a13989a10787a1298990878791178780898893878790f98893078790e98892878790d9888208219d0009599dc821af800d89a09821af00094a9821ae00094a978780c5109280d8217706f779878208219786f99979a20d4a8087b18d000977720821880006f88988820d487077b17c8009896208217e80083772433082050207e01177eff6f688219d0006f99821ac8006faa98ab38787b1f98ab30787b1e98ab28787b1d98ab20787b1c98ab18787b1b98ab10787b1a98ab08787b19787a1878791046170b46170a4617094617074617064617054617044617034617024617014607989a38787a17989a30787a16989a28787a15989a20787a14989a18787a13989a10787a1298990878791178780898893878790f98893078790e98892878790d988820140600000000010000001409bcffffff00000000821af800d89a09821af00094a9821ae00094a978780c51091c0c8217e80083774433082050208001387dff8218506f888219586f99821a606faa821b686fbb98bc38787c1f98bc30787c1e98bc28787c1d98bc20787c1c98bc18787c1b98bc10787c1a98bc08787c19787b18787a1098ab38787b1798ab30787b1698ab28787b1598ab20787b1498ab18787b1398ab10787b1298aa08787a11787908989a38787a0f989a30787a0e989a28787a0d989a20787a0c989a18787a0b989a10787a0a989908787909787898893878790798893078790698892878790598892078790498891878790398891078790298880895699c821af800d89a09821af00094a9821ae00094a978780151092a0b8216e80083676433082050208201467cff46171f0146171e46171d46171c46171b46171a46171946171846171746171646171546171446171346171246171146171046170f46170e46170d46170c46170b46170a46170946170846170746170646170546170446170346170246170146070a088217387b1788048217487b1780048217407a1790044921b8044921b0044921a8044921a00433088400646750208401b27bff7b17f8006467330850208601a37bff4821c0044921f804ff4921f004ff4921e804ff4921e004ff951880049788209888208216c000d486069518a0049788209888209519e004979920d4890a8218f800978820988820821bd800d48b0b9777209877209518c004978820d4780c3308ff3309ff64670a01520781010a0a33074033082050208801287bff821a18787a1882192898983878781798983078781698982878781598982078781498981878781398981078781298980878781178791082191098983878780f98983078780e98982878780d98982078780c98981878780b98981078780a989808787809787908821930989838787807989830787806989828787805989820787804989818787803989810787802989808787801787998a83878781f98a83078781e98a82878781d98a82078781c98a81878781b98a81078781a98a8087878198217a0007b1738058217a8007b1730058217b0007b1728058216207b16200549215805492150054921480549214005482100052083182005831a4005831b00053309ff33070a06821740058218480582195005821a5805847700ff821ba0007b1b3805821ba8007b1b3005821bb0007b1b28057b1620057b1a58057b1950057b1848057b17400583182005831a40053309ff330b2033070a0d955180fa82107805821570058216680595118005320050208a0173b133074033082050208c01a779ff7c78117c79107c7a127c7b13978808d4980897aa1097bb18d4ba0ad4a8087c79157c7a147c7b167c7c17979908d4a90997bb1097cc18d4cb0bd4b909979920d489027c79017c7a7c7b027c7c03979908d4a90997bb1097cc18d4cb0bd4b9097c7a057c7b047c7c067c760797aa08d4ba0a97cc10976618d46c0cd4ca0a97aa20d4a9097c7a197c7b187c7c1a7c761b97aa08d4ba0a97cc10976618d46c0cd4ca0a7c7b1d7c7c1c7c761e7c781f97bb08d4cb0b976610978818d46808d4b808978820d48a0a7c78097c7b087c7c0a7c760b978808d4b80897cc10976618d46c0cd4c8087c7b0d7c7c0c7c760e7c770f97bb08d4cb0b976610977718d46707d4b707977720d487076f766fa86f996f277b17f8007b19f000d497076489d46808d47808988820d46707977720d48707520748077b19e80083973308207b17e00050208e016178ff46171f46171e46171d46171c46171b46171a46171946171846171746171646171546171446171346171246171146171046170f46170e46170d46170c46170b46170a461709461708461707461706461705461704461703a00046170279461701c3004607088218e800958704d88708821af800c88a09d8a90ada880ac86a0ad86a08821bf000c88b0b7b1988027b1780027b1a90029517a002951880027b1b9802502090019cdb8217a8028212b8028213a002821ab002282806330740330820502092019a77ff7c78117c79107c7a127c7b13978808d4980897aa1097bb18d4ba0ad4a8087c79157c7a147c7b167c7c17979908d4a90997bb1097cc18d4cb0bd4b909979920d489027c79017c7a7c7b027c7c03979908d4a90997bb1097cc18d4cb0bd4b9097c7a057c7b047c7c067c760797aa08d4ba0a97cc10976618d46c0cd4ca0a97aa20d4a9097c7a197c7b187c7c1a7c761b97aa08d4ba0a97cc10976618d46c0cd4ca0a7c7b1d7c7c1c7c761e7c781f97bb08d4cb0b976610978818d46808d4b808978820d48a0a7c78097c7b087c7c0a7c760b978808d4b80897cc10976618d46c0cd4c8087c7b0d7c7c0c7c760e7c770f97bb08d4cb0b976610977718d46707d4b707977720d487076f766fa86f996f277b17f8007b19f000d497076489d46808d47808988820d46707977720d4870752073b057b19e80083973308207b17e000502094015476ff46171f46171e46171d46171c46171b46171a46171946171846171746171646171546171446171346171246171146171046170f46170e46170d46170c46170b46170a461709461708461707461706461705461704461703a00046170279461701c3004607088218e800958704d88708821af800c88a09d8a90ada880ac86a0ad86a08821bf000c88b0b7b1908017b1700017b1a100195172001951800017b1b180150209601c5db821728018212380182132001821a3001281b04330740330820502098018d75ff7c78117c79107c7a127c7b13978808d4980897aa1097bb18d4ba0ad4a8087c79157c7a147c7b167c7c17979908d4a90997bb1097cc18d4cb0bd4b909979920d489027c79017c7a7c7b027c7c03979908d4a90997bb1097cc18d4cb0bd4b9097c7a057c7b047c7c067c760797aa08d4ba0a97cc10976618d46c0cd4ca0a97aa20d4a9097c7a197c7b187c7c1a7c761b97aa08d4ba0a97cc10976618d46c0cd4ca0a7c7b1d7c7c1c7c761e7c781f97bb08d4cb0b976610978818d46808d4b808978820d48a0a7c78097c7b087c7c0a7c760b978808d4b80897cc10976618d46c0cd4c8087c7b0d7c7c0c7c760e7c770f97bb08d4cb0b976610977718d46707d4b707977720d487076f766fa86f996f277b17f8007b19f000d497076489d46808d47808988820d46707977720d4870752072e037b19e80083973308207b17e00050209a014774ff46171f46171e46171d46171c46171b46171a46171946171846171746171646171546171446171346171246171146171046170f46170e46170d46170c46170b46170a461709461708461707461706461705461704461703a00046170279461701c3004607088218e800958704d88708821af800c88a09d8a90ada880ac86a0ad86a08821bf000c88b0b7b1948017b1740017b1a500195176001951840017b1b580150209c01ecdb821768018212780182136001821a7001280e0233074033082050209e018073ff7c78117c79107c7a127c7b13978808d4980897aa1097bb18d4ba0ad4a8087c79157c7a147c7b167c7c17979908d4a90997bb1097cc18d4cb0bd4b909979920d489027c79017c7a7c7b027c7c03979908d4a90997bb1097cc18d4cb0bd4b9097c7a057c7b047c7c067c760797aa08d4ba0a97cc10976618d46c0cd4ca0a97aa20d4a9097c7a197c7b187c7c1a7c761b97aa08d4ba0a97cc10976618d46c0cd4ca0a7c7b1d7c7c1c7c761e7c781f97bb08d4cb0b976610978818d46808d4b808978820d48a0a7c78097c7b087c7c0a7c760b978808d4b80897cc10976618d46c0cd4c8087c7b0d7c7c0c7c760e7c770f97bb08d4cb0b976610977718d46707d4b707977720d487076f766fa86f996f277b17f8007b19f000d497076489d46808d47808988820d46707977720d48707520721017b19e80083973308207b17e0005020a0013a72ff46171f46171e46171d46171c46171b46171a46171946171846171746171646171546171446171346171246171146171046170f46170e46170d46170c46170b46170a461709461708461707461706461705461704461703a00046170279461701c3004607088218e800958704d88708821af800c88a09d8a90ada880ac86a0ad86a08821bf000c88b0b7b19c8017b17c0017b1ad0019517e0019518c0017b1bd8015020a201abab8217e8018212f8018213e001821af001018218f800d3870bd8870c64848219e800d89308dab80cc96a0bd86a0a8216f000c96206c9a606d8cb0ac9a606c9cb0bc94707c98708c99307d46808d4b709d48909d4b808989920978820d498085108810000330733083300a401282171ff33085020a4011b71ff837833070133090a0b014921b0014921a8014921a001140700000000717b484e9518a0017b17b80133075020a6012a71ff4921980149219001492180014133070495188001492188015020a8010b71ff33082433075020aa01bf70ff83783307013309240a0b0183768217e00064685020ac01a570ff837833070164690a0b33073300ae0128c271ff33075020ae01bc71ff3307015020b001b271ff9511807b10787b15707b1668951580008411f08282828308828410828818829a829b08829c1082991864767b19187b1c107b1b087b1a7b18387b14307b132895174095182064197b12205020b2012382821750821858821940821a487b67107b68187b697b6a0895518082107882157082166895118000320049489220248414d249525252a22a2529499224499224499224499224499224499224499224494a4a4322444444921092244992244992244992242949d2244912499224214992244992242242444444241589444488482422924a429224499224499224294992244992244992244992244992244992244992244992a42a4992648552ab503524d40a559a24494248922449922449922449524812aa090404041211114992948040222222111151922a121211118988889288884892a42495849424499224499224499224499224499224499224499224499224499224499224495592528a8888244952928424499224499224499224499224499224499224499224499224254992244992244955922449922449922449922495a4449224892429542925499224499224499224499224499224494a922449922429499288882849004921892421859234294925499224892a540d2924499224499224499292244992244992a40248928a24499224499224499224499224499224a9942449d20aa53449492a499244084922494212a92449929024499224499224494a9224499224499224499224499224499224499224499224a94a922459a1d42425a19492244992244992244992922449922449922449124a6992925492248910224522918814119124499224094948922449922449922425499224499224499224499224499224499224499224499254254992ac50aaa450a5494a9224915409294992244992244992244992244992244992244992244992244992244992244992aa24a5344992942449922452925242955292244992244992244992244992244992a4244992244992244992a42449d28888244524492489445294881089481249229148241289442291482492244992242911922449922489442291482412894422912449922411092012454524212291288a2291482412894422914824124992244992244992244992a424929094244992244992244992244922914824128944229148241240248aa2882444a2288a44229148241289442291482449922449922449922449929248425292244992244992244992248944229148241289442291480091288a22921089a2489224499224499224499224499224499224499224499224494a92244992244992a4484292244992244992244992242522a211119124254992248924494a4a429224499224499224499224499224495224499224499212922449924892244992244992244992244992244992244992244992244992a42449922449922429a124499224499224499224499294244992244992244992244992244992248924954a49aa2449a50092524a2925a5a42425292949294992a4a42449524a92a492244992922449922449922449922449922449922495244992492a922449922409294992244992244992244992244992244992244992244992244992244992244992aa44229188888808892449922449922449925492a8a6248988884644248910222222121111492291282222222244442a22222222222222128944224948499224499224499224499224499224499224499224499224499224499224499294524a922449124942922449924424224992244992244992648552ab50a5491249524a922429499224499224494a524a92922449925292242949a2154a69924892a449922442484a9224958888489148242222222244442a499024499224499224494a9224499224499224499224499224499224499224499224a94a92245941a92205553449922480a420494a908292689224252949491225a924495292a48888484a92244989442211111122223522224992244992440a524a29499224499224499224499224499224495292244992242928524444559224499224499224499224494a12111145440011054924095250124d52924a222292244992242222222222228844221111111111222295244992242212918844448488482549922489484422129188881011a94824124992244912111111112222154992244992244992a4248988880a4ad1242549924892a4921254254992244992244992242549922449922449922469444492082152444444444444444452922411111111212252894422914824128944229188888824489224499224499224254992244992244992244992244992244992244992244992542549928824259108521425499224499224499224254992244992244912092080482a91248294524a92244992244992244992244992244992484a92244992445289924490524a4992244992244992244992244992244992922449922401445294aca0d42449522441922449922449922449922445a2a0289aa4249524494a92248924499224492a09929224499224499224499224499224498a52104992244992244992244992240920a92209922449922449129144442422222225499224494992a4a5684952499224419224499224499224294992244992244992244992244992244992244992244992a4524a93244992945412a4d4244d9682523449499224924a82244992244992244992444424524a932449499224912449922449254152922449922449922449922449922449510a22499224499224499224499224012455244192244992244992244922222252922449929424491a11114952924892249124124524419224499224499224499224499224499224499224a5942422222222224244a422914444444444221191d424012480484a1149224922499224414a922449922449922449922449922449922449922449922449922449922449922494524a229148444444442a12894422914844243589a4149124922492244912a424499224499224499224499224499224499224499224499224499224499224494a292591482422224244a42291482412894444520388a414914824924824892441922449929224499224499224499224499224499224499224499224499224499224a144444444444444442a222292888888888888482a22221a1149114912892492482412894824a94424128944222212414444928888484422129188882022228a8800220a924812898800220a222211410a4aa2111191a4544a9224529294222242444488885424128922914812244992244992244992922449922449922449922449922449922449922449922449aa92244912250992244992244992244992841092248024a5444a4a9294244982524a9224499224499224494a92244992244992248000929412498224499224499224499224499224494a4592209224499224499224499224a99494a4248988888814240521222292001249244902481249d2d1a4962449922449922449922209522a25499224499224499224499224499224494a92244992a424a9248924489224499224499224254992244992244992244992244992244992244992244992544a459288229188082222888848922449122525494a9224482949922449922429499224499224499224499224800092941249822449922449922449529224499224499252224990248024a524499224499224499224498a2441922449922449922449922429914824222222222222922449495222914844448488482522224a82244992244992244952922449922449922449922449922449922449922449922449559292248994044992244992244992244912222449922449444444101191200992244992244992244949922449922449922449922449922449922449922449922455494a9224521224499224499224499224498890244992241111114144c4242549922449922449b2825223228088828890882005252d05a56892544444244952a22449922449922449222222828888244992244a8294524a922449922449922449922449922449929424499224495292241111d14802481424912448414934499292480992242949922211892412894444448888d424499224119148922428a5244992244992244992a424499224499224499224499224111111112122529304900092942222914892a0945292244992244992244992244992244992a4244992244992244992242222222244446a92a4141189449204a594922449922449922449922449922449922425499224499224499224111111112122520348528a8892044992244992244992244992a4a424492222a29148249282288a4a922449922449922449922449922449922449922449520a8a3422114924294949925402885224492a49922489a22449922489449224492492249124499224499224922449224944a22a9124124992244992248925924812894444444444444444a4244992882022221189489224229148a414949224499224494992244992949224499224499292244992248924922489249144924822552425491211114d92242549924492244992249504494992244992244992244992244992244529882449922449922449922449920490549104499224499224499244444444444a92244992922449932449499224912449922449254152922449922449922449922449922449510a224992244992244992244992240124552441922449922449922449444444a42449922429499234499294244912499224499254122425499224499224499224499224499214a52092244992244992244992244912405245122449922449922449222222222252922449929424491a111191449224499288888888880822221249248944221211111111212252238922a294444a221111111111112122522322914492444488884844442a128944111191449288482492482412111111918a442211499024499224499224494a9224499224499224499224499224499224499224499224a98a48922449890892244992244992244992841092480091284a12254a2251128924288a9224499224499224499292244992244992240920804814258924482945499224499224499224499224499224499292244992248944519248824892244992244992244992a4525292922422222252102908111191049048228924802491249d34a945442291249224499288a42409a2a828499224499224499224499224499224495292244992248a2495244922489224499224499224254992244992244992244992244992244992244992244992544a25499288081111898848454444441111111111111111111111a988884822914844444444a4229148244a94244a924824a24912244992244992244992922449922449922449922449922449922449922449922449524a292291244912892049922449922449922449442412400288445192285112899248244151942449922449922449929424499224499224491289a2249104298a92244992244992244992922449922449922409208048142589244829a52449922449922449922449922449922449499224499244a2284900114044124492244992244992244992249548242222a2202a881042882412492491449248928e92204992244992244992244992244992244992242549922449121121222244442a22222222222222222244442a2222228a884422892449242222222244442a128944a24449a2248944229a2441922449922449922429499224499224499224499224499224499224499224499224a5942212499244240249922449922449922449222291002280481425028844221291048aa2244992244992244992a424499224499224492291284aa4a4241225914802455192244992244992244952922449922449922401041089a244248194524a92244992244992244992244992244992942449922449248a1291042249922449922449922449924a2412111151202a102184104924924822892491241d258124499224499224499224499224499224499294244992244944444422222244442a222222222222222222a988882848024992244992244992a4244992244992244992244992244992244992244992244992aa88942449448940922449922449922449928408892492249188888820222249204992244992244992942449922449922449922449922449922449922449922449521591922489281148922449922449922449921021914492241211111144442409244992244992244992922449922449922449922449922449922449922449922449aa225292241125024992244992244992244912222492489244222222828888248124499224499224495292244992244992244992244992244992244992244992244955444a9224a244204992244992244992244942844412499248444444101131922249224992244992c48a28506a44041051202224229002252d0a942aa2400249122949494a5292a40449929424890000"
				},
				"methodIdentifiers": {
					"acceptListing(uint256)": "b0eceb7e",
					"createListing(uint256,uint256)": "a79123a9",
					"getAllListings()": "ae73ccec",
					"inventory()": "15d52a5c",
					"listings(uint256)": "de74e57b"
				}
			},
			"hash": "b034811b8d1129cd1d4a57ffca3925992684095c5ff65b34663681f6c57290cd",
			"factoryDependencies": {}
		}
	}
}