{
	"InventoryManager.sol": {
		"InventoryManager": {
			"abi": [
				{
					"inputs": [],
					"stateMutability": "nonpayable",
					"type": "constructor"
				},
				{
					"inputs": [
						{
							"internalType": "address",
							"name": "to",
							"type": "address"
						},
						{
							"internalType": "uint256",
							"name": "cardId",
							"type": "uint256"
						}
					],
					"name": "addCard",
					"outputs": [],
					"stateMutability": "nonpayable",
					"type": "function"
				},
				{
					"inputs": [
						{
							"internalType": "address",
							"name": "",
							"type": "address"
						},
						{
							"internalType": "uint256",
							"name": "",
							"type": "uint256"
						}
					],
					"name": "cardInventory",
					"outputs": [
						{
							"internalType": "uint256",
							"name": "",
							"type": "uint256"
						}
					],
					"stateMutability": "view",
					"type": "function"
				},
				{
					"inputs": [
						{
							"internalType": "address",
							"name": "user",
							"type": "address"
						}
					],
					"name": "getInventory",
					"outputs": [
						{
							"internalType": "uint256[17]",
							"name": "",
							"type": "uint256[17]"
						}
					],
					"stateMutability": "view",
					"type": "function"
				},
				{
					"inputs": [
						{
							"internalType": "address",
							"name": "user",
							"type": "address"
						},
						{
							"internalType": "uint256",
							"name": "cardId",
							"type": "uint256"
						},
						{
							"internalType": "uint256",
							"name": "amount",
							"type": "uint256"
						}
					],
					"name": "hasCard",
					"outputs": [
						{
							"internalType": "bool",
							"name": "",
							"type": "bool"
						}
					],
					"stateMutability": "view",
					"type": "function"
				},
				{
					"inputs": [],
					"name": "owner",
					"outputs": [
						{
							"internalType": "address",
							"name": "",
							"type": "address"
						}
					],
					"stateMutability": "view",
					"type": "function"
				},
				{
					"inputs": [
						{
							"internalType": "address",
							"name": "_contract",
							"type": "address"
						}
					],
					"name": "setTradingContract",
					"outputs": [],
					"stateMutability": "nonpayable",
					"type": "function"
				},
				{
					"inputs": [],
					"name": "tradingContract",
					"outputs": [
						{
							"internalType": "address",
							"name": "",
							"type": "address"
						}
					],
					"stateMutability": "view",
					"type": "function"
				},
				{
					"inputs": [
						{
							"internalType": "address",
							"name": "from",
							"type": "address"
						},
						{
							"internalType": "address",
							"name": "to",
							"type": "address"
						},
						{
							"internalType": "uint256",
							"name": "cardId",
							"type": "uint256"
						},
						{
							"internalType": "uint256",
							"name": "amount",
							"type": "uint256"
						}
					],
					"name": "transferCards",
					"outputs": [],
					"stateMutability": "nonpayable",
					"type": "function"
				}
			],
			"devdoc": {
				"kind": "dev",
				"methods": {},
				"version": 1
			},
			"userdoc": {
				"kind": "user",
				"methods": {},
				"version": 1
			},
			"storageLayout": {
				"storage": [
					{
						"astId": 7,
						"contract": "InventoryManager.sol:InventoryManager",
						"label": "cardInventory",
						"offset": 0,
						"slot": "0",
						"type": "t_mapping(t_address,t_array(t_uint256)17_storage)"
					},
					{
						"astId": 9,
						"contract": "InventoryManager.sol:InventoryManager",
						"label": "owner",
						"offset": 0,
						"slot": "1",
						"type": "t_address"
					},
					{
						"astId": 11,
						"contract": "InventoryManager.sol:InventoryManager",
						"label": "tradingContract",
						"offset": 0,
						"slot": "2",
						"type": "t_address"
					}
				],
				"types": {
					"t_address": {
						"encoding": "inplace",
						"label": "address",
						"numberOfBytes": "20"
					},
					"t_array(t_uint256)17_storage": {
						"base": "t_uint256",
						"encoding": "inplace",
						"label": "uint256[17]",
						"numberOfBytes": "544"
					},
					"t_mapping(t_address,t_array(t_uint256)17_storage)": {
						"encoding": "mapping",
						"key": "t_address",
						"label": "mapping(address => uint256[17])",
						"numberOfBytes": "32",
						"value": "t_array(t_uint256)17_storage"
					},
					"t_uint256": {
						"encoding": "inplace",
						"label": "uint256",
						"numberOfBytes": "32"
					}
				}
			},
			"evm": {
				"assembly": "// RO data = 0/0 bytes\n// RW data = 0/65552 bytes\n// Stack size = 16384 bytes\n\n// Instructions = 7824\n// Code size = 24311 bytes\n\n      : @0 (gas: 2)\n     0: i32 a2 = a0 >> 0x10\n     3: jump @6 if a2 != 0\n      : @1 (gas: 2)\n     6: a2 = 0x10001\n    11: jump @6 if a1 >=u a2\n      : @2 (gas: 4)\n    14: a1 = a1 + a0\n    17: i32 a1 = a1 + 0x1f\n    20: a1 = a1 & 0xffffffffffffffe0\n    23: jump @7 if a1 >=u 65537\n      : @3 (gas: 2)\n    29: a3 = i32 [0x20000]\n    34: jump @5 if a3 >=u a1\n      : @4 (gas: 4)\n    37: u32 [0x20000] = a1\n    42: a1 = 0x20010\n    47: a0 = a0 + a1\n    50: ret\n      : @5 (gas: 3)\n    52: a1 = 0x20010\n    57: a0 = a0 + a1\n    60: ret\n      : @6 (gas: 1)\n    62: trap\n      : @7 (gas: 1)\n    63: trap\n      : @8 (gas: 13)\n    64: sp = sp + 0xffffffffffffffd8\n    67: u64 [sp + 0x20] = ra\n    70: u64 [sp + 0x18] = s0\n    73: u64 [sp + 0x10] = s1\n    76: a2 = u64 [a1]\n    78: u64 [sp + 0x8] = a2\n    81: a2 = u64 [a1 + 0x8]\n    84: u64 [sp] = a2\n    86: s0 = u64 [a1 + 0x10]\n    89: s1 = u64 [a1 + 0x18]\n    92: i32 a0 = a0 + 0\n    94: a1 = 0x20\n    97: ra = 2, jump @0\n      : @9 [@dyn 1] (gas: 71)\n   101: a1 = reverse s1\n   103: a2 = reverse s0\n   105: a3 = u64 [sp]\n   107: a3 = reverse a3\n   109: a4 = u64 [sp + 0x8]\n   112: a4 = reverse a4\n   114: u8 [a0 + 0x18] = a4\n   117: u8 [a0 + 0x10] = a3\n   120: u8 [a0 + 0x8] = a2\n   123: u8 [a0] = a1\n   125: a5 = a4 >> 0x38\n   128: u8 [a0 + 0x1f] = a5\n   131: a5 = a4 >> 0x30\n   134: u8 [a0 + 0x1e] = a5\n   137: a5 = a4 >> 0x28\n   140: u8 [a0 + 0x1d] = a5\n   143: a5 = a4 >> 0x20\n   146: u8 [a0 + 0x1c] = a5\n   149: a5 = a4 >> 0x18\n   152: u8 [a0 + 0x1b] = a5\n   155: a5 = a4 >> 0x10\n   158: u8 [a0 + 0x1a] = a5\n   161: a4 = a4 >> 0x8\n   164: u8 [a0 + 0x19] = a4\n   167: a4 = a3 >> 0x38\n   170: u8 [a0 + 0x17] = a4\n   173: a4 = a3 >> 0x30\n   176: u8 [a0 + 0x16] = a4\n   179: a4 = a3 >> 0x28\n   182: u8 [a0 + 0x15] = a4\n   185: a4 = a3 >> 0x20\n   188: u8 [a0 + 0x14] = a4\n   191: a4 = a3 >> 0x18\n   194: u8 [a0 + 0x13] = a4\n   197: a4 = a3 >> 0x10\n   200: u8 [a0 + 0x12] = a4\n   203: a3 = a3 >> 0x8\n   206: u8 [a0 + 0x11] = a3\n   209: a3 = a2 >> 0x38\n   212: u8 [a0 + 0xf] = a3\n   215: a3 = a2 >> 0x30\n   218: u8 [a0 + 0xe] = a3\n   221: a3 = a2 >> 0x28\n   224: u8 [a0 + 0xd] = a3\n   227: a3 = a2 >> 0x20\n   230: u8 [a0 + 0xc] = a3\n   233: a3 = a2 >> 0x18\n   236: u8 [a0 + 0xb] = a3\n   239: a3 = a2 >> 0x10\n   242: u8 [a0 + 0xa] = a3\n   245: a2 = a2 >> 0x8\n   248: u8 [a0 + 0x9] = a2\n   251: a2 = a1 >> 0x38\n   254: u8 [a0 + 0x7] = a2\n   257: a2 = a1 >> 0x30\n   260: u8 [a0 + 0x6] = a2\n   263: a2 = a1 >> 0x28\n   266: u8 [a0 + 0x5] = a2\n   269: a2 = a1 >> 0x20\n   272: u8 [a0 + 0x4] = a2\n   275: a2 = a1 >> 0x18\n   278: u8 [a0 + 0x3] = a2\n   281: a2 = a1 >> 0x10\n   284: u8 [a0 + 0x2] = a2\n   287: a1 = a1 >> 0x8\n   290: u8 [a0 + 0x1] = a1\n   293: ra = u64 [sp + 0x20]\n   296: s0 = u64 [sp + 0x18]\n   299: s1 = u64 [sp + 0x10]\n   302: sp = sp + 0x28\n   305: ret\n      : @10 (gas: 6)\n   307: sp = sp + 0xfffffffffffffff0\n   310: u64 [sp + 0x8] = ra\n   313: u64 [sp] = s0\n   315: s0 = a0 & 0x1\n   318: ecalli 2 // 'call_data_size'\n   320: fallthrough\n      : @11 (gas: 2)\n   321: u32 [0x20004] = a0\n   326: jump @13 if s0 == 0\n      : @12 (gas: 1)\n   329: ra = 4, jump @14\n      : @13 [@dyn 2] (gas: 1)\n   333: ra = 6, jump @29\n      : @14 [@dyn 3] (gas: 9)\n   338: sp = sp + 0xffffffffffffffc0\n   341: u64 [sp + 0x38] = ra\n   344: u64 [sp + 0x30] = s0\n   347: u64 [sp + 0x28] = s1\n   350: s0 = sp + 0x40\n   353: sp = sp & 0xffffffffffffffe0\n   356: a0 = 0x40\n   359: a1 = 0x20\n   362: ra = 8, jump @0\n      : @15 [@dyn 4] (gas: 39)\n   367: u8 [a0 + 31] = 0x80\n   372: u8 [a0 + 30] = 0\n   375: u8 [a0 + 29] = 0\n   378: u8 [a0 + 28] = 0\n   381: u8 [a0 + 27] = 0\n   384: u8 [a0 + 26] = 0\n   387: u8 [a0 + 25] = 0\n   390: u8 [a0 + 24] = 0\n   393: u8 [a0 + 23] = 0\n   396: u8 [a0 + 22] = 0\n   399: u8 [a0 + 21] = 0\n   402: u8 [a0 + 20] = 0\n   405: u8 [a0 + 19] = 0\n   408: u8 [a0 + 18] = 0\n   411: u8 [a0 + 17] = 0\n   414: u8 [a0 + 16] = 0\n   417: u8 [a0 + 15] = 0\n   420: u8 [a0 + 14] = 0\n   423: u8 [a0 + 13] = 0\n   426: u8 [a0 + 12] = 0\n   429: u8 [a0 + 11] = 0\n   432: u8 [a0 + 10] = 0\n   435: u8 [a0 + 9] = 0\n   438: u8 [a0 + 8] = 0\n   441: u8 [a0 + 7] = 0\n   444: u8 [a0 + 6] = 0\n   447: u8 [a0 + 5] = 0\n   450: u8 [a0 + 4] = 0\n   453: u8 [a0 + 3] = 0\n   456: u8 [a0 + 2] = 0\n   459: u8 [a0 + 1] = 0\n   462: u8 [a0 + 0] = 0\n   464: u64 [sp + 24] = 0\n   467: u64 [sp + 0] = 0\n   469: u64 [sp + 8] = 0\n   472: u64 [sp + 16] = 0\n   475: i32 a0 = sp + 0\n   477: ecalli 9 // 'value_transferred'\n   479: fallthrough\n      : @16 (gas: 8)\n   480: a0 = u64 [sp + 0x10]\n   483: a1 = u64 [sp + 0x18]\n   486: a2 = u64 [sp + 0x8]\n   489: a3 = u64 [sp]\n   491: a1 = a1 | a2\n   494: a0 = a0 | a3\n   497: a0 = a0 | a1\n   500: jump @21 if a0 != 0\n      : @17 (gas: 117)\n   504: ra = 0xa\n   507: sp = sp + 0xffffffffffffff20\n   511: u64 [sp + 0xd8] = ra\n   515: u64 [sp + 0xd0] = s0\n   519: u64 [sp + 0xc8] = s1\n   523: s0 = sp + 0xe0\n   527: sp = sp & 0xffffffffffffffe0\n   530: i32 a0 = sp + 0x20\n   533: ecalli 3 // 'caller'\n   535: a0 = u64 [sp + 0x28]\n   538: a1 = i32 [sp + 0x30]\n   541: a2 = u64 [sp + 0x20]\n   544: a0 = reverse a0\n   546: a3 = a0 << 0x20\n   549: a1 = reverse a1\n   551: a1 = a1 >> 0x20\n   554: a1 = a1 | a3\n   557: u64 [sp + 0x18] = a1\n   560: a0 = a0 >> 0x20\n   563: s1 = reverse a2\n   565: a1 = s1 << 0x20\n   568: a0 = a0 | a1\n   571: u64 [sp + 0x10] = a0\n   574: s1 = s1 >> 0x20\n   577: u64 [sp + 152] = 0\n   581: u64 [sp + 144] = 0\n   585: u64 [sp + 136] = 0\n   589: u64 [sp + 128] = 0x1\n   594: u64 [sp + 184] = 0\n   598: u64 [sp + 176] = 0\n   602: u64 [sp + 168] = 0\n   606: u64 [sp + 160] = 0\n   610: u32 [sp + 96] = 0x20\n   614: i32 a1 = sp + 0x80\n   618: i32 a3 = sp + 0xa0\n   622: i32 a4 = sp + 0x60\n   625: a2 = 0xffffffffffffffff\n   628: a0 = 0\n   630: ecalli 4 // 'get_storage'\n   632: a0 = u32 [sp + 0xb4]\n   636: a0 = a0 << 0x20\n   639: a1 = u64 [sp + 0xb8]\n   643: a0 = a0 | s1\n   646: u64 [sp + 152] = 0\n   650: u64 [sp + 144] = 0\n   654: u64 [sp + 136] = 0\n   658: u64 [sp + 128] = 0x1\n   663: u64 [sp + 0xb8] = a1\n   667: u64 [sp + 0xb0] = a0\n   671: a0 = u64 [sp + 0x10]\n   674: u64 [sp + 0xa8] = a0\n   678: a0 = u64 [sp + 0x18]\n   681: u64 [sp + 0xa0] = a0\n   685: i32 a1 = sp + 0x80\n   689: i32 a3 = sp + 0xa0\n   693: a2 = 0xffffffffffffffff\n   696: a4 = 0x20\n   699: a0 = 0\n   701: ecalli 8 // 'set_storage'\n   703: i32 a0 = sp + 0x40\n   706: ecalli 3 // 'caller'\n   708: a0 = u64 [sp + 0x48]\n   711: a1 = i32 [sp + 0x50]\n   714: a2 = u64 [sp + 0x40]\n   717: a0 = reverse a0\n   719: a3 = a0 << 0x20\n   722: a1 = reverse a1\n   724: a1 = a1 >> 0x20\n   727: a1 = a1 | a3\n   730: u64 [sp + 0x18] = a1\n   733: a0 = a0 >> 0x20\n   736: s1 = reverse a2\n   738: a1 = s1 << 0x20\n   741: a0 = a0 | a1\n   744: u64 [sp + 0x10] = a0\n   747: s1 = s1 >> 0x20\n   750: u64 [sp + 152] = 0\n   754: u64 [sp + 144] = 0\n   758: u64 [sp + 136] = 0\n   762: u64 [sp + 128] = 0x2\n   767: u64 [sp + 184] = 0\n   771: u64 [sp + 176] = 0\n   775: u64 [sp + 168] = 0\n   779: u64 [sp + 160] = 0\n   783: u32 [sp + 96] = 0x20\n   787: i32 a1 = sp + 0x80\n   791: i32 a3 = sp + 0xa0\n   795: i32 a4 = sp + 0x60\n   798: a2 = 0xffffffffffffffff\n   801: a0 = 0\n   803: ecalli 4 // 'get_storage'\n   805: a0 = u32 [sp + 0xb4]\n   809: a0 = a0 << 0x20\n   812: a1 = u64 [sp + 0xb8]\n   816: a0 = a0 | s1\n   819: u64 [sp + 152] = 0\n   823: u64 [sp + 144] = 0\n   827: u64 [sp + 136] = 0\n   831: u64 [sp + 128] = 0x2\n   836: u64 [sp + 0xb8] = a1\n   840: u64 [sp + 0xb0] = a0\n   844: a0 = u64 [sp + 0x10]\n   847: u64 [sp + 0xa8] = a0\n   851: a0 = u64 [sp + 0x18]\n   854: u64 [sp + 0xa0] = a0\n   858: i32 a1 = sp + 0x80\n   862: i32 a3 = sp + 0xa0\n   866: a2 = 0xffffffffffffffff\n   869: a4 = 0x20\n   872: a0 = 0\n   874: ecalli 8 // 'set_storage'\n   876: sp = s0 + 0xffffffffffffff20\n   880: ra = u64 [sp + 0xd8]\n   884: s0 = u64 [sp + 0xd0]\n   888: s1 = u64 [sp + 0xc8]\n   892: sp = sp + 0xe0\n   896: ret\n      : @18 [@dyn 5] (gas: 3)\n   898: a0 = 0x40\n   901: a1 = 0x20\n   904: ra = 12, jump @0\n      : @19 [@dyn 6] (gas: 100)\n   909: a1 = u8 [a0 + 0x11]\n   912: a2 = u8 [a0 + 0x10]\n   915: a3 = u8 [a0 + 0x12]\n   918: a4 = u8 [a0 + 0x13]\n   921: a1 = a1 << 0x8\n   924: a1 = a1 | a2\n   927: a3 = a3 << 0x10\n   930: a4 = a4 << 0x18\n   933: a3 = a3 | a4\n   936: a1 = a1 | a3\n   939: a2 = u8 [a0 + 0x15]\n   942: a3 = u8 [a0 + 0x14]\n   945: a4 = u8 [a0 + 0x16]\n   948: a5 = u8 [a0 + 0x17]\n   951: a2 = a2 << 0x8\n   954: a2 = a2 | a3\n   957: a4 = a4 << 0x10\n   960: a5 = a5 << 0x18\n   963: a4 = a4 | a5\n   966: a2 = a2 | a4\n   969: a2 = a2 << 0x20\n   972: t0 = a2 | a1\n   975: a2 = u8 [a0 + 0x1]\n   978: a3 = u8 [a0]\n   980: a4 = u8 [a0 + 0x2]\n   983: a5 = u8 [a0 + 0x3]\n   986: a2 = a2 << 0x8\n   989: a2 = a2 | a3\n   992: a4 = a4 << 0x10\n   995: a5 = a5 << 0x18\n   998: a4 = a4 | a5\n  1001: a2 = a2 | a4\n  1004: a3 = u8 [a0 + 0x5]\n  1007: a4 = u8 [a0 + 0x4]\n  1010: a5 = u8 [a0 + 0x6]\n  1013: s1 = u8 [a0 + 0x7]\n  1016: a3 = a3 << 0x8\n  1019: a3 = a3 | a4\n  1022: a5 = a5 << 0x10\n  1025: s1 = s1 << 0x18\n  1028: a5 = a5 | s1\n  1031: a3 = a3 | a5\n  1034: a3 = a3 << 0x20\n  1037: a2 = a2 | a3\n  1040: a3 = u8 [a0 + 0x19]\n  1043: a4 = u8 [a0 + 0x18]\n  1046: a5 = u8 [a0 + 0x1a]\n  1049: s1 = u8 [a0 + 0x1b]\n  1052: a3 = a3 << 0x8\n  1055: a3 = a3 | a4\n  1058: a5 = a5 << 0x10\n  1061: s1 = s1 << 0x18\n  1064: a5 = a5 | s1\n  1067: a3 = a3 | a5\n  1070: a4 = u8 [a0 + 0x1d]\n  1073: a5 = u8 [a0 + 0x1c]\n  1076: s1 = u8 [a0 + 0x1e]\n  1079: a1 = u8 [a0 + 0x1f]\n  1082: a4 = a4 << 0x8\n  1085: a4 = a4 | a5\n  1088: s1 = s1 << 0x10\n  1091: a1 = a1 << 0x18\n  1094: a1 = a1 | s1\n  1097: a1 = a1 | a4\n  1100: a1 = a1 << 0x20\n  1103: a3 = a3 | a1\n  1106: a1 = u8 [a0 + 0x9]\n  1109: a4 = u8 [a0 + 0x8]\n  1112: a5 = u8 [a0 + 0xa]\n  1115: s1 = u8 [a0 + 0xb]\n  1118: a1 = a1 << 0x8\n  1121: a1 = a1 | a4\n  1124: a5 = a5 << 0x10\n  1127: s1 = s1 << 0x18\n  1130: a5 = a5 | s1\n  1133: a1 = a1 | a5\n  1136: a4 = u8 [a0 + 0xd]\n  1139: a5 = u8 [a0 + 0xc]\n  1142: s1 = u8 [a0 + 0xe]\n  1145: a0 = u8 [a0 + 0xf]\n  1148: a4 = a4 << 0x8\n  1151: a4 = a4 | a5\n  1154: s1 = s1 << 0x10\n  1157: a0 = a0 << 0x18\n  1160: a0 = a0 | s1\n  1163: a0 = a0 | a4\n  1166: a0 = a0 << 0x20\n  1169: a0 = a0 | a1\n  1172: a0 = reverse a0\n  1174: s1 = reverse a3\n  1176: a1 = reverse a2\n  1178: a2 = reverse t0\n  1180: a1 = a1 | a2\n  1183: a2 = s1 | a0\n  1186: a2 = a2 | a1\n  1189: a2 = a2 >> 0x20\n  1192: a0 = a0 | a1\n  1195: a0 = a0 << 0x20\n  1198: a0 = a0 | a2\n  1201: jump @23 if a0 == 0\n      : @20 (gas: 1)\n  1204: trap\n      : @21 (gas: 3)\n  1205: a0 = 0\n  1207: a1 = 0\n  1209: ra = 14, jump @0\n      : @22 [@dyn 7] (gas: 5)\n  1214: i32 a1 = a0 + 0\n  1216: a0 = 0x1\n  1219: a2 = 0\n  1221: ecalli 6 // 'seal_return'\n  1223: fallthrough\n      : @23 (gas: 4)\n  1224: i32 s1 = s1 + 0\n  1226: a0 = s1\n  1228: a1 = 0\n  1230: ra = 16, jump @0\n      : @24 [@dyn 8] (gas: 5)\n  1235: i32 a0 = a0 + 0\n  1237: a1 = 0\n  1239: a2 = 0\n  1241: ecalli 0 // 'call_data_copy'\n  1242: fallthrough\n      : @25 (gas: 2)\n  1243: a1 = i32 [0x20008]\n  1248: jump @27 if a1 == 0\n      : @26 (gas: 4)\n  1251: a0 = 0x30010\n  1256: i32 a0 = a0 + 0\n  1258: ecalli 7 // 'set_immutable_data'\n  1260: fallthrough\n      : @27 (gas: 3)\n  1261: a0 = s1\n  1263: a1 = 0\n  1265: ra = 18, jump @0\n      : @28 [@dyn 9] (gas: 6)\n  1270: i32 a1 = a0 + 0\n  1272: a0 = 0\n  1274: a2 = 0\n  1276: ra = 0x14\n  1279: ecalli 6 // 'seal_return'\n  1281: fallthrough\n      : @29 [@dyn 10] (gas: 8)\n  1282: sp = sp + 0xffffffffffffffc0\n  1285: u64 [sp + 0x38] = ra\n  1288: u64 [sp + 0x30] = s0\n  1291: s0 = sp + 0x40\n  1294: sp = sp & 0xffffffffffffffe0\n  1297: a0 = 0x40\n  1300: a1 = 0x20\n  1303: ra = 22, jump @0\n      : @30 [@dyn 11] (gas: 34)\n  1308: u8 [a0 + 31] = 0x80\n  1313: u8 [a0 + 30] = 0\n  1316: u8 [a0 + 29] = 0\n  1319: u8 [a0 + 28] = 0\n  1322: u8 [a0 + 27] = 0\n  1325: u8 [a0 + 26] = 0\n  1328: u8 [a0 + 25] = 0\n  1331: u8 [a0 + 24] = 0\n  1334: u8 [a0 + 23] = 0\n  1337: u8 [a0 + 22] = 0\n  1340: u8 [a0 + 21] = 0\n  1343: u8 [a0 + 20] = 0\n  1346: u8 [a0 + 19] = 0\n  1349: u8 [a0 + 18] = 0\n  1352: u8 [a0 + 17] = 0\n  1355: u8 [a0 + 16] = 0\n  1358: u8 [a0 + 15] = 0\n  1361: u8 [a0 + 14] = 0\n  1364: u8 [a0 + 13] = 0\n  1367: u8 [a0 + 12] = 0\n  1370: u8 [a0 + 11] = 0\n  1373: u8 [a0 + 10] = 0\n  1376: u8 [a0 + 9] = 0\n  1379: u8 [a0 + 8] = 0\n  1382: u8 [a0 + 7] = 0\n  1385: u8 [a0 + 3] = 0\n  1388: u8 [a0 + 2] = 0\n  1391: u8 [a0 + 1] = 0\n  1394: u8 [a0 + 0] = 0\n  1396: a1 = i32 [0x20004]\n  1401: u8 [a0 + 6] = 0\n  1404: u8 [a0 + 5] = 0\n  1407: u8 [a0 + 4] = 0\n  1410: jump @47 if a1 <u 4\n      : @31 (gas: 4)\n  1415: i32 a0 = sp + 0\n  1417: a1 = 0\n  1419: ecalli 1 // 'call_data_load'\n  1421: fallthrough\n      : @32 (gas: 2)\n  1422: a0 = i32 [sp + 0x1c]\n  1425: jump @37 if a0 >s 1305119973\n      : @33 (gas: 2)\n  1432: a1 = 0xffffffff9e4bd000\n  1438: jump @41 if a0 >s 2655769320\n      : @34 (gas: 1)\n  1446: jump @48 if a0 == 2340930884\n      : @35 (gas: 1)\n  1454: jump @47 if a0 != 2376452955\n      : @36 (gas: 14)\n  1462: ra = 0x18\n  1465: sp = sp + 0xffffffffffffff60\n  1469: u64 [sp + 0x98] = ra\n  1473: u64 [sp + 0x90] = s0\n  1477: u64 [sp + 0x88] = s1\n  1481: s0 = sp + 0xa0\n  1485: sp = sp & 0xffffffffffffffe0\n  1488: u64 [sp + 56] = 0\n  1491: u64 [sp + 48] = 0\n  1494: u64 [sp + 40] = 0\n  1497: u64 [sp + 32] = 0\n  1500: i32 a0 = sp + 0x20\n  1503: ecalli 9 // 'value_transferred'\n  1505: jump @179\n      : @37 [@dyn 12] (gas: 2)\n  1508: a1 = 0x5be6f000\n  1514: jump @44 if a0 >s 1541862086\n      : @38 (gas: 1)\n  1521: jump @49 if a0 == 1305119974\n      : @39 (gas: 1)\n  1529: jump @47 if a0 != 1347944562\n      : @40 (gas: 14)\n  1536: ra = 0x1a\n  1539: sp = sp + 0xfffffffffffffec0\n  1543: u64 [sp + 0x138] = ra\n  1547: u64 [sp + 0x130] = s0\n  1551: u64 [sp + 0x128] = s1\n  1555: s0 = sp + 0x140\n  1559: sp = sp & 0xffffffffffffffe0\n  1562: u64 [sp + 280] = 0\n  1566: u64 [sp + 272] = 0\n  1570: u64 [sp + 264] = 0\n  1574: u64 [sp + 256] = 0\n  1578: i32 a0 = sp + 0x100\n  1582: ecalli 9 // 'value_transferred'\n  1584: jump @98\n      : @41 [@dyn 13] (gas: 2)\n  1587: i32 a1 = a1 + 0x2e9\n  1591: jump @50 if a0 == a1\n      : @42 (gas: 1)\n  1595: jump @47 if a0 != 4190598634\n      : @43 (gas: 1)\n  1602: ra = 28, jump @200\n      : @44 [@dyn 14] (gas: 2)\n  1607: i32 a1 = a1 + 0x2c7\n  1611: jump @51 if a0 == a1\n      : @45 (gas: 1)\n  1615: jump @47 if a0 != 1697981506\n      : @46 (gas: 1)\n  1622: ra = 30, jump @144\n      : @47 [@dyn 15] (gas: 1)\n  1627: ra = 32, jump @211\n      : @48 [@dyn 16] (gas: 14)\n  1632: ra = 0x22\n  1635: sp = sp + 0xfffffffffffffde0\n  1639: u64 [sp + 0x218] = ra\n  1643: u64 [sp + 0x210] = s0\n  1647: u64 [sp + 0x208] = s1\n  1651: s0 = sp + 0x220\n  1655: sp = sp & 0xffffffffffffffe0\n  1658: u64 [sp + 472] = 0\n  1662: u64 [sp + 464] = 0\n  1666: u64 [sp + 456] = 0\n  1670: u64 [sp + 448] = 0\n  1674: i32 a0 = sp + 0x1c0\n  1678: ecalli 9 // 'value_transferred'\n  1680: jump @156\n      : @49 [@dyn 17] (gas: 14)\n  1683: ra = 0x24\n  1686: sp = sp + 0xfffffffffffffe80\n  1690: u64 [sp + 0x178] = ra\n  1694: u64 [sp + 0x170] = s0\n  1698: u64 [sp + 0x168] = s1\n  1702: s0 = sp + 0x180\n  1706: sp = sp & 0xffffffffffffffe0\n  1709: u64 [sp + 344] = 0\n  1713: u64 [sp + 336] = 0\n  1717: u64 [sp + 328] = 0\n  1721: u64 [sp + 320] = 0\n  1725: i32 a0 = sp + 0x140\n  1729: ecalli 9 // 'value_transferred'\n  1731: jump @66\n      : @50 [@dyn 18] (gas: 14)\n  1734: ra = 0x26\n  1737: sp = sp + 0xffffffffffffff60\n  1741: u64 [sp + 0x98] = ra\n  1745: u64 [sp + 0x90] = s0\n  1749: u64 [sp + 0x88] = s1\n  1753: s0 = sp + 0xa0\n  1757: sp = sp & 0xffffffffffffffe0\n  1760: u64 [sp + 56] = 0\n  1763: u64 [sp + 48] = 0\n  1766: u64 [sp + 40] = 0\n  1769: u64 [sp + 32] = 0\n  1772: i32 a0 = sp + 0x20\n  1775: ecalli 9 // 'value_transferred'\n  1777: jump @190\n      : @51 [@dyn 19] (gas: 13)\n  1780: ra = 0x28\n  1783: sp = sp + 0xffffffffffffff80\n  1786: u64 [sp + 0x78] = ra\n  1789: u64 [sp + 0x70] = s0\n  1792: s0 = sp + 0x80\n  1796: sp = sp & 0xffffffffffffffe0\n  1799: u64 [sp + 56] = 0\n  1802: u64 [sp + 48] = 0\n  1805: u64 [sp + 40] = 0\n  1808: u64 [sp + 32] = 0\n  1811: i32 a0 = sp + 0x20\n  1814: ecalli 9 // 'value_transferred'\n  1816: jump @118\n      : @52 [@dyn 20] (gas: 7)\n  1819: sp = sp + 0xfffffffffffffff0\n  1822: u64 [sp + 0x8] = ra\n  1825: u64 [sp] = s0\n  1827: s0 = a0\n  1829: a0 = 0x40\n  1832: a1 = 0x20\n  1835: ra = 42, jump @0\n      : @53 [@dyn 21] (gas: 100)\n  1840: a1 = u8 [a0 + 0x1]\n  1843: a2 = u8 [a0]\n  1845: a3 = u8 [a0 + 0x2]\n  1848: a4 = u8 [a0 + 0x3]\n  1851: a1 = a1 << 0x8\n  1854: a1 = a1 | a2\n  1857: a3 = a3 << 0x10\n  1860: a4 = a4 << 0x18\n  1863: a3 = a3 | a4\n  1866: a1 = a1 | a3\n  1869: a2 = u8 [a0 + 0x5]\n  1872: a3 = u8 [a0 + 0x4]\n  1875: a4 = u8 [a0 + 0x6]\n  1878: a5 = u8 [a0 + 0x7]\n  1881: a2 = a2 << 0x8\n  1884: a2 = a2 | a3\n  1887: a4 = a4 << 0x10\n  1890: a5 = a5 << 0x18\n  1893: a4 = a4 | a5\n  1896: a2 = a2 | a4\n  1899: a2 = a2 << 0x20\n  1902: t0 = a2 | a1\n  1905: a2 = u8 [a0 + 0x9]\n  1908: a3 = u8 [a0 + 0x8]\n  1911: a4 = u8 [a0 + 0xa]\n  1914: a5 = u8 [a0 + 0xb]\n  1917: a2 = a2 << 0x8\n  1920: a2 = a2 | a3\n  1923: a4 = a4 << 0x10\n  1926: a5 = a5 << 0x18\n  1929: a4 = a4 | a5\n  1932: a2 = a2 | a4\n  1935: a3 = u8 [a0 + 0xd]\n  1938: a4 = u8 [a0 + 0xc]\n  1941: a5 = u8 [a0 + 0xe]\n  1944: a1 = u8 [a0 + 0xf]\n  1947: a3 = a3 << 0x8\n  1950: a3 = a3 | a4\n  1953: a5 = a5 << 0x10\n  1956: a1 = a1 << 0x18\n  1959: a1 = a1 | a5\n  1962: a1 = a1 | a3\n  1965: a1 = a1 << 0x20\n  1968: t1 = a1 | a2\n  1971: a1 = u8 [a0 + 0x11]\n  1974: a3 = u8 [a0 + 0x10]\n  1977: a4 = u8 [a0 + 0x12]\n  1980: a5 = u8 [a0 + 0x13]\n  1983: a1 = a1 << 0x8\n  1986: a1 = a1 | a3\n  1989: a4 = a4 << 0x10\n  1992: a5 = a5 << 0x18\n  1995: a4 = a4 | a5\n  1998: a1 = a1 | a4\n  2001: a3 = u8 [a0 + 0x15]\n  2004: a4 = u8 [a0 + 0x14]\n  2007: a5 = u8 [a0 + 0x16]\n  2010: a2 = u8 [a0 + 0x17]\n  2013: a3 = a3 << 0x8\n  2016: a3 = a3 | a4\n  2019: a5 = a5 << 0x10\n  2022: a2 = a2 << 0x18\n  2025: a2 = a2 | a5\n  2028: a2 = a2 | a3\n  2031: a2 = a2 << 0x20\n  2034: a3 = a2 | a1\n  2037: a1 = u8 [a0 + 0x19]\n  2040: a2 = u8 [a0 + 0x18]\n  2043: a4 = u8 [a0 + 0x1a]\n  2046: a5 = u8 [a0 + 0x1b]\n  2049: a1 = a1 << 0x8\n  2052: a1 = a1 | a2\n  2055: a4 = a4 << 0x10\n  2058: a5 = a5 << 0x18\n  2061: a4 = a4 | a5\n  2064: a1 = a1 | a4\n  2067: a2 = u8 [a0 + 0x1d]\n  2070: a4 = u8 [a0 + 0x1c]\n  2073: a5 = u8 [a0 + 0x1e]\n  2076: a0 = u8 [a0 + 0x1f]\n  2079: a2 = a2 << 0x8\n  2082: a2 = a2 | a4\n  2085: a5 = a5 << 0x10\n  2088: a0 = a0 << 0x18\n  2091: a0 = a0 | a5\n  2094: a0 = a0 | a2\n  2097: a0 = a0 << 0x20\n  2100: a0 = a0 | a1\n  2103: a0 = reverse a0\n  2105: a1 = reverse a3\n  2107: a2 = reverse t1\n  2109: a3 = reverse t0\n  2111: u64 [s0 + 0x18] = a3\n  2114: u64 [s0 + 0x10] = a2\n  2117: u64 [s0 + 0x8] = a1\n  2120: u64 [s0] = a0\n  2122: ra = u64 [sp + 0x8]\n  2125: s0 = u64 [sp]\n  2127: sp = sp + 0x10\n  2130: ret\n      : @54 (gas: 47)\n  2132: sp = sp + 0xffffffffffffff60\n  2136: u64 [sp + 0x98] = ra\n  2140: u64 [sp + 0x90] = s0\n  2144: u64 [sp + 0x88] = s1\n  2148: s0 = sp + 0xa0\n  2152: sp = sp & 0xffffffffffffffe0\n  2155: t0 = u64 [a1 + 0x10]\n  2158: a5 = u64 [a1 + 0x8]\n  2161: a3 = u64 [a2 + 0x8]\n  2164: ra = u64 [a1]\n  2166: a4 = u64 [a2]\n  2168: u64 [sp + 0x48] = a4\n  2171: t2 = u64 [a2 + 0x10]\n  2174: t1 = a3 ^ a5\n  2177: s1 = a3 <u a5\n  2180: a4 = a4 <u ra\n  2183: u64 [sp + 0x40] = a4\n  2186: s1 = a4 if t1 == 0\n  2189: t1 = u64 [a1 + 0x18]\n  2192: a1 = u64 [a2 + 0x18]\n  2195: u64 [sp + 0x38] = a1\n  2198: a2 = t2 - t0\n  2201: a1 = a2 - s1\n  2204: u64 [sp + 0x50] = a1\n  2207: a1 = a2 <u s1\n  2210: a4 = t2 <u t0\n  2213: u64 [sp + 0x58] = t1\n  2216: a2 = u64 [sp + 0x38]\n  2219: a2 = a2 - t1\n  2222: a2 = a2 - a4\n  2225: a2 = a2 - a1\n  2228: a1 = a3 - a5\n  2231: a3 = u64 [sp + 0x40]\n  2234: a1 = a1 - a3\n  2237: a3 = u64 [sp + 0x48]\n  2240: a3 = a3 - ra\n  2243: a4 = a1 >u 0\n  2245: a3 = a3 <u 0x60\n  2248: a3 = a3 ^ 0x1\n  2251: a3 = a4 if a1 != 0\n  2254: s1 = a2 >s 0\n  2256: a1 = u64 [sp + 0x50]\n  2259: a4 = a1 >u 0\n  2261: a4 = s1 if a2 != 0\n  2264: a1 = a1 | a2\n  2267: a3 = a4 if a1 != 0\n  2270: jump @63 if a3 == 0\n      : @55 (gas: 12)\n  2274: s1 = a0\n  2276: a0 = ra | t0\n  2279: u64 [sp + 0x50] = a5\n  2282: a1 = u64 [sp + 0x58]\n  2285: a1 = a1 | a5\n  2288: a0 = a0 | a1\n  2291: a0 = a0 >> 0x20\n  2294: u64 [sp + 0x38] = t0\n  2297: a1 = a1 | t0\n  2300: a1 = a1 << 0x20\n  2303: a0 = a0 | a1\n  2306: jump @62 if a0 != 0\n      : @56 (gas: 6)\n  2310: u64 [sp + 0x48] = ra\n  2313: i32 a1 = ra + 0\n  2315: i32 a0 = sp + 0x60\n  2318: u64 [sp + 0x40] = a1\n  2321: ecalli 1 // 'call_data_load'\n  2323: fallthrough\n      : @57 (gas: 10)\n  2324: a3 = u64 [sp + 0x70]\n  2327: a4 = u64 [sp + 0x78]\n  2330: a0 = 0x100000000\n  2340: a1 = a3 ^ a0\n  2343: a1 = a1 | a4\n  2346: a2 = a3 >> 0x20\n  2349: a2 = a2 <u 0x1\n  2352: a2 = 0 if a4 != 0\n  2354: a2 = 0 if a1 == 0\n  2356: jump @63 if a2 == 0\n      : @58 (gas: 13)\n  2360: u64 [sp + 0x28] = a4\n  2363: u64 [sp + 0x30] = a3\n  2366: a1 = u64 [sp + 0x38]\n  2369: a2 = u64 [sp + 0x58]\n  2372: a2 = a2 | a1\n  2375: a0 = 0xffffffe0\n  2385: a1 = u64 [sp + 0x48]\n  2388: a0 = a1 <u a0\n  2391: a1 = u64 [sp + 0x50]\n  2394: a0 = 0 if a1 != 0\n  2396: u64 [sp + 0x58] = a2\n  2399: a0 = 0 if a2 != 0\n  2401: jump @62 if a0 == 0\n      : @59 (gas: 9)\n  2405: a0 = u64 [sp + 0x68]\n  2408: u64 [sp + 0x20] = a0\n  2411: a0 = u64 [sp + 0x60]\n  2414: u64 [sp + 0x38] = a0\n  2417: a0 = u64 [sp + 0x40]\n  2420: i32 a1 = a0 + 0x20\n  2423: i32 a0 = sp + 0x60\n  2426: ecalli 1 // 'call_data_load'\n  2428: fallthrough\n      : @60 (gas: 8)\n  2429: a0 = 0xffffffc0\n  2439: a1 = u64 [sp + 0x48]\n  2442: a0 = a1 <u a0\n  2445: a1 = u64 [sp + 0x50]\n  2448: a0 = 0 if a1 != 0\n  2450: a1 = u64 [sp + 0x58]\n  2453: a0 = 0 if a1 != 0\n  2455: jump @62 if a0 == 0\n      : @61 (gas: 42)\n  2459: a0 = u64 [sp + 0x78]\n  2462: u64 [sp + 0x18] = a0\n  2465: a0 = u64 [sp + 0x70]\n  2468: u64 [sp + 0x48] = a0\n  2471: a0 = u64 [sp + 0x68]\n  2474: u64 [sp + 0x50] = a0\n  2477: a0 = u64 [sp + 0x60]\n  2480: u64 [sp + 0x58] = a0\n  2483: a0 = u64 [sp + 0x40]\n  2486: i32 a1 = a0 + 0x40\n  2489: i32 a0 = sp + 0x60\n  2492: ecalli 1 // 'call_data_load'\n  2494: a0 = u64 [sp + 0x78]\n  2497: a1 = u64 [sp + 0x70]\n  2500: a2 = u64 [sp + 0x68]\n  2503: a3 = u64 [sp + 0x60]\n  2506: u64 [s1 + 0x58] = a0\n  2509: u64 [s1 + 0x50] = a1\n  2512: u64 [s1 + 0x48] = a2\n  2515: u64 [s1 + 0x40] = a3\n  2518: a0 = u64 [sp + 0x18]\n  2521: u64 [s1 + 0x38] = a0\n  2524: a0 = u64 [sp + 0x48]\n  2527: u64 [s1 + 0x30] = a0\n  2530: a0 = u64 [sp + 0x50]\n  2533: u64 [s1 + 0x28] = a0\n  2536: a0 = u64 [sp + 0x58]\n  2539: u64 [s1 + 0x20] = a0\n  2542: a0 = u64 [sp + 0x28]\n  2545: u64 [s1 + 0x18] = a0\n  2548: a0 = u64 [sp + 0x30]\n  2551: u64 [s1 + 0x10] = a0\n  2554: a0 = u64 [sp + 0x20]\n  2557: u64 [s1 + 0x8] = a0\n  2560: a0 = u64 [sp + 0x38]\n  2563: u64 [s1] = a0\n  2565: sp = s0 + 0xffffffffffffff60\n  2569: ra = u64 [sp + 0x98]\n  2573: s0 = u64 [sp + 0x90]\n  2577: s1 = u64 [sp + 0x88]\n  2581: sp = sp + 0xa0\n  2585: ret\n      : @62 (gas: 1)\n  2587: trap\n      : @63 (gas: 3)\n  2588: a0 = 0\n  2590: a1 = 0\n  2592: ra = 44, jump @0\n      : @64 [@dyn 22] (gas: 6)\n  2597: i32 a1 = a0 + 0\n  2599: a0 = 0x1\n  2602: a2 = 0\n  2604: ra = 0x2e\n  2607: ecalli 6 // 'seal_return'\n  2609: fallthrough\n      : @65 [@dyn 23] (gas: 13)\n  2610: a2 = u64 [a1 + 0x10]\n  2613: a3 = u64 [a1 + 0x18]\n  2616: a4 = u64 [a1 + 0x8]\n  2619: a1 = u64 [a1]\n  2621: a3 = a3 | a4\n  2624: a1 = a1 | a2\n  2627: a1 = a1 | a3\n  2630: a1 = a1 >u 0\n  2632: u64 [a0 + 24] = 0\n  2635: u64 [a0 + 16] = 0\n  2638: u64 [a0 + 8] = 0\n  2641: u64 [a0] = a1\n  2643: ret\n      : @66 (gas: 8)\n  2645: a0 = u64 [sp + 0x150]\n  2649: a1 = u64 [sp + 0x158]\n  2653: a2 = u64 [sp + 0x148]\n  2657: a3 = u64 [sp + 0x140]\n  2661: a1 = a1 | a2\n  2664: a0 = a0 | a3\n  2667: a0 = a0 | a1\n  2670: jump @72 if a0 != 0\n      : @67 (gas: 13)\n  2674: a0 = u32 [0x20004]\n  2679: u64 [sp + 184] = 0\n  2683: u64 [sp + 176] = 0\n  2687: u64 [sp + 168] = 0\n  2691: u64 [sp + 0xa0] = a0\n  2695: u64 [sp + 216] = 0\n  2699: u64 [sp + 208] = 0\n  2703: u64 [sp + 192] = 0x4\n  2708: a0 = sp + 0xe0\n  2712: a1 = sp + 0xc0\n  2716: a2 = sp + 0xa0\n  2720: u64 [sp + 200] = 0\n  2724: ra = 48, jump @54\n      : @68 [@dyn 24] (gas: 63)\n  2729: a0 = u64 [sp + 0xe0]\n  2733: u64 [sp + 0x18] = a0\n  2736: t1 = u64 [sp + 0xe8]\n  2740: t2 = u64 [sp + 0xf0]\n  2744: ra = u64 [sp + 0xf8]\n  2748: t0 = u64 [sp + 0x100]\n  2752: a5 = u64 [sp + 0x108]\n  2756: s1 = u64 [sp + 0x110]\n  2760: a4 = u64 [sp + 0x118]\n  2764: a3 = u64 [sp + 0x120]\n  2768: a1 = u64 [sp + 0x128]\n  2772: a2 = u64 [sp + 0x130]\n  2776: a0 = u64 [sp + 0x138]\n  2780: u64 [sp + 0x38] = a0\n  2783: u64 [sp + 0x30] = a2\n  2786: u64 [sp + 0x28] = a1\n  2789: u64 [sp + 0x20] = a3\n  2792: u64 [sp + 0x58] = a4\n  2795: u64 [sp + 0x50] = s1\n  2798: u64 [sp + 0x48] = a5\n  2801: u64 [sp + 0x40] = t0\n  2804: u64 [sp + 0x78] = ra\n  2807: u64 [sp + 0x70] = t2\n  2810: u64 [sp + 0x68] = t1\n  2813: a0 = sp + 0x80\n  2817: a1 = sp + 0x60\n  2820: a2 = sp + 0x40\n  2823: a3 = sp + 0x20\n  2826: a4 = u64 [sp + 0x18]\n  2829: u64 [sp + 0x60] = a4\n  2832: ra = 0x32\n  2835: sp = sp + 0xffffffffffffff00\n  2839: u64 [sp + 0xf8] = ra\n  2843: u64 [sp + 0xf0] = s0\n  2847: u64 [sp + 0xe8] = s1\n  2851: s0 = sp + 0x100\n  2855: sp = sp & 0xffffffffffffffe0\n  2858: a4 = u64 [a3 + 0x18]\n  2861: u64 [sp + 0x38] = a4\n  2864: a4 = u64 [a3 + 0x10]\n  2867: u64 [sp + 0x58] = a4\n  2870: a4 = u64 [a3 + 0x8]\n  2873: u64 [sp + 0x40] = a4\n  2876: a3 = u64 [a3]\n  2878: u64 [sp + 0x48] = a3\n  2881: a3 = u64 [a2 + 0x8]\n  2884: u64 [sp + 0x30] = a3\n  2887: a3 = u64 [a2]\n  2889: u64 [sp + 0x28] = a3\n  2892: a3 = u64 [a2 + 0x18]\n  2895: u64 [sp + 0x20] = a3\n  2898: a2 = u64 [a2 + 0x10]\n  2901: u64 [sp + 0x18] = a2\n  2904: a2 = u64 [a1]\n  2906: u64 [sp + 0x10] = a2\n  2909: a2 = u64 [a1 + 0x8]\n  2912: u64 [sp + 0x8] = a2\n  2915: s1 = u32 [a1 + 0x10]\n  2918: u64 [sp + 0x50] = a0\n  2921: a1 = 0x20\n  2924: a0 = 0\n  2926: ra = 0xb0\n  2930: jump @0\n      : @69 [@dyn 25] (gas: 11)\n  2933: a0 = u64 [sp + 0x98]\n  2937: u64 [sp + 0x18] = a0\n  2940: a0 = u64 [sp + 0x90]\n  2944: u64 [sp + 0x8] = a0\n  2947: a0 = u64 [sp + 0x88]\n  2951: u64 [sp + 0x10] = a0\n  2954: a0 = u64 [sp + 0x80]\n  2958: u64 [sp] = a0\n  2960: a0 = 0x40\n  2963: a1 = 0x20\n  2966: ra = 52, jump @0\n      : @70 [@dyn 26] (gas: 100)\n  2971: a1 = u8 [a0 + 0x11]\n  2974: a2 = u8 [a0 + 0x10]\n  2977: a3 = u8 [a0 + 0x12]\n  2980: a4 = u8 [a0 + 0x13]\n  2983: a1 = a1 << 0x8\n  2986: a1 = a1 | a2\n  2989: a3 = a3 << 0x10\n  2992: a4 = a4 << 0x18\n  2995: a3 = a3 | a4\n  2998: a1 = a1 | a3\n  3001: a2 = u8 [a0 + 0x15]\n  3004: a3 = u8 [a0 + 0x14]\n  3007: a4 = u8 [a0 + 0x16]\n  3010: a5 = u8 [a0 + 0x17]\n  3013: a2 = a2 << 0x8\n  3016: a2 = a2 | a3\n  3019: a4 = a4 << 0x10\n  3022: a5 = a5 << 0x18\n  3025: a4 = a4 | a5\n  3028: a2 = a2 | a4\n  3031: a2 = a2 << 0x20\n  3034: t0 = a2 | a1\n  3037: a2 = u8 [a0 + 0x1]\n  3040: a3 = u8 [a0]\n  3042: a4 = u8 [a0 + 0x2]\n  3045: a5 = u8 [a0 + 0x3]\n  3048: a2 = a2 << 0x8\n  3051: a2 = a2 | a3\n  3054: a4 = a4 << 0x10\n  3057: a5 = a5 << 0x18\n  3060: a4 = a4 | a5\n  3063: a2 = a2 | a4\n  3066: a3 = u8 [a0 + 0x5]\n  3069: a4 = u8 [a0 + 0x4]\n  3072: a5 = u8 [a0 + 0x6]\n  3075: s1 = u8 [a0 + 0x7]\n  3078: a3 = a3 << 0x8\n  3081: a3 = a3 | a4\n  3084: a5 = a5 << 0x10\n  3087: s1 = s1 << 0x18\n  3090: a5 = a5 | s1\n  3093: a3 = a3 | a5\n  3096: a3 = a3 << 0x20\n  3099: a2 = a2 | a3\n  3102: a3 = u8 [a0 + 0x19]\n  3105: a4 = u8 [a0 + 0x18]\n  3108: a5 = u8 [a0 + 0x1a]\n  3111: s1 = u8 [a0 + 0x1b]\n  3114: a3 = a3 << 0x8\n  3117: a3 = a3 | a4\n  3120: a5 = a5 << 0x10\n  3123: s1 = s1 << 0x18\n  3126: a5 = a5 | s1\n  3129: a3 = a3 | a5\n  3132: a4 = u8 [a0 + 0x1d]\n  3135: a5 = u8 [a0 + 0x1c]\n  3138: s1 = u8 [a0 + 0x1e]\n  3141: a1 = u8 [a0 + 0x1f]\n  3144: a4 = a4 << 0x8\n  3147: a4 = a4 | a5\n  3150: s1 = s1 << 0x10\n  3153: a1 = a1 << 0x18\n  3156: a1 = a1 | s1\n  3159: a1 = a1 | a4\n  3162: a1 = a1 << 0x20\n  3165: a3 = a3 | a1\n  3168: a1 = u8 [a0 + 0x9]\n  3171: a4 = u8 [a0 + 0x8]\n  3174: a5 = u8 [a0 + 0xa]\n  3177: s1 = u8 [a0 + 0xb]\n  3180: a1 = a1 << 0x8\n  3183: a1 = a1 | a4\n  3186: a5 = a5 << 0x10\n  3189: s1 = s1 << 0x18\n  3192: a5 = a5 | s1\n  3195: a1 = a1 | a5\n  3198: a4 = u8 [a0 + 0xd]\n  3201: a5 = u8 [a0 + 0xc]\n  3204: s1 = u8 [a0 + 0xe]\n  3207: a0 = u8 [a0 + 0xf]\n  3210: a4 = a4 << 0x8\n  3213: a4 = a4 | a5\n  3216: s1 = s1 << 0x10\n  3219: a0 = a0 << 0x18\n  3222: a0 = a0 | s1\n  3225: a0 = a0 | a4\n  3228: a0 = a0 << 0x20\n  3231: a0 = a0 | a1\n  3234: a1 = reverse a0\n  3236: a0 = reverse a3\n  3238: a2 = reverse a2\n  3240: a3 = reverse t0\n  3242: a2 = a2 | a3\n  3245: a3 = a0 | a1\n  3248: a3 = a3 | a2\n  3251: a3 = a3 >> 0x20\n  3254: a1 = a1 | a2\n  3257: a1 = a1 << 0x20\n  3260: a1 = a1 | a3\n  3263: jump @74 if a1 == 0\n      : @71 (gas: 1)\n  3266: trap\n      : @72 (gas: 3)\n  3267: a0 = 0\n  3269: a1 = 0\n  3271: ra = 54, jump @0\n      : @73 [@dyn 27] (gas: 5)\n  3276: i32 a1 = a0 + 0\n  3278: a0 = 0x1\n  3281: a2 = 0\n  3283: ecalli 6 // 'seal_return'\n  3285: fallthrough\n      : @74 (gas: 13)\n  3286: a1 = u64 [sp + 0x8]\n  3289: a2 = u64 [sp]\n  3291: a1 = a1 | a2\n  3294: a2 = u64 [sp + 0x18]\n  3297: a3 = u64 [sp + 0x10]\n  3300: a2 = a2 | a3\n  3303: a1 = a1 | a2\n  3306: a1 = a1 >u 0\n  3308: u64 [sp + 0x18] = a1\n  3311: i32 s1 = a0 + 0\n  3313: a1 = 0x20\n  3316: a0 = s1\n  3318: ra = 56, jump @0\n      : @75 [@dyn 28] (gas: 36)\n  3323: u8 [a0 + 30] = 0\n  3326: u8 [a0 + 29] = 0\n  3329: u8 [a0 + 28] = 0\n  3332: u8 [a0 + 27] = 0\n  3335: u8 [a0 + 26] = 0\n  3338: u8 [a0 + 25] = 0\n  3341: u8 [a0 + 24] = 0\n  3344: u8 [a0 + 23] = 0\n  3347: u8 [a0 + 22] = 0\n  3350: u8 [a0 + 21] = 0\n  3353: u8 [a0 + 20] = 0\n  3356: u8 [a0 + 19] = 0\n  3359: u8 [a0 + 18] = 0\n  3362: u8 [a0 + 17] = 0\n  3365: u8 [a0 + 16] = 0\n  3368: u8 [a0 + 15] = 0\n  3371: u8 [a0 + 14] = 0\n  3374: u8 [a0 + 13] = 0\n  3377: u8 [a0 + 12] = 0\n  3380: u8 [a0 + 11] = 0\n  3383: u8 [a0 + 10] = 0\n  3386: u8 [a0 + 9] = 0\n  3389: u8 [a0 + 8] = 0\n  3392: u8 [a0 + 7] = 0\n  3395: u8 [a0 + 6] = 0\n  3398: u8 [a0 + 5] = 0\n  3401: u8 [a0 + 4] = 0\n  3404: u8 [a0 + 3] = 0\n  3407: u8 [a0 + 2] = 0\n  3410: u8 [a0 + 1] = 0\n  3413: u8 [a0 + 0] = 0\n  3415: a1 = u64 [sp + 0x18]\n  3418: u8 [a0 + 0x1f] = a1\n  3421: a1 = 0x20\n  3424: a0 = s1\n  3426: ra = 58, jump @0\n      : @76 [@dyn 29] (gas: 6)\n  3431: i32 a1 = a0 + 0\n  3433: a2 = 0x20\n  3436: a0 = 0\n  3438: ra = 0x3c\n  3441: ecalli 6 // 'seal_return'\n  3443: fallthrough\n      : @77 [@dyn 30] (gas: 47)\n  3444: sp = sp + 0xffffffffffffff80\n  3447: u64 [sp + 0x78] = ra\n  3450: u64 [sp + 0x70] = s0\n  3453: u64 [sp + 0x68] = s1\n  3456: s0 = sp + 0x80\n  3460: sp = sp & 0xffffffffffffffe0\n  3463: ra = u64 [a1 + 0x10]\n  3466: a5 = u64 [a1 + 0x8]\n  3469: a3 = u64 [a2 + 0x8]\n  3472: t1 = u64 [a1]\n  3474: a4 = u64 [a2]\n  3476: u64 [sp + 0x28] = a4\n  3479: t2 = u64 [a2 + 0x10]\n  3482: t0 = a3 ^ a5\n  3485: s1 = a3 <u a5\n  3488: a4 = a4 <u t1\n  3491: u64 [sp + 0x20] = a4\n  3494: s1 = a4 if t0 == 0\n  3497: t0 = u64 [a1 + 0x18]\n  3500: a1 = u64 [a2 + 0x18]\n  3503: u64 [sp + 0x18] = a1\n  3506: a2 = t2 - ra\n  3509: a1 = a2 - s1\n  3512: u64 [sp + 0x30] = a1\n  3515: a1 = a2 <u s1\n  3518: a4 = t2 <u ra\n  3521: u64 [sp + 0x38] = t0\n  3524: a2 = u64 [sp + 0x18]\n  3527: a2 = a2 - t0\n  3530: a2 = a2 - a4\n  3533: a2 = a2 - a1\n  3536: a1 = a3 - a5\n  3539: a3 = u64 [sp + 0x20]\n  3542: a1 = a1 - a3\n  3545: a3 = u64 [sp + 0x28]\n  3548: a3 = a3 - t1\n  3551: a4 = a1 >u 0\n  3553: a3 = a3 <u 0x40\n  3556: a3 = a3 ^ 0x1\n  3559: a3 = a4 if a1 != 0\n  3562: s1 = a2 >s 0\n  3564: a1 = u64 [sp + 0x30]\n  3567: a4 = a1 >u 0\n  3569: a4 = s1 if a2 != 0\n  3572: a1 = a1 | a2\n  3575: a3 = a4 if a1 != 0\n  3578: jump @84 if a3 == 0\n      : @78 (gas: 12)\n  3582: s1 = a0\n  3584: a0 = t1 | ra\n  3587: u64 [sp + 0x30] = a5\n  3590: a1 = u64 [sp + 0x38]\n  3593: a1 = a1 | a5\n  3596: a0 = a0 | a1\n  3599: a0 = a0 >> 0x20\n  3602: u64 [sp + 0x28] = ra\n  3605: a1 = a1 | ra\n  3608: a1 = a1 << 0x20\n  3611: a0 = a0 | a1\n  3614: jump @83 if a0 != 0\n      : @79 (gas: 6)\n  3618: u64 [sp + 0x20] = t1\n  3621: i32 a1 = t1 + 0\n  3623: i32 a0 = sp + 0x40\n  3626: u64 [sp + 0x8] = a1\n  3629: ecalli 1 // 'call_data_load'\n  3631: fallthrough\n      : @80 (gas: 10)\n  3632: a3 = u64 [sp + 0x50]\n  3635: a4 = u64 [sp + 0x58]\n  3638: a0 = 0x100000000\n  3648: a1 = a3 ^ a0\n  3651: a1 = a1 | a4\n  3654: a2 = a3 >> 0x20\n  3657: a2 = a2 <u 0x1\n  3660: a2 = 0 if a4 != 0\n  3662: a2 = 0 if a1 == 0\n  3664: jump @84 if a2 == 0\n      : @81 (gas: 12)\n  3668: u64 [sp + 0x10] = a4\n  3671: u64 [sp + 0x18] = a3\n  3674: a1 = u64 [sp + 0x28]\n  3677: a2 = u64 [sp + 0x38]\n  3680: a1 = a1 | a2\n  3683: a0 = 0xffffffe0\n  3693: a2 = u64 [sp + 0x20]\n  3696: a0 = a2 <u a0\n  3699: a2 = u64 [sp + 0x30]\n  3702: a0 = 0 if a2 != 0\n  3704: a0 = 0 if a1 != 0\n  3706: jump @83 if a0 == 0\n      : @82 (gas: 30)\n  3709: a0 = u64 [sp + 0x48]\n  3712: u64 [sp + 0x30] = a0\n  3715: a0 = u64 [sp + 0x40]\n  3718: u64 [sp + 0x38] = a0\n  3721: a0 = u64 [sp + 0x8]\n  3724: i32 a1 = a0 + 0x20\n  3727: i32 a0 = sp + 0x40\n  3730: ecalli 1 // 'call_data_load'\n  3732: a0 = u64 [sp + 0x58]\n  3735: a1 = u64 [sp + 0x50]\n  3738: a2 = u64 [sp + 0x48]\n  3741: a3 = u64 [sp + 0x40]\n  3744: u64 [s1 + 0x38] = a0\n  3747: u64 [s1 + 0x30] = a1\n  3750: u64 [s1 + 0x28] = a2\n  3753: u64 [s1 + 0x20] = a3\n  3756: a0 = u64 [sp + 0x10]\n  3759: u64 [s1 + 0x18] = a0\n  3762: a0 = u64 [sp + 0x18]\n  3765: u64 [s1 + 0x10] = a0\n  3768: a0 = u64 [sp + 0x30]\n  3771: u64 [s1 + 0x8] = a0\n  3774: a0 = u64 [sp + 0x38]\n  3777: u64 [s1] = a0\n  3779: sp = s0 + 0xffffffffffffff80\n  3782: ra = u64 [sp + 0x78]\n  3785: s0 = u64 [sp + 0x70]\n  3788: s1 = u64 [sp + 0x68]\n  3791: sp = sp + 0x80\n  3795: ret\n      : @83 (gas: 1)\n  3797: trap\n      : @84 (gas: 3)\n  3798: a0 = 0\n  3800: a1 = 0\n  3802: ra = 62, jump @0\n      : @85 [@dyn 31] (gas: 6)\n  3807: i32 a1 = a0 + 0\n  3809: a0 = 0x1\n  3812: a2 = 0\n  3814: ra = 0x40\n  3817: ecalli 6 // 'seal_return'\n  3819: fallthrough\n      : @86 [@dyn 32] (gas: 9)\n  3820: a2 = u64 [a1 + 0x18]\n  3823: a3 = u64 [a1 + 0x10]\n  3826: a4 = u64 [a1 + 0x8]\n  3829: a1 = u64 [a1]\n  3831: u64 [a0 + 0x18] = a2\n  3834: u64 [a0 + 0x10] = a3\n  3837: u64 [a0 + 0x8] = a4\n  3840: u64 [a0] = a1\n  3842: ret\n      : @87 [@dyn 33] (gas: 58)\n  3844: a1 = reverse s1\n  3846: a2 = u64 [sp + 0x8]\n  3849: a2 = reverse a2\n  3851: a3 = u64 [sp + 0x10]\n  3854: a3 = reverse a3\n  3856: a4 = a3 >> 0x38\n  3859: u8 [a0 + 0x1f] = a4\n  3862: a4 = a3 >> 0x30\n  3865: u8 [a0 + 0x1e] = a4\n  3868: a4 = a3 >> 0x28\n  3871: u8 [a0 + 0x1d] = a4\n  3874: a4 = a3 >> 0x20\n  3877: u8 [a0 + 0x1c] = a4\n  3880: a4 = a3 >> 0x18\n  3883: u8 [a0 + 0x1b] = a4\n  3886: a4 = a3 >> 0x10\n  3889: u8 [a0 + 0x1a] = a4\n  3892: a4 = a3 >> 0x8\n  3895: u8 [a0 + 0x19] = a4\n  3898: u8 [a0 + 0x18] = a3\n  3901: a3 = a2 >> 0x38\n  3904: u8 [a0 + 0x17] = a3\n  3907: a3 = a2 >> 0x30\n  3910: u8 [a0 + 0x16] = a3\n  3913: a3 = a2 >> 0x28\n  3916: u8 [a0 + 0x15] = a3\n  3919: a3 = a2 >> 0x20\n  3922: u8 [a0 + 0x14] = a3\n  3925: a3 = a2 >> 0x18\n  3928: u8 [a0 + 0x13] = a3\n  3931: a3 = a2 >> 0x10\n  3934: u8 [a0 + 0x12] = a3\n  3937: a3 = a2 >> 0x8\n  3940: u8 [a0 + 0x11] = a3\n  3943: u8 [a0 + 0x10] = a2\n  3946: a2 = a1 >> 0x38\n  3949: u8 [a0 + 0xf] = a2\n  3952: a2 = a1 >> 0x30\n  3955: u8 [a0 + 0xe] = a2\n  3958: a2 = a1 >> 0x28\n  3961: u8 [a0 + 0xd] = a2\n  3964: a2 = a1 >> 0x20\n  3967: u8 [a0 + 0xc] = a2\n  3970: u8 [a0 + 11] = 0\n  3973: u8 [a0 + 10] = 0\n  3976: u8 [a0 + 9] = 0\n  3979: u8 [a0 + 0x8] = a1\n  3982: u8 [a0 + 7] = 0\n  3985: u8 [a0 + 6] = 0\n  3988: u8 [a0 + 5] = 0\n  3991: u8 [a0 + 4] = 0\n  3994: u8 [a0 + 3] = 0\n  3997: u8 [a0 + 2] = 0\n  4000: u8 [a0 + 1] = 0\n  4003: u8 [a0 + 0] = 0\n  4005: a0 = 0x20\n  4008: a1 = 0x20\n  4011: ra = 68, jump @0\n      : @88 [@dyn 34] (gas: 35)\n  4016: u8 [a0 + 31] = 0\n  4019: u8 [a0 + 30] = 0\n  4022: u8 [a0 + 29] = 0\n  4025: u8 [a0 + 28] = 0\n  4028: u8 [a0 + 27] = 0\n  4031: u8 [a0 + 26] = 0\n  4034: u8 [a0 + 25] = 0\n  4037: u8 [a0 + 24] = 0\n  4040: u8 [a0 + 23] = 0\n  4043: u8 [a0 + 22] = 0\n  4046: u8 [a0 + 21] = 0\n  4049: u8 [a0 + 20] = 0\n  4052: u8 [a0 + 19] = 0\n  4055: u8 [a0 + 18] = 0\n  4058: u8 [a0 + 17] = 0\n  4061: u8 [a0 + 16] = 0\n  4064: u8 [a0 + 15] = 0\n  4067: u8 [a0 + 14] = 0\n  4070: u8 [a0 + 13] = 0\n  4073: u8 [a0 + 12] = 0\n  4076: u8 [a0 + 11] = 0\n  4079: u8 [a0 + 10] = 0\n  4082: u8 [a0 + 9] = 0\n  4085: u8 [a0 + 8] = 0\n  4088: u8 [a0 + 7] = 0\n  4091: u8 [a0 + 6] = 0\n  4094: u8 [a0 + 5] = 0\n  4097: u8 [a0 + 4] = 0\n  4100: u8 [a0 + 3] = 0\n  4103: u8 [a0 + 2] = 0\n  4106: u8 [a0 + 1] = 0\n  4109: u8 [a0 + 0] = 0\n  4111: a1 = 0x40\n  4114: a0 = 0\n  4116: ra = 70, jump @0\n      : @89 [@dyn 35] (gas: 5)\n  4121: i32 a0 = a0 + 0\n  4123: i32 a2 = sp + 0x60\n  4126: a1 = 0x40\n  4129: ecalli 5 // 'hash_keccak_256'\n  4131: fallthrough\n      : @90 (gas: 9)\n  4132: a4 = u64 [sp + 0x30]\n  4135: a5 = u64 [sp + 0x28]\n  4138: t1 = u64 [sp + 0x18]\n  4141: t0 = u64 [sp + 0x20]\n  4144: a0 = t1 | t0\n  4147: a1 = a5 <u 0x11\n  4150: a1 = 0 if a4 != 0\n  4152: a1 = 0 if a0 != 0\n  4154: jump @92 if a1 == 0\n      : @91 (gas: 52)\n  4158: a0 = u64 [sp + 0x60]\n  4161: a1 = u64 [sp + 0x68]\n  4164: a2 = u64 [sp + 0x78]\n  4167: a3 = u64 [sp + 0x70]\n  4170: a0 = reverse a0\n  4172: a1 = reverse a1\n  4174: a2 = reverse a2\n  4176: a3 = reverse a3\n  4178: a4 = a4 + a3\n  4181: a5 = a5 + a2\n  4184: a2 = a5 <u a2\n  4187: a4 = a4 + a2\n  4190: s1 = a4 ^ a3\n  4193: a3 = a4 <u a3\n  4196: a3 = a2 if s1 == 0\n  4199: a2 = a1 + t1\n  4202: a3 = a3 + a2\n  4205: s1 = a3 <u a2\n  4208: a1 = a2 <u a1\n  4211: a0 = a0 + t0\n  4214: a0 = a0 + a1\n  4217: a0 = a0 + s1\n  4220: u64 [sp + 0x40] = a5\n  4223: u64 [sp + 0x48] = a4\n  4226: u64 [sp + 0x50] = a3\n  4229: u64 [sp + 0x58] = a0\n  4232: u64 [sp + 120] = 0\n  4235: u64 [sp + 112] = 0\n  4238: u64 [sp + 104] = 0\n  4241: u64 [sp + 96] = 0\n  4244: u32 [sp + 128] = 0x20\n  4249: i32 a1 = sp + 0x40\n  4252: i32 a3 = sp + 0x60\n  4255: i32 a4 = sp + 0x80\n  4259: a2 = 0xffffffffffffffff\n  4262: a0 = 0\n  4264: ecalli 4 // 'get_storage'\n  4266: a0 = u64 [sp + 0x78]\n  4269: a1 = u64 [sp + 0x70]\n  4272: a2 = u64 [sp + 0x68]\n  4275: a3 = u64 [sp + 0x60]\n  4278: a4 = u64 [sp + 0x38]\n  4281: u64 [a4 + 0x18] = a0\n  4284: u64 [a4 + 0x10] = a1\n  4287: u64 [a4 + 0x8] = a2\n  4290: u64 [a4] = a3\n  4292: sp = s0 + 0xffffffffffffff60\n  4296: ra = u64 [sp + 0x98]\n  4300: s0 = u64 [sp + 0x90]\n  4304: s1 = u64 [sp + 0x88]\n  4308: sp = sp + 0xa0\n  4312: ret\n      : @92 (gas: 2)\n  4314: a0 = 0\n  4316: ra = 72, jump @0\n      : @93 [@dyn 36] (gas: 6)\n  4321: i32 a1 = a0 + 0\n  4323: a0 = 0x1\n  4326: a2 = 0\n  4328: ra = 0x4a\n  4331: ecalli 6 // 'seal_return'\n  4333: fallthrough\n      : @94 [@dyn 37] (gas: 17)\n  4334: sp = sp + 0xffffffffffffffa8\n  4337: u64 [sp + 0x50] = ra\n  4340: u64 [sp + 0x48] = s0\n  4343: u64 [sp + 0x40] = s1\n  4346: a3 = u64 [a1 + 0x10]\n  4349: s1 = u64 [a1 + 0x18]\n  4352: a5 = u64 [a1 + 0x8]\n  4355: s0 = u64 [a1]\n  4357: a4 = a5 | s1\n  4360: a1 = s0 | a3\n  4363: a1 = a1 | a4\n  4366: a1 = a1 >> 0x20\n  4369: a4 = a4 | a3\n  4372: a4 = a4 << 0x20\n  4375: a1 = a1 | a4\n  4378: u64 [sp + 0x38] = a0\n  4381: jump @97 if a1 != 0\n      : @95 (gas: 22)\n  4385: a0 = u64 [a2 + 0x18]\n  4388: u64 [sp] = a0\n  4390: a0 = u64 [a2 + 0x10]\n  4393: u64 [sp + 0x8] = a0\n  4396: a0 = u64 [a2 + 0x8]\n  4399: u64 [sp + 0x10] = a0\n  4402: a0 = u64 [a2]\n  4404: u64 [sp + 0x18] = a0\n  4407: a0 = s0 + 0x20\n  4410: u64 [sp + 0x30] = a0\n  4413: a0 = a0 <u s0\n  4416: a1 = a5 + a0\n  4419: u64 [sp + 0x28] = a1\n  4422: a1 = a1 <u a5\n  4425: a1 = a0 if a0 == 0\n  4428: a1 = a1 + a3\n  4431: u64 [sp + 0x20] = a1\n  4434: a0 = a1 <u a3\n  4437: s1 = s1 + a0\n  4440: i32 a0 = s0 + 0\n  4442: a1 = 0x20\n  4445: ra = 76, jump @0\n      : @96 [@dyn 38] (gas: 81)\n  4450: a1 = u64 [sp]\n  4452: a1 = reverse a1\n  4454: a2 = u64 [sp + 0x8]\n  4457: a2 = reverse a2\n  4459: a3 = u64 [sp + 0x10]\n  4462: a3 = reverse a3\n  4464: a4 = u64 [sp + 0x18]\n  4467: a4 = reverse a4\n  4469: a5 = a4 >> 0x38\n  4472: u8 [a0 + 0x1f] = a5\n  4475: a5 = a4 >> 0x30\n  4478: u8 [a0 + 0x1e] = a5\n  4481: a5 = a4 >> 0x28\n  4484: u8 [a0 + 0x1d] = a5\n  4487: a5 = a4 >> 0x20\n  4490: u8 [a0 + 0x1c] = a5\n  4493: a5 = a4 >> 0x18\n  4496: u8 [a0 + 0x1b] = a5\n  4499: a5 = a4 >> 0x10\n  4502: u8 [a0 + 0x1a] = a5\n  4505: a5 = a4 >> 0x8\n  4508: u8 [a0 + 0x19] = a5\n  4511: u8 [a0 + 0x18] = a4\n  4514: u8 [a0 + 0x10] = a3\n  4517: a4 = a3 >> 0x38\n  4520: u8 [a0 + 0x17] = a4\n  4523: a4 = a3 >> 0x30\n  4526: u8 [a0 + 0x16] = a4\n  4529: a4 = a3 >> 0x28\n  4532: u8 [a0 + 0x15] = a4\n  4535: a4 = a3 >> 0x20\n  4538: u8 [a0 + 0x14] = a4\n  4541: a4 = a3 >> 0x18\n  4544: u8 [a0 + 0x13] = a4\n  4547: a4 = a3 >> 0x10\n  4550: u8 [a0 + 0x12] = a4\n  4553: a3 = a3 >> 0x8\n  4556: u8 [a0 + 0x11] = a3\n  4559: u8 [a0 + 0x8] = a2\n  4562: a3 = a2 >> 0x38\n  4565: u8 [a0 + 0xf] = a3\n  4568: a3 = a2 >> 0x30\n  4571: u8 [a0 + 0xe] = a3\n  4574: a3 = a2 >> 0x28\n  4577: u8 [a0 + 0xd] = a3\n  4580: a3 = a2 >> 0x20\n  4583: u8 [a0 + 0xc] = a3\n  4586: a3 = a2 >> 0x18\n  4589: u8 [a0 + 0xb] = a3\n  4592: a3 = a2 >> 0x10\n  4595: u8 [a0 + 0xa] = a3\n  4598: a2 = a2 >> 0x8\n  4601: u8 [a0 + 0x9] = a2\n  4604: u8 [a0] = a1\n  4606: a2 = a1 >> 0x38\n  4609: u8 [a0 + 0x7] = a2\n  4612: a2 = a1 >> 0x30\n  4615: u8 [a0 + 0x6] = a2\n  4618: a2 = a1 >> 0x28\n  4621: u8 [a0 + 0x5] = a2\n  4624: a2 = a1 >> 0x20\n  4627: u8 [a0 + 0x4] = a2\n  4630: a2 = a1 >> 0x18\n  4633: u8 [a0 + 0x3] = a2\n  4636: a2 = a1 >> 0x10\n  4639: u8 [a0 + 0x2] = a2\n  4642: a1 = a1 >> 0x8\n  4645: u8 [a0 + 0x1] = a1\n  4648: a0 = u64 [sp + 0x38]\n  4651: a1 = u64 [sp + 0x30]\n  4654: u64 [a0] = a1\n  4656: a1 = u64 [sp + 0x28]\n  4659: u64 [a0 + 0x8] = a1\n  4662: a1 = u64 [sp + 0x20]\n  4665: u64 [a0 + 0x10] = a1\n  4668: u64 [a0 + 0x18] = s1\n  4671: ra = u64 [sp + 0x50]\n  4674: s0 = u64 [sp + 0x48]\n  4677: s1 = u64 [sp + 0x40]\n  4680: sp = sp + 0x58\n  4683: ret\n      : @97 (gas: 1)\n  4685: trap\n      : @98 (gas: 8)\n  4686: a0 = u64 [sp + 0x110]\n  4690: a1 = u64 [sp + 0x118]\n  4694: a2 = u64 [sp + 0x108]\n  4698: a3 = u64 [sp + 0x100]\n  4702: a1 = a1 | a2\n  4705: a0 = a0 | a3\n  4708: a0 = a0 | a1\n  4711: jump @104 if a0 != 0\n      : @99 (gas: 13)\n  4715: a0 = u32 [0x20004]\n  4720: u64 [sp + 152] = 0\n  4724: u64 [sp + 144] = 0\n  4728: u64 [sp + 136] = 0\n  4732: u64 [sp + 0x80] = a0\n  4736: u64 [sp + 184] = 0\n  4740: u64 [sp + 176] = 0\n  4744: u64 [sp + 160] = 0x4\n  4749: a0 = sp + 0xc0\n  4753: a1 = sp + 0xa0\n  4757: a2 = sp + 0x80\n  4761: u64 [sp + 168] = 0\n  4765: ra = 78, jump @77\n      : @100 [@dyn 39] (gas: 44)\n  4770: t0 = u64 [sp + 0xc0]\n  4774: a0 = u64 [sp + 0xc8]\n  4778: a1 = u64 [sp + 0xd0]\n  4782: a2 = u64 [sp + 0xd8]\n  4786: a4 = u64 [sp + 0xe0]\n  4790: a5 = u64 [sp + 0xe8]\n  4794: s1 = u64 [sp + 0xf0]\n  4798: a3 = u64 [sp + 0xf8]\n  4802: u64 [sp + 0x38] = a3\n  4805: u64 [sp + 0x30] = s1\n  4808: u64 [sp + 0x28] = a5\n  4811: u64 [sp + 0x20] = a4\n  4814: u64 [sp + 0x58] = a2\n  4817: u64 [sp + 0x50] = a1\n  4820: u64 [sp + 0x48] = a0\n  4823: a0 = sp + 0x60\n  4826: a1 = sp + 0x40\n  4829: a2 = sp + 0x20\n  4832: u64 [sp + 0x40] = t0\n  4835: ra = 0x50\n  4838: sp = sp + 0xffffffffffffff60\n  4842: u64 [sp + 0x98] = ra\n  4846: u64 [sp + 0x90] = s0\n  4850: u64 [sp + 0x88] = s1\n  4854: s0 = sp + 0xa0\n  4858: sp = sp & 0xffffffffffffffe0\n  4861: a3 = u64 [a2 + 0x8]\n  4864: u64 [sp + 0x30] = a3\n  4867: a3 = u64 [a2]\n  4869: u64 [sp + 0x28] = a3\n  4872: a3 = u64 [a2 + 0x18]\n  4875: u64 [sp + 0x20] = a3\n  4878: a2 = u64 [a2 + 0x10]\n  4881: u64 [sp + 0x18] = a2\n  4884: a2 = u64 [a1]\n  4886: u64 [sp + 0x10] = a2\n  4889: a2 = u64 [a1 + 0x8]\n  4892: u64 [sp + 0x8] = a2\n  4895: s1 = u32 [a1 + 0x10]\n  4898: u64 [sp + 0x38] = a0\n  4901: a1 = 0x20\n  4904: a0 = 0\n  4906: ra = 0x42\n  4909: jump @0\n      : @101 [@dyn 40] (gas: 11)\n  4912: a0 = u64 [sp + 0x78]\n  4915: u64 [sp] = a0\n  4917: a0 = u64 [sp + 0x70]\n  4920: u64 [sp + 0x8] = a0\n  4923: a0 = u64 [sp + 0x68]\n  4926: u64 [sp + 0x10] = a0\n  4929: a0 = u64 [sp + 0x60]\n  4932: u64 [sp + 0x18] = a0\n  4935: a0 = 0x40\n  4938: a1 = 0x20\n  4941: ra = 82, jump @0\n      : @102 [@dyn 41] (gas: 100)\n  4946: a1 = u8 [a0 + 0x11]\n  4949: a2 = u8 [a0 + 0x10]\n  4952: a3 = u8 [a0 + 0x12]\n  4955: a4 = u8 [a0 + 0x13]\n  4958: a1 = a1 << 0x8\n  4961: a1 = a1 | a2\n  4964: a3 = a3 << 0x10\n  4967: a4 = a4 << 0x18\n  4970: a3 = a3 | a4\n  4973: a1 = a1 | a3\n  4976: a2 = u8 [a0 + 0x15]\n  4979: a3 = u8 [a0 + 0x14]\n  4982: a4 = u8 [a0 + 0x16]\n  4985: a5 = u8 [a0 + 0x17]\n  4988: a2 = a2 << 0x8\n  4991: a2 = a2 | a3\n  4994: a4 = a4 << 0x10\n  4997: a5 = a5 << 0x18\n  5000: a4 = a4 | a5\n  5003: a2 = a2 | a4\n  5006: a2 = a2 << 0x20\n  5009: t0 = a2 | a1\n  5012: a2 = u8 [a0 + 0x1]\n  5015: a3 = u8 [a0]\n  5017: a4 = u8 [a0 + 0x2]\n  5020: a5 = u8 [a0 + 0x3]\n  5023: a2 = a2 << 0x8\n  5026: a2 = a2 | a3\n  5029: a4 = a4 << 0x10\n  5032: a5 = a5 << 0x18\n  5035: a4 = a4 | a5\n  5038: a2 = a2 | a4\n  5041: a3 = u8 [a0 + 0x5]\n  5044: a4 = u8 [a0 + 0x4]\n  5047: a5 = u8 [a0 + 0x6]\n  5050: s1 = u8 [a0 + 0x7]\n  5053: a3 = a3 << 0x8\n  5056: a3 = a3 | a4\n  5059: a5 = a5 << 0x10\n  5062: s1 = s1 << 0x18\n  5065: a5 = a5 | s1\n  5068: a3 = a3 | a5\n  5071: a3 = a3 << 0x20\n  5074: a2 = a2 | a3\n  5077: a3 = u8 [a0 + 0x19]\n  5080: a4 = u8 [a0 + 0x18]\n  5083: a5 = u8 [a0 + 0x1a]\n  5086: s1 = u8 [a0 + 0x1b]\n  5089: a3 = a3 << 0x8\n  5092: a3 = a3 | a4\n  5095: a5 = a5 << 0x10\n  5098: s1 = s1 << 0x18\n  5101: a5 = a5 | s1\n  5104: a3 = a3 | a5\n  5107: a4 = u8 [a0 + 0x1d]\n  5110: a5 = u8 [a0 + 0x1c]\n  5113: s1 = u8 [a0 + 0x1e]\n  5116: a1 = u8 [a0 + 0x1f]\n  5119: a4 = a4 << 0x8\n  5122: a4 = a4 | a5\n  5125: s1 = s1 << 0x10\n  5128: a1 = a1 << 0x18\n  5131: a1 = a1 | s1\n  5134: a1 = a1 | a4\n  5137: a1 = a1 << 0x20\n  5140: a3 = a3 | a1\n  5143: a1 = u8 [a0 + 0x9]\n  5146: a4 = u8 [a0 + 0x8]\n  5149: a5 = u8 [a0 + 0xa]\n  5152: s1 = u8 [a0 + 0xb]\n  5155: a1 = a1 << 0x8\n  5158: a1 = a1 | a4\n  5161: a5 = a5 << 0x10\n  5164: s1 = s1 << 0x18\n  5167: a5 = a5 | s1\n  5170: a1 = a1 | a5\n  5173: a4 = u8 [a0 + 0xd]\n  5176: a5 = u8 [a0 + 0xc]\n  5179: s1 = u8 [a0 + 0xe]\n  5182: a0 = u8 [a0 + 0xf]\n  5185: a4 = a4 << 0x8\n  5188: a4 = a4 | a5\n  5191: s1 = s1 << 0x10\n  5194: a0 = a0 << 0x18\n  5197: a0 = a0 | s1\n  5200: a0 = a0 | a4\n  5203: a0 = a0 << 0x20\n  5206: a0 = a0 | a1\n  5209: a1 = reverse a0\n  5211: a0 = reverse a3\n  5213: a2 = reverse a2\n  5215: a3 = reverse t0\n  5217: a2 = a2 | a3\n  5220: a3 = a0 | a1\n  5223: a3 = a3 | a2\n  5226: a3 = a3 >> 0x20\n  5229: a1 = a1 | a2\n  5232: a1 = a1 << 0x20\n  5235: a1 = a1 | a3\n  5238: jump @106 if a1 == 0\n      : @103 (gas: 1)\n  5241: trap\n      : @104 (gas: 3)\n  5242: a0 = 0\n  5244: a1 = 0\n  5246: ra = 84, jump @0\n      : @105 [@dyn 42] (gas: 5)\n  5251: i32 a1 = a0 + 0\n  5253: a0 = 0x1\n  5256: a2 = 0\n  5258: ecalli 6 // 'seal_return'\n  5260: fallthrough\n      : @106 (gas: 4)\n  5261: i32 s1 = a0 + 0\n  5263: a1 = 0x20\n  5266: a0 = s1\n  5268: ra = 86, jump @0\n      : @107 [@dyn 43] (gas: 71)\n  5273: a1 = u64 [sp]\n  5275: a1 = reverse a1\n  5277: a2 = u64 [sp + 0x8]\n  5280: a2 = reverse a2\n  5282: a3 = u64 [sp + 0x10]\n  5285: a3 = reverse a3\n  5287: a4 = u64 [sp + 0x18]\n  5290: a4 = reverse a4\n  5292: a5 = a4 >> 0x38\n  5295: u8 [a0 + 0x1f] = a5\n  5298: a5 = a4 >> 0x30\n  5301: u8 [a0 + 0x1e] = a5\n  5304: a5 = a4 >> 0x28\n  5307: u8 [a0 + 0x1d] = a5\n  5310: a5 = a4 >> 0x20\n  5313: u8 [a0 + 0x1c] = a5\n  5316: a5 = a4 >> 0x18\n  5319: u8 [a0 + 0x1b] = a5\n  5322: a5 = a4 >> 0x10\n  5325: u8 [a0 + 0x1a] = a5\n  5328: a5 = a4 >> 0x8\n  5331: u8 [a0 + 0x19] = a5\n  5334: u8 [a0 + 0x18] = a4\n  5337: u8 [a0 + 0x10] = a3\n  5340: a4 = a3 >> 0x38\n  5343: u8 [a0 + 0x17] = a4\n  5346: a4 = a3 >> 0x30\n  5349: u8 [a0 + 0x16] = a4\n  5352: a4 = a3 >> 0x28\n  5355: u8 [a0 + 0x15] = a4\n  5358: a4 = a3 >> 0x20\n  5361: u8 [a0 + 0x14] = a4\n  5364: a4 = a3 >> 0x18\n  5367: u8 [a0 + 0x13] = a4\n  5370: a4 = a3 >> 0x10\n  5373: u8 [a0 + 0x12] = a4\n  5376: a3 = a3 >> 0x8\n  5379: u8 [a0 + 0x11] = a3\n  5382: u8 [a0 + 0x8] = a2\n  5385: a3 = a2 >> 0x38\n  5388: u8 [a0 + 0xf] = a3\n  5391: a3 = a2 >> 0x30\n  5394: u8 [a0 + 0xe] = a3\n  5397: a3 = a2 >> 0x28\n  5400: u8 [a0 + 0xd] = a3\n  5403: a3 = a2 >> 0x20\n  5406: u8 [a0 + 0xc] = a3\n  5409: a3 = a2 >> 0x18\n  5412: u8 [a0 + 0xb] = a3\n  5415: a3 = a2 >> 0x10\n  5418: u8 [a0 + 0xa] = a3\n  5421: a2 = a2 >> 0x8\n  5424: u8 [a0 + 0x9] = a2\n  5427: u8 [a0] = a1\n  5429: a2 = a1 >> 0x38\n  5432: u8 [a0 + 0x7] = a2\n  5435: a2 = a1 >> 0x30\n  5438: u8 [a0 + 0x6] = a2\n  5441: a2 = a1 >> 0x28\n  5444: u8 [a0 + 0x5] = a2\n  5447: a2 = a1 >> 0x20\n  5450: u8 [a0 + 0x4] = a2\n  5453: a2 = a1 >> 0x18\n  5456: u8 [a0 + 0x3] = a2\n  5459: a2 = a1 >> 0x10\n  5462: u8 [a0 + 0x2] = a2\n  5465: a1 = a1 >> 0x8\n  5468: u8 [a0 + 0x1] = a1\n  5471: a1 = 0x20\n  5474: a0 = s1\n  5476: ra = 88, jump @0\n      : @108 [@dyn 44] (gas: 6)\n  5481: i32 a1 = a0 + 0\n  5483: a2 = 0x20\n  5486: a0 = 0\n  5488: ra = 0x5a\n  5491: ecalli 6 // 'seal_return'\n  5493: fallthrough\n      : @109 [@dyn 45] (gas: 52)\n  5494: sp = sp + 0xffffffffffffff80\n  5497: u64 [sp + 0x78] = ra\n  5500: u64 [sp + 0x70] = s0\n  5503: u64 [sp + 0x68] = s1\n  5506: s0 = sp + 0x80\n  5510: sp = sp & 0xffffffffffffffe0\n  5513: t2 = u64 [a1 + 0x10]\n  5516: a5 = u64 [a1 + 0x8]\n  5519: t0 = u64 [a2 + 0x8]\n  5522: s1 = u64 [a1]\n  5524: u64 [sp + 0x10] = s1\n  5527: a4 = u64 [a2]\n  5529: u64 [sp + 0x18] = a4\n  5532: ra = u64 [a2 + 0x10]\n  5535: a3 = t0 ^ a5\n  5538: u64 [sp + 0x38] = a3\n  5541: a3 = t0 <u a5\n  5544: a4 = a4 <u s1\n  5547: t1 = u64 [sp + 0x38]\n  5550: a3 = a4 if t1 == 0\n  5553: t1 = a4\n  5555: a1 = u64 [a1 + 0x18]\n  5558: u64 [sp + 0x38] = a1\n  5561: a1 = u64 [a2 + 0x18]\n  5564: u64 [sp + 0x20] = a1\n  5567: a1 = ra - t2\n  5570: a2 = a1 - a3\n  5573: u64 [sp + 0x28] = a2\n  5576: a2 = a1 <u a3\n  5579: u64 [sp + 0x30] = t2\n  5582: a3 = ra <u t2\n  5585: a1 = u64 [sp + 0x38]\n  5588: a4 = u64 [sp + 0x20]\n  5591: a1 = a4 - a1\n  5594: a1 = a1 - a3\n  5597: t2 = a1 - a2\n  5600: s1 = t0 - a5\n  5603: a2 = s1 - t1\n  5606: t0 = u64 [sp + 0x10]\n  5609: a1 = u64 [sp + 0x18]\n  5612: a3 = a1 - t0\n  5615: a4 = a2 >u 0\n  5617: a3 = a3 <u 0x20\n  5620: a3 = a3 ^ 0x1\n  5623: a3 = a4 if a2 != 0\n  5626: a2 = t2 >s 0\n  5628: a1 = u64 [sp + 0x28]\n  5631: a4 = a1 >u 0\n  5633: a4 = a2 if t2 != 0\n  5636: a1 = a1 | t2\n  5639: a3 = a4 if a1 != 0\n  5642: jump @115 if a3 == 0\n      : @110 (gas: 11)\n  5645: s1 = a0\n  5647: a2 = u64 [sp + 0x30]\n  5650: a0 = t0 | a2\n  5653: a1 = u64 [sp + 0x38]\n  5656: a1 = a1 | a5\n  5659: a0 = a0 | a1\n  5662: a0 = a0 >> 0x20\n  5665: a1 = a1 | a2\n  5668: a1 = a1 << 0x20\n  5671: a0 = a0 | a1\n  5674: jump @114 if a0 != 0\n      : @111 (gas: 4)\n  5677: i32 a1 = t0 + 0\n  5679: i32 a0 = sp + 0x40\n  5682: ecalli 1 // 'call_data_load'\n  5684: fallthrough\n      : @112 (gas: 10)\n  5685: a0 = u64 [sp + 0x50]\n  5688: a1 = u64 [sp + 0x58]\n  5691: a2 = 0x100000000\n  5701: a2 = a2 ^ a0\n  5704: a2 = a2 | a1\n  5707: a3 = a0 >> 0x20\n  5710: a3 = a3 <u 0x1\n  5713: a3 = 0 if a1 != 0\n  5715: a3 = 0 if a2 == 0\n  5717: jump @115 if a3 == 0\n      : @113 (gas: 12)\n  5720: a2 = u64 [sp + 0x48]\n  5723: a3 = u64 [sp + 0x40]\n  5726: u64 [s1 + 0x8] = a2\n  5729: u64 [s1] = a3\n  5731: u64 [s1 + 0x10] = a0\n  5734: u64 [s1 + 0x18] = a1\n  5737: sp = s0 + 0xffffffffffffff80\n  5740: ra = u64 [sp + 0x78]\n  5743: s0 = u64 [sp + 0x70]\n  5746: s1 = u64 [sp + 0x68]\n  5749: sp = sp + 0x80\n  5753: ret\n      : @114 (gas: 1)\n  5755: trap\n      : @115 (gas: 3)\n  5756: a0 = 0\n  5758: a1 = 0\n  5760: ra = 92, jump @0\n      : @116 [@dyn 46] (gas: 6)\n  5765: i32 a1 = a0 + 0\n  5767: a0 = 0x1\n  5770: a2 = 0\n  5772: ra = 0x5e\n  5775: ecalli 6 // 'seal_return'\n  5777: fallthrough\n      : @117 [@dyn 47] (gas: 9)\n  5778: a2 = u64 [a1 + 0x18]\n  5781: a3 = u64 [a1 + 0x10]\n  5784: a4 = u64 [a1 + 0x8]\n  5787: a1 = u64 [a1]\n  5789: u64 [a0 + 0x18] = a2\n  5792: u64 [a0 + 0x10] = a3\n  5795: u64 [a0 + 0x8] = a4\n  5798: u64 [a0] = a1\n  5800: ret\n      : @118 (gas: 8)\n  5802: a0 = u64 [sp + 0x30]\n  5805: a1 = u64 [sp + 0x38]\n  5808: a2 = u64 [sp + 0x28]\n  5811: a3 = u64 [sp + 0x20]\n  5814: a1 = a1 | a2\n  5817: a0 = a0 | a3\n  5820: a0 = a0 | a1\n  5823: jump @126 if a0 != 0\n      : @119 (gas: 2)\n  5827: a0 = i32 [0x20004]\n  5832: jump @126 if a0 <=u 35\n      : @120 (gas: 4)\n  5837: i32 a0 = sp + 0x40\n  5840: a1 = 0x4\n  5843: ecalli 1 // 'call_data_load'\n  5845: fallthrough\n      : @121 (gas: 10)\n  5846: a0 = u64 [sp + 0x50]\n  5849: a1 = u64 [sp + 0x58]\n  5852: a2 = 0x100000000\n  5862: a2 = a2 ^ a0\n  5865: a2 = a2 | a1\n  5868: a3 = a0 >> 0x20\n  5871: a3 = a3 <u 0x1\n  5874: a3 = 0 if a1 != 0\n  5876: a3 = 0 if a2 == 0\n  5878: jump @126 if a3 == 0\n      : @122 (gas: 53)\n  5882: a2 = u64 [sp + 0x48]\n  5885: a3 = u64 [sp + 0x40]\n  5888: u64 [sp + 0x8] = a2\n  5891: u64 [sp] = a3\n  5893: u64 [sp + 0x10] = a0\n  5896: a0 = sp\n  5898: u64 [sp + 0x18] = a1\n  5901: ra = 0x60\n  5904: sp = sp + 0xfffffffffffffee0\n  5908: u64 [sp + 0x118] = ra\n  5912: u64 [sp + 0x110] = s0\n  5916: u64 [sp + 0x108] = s1\n  5920: s0 = sp + 0x120\n  5924: sp = sp & 0xffffffffffffffe0\n  5927: a1 = u64 [a0 + 0x10]\n  5930: u64 [sp + 0x18] = a1\n  5933: a1 = u64 [a0 + 0x8]\n  5936: u64 [sp + 0x20] = a1\n  5939: a0 = u64 [a0]\n  5941: u64 [sp + 0x28] = a0\n  5944: i32 a0 = sp + 0x80\n  5948: ecalli 3 // 'caller'\n  5950: a0 = u64 [sp + 0x88]\n  5954: a1 = u64 [sp + 0x80]\n  5958: a2 = i32 [sp + 0x90]\n  5962: a0 = reverse a0\n  5964: a3 = a0 >> 0x20\n  5967: s1 = reverse a1\n  5969: a1 = s1 << 0x20\n  5972: a1 = a1 | a3\n  5975: u64 [sp + 0x38] = a1\n  5978: a0 = a0 << 0x20\n  5981: a1 = reverse a2\n  5983: a1 = a1 >> 0x20\n  5986: a0 = a0 | a1\n  5989: u64 [sp + 0x30] = a0\n  5992: s1 = s1 >> 0x20\n  5995: u64 [sp + 216] = 0\n  5999: u64 [sp + 208] = 0\n  6003: u64 [sp + 200] = 0\n  6007: u64 [sp + 192] = 0x1\n  6012: u64 [sp + 248] = 0\n  6016: u64 [sp + 240] = 0\n  6020: u64 [sp + 232] = 0\n  6024: u64 [sp + 224] = 0\n  6028: u32 [sp + 160] = 0x20\n  6033: i32 a1 = sp + 0xc0\n  6037: i32 a3 = sp + 0xe0\n  6041: i32 a4 = sp + 0xa0\n  6045: a2 = 0xffffffffffffffff\n  6048: a0 = 0\n  6050: ecalli 4 // 'get_storage'\n  6052: jump @232\n      : @123 [@dyn 48] (gas: 3)\n  6055: a0 = 0x40\n  6058: a1 = 0x20\n  6061: ra = 98, jump @0\n      : @124 [@dyn 49] (gas: 100)\n  6066: a1 = u8 [a0 + 0x11]\n  6069: a2 = u8 [a0 + 0x10]\n  6072: a3 = u8 [a0 + 0x12]\n  6075: a4 = u8 [a0 + 0x13]\n  6078: a1 = a1 << 0x8\n  6081: a1 = a1 | a2\n  6084: a3 = a3 << 0x10\n  6087: a4 = a4 << 0x18\n  6090: a3 = a3 | a4\n  6093: a1 = a1 | a3\n  6096: a2 = u8 [a0 + 0x15]\n  6099: a3 = u8 [a0 + 0x14]\n  6102: a4 = u8 [a0 + 0x16]\n  6105: a5 = u8 [a0 + 0x17]\n  6108: a2 = a2 << 0x8\n  6111: a2 = a2 | a3\n  6114: a4 = a4 << 0x10\n  6117: a5 = a5 << 0x18\n  6120: a4 = a4 | a5\n  6123: a2 = a2 | a4\n  6126: a2 = a2 << 0x20\n  6129: t0 = a2 | a1\n  6132: a2 = u8 [a0 + 0x1]\n  6135: a3 = u8 [a0]\n  6137: a4 = u8 [a0 + 0x2]\n  6140: a5 = u8 [a0 + 0x3]\n  6143: a2 = a2 << 0x8\n  6146: a2 = a2 | a3\n  6149: a4 = a4 << 0x10\n  6152: a5 = a5 << 0x18\n  6155: a4 = a4 | a5\n  6158: a2 = a2 | a4\n  6161: a3 = u8 [a0 + 0x5]\n  6164: a4 = u8 [a0 + 0x4]\n  6167: a5 = u8 [a0 + 0x6]\n  6170: a1 = u8 [a0 + 0x7]\n  6173: a3 = a3 << 0x8\n  6176: a3 = a3 | a4\n  6179: a5 = a5 << 0x10\n  6182: a1 = a1 << 0x18\n  6185: a1 = a1 | a5\n  6188: a1 = a1 | a3\n  6191: a1 = a1 << 0x20\n  6194: t1 = a1 | a2\n  6197: a1 = u8 [a0 + 0x19]\n  6200: a3 = u8 [a0 + 0x18]\n  6203: a4 = u8 [a0 + 0x1a]\n  6206: a5 = u8 [a0 + 0x1b]\n  6209: a1 = a1 << 0x8\n  6212: a1 = a1 | a3\n  6215: a4 = a4 << 0x10\n  6218: a5 = a5 << 0x18\n  6221: a4 = a4 | a5\n  6224: a1 = a1 | a4\n  6227: a3 = u8 [a0 + 0x1d]\n  6230: a4 = u8 [a0 + 0x1c]\n  6233: a5 = u8 [a0 + 0x1e]\n  6236: a2 = u8 [a0 + 0x1f]\n  6239: a3 = a3 << 0x8\n  6242: a3 = a3 | a4\n  6245: a5 = a5 << 0x10\n  6248: a2 = a2 << 0x18\n  6251: a2 = a2 | a5\n  6254: a2 = a2 | a3\n  6257: a2 = a2 << 0x20\n  6260: a3 = a2 | a1\n  6263: a1 = u8 [a0 + 0x9]\n  6266: a2 = u8 [a0 + 0x8]\n  6269: a4 = u8 [a0 + 0xa]\n  6272: a5 = u8 [a0 + 0xb]\n  6275: a1 = a1 << 0x8\n  6278: a1 = a1 | a2\n  6281: a4 = a4 << 0x10\n  6284: a5 = a5 << 0x18\n  6287: a4 = a4 | a5\n  6290: a1 = a1 | a4\n  6293: a2 = u8 [a0 + 0xd]\n  6296: a4 = u8 [a0 + 0xc]\n  6299: a5 = u8 [a0 + 0xe]\n  6302: a0 = u8 [a0 + 0xf]\n  6305: a2 = a2 << 0x8\n  6308: a2 = a2 | a4\n  6311: a5 = a5 << 0x10\n  6314: a0 = a0 << 0x18\n  6317: a0 = a0 | a5\n  6320: a0 = a0 | a2\n  6323: a0 = a0 << 0x20\n  6326: a0 = a0 | a1\n  6329: a1 = reverse a0\n  6331: a0 = reverse a3\n  6333: a2 = reverse t1\n  6335: a3 = reverse t0\n  6337: a2 = a2 | a3\n  6340: a3 = a0 | a1\n  6343: a3 = a3 | a2\n  6346: a3 = a3 >> 0x20\n  6349: a1 = a1 | a2\n  6352: a1 = a1 << 0x20\n  6355: a1 = a1 | a3\n  6358: jump @128 if a1 == 0\n      : @125 (gas: 1)\n  6361: trap\n      : @126 (gas: 3)\n  6362: a0 = 0\n  6364: a1 = 0\n  6366: ra = 100, jump @0\n      : @127 [@dyn 50] (gas: 7)\n  6371: i32 a1 = a0 + 0\n  6373: a0 = 0x1\n  6376: a2 = 0\n  6378: ecalli 6 // 'seal_return'\n  6380: i32 a0 = a0 + 0\n  6382: ra = 0x66\n  6385: jump @0\n      : @128 (gas: 2)\n  6388: i32 a0 = a0 + 0\n  6390: ra = 102, jump @0\n      : @129 [@dyn 51] (gas: 6)\n  6395: i32 a1 = a0 + 0\n  6397: a0 = 0\n  6399: a2 = 0\n  6401: ra = 0x68\n  6404: ecalli 6 // 'seal_return'\n  6406: fallthrough\n      : @130 [@dyn 52] (gas: 45)\n  6407: sp = sp + 0xffffffffffffff40\n  6411: u64 [sp + 0xb8] = ra\n  6415: u64 [sp + 0xb0] = s0\n  6419: u64 [sp + 0xa8] = s1\n  6423: s0 = sp + 0xc0\n  6427: sp = sp & 0xffffffffffffffe0\n  6430: ra = u64 [a1 + 0x10]\n  6433: t2 = u64 [a1 + 0x8]\n  6436: t0 = u64 [a2 + 0x8]\n  6439: a5 = u64 [a1]\n  6441: u64 [sp + 0x78] = a5\n  6444: a3 = u64 [a2]\n  6446: u64 [sp + 0x68] = a3\n  6449: a4 = u64 [a2 + 0x10]\n  6452: t1 = t0 ^ t2\n  6455: s1 = t0 <u t2\n  6458: a3 = a3 <u a5\n  6461: s1 = a3 if t1 == 0\n  6464: t1 = u64 [a1 + 0x18]\n  6467: a5 = u64 [a2 + 0x18]\n  6470: a2 = a4 - ra\n  6473: a1 = a2 - s1\n  6476: u64 [sp + 0x70] = a1\n  6479: a1 = a2 <u s1\n  6482: a4 = a4 <u ra\n  6485: u64 [sp + 0x60] = t1\n  6488: a2 = a5 - t1\n  6491: a5 = u64 [sp + 0x78]\n  6494: a2 = a2 - a4\n  6497: a2 = a2 - a1\n  6500: a1 = t0 - t2\n  6503: a1 = a1 - a3\n  6506: a3 = u64 [sp + 0x68]\n  6509: a3 = a3 - a5\n  6512: a4 = a1 >u 0\n  6514: a3 = a3 <u 0x80\n  6518: a3 = a3 ^ 0x1\n  6521: a3 = a4 if a1 != 0\n  6524: s1 = a2 >s 0\n  6526: a1 = u64 [sp + 0x70]\n  6529: a4 = a1 >u 0\n  6531: a4 = s1 if a2 != 0\n  6534: a1 = a1 | a2\n  6537: a3 = a4 if a1 != 0\n  6540: jump @142 if a3 == 0\n      : @131 (gas: 12)\n  6544: s1 = a0\n  6546: a0 = a5 | ra\n  6549: u64 [sp + 0x70] = t2\n  6552: a1 = u64 [sp + 0x60]\n  6555: a1 = t2 | a1\n  6558: a0 = a0 | a1\n  6561: a0 = a0 >> 0x20\n  6564: u64 [sp + 0x58] = ra\n  6567: a1 = a1 | ra\n  6570: a1 = a1 << 0x20\n  6573: a0 = a0 | a1\n  6576: jump @141 if a0 != 0\n      : @132 (gas: 5)\n  6580: i32 a1 = a5 + 0\n  6582: i32 a0 = sp + 0x80\n  6586: u64 [sp + 0x68] = a1\n  6589: ecalli 1 // 'call_data_load'\n  6591: fallthrough\n      : @133 (gas: 10)\n  6592: a3 = u64 [sp + 0x90]\n  6596: a4 = u64 [sp + 0x98]\n  6600: a0 = 0x100000000\n  6610: a1 = a3 ^ a0\n  6613: a1 = a1 | a4\n  6616: a2 = a3 >> 0x20\n  6619: a2 = a2 <u 0x1\n  6622: a2 = 0 if a4 != 0\n  6624: a2 = 0 if a1 == 0\n  6626: jump @142 if a2 == 0\n      : @134 (gas: 13)\n  6630: u64 [sp + 0x48] = a4\n  6633: u64 [sp + 0x50] = a3\n  6636: a1 = u64 [sp + 0x58]\n  6639: a2 = u64 [sp + 0x60]\n  6642: a2 = a2 | a1\n  6645: a0 = 0xffffffe0\n  6655: a1 = u64 [sp + 0x78]\n  6658: a0 = a1 <u a0\n  6661: a1 = u64 [sp + 0x70]\n  6664: a0 = 0 if a1 != 0\n  6666: u64 [sp + 0x60] = a2\n  6669: a0 = 0 if a2 != 0\n  6671: jump @141 if a0 == 0\n      : @135 (gas: 9)\n  6675: a0 = u64 [sp + 0x88]\n  6679: u64 [sp + 0x40] = a0\n  6682: a0 = u64 [sp + 0x80]\n  6686: u64 [sp + 0x58] = a0\n  6689: a0 = u64 [sp + 0x68]\n  6692: i32 a1 = a0 + 0x20\n  6695: i32 a0 = sp + 0x80\n  6699: ecalli 1 // 'call_data_load'\n  6701: fallthrough\n      : @136 (gas: 10)\n  6702: a3 = u64 [sp + 0x90]\n  6706: a4 = u64 [sp + 0x98]\n  6710: a0 = 0x100000000\n  6720: a1 = a3 ^ a0\n  6723: a1 = a1 | a4\n  6726: a2 = a3 >> 0x20\n  6729: a2 = a2 <u 0x1\n  6732: a2 = 0 if a4 != 0\n  6734: a2 = 0 if a1 == 0\n  6736: jump @142 if a2 == 0\n      : @137 (gas: 10)\n  6740: u64 [sp + 0x30] = a4\n  6743: u64 [sp + 0x38] = a3\n  6746: a0 = 0xffffffc0\n  6756: a1 = u64 [sp + 0x78]\n  6759: a0 = a1 <u a0\n  6762: a1 = u64 [sp + 0x70]\n  6765: a0 = 0 if a1 != 0\n  6767: a1 = u64 [sp + 0x60]\n  6770: a0 = 0 if a1 != 0\n  6772: jump @141 if a0 == 0\n      : @138 (gas: 9)\n  6776: a0 = u64 [sp + 0x88]\n  6780: u64 [sp + 0x20] = a0\n  6783: a0 = u64 [sp + 0x80]\n  6787: u64 [sp + 0x28] = a0\n  6790: a0 = u64 [sp + 0x68]\n  6793: i32 a1 = a0 + 0x40\n  6796: i32 a0 = sp + 0x80\n  6800: ecalli 1 // 'call_data_load'\n  6802: fallthrough\n      : @139 (gas: 8)\n  6803: a0 = 0xffffffa0\n  6813: a1 = u64 [sp + 0x78]\n  6816: a0 = a1 <u a0\n  6819: a1 = u64 [sp + 0x70]\n  6822: a0 = 0 if a1 != 0\n  6824: a1 = u64 [sp + 0x60]\n  6827: a0 = 0 if a1 != 0\n  6829: jump @141 if a0 == 0\n      : @140 (gas: 50)\n  6833: a0 = u64 [sp + 0x98]\n  6837: u64 [sp + 0x18] = a0\n  6840: a0 = u64 [sp + 0x90]\n  6844: u64 [sp + 0x60] = a0\n  6847: a0 = u64 [sp + 0x88]\n  6851: u64 [sp + 0x70] = a0\n  6854: a0 = u64 [sp + 0x80]\n  6858: u64 [sp + 0x78] = a0\n  6861: a0 = u64 [sp + 0x68]\n  6864: i32 a1 = a0 + 0x60\n  6867: i32 a0 = sp + 0x80\n  6871: ecalli 1 // 'call_data_load'\n  6873: a0 = u64 [sp + 0x98]\n  6877: a1 = u64 [sp + 0x90]\n  6881: a2 = u64 [sp + 0x88]\n  6885: a3 = u64 [sp + 0x80]\n  6889: u64 [s1 + 0x78] = a0\n  6892: u64 [s1 + 0x70] = a1\n  6895: u64 [s1 + 0x68] = a2\n  6898: u64 [s1 + 0x60] = a3\n  6901: a0 = u64 [sp + 0x18]\n  6904: u64 [s1 + 0x58] = a0\n  6907: a0 = u64 [sp + 0x60]\n  6910: u64 [s1 + 0x50] = a0\n  6913: a0 = u64 [sp + 0x70]\n  6916: u64 [s1 + 0x48] = a0\n  6919: a0 = u64 [sp + 0x78]\n  6922: u64 [s1 + 0x40] = a0\n  6925: a0 = u64 [sp + 0x30]\n  6928: u64 [s1 + 0x38] = a0\n  6931: a0 = u64 [sp + 0x38]\n  6934: u64 [s1 + 0x30] = a0\n  6937: a0 = u64 [sp + 0x20]\n  6940: u64 [s1 + 0x28] = a0\n  6943: a0 = u64 [sp + 0x28]\n  6946: u64 [s1 + 0x20] = a0\n  6949: a0 = u64 [sp + 0x48]\n  6952: u64 [s1 + 0x18] = a0\n  6955: a0 = u64 [sp + 0x50]\n  6958: u64 [s1 + 0x10] = a0\n  6961: a0 = u64 [sp + 0x40]\n  6964: u64 [s1 + 0x8] = a0\n  6967: a0 = u64 [sp + 0x58]\n  6970: u64 [s1] = a0\n  6972: sp = s0 + 0xffffffffffffff40\n  6976: ra = u64 [sp + 0xb8]\n  6980: s0 = u64 [sp + 0xb0]\n  6984: s1 = u64 [sp + 0xa8]\n  6988: sp = sp + 0xc0\n  6992: ret\n      : @141 (gas: 1)\n  6994: trap\n      : @142 (gas: 3)\n  6995: a0 = 0\n  6997: a1 = 0\n  6999: ra = 106, jump @0\n      : @143 [@dyn 53] (gas: 6)\n  7004: i32 a1 = a0 + 0\n  7006: a0 = 0x1\n  7009: a2 = 0\n  7011: ra = 0x6c\n  7014: ecalli 6 // 'seal_return'\n  7016: fallthrough\n      : @144 [@dyn 54] (gas: 13)\n  7017: sp = sp + 0xfffffffffffffe40\n  7021: u64 [sp + 0x1b8] = ra\n  7025: u64 [sp + 0x1b0] = s0\n  7029: u64 [sp + 0x1a8] = s1\n  7033: s0 = sp + 0x1c0\n  7037: sp = sp & 0xffffffffffffffe0\n  7040: u64 [sp + 408] = 0\n  7044: u64 [sp + 400] = 0\n  7048: u64 [sp + 392] = 0\n  7052: u64 [sp + 384] = 0\n  7056: i32 a0 = sp + 0x180\n  7060: ecalli 9 // 'value_transferred'\n  7062: fallthrough\n      : @145 (gas: 8)\n  7063: a0 = u64 [sp + 0x190]\n  7067: a1 = u64 [sp + 0x198]\n  7071: a2 = u64 [sp + 0x188]\n  7075: a3 = u64 [sp + 0x180]\n  7079: a1 = a1 | a2\n  7082: a0 = a0 | a3\n  7085: a0 = a0 | a1\n  7088: jump @151 if a0 != 0\n      : @146 (gas: 13)\n  7092: a0 = u32 [0x20004]\n  7097: u64 [sp + 216] = 0\n  7101: u64 [sp + 208] = 0\n  7105: u64 [sp + 200] = 0\n  7109: u64 [sp + 0xc0] = a0\n  7113: u64 [sp + 248] = 0\n  7117: u64 [sp + 240] = 0\n  7121: u64 [sp + 224] = 0x4\n  7126: a0 = sp + 0x100\n  7130: a1 = sp + 0xe0\n  7134: a2 = sp + 0xc0\n  7138: u64 [sp + 232] = 0\n  7142: ra = 110, jump @130\n      : @147 [@dyn 55] (gas: 47)\n  7147: a0 = u64 [sp + 0x100]\n  7151: u64 [sp + 0x38] = a0\n  7154: a0 = u64 [sp + 0x108]\n  7158: u64 [sp + 0x30] = a0\n  7161: a0 = u64 [sp + 0x110]\n  7165: u64 [sp + 0x28] = a0\n  7168: a0 = u64 [sp + 0x118]\n  7172: u64 [sp + 0x20] = a0\n  7175: a0 = u64 [sp + 0x120]\n  7179: u64 [sp + 0x18] = a0\n  7182: ra = u64 [sp + 0x128]\n  7186: t2 = u64 [sp + 0x130]\n  7190: t1 = u64 [sp + 0x138]\n  7194: t0 = u64 [sp + 0x140]\n  7198: s1 = u64 [sp + 0x148]\n  7202: a5 = u64 [sp + 0x150]\n  7206: a4 = u64 [sp + 0x158]\n  7210: a3 = u64 [sp + 0x160]\n  7214: a2 = u64 [sp + 0x168]\n  7218: a1 = u64 [sp + 0x170]\n  7222: a0 = u64 [sp + 0x178]\n  7226: u64 [sp + 0x58] = a0\n  7229: u64 [sp + 0x50] = a1\n  7232: u64 [sp + 0x48] = a2\n  7235: u64 [sp + 0x40] = a3\n  7238: u64 [sp + 0x78] = a4\n  7241: u64 [sp + 0x70] = a5\n  7244: u64 [sp + 0x68] = s1\n  7247: u64 [sp + 0x60] = t0\n  7250: u64 [sp + 0x98] = t1\n  7254: u64 [sp + 0x90] = t2\n  7258: u64 [sp + 0x88] = ra\n  7262: a0 = u64 [sp + 0x18]\n  7265: u64 [sp + 0x80] = a0\n  7269: a0 = u64 [sp + 0x20]\n  7272: u64 [sp + 0xb8] = a0\n  7276: a0 = u64 [sp + 0x28]\n  7279: u64 [sp + 0xb0] = a0\n  7283: a0 = u64 [sp + 0x30]\n  7286: u64 [sp + 0xa8] = a0\n  7290: a0 = sp + 0xa0\n  7294: a1 = sp + 0x80\n  7298: a2 = sp + 0x60\n  7301: a3 = sp + 0x40\n  7304: a4 = u64 [sp + 0x38]\n  7307: u64 [sp + 0xa0] = a4\n  7311: ra = 112, jump @259\n      : @148 [@dyn 56] (gas: 3)\n  7316: a0 = 0x40\n  7319: a1 = 0x20\n  7322: ra = 114, jump @0\n      : @149 [@dyn 57] (gas: 100)\n  7327: a1 = u8 [a0 + 0x11]\n  7330: a2 = u8 [a0 + 0x10]\n  7333: a3 = u8 [a0 + 0x12]\n  7336: a4 = u8 [a0 + 0x13]\n  7339: a1 = a1 << 0x8\n  7342: a1 = a1 | a2\n  7345: a3 = a3 << 0x10\n  7348: a4 = a4 << 0x18\n  7351: a3 = a3 | a4\n  7354: a1 = a1 | a3\n  7357: a2 = u8 [a0 + 0x15]\n  7360: a3 = u8 [a0 + 0x14]\n  7363: a4 = u8 [a0 + 0x16]\n  7366: a5 = u8 [a0 + 0x17]\n  7369: a2 = a2 << 0x8\n  7372: a2 = a2 | a3\n  7375: a4 = a4 << 0x10\n  7378: a5 = a5 << 0x18\n  7381: a4 = a4 | a5\n  7384: a2 = a2 | a4\n  7387: a2 = a2 << 0x20\n  7390: t0 = a2 | a1\n  7393: a2 = u8 [a0 + 0x1]\n  7396: a3 = u8 [a0]\n  7398: a4 = u8 [a0 + 0x2]\n  7401: a5 = u8 [a0 + 0x3]\n  7404: a2 = a2 << 0x8\n  7407: a2 = a2 | a3\n  7410: a4 = a4 << 0x10\n  7413: a5 = a5 << 0x18\n  7416: a4 = a4 | a5\n  7419: a2 = a2 | a4\n  7422: a3 = u8 [a0 + 0x5]\n  7425: a4 = u8 [a0 + 0x4]\n  7428: a5 = u8 [a0 + 0x6]\n  7431: s1 = u8 [a0 + 0x7]\n  7434: a3 = a3 << 0x8\n  7437: a3 = a3 | a4\n  7440: a5 = a5 << 0x10\n  7443: s1 = s1 << 0x18\n  7446: a5 = a5 | s1\n  7449: a3 = a3 | a5\n  7452: a3 = a3 << 0x20\n  7455: a2 = a2 | a3\n  7458: a3 = u8 [a0 + 0x19]\n  7461: a4 = u8 [a0 + 0x18]\n  7464: a5 = u8 [a0 + 0x1a]\n  7467: s1 = u8 [a0 + 0x1b]\n  7470: a3 = a3 << 0x8\n  7473: a3 = a3 | a4\n  7476: a5 = a5 << 0x10\n  7479: s1 = s1 << 0x18\n  7482: a5 = a5 | s1\n  7485: a3 = a3 | a5\n  7488: a4 = u8 [a0 + 0x1d]\n  7491: a5 = u8 [a0 + 0x1c]\n  7494: s1 = u8 [a0 + 0x1e]\n  7497: a1 = u8 [a0 + 0x1f]\n  7500: a4 = a4 << 0x8\n  7503: a4 = a4 | a5\n  7506: s1 = s1 << 0x10\n  7509: a1 = a1 << 0x18\n  7512: a1 = a1 | s1\n  7515: a1 = a1 | a4\n  7518: a1 = a1 << 0x20\n  7521: a3 = a3 | a1\n  7524: a1 = u8 [a0 + 0x9]\n  7527: a4 = u8 [a0 + 0x8]\n  7530: a5 = u8 [a0 + 0xa]\n  7533: s1 = u8 [a0 + 0xb]\n  7536: a1 = a1 << 0x8\n  7539: a1 = a1 | a4\n  7542: a5 = a5 << 0x10\n  7545: s1 = s1 << 0x18\n  7548: a5 = a5 | s1\n  7551: a1 = a1 | a5\n  7554: a4 = u8 [a0 + 0xd]\n  7557: a5 = u8 [a0 + 0xc]\n  7560: s1 = u8 [a0 + 0xe]\n  7563: a0 = u8 [a0 + 0xf]\n  7566: a4 = a4 << 0x8\n  7569: a4 = a4 | a5\n  7572: s1 = s1 << 0x10\n  7575: a0 = a0 << 0x18\n  7578: a0 = a0 | s1\n  7581: a0 = a0 | a4\n  7584: a0 = a0 << 0x20\n  7587: a0 = a0 | a1\n  7590: a1 = reverse a0\n  7592: a0 = reverse a3\n  7594: a2 = reverse a2\n  7596: a3 = reverse t0\n  7598: a2 = a2 | a3\n  7601: a3 = a0 | a1\n  7604: a3 = a3 | a2\n  7607: a3 = a3 >> 0x20\n  7610: a1 = a1 | a2\n  7613: a1 = a1 << 0x20\n  7616: a1 = a1 | a3\n  7619: jump @153 if a1 == 0\n      : @150 (gas: 1)\n  7622: trap\n      : @151 (gas: 3)\n  7623: a0 = 0\n  7625: a1 = 0\n  7627: ra = 116, jump @0\n      : @152 [@dyn 58] (gas: 7)\n  7632: i32 a1 = a0 + 0\n  7634: a0 = 0x1\n  7637: a2 = 0\n  7639: ecalli 6 // 'seal_return'\n  7641: i32 a0 = a0 + 0\n  7643: ra = 0x76\n  7646: jump @0\n      : @153 (gas: 2)\n  7649: i32 a0 = a0 + 0\n  7651: ra = 118, jump @0\n      : @154 [@dyn 59] (gas: 6)\n  7656: i32 a1 = a0 + 0\n  7658: a0 = 0\n  7660: a2 = 0\n  7662: ra = 0x78\n  7665: ecalli 6 // 'seal_return'\n  7667: fallthrough\n      : @155 [@dyn 60] (gas: 6)\n  7668: u64 [a0 + 24] = 0\n  7671: u64 [a0 + 16] = 0\n  7674: u64 [a0 + 8] = 0\n  7677: a1 = 0x11\n  7680: u64 [a0] = a1\n  7682: ret\n      : @156 (gas: 8)\n  7684: a0 = u64 [sp + 0x1d0]\n  7688: a1 = u64 [sp + 0x1d8]\n  7692: a2 = u64 [sp + 0x1c8]\n  7696: a3 = u64 [sp + 0x1c0]\n  7700: a1 = a1 | a2\n  7703: a0 = a0 | a3\n  7706: a0 = a0 | a1\n  7709: jump @170 if a0 != 0\n      : @157 (gas: 2)\n  7713: a0 = i32 [0x20004]\n  7718: jump @170 if a0 <=u 35\n      : @158 (gas: 4)\n  7723: i32 a0 = sp + 0x1e0\n  7727: a1 = 0x4\n  7730: ecalli 1 // 'call_data_load'\n  7732: fallthrough\n      : @159 (gas: 10)\n  7733: a0 = u64 [sp + 0x1f0]\n  7737: a2 = u64 [sp + 0x1f8]\n  7741: a1 = 0x100000000\n  7751: a1 = a1 ^ a0\n  7754: a1 = a1 | a2\n  7757: a3 = a0 >> 0x20\n  7760: a3 = a3 <u 0x1\n  7763: a3 = 0 if a2 != 0\n  7765: a3 = 0 if a1 == 0\n  7767: jump @170 if a3 == 0\n      : @160 (gas: 30)\n  7771: a1 = u64 [sp + 0x1e8]\n  7775: a3 = u64 [sp + 0x1e0]\n  7779: u64 [sp + 0x188] = a1\n  7783: u64 [sp + 0x180] = a3\n  7787: u64 [sp + 0x190] = a0\n  7791: a0 = sp + 0x1a0\n  7795: a1 = sp + 0x180\n  7799: u64 [sp + 0x198] = a2\n  7803: ra = 0x7a\n  7806: sp = sp + 0xffffffffffffff20\n  7810: u64 [sp + 0xd8] = ra\n  7814: u64 [sp + 0xd0] = s0\n  7818: u64 [sp + 0xc8] = s1\n  7822: s0 = sp + 0xe0\n  7826: sp = sp & 0xffffffffffffffe0\n  7829: a2 = u64 [a1 + 0x10]\n  7832: u64 [sp] = a2\n  7834: a2 = u64 [a1 + 0x8]\n  7837: u64 [sp + 0x8] = a2\n  7840: a1 = u64 [a1]\n  7842: u64 [sp + 0x10] = a1\n  7845: u64 [sp + 0x18] = a0\n  7848: u64 [sp + 120] = 0\n  7851: u64 [sp + 112] = 0\n  7854: u64 [sp + 96] = 0x220\n  7859: a0 = sp + 0x80\n  7863: a1 = sp + 0x60\n  7866: u64 [sp + 104] = 0\n  7869: ra = 0x134\n  7873: jump @297\n      : @161 [@dyn 61] (gas: 10)\n  7876: a0 = u64 [sp + 0x1b8]\n  7880: u64 [sp + 0x158] = a0\n  7884: a0 = u64 [sp + 0x1b0]\n  7888: u64 [sp + 0x168] = a0\n  7892: a0 = u64 [sp + 0x1a8]\n  7896: u64 [sp + 0x150] = a0\n  7900: s1 = u64 [sp + 0x1a0]\n  7904: a0 = 0x40\n  7907: a1 = 0x20\n  7910: ra = 124, jump @0\n      : @162 [@dyn 62] (gas: 108)\n  7915: ra = s1\n  7917: a1 = u8 [a0 + 0x19]\n  7920: a2 = u8 [a0 + 0x18]\n  7923: a3 = u8 [a0 + 0x1a]\n  7926: a4 = u8 [a0 + 0x1b]\n  7929: a1 = a1 << 0x8\n  7932: a1 = a1 | a2\n  7935: a3 = a3 << 0x10\n  7938: a4 = a4 << 0x18\n  7941: a3 = a3 | a4\n  7944: a1 = a1 | a3\n  7947: a2 = u8 [a0 + 0x1d]\n  7950: a3 = u8 [a0 + 0x1c]\n  7953: a4 = u8 [a0 + 0x1e]\n  7956: a5 = u8 [a0 + 0x1f]\n  7959: a2 = a2 << 0x8\n  7962: a2 = a2 | a3\n  7965: a4 = a4 << 0x10\n  7968: a5 = a5 << 0x18\n  7971: a4 = a4 | a5\n  7974: a2 = a2 | a4\n  7977: a2 = a2 << 0x20\n  7980: t0 = a2 | a1\n  7983: a2 = u8 [a0 + 0x11]\n  7986: a3 = u8 [a0 + 0x10]\n  7989: a4 = u8 [a0 + 0x12]\n  7992: a5 = u8 [a0 + 0x13]\n  7995: a2 = a2 << 0x8\n  7998: a2 = a2 | a3\n  8001: a4 = a4 << 0x10\n  8004: a5 = a5 << 0x18\n  8007: a4 = a4 | a5\n  8010: a2 = a2 | a4\n  8013: a3 = u8 [a0 + 0x15]\n  8016: a4 = u8 [a0 + 0x14]\n  8019: a5 = u8 [a0 + 0x16]\n  8022: s1 = u8 [a0 + 0x17]\n  8025: a3 = a3 << 0x8\n  8028: a3 = a3 | a4\n  8031: a5 = a5 << 0x10\n  8034: s1 = s1 << 0x18\n  8037: a5 = a5 | s1\n  8040: a3 = a3 | a5\n  8043: a3 = a3 << 0x20\n  8046: a2 = a2 | a3\n  8049: a3 = u8 [a0 + 0x9]\n  8052: a4 = u8 [a0 + 0x8]\n  8055: a5 = u8 [a0 + 0xa]\n  8058: s1 = u8 [a0 + 0xb]\n  8061: a3 = a3 << 0x8\n  8064: a3 = a3 | a4\n  8067: a5 = a5 << 0x10\n  8070: s1 = s1 << 0x18\n  8073: a5 = a5 | s1\n  8076: a3 = a3 | a5\n  8079: a4 = u8 [a0 + 0xd]\n  8082: a5 = u8 [a0 + 0xc]\n  8085: s1 = u8 [a0 + 0xe]\n  8088: a1 = u8 [a0 + 0xf]\n  8091: a4 = a4 << 0x8\n  8094: a4 = a4 | a5\n  8097: s1 = s1 << 0x10\n  8100: a1 = a1 << 0x18\n  8103: a1 = a1 | s1\n  8106: a1 = a1 | a4\n  8109: a1 = a1 << 0x20\n  8112: a3 = a3 | a1\n  8115: a1 = u8 [a0 + 0x1]\n  8118: a4 = u8 [a0]\n  8120: a5 = u8 [a0 + 0x2]\n  8123: s1 = u8 [a0 + 0x3]\n  8126: a1 = a1 << 0x8\n  8129: a1 = a1 | a4\n  8132: a5 = a5 << 0x10\n  8135: s1 = s1 << 0x18\n  8138: a5 = a5 | s1\n  8141: a1 = a1 | a5\n  8144: a4 = u8 [a0 + 0x5]\n  8147: a5 = u8 [a0 + 0x4]\n  8150: s1 = u8 [a0 + 0x6]\n  8153: a0 = u8 [a0 + 0x7]\n  8156: a4 = a4 << 0x8\n  8159: a4 = a4 | a5\n  8162: s1 = s1 << 0x10\n  8165: a0 = a0 << 0x18\n  8168: a0 = a0 | s1\n  8171: a0 = a0 | a4\n  8174: a4 = u64 [sp + 0x158]\n  8178: a0 = a0 << 0x20\n  8181: a0 = a0 | a1\n  8184: t1 = reverse a0\n  8186: a1 = reverse a3\n  8188: a5 = reverse a2\n  8190: a0 = reverse t0\n  8192: t0 = u64 [sp + 0x150]\n  8196: u64 [sp + 320] = 0\n  8200: u64 [sp + 328] = 0\n  8204: a2 = 0\n  8206: a3 = 0\n  8208: u64 [sp + 0x20] = a0\n  8211: u64 [sp + 0x170] = a0\n  8215: u64 [sp + 0x8] = a5\n  8218: s1 = a5\n  8220: u64 [sp + 0x18] = a1\n  8223: t2 = a1\n  8225: u64 [sp + 0x10] = t1\n  8228: u64 [sp + 0x178] = t1\n  8232: fallthrough\n      : @163 (gas: 9)\n  8233: a5 = u64 [sp + 0x168]\n  8237: a0 = ra | a5\n  8240: a1 = t0 | a4\n  8243: a0 = a0 | a1\n  8246: a0 = a0 >> 0x20\n  8249: a1 = a1 | a5\n  8252: a1 = a1 << 0x20\n  8255: a0 = a0 | a1\n  8258: jump @169 if a0 != 0\n      : @164 (gas: 10)\n  8262: u64 [sp + 0x128] = a3\n  8266: u64 [sp + 0x130] = a2\n  8270: u64 [sp + 0x150] = t0\n  8274: u64 [sp + 0x158] = a4\n  8278: u64 [sp + 0x138] = ra\n  8282: i32 a0 = ra + 0\n  8284: a1 = 0x20\n  8287: u64 [sp + 0x160] = s1\n  8291: s1 = t2\n  8293: ra = 126, jump @0\n      : @165 [@dyn 63] (gas: 12)\n  8298: a4 = s1\n  8300: s1 = u64 [sp + 0x160]\n  8304: a5 = u64 [sp + 0x170]\n  8308: a1 = a5 | a4\n  8311: a3 = u64 [sp + 0x178]\n  8315: a2 = s1 | a3\n  8318: a1 = a1 | a2\n  8321: a1 = a1 >> 0x20\n  8324: a2 = a2 | a4\n  8327: a2 = a2 << 0x20\n  8330: a1 = a1 | a2\n  8333: jump @169 if a1 != 0\n      : @166 (gas: 69)\n  8337: a1 = u8 [a0]\n  8339: u64 [sp + 0x120] = a1\n  8343: a1 = u8 [a0 + 0x1]\n  8346: u64 [sp + 0x118] = a1\n  8350: a1 = u8 [a0 + 0x2]\n  8353: u64 [sp + 0x110] = a1\n  8357: a1 = u8 [a0 + 0x3]\n  8360: u64 [sp + 0x108] = a1\n  8364: a1 = u8 [a0 + 0x4]\n  8367: u64 [sp + 0x100] = a1\n  8371: a1 = u8 [a0 + 0x5]\n  8374: u64 [sp + 0xf8] = a1\n  8378: a1 = u8 [a0 + 0x6]\n  8381: u64 [sp + 0xf0] = a1\n  8385: a1 = u8 [a0 + 0x7]\n  8388: u64 [sp + 0xe8] = a1\n  8392: a1 = u8 [a0 + 0x8]\n  8395: u64 [sp + 0xe0] = a1\n  8399: a1 = u8 [a0 + 0x9]\n  8402: u64 [sp + 0xd8] = a1\n  8406: a1 = u8 [a0 + 0xa]\n  8409: u64 [sp + 0xd0] = a1\n  8413: a1 = u8 [a0 + 0xb]\n  8416: u64 [sp + 0xc8] = a1\n  8420: a1 = u8 [a0 + 0xc]\n  8423: u64 [sp + 0xc0] = a1\n  8427: a1 = u8 [a0 + 0xd]\n  8430: u64 [sp + 0xb8] = a1\n  8434: a1 = u8 [a0 + 0xe]\n  8437: u64 [sp + 0xb0] = a1\n  8441: a1 = u8 [a0 + 0xf]\n  8444: u64 [sp + 0xa8] = a1\n  8448: a1 = u8 [a0 + 0x10]\n  8451: u64 [sp + 0x98] = a1\n  8455: a1 = u8 [a0 + 0x11]\n  8458: u64 [sp + 0x90] = a1\n  8462: a1 = u8 [a0 + 0x12]\n  8465: u64 [sp + 0x88] = a1\n  8469: a1 = u8 [a0 + 0x13]\n  8472: u64 [sp + 0x80] = a1\n  8476: a1 = u8 [a0 + 0x14]\n  8479: u64 [sp + 0x78] = a1\n  8482: a1 = u8 [a0 + 0x15]\n  8485: u64 [sp + 0x70] = a1\n  8488: a1 = u8 [a0 + 0x16]\n  8491: u64 [sp + 0x68] = a1\n  8494: a1 = u8 [a0 + 0x17]\n  8497: u64 [sp + 0x60] = a1\n  8500: a1 = u8 [a0 + 0x18]\n  8503: u64 [sp + 0x58] = a1\n  8506: a1 = u8 [a0 + 0x19]\n  8509: u64 [sp + 0x50] = a1\n  8512: a1 = u8 [a0 + 0x1a]\n  8515: u64 [sp + 0x48] = a1\n  8518: a1 = u8 [a0 + 0x1b]\n  8521: u64 [sp + 0x40] = a1\n  8524: a1 = u8 [a0 + 0x1c]\n  8527: u64 [sp + 0x38] = a1\n  8530: a1 = u8 [a0 + 0x1d]\n  8533: u64 [sp + 0x30] = a1\n  8536: a1 = u8 [a0 + 0x1e]\n  8539: u64 [sp + 0x28] = a1\n  8542: s1 = u8 [a0 + 0x1f]\n  8545: i32 a0 = a5 + 0\n  8547: a1 = 0x20\n  8550: u64 [sp + 0x178] = a3\n  8554: u64 [sp + 0xa0] = a4\n  8558: u64 [sp + 0x170] = a5\n  8562: ra = 128, jump @0\n      : @167 [@dyn 64] (gas: 114)\n  8568: u8 [a0 + 0x1f] = s1\n  8571: a1 = u64 [sp + 0x28]\n  8574: u8 [a0 + 0x1e] = a1\n  8577: a1 = u64 [sp + 0x30]\n  8580: u8 [a0 + 0x1d] = a1\n  8583: a1 = u64 [sp + 0x38]\n  8586: u8 [a0 + 0x1c] = a1\n  8589: a1 = u64 [sp + 0x40]\n  8592: u8 [a0 + 0x1b] = a1\n  8595: a1 = u64 [sp + 0x48]\n  8598: u8 [a0 + 0x1a] = a1\n  8601: a1 = u64 [sp + 0x50]\n  8604: u8 [a0 + 0x19] = a1\n  8607: a1 = u64 [sp + 0x58]\n  8610: u8 [a0 + 0x18] = a1\n  8613: a1 = u64 [sp + 0x60]\n  8616: u8 [a0 + 0x17] = a1\n  8619: a1 = u64 [sp + 0x68]\n  8622: u8 [a0 + 0x16] = a1\n  8625: a1 = u64 [sp + 0x70]\n  8628: u8 [a0 + 0x15] = a1\n  8631: a1 = u64 [sp + 0x78]\n  8634: u8 [a0 + 0x14] = a1\n  8637: a1 = u64 [sp + 0x80]\n  8641: u8 [a0 + 0x13] = a1\n  8644: a1 = u64 [sp + 0x88]\n  8648: u8 [a0 + 0x12] = a1\n  8651: a1 = u64 [sp + 0x90]\n  8655: u8 [a0 + 0x11] = a1\n  8658: a1 = u64 [sp + 0x98]\n  8662: u8 [a0 + 0x10] = a1\n  8665: a1 = u64 [sp + 0xa8]\n  8669: u8 [a0 + 0xf] = a1\n  8672: a1 = u64 [sp + 0xb0]\n  8676: u8 [a0 + 0xe] = a1\n  8679: a1 = u64 [sp + 0xb8]\n  8683: u8 [a0 + 0xd] = a1\n  8686: a1 = u64 [sp + 0xc0]\n  8690: u8 [a0 + 0xc] = a1\n  8693: a1 = u64 [sp + 0xc8]\n  8697: u8 [a0 + 0xb] = a1\n  8700: a1 = u64 [sp + 0xd0]\n  8704: u8 [a0 + 0xa] = a1\n  8707: a1 = u64 [sp + 0xd8]\n  8711: u8 [a0 + 0x9] = a1\n  8714: a1 = u64 [sp + 0xe0]\n  8718: u8 [a0 + 0x8] = a1\n  8721: a1 = u64 [sp + 0xe8]\n  8725: u8 [a0 + 0x7] = a1\n  8728: a1 = u64 [sp + 0xf0]\n  8732: u8 [a0 + 0x6] = a1\n  8735: a1 = u64 [sp + 0xf8]\n  8739: u8 [a0 + 0x5] = a1\n  8742: a1 = u64 [sp + 0x100]\n  8746: u8 [a0 + 0x4] = a1\n  8749: a1 = u64 [sp + 0x108]\n  8753: u8 [a0 + 0x3] = a1\n  8756: a1 = u64 [sp + 0x110]\n  8760: u8 [a0 + 0x2] = a1\n  8763: a1 = u64 [sp + 0x118]\n  8767: u8 [a0 + 0x1] = a1\n  8770: a1 = u64 [sp + 0x120]\n  8774: u8 [a0] = a1\n  8776: a1 = u64 [sp + 0x170]\n  8780: a0 = a1 + 0x20\n  8783: u64 [sp + 0x120] = a0\n  8787: a2 = a0 <u a1\n  8790: a1 = u64 [sp + 0x160]\n  8794: a0 = a1 + a2\n  8797: u64 [sp + 0x118] = a0\n  8801: a3 = a0 <u a1\n  8804: a3 = a2 if a2 == 0\n  8807: a0 = u64 [sp + 0xa0]\n  8811: t2 = a0 + a3\n  8814: a3 = t2 <u a0\n  8817: a0 = u64 [sp + 0x178]\n  8821: a0 = a0 + a3\n  8824: u64 [sp + 0x178] = a0\n  8828: a0 = u64 [sp + 0x138]\n  8832: ra = a0 + 0x20\n  8835: a5 = ra <u a0\n  8838: a0 = u64 [sp + 0x150]\n  8842: t0 = a0 + a5\n  8845: s1 = t0 <u a0\n  8848: s1 = a5 if a5 == 0\n  8851: a2 = u64 [sp + 0x140]\n  8855: a5 = a2 <u 0x10\n  8858: a2 = a2 + 0x1\n  8861: a0 = u64 [sp + 0x148]\n  8865: a5 = 0 if a0 != 0\n  8867: a1 = a2 <u 0x1\n  8870: a1 = a1 + a0\n  8873: a0 = a2 | a1\n  8876: a0 = a0 <u 0x1\n  8879: a4 = u64 [sp + 0x130]\n  8883: a0 = a0 + a4\n  8886: t1 = a0 <u a4\n  8889: a3 = u64 [sp + 0x128]\n  8893: a4 = a4 | a3\n  8896: a3 = a3 + t1\n  8899: a5 = 0 if a4 != 0\n  8901: a4 = u64 [sp + 0x168]\n  8905: s1 = s1 + a4\n  8908: a4 = s1 <u a4\n  8911: t1 = u64 [sp + 0x158]\n  8915: a4 = a4 + t1\n  8918: u64 [sp + 0x140] = a2\n  8922: u64 [sp + 0x148] = a1\n  8926: a2 = a0\n  8928: u64 [sp + 0x168] = s1\n  8932: a0 = u64 [sp + 0x120]\n  8936: u64 [sp + 0x170] = a0\n  8940: s1 = u64 [sp + 0x118]\n  8944: jump @163 if a5 != 0\n      : @168 (gas: 12)\n  8948: a2 = u64 [sp + 0x20]\n  8951: a3 = u64 [sp + 0x18]\n  8954: a0 = a2 | a3\n  8957: a1 = u64 [sp + 0x10]\n  8960: a4 = u64 [sp + 0x8]\n  8963: a1 = a1 | a4\n  8966: a0 = a0 | a1\n  8969: a0 = a0 >> 0x20\n  8972: a1 = a1 | a3\n  8975: a1 = a1 << 0x20\n  8978: a0 = a0 | a1\n  8981: jump @172 if a0 == 0\n      : @169 (gas: 1)\n  8984: trap\n      : @170 (gas: 3)\n  8985: a0 = 0\n  8987: a1 = 0\n  8989: ra = 130, jump @0\n      : @171 [@dyn 65] (gas: 5)\n  8995: i32 a1 = a0 + 0\n  8997: a0 = 0x1\n  9000: a2 = 0\n  9002: ecalli 6 // 'seal_return'\n  9004: fallthrough\n      : @172 (gas: 3)\n  9005: i32 a0 = a2 + 0\n  9007: a1 = 0x220\n  9011: ra = 132, jump @0\n      : @173 [@dyn 66] (gas: 6)\n  9017: i32 a1 = a0 + 0\n  9019: a2 = 0x220\n  9023: a0 = 0\n  9025: ra = 0x86\n  9029: ecalli 6 // 'seal_return'\n  9031: fallthrough\n      : @174 [@dyn 67] (gas: 19)\n  9032: t0 = u64 [a0 + 0x18]\n  9035: t1 = u64 [a1 + 0x18]\n  9038: a4 = u64 [a0 + 0x10]\n  9041: a5 = u64 [a0 + 0x8]\n  9044: a2 = u64 [a1 + 0x8]\n  9047: t2 = u64 [a0]\n  9049: a3 = u64 [a1]\n  9051: a1 = u64 [a1 + 0x10]\n  9054: a0 = a2 ^ a5\n  9057: a2 = a2 <u a5\n  9060: a3 = a3 <u t2\n  9063: a3 = a2 if a0 != 0\n  9066: a0 = a1 - a4\n  9069: a0 = a0 <u a3\n  9072: a1 = a1 <u a4\n  9075: a2 = t1 - t0\n  9078: a2 = a2 - a1\n  9081: a2 = a2 - a0\n  9084: jump @176 if a2 <s 0\n      : @175 (gas: 1)\n  9087: ret\n      : @176 (gas: 5)\n  9089: sp = sp + 0xfffffffffffffff8\n  9092: u64 [sp] = ra\n  9094: a0 = 0\n  9096: a1 = 0\n  9098: ra = 136, jump @0\n      : @177 [@dyn 68] (gas: 6)\n  9104: i32 a1 = a0 + 0\n  9106: a0 = 0x1\n  9109: a2 = 0\n  9111: ra = 0x8a\n  9115: ecalli 6 // 'seal_return'\n  9117: fallthrough\n      : @178 [@dyn 69] (gas: 194)\n  9118: sp = sp + 0xffffffffffffffa0\n  9121: u64 [sp + 0x58] = ra\n  9124: u64 [sp + 0x50] = s0\n  9127: u64 [sp + 0x48] = s1\n  9130: u64 [sp] = a0\n  9132: t1 = u64 [a1]\n  9134: ra = u64 [a1 + 0x8]\n  9137: a4 = u64 [a1 + 0x10]\n  9140: a1 = u64 [a1 + 0x18]\n  9143: t0 = u64 [a2]\n  9145: a3 = u64 [a2 + 0x8]\n  9148: t2 = u64 [a2 + 0x18]\n  9151: a2 = u64 [a2 + 0x10]\n  9154: s0 = t0 >> 0x3d\n  9157: s1 = a3 << 0x3\n  9160: s0 = s0 | s1\n  9163: a3 = a3 >> 0x3d\n  9166: s1 = a2 << 0x3\n  9169: a3 = a3 | s1\n  9172: a2 = a2 >> 0x3d\n  9175: t2 = t2 << 0x3\n  9178: s1 = t2 | a2\n  9181: t2 = t0 << 0x3\n  9184: a2 = s1 >u 0\n  9186: a5 = a3 >u 0\n  9188: a5 = a2 if s1 != 0\n  9191: a0 = s0 >u 0\n  9193: a2 = t2 <u 0x100\n  9197: t2 = a2 ^ 0x1\n  9200: t2 = a0 if s0 != 0\n  9203: a3 = a3 | s1\n  9206: t2 = a5 if a3 != 0\n  9209: u8 [sp + 71] = 0\n  9212: u8 [sp + 70] = 0\n  9215: u8 [sp + 69] = 0\n  9218: u8 [sp + 68] = 0\n  9221: u8 [sp + 67] = 0\n  9224: u8 [sp + 66] = 0\n  9227: u8 [sp + 65] = 0\n  9230: u8 [sp + 64] = 0\n  9233: u8 [sp + 63] = 0\n  9236: u8 [sp + 62] = 0\n  9239: u8 [sp + 61] = 0\n  9242: u8 [sp + 60] = 0\n  9245: u8 [sp + 59] = 0\n  9248: u8 [sp + 58] = 0\n  9251: u8 [sp + 57] = 0\n  9254: u8 [sp + 56] = 0\n  9257: u8 [sp + 55] = 0\n  9260: u8 [sp + 54] = 0\n  9263: u8 [sp + 53] = 0\n  9266: u8 [sp + 52] = 0\n  9269: u8 [sp + 51] = 0\n  9272: u8 [sp + 50] = 0\n  9275: u8 [sp + 49] = 0\n  9278: u8 [sp + 48] = 0\n  9281: u8 [sp + 47] = 0\n  9284: u8 [sp + 46] = 0\n  9287: u8 [sp + 45] = 0\n  9290: u8 [sp + 44] = 0\n  9293: u8 [sp + 43] = 0\n  9296: u8 [sp + 42] = 0\n  9299: u8 [sp + 41] = 0\n  9302: u8 [sp + 40] = 0\n  9305: u8 [sp + 0x20] = a1\n  9308: u8 [sp + 0x18] = a4\n  9311: u8 [sp + 0x10] = ra\n  9314: u8 [sp + 0x8] = t1\n  9317: a0 = a1 >> 0x38\n  9320: u8 [sp + 0x27] = a0\n  9323: a0 = a1 >> 0x30\n  9326: u8 [sp + 0x26] = a0\n  9329: a0 = a1 >> 0x28\n  9332: u8 [sp + 0x25] = a0\n  9335: a0 = a1 >> 0x20\n  9338: u8 [sp + 0x24] = a0\n  9341: a0 = a1 >> 0x18\n  9344: u8 [sp + 0x23] = a0\n  9347: a0 = a1 >> 0x10\n  9350: u8 [sp + 0x22] = a0\n  9353: a1 = a1 >> 0x8\n  9356: u8 [sp + 0x21] = a1\n  9359: a0 = a4 >> 0x38\n  9362: u8 [sp + 0x1f] = a0\n  9365: a0 = a4 >> 0x30\n  9368: u8 [sp + 0x1e] = a0\n  9371: a0 = a4 >> 0x28\n  9374: u8 [sp + 0x1d] = a0\n  9377: a0 = a4 >> 0x20\n  9380: u8 [sp + 0x1c] = a0\n  9383: a0 = a4 >> 0x18\n  9386: u8 [sp + 0x1b] = a0\n  9389: a0 = a4 >> 0x10\n  9392: u8 [sp + 0x1a] = a0\n  9395: a4 = a4 >> 0x8\n  9398: u8 [sp + 0x19] = a4\n  9401: a0 = ra >> 0x38\n  9404: u8 [sp + 0x17] = a0\n  9407: a0 = ra >> 0x30\n  9410: u8 [sp + 0x16] = a0\n  9413: a0 = ra >> 0x28\n  9416: u8 [sp + 0x15] = a0\n  9419: a0 = ra >> 0x20\n  9422: u8 [sp + 0x14] = a0\n  9425: a0 = ra >> 0x18\n  9428: u8 [sp + 0x13] = a0\n  9431: a0 = ra >> 0x10\n  9434: u8 [sp + 0x12] = a0\n  9437: a0 = ra >> 0x8\n  9440: u8 [sp + 0x11] = a0\n  9443: a0 = t1 >> 0x38\n  9446: u8 [sp + 0xf] = a0\n  9449: a0 = t1 >> 0x30\n  9452: u8 [sp + 0xe] = a0\n  9455: a0 = t1 >> 0x28\n  9458: u8 [sp + 0xd] = a0\n  9461: a0 = t1 >> 0x20\n  9464: u8 [sp + 0xc] = a0\n  9467: a0 = t1 >> 0x18\n  9470: u8 [sp + 0xb] = a0\n  9473: a0 = t1 >> 0x10\n  9476: u8 [sp + 0xa] = a0\n  9479: a0 = t1 >> 0x8\n  9482: u8 [sp + 0x9] = a0\n  9485: a1 = t0 & 0x1f\n  9488: a0 = sp + 0x8\n  9491: a1 = a1 + a0\n  9494: a0 = u8 [a1 + 0x9]\n  9497: a2 = u8 [a1 + 0x8]\n  9500: a3 = u8 [a1 + 0xa]\n  9503: a4 = u8 [a1 + 0xb]\n  9506: a0 = a0 << 0x8\n  9509: a0 = a0 | a2\n  9512: a3 = a3 << 0x10\n  9515: a4 = a4 << 0x18\n  9518: a3 = a3 | a4\n  9521: a0 = a0 | a3\n  9524: a2 = u8 [a1 + 0xd]\n  9527: a3 = u8 [a1 + 0xc]\n  9530: a4 = u8 [a1 + 0xe]\n  9533: a5 = u8 [a1 + 0xf]\n  9536: a2 = a2 << 0x8\n  9539: a2 = a2 | a3\n  9542: a4 = a4 << 0x10\n  9545: a5 = a5 << 0x18\n  9548: a4 = a4 | a5\n  9551: a2 = a2 | a4\n  9554: a2 = a2 << 0x20\n  9557: a3 = a2 | a0\n  9560: a0 = u8 [a1 + 0x1]\n  9563: a2 = u8 [a1]\n  9565: a4 = u8 [a1 + 0x2]\n  9568: a5 = u8 [a1 + 0x3]\n  9571: a0 = a0 << 0x8\n  9574: a0 = a0 | a2\n  9577: a4 = a4 << 0x10\n  9580: a5 = a5 << 0x18\n  9583: a4 = a4 | a5\n  9586: a0 = a0 | a4\n  9589: a2 = u8 [a1 + 0x5]\n  9592: a4 = u8 [a1 + 0x4]\n  9595: a5 = u8 [a1 + 0x6]\n  9598: s1 = u8 [a1 + 0x7]\n  9601: a2 = a2 << 0x8\n  9604: a2 = a2 | a4\n  9607: a5 = a5 << 0x10\n  9610: s1 = s1 << 0x18\n  9613: a5 = a5 | s1\n  9616: a2 = a2 | a5\n  9619: a2 = a2 << 0x20\n  9622: a0 = a0 | a2\n  9625: a2 = u8 [a1 + 0x11]\n  9628: a4 = u8 [a1 + 0x10]\n  9631: a5 = u8 [a1 + 0x12]\n  9634: a1 = u8 [a1 + 0x13]\n  9637: a2 = a2 << 0x8\n  9640: a2 = a2 | a4\n  9643: a5 = a5 << 0x10\n  9646: a1 = a1 << 0x18\n  9649: a1 = a1 | a5\n  9652: a1 = a1 | a2\n  9655: a0 = 0 if t2 != 0\n  9657: a3 = 0 if t2 != 0\n  9659: a1 = 0 if t2 != 0\n  9661: a2 = u64 [sp]\n  9663: u64 [a2 + 24] = 0\n  9666: u64 [a2 + 0x10] = a1\n  9669: u64 [a2 + 0x8] = a3\n  9672: u64 [a2] = a0\n  9674: ra = u64 [sp + 0x58]\n  9677: s0 = u64 [sp + 0x50]\n  9680: s1 = u64 [sp + 0x48]\n  9683: sp = sp + 0x60\n  9686: ret\n      : @179 (gas: 8)\n  9688: a0 = u64 [sp + 0x30]\n  9691: a1 = u64 [sp + 0x38]\n  9694: a2 = u64 [sp + 0x28]\n  9697: a3 = u64 [sp + 0x20]\n  9700: a1 = a1 | a2\n  9703: a0 = a0 | a3\n  9706: a0 = a0 | a1\n  9709: jump @184 if a0 != 0\n      : @180 (gas: 2)\n  9713: a0 = i32 [0x20004]\n  9718: jump @184 if a0 <=u 3\n      : @181 (gas: 24)\n  9723: u64 [sp + 88] = 0\n  9726: u64 [sp + 80] = 0\n  9729: u64 [sp + 72] = 0\n  9732: u64 [sp + 64] = 0x1\n  9736: u64 [sp + 120] = 0\n  9739: u64 [sp + 112] = 0\n  9742: u64 [sp + 104] = 0\n  9745: u64 [sp + 96] = 0\n  9748: u32 [sp + 128] = 0x20\n  9753: i32 a1 = sp + 0x40\n  9756: i32 a3 = sp + 0x60\n  9759: i32 a4 = sp + 0x80\n  9763: a2 = 0xffffffffffffffff\n  9766: a0 = 0\n  9768: ecalli 4 // 'get_storage'\n  9770: a0 = u64 [sp + 0x70]\n  9773: u64 [sp + 0x8] = a0\n  9776: a0 = u64 [sp + 0x68]\n  9779: u64 [sp + 0x10] = a0\n  9782: a0 = u64 [sp + 0x60]\n  9785: u64 [sp + 0x18] = a0\n  9788: a0 = 0x40\n  9791: a1 = 0x20\n  9794: ra = 140, jump @0\n      : @182 [@dyn 70] (gas: 100)\n  9800: a1 = u8 [a0 + 0x11]\n  9803: a2 = u8 [a0 + 0x10]\n  9806: a3 = u8 [a0 + 0x12]\n  9809: a4 = u8 [a0 + 0x13]\n  9812: a1 = a1 << 0x8\n  9815: a1 = a1 | a2\n  9818: a3 = a3 << 0x10\n  9821: a4 = a4 << 0x18\n  9824: a3 = a3 | a4\n  9827: a1 = a1 | a3\n  9830: a2 = u8 [a0 + 0x15]\n  9833: a3 = u8 [a0 + 0x14]\n  9836: a4 = u8 [a0 + 0x16]\n  9839: a5 = u8 [a0 + 0x17]\n  9842: a2 = a2 << 0x8\n  9845: a2 = a2 | a3\n  9848: a4 = a4 << 0x10\n  9851: a5 = a5 << 0x18\n  9854: a4 = a4 | a5\n  9857: a2 = a2 | a4\n  9860: a2 = a2 << 0x20\n  9863: t0 = a2 | a1\n  9866: a2 = u8 [a0 + 0x1]\n  9869: a3 = u8 [a0]\n  9871: a4 = u8 [a0 + 0x2]\n  9874: a5 = u8 [a0 + 0x3]\n  9877: a2 = a2 << 0x8\n  9880: a2 = a2 | a3\n  9883: a4 = a4 << 0x10\n  9886: a5 = a5 << 0x18\n  9889: a4 = a4 | a5\n  9892: a2 = a2 | a4\n  9895: a3 = u8 [a0 + 0x5]\n  9898: a4 = u8 [a0 + 0x4]\n  9901: a5 = u8 [a0 + 0x6]\n  9904: s1 = u8 [a0 + 0x7]\n  9907: a3 = a3 << 0x8\n  9910: a3 = a3 | a4\n  9913: a5 = a5 << 0x10\n  9916: s1 = s1 << 0x18\n  9919: a5 = a5 | s1\n  9922: a3 = a3 | a5\n  9925: a3 = a3 << 0x20\n  9928: a2 = a2 | a3\n  9931: a3 = u8 [a0 + 0x19]\n  9934: a4 = u8 [a0 + 0x18]\n  9937: a5 = u8 [a0 + 0x1a]\n  9940: s1 = u8 [a0 + 0x1b]\n  9943: a3 = a3 << 0x8\n  9946: a3 = a3 | a4\n  9949: a5 = a5 << 0x10\n  9952: s1 = s1 << 0x18\n  9955: a5 = a5 | s1\n  9958: a3 = a3 | a5\n  9961: a4 = u8 [a0 + 0x1d]\n  9964: a5 = u8 [a0 + 0x1c]\n  9967: s1 = u8 [a0 + 0x1e]\n  9970: a1 = u8 [a0 + 0x1f]\n  9973: a4 = a4 << 0x8\n  9976: a4 = a4 | a5\n  9979: s1 = s1 << 0x10\n  9982: a1 = a1 << 0x18\n  9985: a1 = a1 | s1\n  9988: a1 = a1 | a4\n  9991: a1 = a1 << 0x20\n  9994: a3 = a3 | a1\n  9997: a1 = u8 [a0 + 0x9]\n 10000: a4 = u8 [a0 + 0x8]\n 10003: a5 = u8 [a0 + 0xa]\n 10006: s1 = u8 [a0 + 0xb]\n 10009: a1 = a1 << 0x8\n 10012: a1 = a1 | a4\n 10015: a5 = a5 << 0x10\n 10018: s1 = s1 << 0x18\n 10021: a5 = a5 | s1\n 10024: a1 = a1 | a5\n 10027: a4 = u8 [a0 + 0xd]\n 10030: a5 = u8 [a0 + 0xc]\n 10033: s1 = u8 [a0 + 0xe]\n 10036: a0 = u8 [a0 + 0xf]\n 10039: a4 = a4 << 0x8\n 10042: a4 = a4 | a5\n 10045: s1 = s1 << 0x10\n 10048: a0 = a0 << 0x18\n 10051: a0 = a0 | s1\n 10054: a0 = a0 | a4\n 10057: a0 = a0 << 0x20\n 10060: a0 = a0 | a1\n 10063: a1 = reverse a0\n 10065: a0 = reverse a3\n 10067: a2 = reverse a2\n 10069: a3 = reverse t0\n 10071: a2 = a2 | a3\n 10074: a3 = a0 | a1\n 10077: a3 = a3 | a2\n 10080: a3 = a3 >> 0x20\n 10083: a1 = a1 | a2\n 10086: a1 = a1 << 0x20\n 10089: a1 = a1 | a3\n 10092: jump @186 if a1 == 0\n      : @183 (gas: 1)\n 10095: trap\n      : @184 (gas: 3)\n 10096: a0 = 0\n 10098: a1 = 0\n 10100: ra = 142, jump @0\n      : @185 [@dyn 71] (gas: 5)\n 10106: i32 a1 = a0 + 0\n 10108: a0 = 0x1\n 10111: a2 = 0\n 10113: ecalli 6 // 'seal_return'\n 10115: fallthrough\n      : @186 (gas: 7)\n 10116: a1 = u64 [sp + 0x8]\n 10119: a1 = a1 << 0x20\n 10122: s1 = a1 >> 0x20\n 10125: i32 a0 = a0 + 0\n 10127: u64 [sp + 0x8] = a0\n 10130: a1 = 0x20\n 10133: ra = 144, jump @0\n      : @187 [@dyn 72] (gas: 58)\n 10139: a1 = reverse s1\n 10141: a2 = u64 [sp + 0x10]\n 10144: a2 = reverse a2\n 10146: a3 = u64 [sp + 0x18]\n 10149: a3 = reverse a3\n 10151: a4 = a3 >> 0x38\n 10154: u8 [a0 + 0x1f] = a4\n 10157: a4 = a3 >> 0x30\n 10160: u8 [a0 + 0x1e] = a4\n 10163: a4 = a3 >> 0x28\n 10166: u8 [a0 + 0x1d] = a4\n 10169: a4 = a3 >> 0x20\n 10172: u8 [a0 + 0x1c] = a4\n 10175: a4 = a3 >> 0x18\n 10178: u8 [a0 + 0x1b] = a4\n 10181: a4 = a3 >> 0x10\n 10184: u8 [a0 + 0x1a] = a4\n 10187: a4 = a3 >> 0x8\n 10190: u8 [a0 + 0x19] = a4\n 10193: u8 [a0 + 0x18] = a3\n 10196: u8 [a0 + 0x10] = a2\n 10199: u8 [a0 + 11] = 0\n 10202: u8 [a0 + 10] = 0\n 10205: u8 [a0 + 9] = 0\n 10208: u8 [a0 + 7] = 0\n 10211: u8 [a0 + 6] = 0\n 10214: u8 [a0 + 5] = 0\n 10217: u8 [a0 + 4] = 0\n 10220: u8 [a0 + 3] = 0\n 10223: u8 [a0 + 2] = 0\n 10226: u8 [a0 + 1] = 0\n 10229: u8 [a0 + 0] = 0\n 10231: a3 = a2 >> 0x38\n 10234: u8 [a0 + 0x17] = a3\n 10237: a3 = a2 >> 0x30\n 10240: u8 [a0 + 0x16] = a3\n 10243: a3 = a2 >> 0x28\n 10246: u8 [a0 + 0x15] = a3\n 10249: a3 = a2 >> 0x20\n 10252: u8 [a0 + 0x14] = a3\n 10255: a3 = a2 >> 0x18\n 10258: u8 [a0 + 0x13] = a3\n 10261: a3 = a2 >> 0x10\n 10264: u8 [a0 + 0x12] = a3\n 10267: a2 = a2 >> 0x8\n 10270: u8 [a0 + 0x11] = a2\n 10273: u8 [a0 + 0x8] = a1\n 10276: a2 = a1 >> 0x38\n 10279: u8 [a0 + 0xf] = a2\n 10282: a2 = a1 >> 0x30\n 10285: u8 [a0 + 0xe] = a2\n 10288: a2 = a1 >> 0x28\n 10291: u8 [a0 + 0xd] = a2\n 10294: a1 = a1 >> 0x20\n 10297: u8 [a0 + 0xc] = a1\n 10300: a1 = 0x20\n 10303: a0 = u64 [sp + 0x8]\n 10306: ra = 146, jump @0\n      : @188 [@dyn 73] (gas: 6)\n 10312: i32 a1 = a0 + 0\n 10314: a2 = 0x20\n 10317: a0 = 0\n 10319: ra = 0x94\n 10323: ecalli 6 // 'seal_return'\n 10325: fallthrough\n      : @189 [@dyn 74] (gas: 35)\n 10326: sp = sp + 0xffffffffffffffa0\n 10329: u64 [sp + 0x58] = ra\n 10332: u64 [sp + 0x50] = s0\n 10335: u64 [sp + 0x48] = s1\n 10338: s0 = sp + 0x60\n 10341: sp = sp & 0xffffffffffffffe0\n 10344: s1 = a0\n 10346: u64 [sp + 24] = 0\n 10349: u64 [sp + 16] = 0\n 10352: u64 [sp + 8] = 0\n 10355: u64 [sp + 0] = 0x2\n 10358: u64 [sp + 56] = 0\n 10361: u64 [sp + 48] = 0\n 10364: u64 [sp + 40] = 0\n 10367: u64 [sp + 32] = 0\n 10370: u32 [sp + 64] = 0x20\n 10374: i32 a1 = sp + 0\n 10376: i32 a3 = sp + 0x20\n 10379: i32 a4 = sp + 0x40\n 10382: a2 = 0xffffffffffffffff\n 10385: a0 = 0\n 10387: ecalli 4 // 'get_storage'\n 10389: a0 = u32 [sp + 0x30]\n 10392: a1 = u64 [sp + 0x28]\n 10395: a2 = u64 [sp + 0x20]\n 10398: u64 [s1 + 24] = 0\n 10401: u64 [s1 + 0x10] = a0\n 10404: u64 [s1 + 0x8] = a1\n 10407: u64 [s1] = a2\n 10409: sp = s0 + 0xffffffffffffffa0\n 10412: ra = u64 [sp + 0x58]\n 10415: s0 = u64 [sp + 0x50]\n 10418: s1 = u64 [sp + 0x48]\n 10421: sp = sp + 0x60\n 10424: ret\n      : @190 (gas: 8)\n 10426: a0 = u64 [sp + 0x30]\n 10429: a1 = u64 [sp + 0x38]\n 10432: a2 = u64 [sp + 0x28]\n 10435: a3 = u64 [sp + 0x20]\n 10438: a1 = a1 | a2\n 10441: a0 = a0 | a3\n 10444: a0 = a0 | a1\n 10447: jump @195 if a0 != 0\n      : @191 (gas: 2)\n 10451: a0 = i32 [0x20004]\n 10456: jump @195 if a0 <=u 3\n      : @192 (gas: 24)\n 10461: u64 [sp + 88] = 0\n 10464: u64 [sp + 80] = 0\n 10467: u64 [sp + 72] = 0\n 10470: u64 [sp + 64] = 0x2\n 10474: u64 [sp + 120] = 0\n 10477: u64 [sp + 112] = 0\n 10480: u64 [sp + 104] = 0\n 10483: u64 [sp + 96] = 0\n 10486: u32 [sp + 128] = 0x20\n 10491: i32 a1 = sp + 0x40\n 10494: i32 a3 = sp + 0x60\n 10497: i32 a4 = sp + 0x80\n 10501: a2 = 0xffffffffffffffff\n 10504: a0 = 0\n 10506: ecalli 4 // 'get_storage'\n 10508: a0 = u64 [sp + 0x70]\n 10511: u64 [sp + 0x8] = a0\n 10514: a0 = u64 [sp + 0x68]\n 10517: u64 [sp + 0x10] = a0\n 10520: a0 = u64 [sp + 0x60]\n 10523: u64 [sp + 0x18] = a0\n 10526: a0 = 0x40\n 10529: a1 = 0x20\n 10532: ra = 150, jump @0\n      : @193 [@dyn 75] (gas: 100)\n 10538: a1 = u8 [a0 + 0x11]\n 10541: a2 = u8 [a0 + 0x10]\n 10544: a3 = u8 [a0 + 0x12]\n 10547: a4 = u8 [a0 + 0x13]\n 10550: a1 = a1 << 0x8\n 10553: a1 = a1 | a2\n 10556: a3 = a3 << 0x10\n 10559: a4 = a4 << 0x18\n 10562: a3 = a3 | a4\n 10565: a1 = a1 | a3\n 10568: a2 = u8 [a0 + 0x15]\n 10571: a3 = u8 [a0 + 0x14]\n 10574: a4 = u8 [a0 + 0x16]\n 10577: a5 = u8 [a0 + 0x17]\n 10580: a2 = a2 << 0x8\n 10583: a2 = a2 | a3\n 10586: a4 = a4 << 0x10\n 10589: a5 = a5 << 0x18\n 10592: a4 = a4 | a5\n 10595: a2 = a2 | a4\n 10598: a2 = a2 << 0x20\n 10601: t0 = a2 | a1\n 10604: a2 = u8 [a0 + 0x1]\n 10607: a3 = u8 [a0]\n 10609: a4 = u8 [a0 + 0x2]\n 10612: a5 = u8 [a0 + 0x3]\n 10615: a2 = a2 << 0x8\n 10618: a2 = a2 | a3\n 10621: a4 = a4 << 0x10\n 10624: a5 = a5 << 0x18\n 10627: a4 = a4 | a5\n 10630: a2 = a2 | a4\n 10633: a3 = u8 [a0 + 0x5]\n 10636: a4 = u8 [a0 + 0x4]\n 10639: a5 = u8 [a0 + 0x6]\n 10642: s1 = u8 [a0 + 0x7]\n 10645: a3 = a3 << 0x8\n 10648: a3 = a3 | a4\n 10651: a5 = a5 << 0x10\n 10654: s1 = s1 << 0x18\n 10657: a5 = a5 | s1\n 10660: a3 = a3 | a5\n 10663: a3 = a3 << 0x20\n 10666: a2 = a2 | a3\n 10669: a3 = u8 [a0 + 0x19]\n 10672: a4 = u8 [a0 + 0x18]\n 10675: a5 = u8 [a0 + 0x1a]\n 10678: s1 = u8 [a0 + 0x1b]\n 10681: a3 = a3 << 0x8\n 10684: a3 = a3 | a4\n 10687: a5 = a5 << 0x10\n 10690: s1 = s1 << 0x18\n 10693: a5 = a5 | s1\n 10696: a3 = a3 | a5\n 10699: a4 = u8 [a0 + 0x1d]\n 10702: a5 = u8 [a0 + 0x1c]\n 10705: s1 = u8 [a0 + 0x1e]\n 10708: a1 = u8 [a0 + 0x1f]\n 10711: a4 = a4 << 0x8\n 10714: a4 = a4 | a5\n 10717: s1 = s1 << 0x10\n 10720: a1 = a1 << 0x18\n 10723: a1 = a1 | s1\n 10726: a1 = a1 | a4\n 10729: a1 = a1 << 0x20\n 10732: a3 = a3 | a1\n 10735: a1 = u8 [a0 + 0x9]\n 10738: a4 = u8 [a0 + 0x8]\n 10741: a5 = u8 [a0 + 0xa]\n 10744: s1 = u8 [a0 + 0xb]\n 10747: a1 = a1 << 0x8\n 10750: a1 = a1 | a4\n 10753: a5 = a5 << 0x10\n 10756: s1 = s1 << 0x18\n 10759: a5 = a5 | s1\n 10762: a1 = a1 | a5\n 10765: a4 = u8 [a0 + 0xd]\n 10768: a5 = u8 [a0 + 0xc]\n 10771: s1 = u8 [a0 + 0xe]\n 10774: a0 = u8 [a0 + 0xf]\n 10777: a4 = a4 << 0x8\n 10780: a4 = a4 | a5\n 10783: s1 = s1 << 0x10\n 10786: a0 = a0 << 0x18\n 10789: a0 = a0 | s1\n 10792: a0 = a0 | a4\n 10795: a0 = a0 << 0x20\n 10798: a0 = a0 | a1\n 10801: a1 = reverse a0\n 10803: a0 = reverse a3\n 10805: a2 = reverse a2\n 10807: a3 = reverse t0\n 10809: a2 = a2 | a3\n 10812: a3 = a0 | a1\n 10815: a3 = a3 | a2\n 10818: a3 = a3 >> 0x20\n 10821: a1 = a1 | a2\n 10824: a1 = a1 << 0x20\n 10827: a1 = a1 | a3\n 10830: jump @197 if a1 == 0\n      : @194 (gas: 1)\n 10833: trap\n      : @195 (gas: 3)\n 10834: a0 = 0\n 10836: a1 = 0\n 10838: ra = 152, jump @0\n      : @196 [@dyn 76] (gas: 5)\n 10844: i32 a1 = a0 + 0\n 10846: a0 = 0x1\n 10849: a2 = 0\n 10851: ecalli 6 // 'seal_return'\n 10853: fallthrough\n      : @197 (gas: 7)\n 10854: a1 = u64 [sp + 0x8]\n 10857: a1 = a1 << 0x20\n 10860: s1 = a1 >> 0x20\n 10863: i32 a0 = a0 + 0\n 10865: u64 [sp + 0x8] = a0\n 10868: a1 = 0x20\n 10871: ra = 154, jump @0\n      : @198 [@dyn 77] (gas: 58)\n 10877: a1 = reverse s1\n 10879: a2 = u64 [sp + 0x10]\n 10882: a2 = reverse a2\n 10884: a3 = u64 [sp + 0x18]\n 10887: a3 = reverse a3\n 10889: a4 = a3 >> 0x38\n 10892: u8 [a0 + 0x1f] = a4\n 10895: a4 = a3 >> 0x30\n 10898: u8 [a0 + 0x1e] = a4\n 10901: a4 = a3 >> 0x28\n 10904: u8 [a0 + 0x1d] = a4\n 10907: a4 = a3 >> 0x20\n 10910: u8 [a0 + 0x1c] = a4\n 10913: a4 = a3 >> 0x18\n 10916: u8 [a0 + 0x1b] = a4\n 10919: a4 = a3 >> 0x10\n 10922: u8 [a0 + 0x1a] = a4\n 10925: a4 = a3 >> 0x8\n 10928: u8 [a0 + 0x19] = a4\n 10931: u8 [a0 + 0x18] = a3\n 10934: u8 [a0 + 0x10] = a2\n 10937: u8 [a0 + 11] = 0\n 10940: u8 [a0 + 10] = 0\n 10943: u8 [a0 + 9] = 0\n 10946: u8 [a0 + 7] = 0\n 10949: u8 [a0 + 6] = 0\n 10952: u8 [a0 + 5] = 0\n 10955: u8 [a0 + 4] = 0\n 10958: u8 [a0 + 3] = 0\n 10961: u8 [a0 + 2] = 0\n 10964: u8 [a0 + 1] = 0\n 10967: u8 [a0 + 0] = 0\n 10969: a3 = a2 >> 0x38\n 10972: u8 [a0 + 0x17] = a3\n 10975: a3 = a2 >> 0x30\n 10978: u8 [a0 + 0x16] = a3\n 10981: a3 = a2 >> 0x28\n 10984: u8 [a0 + 0x15] = a3\n 10987: a3 = a2 >> 0x20\n 10990: u8 [a0 + 0x14] = a3\n 10993: a3 = a2 >> 0x18\n 10996: u8 [a0 + 0x13] = a3\n 10999: a3 = a2 >> 0x10\n 11002: u8 [a0 + 0x12] = a3\n 11005: a2 = a2 >> 0x8\n 11008: u8 [a0 + 0x11] = a2\n 11011: u8 [a0 + 0x8] = a1\n 11014: a2 = a1 >> 0x38\n 11017: u8 [a0 + 0xf] = a2\n 11020: a2 = a1 >> 0x30\n 11023: u8 [a0 + 0xe] = a2\n 11026: a2 = a1 >> 0x28\n 11029: u8 [a0 + 0xd] = a2\n 11032: a1 = a1 >> 0x20\n 11035: u8 [a0 + 0xc] = a1\n 11038: a1 = 0x20\n 11041: a0 = u64 [sp + 0x8]\n 11044: ra = 156, jump @0\n      : @199 [@dyn 78] (gas: 6)\n 11050: i32 a1 = a0 + 0\n 11052: a2 = 0x20\n 11055: a0 = 0\n 11057: ra = 0x9e\n 11061: ecalli 6 // 'seal_return'\n 11063: fallthrough\n      : @200 [@dyn 79] (gas: 12)\n 11064: sp = sp + 0xffffffffffffff00\n 11068: u64 [sp + 0xf8] = ra\n 11072: u64 [sp + 0xf0] = s0\n 11076: s0 = sp + 0x100\n 11080: sp = sp & 0xffffffffffffffe0\n 11083: u64 [sp + 216] = 0\n 11087: u64 [sp + 208] = 0\n 11091: u64 [sp + 200] = 0\n 11095: u64 [sp + 192] = 0\n 11099: i32 a0 = sp + 0xc0\n 11103: ecalli 9 // 'value_transferred'\n 11105: fallthrough\n      : @201 (gas: 8)\n 11106: a0 = u64 [sp + 0xd0]\n 11110: a1 = u64 [sp + 0xd8]\n 11114: a2 = u64 [sp + 0xc8]\n 11118: a3 = u64 [sp + 0xc0]\n 11122: a1 = a1 | a2\n 11125: a0 = a0 | a3\n 11128: a0 = a0 | a1\n 11131: jump @207 if a0 != 0\n      : @202 (gas: 13)\n 11135: a0 = u32 [0x20004]\n 11140: u64 [sp + 88] = 0\n 11143: u64 [sp + 80] = 0\n 11146: u64 [sp + 72] = 0\n 11149: u64 [sp + 0x40] = a0\n 11152: u64 [sp + 120] = 0\n 11155: u64 [sp + 112] = 0\n 11158: u64 [sp + 96] = 0x4\n 11162: a0 = sp + 0x80\n 11166: a1 = sp + 0x60\n 11169: a2 = sp + 0x40\n 11172: u64 [sp + 104] = 0\n 11175: ra = 160, jump @77\n      : @203 [@dyn 80] (gas: 19)\n 11181: t0 = u64 [sp + 0x80]\n 11185: t1 = u64 [sp + 0x88]\n 11189: a1 = u64 [sp + 0x90]\n 11193: a3 = u64 [sp + 0x98]\n 11197: a4 = u64 [sp + 0xa0]\n 11201: a5 = u64 [sp + 0xa8]\n 11205: a2 = u64 [sp + 0xb0]\n 11209: a0 = u64 [sp + 0xb8]\n 11213: u64 [sp + 0x18] = a0\n 11216: u64 [sp + 0x10] = a2\n 11219: u64 [sp + 0x8] = a5\n 11222: u64 [sp] = a4\n 11224: u64 [sp + 0x38] = a3\n 11227: u64 [sp + 0x30] = a1\n 11230: u64 [sp + 0x28] = t1\n 11233: a0 = sp + 0x20\n 11236: a1 = sp\n 11238: u64 [sp + 0x20] = t0\n 11241: ra = 162, jump @356\n      : @204 [@dyn 81] (gas: 3)\n 11247: a0 = 0x40\n 11250: a1 = 0x20\n 11253: ra = 164, jump @0\n      : @205 [@dyn 82] (gas: 100)\n 11259: a1 = u8 [a0 + 0x11]\n 11262: a2 = u8 [a0 + 0x10]\n 11265: a3 = u8 [a0 + 0x12]\n 11268: a4 = u8 [a0 + 0x13]\n 11271: a1 = a1 << 0x8\n 11274: a1 = a1 | a2\n 11277: a3 = a3 << 0x10\n 11280: a4 = a4 << 0x18\n 11283: a3 = a3 | a4\n 11286: a1 = a1 | a3\n 11289: a2 = u8 [a0 + 0x15]\n 11292: a3 = u8 [a0 + 0x14]\n 11295: a4 = u8 [a0 + 0x16]\n 11298: a5 = u8 [a0 + 0x17]\n 11301: a2 = a2 << 0x8\n 11304: a2 = a2 | a3\n 11307: a4 = a4 << 0x10\n 11310: a5 = a5 << 0x18\n 11313: a4 = a4 | a5\n 11316: a2 = a2 | a4\n 11319: a2 = a2 << 0x20\n 11322: t0 = a2 | a1\n 11325: a2 = u8 [a0 + 0x1]\n 11328: a3 = u8 [a0]\n 11330: a4 = u8 [a0 + 0x2]\n 11333: a5 = u8 [a0 + 0x3]\n 11336: a2 = a2 << 0x8\n 11339: a2 = a2 | a3\n 11342: a4 = a4 << 0x10\n 11345: a5 = a5 << 0x18\n 11348: a4 = a4 | a5\n 11351: a2 = a2 | a4\n 11354: a3 = u8 [a0 + 0x5]\n 11357: a4 = u8 [a0 + 0x4]\n 11360: a5 = u8 [a0 + 0x6]\n 11363: a1 = u8 [a0 + 0x7]\n 11366: a3 = a3 << 0x8\n 11369: a3 = a3 | a4\n 11372: a5 = a5 << 0x10\n 11375: a1 = a1 << 0x18\n 11378: a1 = a1 | a5\n 11381: a1 = a1 | a3\n 11384: a1 = a1 << 0x20\n 11387: t1 = a1 | a2\n 11390: a1 = u8 [a0 + 0x19]\n 11393: a3 = u8 [a0 + 0x18]\n 11396: a4 = u8 [a0 + 0x1a]\n 11399: a5 = u8 [a0 + 0x1b]\n 11402: a1 = a1 << 0x8\n 11405: a1 = a1 | a3\n 11408: a4 = a4 << 0x10\n 11411: a5 = a5 << 0x18\n 11414: a4 = a4 | a5\n 11417: a1 = a1 | a4\n 11420: a3 = u8 [a0 + 0x1d]\n 11423: a4 = u8 [a0 + 0x1c]\n 11426: a5 = u8 [a0 + 0x1e]\n 11429: a2 = u8 [a0 + 0x1f]\n 11432: a3 = a3 << 0x8\n 11435: a3 = a3 | a4\n 11438: a5 = a5 << 0x10\n 11441: a2 = a2 << 0x18\n 11444: a2 = a2 | a5\n 11447: a2 = a2 | a3\n 11450: a2 = a2 << 0x20\n 11453: a3 = a2 | a1\n 11456: a1 = u8 [a0 + 0x9]\n 11459: a2 = u8 [a0 + 0x8]\n 11462: a4 = u8 [a0 + 0xa]\n 11465: a5 = u8 [a0 + 0xb]\n 11468: a1 = a1 << 0x8\n 11471: a1 = a1 | a2\n 11474: a4 = a4 << 0x10\n 11477: a5 = a5 << 0x18\n 11480: a4 = a4 | a5\n 11483: a1 = a1 | a4\n 11486: a2 = u8 [a0 + 0xd]\n 11489: a4 = u8 [a0 + 0xc]\n 11492: a5 = u8 [a0 + 0xe]\n 11495: a0 = u8 [a0 + 0xf]\n 11498: a2 = a2 << 0x8\n 11501: a2 = a2 | a4\n 11504: a5 = a5 << 0x10\n 11507: a0 = a0 << 0x18\n 11510: a0 = a0 | a5\n 11513: a0 = a0 | a2\n 11516: a0 = a0 << 0x20\n 11519: a0 = a0 | a1\n 11522: a1 = reverse a0\n 11524: a0 = reverse a3\n 11526: a2 = reverse t1\n 11528: a3 = reverse t0\n 11530: a2 = a2 | a3\n 11533: a3 = a0 | a1\n 11536: a3 = a3 | a2\n 11539: a3 = a3 >> 0x20\n 11542: a1 = a1 | a2\n 11545: a1 = a1 << 0x20\n 11548: a1 = a1 | a3\n 11551: jump @209 if a1 == 0\n      : @206 (gas: 1)\n 11554: trap\n      : @207 (gas: 3)\n 11555: a0 = 0\n 11557: a1 = 0\n 11559: ra = 166, jump @0\n      : @208 [@dyn 83] (gas: 7)\n 11565: i32 a1 = a0 + 0\n 11567: a0 = 0x1\n 11570: a2 = 0\n 11572: ecalli 6 // 'seal_return'\n 11574: i32 a0 = a0 + 0\n 11576: ra = 0xa8\n 11580: jump @0\n      : @209 (gas: 2)\n 11583: i32 a0 = a0 + 0\n 11585: ra = 168, jump @0\n      : @210 [@dyn 84] (gas: 6)\n 11591: i32 a1 = a0 + 0\n 11593: a0 = 0\n 11595: a2 = 0\n 11597: ra = 0xaa\n 11601: ecalli 6 // 'seal_return'\n 11603: fallthrough\n      : @211 [@dyn 85] (gas: 5)\n 11604: sp = sp + 0xfffffffffffffff8\n 11607: u64 [sp] = ra\n 11609: a0 = 0\n 11611: a1 = 0\n 11613: ra = 172, jump @0\n      : @212 [@dyn 86] (gas: 6)\n 11619: i32 a1 = a0 + 0\n 11621: a0 = 0x1\n 11624: a2 = 0\n 11626: ra = 0xae\n 11630: ecalli 6 // 'seal_return'\n 11632: fallthrough\n      : @213 [@dyn 87] (gas: 5)\n 11633: u64 [a0 + 24] = 0\n 11636: u64 [a0 + 16] = 0\n 11639: u64 [a0 + 8] = 0\n 11642: u64 [a0 + 0] = 0\n 11644: ret\n      : @214 [@dyn 88] (gas: 58)\n 11646: a1 = reverse s1\n 11648: a2 = u64 [sp + 0x8]\n 11651: a2 = reverse a2\n 11653: a3 = u64 [sp + 0x10]\n 11656: a3 = reverse a3\n 11658: a4 = a3 >> 0x38\n 11661: u8 [a0 + 0x1f] = a4\n 11664: a4 = a3 >> 0x30\n 11667: u8 [a0 + 0x1e] = a4\n 11670: a4 = a3 >> 0x28\n 11673: u8 [a0 + 0x1d] = a4\n 11676: a4 = a3 >> 0x20\n 11679: u8 [a0 + 0x1c] = a4\n 11682: a4 = a3 >> 0x18\n 11685: u8 [a0 + 0x1b] = a4\n 11688: a4 = a3 >> 0x10\n 11691: u8 [a0 + 0x1a] = a4\n 11694: a4 = a3 >> 0x8\n 11697: u8 [a0 + 0x19] = a4\n 11700: u8 [a0 + 0x18] = a3\n 11703: a3 = a2 >> 0x38\n 11706: u8 [a0 + 0x17] = a3\n 11709: a3 = a2 >> 0x30\n 11712: u8 [a0 + 0x16] = a3\n 11715: a3 = a2 >> 0x28\n 11718: u8 [a0 + 0x15] = a3\n 11721: a3 = a2 >> 0x20\n 11724: u8 [a0 + 0x14] = a3\n 11727: a3 = a2 >> 0x18\n 11730: u8 [a0 + 0x13] = a3\n 11733: a3 = a2 >> 0x10\n 11736: u8 [a0 + 0x12] = a3\n 11739: a3 = a2 >> 0x8\n 11742: u8 [a0 + 0x11] = a3\n 11745: u8 [a0 + 0x10] = a2\n 11748: a2 = a1 >> 0x38\n 11751: u8 [a0 + 0xf] = a2\n 11754: a2 = a1 >> 0x30\n 11757: u8 [a0 + 0xe] = a2\n 11760: a2 = a1 >> 0x28\n 11763: u8 [a0 + 0xd] = a2\n 11766: a2 = a1 >> 0x20\n 11769: u8 [a0 + 0xc] = a2\n 11772: u8 [a0 + 11] = 0\n 11775: u8 [a0 + 10] = 0\n 11778: u8 [a0 + 9] = 0\n 11781: u8 [a0 + 0x8] = a1\n 11784: u8 [a0 + 7] = 0\n 11787: u8 [a0 + 6] = 0\n 11790: u8 [a0 + 5] = 0\n 11793: u8 [a0 + 4] = 0\n 11796: u8 [a0 + 3] = 0\n 11799: u8 [a0 + 2] = 0\n 11802: u8 [a0 + 1] = 0\n 11805: u8 [a0 + 0] = 0\n 11807: a0 = 0x20\n 11810: a1 = 0x20\n 11813: ra = 178, jump @0\n      : @215 [@dyn 89] (gas: 35)\n 11819: u8 [a0 + 31] = 0\n 11822: u8 [a0 + 30] = 0\n 11825: u8 [a0 + 29] = 0\n 11828: u8 [a0 + 28] = 0\n 11831: u8 [a0 + 27] = 0\n 11834: u8 [a0 + 26] = 0\n 11837: u8 [a0 + 25] = 0\n 11840: u8 [a0 + 24] = 0\n 11843: u8 [a0 + 23] = 0\n 11846: u8 [a0 + 22] = 0\n 11849: u8 [a0 + 21] = 0\n 11852: u8 [a0 + 20] = 0\n 11855: u8 [a0 + 19] = 0\n 11858: u8 [a0 + 18] = 0\n 11861: u8 [a0 + 17] = 0\n 11864: u8 [a0 + 16] = 0\n 11867: u8 [a0 + 15] = 0\n 11870: u8 [a0 + 14] = 0\n 11873: u8 [a0 + 13] = 0\n 11876: u8 [a0 + 12] = 0\n 11879: u8 [a0 + 11] = 0\n 11882: u8 [a0 + 10] = 0\n 11885: u8 [a0 + 9] = 0\n 11888: u8 [a0 + 8] = 0\n 11891: u8 [a0 + 7] = 0\n 11894: u8 [a0 + 6] = 0\n 11897: u8 [a0 + 5] = 0\n 11900: u8 [a0 + 4] = 0\n 11903: u8 [a0 + 3] = 0\n 11906: u8 [a0 + 2] = 0\n 11909: u8 [a0 + 1] = 0\n 11912: u8 [a0 + 0] = 0\n 11914: a1 = 0x40\n 11917: a0 = 0\n 11919: ra = 180, jump @0\n      : @216 [@dyn 90] (gas: 5)\n 11925: i32 a0 = a0 + 0\n 11927: i32 a2 = sp + 0xc0\n 11931: a1 = 0x40\n 11934: ecalli 5 // 'hash_keccak_256'\n 11936: fallthrough\n      : @217 (gas: 9)\n 11937: a4 = u64 [sp + 0x30]\n 11940: a5 = u64 [sp + 0x28]\n 11943: t1 = u64 [sp + 0x18]\n 11946: t0 = u64 [sp + 0x20]\n 11949: a0 = t1 | t0\n 11952: a1 = a5 <u 0x11\n 11955: a1 = 0 if a4 != 0\n 11957: a1 = 0 if a0 != 0\n 11959: jump @219 if a1 == 0\n      : @218 (gas: 68)\n 11963: a0 = u64 [sp + 0xc0]\n 11967: a1 = u64 [sp + 0xc8]\n 11971: a2 = u64 [sp + 0xd8]\n 11975: a3 = u64 [sp + 0xd0]\n 11979: a0 = reverse a0\n 11981: a1 = reverse a1\n 11983: a2 = reverse a2\n 11985: a3 = reverse a3\n 11987: a4 = a4 + a3\n 11990: a5 = a5 + a2\n 11993: a2 = a5 <u a2\n 11996: a4 = a4 + a2\n 11999: s1 = a4 ^ a3\n 12002: a3 = a4 <u a3\n 12005: a3 = a2 if s1 == 0\n 12008: a2 = a1 + t1\n 12011: a3 = a3 + a2\n 12014: s1 = a3 <u a2\n 12017: a1 = a2 <u a1\n 12020: a0 = a0 + t0\n 12023: a0 = a0 + a1\n 12026: a0 = a0 + s1\n 12029: u64 [sp + 0xa0] = a5\n 12033: u64 [sp + 0xa8] = a4\n 12037: u64 [sp + 0xb0] = a3\n 12041: u64 [sp + 0xb8] = a0\n 12045: u64 [sp + 216] = 0\n 12049: u64 [sp + 208] = 0\n 12053: u64 [sp + 200] = 0\n 12057: u64 [sp + 192] = 0\n 12061: u32 [sp + 224] = 0x20\n 12066: i32 a1 = sp + 0xa0\n 12070: i32 a3 = sp + 0xc0\n 12074: i32 a4 = sp + 0xe0\n 12078: a2 = 0xffffffffffffffff\n 12081: a0 = 0\n 12083: ecalli 4 // 'get_storage'\n 12085: a0 = u64 [sp + 0xd8]\n 12089: t0 = u64 [sp + 0xc0]\n 12093: a2 = u64 [sp + 0xd0]\n 12097: a3 = u64 [sp + 0xc8]\n 12101: a1 = u64 [sp + 0x38]\n 12104: a4 = a0 ^ a1\n 12107: s1 = a0 <u a1\n 12110: a0 = u64 [sp + 0x58]\n 12113: a5 = a2 <u a0\n 12116: a5 = s1 if a4 != 0\n 12119: a1 = u64 [sp + 0x40]\n 12122: s1 = a3 ^ a1\n 12125: a3 = a3 <u a1\n 12128: a1 = u64 [sp + 0x48]\n 12131: a1 = t0 <u a1\n 12134: a1 = a3 if s1 != 0\n 12137: a0 = a0 ^ a2\n 12140: a0 = a0 | a4\n 12143: a1 = a5 if a0 != 0\n 12146: a0 = a1 ^ 0x1\n 12149: a1 = u64 [sp + 0x50]\n 12152: u64 [a1 + 24] = 0\n 12155: u64 [a1 + 16] = 0\n 12158: u64 [a1 + 8] = 0\n 12161: u64 [a1] = a0\n 12163: sp = s0 + 0xffffffffffffff00\n 12167: ra = u64 [sp + 0xf8]\n 12171: s0 = u64 [sp + 0xf0]\n 12175: s1 = u64 [sp + 0xe8]\n 12179: sp = sp + 0x100\n 12183: ret\n      : @219 (gas: 8)\n 12185: u64 [sp + 144] = 0\n 12189: u64 [sp + 136] = 0\n 12193: u64 [sp + 128] = 0\n 12197: a0 = 0x4e487b7100000000\n 12207: a1 = sp + 0x80\n 12211: u64 [sp + 0x98] = a0\n 12215: a0 = 0\n 12217: ra = 182, jump @8\n      : @220 [@dyn 91] (gas: 7)\n 12223: u64 [sp + 120] = 0\n 12226: u64 [sp + 112] = 0\n 12229: u64 [sp + 96] = 0x32\n 12233: a0 = 0x4\n 12236: a1 = sp + 0x60\n 12239: u64 [sp + 104] = 0\n 12242: ra = 184, jump @8\n      : @221 [@dyn 92] (gas: 3)\n 12248: a1 = 0x24\n 12251: a0 = 0\n 12253: ra = 186, jump @0\n      : @222 [@dyn 93] (gas: 6)\n 12259: i32 a1 = a0 + 0\n 12261: a0 = 0x1\n 12264: a2 = 0x24\n 12267: ra = 0xbc\n 12271: ecalli 6 // 'seal_return'\n 12273: fallthrough\n      : @223 [@dyn 94] (gas: 9)\n 12274: a2 = u64 [a1 + 0x18]\n 12277: a3 = u64 [a1 + 0x10]\n 12280: a4 = u64 [a1 + 0x8]\n 12283: a1 = u64 [a1]\n 12285: u64 [a0 + 0x18] = a2\n 12288: u64 [a0 + 0x10] = a3\n 12291: u64 [a0 + 0x8] = a4\n 12294: u64 [a0] = a1\n 12296: ret\n      : @224 (gas: 17)\n 12298: sp = sp + 0xffffffffffffffa0\n 12301: u64 [sp + 0x58] = ra\n 12304: u64 [sp + 0x50] = s0\n 12307: u64 [sp + 0x48] = s1\n 12310: a3 = u64 [a1 + 0x18]\n 12313: a4 = u64 [a1 + 0x10]\n 12316: a5 = u64 [a1 + 0x8]\n 12319: s1 = u64 [a1]\n 12321: a1 = a5 | a3\n 12324: a2 = s1 | a4\n 12327: a2 = a2 | a1\n 12330: a2 = a2 >> 0x20\n 12333: a1 = a1 | a4\n 12336: a1 = a1 << 0x20\n 12339: a1 = a1 | a2\n 12342: u64 [sp + 0x28] = a0\n 12345: jump @231 if a1 != 0\n      : @225 (gas: 19)\n 12349: a0 = s1 + 0x20\n 12352: u64 [sp + 0x30] = a0\n 12355: a0 = a0 <u s1\n 12358: a1 = a5 + a0\n 12361: u64 [sp + 0x40] = a1\n 12364: u64 [sp + 0x8] = a5\n 12367: s0 = a1 <u a5\n 12370: s0 = a0 if a0 == 0\n 12373: s0 = s0 + a4\n 12376: u64 [sp + 0x10] = a4\n 12379: a0 = s0 <u a4\n 12382: u64 [sp + 0x18] = a3\n 12385: a0 = a0 + a3\n 12388: u64 [sp + 0x38] = a0\n 12391: u64 [sp] = s1\n 12393: i32 a0 = s1 + 0\n 12395: a1 = 0x20\n 12398: s1 = 0x20\n 12401: ra = 190, jump @0\n      : @226 [@dyn 95] (gas: 45)\n 12407: u8 [a0 + 0x1f] = s1\n 12410: a1 = u64 [sp + 0x30]\n 12413: s1 = a1\n 12415: a1 = a1 | s0\n 12418: a2 = u64 [sp + 0x40]\n 12421: a4 = u64 [sp + 0x38]\n 12424: a2 = a2 | a4\n 12427: a1 = a1 | a2\n 12430: a1 = a1 >> 0x20\n 12433: u64 [sp + 0x20] = s0\n 12436: a2 = a2 | s0\n 12439: a2 = a2 << 0x20\n 12442: a1 = a1 | a2\n 12445: u8 [a0 + 30] = 0\n 12448: u8 [a0 + 29] = 0\n 12451: u8 [a0 + 28] = 0\n 12454: u8 [a0 + 27] = 0\n 12457: u8 [a0 + 26] = 0\n 12460: u8 [a0 + 25] = 0\n 12463: u8 [a0 + 24] = 0\n 12466: u8 [a0 + 23] = 0\n 12469: u8 [a0 + 22] = 0\n 12472: u8 [a0 + 21] = 0\n 12475: u8 [a0 + 20] = 0\n 12478: u8 [a0 + 19] = 0\n 12481: u8 [a0 + 18] = 0\n 12484: u8 [a0 + 17] = 0\n 12487: u8 [a0 + 16] = 0\n 12490: u8 [a0 + 15] = 0\n 12493: u8 [a0 + 14] = 0\n 12496: u8 [a0 + 13] = 0\n 12499: u8 [a0 + 12] = 0\n 12502: u8 [a0 + 11] = 0\n 12505: u8 [a0 + 10] = 0\n 12508: u8 [a0 + 9] = 0\n 12511: u8 [a0 + 8] = 0\n 12514: u8 [a0 + 7] = 0\n 12517: u8 [a0 + 6] = 0\n 12520: u8 [a0 + 5] = 0\n 12523: u8 [a0 + 4] = 0\n 12526: u8 [a0 + 3] = 0\n 12529: u8 [a0 + 2] = 0\n 12532: u8 [a0 + 1] = 0\n 12535: u8 [a0 + 0] = 0\n 12537: jump @231 if a1 != 0\n      : @227 (gas: 4)\n 12541: i32 s0 = s1 + 0\n 12543: a1 = 0x20\n 12546: a0 = s0\n 12548: ra = 192, jump @0\n      : @228 [@dyn 96] (gas: 41)\n 12554: u8 [a0 + 31] = 0x9\n 12558: u8 [a0 + 30] = 0\n 12561: u8 [a0 + 29] = 0\n 12564: u8 [a0 + 28] = 0\n 12567: u8 [a0 + 27] = 0\n 12570: u8 [a0 + 26] = 0\n 12573: u8 [a0 + 25] = 0\n 12576: u8 [a0 + 24] = 0\n 12579: u8 [a0 + 23] = 0\n 12582: u8 [a0 + 22] = 0\n 12585: u8 [a0 + 21] = 0\n 12588: u8 [a0 + 20] = 0\n 12591: u8 [a0 + 19] = 0\n 12594: u8 [a0 + 18] = 0\n 12597: u8 [a0 + 17] = 0\n 12600: u8 [a0 + 16] = 0\n 12603: u8 [a0 + 15] = 0\n 12606: u8 [a0 + 14] = 0\n 12609: u8 [a0 + 13] = 0\n 12612: u8 [a0 + 12] = 0\n 12615: u8 [a0 + 11] = 0\n 12618: u8 [a0 + 10] = 0\n 12621: u8 [a0 + 9] = 0\n 12624: u8 [a0 + 8] = 0\n 12627: u8 [a0 + 7] = 0\n 12630: u8 [a0 + 6] = 0\n 12633: u8 [a0 + 5] = 0\n 12636: u8 [a0 + 4] = 0\n 12639: u8 [a0 + 3] = 0\n 12642: u8 [a0 + 2] = 0\n 12645: u8 [a0 + 1] = 0\n 12648: a1 = u64 [sp + 0x20]\n 12651: a2 = u64 [sp + 0x38]\n 12654: a1 = a1 | a2\n 12657: a2 = 0xffffffe0\n 12667: a2 = s1 <u a2\n 12670: a3 = u64 [sp + 0x40]\n 12673: a2 = 0 if a3 != 0\n 12675: a2 = 0 if a1 != 0\n 12677: u8 [a0 + 0] = 0\n 12679: jump @231 if a2 == 0\n      : @229 (gas: 3)\n 12683: i32 a0 = s0 + 0x20\n 12686: a1 = 0x20\n 12689: ra = 194, jump @0\n      : @230 [@dyn 97] (gas: 54)\n 12695: u8 [a0 + 31] = 0\n 12698: u8 [a0 + 30] = 0\n 12701: u8 [a0 + 29] = 0\n 12704: u8 [a0 + 28] = 0\n 12707: u8 [a0 + 27] = 0\n 12710: u8 [a0 + 26] = 0\n 12713: u8 [a0 + 25] = 0\n 12716: u8 [a0 + 24] = 0\n 12719: u8 [a0 + 23] = 0\n 12722: u8 [a0 + 22] = 0\n 12725: u8 [a0 + 21] = 0\n 12728: u8 [a0 + 20] = 0\n 12731: u8 [a0 + 19] = 0\n 12734: u8 [a0 + 18] = 0\n 12737: u8 [a0 + 17] = 0\n 12740: u8 [a0 + 16] = 0\n 12743: u8 [a0 + 15] = 0\n 12746: u8 [a0 + 14] = 0\n 12749: u8 [a0 + 13] = 0\n 12752: u8 [a0 + 12] = 0\n 12755: u8 [a0 + 11] = 0\n 12758: u8 [a0 + 10] = 0\n 12761: u8 [a0 + 9] = 0\n 12764: u8 [a0 + 8] = 0x72\n 12768: u8 [a0 + 7] = 0x65\n 12772: u8 [a0 + 6] = 0x6e\n 12776: u8 [a0 + 5] = 0x77\n 12780: u8 [a0 + 4] = 0x6f\n 12784: u8 [a0 + 3] = 0x20\n 12788: u8 [a0 + 2] = 0x74\n 12792: u8 [a0 + 1] = 0x6f\n 12796: u8 [a0 + 0] = 0x4e\n 12799: a1 = u64 [sp]\n 12801: a0 = a1 + 0x60\n 12804: a1 = a0 <u a1\n 12807: a3 = u64 [sp + 0x8]\n 12810: a2 = a3 + a1\n 12813: a3 = a2 <u a3\n 12816: a3 = a1 if a1 == 0\n 12819: a1 = u64 [sp + 0x10]\n 12822: a3 = a3 + a1\n 12825: a1 = a3 <u a1\n 12828: a4 = u64 [sp + 0x18]\n 12831: a1 = a1 + a4\n 12834: a4 = u64 [sp + 0x28]\n 12837: u64 [a4] = a0\n 12839: u64 [a4 + 0x8] = a2\n 12842: u64 [a4 + 0x10] = a3\n 12845: u64 [a4 + 0x18] = a1\n 12848: ra = u64 [sp + 0x58]\n 12851: s0 = u64 [sp + 0x50]\n 12854: s1 = u64 [sp + 0x48]\n 12857: sp = sp + 0x60\n 12860: ret\n      : @231 (gas: 1)\n 12862: trap\n      : @232 (gas: 11)\n 12863: a0 = u32 [sp + 0xf0]\n 12867: a1 = u64 [sp + 0xe0]\n 12871: a2 = u64 [sp + 0xe8]\n 12875: a0 = a0 ^ s1\n 12878: a3 = u64 [sp + 0x30]\n 12881: a1 = a1 ^ a3\n 12884: a0 = a0 | a1\n 12887: a1 = u64 [sp + 0x38]\n 12890: a1 = a1 ^ a2\n 12893: a0 = a0 | a1\n 12896: jump @234 if a0 != 0\n      : @233 (gas: 44)\n 12900: s1 = u64 [sp + 0x18]\n 12903: s1 = s1 << 0x20\n 12906: s1 = s1 >> 0x20\n 12909: u64 [sp + 216] = 0\n 12913: u64 [sp + 208] = 0\n 12917: u64 [sp + 200] = 0\n 12921: u64 [sp + 192] = 0x2\n 12926: u64 [sp + 248] = 0\n 12930: u64 [sp + 240] = 0\n 12934: u64 [sp + 232] = 0\n 12938: u64 [sp + 224] = 0\n 12942: u32 [sp + 160] = 0x20\n 12947: i32 a1 = sp + 0xc0\n 12951: i32 a3 = sp + 0xe0\n 12955: i32 a4 = sp + 0xa0\n 12959: a2 = 0xffffffffffffffff\n 12962: a0 = 0\n 12964: ecalli 4 // 'get_storage'\n 12966: a0 = u32 [sp + 0xf4]\n 12970: a0 = a0 << 0x20\n 12973: a1 = u64 [sp + 0xf8]\n 12977: a0 = a0 | s1\n 12980: u64 [sp + 216] = 0\n 12984: u64 [sp + 208] = 0\n 12988: u64 [sp + 200] = 0\n 12992: u64 [sp + 192] = 0x2\n 12997: u64 [sp + 0xf8] = a1\n 13001: u64 [sp + 0xf0] = a0\n 13005: a0 = u64 [sp + 0x20]\n 13008: u64 [sp + 0xe8] = a0\n 13012: a0 = u64 [sp + 0x28]\n 13015: u64 [sp + 0xe0] = a0\n 13019: i32 a1 = sp + 0xc0\n 13023: i32 a3 = sp + 0xe0\n 13027: a2 = 0xffffffffffffffff\n 13030: a4 = 0x20\n 13033: a0 = 0\n 13035: ecalli 8 // 'set_storage'\n 13037: sp = s0 + 0xfffffffffffffee0\n 13041: ra = u64 [sp + 0x118]\n 13045: s0 = u64 [sp + 0x110]\n 13049: s1 = u64 [sp + 0x108]\n 13053: sp = sp + 0x120\n 13057: ret\n      : @234 (gas: 3)\n 13059: a0 = 0x40\n 13062: a1 = 0x20\n 13065: ra = 196, jump @0\n      : @235 [@dyn 98] (gas: 103)\n 13071: a1 = u8 [a0 + 0x11]\n 13074: a2 = u8 [a0 + 0x10]\n 13077: a3 = u8 [a0 + 0x12]\n 13080: a4 = u8 [a0 + 0x13]\n 13083: a1 = a1 << 0x8\n 13086: a1 = a1 | a2\n 13089: a3 = a3 << 0x10\n 13092: a4 = a4 << 0x18\n 13095: a3 = a3 | a4\n 13098: a1 = a1 | a3\n 13101: a2 = u8 [a0 + 0x15]\n 13104: a3 = u8 [a0 + 0x14]\n 13107: a4 = u8 [a0 + 0x16]\n 13110: a5 = u8 [a0 + 0x17]\n 13113: a2 = a2 << 0x8\n 13116: a2 = a2 | a3\n 13119: a4 = a4 << 0x10\n 13122: a5 = a5 << 0x18\n 13125: a4 = a4 | a5\n 13128: a2 = a2 | a4\n 13131: a2 = a2 << 0x20\n 13134: t0 = a2 | a1\n 13137: a2 = u8 [a0 + 0x1]\n 13140: a3 = u8 [a0]\n 13142: a4 = u8 [a0 + 0x2]\n 13145: a5 = u8 [a0 + 0x3]\n 13148: a2 = a2 << 0x8\n 13151: a2 = a2 | a3\n 13154: a4 = a4 << 0x10\n 13157: a5 = a5 << 0x18\n 13160: a4 = a4 | a5\n 13163: a2 = a2 | a4\n 13166: a3 = u8 [a0 + 0x5]\n 13169: a4 = u8 [a0 + 0x4]\n 13172: a5 = u8 [a0 + 0x6]\n 13175: s1 = u8 [a0 + 0x7]\n 13178: a3 = a3 << 0x8\n 13181: a3 = a3 | a4\n 13184: a5 = a5 << 0x10\n 13187: s1 = s1 << 0x18\n 13190: a5 = a5 | s1\n 13193: a3 = a3 | a5\n 13196: a3 = a3 << 0x20\n 13199: a2 = a2 | a3\n 13202: a3 = u8 [a0 + 0x19]\n 13205: a4 = u8 [a0 + 0x18]\n 13208: a5 = u8 [a0 + 0x1a]\n 13211: s1 = u8 [a0 + 0x1b]\n 13214: a3 = a3 << 0x8\n 13217: a3 = a3 | a4\n 13220: a5 = a5 << 0x10\n 13223: s1 = s1 << 0x18\n 13226: a5 = a5 | s1\n 13229: a3 = a3 | a5\n 13232: a4 = u8 [a0 + 0x1d]\n 13235: a5 = u8 [a0 + 0x1c]\n 13238: s1 = u8 [a0 + 0x1e]\n 13241: a1 = u8 [a0 + 0x1f]\n 13244: a4 = a4 << 0x8\n 13247: a4 = a4 | a5\n 13250: s1 = s1 << 0x10\n 13253: a1 = a1 << 0x18\n 13256: a1 = a1 | s1\n 13259: a1 = a1 | a4\n 13262: a1 = a1 << 0x20\n 13265: a3 = a3 | a1\n 13268: a1 = u8 [a0 + 0x9]\n 13271: a4 = u8 [a0 + 0x8]\n 13274: a5 = u8 [a0 + 0xa]\n 13277: s1 = u8 [a0 + 0xb]\n 13280: a1 = a1 << 0x8\n 13283: a1 = a1 | a4\n 13286: a5 = a5 << 0x10\n 13289: s1 = s1 << 0x18\n 13292: a5 = a5 | s1\n 13295: a1 = a1 | a5\n 13298: a4 = u8 [a0 + 0xd]\n 13301: a5 = u8 [a0 + 0xc]\n 13304: s1 = u8 [a0 + 0xe]\n 13307: a0 = u8 [a0 + 0xf]\n 13310: a4 = a4 << 0x8\n 13313: a4 = a4 | a5\n 13316: s1 = s1 << 0x10\n 13319: a0 = a0 << 0x18\n 13322: a0 = a0 | s1\n 13325: a0 = a0 | a4\n 13328: a0 = a0 << 0x20\n 13331: a0 = a0 | a1\n 13334: s1 = reverse a0\n 13336: a1 = reverse a3\n 13338: a2 = reverse a2\n 13340: a0 = reverse t0\n 13342: u64 [sp + 0x38] = a0\n 13345: u64 [sp + 0x30] = a2\n 13348: a0 = a0 | a2\n 13351: a2 = a1\n 13353: a1 = a1 | s1\n 13356: a1 = a1 | a0\n 13359: a1 = a1 >> 0x20\n 13362: a0 = a0 | s1\n 13365: a0 = a0 << 0x20\n 13368: a0 = a0 | a1\n 13371: jump @239 if a0 != 0\n      : @236 (gas: 5)\n 13375: u64 [sp + 0x28] = a2\n 13378: i32 a0 = a2 + 0\n 13380: a1 = 0x20\n 13383: u64 [sp + 0x20] = a0\n 13386: ra = 198, jump @0\n      : @237 [@dyn 99] (gas: 50)\n 13392: u8 [a0 + 31] = 0\n 13395: u8 [a0 + 30] = 0\n 13398: u8 [a0 + 29] = 0\n 13401: u8 [a0 + 28] = 0\n 13404: u8 [a0 + 27] = 0\n 13407: u8 [a0 + 26] = 0\n 13410: u8 [a0 + 25] = 0\n 13413: u8 [a0 + 24] = 0\n 13416: u8 [a0 + 23] = 0\n 13419: u8 [a0 + 22] = 0\n 13422: u8 [a0 + 21] = 0\n 13425: u8 [a0 + 20] = 0\n 13428: u8 [a0 + 19] = 0\n 13431: u8 [a0 + 18] = 0\n 13434: u8 [a0 + 17] = 0\n 13437: u8 [a0 + 16] = 0\n 13440: u8 [a0 + 15] = 0\n 13443: u8 [a0 + 14] = 0\n 13446: u8 [a0 + 13] = 0\n 13449: u8 [a0 + 12] = 0\n 13452: u8 [a0 + 11] = 0\n 13455: u8 [a0 + 10] = 0\n 13458: u8 [a0 + 9] = 0\n 13461: u8 [a0 + 8] = 0\n 13464: u8 [a0 + 7] = 0\n 13467: u8 [a0 + 6] = 0\n 13470: u8 [a0 + 5] = 0\n 13473: u8 [a0 + 4] = 0\n 13476: u8 [a0 + 3] = 0xa0\n 13481: u8 [a0 + 2] = 0x79\n 13485: u8 [a0 + 1] = 0xc3\n 13490: u8 [a0 + 0] = 0x8\n 13493: a1 = u64 [sp + 0x28]\n 13496: a0 = a1 + 0x4\n 13499: a1 = a0 <u a1\n 13502: a3 = u64 [sp + 0x38]\n 13505: a2 = a3 + a1\n 13508: a3 = a2 <u a3\n 13511: a3 = a1 if a1 == 0\n 13514: a3 = a3 + s1\n 13517: a1 = a3 <u s1\n 13520: a4 = u64 [sp + 0x30]\n 13523: a4 = a4 + a1\n 13526: u64 [sp + 0x48] = a2\n 13529: u64 [sp + 0x40] = a0\n 13532: u64 [sp + 0x50] = a3\n 13535: a0 = sp + 0x60\n 13538: a1 = sp + 0x40\n 13541: u64 [sp + 0x58] = a4\n 13544: ra = 200, jump @224\n      : @238 [@dyn 100] (gas: 30)\n 13550: a0 = u64 [sp + 0x68]\n 13553: t0 = u64 [sp + 0x78]\n 13556: t1 = u64 [sp + 0x60]\n 13559: a3 = u64 [sp + 0x70]\n 13562: a1 = u64 [sp + 0x38]\n 13565: a4 = a0 ^ a1\n 13568: a5 = a0 <u a1\n 13571: t2 = a1\n 13573: a2 = u64 [sp + 0x28]\n 13576: a1 = t1 <u a2\n 13579: a5 = a1 if a4 == 0\n 13582: a4 = a3 - s1\n 13585: a3 = a3 <u s1\n 13588: s1 = u64 [sp + 0x30]\n 13591: s1 = t0 - s1\n 13594: s1 = s1 - a3\n 13597: a3 = a4 <u a5\n 13600: s1 = s1 - a3\n 13603: a4 = a4 - a5\n 13606: a0 = a0 - t2\n 13609: a1 = a0 - a1\n 13612: a0 = t1 - a2\n 13615: a1 = a1 | s1\n 13618: a2 = a0 | a4\n 13621: a2 = a2 | a1\n 13624: a1 = a1 | a4\n 13627: a2 = a2 >> 0x20\n 13630: a1 = a1 << 0x20\n 13633: a1 = a1 | a2\n 13636: jump @240 if a1 == 0\n      : @239 (gas: 1)\n 13639: trap\n      : @240 (gas: 4)\n 13640: i32 s1 = a0 + 0\n 13642: a0 = u64 [sp + 0x20]\n 13645: a1 = s1\n 13647: ra = 202, jump @0\n      : @241 [@dyn 101] (gas: 6)\n 13653: i32 a1 = a0 + 0\n 13655: a0 = 0x1\n 13658: a2 = s1\n 13660: ra = 0xcc\n 13664: ecalli 6 // 'seal_return'\n 13666: fallthrough\n      : @242 [@dyn 102] (gas: 9)\n 13667: a2 = u64 [a1 + 0x18]\n 13670: a3 = u64 [a1 + 0x10]\n 13673: a4 = u64 [a1 + 0x8]\n 13676: a1 = u64 [a1]\n 13678: u64 [a0 + 0x18] = a2\n 13681: u64 [a0 + 0x10] = a3\n 13684: u64 [a0 + 0x8] = a4\n 13687: u64 [a0] = a1\n 13689: ret\n      : @243 (gas: 17)\n 13691: sp = sp + 0xffffffffffffffa0\n 13694: u64 [sp + 0x58] = ra\n 13697: u64 [sp + 0x50] = s0\n 13700: u64 [sp + 0x48] = s1\n 13703: a3 = u64 [a1 + 0x18]\n 13706: a4 = u64 [a1 + 0x10]\n 13709: a5 = u64 [a1 + 0x8]\n 13712: s1 = u64 [a1]\n 13714: a1 = a5 | a3\n 13717: a2 = s1 | a4\n 13720: a2 = a2 | a1\n 13723: a2 = a2 >> 0x20\n 13726: a1 = a1 | a4\n 13729: a1 = a1 << 0x20\n 13732: a1 = a1 | a2\n 13735: u64 [sp + 0x28] = a0\n 13738: jump @250 if a1 != 0\n      : @244 (gas: 19)\n 13742: a0 = s1 + 0x20\n 13745: u64 [sp + 0x30] = a0\n 13748: a0 = a0 <u s1\n 13751: a1 = a5 + a0\n 13754: u64 [sp + 0x40] = a1\n 13757: u64 [sp + 0x8] = a5\n 13760: s0 = a1 <u a5\n 13763: s0 = a0 if a0 == 0\n 13766: s0 = s0 + a4\n 13769: u64 [sp + 0x10] = a4\n 13772: a0 = s0 <u a4\n 13775: u64 [sp + 0x18] = a3\n 13778: a0 = a0 + a3\n 13781: u64 [sp + 0x38] = a0\n 13784: u64 [sp] = s1\n 13786: i32 a0 = s1 + 0\n 13788: a1 = 0x20\n 13791: s1 = 0x20\n 13794: ra = 206, jump @0\n      : @245 [@dyn 103] (gas: 45)\n 13800: u8 [a0 + 0x1f] = s1\n 13803: a1 = u64 [sp + 0x30]\n 13806: s1 = a1\n 13808: a1 = a1 | s0\n 13811: a2 = u64 [sp + 0x40]\n 13814: a4 = u64 [sp + 0x38]\n 13817: a2 = a2 | a4\n 13820: a1 = a1 | a2\n 13823: a1 = a1 >> 0x20\n 13826: u64 [sp + 0x20] = s0\n 13829: a2 = a2 | s0\n 13832: a2 = a2 << 0x20\n 13835: a1 = a1 | a2\n 13838: u8 [a0 + 30] = 0\n 13841: u8 [a0 + 29] = 0\n 13844: u8 [a0 + 28] = 0\n 13847: u8 [a0 + 27] = 0\n 13850: u8 [a0 + 26] = 0\n 13853: u8 [a0 + 25] = 0\n 13856: u8 [a0 + 24] = 0\n 13859: u8 [a0 + 23] = 0\n 13862: u8 [a0 + 22] = 0\n 13865: u8 [a0 + 21] = 0\n 13868: u8 [a0 + 20] = 0\n 13871: u8 [a0 + 19] = 0\n 13874: u8 [a0 + 18] = 0\n 13877: u8 [a0 + 17] = 0\n 13880: u8 [a0 + 16] = 0\n 13883: u8 [a0 + 15] = 0\n 13886: u8 [a0 + 14] = 0\n 13889: u8 [a0 + 13] = 0\n 13892: u8 [a0 + 12] = 0\n 13895: u8 [a0 + 11] = 0\n 13898: u8 [a0 + 10] = 0\n 13901: u8 [a0 + 9] = 0\n 13904: u8 [a0 + 8] = 0\n 13907: u8 [a0 + 7] = 0\n 13910: u8 [a0 + 6] = 0\n 13913: u8 [a0 + 5] = 0\n 13916: u8 [a0 + 4] = 0\n 13919: u8 [a0 + 3] = 0\n 13922: u8 [a0 + 2] = 0\n 13925: u8 [a0 + 1] = 0\n 13928: u8 [a0 + 0] = 0\n 13930: jump @250 if a1 != 0\n      : @246 (gas: 4)\n 13934: i32 s0 = s1 + 0\n 13936: a1 = 0x20\n 13939: a0 = s0\n 13941: ra = 208, jump @0\n      : @247 [@dyn 104] (gas: 41)\n 13947: u8 [a0 + 31] = 0xf\n 13951: u8 [a0 + 30] = 0\n 13954: u8 [a0 + 29] = 0\n 13957: u8 [a0 + 28] = 0\n 13960: u8 [a0 + 27] = 0\n 13963: u8 [a0 + 26] = 0\n 13966: u8 [a0 + 25] = 0\n 13969: u8 [a0 + 24] = 0\n 13972: u8 [a0 + 23] = 0\n 13975: u8 [a0 + 22] = 0\n 13978: u8 [a0 + 21] = 0\n 13981: u8 [a0 + 20] = 0\n 13984: u8 [a0 + 19] = 0\n 13987: u8 [a0 + 18] = 0\n 13990: u8 [a0 + 17] = 0\n 13993: u8 [a0 + 16] = 0\n 13996: u8 [a0 + 15] = 0\n 13999: u8 [a0 + 14] = 0\n 14002: u8 [a0 + 13] = 0\n 14005: u8 [a0 + 12] = 0\n 14008: u8 [a0 + 11] = 0\n 14011: u8 [a0 + 10] = 0\n 14014: u8 [a0 + 9] = 0\n 14017: u8 [a0 + 8] = 0\n 14020: u8 [a0 + 7] = 0\n 14023: u8 [a0 + 6] = 0\n 14026: u8 [a0 + 5] = 0\n 14029: u8 [a0 + 4] = 0\n 14032: u8 [a0 + 3] = 0\n 14035: u8 [a0 + 2] = 0\n 14038: u8 [a0 + 1] = 0\n 14041: a1 = u64 [sp + 0x20]\n 14044: a2 = u64 [sp + 0x38]\n 14047: a1 = a1 | a2\n 14050: a2 = 0xffffffe0\n 14060: a2 = s1 <u a2\n 14063: a3 = u64 [sp + 0x40]\n 14066: a2 = 0 if a3 != 0\n 14068: a2 = 0 if a1 != 0\n 14070: u8 [a0 + 0] = 0\n 14072: jump @250 if a2 == 0\n      : @248 (gas: 3)\n 14076: i32 a0 = s0 + 0x20\n 14079: a1 = 0x20\n 14082: ra = 210, jump @0\n      : @249 [@dyn 105] (gas: 55)\n 14088: u8 [a0 + 31] = 0\n 14091: u8 [a0 + 30] = 0\n 14094: u8 [a0 + 29] = 0\n 14097: u8 [a0 + 28] = 0\n 14100: u8 [a0 + 27] = 0\n 14103: u8 [a0 + 26] = 0\n 14106: u8 [a0 + 25] = 0\n 14109: u8 [a0 + 24] = 0\n 14112: u8 [a0 + 23] = 0\n 14115: u8 [a0 + 22] = 0\n 14118: u8 [a0 + 21] = 0\n 14121: u8 [a0 + 20] = 0\n 14124: u8 [a0 + 19] = 0\n 14127: u8 [a0 + 18] = 0\n 14130: u8 [a0 + 17] = 0\n 14133: u8 [a0 + 16] = 0\n 14136: u8 [a0 + 15] = 0\n 14139: u8 [a0 + 14] = 0x44\n 14143: u8 [a0 + 13] = 0x49\n 14147: a5 = 0x20\n 14150: u8 [a0 + 0xc] = a5\n 14153: u8 [a0 + 11] = 0x64\n 14157: u8 [a0 + 10] = 0x72\n 14161: u8 [a0 + 9] = 0x61\n 14165: u8 [a0 + 8] = 0x63\n 14169: u8 [a0 + 0x7] = a5\n 14172: u8 [a0 + 6] = 0x64\n 14176: u8 [a0 + 5] = 0x69\n 14180: u8 [a0 + 4] = 0x6c\n 14184: u8 [a0 + 3] = 0x61\n 14188: u8 [a0 + 2] = 0x76\n 14192: u8 [a0 + 1] = 0x6e\n 14196: u8 [a0 + 0] = 0x49\n 14199: a1 = u64 [sp]\n 14201: a0 = a1 + 0x60\n 14204: a1 = a0 <u a1\n 14207: a3 = u64 [sp + 0x8]\n 14210: a2 = a3 + a1\n 14213: a3 = a2 <u a3\n 14216: a3 = a1 if a1 == 0\n 14219: a1 = u64 [sp + 0x10]\n 14222: a3 = a3 + a1\n 14225: a1 = a3 <u a1\n 14228: a4 = u64 [sp + 0x18]\n 14231: a1 = a1 + a4\n 14234: a4 = u64 [sp + 0x28]\n 14237: u64 [a4] = a0\n 14239: u64 [a4 + 0x8] = a2\n 14242: u64 [a4 + 0x10] = a3\n 14245: u64 [a4 + 0x18] = a1\n 14248: ra = u64 [sp + 0x58]\n 14251: s0 = u64 [sp + 0x50]\n 14254: s1 = u64 [sp + 0x48]\n 14257: sp = sp + 0x60\n 14260: ret\n      : @250 (gas: 1)\n 14262: trap\n      : @251 (gas: 17)\n 14263: sp = sp + 0xffffffffffffffa0\n 14266: u64 [sp + 0x58] = ra\n 14269: u64 [sp + 0x50] = s0\n 14272: u64 [sp + 0x48] = s1\n 14275: a3 = u64 [a1 + 0x18]\n 14278: a4 = u64 [a1 + 0x10]\n 14281: a5 = u64 [a1 + 0x8]\n 14284: s1 = u64 [a1]\n 14286: a1 = a5 | a3\n 14289: a2 = s1 | a4\n 14292: a2 = a2 | a1\n 14295: a2 = a2 >> 0x20\n 14298: a1 = a1 | a4\n 14301: a1 = a1 << 0x20\n 14304: a1 = a1 | a2\n 14307: u64 [sp + 0x28] = a0\n 14310: jump @258 if a1 != 0\n      : @252 (gas: 19)\n 14314: a0 = s1 + 0x20\n 14317: u64 [sp + 0x30] = a0\n 14320: a0 = a0 <u s1\n 14323: a1 = a5 + a0\n 14326: u64 [sp + 0x40] = a1\n 14329: u64 [sp + 0x8] = a5\n 14332: s0 = a1 <u a5\n 14335: s0 = a0 if a0 == 0\n 14338: s0 = s0 + a4\n 14341: u64 [sp + 0x10] = a4\n 14344: a0 = s0 <u a4\n 14347: u64 [sp + 0x18] = a3\n 14350: a0 = a0 + a3\n 14353: u64 [sp + 0x38] = a0\n 14356: u64 [sp] = s1\n 14358: i32 a0 = s1 + 0\n 14360: a1 = 0x20\n 14363: s1 = 0x20\n 14366: ra = 212, jump @0\n      : @253 [@dyn 106] (gas: 45)\n 14372: u8 [a0 + 0x1f] = s1\n 14375: a1 = u64 [sp + 0x30]\n 14378: s1 = a1\n 14380: a1 = a1 | s0\n 14383: a2 = u64 [sp + 0x40]\n 14386: a4 = u64 [sp + 0x38]\n 14389: a2 = a2 | a4\n 14392: a1 = a1 | a2\n 14395: a1 = a1 >> 0x20\n 14398: u64 [sp + 0x20] = s0\n 14401: a2 = a2 | s0\n 14404: a2 = a2 << 0x20\n 14407: a1 = a1 | a2\n 14410: u8 [a0 + 30] = 0\n 14413: u8 [a0 + 29] = 0\n 14416: u8 [a0 + 28] = 0\n 14419: u8 [a0 + 27] = 0\n 14422: u8 [a0 + 26] = 0\n 14425: u8 [a0 + 25] = 0\n 14428: u8 [a0 + 24] = 0\n 14431: u8 [a0 + 23] = 0\n 14434: u8 [a0 + 22] = 0\n 14437: u8 [a0 + 21] = 0\n 14440: u8 [a0 + 20] = 0\n 14443: u8 [a0 + 19] = 0\n 14446: u8 [a0 + 18] = 0\n 14449: u8 [a0 + 17] = 0\n 14452: u8 [a0 + 16] = 0\n 14455: u8 [a0 + 15] = 0\n 14458: u8 [a0 + 14] = 0\n 14461: u8 [a0 + 13] = 0\n 14464: u8 [a0 + 12] = 0\n 14467: u8 [a0 + 11] = 0\n 14470: u8 [a0 + 10] = 0\n 14473: u8 [a0 + 9] = 0\n 14476: u8 [a0 + 8] = 0\n 14479: u8 [a0 + 7] = 0\n 14482: u8 [a0 + 6] = 0\n 14485: u8 [a0 + 5] = 0\n 14488: u8 [a0 + 4] = 0\n 14491: u8 [a0 + 3] = 0\n 14494: u8 [a0 + 2] = 0\n 14497: u8 [a0 + 1] = 0\n 14500: u8 [a0 + 0] = 0\n 14502: jump @258 if a1 != 0\n      : @254 (gas: 4)\n 14506: i32 s0 = s1 + 0\n 14508: a1 = 0x20\n 14511: a0 = s0\n 14513: ra = 214, jump @0\n      : @255 [@dyn 107] (gas: 41)\n 14519: u8 [a0 + 31] = 0x10\n 14523: u8 [a0 + 30] = 0\n 14526: u8 [a0 + 29] = 0\n 14529: u8 [a0 + 28] = 0\n 14532: u8 [a0 + 27] = 0\n 14535: u8 [a0 + 26] = 0\n 14538: u8 [a0 + 25] = 0\n 14541: u8 [a0 + 24] = 0\n 14544: u8 [a0 + 23] = 0\n 14547: u8 [a0 + 22] = 0\n 14550: u8 [a0 + 21] = 0\n 14553: u8 [a0 + 20] = 0\n 14556: u8 [a0 + 19] = 0\n 14559: u8 [a0 + 18] = 0\n 14562: u8 [a0 + 17] = 0\n 14565: u8 [a0 + 16] = 0\n 14568: u8 [a0 + 15] = 0\n 14571: u8 [a0 + 14] = 0\n 14574: u8 [a0 + 13] = 0\n 14577: u8 [a0 + 12] = 0\n 14580: u8 [a0 + 11] = 0\n 14583: u8 [a0 + 10] = 0\n 14586: u8 [a0 + 9] = 0\n 14589: u8 [a0 + 8] = 0\n 14592: u8 [a0 + 7] = 0\n 14595: u8 [a0 + 6] = 0\n 14598: u8 [a0 + 5] = 0\n 14601: u8 [a0 + 4] = 0\n 14604: u8 [a0 + 3] = 0\n 14607: u8 [a0 + 2] = 0\n 14610: u8 [a0 + 1] = 0\n 14613: a1 = u64 [sp + 0x20]\n 14616: a2 = u64 [sp + 0x38]\n 14619: a1 = a1 | a2\n 14622: a2 = 0xffffffe0\n 14632: a2 = s1 <u a2\n 14635: a3 = u64 [sp + 0x40]\n 14638: a2 = 0 if a3 != 0\n 14640: a2 = 0 if a1 != 0\n 14642: u8 [a0 + 0] = 0\n 14644: jump @258 if a2 == 0\n      : @256 (gas: 3)\n 14648: i32 a0 = s0 + 0x20\n 14651: a1 = 0x20\n 14654: ra = 216, jump @0\n      : @257 [@dyn 108] (gas: 54)\n 14660: u8 [a0 + 31] = 0\n 14663: u8 [a0 + 30] = 0\n 14666: u8 [a0 + 29] = 0\n 14669: u8 [a0 + 28] = 0\n 14672: u8 [a0 + 27] = 0\n 14675: u8 [a0 + 26] = 0\n 14678: u8 [a0 + 25] = 0\n 14681: u8 [a0 + 24] = 0\n 14684: u8 [a0 + 23] = 0\n 14687: u8 [a0 + 22] = 0\n 14690: u8 [a0 + 21] = 0\n 14693: u8 [a0 + 20] = 0\n 14696: u8 [a0 + 19] = 0\n 14699: u8 [a0 + 18] = 0\n 14702: u8 [a0 + 17] = 0\n 14705: u8 [a0 + 16] = 0\n 14708: u8 [a0 + 15] = 0x73\n 14712: u8 [a0 + 14] = 0x64\n 14716: u8 [a0 + 13] = 0x72\n 14720: u8 [a0 + 12] = 0x61\n 14724: u8 [a0 + 11] = 0x63\n 14728: u8 [a0 + 10] = 0x20\n 14732: u8 [a0 + 9] = 0x68\n 14736: u8 [a0 + 8] = 0x67\n 14740: u8 [a0 + 7] = 0x75\n 14744: u8 [a0 + 6] = 0x6f\n 14748: u8 [a0 + 5] = 0x6e\n 14752: u8 [a0 + 4] = 0x65\n 14756: u8 [a0 + 3] = 0x20\n 14760: u8 [a0 + 2] = 0x74\n 14764: u8 [a0 + 1] = 0x6f\n 14768: u8 [a0 + 0] = 0x4e\n 14771: a1 = u64 [sp]\n 14773: a0 = a1 + 0x60\n 14776: a1 = a0 <u a1\n 14779: a3 = u64 [sp + 0x8]\n 14782: a2 = a3 + a1\n 14785: a3 = a2 <u a3\n 14788: a3 = a1 if a1 == 0\n 14791: a1 = u64 [sp + 0x10]\n 14794: a3 = a3 + a1\n 14797: a1 = a3 <u a1\n 14800: a4 = u64 [sp + 0x18]\n 14803: a1 = a1 + a4\n 14806: a4 = u64 [sp + 0x28]\n 14809: u64 [a4] = a0\n 14811: u64 [a4 + 0x8] = a2\n 14814: u64 [a4 + 0x10] = a3\n 14817: u64 [a4 + 0x18] = a1\n 14820: ra = u64 [sp + 0x58]\n 14823: s0 = u64 [sp + 0x50]\n 14826: s1 = u64 [sp + 0x48]\n 14829: sp = sp + 0x60\n 14832: ret\n      : @258 (gas: 1)\n 14834: trap\n      : @259 (gas: 19)\n 14835: sp = sp + 0xfffffffffffffd80\n 14839: u64 [sp + 0x278] = ra\n 14843: u64 [sp + 0x270] = s0\n 14847: u64 [sp + 0x268] = s1\n 14851: s0 = sp + 0x280\n 14855: sp = sp & 0xffffffffffffffe0\n 14858: a4 = u64 [a2 + 0x18]\n 14861: a5 = u64 [a2 + 0x10]\n 14864: s1 = u64 [a2]\n 14866: a2 = u64 [a2 + 0x8]\n 14869: u64 [sp + 0xd8] = a4\n 14873: u64 [sp + 0xd0] = a5\n 14877: a5 = a5 | a4\n 14880: u64 [sp + 0xc8] = s1\n 14884: a4 = s1 <u 0x11\n 14887: u64 [sp + 0xc0] = a2\n 14891: a4 = 0 if a2 != 0\n 14893: a4 = 0 if a5 != 0\n 14895: jump @276 if a4 == 0\n      : @260 (gas: 24)\n 14899: a2 = u64 [a3 + 0x18]\n 14902: u64 [sp + 0xf8] = a2\n 14906: a2 = u64 [a3 + 0x10]\n 14909: u64 [sp + 0xf0] = a2\n 14913: a2 = u64 [a3 + 0x8]\n 14916: u64 [sp + 0xe0] = a2\n 14920: a2 = u64 [a3]\n 14922: u64 [sp + 0xe8] = a2\n 14926: a2 = u64 [a1 + 0x10]\n 14929: u64 [sp + 0xa0] = a2\n 14933: a2 = u64 [a1 + 0x8]\n 14936: u64 [sp + 0x98] = a2\n 14940: a1 = u64 [a1]\n 14942: u64 [sp + 0x90] = a1\n 14946: a1 = u64 [a0 + 0x10]\n 14949: a2 = u64 [a0 + 0x8]\n 14952: u64 [sp + 0xb0] = a2\n 14956: a0 = u64 [a0]\n 14958: u64 [sp + 0xb8] = a0\n 14962: a1 = a1 << 0x20\n 14965: s1 = a1 >> 0x20\n 14968: a1 = 0x20\n 14971: a0 = 0\n 14973: ra = 218, jump @0\n      : @261 [@dyn 109] (gas: 79)\n 14979: a3 = reverse s1\n 14981: a1 = u64 [sp + 0xb0]\n 14985: a4 = reverse a1\n 14987: a1 = u64 [sp + 0xb8]\n 14991: a2 = reverse a1\n 14993: a1 = a2 >> 0x38\n 14996: u64 [sp + 0xb8] = a1\n 15000: u8 [a0 + 0x1f] = a1\n 15003: a1 = a2 >> 0x30\n 15006: u64 [sp + 0xb0] = a1\n 15010: u8 [a0 + 0x1e] = a1\n 15013: a1 = a2 >> 0x28\n 15016: u64 [sp + 0xa8] = a1\n 15020: u8 [a0 + 0x1d] = a1\n 15023: a1 = a2 >> 0x20\n 15026: u64 [sp + 0x88] = a1\n 15030: u8 [a0 + 0x1c] = a1\n 15033: a1 = a2 >> 0x18\n 15036: u64 [sp + 0x80] = a1\n 15040: u8 [a0 + 0x1b] = a1\n 15043: a1 = a2 >> 0x10\n 15046: u64 [sp + 0x78] = a1\n 15049: u8 [a0 + 0x1a] = a1\n 15052: a1 = a2 >> 0x8\n 15055: u64 [sp + 0x70] = a1\n 15058: u8 [a0 + 0x19] = a1\n 15061: u64 [sp + 0x68] = a2\n 15064: u8 [a0 + 0x18] = a2\n 15067: u8 [a0 + 0x10] = a4\n 15070: u8 [a0 + 11] = 0\n 15073: u8 [a0 + 10] = 0\n 15076: u8 [a0 + 9] = 0\n 15079: u8 [a0 + 7] = 0\n 15082: u8 [a0 + 6] = 0\n 15085: u8 [a0 + 5] = 0\n 15088: u8 [a0 + 4] = 0\n 15091: u8 [a0 + 3] = 0\n 15094: u8 [a0 + 2] = 0\n 15097: u8 [a0 + 1] = 0\n 15100: u8 [a0 + 0] = 0\n 15102: a1 = a4 >> 0x38\n 15105: u64 [sp + 0x50] = a1\n 15108: u8 [a0 + 0x17] = a1\n 15111: a1 = a4 >> 0x30\n 15114: u64 [sp + 0x48] = a1\n 15117: u8 [a0 + 0x16] = a1\n 15120: a1 = a4 >> 0x28\n 15123: u64 [sp + 0x40] = a1\n 15126: u8 [a0 + 0x15] = a1\n 15129: a1 = a4 >> 0x20\n 15132: u64 [sp + 0x38] = a1\n 15135: u8 [a0 + 0x14] = a1\n 15138: a1 = a4 >> 0x18\n 15141: u64 [sp + 0x30] = a1\n 15144: u8 [a0 + 0x13] = a1\n 15147: a1 = a4 >> 0x10\n 15150: u64 [sp + 0x28] = a1\n 15153: u8 [a0 + 0x12] = a1\n 15156: u64 [sp + 0x58] = a4\n 15159: a4 = a4 >> 0x8\n 15162: u64 [sp + 0x20] = a4\n 15165: u8 [a0 + 0x11] = a4\n 15168: u8 [a0 + 0x8] = a3\n 15171: a1 = a3 >> 0x38\n 15174: u64 [sp + 0x18] = a1\n 15177: u8 [a0 + 0xf] = a1\n 15180: a1 = a3 >> 0x30\n 15183: u64 [sp + 0x10] = a1\n 15186: u8 [a0 + 0xe] = a1\n 15189: a1 = a3 >> 0x28\n 15192: u64 [sp + 0x8] = a1\n 15195: u8 [a0 + 0xd] = a1\n 15198: u64 [sp + 0x60] = a3\n 15201: a3 = a3 >> 0x20\n 15204: u64 [sp] = a3\n 15206: u8 [a0 + 0xc] = a3\n 15209: a0 = 0x20\n 15212: a1 = 0x20\n 15215: ra = 220, jump @0\n      : @262 [@dyn 110] (gas: 35)\n 15221: u8 [a0 + 31] = 0\n 15224: u8 [a0 + 30] = 0\n 15227: u8 [a0 + 29] = 0\n 15230: u8 [a0 + 28] = 0\n 15233: u8 [a0 + 27] = 0\n 15236: u8 [a0 + 26] = 0\n 15239: u8 [a0 + 25] = 0\n 15242: u8 [a0 + 24] = 0\n 15245: u8 [a0 + 23] = 0\n 15248: u8 [a0 + 22] = 0\n 15251: u8 [a0 + 21] = 0\n 15254: u8 [a0 + 20] = 0\n 15257: u8 [a0 + 19] = 0\n 15260: u8 [a0 + 18] = 0\n 15263: u8 [a0 + 17] = 0\n 15266: u8 [a0 + 16] = 0\n 15269: u8 [a0 + 15] = 0\n 15272: u8 [a0 + 14] = 0\n 15275: u8 [a0 + 13] = 0\n 15278: u8 [a0 + 12] = 0\n 15281: u8 [a0 + 11] = 0\n 15284: u8 [a0 + 10] = 0\n 15287: u8 [a0 + 9] = 0\n 15290: u8 [a0 + 8] = 0\n 15293: u8 [a0 + 7] = 0\n 15296: u8 [a0 + 6] = 0\n 15299: u8 [a0 + 5] = 0\n 15302: u8 [a0 + 4] = 0\n 15305: u8 [a0 + 3] = 0\n 15308: u8 [a0 + 2] = 0\n 15311: u8 [a0 + 1] = 0\n 15314: u8 [a0 + 0] = 0\n 15316: a1 = 0x40\n 15319: a0 = 0\n 15321: ra = 222, jump @0\n      : @263 [@dyn 111] (gas: 46)\n 15327: i32 a0 = a0 + 0\n 15329: i32 a2 = sp + 0x240\n 15333: a1 = 0x40\n 15336: ecalli 5 // 'hash_keccak_256'\n 15338: a0 = u64 [sp + 0x258]\n 15342: a1 = u64 [sp + 0x250]\n 15346: a2 = u64 [sp + 0x248]\n 15350: a3 = u64 [sp + 0x240]\n 15354: a0 = reverse a0\n 15356: a1 = reverse a1\n 15358: a4 = u64 [sp + 0xc0]\n 15362: a4 = a4 + a1\n 15365: a5 = u64 [sp + 0xc8]\n 15369: a5 = a5 + a0\n 15372: a0 = a5 <u a0\n 15375: a4 = a4 + a0\n 15378: s1 = a4 ^ a1\n 15381: a1 = a4 <u a1\n 15384: a1 = a0 if s1 == 0\n 15387: s1 = reverse a3\n 15389: a2 = reverse a2\n 15391: a3 = u64 [sp + 0xd0]\n 15395: a3 = a3 + a2\n 15398: a0 = u64 [sp + 0xd8]\n 15402: a0 = a0 + s1\n 15405: a2 = a3 <u a2\n 15408: a0 = a0 + a2\n 15411: a1 = a1 + a3\n 15414: a2 = a1 <u a3\n 15417: a0 = a0 + a2\n 15420: u64 [sp + 0x228] = a4\n 15424: u64 [sp + 0x220] = a5\n 15428: u64 [sp + 0x230] = a1\n 15432: u64 [sp + 0x238] = a0\n 15436: u64 [sp + 600] = 0\n 15440: u64 [sp + 592] = 0\n 15444: u64 [sp + 584] = 0\n 15448: u64 [sp + 576] = 0\n 15452: u32 [sp + 512] = 0x20\n 15457: i32 a1 = sp + 0x220\n 15461: i32 a3 = sp + 0x240\n 15465: i32 a4 = sp + 0x200\n 15469: a2 = 0xffffffffffffffff\n 15472: a0 = 0\n 15474: ecalli 4 // 'get_storage'\n 15476: fallthrough\n      : @264 (gas: 20)\n 15477: a0 = u64 [sp + 0x258]\n 15481: t0 = u64 [sp + 0x240]\n 15485: a2 = u64 [sp + 0x250]\n 15489: a3 = u64 [sp + 0x248]\n 15493: a1 = u64 [sp + 0xf8]\n 15497: a4 = a0 ^ a1\n 15500: s1 = a0 <u a1\n 15503: a0 = u64 [sp + 0xf0]\n 15507: a5 = a2 <u a0\n 15510: a5 = s1 if a4 != 0\n 15513: a1 = u64 [sp + 0xe0]\n 15517: s1 = a3 ^ a1\n 15520: a3 = a3 <u a1\n 15523: a1 = u64 [sp + 0xe8]\n 15527: a1 = t0 <u a1\n 15530: a1 = a3 if s1 != 0\n 15533: a0 = a0 ^ a2\n 15536: a0 = a0 | a4\n 15539: a1 = a5 if a0 != 0\n 15542: jump @281 if a1 != 0\n      : @265 (gas: 3)\n 15546: a1 = 0x20\n 15549: a0 = 0\n 15551: ra = 224, jump @0\n      : @266 [@dyn 112] (gas: 59)\n 15557: a1 = u64 [sp + 0x58]\n 15560: u8 [a0 + 0x10] = a1\n 15563: a1 = u64 [sp + 0x18]\n 15566: u8 [a0 + 0xf] = a1\n 15569: a1 = u64 [sp + 0x10]\n 15572: u8 [a0 + 0xe] = a1\n 15575: a1 = u64 [sp + 0x8]\n 15578: u8 [a0 + 0xd] = a1\n 15581: a1 = u64 [sp]\n 15583: u8 [a0 + 0xc] = a1\n 15586: a2 = u64 [sp + 0x60]\n 15589: a1 = a2 >> 0x18\n 15592: u8 [a0 + 0xb] = a1\n 15595: a1 = a2 >> 0x10\n 15598: u8 [a0 + 0xa] = a1\n 15601: a1 = a2 >> 0x8\n 15604: u8 [a0 + 0x9] = a1\n 15607: u8 [a0 + 0x8] = a2\n 15610: a1 = u64 [sp + 0x68]\n 15613: u8 [a0 + 0x18] = a1\n 15616: a1 = u64 [sp + 0x50]\n 15619: u8 [a0 + 0x17] = a1\n 15622: a1 = u64 [sp + 0x48]\n 15625: u8 [a0 + 0x16] = a1\n 15628: a1 = u64 [sp + 0x40]\n 15631: u8 [a0 + 0x15] = a1\n 15634: a1 = u64 [sp + 0x38]\n 15637: u8 [a0 + 0x14] = a1\n 15640: a1 = u64 [sp + 0x30]\n 15643: u8 [a0 + 0x13] = a1\n 15646: a1 = u64 [sp + 0x28]\n 15649: u8 [a0 + 0x12] = a1\n 15652: a1 = u64 [sp + 0x20]\n 15655: u8 [a0 + 0x11] = a1\n 15658: a1 = u64 [sp + 0xb8]\n 15662: u8 [a0 + 0x1f] = a1\n 15665: a1 = u64 [sp + 0xb0]\n 15669: u8 [a0 + 0x1e] = a1\n 15672: a1 = u64 [sp + 0xa8]\n 15676: u8 [a0 + 0x1d] = a1\n 15679: a1 = u64 [sp + 0x88]\n 15683: u8 [a0 + 0x1c] = a1\n 15686: a1 = u64 [sp + 0x80]\n 15690: u8 [a0 + 0x1b] = a1\n 15693: a1 = u64 [sp + 0x78]\n 15696: u8 [a0 + 0x1a] = a1\n 15699: a1 = u64 [sp + 0x70]\n 15702: u8 [a0 + 0x19] = a1\n 15705: u8 [a0 + 7] = 0\n 15708: u8 [a0 + 6] = 0\n 15711: u8 [a0 + 5] = 0\n 15714: u8 [a0 + 4] = 0\n 15717: u8 [a0 + 3] = 0\n 15720: u8 [a0 + 2] = 0\n 15723: u8 [a0 + 1] = 0\n 15726: u8 [a0 + 0] = 0\n 15728: a0 = 0x20\n 15731: a1 = 0x20\n 15734: ra = 226, jump @0\n      : @267 [@dyn 113] (gas: 35)\n 15740: u8 [a0 + 31] = 0\n 15743: u8 [a0 + 30] = 0\n 15746: u8 [a0 + 29] = 0\n 15749: u8 [a0 + 28] = 0\n 15752: u8 [a0 + 27] = 0\n 15755: u8 [a0 + 26] = 0\n 15758: u8 [a0 + 25] = 0\n 15761: u8 [a0 + 24] = 0\n 15764: u8 [a0 + 23] = 0\n 15767: u8 [a0 + 22] = 0\n 15770: u8 [a0 + 21] = 0\n 15773: u8 [a0 + 20] = 0\n 15776: u8 [a0 + 19] = 0\n 15779: u8 [a0 + 18] = 0\n 15782: u8 [a0 + 17] = 0\n 15785: u8 [a0 + 16] = 0\n 15788: u8 [a0 + 15] = 0\n 15791: u8 [a0 + 14] = 0\n 15794: u8 [a0 + 13] = 0\n 15797: u8 [a0 + 12] = 0\n 15800: u8 [a0 + 11] = 0\n 15803: u8 [a0 + 10] = 0\n 15806: u8 [a0 + 9] = 0\n 15809: u8 [a0 + 8] = 0\n 15812: u8 [a0 + 7] = 0\n 15815: u8 [a0 + 6] = 0\n 15818: u8 [a0 + 5] = 0\n 15821: u8 [a0 + 4] = 0\n 15824: u8 [a0 + 3] = 0\n 15827: u8 [a0 + 2] = 0\n 15830: u8 [a0 + 1] = 0\n 15833: u8 [a0 + 0] = 0\n 15835: a1 = 0x40\n 15838: a0 = 0\n 15840: ra = 228, jump @0\n      : @268 [@dyn 114] (gas: 50)\n 15846: i32 a0 = a0 + 0\n 15848: i32 a2 = sp + 0x240\n 15852: a1 = 0x40\n 15855: ecalli 5 // 'hash_keccak_256'\n 15857: a0 = u64 [sp + 0x258]\n 15861: a1 = u64 [sp + 0x250]\n 15865: a2 = u64 [sp + 0x248]\n 15869: a3 = u64 [sp + 0x240]\n 15873: a0 = reverse a0\n 15875: a1 = reverse a1\n 15877: a4 = u64 [sp + 0xc0]\n 15881: a4 = a4 + a1\n 15884: a5 = u64 [sp + 0xc8]\n 15888: a5 = a5 + a0\n 15891: a0 = a5 <u a0\n 15894: s1 = a4 + a0\n 15897: a4 = s1 ^ a1\n 15900: a1 = s1 <u a1\n 15903: a1 = a0 if a4 == 0\n 15906: a0 = reverse a3\n 15908: a2 = reverse a2\n 15910: a3 = u64 [sp + 0xd0]\n 15914: a3 = a3 + a2\n 15917: a4 = u64 [sp + 0xd8]\n 15921: a0 = a0 + a4\n 15924: a2 = a3 <u a2\n 15927: a0 = a0 + a2\n 15930: a2 = a3 + a1\n 15933: a1 = a2 <u a3\n 15936: a1 = a1 + a0\n 15939: u32 [sp + 512] = 0x20\n 15944: u64 [sp + 0xb0] = s1\n 15948: u64 [sp + 0x228] = s1\n 15952: u64 [sp + 0xb8] = a5\n 15956: u64 [sp + 0x220] = a5\n 15960: u64 [sp + 0xa8] = a2\n 15964: u64 [sp + 0x230] = a2\n 15968: u64 [sp + 0x88] = a1\n 15972: u64 [sp + 0x238] = a1\n 15976: u64 [sp + 600] = 0\n 15980: u64 [sp + 592] = 0\n 15984: u64 [sp + 584] = 0\n 15988: u64 [sp + 576] = 0\n 15992: i32 a1 = sp + 0x220\n 15996: i32 a3 = sp + 0x240\n 16000: i32 a4 = sp + 0x200\n 16004: a2 = 0xffffffffffffffff\n 16007: a0 = 0\n 16009: ecalli 4 // 'get_storage'\n 16011: fallthrough\n      : @269 (gas: 22)\n 16012: t1 = u64 [sp + 0x258]\n 16016: a3 = u64 [sp + 0x250]\n 16020: t0 = u64 [sp + 0x248]\n 16024: a2 = u64 [sp + 0x240]\n 16028: a4 = u64 [sp + 0xf8]\n 16032: a0 = t1 ^ a4\n 16035: a4 = t1 <u a4\n 16038: a5 = u64 [sp + 0xf0]\n 16042: a1 = a3 <u a5\n 16045: u64 [sp + 0x80] = a1\n 16049: a4 = a1 if a0 == 0\n 16052: a1 = u64 [sp + 0xe0]\n 16056: ra = t0 ^ a1\n 16059: s1 = t0 <u a1\n 16062: a1 = u64 [sp + 0xe8]\n 16066: u64 [sp + 0x60] = a2\n 16069: t2 = a2 <u a1\n 16072: s1 = t2 if ra == 0\n 16075: a5 = a5 ^ a3\n 16078: a0 = a0 | a5\n 16081: a4 = s1 if a0 == 0\n 16084: jump @288 if a4 != 0\n      : @270 (gas: 73)\n 16088: a0 = u64 [sp + 0xf0]\n 16092: a0 = a3 - a0\n 16095: a1 = a0 - s1\n 16098: u64 [sp + 0x78] = a1\n 16101: a0 = a0 <u s1\n 16104: a1 = u64 [sp + 0xf8]\n 16108: a2 = t1 - a1\n 16111: a1 = u64 [sp + 0x80]\n 16115: a2 = a2 - a1\n 16118: a2 = a2 - a0\n 16121: u64 [sp + 0x70] = a2\n 16124: a0 = 0xffffffff\n 16134: u64 [sp + 0x80] = a0\n 16138: a0 = u64 [sp + 0xe0]\n 16142: a0 = t0 - a0\n 16145: a0 = a0 - t2\n 16148: u64 [sp + 0x68] = a0\n 16151: a0 = u64 [sp + 0xe8]\n 16155: a1 = u64 [sp + 0x60]\n 16158: a0 = a1 - a0\n 16161: u64 [sp + 0x60] = a0\n 16164: a0 = u64 [sp + 0xa8]\n 16168: u64 [sp + 0x230] = a0\n 16172: a0 = u64 [sp + 0xb0]\n 16176: u64 [sp + 0x228] = a0\n 16180: a0 = u64 [sp + 0xb8]\n 16184: u64 [sp + 0x220] = a0\n 16188: s1 = u64 [sp + 0x88]\n 16192: u64 [sp + 0x238] = s1\n 16196: u64 [sp + 600] = 0\n 16200: u64 [sp + 592] = 0\n 16204: u64 [sp + 584] = 0\n 16208: u64 [sp + 576] = 0\n 16212: u32 [sp + 512] = 0x20\n 16217: i32 a1 = sp + 0x220\n 16221: i32 a3 = sp + 0x240\n 16225: i32 a4 = sp + 0x200\n 16229: a2 = 0xffffffffffffffff\n 16232: a0 = 0\n 16234: ecalli 4 // 'get_storage'\n 16236: u64 [sp + 0x238] = s1\n 16240: a0 = u64 [sp + 0xa8]\n 16244: u64 [sp + 0x230] = a0\n 16248: a0 = u64 [sp + 0xb0]\n 16252: u64 [sp + 0x228] = a0\n 16256: a0 = u64 [sp + 0xb8]\n 16260: u64 [sp + 0x220] = a0\n 16264: a0 = u64 [sp + 0x70]\n 16267: u64 [sp + 0x258] = a0\n 16271: a0 = u64 [sp + 0x78]\n 16274: u64 [sp + 0x250] = a0\n 16278: a0 = u64 [sp + 0x68]\n 16281: u64 [sp + 0x248] = a0\n 16285: a0 = u64 [sp + 0x60]\n 16288: u64 [sp + 0x240] = a0\n 16292: i32 a1 = sp + 0x220\n 16296: i32 a3 = sp + 0x240\n 16300: a2 = 0xffffffffffffffff\n 16303: a4 = 0x20\n 16306: a0 = 0\n 16308: ecalli 8 // 'set_storage'\n 16310: a0 = u64 [sp + 0x90]\n 16314: a0 = a0 & 0xffffffffffffffff\n 16317: u64 [sp + 0xb8] = a0\n 16321: a0 = u64 [sp + 0x98]\n 16325: a0 = a0 & 0xffffffffffffffff\n 16328: u64 [sp + 0xb0] = a0\n 16332: a0 = u64 [sp + 0xa0]\n 16336: s1 = u64 [sp + 0x80]\n 16340: s1 = s1 & a0\n 16343: a1 = 0x20\n 16346: a0 = 0\n 16348: ra = 230, jump @0\n      : @271 [@dyn 115] (gas: 58)\n 16354: a1 = reverse s1\n 16356: a2 = u64 [sp + 0xb0]\n 16360: a2 = reverse a2\n 16362: a3 = u64 [sp + 0xb8]\n 16366: a3 = reverse a3\n 16368: a4 = a3 >> 0x38\n 16371: u8 [a0 + 0x1f] = a4\n 16374: a4 = a3 >> 0x30\n 16377: u8 [a0 + 0x1e] = a4\n 16380: a4 = a3 >> 0x28\n 16383: u8 [a0 + 0x1d] = a4\n 16386: a4 = a3 >> 0x20\n 16389: u8 [a0 + 0x1c] = a4\n 16392: a4 = a3 >> 0x18\n 16395: u8 [a0 + 0x1b] = a4\n 16398: a4 = a3 >> 0x10\n 16401: u8 [a0 + 0x1a] = a4\n 16404: a4 = a3 >> 0x8\n 16407: u8 [a0 + 0x19] = a4\n 16410: u8 [a0 + 0x18] = a3\n 16413: a3 = a2 >> 0x38\n 16416: u8 [a0 + 0x17] = a3\n 16419: a3 = a2 >> 0x30\n 16422: u8 [a0 + 0x16] = a3\n 16425: a3 = a2 >> 0x28\n 16428: u8 [a0 + 0x15] = a3\n 16431: a3 = a2 >> 0x20\n 16434: u8 [a0 + 0x14] = a3\n 16437: a3 = a2 >> 0x18\n 16440: u8 [a0 + 0x13] = a3\n 16443: a3 = a2 >> 0x10\n 16446: u8 [a0 + 0x12] = a3\n 16449: a3 = a2 >> 0x8\n 16452: u8 [a0 + 0x11] = a3\n 16455: u8 [a0 + 0x10] = a2\n 16458: a2 = a1 >> 0x38\n 16461: u8 [a0 + 0xf] = a2\n 16464: a2 = a1 >> 0x30\n 16467: u8 [a0 + 0xe] = a2\n 16470: a2 = a1 >> 0x28\n 16473: u8 [a0 + 0xd] = a2\n 16476: a2 = a1 >> 0x20\n 16479: u8 [a0 + 0xc] = a2\n 16482: u8 [a0 + 11] = 0\n 16485: u8 [a0 + 10] = 0\n 16488: u8 [a0 + 9] = 0\n 16491: u8 [a0 + 0x8] = a1\n 16494: u8 [a0 + 7] = 0\n 16497: u8 [a0 + 6] = 0\n 16500: u8 [a0 + 5] = 0\n 16503: u8 [a0 + 4] = 0\n 16506: u8 [a0 + 3] = 0\n 16509: u8 [a0 + 2] = 0\n 16512: u8 [a0 + 1] = 0\n 16515: u8 [a0 + 0] = 0\n 16517: a0 = 0x20\n 16520: a1 = 0x20\n 16523: ra = 232, jump @0\n      : @272 [@dyn 116] (gas: 35)\n 16529: u8 [a0 + 31] = 0\n 16532: u8 [a0 + 30] = 0\n 16535: u8 [a0 + 29] = 0\n 16538: u8 [a0 + 28] = 0\n 16541: u8 [a0 + 27] = 0\n 16544: u8 [a0 + 26] = 0\n 16547: u8 [a0 + 25] = 0\n 16550: u8 [a0 + 24] = 0\n 16553: u8 [a0 + 23] = 0\n 16556: u8 [a0 + 22] = 0\n 16559: u8 [a0 + 21] = 0\n 16562: u8 [a0 + 20] = 0\n 16565: u8 [a0 + 19] = 0\n 16568: u8 [a0 + 18] = 0\n 16571: u8 [a0 + 17] = 0\n 16574: u8 [a0 + 16] = 0\n 16577: u8 [a0 + 15] = 0\n 16580: u8 [a0 + 14] = 0\n 16583: u8 [a0 + 13] = 0\n 16586: u8 [a0 + 12] = 0\n 16589: u8 [a0 + 11] = 0\n 16592: u8 [a0 + 10] = 0\n 16595: u8 [a0 + 9] = 0\n 16598: u8 [a0 + 8] = 0\n 16601: u8 [a0 + 7] = 0\n 16604: u8 [a0 + 6] = 0\n 16607: u8 [a0 + 5] = 0\n 16610: u8 [a0 + 4] = 0\n 16613: u8 [a0 + 3] = 0\n 16616: u8 [a0 + 2] = 0\n 16619: u8 [a0 + 1] = 0\n 16622: u8 [a0 + 0] = 0\n 16624: a1 = 0x40\n 16627: a0 = 0\n 16629: ra = 234, jump @0\n      : @273 [@dyn 117] (gas: 50)\n 16635: i32 a0 = a0 + 0\n 16637: i32 a2 = sp + 0x240\n 16641: a1 = 0x40\n 16644: ecalli 5 // 'hash_keccak_256'\n 16646: a0 = u64 [sp + 0x240]\n 16650: a1 = u64 [sp + 0x248]\n 16654: a2 = u64 [sp + 0x258]\n 16658: a3 = u64 [sp + 0x250]\n 16662: a0 = reverse a0\n 16664: a1 = reverse a1\n 16666: a2 = reverse a2\n 16668: a3 = reverse a3\n 16670: a4 = u64 [sp + 0xc0]\n 16674: a4 = a4 + a3\n 16677: a5 = u64 [sp + 0xc8]\n 16681: a5 = a5 + a2\n 16684: a2 = a5 <u a2\n 16687: s1 = a4 + a2\n 16690: a4 = s1 ^ a3\n 16693: a3 = s1 <u a3\n 16696: a3 = a2 if a4 == 0\n 16699: a2 = u64 [sp + 0xd0]\n 16703: a2 = a2 + a1\n 16706: a3 = a3 + a2\n 16709: t0 = a3 <u a2\n 16712: a4 = u64 [sp + 0xd8]\n 16716: a0 = a0 + a4\n 16719: a1 = a2 <u a1\n 16722: a0 = a0 + a1\n 16725: a0 = a0 + t0\n 16728: u64 [sp + 0xd0] = s1\n 16732: u64 [sp + 0x228] = s1\n 16736: u64 [sp + 0xd8] = a5\n 16740: u64 [sp + 0x220] = a5\n 16744: u64 [sp + 0xc8] = a3\n 16748: u64 [sp + 0x230] = a3\n 16752: u64 [sp + 0xc0] = a0\n 16756: u64 [sp + 0x238] = a0\n 16760: u64 [sp + 600] = 0\n 16764: u64 [sp + 592] = 0\n 16768: u64 [sp + 584] = 0\n 16772: u64 [sp + 576] = 0\n 16776: u32 [sp + 512] = 0x20\n 16781: i32 a1 = sp + 0x220\n 16785: i32 a3 = sp + 0x240\n 16789: i32 a4 = sp + 0x200\n 16793: a2 = 0xffffffffffffffff\n 16796: a0 = 0\n 16798: ecalli 4 // 'get_storage'\n 16800: fallthrough\n      : @274 (gas: 37)\n 16801: a3 = u64 [sp + 0x248]\n 16805: a1 = u64 [sp + 0x240]\n 16809: t0 = u64 [sp + 0x258]\n 16813: a2 = u64 [sp + 0x250]\n 16817: a5 = u64 [sp + 0xe0]\n 16821: a5 = a5 + a3\n 16824: a0 = u64 [sp + 0xe8]\n 16828: a0 = a0 + a1\n 16831: u64 [sp + 0xe8] = a0\n 16835: a4 = a0 <u a1\n 16838: a5 = a5 + a4\n 16841: t1 = a5 ^ a3\n 16844: u64 [sp + 0xe0] = a5\n 16848: a3 = a5 <u a3\n 16851: a5 = a4 ^ 0x1\n 16854: a4 = a3 if t1 != 0\n 16857: a0 = u64 [sp + 0xf0]\n 16861: a0 = a0 + a2\n 16864: s1 = a0 + a4\n 16867: a4 = s1 <u a0\n 16870: a1 = u64 [sp + 0xf8]\n 16874: a1 = a1 + t0\n 16877: a0 = a0 <u a2\n 16880: a0 = a0 + a1\n 16883: a4 = a4 + a0\n 16886: a0 = s1 <u a2\n 16889: a1 = a4 ^ t0\n 16892: u64 [sp + 0xf8] = a4\n 16896: a4 = a4 <u t0\n 16899: a4 = a0 if a1 == 0\n 16902: a0 = a4 ^ 0x1\n 16905: a2 = a2 ^ s1\n 16908: a1 = a1 | a2\n 16911: a2 = a3 ^ 0x1\n 16914: a5 = a2 if t1 != 0\n 16917: a5 = a0 if a1 != 0\n 16920: jump @290 if a5 == 0\n      : @275 (gas: 46)\n 16924: a0 = u64 [sp + 0xc8]\n 16928: u64 [sp + 0x230] = a0\n 16932: a0 = u64 [sp + 0xd0]\n 16936: u64 [sp + 0x228] = a0\n 16940: a0 = u64 [sp + 0xd8]\n 16944: u64 [sp + 0x220] = a0\n 16948: a0 = u64 [sp + 0xc0]\n 16952: u64 [sp + 0x238] = a0\n 16956: u64 [sp + 600] = 0\n 16960: u64 [sp + 592] = 0\n 16964: u64 [sp + 584] = 0\n 16968: u64 [sp + 576] = 0\n 16972: u32 [sp + 512] = 0x20\n 16977: i32 a1 = sp + 0x220\n 16981: i32 a3 = sp + 0x240\n 16985: i32 a4 = sp + 0x200\n 16989: a2 = 0xffffffffffffffff\n 16992: a0 = 0\n 16994: ecalli 4 // 'get_storage'\n 16996: a0 = u64 [sp + 0xc0]\n 17000: u64 [sp + 0x238] = a0\n 17004: a0 = u64 [sp + 0xc8]\n 17008: u64 [sp + 0x230] = a0\n 17012: a0 = u64 [sp + 0xd0]\n 17016: u64 [sp + 0x228] = a0\n 17020: a0 = u64 [sp + 0xd8]\n 17024: u64 [sp + 0x220] = a0\n 17028: a0 = u64 [sp + 0xf8]\n 17032: u64 [sp + 0x258] = a0\n 17036: u64 [sp + 0x250] = s1\n 17040: a0 = u64 [sp + 0xe0]\n 17044: u64 [sp + 0x248] = a0\n 17048: a0 = u64 [sp + 0xe8]\n 17052: u64 [sp + 0x240] = a0\n 17056: i32 a1 = sp + 0x220\n 17060: i32 a3 = sp + 0x240\n 17064: a2 = 0xffffffffffffffff\n 17067: a4 = 0x20\n 17070: a0 = 0\n 17072: ecalli 8 // 'set_storage'\n 17074: sp = s0 + 0xfffffffffffffd80\n 17078: ra = u64 [sp + 0x278]\n 17082: s0 = u64 [sp + 0x270]\n 17086: s1 = u64 [sp + 0x268]\n 17090: sp = sp + 0x280\n 17094: ret\n      : @276 (gas: 3)\n 17096: a0 = 0x40\n 17099: a1 = 0x20\n 17102: ra = 236, jump @0\n      : @277 [@dyn 118] (gas: 103)\n 17108: a1 = u8 [a0 + 0x11]\n 17111: a2 = u8 [a0 + 0x10]\n 17114: a3 = u8 [a0 + 0x12]\n 17117: a4 = u8 [a0 + 0x13]\n 17120: a1 = a1 << 0x8\n 17123: a1 = a1 | a2\n 17126: a3 = a3 << 0x10\n 17129: a4 = a4 << 0x18\n 17132: a3 = a3 | a4\n 17135: a1 = a1 | a3\n 17138: a2 = u8 [a0 + 0x15]\n 17141: a3 = u8 [a0 + 0x14]\n 17144: a4 = u8 [a0 + 0x16]\n 17147: a5 = u8 [a0 + 0x17]\n 17150: a2 = a2 << 0x8\n 17153: a2 = a2 | a3\n 17156: a4 = a4 << 0x10\n 17159: a5 = a5 << 0x18\n 17162: a4 = a4 | a5\n 17165: a2 = a2 | a4\n 17168: a2 = a2 << 0x20\n 17171: t0 = a2 | a1\n 17174: a2 = u8 [a0 + 0x1]\n 17177: a3 = u8 [a0]\n 17179: a4 = u8 [a0 + 0x2]\n 17182: a5 = u8 [a0 + 0x3]\n 17185: a2 = a2 << 0x8\n 17188: a2 = a2 | a3\n 17191: a4 = a4 << 0x10\n 17194: a5 = a5 << 0x18\n 17197: a4 = a4 | a5\n 17200: a2 = a2 | a4\n 17203: a3 = u8 [a0 + 0x5]\n 17206: a4 = u8 [a0 + 0x4]\n 17209: a5 = u8 [a0 + 0x6]\n 17212: s1 = u8 [a0 + 0x7]\n 17215: a3 = a3 << 0x8\n 17218: a3 = a3 | a4\n 17221: a5 = a5 << 0x10\n 17224: s1 = s1 << 0x18\n 17227: a5 = a5 | s1\n 17230: a3 = a3 | a5\n 17233: a3 = a3 << 0x20\n 17236: a2 = a2 | a3\n 17239: a3 = u8 [a0 + 0x19]\n 17242: a4 = u8 [a0 + 0x18]\n 17245: a5 = u8 [a0 + 0x1a]\n 17248: s1 = u8 [a0 + 0x1b]\n 17251: a3 = a3 << 0x8\n 17254: a3 = a3 | a4\n 17257: a5 = a5 << 0x10\n 17260: s1 = s1 << 0x18\n 17263: a5 = a5 | s1\n 17266: a3 = a3 | a5\n 17269: a4 = u8 [a0 + 0x1d]\n 17272: a5 = u8 [a0 + 0x1c]\n 17275: s1 = u8 [a0 + 0x1e]\n 17278: a1 = u8 [a0 + 0x1f]\n 17281: a4 = a4 << 0x8\n 17284: a4 = a4 | a5\n 17287: s1 = s1 << 0x10\n 17290: a1 = a1 << 0x18\n 17293: a1 = a1 | s1\n 17296: a1 = a1 | a4\n 17299: a1 = a1 << 0x20\n 17302: a3 = a3 | a1\n 17305: a1 = u8 [a0 + 0x9]\n 17308: a4 = u8 [a0 + 0x8]\n 17311: a5 = u8 [a0 + 0xa]\n 17314: s1 = u8 [a0 + 0xb]\n 17317: a1 = a1 << 0x8\n 17320: a1 = a1 | a4\n 17323: a5 = a5 << 0x10\n 17326: s1 = s1 << 0x18\n 17329: a5 = a5 | s1\n 17332: a1 = a1 | a5\n 17335: a4 = u8 [a0 + 0xd]\n 17338: a5 = u8 [a0 + 0xc]\n 17341: s1 = u8 [a0 + 0xe]\n 17344: a0 = u8 [a0 + 0xf]\n 17347: a4 = a4 << 0x8\n 17350: a4 = a4 | a5\n 17353: s1 = s1 << 0x10\n 17356: a0 = a0 << 0x18\n 17359: a0 = a0 | s1\n 17362: a0 = a0 | a4\n 17365: a0 = a0 << 0x20\n 17368: a0 = a0 | a1\n 17371: s1 = reverse a0\n 17373: a1 = reverse a3\n 17375: a2 = reverse a2\n 17377: a0 = reverse t0\n 17379: u64 [sp + 0xf8] = a0\n 17383: u64 [sp + 0xf0] = a2\n 17387: a0 = a0 | a2\n 17390: a2 = a1\n 17392: a1 = a1 | s1\n 17395: a1 = a1 | a0\n 17398: a1 = a1 >> 0x20\n 17401: a0 = a0 | s1\n 17404: a0 = a0 << 0x20\n 17407: a0 = a0 | a1\n 17410: jump @287 if a0 != 0\n      : @278 (gas: 5)\n 17414: u64 [sp + 0xe8] = a2\n 17418: i32 a0 = a2 + 0\n 17420: a1 = 0x20\n 17423: u64 [sp + 0xe0] = a0\n 17427: ra = 238, jump @0\n      : @279 [@dyn 119] (gas: 50)\n 17433: u8 [a0 + 31] = 0\n 17436: u8 [a0 + 30] = 0\n 17439: u8 [a0 + 29] = 0\n 17442: u8 [a0 + 28] = 0\n 17445: u8 [a0 + 27] = 0\n 17448: u8 [a0 + 26] = 0\n 17451: u8 [a0 + 25] = 0\n 17454: u8 [a0 + 24] = 0\n 17457: u8 [a0 + 23] = 0\n 17460: u8 [a0 + 22] = 0\n 17463: u8 [a0 + 21] = 0\n 17466: u8 [a0 + 20] = 0\n 17469: u8 [a0 + 19] = 0\n 17472: u8 [a0 + 18] = 0\n 17475: u8 [a0 + 17] = 0\n 17478: u8 [a0 + 16] = 0\n 17481: u8 [a0 + 15] = 0\n 17484: u8 [a0 + 14] = 0\n 17487: u8 [a0 + 13] = 0\n 17490: u8 [a0 + 12] = 0\n 17493: u8 [a0 + 11] = 0\n 17496: u8 [a0 + 10] = 0\n 17499: u8 [a0 + 9] = 0\n 17502: u8 [a0 + 8] = 0\n 17505: u8 [a0 + 7] = 0\n 17508: u8 [a0 + 6] = 0\n 17511: u8 [a0 + 5] = 0\n 17514: u8 [a0 + 4] = 0\n 17517: u8 [a0 + 3] = 0xa0\n 17522: u8 [a0 + 2] = 0x79\n 17526: u8 [a0 + 1] = 0xc3\n 17531: u8 [a0 + 0] = 0x8\n 17534: a1 = u64 [sp + 0xe8]\n 17538: a0 = a1 + 0x4\n 17541: a1 = a0 <u a1\n 17544: a3 = u64 [sp + 0xf8]\n 17548: a2 = a3 + a1\n 17551: a3 = a2 <u a3\n 17554: a3 = a1 if a1 == 0\n 17557: a3 = a3 + s1\n 17560: a1 = a3 <u s1\n 17563: a4 = u64 [sp + 0xf0]\n 17567: a4 = a4 + a1\n 17570: u64 [sp + 0x108] = a2\n 17574: u64 [sp + 0x100] = a0\n 17578: u64 [sp + 0x110] = a3\n 17582: a0 = sp + 0x120\n 17586: a1 = sp + 0x100\n 17590: u64 [sp + 0x118] = a4\n 17594: ra = 240, jump @243\n      : @280 [@dyn 120] (gas: 5)\n 17600: a0 = u64 [sp + 0x128]\n 17604: t0 = u64 [sp + 0x138]\n 17608: t1 = u64 [sp + 0x120]\n 17612: a3 = u64 [sp + 0x130]\n 17616: jump @286\n      : @281 (gas: 3)\n 17619: a0 = 0x40\n 17622: a1 = 0x20\n 17625: ra = 242, jump @0\n      : @282 [@dyn 121] (gas: 103)\n 17631: a1 = u8 [a0 + 0x11]\n 17634: a2 = u8 [a0 + 0x10]\n 17637: a3 = u8 [a0 + 0x12]\n 17640: a4 = u8 [a0 + 0x13]\n 17643: a1 = a1 << 0x8\n 17646: a1 = a1 | a2\n 17649: a3 = a3 << 0x10\n 17652: a4 = a4 << 0x18\n 17655: a3 = a3 | a4\n 17658: a1 = a1 | a3\n 17661: a2 = u8 [a0 + 0x15]\n 17664: a3 = u8 [a0 + 0x14]\n 17667: a4 = u8 [a0 + 0x16]\n 17670: a5 = u8 [a0 + 0x17]\n 17673: a2 = a2 << 0x8\n 17676: a2 = a2 | a3\n 17679: a4 = a4 << 0x10\n 17682: a5 = a5 << 0x18\n 17685: a4 = a4 | a5\n 17688: a2 = a2 | a4\n 17691: a2 = a2 << 0x20\n 17694: t0 = a2 | a1\n 17697: a2 = u8 [a0 + 0x1]\n 17700: a3 = u8 [a0]\n 17702: a4 = u8 [a0 + 0x2]\n 17705: a5 = u8 [a0 + 0x3]\n 17708: a2 = a2 << 0x8\n 17711: a2 = a2 | a3\n 17714: a4 = a4 << 0x10\n 17717: a5 = a5 << 0x18\n 17720: a4 = a4 | a5\n 17723: a2 = a2 | a4\n 17726: a3 = u8 [a0 + 0x5]\n 17729: a4 = u8 [a0 + 0x4]\n 17732: a5 = u8 [a0 + 0x6]\n 17735: s1 = u8 [a0 + 0x7]\n 17738: a3 = a3 << 0x8\n 17741: a3 = a3 | a4\n 17744: a5 = a5 << 0x10\n 17747: s1 = s1 << 0x18\n 17750: a5 = a5 | s1\n 17753: a3 = a3 | a5\n 17756: a3 = a3 << 0x20\n 17759: a2 = a2 | a3\n 17762: a3 = u8 [a0 + 0x19]\n 17765: a4 = u8 [a0 + 0x18]\n 17768: a5 = u8 [a0 + 0x1a]\n 17771: s1 = u8 [a0 + 0x1b]\n 17774: a3 = a3 << 0x8\n 17777: a3 = a3 | a4\n 17780: a5 = a5 << 0x10\n 17783: s1 = s1 << 0x18\n 17786: a5 = a5 | s1\n 17789: a3 = a3 | a5\n 17792: a4 = u8 [a0 + 0x1d]\n 17795: a5 = u8 [a0 + 0x1c]\n 17798: s1 = u8 [a0 + 0x1e]\n 17801: a1 = u8 [a0 + 0x1f]\n 17804: a4 = a4 << 0x8\n 17807: a4 = a4 | a5\n 17810: s1 = s1 << 0x10\n 17813: a1 = a1 << 0x18\n 17816: a1 = a1 | s1\n 17819: a1 = a1 | a4\n 17822: a1 = a1 << 0x20\n 17825: a3 = a3 | a1\n 17828: a1 = u8 [a0 + 0x9]\n 17831: a4 = u8 [a0 + 0x8]\n 17834: a5 = u8 [a0 + 0xa]\n 17837: s1 = u8 [a0 + 0xb]\n 17840: a1 = a1 << 0x8\n 17843: a1 = a1 | a4\n 17846: a5 = a5 << 0x10\n 17849: s1 = s1 << 0x18\n 17852: a5 = a5 | s1\n 17855: a1 = a1 | a5\n 17858: a4 = u8 [a0 + 0xd]\n 17861: a5 = u8 [a0 + 0xc]\n 17864: s1 = u8 [a0 + 0xe]\n 17867: a0 = u8 [a0 + 0xf]\n 17870: a4 = a4 << 0x8\n 17873: a4 = a4 | a5\n 17876: s1 = s1 << 0x10\n 17879: a0 = a0 << 0x18\n 17882: a0 = a0 | s1\n 17885: a0 = a0 | a4\n 17888: a0 = a0 << 0x20\n 17891: a0 = a0 | a1\n 17894: s1 = reverse a0\n 17896: a1 = reverse a3\n 17898: a2 = reverse a2\n 17900: a0 = reverse t0\n 17902: u64 [sp + 0xf8] = a0\n 17906: u64 [sp + 0xf0] = a2\n 17910: a0 = a0 | a2\n 17913: a2 = a1\n 17915: a1 = a1 | s1\n 17918: a1 = a1 | a0\n 17921: a1 = a1 >> 0x20\n 17924: a0 = a0 | s1\n 17927: a0 = a0 << 0x20\n 17930: a0 = a0 | a1\n 17933: jump @287 if a0 != 0\n      : @283 (gas: 5)\n 17937: u64 [sp + 0xe8] = a2\n 17941: i32 a0 = a2 + 0\n 17943: a1 = 0x20\n 17946: u64 [sp + 0xe0] = a0\n 17950: ra = 244, jump @0\n      : @284 [@dyn 122] (gas: 50)\n 17956: u8 [a0 + 31] = 0\n 17959: u8 [a0 + 30] = 0\n 17962: u8 [a0 + 29] = 0\n 17965: u8 [a0 + 28] = 0\n 17968: u8 [a0 + 27] = 0\n 17971: u8 [a0 + 26] = 0\n 17974: u8 [a0 + 25] = 0\n 17977: u8 [a0 + 24] = 0\n 17980: u8 [a0 + 23] = 0\n 17983: u8 [a0 + 22] = 0\n 17986: u8 [a0 + 21] = 0\n 17989: u8 [a0 + 20] = 0\n 17992: u8 [a0 + 19] = 0\n 17995: u8 [a0 + 18] = 0\n 17998: u8 [a0 + 17] = 0\n 18001: u8 [a0 + 16] = 0\n 18004: u8 [a0 + 15] = 0\n 18007: u8 [a0 + 14] = 0\n 18010: u8 [a0 + 13] = 0\n 18013: u8 [a0 + 12] = 0\n 18016: u8 [a0 + 11] = 0\n 18019: u8 [a0 + 10] = 0\n 18022: u8 [a0 + 9] = 0\n 18025: u8 [a0 + 8] = 0\n 18028: u8 [a0 + 7] = 0\n 18031: u8 [a0 + 6] = 0\n 18034: u8 [a0 + 5] = 0\n 18037: u8 [a0 + 4] = 0\n 18040: u8 [a0 + 3] = 0xa0\n 18045: u8 [a0 + 2] = 0x79\n 18049: u8 [a0 + 1] = 0xc3\n 18054: u8 [a0 + 0] = 0x8\n 18057: a1 = u64 [sp + 0xe8]\n 18061: a0 = a1 + 0x4\n 18064: a1 = a0 <u a1\n 18067: a3 = u64 [sp + 0xf8]\n 18071: a2 = a3 + a1\n 18074: a3 = a2 <u a3\n 18077: a3 = a1 if a1 == 0\n 18080: a3 = a3 + s1\n 18083: a1 = a3 <u s1\n 18086: a4 = u64 [sp + 0xf0]\n 18090: a4 = a4 + a1\n 18093: u64 [sp + 0x148] = a2\n 18097: u64 [sp + 0x140] = a0\n 18101: u64 [sp + 0x150] = a3\n 18105: a0 = sp + 0x160\n 18109: a1 = sp + 0x140\n 18113: u64 [sp + 0x158] = a4\n 18117: ra = 246, jump @251\n      : @285 [@dyn 123] (gas: 5)\n 18123: a0 = u64 [sp + 0x168]\n 18127: t0 = u64 [sp + 0x178]\n 18131: t1 = u64 [sp + 0x160]\n 18135: a3 = u64 [sp + 0x170]\n 18139: fallthrough\n      : @286 (gas: 26)\n 18140: a1 = u64 [sp + 0xf8]\n 18144: a4 = a0 ^ a1\n 18147: a5 = a0 <u a1\n 18150: t2 = a1\n 18152: a2 = u64 [sp + 0xe8]\n 18156: a1 = t1 <u a2\n 18159: a5 = a1 if a4 == 0\n 18162: a4 = a3 - s1\n 18165: a3 = a3 <u s1\n 18168: s1 = u64 [sp + 0xf0]\n 18172: s1 = t0 - s1\n 18175: s1 = s1 - a3\n 18178: a3 = a4 <u a5\n 18181: s1 = s1 - a3\n 18184: a4 = a4 - a5\n 18187: a0 = a0 - t2\n 18190: a1 = a0 - a1\n 18193: a0 = t1 - a2\n 18196: a1 = a1 | s1\n 18199: a2 = a0 | a4\n 18202: a2 = a2 | a1\n 18205: a1 = a1 | a4\n 18208: a2 = a2 >> 0x20\n 18211: a1 = a1 << 0x20\n 18214: a1 = a1 | a2\n 18217: jump @294 if a1 == 0\n      : @287 (gas: 1)\n 18221: trap\n      : @288 (gas: 8)\n 18222: u64 [sp + 432] = 0\n 18226: u64 [sp + 424] = 0\n 18230: u64 [sp + 416] = 0\n 18234: a0 = 0x4e487b7100000000\n 18244: a1 = sp + 0x1a0\n 18248: u64 [sp + 0x1b8] = a0\n 18252: a0 = 0\n 18254: ra = 248, jump @8\n      : @289 [@dyn 124] (gas: 8)\n 18260: u64 [sp + 408] = 0\n 18264: u64 [sp + 400] = 0\n 18268: u64 [sp + 384] = 0x11\n 18273: a0 = 0x4\n 18276: a1 = sp + 0x180\n 18280: u64 [sp + 392] = 0\n 18284: ra = 0xfc\n 18288: jump @8\n      : @290 (gas: 8)\n 18291: u64 [sp + 496] = 0\n 18295: u64 [sp + 488] = 0\n 18299: u64 [sp + 480] = 0\n 18303: a0 = 0x4e487b7100000000\n 18313: a1 = sp + 0x1e0\n 18317: u64 [sp + 0x1f8] = a0\n 18321: a0 = 0\n 18323: ra = 250, jump @8\n      : @291 [@dyn 125] (gas: 7)\n 18329: u64 [sp + 472] = 0\n 18333: u64 [sp + 464] = 0\n 18337: u64 [sp + 448] = 0x11\n 18342: a0 = 0x4\n 18345: a1 = sp + 0x1c0\n 18349: u64 [sp + 456] = 0\n 18353: ra = 252, jump @8\n      : @292 [@dyn 126] (gas: 3)\n 18359: a1 = 0x24\n 18362: a0 = 0\n 18364: ra = 254, jump @0\n      : @293 [@dyn 127] (gas: 5)\n 18370: i32 a1 = a0 + 0\n 18372: a0 = 0x1\n 18375: a2 = 0x24\n 18378: ecalli 6 // 'seal_return'\n 18380: fallthrough\n      : @294 (gas: 4)\n 18381: i32 s1 = a0 + 0\n 18383: a0 = u64 [sp + 0xe0]\n 18387: a1 = s1\n 18389: ra = 256, jump @0\n      : @295 [@dyn 128] (gas: 6)\n 18395: i32 a1 = a0 + 0\n 18397: a0 = 0x1\n 18400: a2 = s1\n 18402: ra = 0x102\n 18406: ecalli 6 // 'seal_return'\n 18408: fallthrough\n      : @296 [@dyn 129] (gas: 18)\n 18409: a2 = u64 [a1]\n 18411: t0 = u64 [a1 + 0x18]\n 18414: a4 = u64 [a1 + 0x8]\n 18417: a1 = u64 [a1 + 0x10]\n 18420: a5 = a2 + 0x1f\n 18423: a2 = a5 <u a2\n 18426: a3 = a4 + a2\n 18429: a4 = a3 <u a4\n 18432: a4 = a2 if a2 == 0\n 18435: a4 = a4 + a1\n 18438: a1 = a4 <u a1\n 18441: a1 = a1 + t0\n 18444: a5 = a5 & 0xffffffffffffffe0\n 18447: u64 [a0] = a5\n 18449: u64 [a0 + 0x8] = a3\n 18452: u64 [a0 + 0x10] = a4\n 18455: u64 [a0 + 0x18] = a1\n 18458: ret\n      : @297 (gas: 18)\n 18460: sp = sp + 0xffffffffffffff60\n 18464: u64 [sp + 0x98] = ra\n 18468: u64 [sp + 0x90] = s0\n 18472: u64 [sp + 0x88] = s1\n 18476: s0 = sp + 0xa0\n 18480: sp = sp & 0xfffffffffffffff0\n 18483: a2 = u64 [a1 + 0x18]\n 18486: u64 [sp + 0x30] = a2\n 18489: a2 = u64 [a1 + 0x10]\n 18492: u64 [sp + 0x28] = a2\n 18495: a2 = u64 [a1 + 0x8]\n 18498: u64 [sp + 0x20] = a2\n 18501: a1 = u64 [a1]\n 18503: u64 [sp + 0x18] = a1\n 18506: u64 [sp + 0x38] = a0\n 18509: a0 = 0x40\n 18512: a1 = 0x20\n 18515: ra = 260, jump @0\n      : @298 [@dyn 130] (gas: 130)\n 18521: a1 = u8 [a0 + 0x19]\n 18524: a2 = u8 [a0 + 0x18]\n 18527: a3 = u8 [a0 + 0x1a]\n 18530: a4 = u8 [a0 + 0x1b]\n 18533: a1 = a1 << 0x8\n 18536: a1 = a1 | a2\n 18539: a3 = a3 << 0x10\n 18542: a4 = a4 << 0x18\n 18545: a3 = a3 | a4\n 18548: a1 = a1 | a3\n 18551: a2 = u8 [a0 + 0x1d]\n 18554: a3 = u8 [a0 + 0x1c]\n 18557: a4 = u8 [a0 + 0x1e]\n 18560: a5 = u8 [a0 + 0x1f]\n 18563: a2 = a2 << 0x8\n 18566: a2 = a2 | a3\n 18569: a4 = a4 << 0x10\n 18572: a5 = a5 << 0x18\n 18575: a4 = a4 | a5\n 18578: a2 = a2 | a4\n 18581: a2 = a2 << 0x20\n 18584: t0 = a2 | a1\n 18587: a2 = u8 [a0 + 0x11]\n 18590: a3 = u8 [a0 + 0x10]\n 18593: a4 = u8 [a0 + 0x12]\n 18596: a5 = u8 [a0 + 0x13]\n 18599: a2 = a2 << 0x8\n 18602: a2 = a2 | a3\n 18605: a4 = a4 << 0x10\n 18608: a5 = a5 << 0x18\n 18611: a4 = a4 | a5\n 18614: a2 = a2 | a4\n 18617: a3 = u8 [a0 + 0x15]\n 18620: a4 = u8 [a0 + 0x14]\n 18623: a5 = u8 [a0 + 0x16]\n 18626: s1 = u8 [a0 + 0x17]\n 18629: a3 = a3 << 0x8\n 18632: a3 = a3 | a4\n 18635: a5 = a5 << 0x10\n 18638: s1 = s1 << 0x18\n 18641: a5 = a5 | s1\n 18644: a3 = a3 | a5\n 18647: a3 = a3 << 0x20\n 18650: a2 = a2 | a3\n 18653: a3 = u8 [a0 + 0x9]\n 18656: a4 = u8 [a0 + 0x8]\n 18659: a5 = u8 [a0 + 0xa]\n 18662: s1 = u8 [a0 + 0xb]\n 18665: a3 = a3 << 0x8\n 18668: a3 = a3 | a4\n 18671: a5 = a5 << 0x10\n 18674: s1 = s1 << 0x18\n 18677: a5 = a5 | s1\n 18680: a3 = a3 | a5\n 18683: a4 = u8 [a0 + 0xd]\n 18686: a5 = u8 [a0 + 0xc]\n 18689: s1 = u8 [a0 + 0xe]\n 18692: a1 = u8 [a0 + 0xf]\n 18695: a4 = a4 << 0x8\n 18698: a4 = a4 | a5\n 18701: s1 = s1 << 0x10\n 18704: a1 = a1 << 0x18\n 18707: a1 = a1 | s1\n 18710: a1 = a1 | a4\n 18713: a1 = a1 << 0x20\n 18716: a3 = a3 | a1\n 18719: a1 = u8 [a0 + 0x1]\n 18722: a4 = u8 [a0]\n 18724: a5 = u8 [a0 + 0x2]\n 18727: s1 = u8 [a0 + 0x3]\n 18730: a1 = a1 << 0x8\n 18733: a1 = a1 | a4\n 18736: a5 = a5 << 0x10\n 18739: s1 = s1 << 0x18\n 18742: a5 = a5 | s1\n 18745: a1 = a1 | a5\n 18748: a4 = u8 [a0 + 0x5]\n 18751: a5 = u8 [a0 + 0x4]\n 18754: s1 = u8 [a0 + 0x6]\n 18757: a0 = u8 [a0 + 0x7]\n 18760: a4 = a4 << 0x8\n 18763: a4 = a4 | a5\n 18766: s1 = s1 << 0x10\n 18769: a0 = a0 << 0x18\n 18772: a0 = a0 | s1\n 18775: a0 = a0 | a4\n 18778: a0 = a0 << 0x20\n 18781: a0 = a0 | a1\n 18784: t1 = reverse a0\n 18786: t2 = reverse a3\n 18788: s1 = reverse a2\n 18790: a5 = reverse t0\n 18792: a1 = u64 [sp + 0x18]\n 18795: a0 = a1 + 0x1f\n 18798: a1 = a0 <u a1\n 18801: a3 = u64 [sp + 0x20]\n 18804: a2 = a3 + a1\n 18807: a3 = a2 <u a3\n 18810: a3 = a1 if a1 == 0\n 18813: a1 = u64 [sp + 0x28]\n 18816: a3 = a3 + a1\n 18819: a1 = a3 <u a1\n 18822: a4 = u64 [sp + 0x30]\n 18825: a1 = a1 + a4\n 18828: a0 = a0 & 0xffffffffffffffe0\n 18831: a0 = a0 + a5\n 18834: u64 [sp + 0x28] = a5\n 18837: u64 [sp + 0x10] = a0\n 18840: a4 = a0 <u a5\n 18843: a2 = a2 + s1\n 18846: a5 = a2 + a4\n 18849: a2 = a5 ^ s1\n 18852: u64 [sp + 0x30] = s1\n 18855: a0 = a5 <u s1\n 18858: a0 = a4 if a2 == 0\n 18861: a3 = a3 + t2\n 18864: a4 = a3 + a0\n 18867: s1 = a4 <u a3\n 18870: a2 = a3 <u t2\n 18873: a1 = a1 + t1\n 18876: a1 = a1 + a2\n 18879: s1 = s1 + a1\n 18882: a1 = a4 >u 0\n 18884: a2 = s1 >u 0\n 18886: a2 = a1 if s1 == 0\n 18889: a1 = a4 | s1\n 18892: u64 [sp + 0x8] = a5\n 18895: a3 = a5 >u 0\n 18897: a3 = a2 if a1 != 0\n 18900: jump @302 if a3 != 0\n      : @299 (gas: 8)\n 18904: a1 = a4 <u t2\n 18907: a2 = s1 ^ t1\n 18910: a3 = s1 <u t1\n 18913: a3 = a1 if a2 == 0\n 18916: a1 = a4 ^ t2\n 18919: a1 = a1 | a2\n 18922: a0 = a3 if a1 != 0\n 18925: jump @302 if a0 != 0\n      : @300 (gas: 6)\n 18929: a0 = 0x40\n 18932: a1 = 0x20\n 18935: u64 [sp + 0x20] = t2\n 18938: u64 [sp + 0x18] = t1\n 18941: u64 [sp] = a4\n 18943: ra = 262, jump @0\n      : @301 [@dyn 131] (gas: 82)\n 18949: a1 = reverse s1\n 18951: a2 = u64 [sp]\n 18953: a2 = reverse a2\n 18955: a3 = u64 [sp + 0x8]\n 18958: a3 = reverse a3\n 18960: a4 = u64 [sp + 0x10]\n 18963: a4 = reverse a4\n 18965: u8 [a0 + 0x18] = a4\n 18968: a5 = a4 >> 0x38\n 18971: u8 [a0 + 0x1f] = a5\n 18974: a5 = a4 >> 0x30\n 18977: u8 [a0 + 0x1e] = a5\n 18980: a5 = a4 >> 0x28\n 18983: u8 [a0 + 0x1d] = a5\n 18986: a5 = a4 >> 0x20\n 18989: u8 [a0 + 0x1c] = a5\n 18992: a5 = a4 >> 0x18\n 18995: u8 [a0 + 0x1b] = a5\n 18998: a5 = a4 >> 0x10\n 19001: u8 [a0 + 0x1a] = a5\n 19004: a4 = a4 >> 0x8\n 19007: u8 [a0 + 0x19] = a4\n 19010: u8 [a0 + 0x10] = a3\n 19013: a4 = a3 >> 0x38\n 19016: u8 [a0 + 0x17] = a4\n 19019: a4 = a3 >> 0x30\n 19022: u8 [a0 + 0x16] = a4\n 19025: a4 = a3 >> 0x28\n 19028: u8 [a0 + 0x15] = a4\n 19031: a4 = a3 >> 0x20\n 19034: u8 [a0 + 0x14] = a4\n 19037: a4 = a3 >> 0x18\n 19040: u8 [a0 + 0x13] = a4\n 19043: a4 = a3 >> 0x10\n 19046: u8 [a0 + 0x12] = a4\n 19049: a3 = a3 >> 0x8\n 19052: u8 [a0 + 0x11] = a3\n 19055: u8 [a0 + 0x8] = a2\n 19058: a3 = a2 >> 0x38\n 19061: u8 [a0 + 0xf] = a3\n 19064: a3 = a2 >> 0x30\n 19067: u8 [a0 + 0xe] = a3\n 19070: a3 = a2 >> 0x28\n 19073: u8 [a0 + 0xd] = a3\n 19076: a3 = a2 >> 0x20\n 19079: u8 [a0 + 0xc] = a3\n 19082: a3 = a2 >> 0x18\n 19085: u8 [a0 + 0xb] = a3\n 19088: a3 = a2 >> 0x10\n 19091: u8 [a0 + 0xa] = a3\n 19094: a2 = a2 >> 0x8\n 19097: u8 [a0 + 0x9] = a2\n 19100: u8 [a0] = a1\n 19102: a2 = a1 >> 0x38\n 19105: u8 [a0 + 0x7] = a2\n 19108: a2 = a1 >> 0x30\n 19111: u8 [a0 + 0x6] = a2\n 19114: a2 = a1 >> 0x28\n 19117: u8 [a0 + 0x5] = a2\n 19120: a2 = a1 >> 0x20\n 19123: u8 [a0 + 0x4] = a2\n 19126: a2 = a1 >> 0x18\n 19129: u8 [a0 + 0x3] = a2\n 19132: a2 = a1 >> 0x10\n 19135: u8 [a0 + 0x2] = a2\n 19138: a1 = a1 >> 0x8\n 19141: u8 [a0 + 0x1] = a1\n 19144: a0 = u64 [sp + 0x38]\n 19147: a1 = u64 [sp + 0x28]\n 19150: u64 [a0] = a1\n 19152: a1 = u64 [sp + 0x18]\n 19155: u64 [a0 + 0x18] = a1\n 19158: a1 = u64 [sp + 0x30]\n 19161: u64 [a0 + 0x8] = a1\n 19164: a1 = u64 [sp + 0x20]\n 19167: u64 [a0 + 0x10] = a1\n 19170: sp = s0 + 0xffffffffffffff60\n 19174: ra = u64 [sp + 0x98]\n 19178: s0 = u64 [sp + 0x90]\n 19182: s1 = u64 [sp + 0x88]\n 19186: sp = sp + 0xa0\n 19190: ret\n      : @302 (gas: 8)\n 19192: u64 [sp + 112] = 0\n 19195: u64 [sp + 104] = 0\n 19198: u64 [sp + 96] = 0\n 19201: a0 = 0x4e487b7100000000\n 19211: a1 = sp + 0x60\n 19214: u64 [sp + 0x78] = a0\n 19217: a0 = 0\n 19219: ra = 264, jump @8\n      : @303 [@dyn 132] (gas: 7)\n 19225: u64 [sp + 88] = 0\n 19228: u64 [sp + 80] = 0\n 19231: u64 [sp + 64] = 0x41\n 19235: a0 = 0x4\n 19238: a1 = sp + 0x40\n 19241: u64 [sp + 72] = 0\n 19244: ra = 266, jump @8\n      : @304 [@dyn 133] (gas: 3)\n 19250: a1 = 0x24\n 19253: a0 = 0\n 19255: ra = 268, jump @0\n      : @305 [@dyn 134] (gas: 6)\n 19261: i32 a1 = a0 + 0\n 19263: a0 = 0x1\n 19266: a2 = 0x24\n 19269: ra = 0x10e\n 19273: ecalli 6 // 'seal_return'\n 19275: fallthrough\n      : @306 [@dyn 135] (gas: 7)\n 19276: a4 = u64 [a1 + 0x18]\n 19279: a3 = u64 [a1 + 0x10]\n 19282: a2 = u64 [a1 + 0x8]\n 19285: t0 = a3 | a4\n 19288: a5 = a2 <u 0x1\n 19291: a5 = 0 if t0 != 0\n 19293: jump @308 if a5 == 0\n      : @307 (gas: 16)\n 19296: a1 = u64 [a1]\n 19298: a5 = a3 >> 0x3b\n 19301: a4 = a4 << 0x5\n 19304: a4 = a4 | a5\n 19307: a5 = a2 >> 0x3b\n 19310: a3 = a3 << 0x5\n 19313: a3 = a3 | a5\n 19316: a5 = a1 >> 0x3b\n 19319: a2 = a2 << 0x5\n 19322: a2 = a2 | a5\n 19325: a1 = a1 << 0x5\n 19328: u64 [a0] = a1\n 19330: u64 [a0 + 0x8] = a2\n 19333: u64 [a0 + 0x10] = a3\n 19336: u64 [a0 + 0x18] = a4\n 19339: ret\n      : @308 (gas: 13)\n 19341: sp = sp + 0xffffffffffffffb0\n 19344: u64 [sp + 0x48] = ra\n 19347: u64 [sp + 0x40] = s0\n 19350: s0 = sp + 0x50\n 19353: sp = sp & 0xfffffffffffffff0\n 19356: u64 [sp + 48] = 0\n 19359: u64 [sp + 40] = 0\n 19362: u64 [sp + 32] = 0\n 19365: a0 = 0x4e487b7100000000\n 19375: a1 = sp + 0x20\n 19378: u64 [sp + 0x38] = a0\n 19381: a0 = 0\n 19383: ra = 272, jump @8\n      : @309 [@dyn 136] (gas: 7)\n 19389: u64 [sp + 24] = 0\n 19392: u64 [sp + 16] = 0\n 19395: u64 [sp + 0] = 0x41\n 19398: a0 = 0x4\n 19401: a1 = sp\n 19403: u64 [sp + 8] = 0\n 19406: ra = 274, jump @8\n      : @310 [@dyn 137] (gas: 3)\n 19412: a1 = 0x24\n 19415: a0 = 0\n 19417: ra = 276, jump @0\n      : @311 [@dyn 138] (gas: 6)\n 19423: i32 a1 = a0 + 0\n 19425: a0 = 0x1\n 19428: a2 = 0x24\n 19431: ra = 0x116\n 19435: ecalli 6 // 'seal_return'\n 19437: fallthrough\n      : @312 [@dyn 139] (gas: 13)\n 19438: sp = sp + 0xffffffffffffff60\n 19442: u64 [sp + 0x98] = ra\n 19446: u64 [sp + 0x90] = s0\n 19450: u64 [sp + 0x88] = s1\n 19454: s0 = sp + 0xa0\n 19458: sp = sp & 0xfffffffffffffff0\n 19461: a4 = u64 [a1 + 0x18]\n 19464: a3 = u64 [a1 + 0x10]\n 19467: a2 = u64 [a1 + 0x8]\n 19470: s1 = a3 | a4\n 19473: a5 = a2 <u 0x1\n 19476: a5 = 0 if s1 != 0\n 19478: jump @315 if a5 == 0\n      : @313 (gas: 19)\n 19481: s1 = a0\n 19483: a0 = u64 [a1]\n 19485: a1 = a3 >> 0x3b\n 19488: a4 = a4 << 0x5\n 19491: a4 = a4 | a1\n 19494: a1 = a2 >> 0x3b\n 19497: a3 = a3 << 0x5\n 19500: a1 = a1 | a3\n 19503: a3 = a0 >> 0x3b\n 19506: a2 = a2 << 0x5\n 19509: a2 = a2 | a3\n 19512: a0 = a0 << 0x5\n 19515: u64 [sp + 0x40] = a0\n 19518: u64 [sp + 0x48] = a2\n 19521: u64 [sp + 0x50] = a1\n 19524: a0 = sp + 0x60\n 19527: a1 = sp + 0x40\n 19530: u64 [sp + 0x58] = a4\n 19533: ra = 280, jump @297\n      : @314 [@dyn 140] (gas: 14)\n 19539: a0 = u64 [sp + 0x70]\n 19542: a1 = u64 [sp + 0x78]\n 19545: a2 = u64 [sp + 0x60]\n 19548: a3 = u64 [sp + 0x68]\n 19551: u64 [s1 + 0x10] = a0\n 19554: u64 [s1 + 0x18] = a1\n 19557: u64 [s1] = a2\n 19559: u64 [s1 + 0x8] = a3\n 19562: sp = s0 + 0xffffffffffffff60\n 19566: ra = u64 [sp + 0x98]\n 19570: s0 = u64 [sp + 0x90]\n 19574: s1 = u64 [sp + 0x88]\n 19578: sp = sp + 0xa0\n 19582: ret\n      : @315 (gas: 8)\n 19584: u64 [sp + 48] = 0\n 19587: u64 [sp + 40] = 0\n 19590: u64 [sp + 32] = 0\n 19593: a0 = 0x4e487b7100000000\n 19603: a1 = sp + 0x20\n 19606: u64 [sp + 0x38] = a0\n 19609: a0 = 0\n 19611: ra = 282, jump @8\n      : @316 [@dyn 141] (gas: 7)\n 19617: u64 [sp + 24] = 0\n 19620: u64 [sp + 16] = 0\n 19623: u64 [sp + 0] = 0x41\n 19626: a0 = 0x4\n 19629: a1 = sp\n 19631: u64 [sp + 8] = 0\n 19634: ra = 284, jump @8\n      : @317 [@dyn 142] (gas: 3)\n 19640: a1 = 0x24\n 19643: a0 = 0\n 19645: ra = 286, jump @0\n      : @318 [@dyn 143] (gas: 6)\n 19651: i32 a1 = a0 + 0\n 19653: a0 = 0x1\n 19656: a2 = 0x24\n 19659: ra = 0x120\n 19663: ecalli 6 // 'seal_return'\n 19665: fallthrough\n      : @319 [@dyn 144] (gas: 16)\n 19666: sp = sp + 0xffffffffffffffe8\n 19669: u64 [sp + 0x10] = ra\n 19672: u64 [sp + 0x8] = s0\n 19675: u64 [sp] = s1\n 19677: a2 = u64 [a1 + 0x10]\n 19680: a3 = u64 [a1 + 0x18]\n 19683: a4 = u64 [a1 + 0x8]\n 19686: s1 = u64 [a1]\n 19688: a3 = a3 | a4\n 19691: a1 = s1 | a2\n 19694: a1 = a1 | a3\n 19697: a1 = a1 >> 0x20\n 19700: a2 = a2 | a3\n 19703: a2 = a2 << 0x20\n 19706: a1 = a1 | a2\n 19709: jump @323 if a1 != 0\n      : @320 (gas: 12)\n 19712: a2 = u64 [a0 + 0x18]\n 19715: a3 = u64 [a0 + 0x10]\n 19718: a1 = u64 [a0]\n 19720: a0 = u64 [a0 + 0x8]\n 19723: a4 = a1 | a3\n 19726: a0 = a0 | a2\n 19729: a4 = a4 | a0\n 19732: a4 = a4 >> 0x20\n 19735: a0 = a0 | a3\n 19738: a0 = a0 << 0x20\n 19741: a0 = a0 | a4\n 19744: jump @323 if a0 != 0\n      : @321 (gas: 5)\n 19747: s0 = i32 [0x20004]\n 19752: i32 a0 = a1 + 0\n 19754: i32 s1 = s1 + 0\n 19756: a1 = s1\n 19758: ra = 290, jump @0\n      : @322 [@dyn 145] (gas: 9)\n 19764: i32 a0 = a0 + 0\n 19766: a1 = s1\n 19768: a2 = s0\n 19770: ra = u64 [sp + 0x10]\n 19773: s0 = u64 [sp + 0x8]\n 19776: s1 = u64 [sp]\n 19778: sp = sp + 0x18\n 19781: ecalli 0 // 'call_data_copy'\n 19782: ret\n      : @323 (gas: 1)\n 19784: trap\n      : @324 (gas: 18)\n 19785: sp = sp + 0xfffffffffffffea0\n 19789: u64 [sp + 0x158] = ra\n 19793: u64 [sp + 0x150] = s0\n 19797: u64 [sp + 0x148] = s1\n 19801: s0 = sp + 0x160\n 19805: sp = sp & 0xffffffffffffffe0\n 19808: a2 = u64 [a1 + 0x18]\n 19811: u64 [sp + 0x90] = a2\n 19815: a2 = u64 [a1 + 0x10]\n 19818: u64 [sp + 0x88] = a2\n 19822: a2 = u64 [a1 + 0x8]\n 19825: u64 [sp + 0xb8] = a2\n 19829: a1 = u64 [a1]\n 19831: u64 [sp + 0xb0] = a1\n 19835: u64 [sp + 0x8] = a0\n 19838: a0 = 0x40\n 19841: a1 = 0x20\n 19844: ra = 292, jump @0\n      : @325 [@dyn 146] (gas: 112)\n 19850: u64 [sp + 112] = 0\n 19853: u64 [sp + 120] = 0\n 19856: u64 [sp + 128] = 0\n 19860: ra = 0\n 19862: a1 = u8 [a0 + 0x19]\n 19865: a2 = u8 [a0 + 0x18]\n 19868: a3 = u8 [a0 + 0x1a]\n 19871: a4 = u8 [a0 + 0x1b]\n 19874: a1 = a1 << 0x8\n 19877: a1 = a1 | a2\n 19880: a3 = a3 << 0x10\n 19883: a4 = a4 << 0x18\n 19886: a3 = a3 | a4\n 19889: a1 = a1 | a3\n 19892: a2 = u8 [a0 + 0x1d]\n 19895: a3 = u8 [a0 + 0x1c]\n 19898: a4 = u8 [a0 + 0x1e]\n 19901: a5 = u8 [a0 + 0x1f]\n 19904: a2 = a2 << 0x8\n 19907: a2 = a2 | a3\n 19910: a4 = a4 << 0x10\n 19913: a5 = a5 << 0x18\n 19916: a4 = a4 | a5\n 19919: a2 = a2 | a4\n 19922: a2 = a2 << 0x20\n 19925: t0 = a2 | a1\n 19928: a2 = u8 [a0 + 0x11]\n 19931: a3 = u8 [a0 + 0x10]\n 19934: a4 = u8 [a0 + 0x12]\n 19937: a5 = u8 [a0 + 0x13]\n 19940: a2 = a2 << 0x8\n 19943: a2 = a2 | a3\n 19946: a4 = a4 << 0x10\n 19949: a5 = a5 << 0x18\n 19952: a4 = a4 | a5\n 19955: a2 = a2 | a4\n 19958: a3 = u8 [a0 + 0x15]\n 19961: a4 = u8 [a0 + 0x14]\n 19964: a5 = u8 [a0 + 0x16]\n 19967: s1 = u8 [a0 + 0x17]\n 19970: a3 = a3 << 0x8\n 19973: a3 = a3 | a4\n 19976: a5 = a5 << 0x10\n 19979: s1 = s1 << 0x18\n 19982: a5 = a5 | s1\n 19985: a3 = a3 | a5\n 19988: a3 = a3 << 0x20\n 19991: a2 = a2 | a3\n 19994: a3 = u8 [a0 + 0x9]\n 19997: a4 = u8 [a0 + 0x8]\n 20000: a5 = u8 [a0 + 0xa]\n 20003: s1 = u8 [a0 + 0xb]\n 20006: a3 = a3 << 0x8\n 20009: a3 = a3 | a4\n 20012: a5 = a5 << 0x10\n 20015: s1 = s1 << 0x18\n 20018: a5 = a5 | s1\n 20021: a3 = a3 | a5\n 20024: a4 = u8 [a0 + 0xd]\n 20027: a5 = u8 [a0 + 0xc]\n 20030: s1 = u8 [a0 + 0xe]\n 20033: a1 = u8 [a0 + 0xf]\n 20036: a4 = a4 << 0x8\n 20039: a4 = a4 | a5\n 20042: s1 = s1 << 0x10\n 20045: a1 = a1 << 0x18\n 20048: a1 = a1 | s1\n 20051: a1 = a1 | a4\n 20054: a1 = a1 << 0x20\n 20057: a3 = a3 | a1\n 20060: a1 = u8 [a0 + 0x1]\n 20063: a4 = u8 [a0]\n 20065: a5 = u8 [a0 + 0x2]\n 20068: s1 = u8 [a0 + 0x3]\n 20071: a1 = a1 << 0x8\n 20074: a1 = a1 | a4\n 20077: a5 = a5 << 0x10\n 20080: s1 = s1 << 0x18\n 20083: a5 = a5 | s1\n 20086: a1 = a1 | a5\n 20089: a4 = u8 [a0 + 0x5]\n 20092: a5 = u8 [a0 + 0x4]\n 20095: s1 = u8 [a0 + 0x6]\n 20098: a0 = u8 [a0 + 0x7]\n 20101: a4 = a4 << 0x8\n 20104: a4 = a4 | a5\n 20107: s1 = s1 << 0x10\n 20110: a0 = a0 << 0x18\n 20113: a0 = a0 | s1\n 20116: a0 = a0 | a4\n 20119: a0 = a0 << 0x20\n 20122: a0 = a0 | a1\n 20125: a1 = u64 [sp + 0x88]\n 20129: a4 = reverse a0\n 20131: a0 = reverse a3\n 20133: a3 = reverse a2\n 20135: a2 = u64 [sp + 0x90]\n 20139: a5 = reverse t0\n 20141: i32 s1 = sp + 0x100\n 20145: u64 [sp + 0x40] = s1\n 20148: i32 s1 = sp + 0x120\n 20152: u64 [sp + 0x38] = s1\n 20155: i32 s1 = sp + 0x140\n 20159: u64 [sp + 0x30] = s1\n 20162: u64 [sp + 0x10] = a5\n 20165: u64 [sp + 0x18] = a3\n 20168: u64 [sp + 0xa0] = a3\n 20172: u64 [sp + 0x28] = a0\n 20175: s1 = a0\n 20177: u64 [sp + 0x20] = a4\n 20180: u64 [sp + 0xa8] = a4\n 20184: fallthrough\n      : @326 (gas: 22)\n 20185: u64 [sp + 0x98] = a5\n 20189: u64 [sp + 0x68] = ra\n 20192: u64 [sp + 0x88] = a1\n 20196: u64 [sp + 0x110] = a1\n 20200: a0 = u64 [sp + 0xb8]\n 20204: u64 [sp + 0x108] = a0\n 20208: a0 = u64 [sp + 0xb0]\n 20212: u64 [sp + 0x100] = a0\n 20216: u64 [sp + 0x90] = a2\n 20220: u64 [sp + 0x118] = a2\n 20224: u64 [sp + 312] = 0\n 20228: u64 [sp + 304] = 0\n 20232: u64 [sp + 296] = 0\n 20236: u64 [sp + 288] = 0\n 20240: u32 [sp + 320] = 0x20\n 20245: a2 = 0xffffffffffffffff\n 20248: a0 = 0\n 20250: a1 = u64 [sp + 0x40]\n 20253: a3 = u64 [sp + 0x38]\n 20256: a4 = u64 [sp + 0x30]\n 20259: ecalli 4 // 'get_storage'\n 20261: fallthrough\n      : @327 (gas: 12)\n 20262: a2 = u64 [sp + 0x98]\n 20266: a0 = a2 | s1\n 20269: a1 = u64 [sp + 0xa8]\n 20273: a3 = u64 [sp + 0xa0]\n 20277: a1 = a1 | a3\n 20280: a0 = a0 | a1\n 20283: a0 = a0 >> 0x20\n 20286: u64 [sp + 0x60] = s1\n 20289: a1 = a1 | s1\n 20292: a1 = a1 << 0x20\n 20295: a0 = a0 | a1\n 20298: jump @333 if a0 != 0\n      : @328 (gas: 10)\n 20302: a0 = u64 [sp + 0x138]\n 20306: u64 [sp + 0x58] = a0\n 20309: a0 = u64 [sp + 0x130]\n 20313: u64 [sp + 0x50] = a0\n 20316: a0 = u64 [sp + 0x128]\n 20320: u64 [sp + 0x48] = a0\n 20323: s1 = u64 [sp + 0x120]\n 20327: i32 a0 = a2 + 0\n 20329: a1 = 0x20\n 20332: ra = 294, jump @0\n      : @329 [@dyn 147] (gas: 118)\n 20338: a1 = reverse s1\n 20340: a2 = a1 >> 0x38\n 20343: u8 [a0 + 0x1f] = a2\n 20346: a2 = a1 >> 0x30\n 20349: u8 [a0 + 0x1e] = a2\n 20352: a2 = a1 >> 0x28\n 20355: u8 [a0 + 0x1d] = a2\n 20358: a2 = a1 >> 0x20\n 20361: u8 [a0 + 0x1c] = a2\n 20364: a2 = a1 >> 0x18\n 20367: u8 [a0 + 0x1b] = a2\n 20370: a2 = a1 >> 0x10\n 20373: u8 [a0 + 0x1a] = a2\n 20376: a2 = a1 >> 0x8\n 20379: u8 [a0 + 0x19] = a2\n 20382: u8 [a0 + 0x18] = a1\n 20385: a1 = u64 [sp + 0x48]\n 20388: a1 = reverse a1\n 20390: a2 = a1 >> 0x38\n 20393: u8 [a0 + 0x17] = a2\n 20396: a2 = a1 >> 0x30\n 20399: u8 [a0 + 0x16] = a2\n 20402: a2 = a1 >> 0x28\n 20405: u8 [a0 + 0x15] = a2\n 20408: a2 = a1 >> 0x20\n 20411: u8 [a0 + 0x14] = a2\n 20414: a2 = a1 >> 0x18\n 20417: u8 [a0 + 0x13] = a2\n 20420: a2 = a1 >> 0x10\n 20423: u8 [a0 + 0x12] = a2\n 20426: u8 [a0 + 0x10] = a1\n 20429: a1 = a1 >> 0x8\n 20432: u8 [a0 + 0x11] = a1\n 20435: a1 = u64 [sp + 0x50]\n 20438: a1 = reverse a1\n 20440: a2 = a1 >> 0x38\n 20443: u8 [a0 + 0xf] = a2\n 20446: a2 = a1 >> 0x30\n 20449: u8 [a0 + 0xe] = a2\n 20452: a2 = a1 >> 0x28\n 20455: u8 [a0 + 0xd] = a2\n 20458: a2 = a1 >> 0x20\n 20461: u8 [a0 + 0xc] = a2\n 20464: a2 = a1 >> 0x18\n 20467: u8 [a0 + 0xb] = a2\n 20470: a2 = a1 >> 0x10\n 20473: u8 [a0 + 0xa] = a2\n 20476: a2 = u64 [sp + 0x58]\n 20479: a2 = reverse a2\n 20481: u8 [a0 + 0x8] = a1\n 20484: a1 = a1 >> 0x8\n 20487: u8 [a0 + 0x9] = a1\n 20490: u8 [a0] = a2\n 20492: a1 = a2 >> 0x38\n 20495: u8 [a0 + 0x7] = a1\n 20498: a1 = a2 >> 0x30\n 20501: u8 [a0 + 0x6] = a1\n 20504: a1 = a2 >> 0x28\n 20507: u8 [a0 + 0x5] = a1\n 20510: a1 = a2 >> 0x20\n 20513: u8 [a0 + 0x4] = a1\n 20516: a1 = a2 >> 0x18\n 20519: u8 [a0 + 0x3] = a1\n 20522: a1 = a2 >> 0x10\n 20525: u8 [a0 + 0x2] = a1\n 20528: a2 = a2 >> 0x8\n 20531: u8 [a0 + 0x1] = a2\n 20534: a0 = u64 [sp + 0x98]\n 20538: a1 = a0 + 0x20\n 20541: u64 [sp + 0x58] = a1\n 20544: a2 = a1 <u a0\n 20547: a0 = u64 [sp + 0xa0]\n 20551: t1 = a0 + a2\n 20554: a3 = t1 <u a0\n 20557: a3 = a2 if a2 == 0\n 20560: a0 = u64 [sp + 0x60]\n 20563: t2 = a0 + a3\n 20566: a3 = t2 <u a0\n 20569: a0 = u64 [sp + 0xa8]\n 20573: a0 = a0 + a3\n 20576: u64 [sp + 0xa8] = a0\n 20580: a1 = u64 [sp + 0xb0]\n 20584: a1 = a1 + 0x1\n 20587: a3 = a1 <u 0x1\n 20590: a2 = u64 [sp + 0xb8]\n 20594: a2 = a2 + a3\n 20597: s1 = u64 [sp + 0x70]\n 20600: a3 = s1 <u 0x10\n 20603: s1 = s1 + 0x1\n 20606: a5 = s1 <u 0x1\n 20609: a0 = u64 [sp + 0x78]\n 20612: a3 = 0 if a0 != 0\n 20614: a5 = a5 + a0\n 20617: a4 = s1 | a5\n 20620: a4 = a4 <u 0x1\n 20623: a0 = u64 [sp + 0x80]\n 20627: a4 = a4 + a0\n 20630: t0 = a4 <u a0\n 20633: ra = u64 [sp + 0x68]\n 20636: a0 = a0 | ra\n 20639: ra = ra + t0\n 20642: a3 = 0 if a0 != 0\n 20644: u64 [sp + 0xb8] = a2\n 20648: u64 [sp + 0xb0] = a1\n 20652: a1 = a1 | a2\n 20655: a1 = a1 <u 0x1\n 20658: a0 = u64 [sp + 0x88]\n 20662: a1 = a1 + a0\n 20665: a2 = a1 <u a0\n 20668: a0 = u64 [sp + 0x90]\n 20672: a2 = a2 + a0\n 20675: u64 [sp + 0x70] = s1\n 20678: u64 [sp + 0x78] = a5\n 20681: u64 [sp + 0x80] = a4\n 20685: a5 = u64 [sp + 0x58]\n 20688: u64 [sp + 0xa0] = t1\n 20692: s1 = t2\n 20694: jump @326 if a3 != 0\n      : @330 (gas: 9)\n 20698: a5 = u64 [sp + 0x10]\n 20701: a0 = a5 <u 0xfffffffffffffde0\n 20705: a4 = u64 [sp + 0x18]\n 20708: a0 = 0 if a4 != 0\n 20710: a2 = u64 [sp + 0x28]\n 20713: a3 = u64 [sp + 0x20]\n 20716: a1 = a2 | a3\n 20719: a0 = 0 if a1 != 0\n 20721: jump @334 if a0 == 0\n      : @331 (gas: 14)\n 20725: a0 = a5 + 0x220\n 20729: u64 [sp + 0xb8] = a0\n 20733: s1 = a0 <u a5\n 20736: a0 = a4 + s1\n 20739: u64 [sp + 0xb0] = a0\n 20743: a1 = a0 <u a4\n 20746: a1 = s1 if s1 == 0\n 20749: s1 = a2 + a1\n 20752: a0 = s1 <u a2\n 20755: a0 = a0 + a3\n 20758: u64 [sp + 0xa8] = a0\n 20762: a0 = 0x40\n 20765: a1 = 0x20\n 20768: ra = 296, jump @0\n      : @332 [@dyn 148] (gas: 82)\n 20774: a1 = u64 [sp + 0xa8]\n 20778: a1 = reverse a1\n 20780: a2 = reverse s1\n 20782: a3 = u64 [sp + 0xb0]\n 20786: a3 = reverse a3\n 20788: a4 = u64 [sp + 0xb8]\n 20792: a4 = reverse a4\n 20794: u8 [a0 + 0x18] = a4\n 20797: a5 = a4 >> 0x38\n 20800: u8 [a0 + 0x1f] = a5\n 20803: a5 = a4 >> 0x30\n 20806: u8 [a0 + 0x1e] = a5\n 20809: a5 = a4 >> 0x28\n 20812: u8 [a0 + 0x1d] = a5\n 20815: a5 = a4 >> 0x20\n 20818: u8 [a0 + 0x1c] = a5\n 20821: a5 = a4 >> 0x18\n 20824: u8 [a0 + 0x1b] = a5\n 20827: a5 = a4 >> 0x10\n 20830: u8 [a0 + 0x1a] = a5\n 20833: a4 = a4 >> 0x8\n 20836: u8 [a0 + 0x19] = a4\n 20839: u8 [a0 + 0x10] = a3\n 20842: a4 = a3 >> 0x38\n 20845: u8 [a0 + 0x17] = a4\n 20848: a4 = a3 >> 0x30\n 20851: u8 [a0 + 0x16] = a4\n 20854: a4 = a3 >> 0x28\n 20857: u8 [a0 + 0x15] = a4\n 20860: a4 = a3 >> 0x20\n 20863: u8 [a0 + 0x14] = a4\n 20866: a4 = a3 >> 0x18\n 20869: u8 [a0 + 0x13] = a4\n 20872: a4 = a3 >> 0x10\n 20875: u8 [a0 + 0x12] = a4\n 20878: a3 = a3 >> 0x8\n 20881: u8 [a0 + 0x11] = a3\n 20884: u8 [a0 + 0x8] = a2\n 20887: a3 = a2 >> 0x38\n 20890: u8 [a0 + 0xf] = a3\n 20893: a3 = a2 >> 0x30\n 20896: u8 [a0 + 0xe] = a3\n 20899: a3 = a2 >> 0x28\n 20902: u8 [a0 + 0xd] = a3\n 20905: a3 = a2 >> 0x20\n 20908: u8 [a0 + 0xc] = a3\n 20911: a3 = a2 >> 0x18\n 20914: u8 [a0 + 0xb] = a3\n 20917: a3 = a2 >> 0x10\n 20920: u8 [a0 + 0xa] = a3\n 20923: a2 = a2 >> 0x8\n 20926: u8 [a0 + 0x9] = a2\n 20929: u8 [a0] = a1\n 20931: a2 = a1 >> 0x38\n 20934: u8 [a0 + 0x7] = a2\n 20937: a2 = a1 >> 0x30\n 20940: u8 [a0 + 0x6] = a2\n 20943: a2 = a1 >> 0x28\n 20946: u8 [a0 + 0x5] = a2\n 20949: a2 = a1 >> 0x20\n 20952: u8 [a0 + 0x4] = a2\n 20955: a2 = a1 >> 0x18\n 20958: u8 [a0 + 0x3] = a2\n 20961: a2 = a1 >> 0x10\n 20964: u8 [a0 + 0x2] = a2\n 20967: a1 = a1 >> 0x8\n 20970: u8 [a0 + 0x1] = a1\n 20973: a0 = u64 [sp + 0x8]\n 20976: a1 = u64 [sp + 0x10]\n 20979: u64 [a0] = a1\n 20981: a1 = u64 [sp + 0x20]\n 20984: u64 [a0 + 0x18] = a1\n 20987: a1 = u64 [sp + 0x18]\n 20990: u64 [a0 + 0x8] = a1\n 20993: a1 = u64 [sp + 0x28]\n 20996: u64 [a0 + 0x10] = a1\n 20999: sp = s0 + 0xfffffffffffffea0\n 21003: ra = u64 [sp + 0x158]\n 21007: s0 = u64 [sp + 0x150]\n 21011: s1 = u64 [sp + 0x148]\n 21015: sp = sp + 0x160\n 21019: ret\n      : @333 (gas: 1)\n 21021: trap\n      : @334 (gas: 8)\n 21022: u64 [sp + 240] = 0\n 21026: u64 [sp + 232] = 0\n 21030: u64 [sp + 224] = 0\n 21034: a0 = 0x4e487b7100000000\n 21044: a1 = sp + 0xe0\n 21048: u64 [sp + 0xf8] = a0\n 21052: a0 = 0\n 21054: ra = 298, jump @8\n      : @335 [@dyn 149] (gas: 7)\n 21060: u64 [sp + 216] = 0\n 21064: u64 [sp + 208] = 0\n 21068: u64 [sp + 192] = 0x41\n 21073: a0 = 0x4\n 21076: a1 = sp + 0xc0\n 21080: u64 [sp + 200] = 0\n 21084: ra = 300, jump @8\n      : @336 [@dyn 150] (gas: 3)\n 21090: a1 = 0x24\n 21093: a0 = 0\n 21095: ra = 302, jump @0\n      : @337 [@dyn 151] (gas: 6)\n 21101: i32 a1 = a0 + 0\n 21103: a0 = 0x1\n 21106: a2 = 0x24\n 21109: ra = 0x130\n 21113: ecalli 6 // 'seal_return'\n 21115: fallthrough\n      : @338 [@dyn 152] (gas: 18)\n 21116: sp = sp + 0xffffffffffffffa0\n 21119: u64 [sp + 0x58] = ra\n 21122: u64 [sp + 0x50] = s0\n 21125: u64 [sp + 0x48] = s1\n 21128: s0 = sp + 0x60\n 21131: sp = sp & 0xfffffffffffffff0\n 21134: a2 = u64 [a1]\n 21136: a3 = u64 [a1 + 0x8]\n 21139: a4 = u64 [a1 + 0x10]\n 21142: a1 = u64 [a1 + 0x18]\n 21145: s1 = a0\n 21147: u64 [sp + 0x18] = a1\n 21150: u64 [sp + 0x10] = a4\n 21153: u64 [sp + 0x8] = a3\n 21156: a0 = sp + 0x20\n 21159: a1 = sp\n 21161: u64 [sp] = a2\n 21163: ra = 306, jump @324\n      : @339 [@dyn 153] (gas: 14)\n 21169: a0 = u64 [sp + 0x30]\n 21172: a1 = u64 [sp + 0x38]\n 21175: a2 = u64 [sp + 0x20]\n 21178: a3 = u64 [sp + 0x28]\n 21181: u64 [s1 + 0x10] = a0\n 21184: u64 [s1 + 0x18] = a1\n 21187: u64 [s1] = a2\n 21189: u64 [s1 + 0x8] = a3\n 21192: sp = s0 + 0xffffffffffffffa0\n 21195: ra = u64 [sp + 0x58]\n 21198: s0 = u64 [sp + 0x50]\n 21201: s1 = u64 [sp + 0x48]\n 21204: sp = sp + 0x60\n 21207: ret\n      : @340 [@dyn 154] (gas: 12)\n 21209: a1 = u64 [sp + 0x98]\n 21213: a2 = u64 [sp + 0x90]\n 21217: a3 = u64 [sp + 0x88]\n 21221: a0 = u64 [sp + 0x80]\n 21225: a1 = a1 | a3\n 21228: a3 = a0 | a2\n 21231: a3 = a3 | a1\n 21234: a3 = a3 >> 0x20\n 21237: a1 = a1 | a2\n 21240: a1 = a1 << 0x20\n 21243: a1 = a1 | a3\n 21246: jump @347 if a1 != 0\n      : @341 (gas: 4)\n 21250: s1 = i32 [0x20004]\n 21255: i32 a0 = a0 + 0\n 21257: a1 = 0x220\n 21261: ra = 310, jump @0\n      : @342 [@dyn 155] (gas: 10)\n 21267: i32 a0 = a0 + 0\n 21269: a1 = 0x220\n 21273: a2 = s1\n 21275: ecalli 0 // 'call_data_copy'\n 21276: a0 = u64 [sp]\n 21278: a0 = a0 << 0x20\n 21281: s1 = a0 >> 0x20\n 21284: a1 = 0x20\n 21287: a0 = 0\n 21289: ra = 312, jump @0\n      : @343 [@dyn 156] (gas: 58)\n 21295: a1 = reverse s1\n 21297: a2 = u64 [sp + 0x8]\n 21300: a2 = reverse a2\n 21302: a3 = u64 [sp + 0x10]\n 21305: a3 = reverse a3\n 21307: a4 = a3 >> 0x38\n 21310: u8 [a0 + 0x1f] = a4\n 21313: a4 = a3 >> 0x30\n 21316: u8 [a0 + 0x1e] = a4\n 21319: a4 = a3 >> 0x28\n 21322: u8 [a0 + 0x1d] = a4\n 21325: a4 = a3 >> 0x20\n 21328: u8 [a0 + 0x1c] = a4\n 21331: a4 = a3 >> 0x18\n 21334: u8 [a0 + 0x1b] = a4\n 21337: a4 = a3 >> 0x10\n 21340: u8 [a0 + 0x1a] = a4\n 21343: a4 = a3 >> 0x8\n 21346: u8 [a0 + 0x19] = a4\n 21349: u8 [a0 + 0x18] = a3\n 21352: a3 = a2 >> 0x38\n 21355: u8 [a0 + 0x17] = a3\n 21358: a3 = a2 >> 0x30\n 21361: u8 [a0 + 0x16] = a3\n 21364: a3 = a2 >> 0x28\n 21367: u8 [a0 + 0x15] = a3\n 21370: a3 = a2 >> 0x20\n 21373: u8 [a0 + 0x14] = a3\n 21376: a3 = a2 >> 0x18\n 21379: u8 [a0 + 0x13] = a3\n 21382: a3 = a2 >> 0x10\n 21385: u8 [a0 + 0x12] = a3\n 21388: a3 = a2 >> 0x8\n 21391: u8 [a0 + 0x11] = a3\n 21394: u8 [a0 + 0x10] = a2\n 21397: a2 = a1 >> 0x38\n 21400: u8 [a0 + 0xf] = a2\n 21403: a2 = a1 >> 0x30\n 21406: u8 [a0 + 0xe] = a2\n 21409: a2 = a1 >> 0x28\n 21412: u8 [a0 + 0xd] = a2\n 21415: a2 = a1 >> 0x20\n 21418: u8 [a0 + 0xc] = a2\n 21421: u8 [a0 + 11] = 0\n 21424: u8 [a0 + 10] = 0\n 21427: u8 [a0 + 9] = 0\n 21430: u8 [a0 + 0x8] = a1\n 21433: u8 [a0 + 7] = 0\n 21436: u8 [a0 + 6] = 0\n 21439: u8 [a0 + 5] = 0\n 21442: u8 [a0 + 4] = 0\n 21445: u8 [a0 + 3] = 0\n 21448: u8 [a0 + 2] = 0\n 21451: u8 [a0 + 1] = 0\n 21454: u8 [a0 + 0] = 0\n 21456: a0 = 0x20\n 21459: a1 = 0x20\n 21462: ra = 314, jump @0\n      : @344 [@dyn 157] (gas: 35)\n 21468: u8 [a0 + 31] = 0\n 21471: u8 [a0 + 30] = 0\n 21474: u8 [a0 + 29] = 0\n 21477: u8 [a0 + 28] = 0\n 21480: u8 [a0 + 27] = 0\n 21483: u8 [a0 + 26] = 0\n 21486: u8 [a0 + 25] = 0\n 21489: u8 [a0 + 24] = 0\n 21492: u8 [a0 + 23] = 0\n 21495: u8 [a0 + 22] = 0\n 21498: u8 [a0 + 21] = 0\n 21501: u8 [a0 + 20] = 0\n 21504: u8 [a0 + 19] = 0\n 21507: u8 [a0 + 18] = 0\n 21510: u8 [a0 + 17] = 0\n 21513: u8 [a0 + 16] = 0\n 21516: u8 [a0 + 15] = 0\n 21519: u8 [a0 + 14] = 0\n 21522: u8 [a0 + 13] = 0\n 21525: u8 [a0 + 12] = 0\n 21528: u8 [a0 + 11] = 0\n 21531: u8 [a0 + 10] = 0\n 21534: u8 [a0 + 9] = 0\n 21537: u8 [a0 + 8] = 0\n 21540: u8 [a0 + 7] = 0\n 21543: u8 [a0 + 6] = 0\n 21546: u8 [a0 + 5] = 0\n 21549: u8 [a0 + 4] = 0\n 21552: u8 [a0 + 3] = 0\n 21555: u8 [a0 + 2] = 0\n 21558: u8 [a0 + 1] = 0\n 21561: u8 [a0 + 0] = 0\n 21563: a1 = 0x40\n 21566: a0 = 0\n 21568: ra = 316, jump @0\n      : @345 [@dyn 158] (gas: 19)\n 21574: i32 a0 = a0 + 0\n 21576: i32 a2 = sp + 0xa0\n 21580: a1 = 0x40\n 21583: ecalli 5 // 'hash_keccak_256'\n 21585: a0 = u64 [sp + 0xb8]\n 21589: a1 = u64 [sp + 0xb0]\n 21593: a2 = u64 [sp + 0xa8]\n 21597: a3 = u64 [sp + 0xa0]\n 21601: a4 = reverse a0\n 21603: a0 = reverse a1\n 21605: a1 = reverse a2\n 21607: a2 = reverse a3\n 21609: u64 [sp + 0x38] = a2\n 21612: u64 [sp + 0x30] = a1\n 21615: u64 [sp + 0x28] = a0\n 21618: a0 = sp + 0x40\n 21621: a1 = sp + 0x20\n 21624: u64 [sp + 0x20] = a4\n 21627: ra = 318, jump @324\n      : @346 [@dyn 159] (gas: 15)\n 21633: a0 = u64 [sp + 0x50]\n 21636: a1 = u64 [sp + 0x58]\n 21639: a2 = u64 [sp + 0x40]\n 21642: a3 = u64 [sp + 0x48]\n 21645: a4 = u64 [sp + 0x18]\n 21648: u64 [a4 + 0x10] = a0\n 21651: u64 [a4 + 0x18] = a1\n 21654: u64 [a4] = a2\n 21656: u64 [a4 + 0x8] = a3\n 21659: sp = s0 + 0xffffffffffffff20\n 21663: ra = u64 [sp + 0xd8]\n 21667: s0 = u64 [sp + 0xd0]\n 21671: s1 = u64 [sp + 0xc8]\n 21675: sp = sp + 0xe0\n 21679: ret\n      : @347 (gas: 1)\n 21681: trap\n      : @348 (gas: 17)\n 21682: sp = sp + 0xffffffffffffffa0\n 21685: u64 [sp + 0x58] = ra\n 21688: u64 [sp + 0x50] = s0\n 21691: u64 [sp + 0x48] = s1\n 21694: a3 = u64 [a1 + 0x18]\n 21697: a4 = u64 [a1 + 0x10]\n 21700: a5 = u64 [a1 + 0x8]\n 21703: s1 = u64 [a1]\n 21705: a1 = a5 | a3\n 21708: a2 = s1 | a4\n 21711: a2 = a2 | a1\n 21714: a2 = a2 >> 0x20\n 21717: a1 = a1 | a4\n 21720: a1 = a1 << 0x20\n 21723: a1 = a1 | a2\n 21726: u64 [sp + 0x28] = a0\n 21729: jump @355 if a1 != 0\n      : @349 (gas: 19)\n 21733: a0 = s1 + 0x20\n 21736: u64 [sp + 0x30] = a0\n 21739: a0 = a0 <u s1\n 21742: a1 = a5 + a0\n 21745: u64 [sp + 0x40] = a1\n 21748: u64 [sp + 0x8] = a5\n 21751: s0 = a1 <u a5\n 21754: s0 = a0 if a0 == 0\n 21757: s0 = s0 + a4\n 21760: u64 [sp + 0x10] = a4\n 21763: a0 = s0 <u a4\n 21766: u64 [sp + 0x18] = a3\n 21769: a0 = a0 + a3\n 21772: u64 [sp + 0x38] = a0\n 21775: u64 [sp] = s1\n 21777: i32 a0 = s1 + 0\n 21779: a1 = 0x20\n 21782: s1 = 0x20\n 21785: ra = 320, jump @0\n      : @350 [@dyn 160] (gas: 45)\n 21791: u8 [a0 + 0x1f] = s1\n 21794: a1 = u64 [sp + 0x30]\n 21797: s1 = a1\n 21799: a1 = a1 | s0\n 21802: a2 = u64 [sp + 0x40]\n 21805: a4 = u64 [sp + 0x38]\n 21808: a2 = a2 | a4\n 21811: a1 = a1 | a2\n 21814: a1 = a1 >> 0x20\n 21817: u64 [sp + 0x20] = s0\n 21820: a2 = a2 | s0\n 21823: a2 = a2 << 0x20\n 21826: a1 = a1 | a2\n 21829: u8 [a0 + 30] = 0\n 21832: u8 [a0 + 29] = 0\n 21835: u8 [a0 + 28] = 0\n 21838: u8 [a0 + 27] = 0\n 21841: u8 [a0 + 26] = 0\n 21844: u8 [a0 + 25] = 0\n 21847: u8 [a0 + 24] = 0\n 21850: u8 [a0 + 23] = 0\n 21853: u8 [a0 + 22] = 0\n 21856: u8 [a0 + 21] = 0\n 21859: u8 [a0 + 20] = 0\n 21862: u8 [a0 + 19] = 0\n 21865: u8 [a0 + 18] = 0\n 21868: u8 [a0 + 17] = 0\n 21871: u8 [a0 + 16] = 0\n 21874: u8 [a0 + 15] = 0\n 21877: u8 [a0 + 14] = 0\n 21880: u8 [a0 + 13] = 0\n 21883: u8 [a0 + 12] = 0\n 21886: u8 [a0 + 11] = 0\n 21889: u8 [a0 + 10] = 0\n 21892: u8 [a0 + 9] = 0\n 21895: u8 [a0 + 8] = 0\n 21898: u8 [a0 + 7] = 0\n 21901: u8 [a0 + 6] = 0\n 21904: u8 [a0 + 5] = 0\n 21907: u8 [a0 + 4] = 0\n 21910: u8 [a0 + 3] = 0\n 21913: u8 [a0 + 2] = 0\n 21916: u8 [a0 + 1] = 0\n 21919: u8 [a0 + 0] = 0\n 21921: jump @355 if a1 != 0\n      : @351 (gas: 4)\n 21925: i32 s0 = s1 + 0\n 21927: a1 = 0x20\n 21930: a0 = s0\n 21932: ra = 322, jump @0\n      : @352 [@dyn 161] (gas: 41)\n 21938: u8 [a0 + 31] = 0xf\n 21942: u8 [a0 + 30] = 0\n 21945: u8 [a0 + 29] = 0\n 21948: u8 [a0 + 28] = 0\n 21951: u8 [a0 + 27] = 0\n 21954: u8 [a0 + 26] = 0\n 21957: u8 [a0 + 25] = 0\n 21960: u8 [a0 + 24] = 0\n 21963: u8 [a0 + 23] = 0\n 21966: u8 [a0 + 22] = 0\n 21969: u8 [a0 + 21] = 0\n 21972: u8 [a0 + 20] = 0\n 21975: u8 [a0 + 19] = 0\n 21978: u8 [a0 + 18] = 0\n 21981: u8 [a0 + 17] = 0\n 21984: u8 [a0 + 16] = 0\n 21987: u8 [a0 + 15] = 0\n 21990: u8 [a0 + 14] = 0\n 21993: u8 [a0 + 13] = 0\n 21996: u8 [a0 + 12] = 0\n 21999: u8 [a0 + 11] = 0\n 22002: u8 [a0 + 10] = 0\n 22005: u8 [a0 + 9] = 0\n 22008: u8 [a0 + 8] = 0\n 22011: u8 [a0 + 7] = 0\n 22014: u8 [a0 + 6] = 0\n 22017: u8 [a0 + 5] = 0\n 22020: u8 [a0 + 4] = 0\n 22023: u8 [a0 + 3] = 0\n 22026: u8 [a0 + 2] = 0\n 22029: u8 [a0 + 1] = 0\n 22032: a1 = u64 [sp + 0x20]\n 22035: a2 = u64 [sp + 0x38]\n 22038: a1 = a1 | a2\n 22041: a2 = 0xffffffe0\n 22051: a2 = s1 <u a2\n 22054: a3 = u64 [sp + 0x40]\n 22057: a2 = 0 if a3 != 0\n 22059: a2 = 0 if a1 != 0\n 22061: u8 [a0 + 0] = 0\n 22063: jump @355 if a2 == 0\n      : @353 (gas: 3)\n 22067: i32 a0 = s0 + 0x20\n 22070: a1 = 0x20\n 22073: ra = 324, jump @0\n      : @354 [@dyn 162] (gas: 54)\n 22079: u8 [a0 + 31] = 0\n 22082: u8 [a0 + 30] = 0\n 22085: u8 [a0 + 29] = 0\n 22088: u8 [a0 + 28] = 0\n 22091: u8 [a0 + 27] = 0\n 22094: u8 [a0 + 26] = 0\n 22097: u8 [a0 + 25] = 0\n 22100: u8 [a0 + 24] = 0\n 22103: u8 [a0 + 23] = 0\n 22106: u8 [a0 + 22] = 0\n 22109: u8 [a0 + 21] = 0\n 22112: u8 [a0 + 20] = 0\n 22115: u8 [a0 + 19] = 0\n 22118: u8 [a0 + 18] = 0\n 22121: u8 [a0 + 17] = 0\n 22124: u8 [a0 + 16] = 0\n 22127: u8 [a0 + 15] = 0\n 22130: u8 [a0 + 14] = 0x73\n 22134: u8 [a0 + 13] = 0x73\n 22138: u8 [a0 + 12] = 0x65\n 22142: u8 [a0 + 11] = 0x72\n 22146: u8 [a0 + 10] = 0x64\n 22150: u8 [a0 + 9] = 0x64\n 22154: u8 [a0 + 8] = 0x61\n 22158: u8 [a0 + 7] = 0x20\n 22162: u8 [a0 + 6] = 0x64\n 22166: u8 [a0 + 5] = 0x69\n 22170: u8 [a0 + 4] = 0x6c\n 22174: u8 [a0 + 3] = 0x61\n 22178: u8 [a0 + 2] = 0x76\n 22182: u8 [a0 + 1] = 0x6e\n 22186: u8 [a0 + 0] = 0x49\n 22189: a1 = u64 [sp]\n 22191: a0 = a1 + 0x60\n 22194: a1 = a0 <u a1\n 22197: a3 = u64 [sp + 0x8]\n 22200: a2 = a3 + a1\n 22203: a3 = a2 <u a3\n 22206: a3 = a1 if a1 == 0\n 22209: a1 = u64 [sp + 0x10]\n 22212: a3 = a3 + a1\n 22215: a1 = a3 <u a1\n 22218: a4 = u64 [sp + 0x18]\n 22221: a1 = a1 + a4\n 22224: a4 = u64 [sp + 0x28]\n 22227: u64 [a4] = a0\n 22229: u64 [a4 + 0x8] = a2\n 22232: u64 [a4 + 0x10] = a3\n 22235: u64 [a4 + 0x18] = a1\n 22238: ra = u64 [sp + 0x58]\n 22241: s0 = u64 [sp + 0x50]\n 22244: s1 = u64 [sp + 0x48]\n 22247: sp = sp + 0x60\n 22250: ret\n      : @355 (gas: 1)\n 22252: trap\n      : @356 (gas: 12)\n 22253: sp = sp + 0xfffffffffffffe80\n 22257: u64 [sp + 0x178] = ra\n 22261: u64 [sp + 0x170] = s0\n 22265: u64 [sp + 0x168] = s1\n 22269: s0 = sp + 0x180\n 22273: sp = sp & 0xffffffffffffffe0\n 22276: a3 = u32 [a0 + 0x10]\n 22279: a2 = u64 [a0]\n 22281: s1 = u64 [a0 + 0x8]\n 22284: a0 = a2 | a3\n 22287: a0 = a0 | s1\n 22290: jump @364 if a0 == 0\n      : @357 (gas: 15)\n 22294: u64 [sp + 0x10] = a3\n 22297: u64 [sp + 0x18] = a2\n 22300: a2 = u64 [a1 + 0x18]\n 22303: a0 = u64 [a1]\n 22305: a3 = u64 [a1 + 0x8]\n 22308: a1 = u64 [a1 + 0x10]\n 22311: u64 [sp + 0x28] = a0\n 22314: a0 = a0 <u 0x11\n 22317: u64 [sp + 0x20] = a3\n 22320: a0 = 0 if a3 != 0\n 22322: u64 [sp + 0x38] = a2\n 22325: u64 [sp + 0x30] = a1\n 22328: a1 = a1 | a2\n 22331: a0 = 0 if a1 != 0\n 22333: jump @369 if a0 == 0\n      : @358 (gas: 3)\n 22337: a1 = 0x20\n 22340: a0 = 0\n 22342: ra = 326, jump @0\n      : @359 [@dyn 163] (gas: 58)\n 22348: a1 = u64 [sp + 0x10]\n 22351: a1 = reverse a1\n 22353: a2 = reverse s1\n 22355: a3 = u64 [sp + 0x18]\n 22358: a3 = reverse a3\n 22360: a4 = a3 >> 0x38\n 22363: u8 [a0 + 0x1f] = a4\n 22366: a4 = a3 >> 0x30\n 22369: u8 [a0 + 0x1e] = a4\n 22372: a4 = a3 >> 0x28\n 22375: u8 [a0 + 0x1d] = a4\n 22378: a4 = a3 >> 0x20\n 22381: u8 [a0 + 0x1c] = a4\n 22384: a4 = a3 >> 0x18\n 22387: u8 [a0 + 0x1b] = a4\n 22390: a4 = a3 >> 0x10\n 22393: u8 [a0 + 0x1a] = a4\n 22396: a4 = a3 >> 0x8\n 22399: u8 [a0 + 0x19] = a4\n 22402: u8 [a0 + 0x18] = a3\n 22405: u8 [a0 + 0x10] = a2\n 22408: u8 [a0 + 11] = 0\n 22411: u8 [a0 + 10] = 0\n 22414: u8 [a0 + 9] = 0\n 22417: u8 [a0 + 7] = 0\n 22420: u8 [a0 + 6] = 0\n 22423: u8 [a0 + 5] = 0\n 22426: u8 [a0 + 4] = 0\n 22429: u8 [a0 + 3] = 0\n 22432: u8 [a0 + 2] = 0\n 22435: u8 [a0 + 1] = 0\n 22438: u8 [a0 + 0] = 0\n 22440: a3 = a2 >> 0x38\n 22443: u8 [a0 + 0x17] = a3\n 22446: a3 = a2 >> 0x30\n 22449: u8 [a0 + 0x16] = a3\n 22452: a3 = a2 >> 0x28\n 22455: u8 [a0 + 0x15] = a3\n 22458: a3 = a2 >> 0x20\n 22461: u8 [a0 + 0x14] = a3\n 22464: a3 = a2 >> 0x18\n 22467: u8 [a0 + 0x13] = a3\n 22470: a3 = a2 >> 0x10\n 22473: u8 [a0 + 0x12] = a3\n 22476: a2 = a2 >> 0x8\n 22479: u8 [a0 + 0x11] = a2\n 22482: u8 [a0 + 0x8] = a1\n 22485: a2 = a1 >> 0x38\n 22488: u8 [a0 + 0xf] = a2\n 22491: a2 = a1 >> 0x30\n 22494: u8 [a0 + 0xe] = a2\n 22497: a2 = a1 >> 0x28\n 22500: u8 [a0 + 0xd] = a2\n 22503: a1 = a1 >> 0x20\n 22506: u8 [a0 + 0xc] = a1\n 22509: a0 = 0x20\n 22512: a1 = 0x20\n 22515: ra = 328, jump @0\n      : @360 [@dyn 164] (gas: 35)\n 22521: u8 [a0 + 31] = 0\n 22524: u8 [a0 + 30] = 0\n 22527: u8 [a0 + 29] = 0\n 22530: u8 [a0 + 28] = 0\n 22533: u8 [a0 + 27] = 0\n 22536: u8 [a0 + 26] = 0\n 22539: u8 [a0 + 25] = 0\n 22542: u8 [a0 + 24] = 0\n 22545: u8 [a0 + 23] = 0\n 22548: u8 [a0 + 22] = 0\n 22551: u8 [a0 + 21] = 0\n 22554: u8 [a0 + 20] = 0\n 22557: u8 [a0 + 19] = 0\n 22560: u8 [a0 + 18] = 0\n 22563: u8 [a0 + 17] = 0\n 22566: u8 [a0 + 16] = 0\n 22569: u8 [a0 + 15] = 0\n 22572: u8 [a0 + 14] = 0\n 22575: u8 [a0 + 13] = 0\n 22578: u8 [a0 + 12] = 0\n 22581: u8 [a0 + 11] = 0\n 22584: u8 [a0 + 10] = 0\n 22587: u8 [a0 + 9] = 0\n 22590: u8 [a0 + 8] = 0\n 22593: u8 [a0 + 7] = 0\n 22596: u8 [a0 + 6] = 0\n 22599: u8 [a0 + 5] = 0\n 22602: u8 [a0 + 4] = 0\n 22605: u8 [a0 + 3] = 0\n 22608: u8 [a0 + 2] = 0\n 22611: u8 [a0 + 1] = 0\n 22614: u8 [a0 + 0] = 0\n 22616: a1 = 0x40\n 22619: a0 = 0\n 22621: ra = 330, jump @0\n      : @361 [@dyn 165] (gas: 50)\n 22627: i32 a0 = a0 + 0\n 22629: i32 a2 = sp + 0x140\n 22633: a1 = 0x40\n 22636: ecalli 5 // 'hash_keccak_256'\n 22638: a0 = u64 [sp + 0x140]\n 22642: a1 = u64 [sp + 0x148]\n 22646: a2 = u64 [sp + 0x158]\n 22650: a3 = u64 [sp + 0x150]\n 22654: a0 = reverse a0\n 22656: a1 = reverse a1\n 22658: a2 = reverse a2\n 22660: a3 = reverse a3\n 22662: a4 = u64 [sp + 0x20]\n 22665: a4 = a4 + a3\n 22668: a5 = u64 [sp + 0x28]\n 22671: a5 = a5 + a2\n 22674: a2 = a5 <u a2\n 22677: s1 = a4 + a2\n 22680: a4 = s1 ^ a3\n 22683: a3 = s1 <u a3\n 22686: a3 = a2 if a4 == 0\n 22689: a2 = u64 [sp + 0x30]\n 22692: a2 = a2 + a1\n 22695: a3 = a3 + a2\n 22698: t0 = a3 <u a2\n 22701: a4 = u64 [sp + 0x38]\n 22704: a0 = a0 + a4\n 22707: a1 = a2 <u a1\n 22710: a0 = a0 + a1\n 22713: a0 = a0 + t0\n 22716: u64 [sp + 0x30] = s1\n 22719: u64 [sp + 0x128] = s1\n 22723: u64 [sp + 0x38] = a5\n 22726: u64 [sp + 0x120] = a5\n 22730: u64 [sp + 0x28] = a3\n 22733: u64 [sp + 0x130] = a3\n 22737: u64 [sp + 0x20] = a0\n 22740: u64 [sp + 0x138] = a0\n 22744: u64 [sp + 344] = 0\n 22748: u64 [sp + 336] = 0\n 22752: u64 [sp + 328] = 0\n 22756: u64 [sp + 320] = 0\n 22760: u32 [sp + 256] = 0x20\n 22765: i32 a1 = sp + 0x120\n 22769: i32 a3 = sp + 0x140\n 22773: i32 a4 = sp + 0x100\n 22777: a2 = 0xffffffffffffffff\n 22780: a0 = 0\n 22782: ecalli 4 // 'get_storage'\n 22784: fallthrough\n      : @362 (gas: 19)\n 22785: s1 = u64 [sp + 0x140]\n 22789: a0 = u64 [sp + 0x158]\n 22793: a1 = u64 [sp + 0x148]\n 22797: a2 = u64 [sp + 0x150]\n 22801: s1 = s1 + 0x1\n 22804: a3 = s1 <u 0x1\n 22807: a3 = a3 + a1\n 22810: a1 = s1 | a3\n 22813: a1 = a1 <u 0x1\n 22816: a4 = a2 + a1\n 22819: a1 = a4 <u a2\n 22822: a0 = a0 + a1\n 22825: u64 [sp + 0x18] = a3\n 22828: u64 [sp + 0x8] = a0\n 22831: a0 = a0 | a3\n 22834: u64 [sp + 0x10] = a4\n 22837: a1 = s1 | a4\n 22840: a0 = a0 | a1\n 22843: jump @376 if a0 == 0\n      : @363 (gas: 46)\n 22847: a0 = u64 [sp + 0x28]\n 22850: u64 [sp + 0x130] = a0\n 22854: a0 = u64 [sp + 0x30]\n 22857: u64 [sp + 0x128] = a0\n 22861: a0 = u64 [sp + 0x38]\n 22864: u64 [sp + 0x120] = a0\n 22868: a0 = u64 [sp + 0x20]\n 22871: u64 [sp + 0x138] = a0\n 22875: u64 [sp + 344] = 0\n 22879: u64 [sp + 336] = 0\n 22883: u64 [sp + 328] = 0\n 22887: u64 [sp + 320] = 0\n 22891: u32 [sp + 256] = 0x20\n 22896: i32 a1 = sp + 0x120\n 22900: i32 a3 = sp + 0x140\n 22904: i32 a4 = sp + 0x100\n 22908: a2 = 0xffffffffffffffff\n 22911: a0 = 0\n 22913: ecalli 4 // 'get_storage'\n 22915: a0 = u64 [sp + 0x20]\n 22918: u64 [sp + 0x138] = a0\n 22922: a0 = u64 [sp + 0x28]\n 22925: u64 [sp + 0x130] = a0\n 22929: a0 = u64 [sp + 0x30]\n 22932: u64 [sp + 0x128] = a0\n 22936: a0 = u64 [sp + 0x38]\n 22939: u64 [sp + 0x120] = a0\n 22943: a0 = u64 [sp + 0x8]\n 22946: u64 [sp + 0x158] = a0\n 22950: a0 = u64 [sp + 0x10]\n 22953: u64 [sp + 0x150] = a0\n 22957: a0 = u64 [sp + 0x18]\n 22960: u64 [sp + 0x148] = a0\n 22964: u64 [sp + 0x140] = s1\n 22968: i32 a1 = sp + 0x120\n 22972: i32 a3 = sp + 0x140\n 22976: a2 = 0xffffffffffffffff\n 22979: a4 = 0x20\n 22982: a0 = 0\n 22984: ecalli 8 // 'set_storage'\n 22986: sp = s0 + 0xfffffffffffffe80\n 22990: ra = u64 [sp + 0x178]\n 22994: s0 = u64 [sp + 0x170]\n 22998: s1 = u64 [sp + 0x168]\n 23002: sp = sp + 0x180\n 23006: ret\n      : @364 (gas: 3)\n 23008: a0 = 0x40\n 23011: a1 = 0x20\n 23014: ra = 332, jump @0\n      : @365 [@dyn 166] (gas: 103)\n 23020: a1 = u8 [a0 + 0x11]\n 23023: a2 = u8 [a0 + 0x10]\n 23026: a3 = u8 [a0 + 0x12]\n 23029: a4 = u8 [a0 + 0x13]\n 23032: a1 = a1 << 0x8\n 23035: a1 = a1 | a2\n 23038: a3 = a3 << 0x10\n 23041: a4 = a4 << 0x18\n 23044: a3 = a3 | a4\n 23047: a1 = a1 | a3\n 23050: a2 = u8 [a0 + 0x15]\n 23053: a3 = u8 [a0 + 0x14]\n 23056: a4 = u8 [a0 + 0x16]\n 23059: a5 = u8 [a0 + 0x17]\n 23062: a2 = a2 << 0x8\n 23065: a2 = a2 | a3\n 23068: a4 = a4 << 0x10\n 23071: a5 = a5 << 0x18\n 23074: a4 = a4 | a5\n 23077: a2 = a2 | a4\n 23080: a2 = a2 << 0x20\n 23083: t0 = a2 | a1\n 23086: a2 = u8 [a0 + 0x1]\n 23089: a3 = u8 [a0]\n 23091: a4 = u8 [a0 + 0x2]\n 23094: a5 = u8 [a0 + 0x3]\n 23097: a2 = a2 << 0x8\n 23100: a2 = a2 | a3\n 23103: a4 = a4 << 0x10\n 23106: a5 = a5 << 0x18\n 23109: a4 = a4 | a5\n 23112: a2 = a2 | a4\n 23115: a3 = u8 [a0 + 0x5]\n 23118: a4 = u8 [a0 + 0x4]\n 23121: a5 = u8 [a0 + 0x6]\n 23124: s1 = u8 [a0 + 0x7]\n 23127: a3 = a3 << 0x8\n 23130: a3 = a3 | a4\n 23133: a5 = a5 << 0x10\n 23136: s1 = s1 << 0x18\n 23139: a5 = a5 | s1\n 23142: a3 = a3 | a5\n 23145: a3 = a3 << 0x20\n 23148: a2 = a2 | a3\n 23151: a3 = u8 [a0 + 0x19]\n 23154: a4 = u8 [a0 + 0x18]\n 23157: a5 = u8 [a0 + 0x1a]\n 23160: s1 = u8 [a0 + 0x1b]\n 23163: a3 = a3 << 0x8\n 23166: a3 = a3 | a4\n 23169: a5 = a5 << 0x10\n 23172: s1 = s1 << 0x18\n 23175: a5 = a5 | s1\n 23178: a3 = a3 | a5\n 23181: a4 = u8 [a0 + 0x1d]\n 23184: a5 = u8 [a0 + 0x1c]\n 23187: s1 = u8 [a0 + 0x1e]\n 23190: a1 = u8 [a0 + 0x1f]\n 23193: a4 = a4 << 0x8\n 23196: a4 = a4 | a5\n 23199: s1 = s1 << 0x10\n 23202: a1 = a1 << 0x18\n 23205: a1 = a1 | s1\n 23208: a1 = a1 | a4\n 23211: a1 = a1 << 0x20\n 23214: a3 = a3 | a1\n 23217: a1 = u8 [a0 + 0x9]\n 23220: a4 = u8 [a0 + 0x8]\n 23223: a5 = u8 [a0 + 0xa]\n 23226: s1 = u8 [a0 + 0xb]\n 23229: a1 = a1 << 0x8\n 23232: a1 = a1 | a4\n 23235: a5 = a5 << 0x10\n 23238: s1 = s1 << 0x18\n 23241: a5 = a5 | s1\n 23244: a1 = a1 | a5\n 23247: a4 = u8 [a0 + 0xd]\n 23250: a5 = u8 [a0 + 0xc]\n 23253: s1 = u8 [a0 + 0xe]\n 23256: a0 = u8 [a0 + 0xf]\n 23259: a4 = a4 << 0x8\n 23262: a4 = a4 | a5\n 23265: s1 = s1 << 0x10\n 23268: a0 = a0 << 0x18\n 23271: a0 = a0 | s1\n 23274: a0 = a0 | a4\n 23277: a0 = a0 << 0x20\n 23280: a0 = a0 | a1\n 23283: s1 = reverse a0\n 23285: a1 = reverse a3\n 23287: a2 = reverse a2\n 23289: a0 = reverse t0\n 23291: u64 [sp + 0x38] = a0\n 23294: u64 [sp + 0x30] = a2\n 23297: a0 = a0 | a2\n 23300: a2 = a1\n 23302: a1 = a1 | s1\n 23305: a1 = a1 | a0\n 23308: a1 = a1 >> 0x20\n 23311: a0 = a0 | s1\n 23314: a0 = a0 << 0x20\n 23317: a0 = a0 | a1\n 23320: jump @375 if a0 != 0\n      : @366 (gas: 5)\n 23324: u64 [sp + 0x28] = a2\n 23327: i32 a0 = a2 + 0\n 23329: a1 = 0x20\n 23332: u64 [sp + 0x20] = a0\n 23335: ra = 334, jump @0\n      : @367 [@dyn 167] (gas: 50)\n 23341: u8 [a0 + 31] = 0\n 23344: u8 [a0 + 30] = 0\n 23347: u8 [a0 + 29] = 0\n 23350: u8 [a0 + 28] = 0\n 23353: u8 [a0 + 27] = 0\n 23356: u8 [a0 + 26] = 0\n 23359: u8 [a0 + 25] = 0\n 23362: u8 [a0 + 24] = 0\n 23365: u8 [a0 + 23] = 0\n 23368: u8 [a0 + 22] = 0\n 23371: u8 [a0 + 21] = 0\n 23374: u8 [a0 + 20] = 0\n 23377: u8 [a0 + 19] = 0\n 23380: u8 [a0 + 18] = 0\n 23383: u8 [a0 + 17] = 0\n 23386: u8 [a0 + 16] = 0\n 23389: u8 [a0 + 15] = 0\n 23392: u8 [a0 + 14] = 0\n 23395: u8 [a0 + 13] = 0\n 23398: u8 [a0 + 12] = 0\n 23401: u8 [a0 + 11] = 0\n 23404: u8 [a0 + 10] = 0\n 23407: u8 [a0 + 9] = 0\n 23410: u8 [a0 + 8] = 0\n 23413: u8 [a0 + 7] = 0\n 23416: u8 [a0 + 6] = 0\n 23419: u8 [a0 + 5] = 0\n 23422: u8 [a0 + 4] = 0\n 23425: u8 [a0 + 3] = 0xa0\n 23430: u8 [a0 + 2] = 0x79\n 23434: u8 [a0 + 1] = 0xc3\n 23439: u8 [a0 + 0] = 0x8\n 23442: a1 = u64 [sp + 0x28]\n 23445: a0 = a1 + 0x4\n 23448: a1 = a0 <u a1\n 23451: a3 = u64 [sp + 0x38]\n 23454: a2 = a3 + a1\n 23457: a3 = a2 <u a3\n 23460: a3 = a1 if a1 == 0\n 23463: a3 = a3 + s1\n 23466: a1 = a3 <u s1\n 23469: a4 = u64 [sp + 0x30]\n 23472: a4 = a4 + a1\n 23475: u64 [sp + 0x48] = a2\n 23478: u64 [sp + 0x40] = a0\n 23481: u64 [sp + 0x50] = a3\n 23484: a0 = sp + 0x60\n 23487: a1 = sp + 0x40\n 23490: u64 [sp + 0x58] = a4\n 23493: ra = 336, jump @348\n      : @368 [@dyn 168] (gas: 5)\n 23499: a0 = u64 [sp + 0x68]\n 23502: t0 = u64 [sp + 0x78]\n 23505: t1 = u64 [sp + 0x60]\n 23508: a3 = u64 [sp + 0x70]\n 23511: jump @374\n      : @369 (gas: 3)\n 23514: a0 = 0x40\n 23517: a1 = 0x20\n 23520: ra = 338, jump @0\n      : @370 [@dyn 169] (gas: 103)\n 23526: a1 = u8 [a0 + 0x11]\n 23529: a2 = u8 [a0 + 0x10]\n 23532: a3 = u8 [a0 + 0x12]\n 23535: a4 = u8 [a0 + 0x13]\n 23538: a1 = a1 << 0x8\n 23541: a1 = a1 | a2\n 23544: a3 = a3 << 0x10\n 23547: a4 = a4 << 0x18\n 23550: a3 = a3 | a4\n 23553: a1 = a1 | a3\n 23556: a2 = u8 [a0 + 0x15]\n 23559: a3 = u8 [a0 + 0x14]\n 23562: a4 = u8 [a0 + 0x16]\n 23565: a5 = u8 [a0 + 0x17]\n 23568: a2 = a2 << 0x8\n 23571: a2 = a2 | a3\n 23574: a4 = a4 << 0x10\n 23577: a5 = a5 << 0x18\n 23580: a4 = a4 | a5\n 23583: a2 = a2 | a4\n 23586: a2 = a2 << 0x20\n 23589: t0 = a2 | a1\n 23592: a2 = u8 [a0 + 0x1]\n 23595: a3 = u8 [a0]\n 23597: a4 = u8 [a0 + 0x2]\n 23600: a5 = u8 [a0 + 0x3]\n 23603: a2 = a2 << 0x8\n 23606: a2 = a2 | a3\n 23609: a4 = a4 << 0x10\n 23612: a5 = a5 << 0x18\n 23615: a4 = a4 | a5\n 23618: a2 = a2 | a4\n 23621: a3 = u8 [a0 + 0x5]\n 23624: a4 = u8 [a0 + 0x4]\n 23627: a5 = u8 [a0 + 0x6]\n 23630: s1 = u8 [a0 + 0x7]\n 23633: a3 = a3 << 0x8\n 23636: a3 = a3 | a4\n 23639: a5 = a5 << 0x10\n 23642: s1 = s1 << 0x18\n 23645: a5 = a5 | s1\n 23648: a3 = a3 | a5\n 23651: a3 = a3 << 0x20\n 23654: a2 = a2 | a3\n 23657: a3 = u8 [a0 + 0x19]\n 23660: a4 = u8 [a0 + 0x18]\n 23663: a5 = u8 [a0 + 0x1a]\n 23666: s1 = u8 [a0 + 0x1b]\n 23669: a3 = a3 << 0x8\n 23672: a3 = a3 | a4\n 23675: a5 = a5 << 0x10\n 23678: s1 = s1 << 0x18\n 23681: a5 = a5 | s1\n 23684: a3 = a3 | a5\n 23687: a4 = u8 [a0 + 0x1d]\n 23690: a5 = u8 [a0 + 0x1c]\n 23693: s1 = u8 [a0 + 0x1e]\n 23696: a1 = u8 [a0 + 0x1f]\n 23699: a4 = a4 << 0x8\n 23702: a4 = a4 | a5\n 23705: s1 = s1 << 0x10\n 23708: a1 = a1 << 0x18\n 23711: a1 = a1 | s1\n 23714: a1 = a1 | a4\n 23717: a1 = a1 << 0x20\n 23720: a3 = a3 | a1\n 23723: a1 = u8 [a0 + 0x9]\n 23726: a4 = u8 [a0 + 0x8]\n 23729: a5 = u8 [a0 + 0xa]\n 23732: s1 = u8 [a0 + 0xb]\n 23735: a1 = a1 << 0x8\n 23738: a1 = a1 | a4\n 23741: a5 = a5 << 0x10\n 23744: s1 = s1 << 0x18\n 23747: a5 = a5 | s1\n 23750: a1 = a1 | a5\n 23753: a4 = u8 [a0 + 0xd]\n 23756: a5 = u8 [a0 + 0xc]\n 23759: s1 = u8 [a0 + 0xe]\n 23762: a0 = u8 [a0 + 0xf]\n 23765: a4 = a4 << 0x8\n 23768: a4 = a4 | a5\n 23771: s1 = s1 << 0x10\n 23774: a0 = a0 << 0x18\n 23777: a0 = a0 | s1\n 23780: a0 = a0 | a4\n 23783: a0 = a0 << 0x20\n 23786: a0 = a0 | a1\n 23789: s1 = reverse a0\n 23791: a1 = reverse a3\n 23793: a2 = reverse a2\n 23795: a0 = reverse t0\n 23797: u64 [sp + 0x38] = a0\n 23800: u64 [sp + 0x30] = a2\n 23803: a0 = a0 | a2\n 23806: a2 = a1\n 23808: a1 = a1 | s1\n 23811: a1 = a1 | a0\n 23814: a1 = a1 >> 0x20\n 23817: a0 = a0 | s1\n 23820: a0 = a0 << 0x20\n 23823: a0 = a0 | a1\n 23826: jump @375 if a0 != 0\n      : @371 (gas: 5)\n 23830: u64 [sp + 0x28] = a2\n 23833: i32 a0 = a2 + 0\n 23835: a1 = 0x20\n 23838: u64 [sp + 0x20] = a0\n 23841: ra = 340, jump @0\n      : @372 [@dyn 170] (gas: 50)\n 23847: u8 [a0 + 31] = 0\n 23850: u8 [a0 + 30] = 0\n 23853: u8 [a0 + 29] = 0\n 23856: u8 [a0 + 28] = 0\n 23859: u8 [a0 + 27] = 0\n 23862: u8 [a0 + 26] = 0\n 23865: u8 [a0 + 25] = 0\n 23868: u8 [a0 + 24] = 0\n 23871: u8 [a0 + 23] = 0\n 23874: u8 [a0 + 22] = 0\n 23877: u8 [a0 + 21] = 0\n 23880: u8 [a0 + 20] = 0\n 23883: u8 [a0 + 19] = 0\n 23886: u8 [a0 + 18] = 0\n 23889: u8 [a0 + 17] = 0\n 23892: u8 [a0 + 16] = 0\n 23895: u8 [a0 + 15] = 0\n 23898: u8 [a0 + 14] = 0\n 23901: u8 [a0 + 13] = 0\n 23904: u8 [a0 + 12] = 0\n 23907: u8 [a0 + 11] = 0\n 23910: u8 [a0 + 10] = 0\n 23913: u8 [a0 + 9] = 0\n 23916: u8 [a0 + 8] = 0\n 23919: u8 [a0 + 7] = 0\n 23922: u8 [a0 + 6] = 0\n 23925: u8 [a0 + 5] = 0\n 23928: u8 [a0 + 4] = 0\n 23931: u8 [a0 + 3] = 0xa0\n 23936: u8 [a0 + 2] = 0x79\n 23940: u8 [a0 + 1] = 0xc3\n 23945: u8 [a0 + 0] = 0x8\n 23948: a1 = u64 [sp + 0x28]\n 23951: a0 = a1 + 0x4\n 23954: a1 = a0 <u a1\n 23957: a3 = u64 [sp + 0x38]\n 23960: a2 = a3 + a1\n 23963: a3 = a2 <u a3\n 23966: a3 = a1 if a1 == 0\n 23969: a3 = a3 + s1\n 23972: a1 = a3 <u s1\n 23975: a4 = u64 [sp + 0x30]\n 23978: a4 = a4 + a1\n 23981: u64 [sp + 0x88] = a2\n 23985: u64 [sp + 0x80] = a0\n 23989: u64 [sp + 0x90] = a3\n 23993: a0 = sp + 0xa0\n 23997: a1 = sp + 0x80\n 24001: u64 [sp + 0x98] = a4\n 24005: ra = 342, jump @243\n      : @373 [@dyn 171] (gas: 5)\n 24011: a0 = u64 [sp + 0xa8]\n 24015: t0 = u64 [sp + 0xb8]\n 24019: t1 = u64 [sp + 0xa0]\n 24023: a3 = u64 [sp + 0xb0]\n 24027: fallthrough\n      : @374 (gas: 26)\n 24028: a1 = u64 [sp + 0x38]\n 24031: a4 = a0 ^ a1\n 24034: a5 = a0 <u a1\n 24037: t2 = a1\n 24039: a2 = u64 [sp + 0x28]\n 24042: a1 = t1 <u a2\n 24045: a5 = a1 if a4 == 0\n 24048: a4 = a3 - s1\n 24051: a3 = a3 <u s1\n 24054: s1 = u64 [sp + 0x30]\n 24057: s1 = t0 - s1\n 24060: s1 = s1 - a3\n 24063: a3 = a4 <u a5\n 24066: s1 = s1 - a3\n 24069: a4 = a4 - a5\n 24072: a0 = a0 - t2\n 24075: a1 = a0 - a1\n 24078: a0 = t1 - a2\n 24081: a1 = a1 | s1\n 24084: a2 = a0 | a4\n 24087: a2 = a2 | a1\n 24090: a1 = a1 | a4\n 24093: a2 = a2 >> 0x20\n 24096: a1 = a1 << 0x20\n 24099: a1 = a1 | a2\n 24102: jump @380 if a1 == 0\n      : @375 (gas: 1)\n 24105: trap\n      : @376 (gas: 8)\n 24106: u64 [sp + 240] = 0\n 24110: u64 [sp + 232] = 0\n 24114: u64 [sp + 224] = 0\n 24118: a0 = 0x4e487b7100000000\n 24128: a1 = sp + 0xe0\n 24132: u64 [sp + 0xf8] = a0\n 24136: a0 = 0\n 24138: ra = 344, jump @8\n      : @377 [@dyn 172] (gas: 7)\n 24144: u64 [sp + 216] = 0\n 24148: u64 [sp + 208] = 0\n 24152: u64 [sp + 192] = 0x11\n 24157: a0 = 0x4\n 24160: a1 = sp + 0xc0\n 24164: u64 [sp + 200] = 0\n 24168: ra = 346, jump @8\n      : @378 [@dyn 173] (gas: 3)\n 24174: a1 = 0x24\n 24177: a0 = 0\n 24179: ra = 348, jump @0\n      : @379 [@dyn 174] (gas: 5)\n 24185: i32 a1 = a0 + 0\n 24187: a0 = 0x1\n 24190: a2 = 0x24\n 24193: ecalli 6 // 'seal_return'\n 24195: fallthrough\n      : @380 (gas: 4)\n 24196: i32 s1 = a0 + 0\n 24198: a0 = u64 [sp + 0x20]\n 24201: a1 = s1\n 24203: ra = 350, jump @0\n      : @381 [@dyn 175] (gas: 7)\n 24209: i32 a1 = a0 + 0\n 24211: a0 = 0x1\n 24214: a2 = s1\n 24216: ecalli 6 // 'seal_return'\n 24218: a0 = 0\n 24220: ra = 0x160\n 24224: jump @10\n      : @382 [export #0: 'call'] (gas: 2)\n 24227: a0 = 0\n 24229: ra = 352, jump @10\n      : @383 [@dyn 176] [export #1: 'deploy'] (gas: 2)\n 24235: a0 = 0x1\n 24238: ra = 354, jump @10\n      : @384 [@dyn 177] (gas: 9)\n 24244: sp = sp + 0xffffffffffffffc0\n 24247: u64 [sp + 0x38] = ra\n 24250: u64 [sp + 0x30] = s0\n 24253: u64 [sp + 0x28] = s1\n 24256: s0 = sp + 0x40\n 24259: sp = sp & 0xfffffffffffffff0\n 24262: s1 = a0\n 24264: a0 = sp\n 24266: ra = 356, jump @52\n      : @385 [@dyn 178] (gas: 14)\n 24272: a0 = u64 [sp + 0x10]\n 24275: a1 = u64 [sp + 0x18]\n 24278: a2 = u64 [sp]\n 24280: a3 = u64 [sp + 0x8]\n 24283: u64 [s1 + 0x10] = a0\n 24286: u64 [s1 + 0x18] = a1\n 24289: u64 [s1] = a2\n 24291: u64 [s1 + 0x8] = a3\n 24294: sp = s0 + 0xffffffffffffffc0\n 24297: ra = u64 [sp + 0x38]\n 24300: s0 = u64 [sp + 0x30]\n 24303: s1 = u64 [sp + 0x28]\n 24306: sp = sp + 0x40\n 24309: ret\n",
				"bytecode": {
					"object": "50564d00001f6d000000000000010700c11000c000400480ac0a000000000e0000001c0000002a000000300000003b0000004a00000055000000670000007200000063616c6c5f646174615f636f707963616c6c5f646174615f6c6f616463616c6c5f646174615f73697a6563616c6c65726765745f73746f72616765686173685f6b656363616b5f3235367365616c5f72657475726e7365745f696d6d757461626c655f646174617365745f73746f7261676576616c75655f7472616e73666572726564051302c0a35e0463616c6cc0ab5e066465706c6f7906c0406c80b202c0f75e65004d0152016f0182038d03be04d304f60402051c05e405330647065b0660069306c606f4061b073007250a320aa90a750b9b0bcc0cfb0c670d740ddf0eec0e040fb00f1910e110ee106211a21230135213831499146915761585169216a717b217e318fb1807195c1b691beb1b941c9f1cd01de81df41dc41eeb1e6a20782123233923482390239e2348267a279b27482856282a295c2a7d2a2a2b382bad2bef2bfb2b2d2d472d542d632d712d7e2d2b2e952ebf2fd82fe32ff22f77300a3197310f335034ee3455356335e8357b3608372438b7384439833a753bdf3bc53c7c3de63de23f9140fb40d4421944c044df442446cb4654479947b747c247db47e9475948054a194b324b3d4b4c4bbd4bd44bdf4bee4b534ca14cb84cc34cd24c344d8a4d724f2651445262526d527c52b152d95213532f53dc53465481541f55b2553f564c57f9576358ec592d5bcb5be65b275dcb5d505e6e5e795e915eab5eb45ed05e8b791052093b3309010001ae9833c8780883881f8488e0553801000128390a000002ae8a123d080000023308100002c8870732003308100002c88707320000009511d87b10207b15187b161082897b19088289087b1982851082861883773308205010029f6f686f59821a6faa821b086fbb787b18787a10787908787898bc38787c1f98bc30787c1e98bc28787c1d98bc20787c1c98bc18787c1b98bc10787c1a98bb08787b1998ab38787b1798ab30787b1698ab28787b1598ab20787b1498ab18787b1398ab10787b1298aa08787a11989a38787a0f989a30787a0e989a28787a0d989a20787a0c989a18787a0b989a10787a0a98990878790998893878790798893078790698892878790598892078790498891878790398891078790298880878780182102082151882161095112832009511f07b10087b158475010a02013d0704000251050750100409501006b5039511c07b10387b15307b16289515408411e033074033082050100896fe46171f800046171e46171d46171c46171b46171a46171946171846171746171646171546171446171346171246171146171046170f46170e46170d46170c46170b46170a4617094617084617074617064617054617044617034617024617014607491118490149110849111083170a0901821710821818821908821ad49808d4a707d487075207c10233000a951120ff7b10d8007b15d0007b16c8009515e0008411e08317200a038217288118308219206f77977a206f88988820d4a8087b18189877206f96976820d487077b171098662049219800492190004921880049218000014921b8004921b0004921a8004921a0004811602083188000831aa000831b603309ff33070a048017b4009777208218b800d4670749219800492190004921880049218000017b18b8007b17b0008217107b17a8008217187b17a00083188000831aa0003309ff330b2033070a088317400a038217488118508219406f77977a206f88988820d4a8087b18189877206f96976820d487077b171098662049219800492190004921880049218000024921b8004921b0004921a8004921a0004811602083188000831aa000831b603309ff33070a048017b4009777208218b800d4670749219800492190004921880049218000027b18b8007b17b0008217107b17a8008217187b17a00083188000831aa0003309ff330b2033070a08955120ff8210d8008215d0008216c8009511e000320033074033082050100c78fc7c78117c79107c7a127c7b13978808d4980897aa1097bb18d4ba0ad4a8087c79157c7a147c7b167c7c17979908d4a90997bb1097cc18d4cb0bd4b909979920d489027c79017c7a7c7b027c7c03979908d4a90997bb1097cc18d4cb0bd4b9097c7a057c7b047c7c067c760797aa08d4ba0a97cc10976618d46c0cd4ca0a97aa20d4a9097c7a197c7b187c7c1a7c761b97aa08d4ba0a97cc10976618d46c0cd4ca0a7c7b1d7c7c1c7c761e7c781f97bb08d4cb0b976610978818d46808d4b808978820d48a0a7c78097c7b087c7c0a7c760b978808d4b80897cc10976618d46c0cd4c8087c7b0d7c7c0c7c760e7c770f97bb08d4cb0b976610977718d46707d4b707977720d487076f776fa66f986f29d49808d47609d48909989920d48707977720d49707510717003307330850100e47fb837833070133090a060183666467330850101032fb8377330833090a01390808000251080d330710000383770a0701646733085010120ffb8378330733093300140a06019511c07b10387b15309515408411e0330740330820501016e9fa46171f800046171e46171d46171c46171b46171a46171946171846171746171646171546171446171346171246171146171046170f46170e46170d46170c46170b46170a46170946170846170746170346170246170146073908040002461706461705461704531804d900831733080a010181171c5a47e58cca4d53330800d04b9e5a47e8d24b9e9500514744c5878bba0052475bcba58dad00330018951160ff7b1098007b1590007b1688009515a0008411e04911384911304911284911208317200a0928f71f330800f0e65b5a47c6f2e65b5d5147e68cca4da2005247720058506233001a9511c0fe7b1038017b1530017b162801951540018411e049211801492110014921080149210001831700010a09281e0c8388e902aa878f005247ea75c7f92050101cf6248388c702aa87a9005247422435650c50101e1315501020f9263300229511e0fd7b1018027b1510027b160802951520028411e04921d8014921d0014921c8014921c0018317c0010a09287417330024951180fe7b1078017b1570017b166801951580018411e049215801492150014921480149214001831740010a09289203330026951160ff7b1098007b1590007b1688009515a0008411e04911384911304911284911208317200a0928c9213300289511807b10787b1570951580008411e04911384911304911284911208317200a0928920f9511f07b10087b15647533074033082050102ad5f87c78017c797c7a027c7b03978808d4980897aa1097bb18d4ba0ad4a8087c79057c7a047c7b067c7c07979908d4a90997bb1097cc18d4cb0bd4b909979920d489027c79097c7a087c7b0a7c7c0b979908d4a90997bb1097cc18d4cb0bd4b9097c7a0d7c7b0c7c7c0e7c780f97aa08d4ba0a97cc10978818d4c808d4a808978820d498037c78117c7a107c7b127c7c13978808d4a80897bb1097cc18d4cb0bd4b8087c7a157c7b147c7c167c791797aa08d4ba0a97cc10979918d4c909d4a909979920d4890a7c78197c79187c7b1a7c7c1b978808d4980897bb1097cc18d4cb0bd4b8087c791d7c7b1c7c7c1e7c771f979908d4b90997cc10977718d4c707d49707977720d487076f776fa86f396f2a7b5a187b59107b58087b5782100882159511103200951160ff7b1098007b1590007b1688009515a0008411e0828210828c08829a088280829b7b1b48829410d3ca03d8ca06d80b0b7b1b40da3b068283188298187b1838c92409c969087b1850d86908d8240b7b1358821938c93909c9b909c98909c9ca08821a40c9a808821a48c90a0a8e8b88aa6085aa01db8b0a8f968218508e8bdb960bd49808db8b0a510a3e016476d420077b1c50821858d4c808d487079877207b1238d42808978820d48707520719017b104883088317607b18400a0101821a70821b7814070000000001000000d37a08d4b80898a92088990194b993895109e8007b1b287b1a30821838821958d489091407e0ffffff00000000821848d8780782185094877b195894975107ba008217687b17208217607b17388217408378208317600a01011407c0ffffff00000000821848d8780782185094878218589487510784008217787b17188217707b17488217687b17508217607b17588217408378408317600a01821778821870821968821a607b67587b68507b69487b6a408217187b67388217487b67308217507b67288217587b67208217287b67188217307b67108217207b67088217387b67955160ff8210980082159000821688009511a0003200003307330850102ce0f58378330701330933002e0a0601828910828a18828b088288d4ba0ad49808d4a8088e884917184917104917087b783200821750018218580182194801821a4001d49808d4a707d487075207550238070400024921b8004921b0004921a8007b17a0004921d8004921d0004921c000049517e0009518c0009519a0004921c800501030b0fd8217e0007b17188213e8008214f0008210f80082120001821c080182161001821b1801821a20018218280182193001821738017b17387b19307b18287b1a207b1b587b16507b1c487b12407b10787b14707b136895178000951860951940951a20821b187b1b60330032951100ff7b10f8007b15f0007b16e800951500018411e082ab187b1b3882ab107b1b5882ab087b1b4082aa7b1a48829a087b1a30829a7b1a28829a187b1a208299107b191882897b19108289087b19088086107b175033082033073300b000288ef4821798007b1718821790007b1708821788007b1710821780007b173307403308205010346af47c78117c79107c7a127c7b13978808d4980897aa1097bb18d4ba0ad4a8087c79157c7a147c7b167c7c17979908d4a90997bb1097cc18d4cb0bd4b909979920d489027c79017c7a7c7b027c7c03979908d4a90997bb1097cc18d4cb0bd4b9097c7a057c7b047c7c067c760797aa08d4ba0a97cc10976618d46c0cd4ca0a97aa20d4a9097c7a197c7b187c7c1a7c761b97aa08d4ba0a97cc10976618d46c0cd4ca0a7c7b1d7c7c1c7c761e7c781f97bb08d4cb0b976610978818d46808d4b808978820d48a0a7c78097c7b087c7c0a7c760b978808d4b80897cc10976618d46c0cd4c8087c7b0d7c7c0c7c760e7c770f97bb08d4cb0b976610977718d46707d4b707977720d487076f786fa76f996f2ad4a909d4870ad49a0a98aa20d49808978820d4a808510817003307330850103639f3837833070133090a06018218088219d49808821918821a10d4a909d498088e887b1818837633082064675010380af346171e46171d46171c46171b46171a46171946171846171746171646171546171446171346171246171146171046170f46170e46170d46170c46170b46170a461709461708461707461706461705461704461703461702461701460782181878781f330820646750103a9ef28378330920330733003c0a06019511807b10787b15707b1668951580008411e0828010828c08829a088283829b7b1b28829410d3ca02d8ca06d83b0b7b1b20da2b068282188298187b1818c90409c969087b1830d86908d8040b7b1238821918c92909c9b909c98909c9ca08821a20c9a808821a28c93a0a8e8b88aa4085aa01db8b0a8f968218308e8bdb960bd49808db8b0a510adc006476d403077b1c30821838d4c808d487079877207b1028d40808978820d487075207b7007b132083388317407b18080a0101821a50821b5814070000000001000000d37a08d4b80898a92088990194b99389510986007b1b107b1a18821828821938d498081407e0ffffff00000000821920d879078219309497948751075b8217487b17308217407b17388217088378208317400a01821758821850821948821a407b67387b68307b69287b6a208217107b67188217187b67108217307b67088217387b67955180821078821570821668951180003200003307330850103e26f1837833070133093300400a0601828918828a10828b0882887b79187b7a107b7b087b7832006f688219086f99821a106faa98ab38787b1f98ab30787b1e98ab28787b1d98ab20787b1c98ab18787b1b98ab10787b1a98ab08787b19787a18989a38787a17989a30787a16989a28787a15989a20787a14989a18787a13989a10787a12989a08787a1178791098893878790f98893078790e98892878790d98892078790c46170b46170a461709787808461707461706461705461704461703461702461701460733072033082050104455f046171f46171e46171d46171c46171b46171a46171946171846171746171646171546171446171346171246171146171046170f46170e46170d46170c46170b46170a46170946170846170746170646170546170446170346170246170146073308403307501046ecef83778319603308400a0501821b30821c28821318821220d4230788c81194b894785108a000821760821868821978821a706f776f886f996faac8ab0bc89c0cd89c09c89b0bd3ab06d8ab0ada690ac83809c89a0ad89a06d88908c82707c88707c867077b1c407b1b487b1a507b17584911784911704911684911604821800020831840831a60831b80003309ff33070a04821778821870821968821a60821b387bb7187bb8107bb9087bba955160ff8210980082159000821688009511a0003200330750104824ef8378330701330933004a0a06019511a87b10507b15487b1640828a10828618828c088285d46c0bd4a508d4b808988820d4ab0b97bb20d4b8087b1738520830018297187b178297107b17088297087b171082977b17189557207b1730d85707c87c087b1828d8c808da7708c8a8087b1820d8a807c87606835733082050104ca3ee82186f888219086f99821a106faa821b186fbb98bc38787c1f98bc30787c1e98bc28787c1d98bc20787c1c98bc18787c1b98bc10787c1a98bc08787c19787b18787a1098ab38787b1798ab30787b1698ab28787b1598ab20787b1498ab18787b1398ab10787b1298aa08787a11787908989a38787a0f989a30787a0e989a28787a0d989a20787a0c989a18787a0b989a10787a0a98990878790978789889387879079889307879069889287879059889207879049889187879039889107879029888087878018217388218307b788218287b78088218207b78107b7618821050821548821640951158320000821710018218180182190801821a0001d49808d4a707d487075207130238070400024921980049219000492188007b1780004921b8004921b0004921a000049517c0009518a000951980004921a80050104ed7fa8212c0008217c8008218d0008219d800821be000821ce8008216f000821af8007b1a387b16307b1c287b1b207b19587b18507b17489517609518409519207b1240330050951160ff7b1098007b1590007b1688009515a0008411e0829a087b1a30829a7b1a28829a187b1a208299107b191882897b19108289087b19088086107b1738330820330733004228d3ec8217787b178217707b17088217687b17108217607b1718330740330820501052b3ec7c78117c79107c7a127c7b13978808d4980897aa1097bb18d4ba0ad4a8087c79157c7a147c7b167c7c17979908d4a90997bb1097cc18d4cb0bd4b909979920d489027c79017c7a7c7b027c7c03979908d4a90997bb1097cc18d4cb0bd4b9097c7a057c7b047c7c067c760797aa08d4ba0a97cc10976618d46c0cd4ca0a97aa20d4a9097c7a197c7b187c7c1a7c761b97aa08d4ba0a97cc10976618d46c0cd4ca0a7c7b1d7c7c1c7c761e7c781f97bb08d4cb0b976610978818d46808d4b808978820d48a0a7c78097c7b087c7c0a7c760b978808d4b80897cc10976618d46c0cd4c8087c7b0d7c7c0c7c760e7c770f97bb08d4cb0b976610977718d46707d4b707977720d487076f786fa76f996f2ad4a909d4870ad49a0a98aa20d49808978820d4a808510817003307330850105482eb837833070133090a0601837633082064675010566ceb82186f888219086f99821a106faa821b186fbb98bc38787c1f98bc30787c1e98bc28787c1d98bc20787c1c98bc18787c1b98bc10787c1a98bc08787c19787b18787a1098ab38787b1798ab30787b1698ab28787b1598ab20787b1498ab18787b1398ab10787b1298aa08787a11787908989a38787a0f989a30787a0e989a28787a0d989a20787a0c989a18787a0b989a10787a0a989908787909787898893878790798893078790698892878790598892078790498891878790398891078790298880878780133082064675010589cea8378330920330733005a0a06019511807b10787b15707b1668951580008411e0828410828c0882920882867b1610829b7b1b18829010d3c20a7b1a38d8c20ad86b0b821338da3b0a64b38288187b18388298187b1820c94008c9a8097b1928d8a8097b1430d8400a821838821b20c98b08c9a808c99804c9c206c93609821210821818c9280a8e9b88aa2085aa01db9b0a8f498218288e8bdb490bd44808db8b0a510a726476821930d49207821838d4c808d48707987720d49808978820d4870752075183288317400a010182175082185814090000000001000000d37909d48909987a2088aa01948a939a510a27821948821a407b69087b6a7b67107b6818955180821078821570821668951180003200003307330850105c80e98378330701330933005e0a0601828918828a10828b0882887b79187b7a107b7b087b783200821730821838821928821a20d49808d4a707d4870752071b02390704000254172312028317403308040a010182175082185814090000000001000000d37909d48909987a2088aa01948a939a510ae401821948821a407b19087b1a7b171064177b18183300609511e0fe7b1018017b1510017b160801951520018411e08278107b18188278087b182082777b1728831780000a038217880082188000811990006f77987a206f86976820d4a8087b18389777206f98988820d487077b17309866204921d8004921d0004921c8004921c000014921f8004921f0004921e8004921e0004821a000208318c000831ae000831ba0003309ff33070a04289b1a33074033082050106253e87c78117c79107c7a127c7b13978808d4980897aa1097bb18d4ba0ad4a8087c79157c7a147c7b167c7c17979908d4a90997bb1097cc18d4cb0bd4b909979920d489027c79017c7a7c7b027c7c03979908d4a90997bb1097cc18d4cb0bd4b9097c7a057c7b047c7c067c780797aa08d4ba0a97cc10978818d4c808d4a808978820d498037c78197c7a187c7b1a7c7c1b978808d4a80897bb1097cc18d4cb0bd4b8087c7a1d7c7b1c7c7c1e7c791f97aa08d4ba0a97cc10979918d4c909d4a909979920d4890a7c78097c79087c7b0a7c7c0b978808d4980897bb1097cc18d4cb0bd4b8087c790d7c7b0c7c7c0e7c770f979908d4b90997cc10977718d4c707d49707977720d487076f786fa76f396f2ad4a909d4870ad49a0a98aa20d49808978820d4a80851081e003307330850106422e7837833070133090a068377330066280fe783775010660ae78378330733093300680a0601951140ff7b10b8007b15b0007b16a8009515c0008411e0828010828408829208828c7b1c78829a7b1a68829b10d34203d84206d8ca0ada3a06828318829c18c90b09c969087b1870d86908d80b0b7b1360c93c09821c78c9b909c98909c94208c9a808821a68c9ca0a8e8b88aa800085aa01db8b0a8f968218708e8bdb960bd49808db8b0a510ac7016476d40c077b1470821860d48408d487079877207b1058d40808978820d487075207a20183c8831780007b18680a0101821a9000821b980014070000000001000000d37a08d4b80898a92088990194b99389510971017b1b487b1a50821858821960d489091407e0ffffff00000000821878d8780782187094877b1960949751074301821788007b1740821780007b1758821768837820831780000a0101821a9000821b980014070000000001000000d37a08d4b80898a92088990194b99389510903017b1b307b1a381407c0ffffff00000000821878d87807821870948782186094875107de00821788007b1720821780007b1728821768837840831780000a01011407a0ffffff00000000821878d87807821870948782186094875107a500821798007b1718821790007b1760821788007b1770821780007b1778821768837860831780000a01821798008218900082198800821a80007b67787b68707b69687b6a608217187b67588217607b67508217707b67488217787b67408217307b67388217387b67308217207b67288217287b67208217487b67188217507b67108217407b67088217587b67955140ff8210b8008215b0008216a8009511c0003200003307330850106aa9e48378330701330933006c0a0601951140fe7b10b8017b15b0017b16a8019515c0018411e049219801492190014921880149218001831780010a0901821790018218980182198801821a8001d49808d4a707d487075207170238070400024921d8004921d0004921c8007b17c0004921f8004921f0004921e00004951700019518e0009519c0004921e80050106e21fd821700017b1738821708017b1730821710017b1728821718017b1720821720017b17188210280182143001821338018212400182164801821c5001821b5801821a60018219680182187001821778017b17587b18507b19487b1a407b1b787b1c707b16687b12607b1398007b1490007b1088008217187b1780008217207b17b8008217287b17b0008217307b17a8009517a00095188000951960951a40821b387b1ba000501070641d33074033082050107266e37c78117c79107c7a127c7b13978808d4980897aa1097bb18d4ba0ad4a8087c79157c7a147c7b167c7c17979908d4a90997bb1097cc18d4cb0bd4b909979920d489027c79017c7a7c7b027c7c03979908d4a90997bb1097cc18d4cb0bd4b9097c7a057c7b047c7c067c760797aa08d4ba0a97cc10976618d46c0cd4ca0a97aa20d4a9097c7a197c7b187c7c1a7c761b97aa08d4ba0a97cc10976618d46c0cd4ca0a7c7b1d7c7c1c7c761e7c781f97bb08d4cb0b976610978818d46808d4b808978820d48a0a7c78097c7b087c7c0a7c760b978808d4b80897cc10976618d46c0cd4c8087c7b0d7c7c0c7c760e7c770f97bb08d4cb0b976610977718d46707d4b707977720d487076f786fa76f996f2ad4a909d4870ad49a0a98aa20d49808978820d4a80851081e003307330850107435e2837833070133090a0683773300762822e283775010761de28378330733093300780a06014917184917104917083308117b7832008217d0018218d8018219c801821ac001d49808d4a707d487075207fc043907040002541723f3048317e0013308040a01018217f0018219f80114080000000001000000d37808d49808987a2088aa01949a938a510ac2048218e801821ae0017b1888017b1a80017b1790019517a001951880017b19980133007a951120ff7b10d8007b15d0007b16c8009515e0008411e08289107b198289087b190882887b18107b171849117849117049116020029517800095186049116833003401285b298217b8017b1758018217b0017b1768018217a8017b1750018216a00133074033082050107c1ae164607c78197c79187c7a1a7c7b1b978808d4980897aa1097bb18d4ba0ad4a8087c791d7c7a1c7c7b1e7c7c1f979908d4a90997bb1097cc18d4cb0bd4b909979920d489027c79117c7a107c7b127c7c13979908d4a90997bb1097cc18d4cb0bd4b9097c7a157c7b147c7c167c761797aa08d4ba0a97cc10976618d46c0cd4ca0a97aa20d4a9097c7a097c7b087c7c0a7c760b97aa08d4ba0a97cc10976618d46c0cd4ca0a7c7b0d7c7c0c7c760e7c780f97bb08d4cb0b976610978818d46808d4b808978820d48a0a7c78017c7b7c7c027c7603978808d4b80897cc10976618d46c0cd4c8087c7b057c7c047c76067c770797bb08d4cb0b976610977718d46707d4b707821b5801977720d487076f736fa86f9c6f278212500149214001492148013309330a7b17207b1770017b1c0864c67b181864847b13107b13780101821c6801d4c007d4b208d48707987720d4c808978820d487075207d6027b1a28017b1930017b1250017b1b58017b10380183073308207b166001644650107e9bdf646b82166001821c7001d4bc08821a7801d4a609d49808988820d4b909979920d4980852088b027c787b1820017c78017b1818017c78027b1810017c78037b1808017c78047b1800017c78057b18f8007c78067b18f0007c78077b18e8007c78087b18e0007c78097b18d8007c780a7b18d0007c780b7b18c8007c780c7b18c0007c780d7b18b8007c780e7b18b0007c780f7b18a8007c78107b1898007c78117b1890007c78127b1888007c78137b1880007c78147b18787c78157b18707c78167b18687c78177b18607c78187b18587c78197b18507c781a7b18487c781b7b18407c781c7b18387c781d7b18307c781e7b18287c761f83c73308207b1a78017b1ba0007b1c7001502080008ede78761f82182878781e82183078781d82183878781c82184078781b82184878781a821850787819821858787818821860787817821868787816821870787815821878787814821880007878138218880078781282189000787811821898007878108218a80078780f8218b00078780e8218b80078780d8218c00078780c8218c80078780b8218d00078780a8218d8007878098218e0007878088218e8007878078218f0007878068218f80078780582180001787804821808017878038218100178780282181801787801821820017878821870019587207b172001d8870982186001c898077b171801d8870ada990a8217a000c8a704d8740a82177801c8a7077b17780182173801957020d8700c82175001c8c702d87206dacc0682194001889c1095990182174801947c889801c87808d48907887701821b3001c8b707d8b703821a2801d4ab0bc83a0a94bc821b6801c8b606d8b60b82135801c83b0b7b1940017b18480164797b166801821720017b17700182161801520c39fd821920821a18d4a907821810821b08d4b808d48707987720d4a808978820d48707510718003307330850208200e3dc837833070133090a060183973308200250208400cddc8378330920023307330086000a0601827218828318827b10827c088289088274828a828810d3c907d8c909d84a0adb790ac9b807d8a707d8b808c92309c98909c9790957090532009511f87b10330733085020880076dc8378330701330933008a000a06019511a07b10587b15507b16487b178283828008828b108288188292829a0882941882991098253d97a603d4650598aa3d979603d46a0a98993d974403d494069724038e698eacdb690c8e5788490001859401db5704d46a0adbac0446114746114646114546114446114346114246114146114046113f46113e46113d46113c46113b46113a46113946113846113746113646113546113446113346113246113146113046112f46112e46112d46112c46112b46112a461129461128781820781b1878101078130898873878172798873078172698872878172598872078172498871878172398871078172298880878182198b73878171f98b73078171e98b72878171d98b72078171c98b71878171b98b71078171a98bb08781b1998073878171798073078171698072878171598072078171498071878171398071078171298070878171198373878170f98373078170e98372878170d98372078170c98371878170b98371078170a98370878170984281f951708c878087c87097c89087c8a0a7c8b0b977708d4970797aa1097bb18d4ba0ad4a7077c890d7c8a0c7c8b0e7c8c0f979908d4a90997bb1097cc18d4cb0bd4b909979920d4790a7c87017c897c8b027c8c03977708d4970797bb1097cc18d4cb0bd4b7077c89057c8b047c8c067c8607979908d4b90997cc10976618d46c0cd4c909979920d497077c89117c8b107c8c127c8813979908d4b90997cc10978818d4c808d498089447944a944882194919187b98107b9a087b978210588215508216489511603200821730821838821928821a20d49808d4a707d487075207830139070400025417037a01491158491150491148491140014911784911704911684911604821800020831840831a60831b80003309ff33070a048217707b17088217687b17108217607b171833074033082050208c00bed97c78117c79107c7a127c7b13978808d4980897aa1097bb18d4ba0ad4a8087c79157c7a147c7b167c7c17979908d4a90997bb1097cc18d4cb0bd4b909979920d489027c79017c7a7c7b027c7c03979908d4a90997bb1097cc18d4cb0bd4b9097c7a057c7b047c7c067c760797aa08d4ba0a97cc10976618d46c0cd4ca0a97aa20d4a9097c7a197c7b187c7c1a7c761b97aa08d4ba0a97cc10976618d46c0cd4ca0a7c7b1d7c7c1c7c761e7c781f97bb08d4cb0b976610978818d46808d4b808978820d48a0a7c78097c7b087c7c0a7c760b978808d4b80897cc10976618d46c0cd4c8087c7b0d7c7c0c7c760e7c770f97bb08d4cb0b976610977718d46707d4b707977720d487076f786fa76f996f2ad4a909d4870ad49a0a98aa20d49808978820d4a808510818003307330850208e008cd8837833070133090a060182180897882098862083777b1708330820502090006bd86f688219106f99821a186faa98ab38787b1f98ab30787b1e98ab28787b1d98ab20787b1c98ab18787b1b98ab10787b1a98ab08787b19787a1878791046170b46170a4617094617074617064617054617044617034617024617014607989a38787a17989a30787a16989a28787a15989a20787a14989a18787a13989a10787a1298990878791178780898893878790f98893078790e98892878790d98882078780c33082082170850209200bed783783309203307330094000a06019511a07b10587b15507b16489515608411e06476491118491110491108490102491138491130491128491120481140208318831a20831b403309ff33070a048017308218288219204916187b67107b68087b699551a08210588215508216489511603200821730821838821928821a20d49808d4a707d487075207830139070400025417037a01491158491150491148491140024911784911704911684911604821800020831840831a60831b80003309ff33070a048217707b17088217687b17108217607b171833074033082050209600dcd67c78117c79107c7a127c7b13978808d4980897aa1097bb18d4ba0ad4a8087c79157c7a147c7b167c7c17979908d4a90997bb1097cc18d4cb0bd4b909979920d489027c79017c7a7c7b027c7c03979908d4a90997bb1097cc18d4cb0bd4b9097c7a057c7b047c7c067c760797aa08d4ba0a97cc10976618d46c0cd4ca0a97aa20d4a9097c7a197c7b187c7c1a7c761b97aa08d4ba0a97cc10976618d46c0cd4ca0a7c7b1d7c7c1c7c761e7c781f97bb08d4cb0b976610978818d46808d4b808978820d48a0a7c78097c7b087c7c0a7c760b978808d4b80897cc10976618d46c0cd4c8087c7b0d7c7c0c7c760e7c770f97bb08d4cb0b976610977718d46707d4b707977720d487076f786fa76f996f2ad4a909d4870ad49a0a98aa20d49808978820d4a808510818003307330850209800aad5837833070133090a060182180897882098862083777b170833082050209a0089d56f688219106f99821a186faa98ab38787b1f98ab30787b1e98ab28787b1d98ab20787b1c98ab18787b1b98ab10787b1a98ab08787b19787a1878791046170b46170a4617094617074617064617054617044617034617024617014607989a38787a17989a30787a16989a28787a15989a20787a14989a18787a13989a10787a1298990878791178780898893878790f98893078790e98892878790d98882078780c33082082170850209c00dcd48378330920330733009e000a0601951100ff7b10f8007b15f000951500018411e04921d8004921d0004921c8004921c0008317c0000a09018217d0008218d8008219c800821ac000d49808d4a707d487075207a80138070400024911584911504911487b174049117849117049116004951780009518609519404911685020a000cde1821280008213880082189000821a9800821ba000821ca8008219b0008217b8007b17187b19107b1c087b1b7b1a387b18307b132895172064187b12205020a200042b3307403308205020a4000bd47c78117c79107c7a127c7b13978808d4980897aa1097bb18d4ba0ad4a8087c79157c7a147c7b167c7c17979908d4a90997bb1097cc18d4cb0bd4b909979920d489027c79017c7a7c7b027c7c03979908d4a90997bb1097cc18d4cb0bd4b9097c7a057c7b047c7c067c780797aa08d4ba0a97cc10978818d4c808d4a808978820d498037c78197c7a187c7b1a7c7c1b978808d4a80897bb1097cc18d4cb0bd4b8087c7a1d7c7b1c7c7c1e7c791f97aa08d4ba0a97cc10979918d4c909d4a909979920d4890a7c78097c79087c7b0a7c7c0b978808d4980897bb1097cc18d4cb0bd4b8087c790d7c7b0c7c7c0e7c770f979908d4b90997cc10977718d4c707d49707977720d487076f786fa76f396f2ad4a909d4870ad49a0a98aa20d49808978820d4a80851082000330733085020a600d9d2837833070133090a0683773300a80028c4d283775020a800bfd28378330733093300aa000a06019511f87b10330733085020ac00a3d2837833070133093300ae000a0601491718491710491708490732006f688219086f99821a106faa98ab38787b1f98ab30787b1e98ab28787b1d98ab20787b1c98ab18787b1b98ab10787b1a98ab08787b19787a18989a38787a17989a30787a16989a28787a15989a20787a14989a18787a13989a10787a12989a08787a1178791098893878790f98893078790e98892878790d98892078790c46170b46170a46170978780846170746170646170546170446170346170246170146073307203308205020b200dbd146171f46171e46171d46171c46171b46171a46171946171846171746171646171546171446171346171246171146171046170f46170e46170d46170c46170b46170a461709461708461707461706461705461704461703461702461701460733084033075020b40071d183778319c0003308400a0501821b30821c28821318821220d4230788c81194b894785108e2008217c0008218c8008219d800821ad0006f776f886f996faac8ab0bc89c0cd89c09c89b0bd3ab06d8ab0ada690ac83809c89a0ad89a06d88908c82707c88707c867077b1ca0007b1ba8007b1ab0007b17b8004921d8004921d0004921c8004921c0004821e000208318a000831ac000831be0003309ff33070a048217d8008212c0008219d000821ac800821838d3870bd88706821758d8790cdbb60c821840d38a06d88a0a821848d88208db6a08d39707d4b707db7c088587018218504918184918104918087b87955100ff8210f8008215f0008216e800951100013200492190004921880049218000140700000000717b484e951880007b17980033075020b60087d0491178491170491160323307049518604911685020b8006ed033082433075020ba0023d083783307013309243300bc000a0601828918828a10828b0882887b79187b7a107b7b087b7832009511a07b10587b15507b1648828a18828b10828c088286d4ac08d4b609d48909989920d4b808978820d498087b1728520805029567207b1730d86707c87c087b18407b1c08d8c805da7705c8b5057b1b10d8b5077b1a18c8a7077b17387b1683673308203306205020be008fcf78761f8218306486d45808821940821b38d4b909d498089888207b1520d45909979920d4980846171e46171d46171c46171b46171a46171946171846171746171646171546171446171346171246171146171046170f46170e46170d46170c46170b46170a461709461708461707461706461705461704461703461702461701460752084501836533082064575020c000fcce46171f0946171e46171d46171c46171b46171a46171946171846171746171646171546171446171346171246171146171046170f46170e46170d46170c46170b46170a461709461708461707461706461705461704461703461702461701821820821938d498081409e0ffffff00000000d89609821a4094a9948946075109b7008357203308205020c2006fce46171f46171e46171d46171c46171b46171a46171946171846171746171646171546171446171346171246171146171046170f46170e46170d46170c46170b46170a46170946170872461707654617066e461705774617046f46170320461702744617016f46074e8218958760d88708821a08c88a09d8a90ada880a821810c88a0ad88a08821b18c8b808821b287bb77bb9087bba107bb8188210588215508216489511603200008017f0008218e0008219e800d36707821a30d3a808d48707821838d39808d487075207a3008216189766209866204921d8004921d0004921c8004921c000024921f8004921f0004921e8004921e0004821a000208318c000831ae000831ba0003309ff33070a048017f4009777208218f800d467074921d8004921d0004921c8004921c000027b18f8007b17f0008217207b17e8008217287b17e0008318c000831ae0003309ff330b2033070a089551e0fe8210180182151001821608019511200132003307403308205020c400f7cc7c78117c79107c7a127c7b13978808d4980897aa1097bb18d4ba0ad4a8087c79157c7a147c7b167c7c17979908d4a90997bb1097cc18d4cb0bd4b909979920d489027c79017c7a7c7b027c7c03979908d4a90997bb1097cc18d4cb0bd4b9097c7a057c7b047c7c067c760797aa08d4ba0a97cc10976618d46c0cd4ca0a97aa20d4a9097c7a197c7b187c7c1a7c761b97aa08d4ba0a97cc10976618d46c0cd4ca0a7c7b1d7c7c1c7c761e7c781f97bb08d4cb0b976610978818d46808d4b808978820d48a0a7c78097c7b087c7c0a7c760b978808d4b80897cc10976618d46c0cd4c8087c7b0d7c7c0c7c760e7c770f97bb08d4cb0b976610977718d46707d4b707977720d487076f766fa86f996f277b17387b1930d497076489d46808d47808988820d46707977720d4870752070c017b192883973308207b17205020c600b6cb46171f46171e46171d46171c46171b46171a46171946171846171746171646171546171446171346171246171146171046170f46170e46170d46170c46170b46170a461709461708461707461706461705461704461703a00046170279461701c300460708821828958704d88708821a38c88a09d8a90ada880ac86a0ad86a08821b30c88b0b7b19487b17407b1a509517609518407b1b585020c80022fb821768821278821360821a70821838d3870bd8870c6484821928d89308dab80cc96a0bd86a0a821630c96206c9a606d8cb0ac9a606c9cb0bc94707c98708c99307d46808d4b709d48909d4b808989920978820d4980851080400837682172064685020ca00b1ca837833070164693300cc000a0601828918828a10828b0882887b79187b7a107b7b087b7832009511a07b10587b15507b1648828a18828b10828c088286d4ac08d4b609d48909989920d4b808978820d498087b172852080c029567207b1730d86707c87c087b18407b1c08d8c805da7705c8b5057b1b10d8b5077b1a18c8a7077b17387b1683673308203306205020ce001eca78761f8218306486d45808821940821b38d4b909d498089888207b1520d45909979920d4980846171e46171d46171c46171b46171a46171946171846171746171646171546171446171346171246171146171046170f46170e46170d46170c46170b46170a461709461708461707461706461705461704461703461702461701460752084c01836533082064575020d0008bc946171f0f46171e46171d46171c46171b46171a46171946171846171746171646171546171446171346171246171146171046170f46170e46170d46170c46170b46170a461709461708461707461706461705461704461703461702461701821820821938d498081409e0ffffff00000000d89609821a4094a9948946075109be008357203308205020d200fec846171f46171e46171d46171c46171b46171a46171946171846171746171646171546171446171346171246171146171046170f46170e4446170d49330c20787c0c46170b6446170a724617096146170863787c0746170664461705694617046c46170361461702764617016e4607498218958760d88708821a08c88a09d8a90ada880a821810c88a0ad88a08821b18c8b808821b287bb77bb9087bba107bb8188210588215508216489511603200009511a07b10587b15507b1648828a18828b10828c088286d4ac08d4b609d48909989920d4b808978820d498087b172852080c029567207b1730d86707c87c087b18407b1c08d8c805da7705c8b5057b1b10d8b5077b1a18c8a7077b17387b1683673308203306205020d400e2c778761f8218306486d45808821940821b38d4b909d498089888207b1520d45909979920d4980846171e46171d46171c46171b46171a46171946171846171746171646171546171446171346171246171146171046170f46170e46170d46170c46170b46170a461709461708461707461706461705461704461703461702461701460752084c01836533082064575020d6004fc746171f1046171e46171d46171c46171b46171a46171946171846171746171646171546171446171346171246171146171046170f46170e46170d46170c46170b46170a461709461708461707461706461705461704461703461702461701821820821938d498081409e0ffffff00000000d89609821a4094a9948946075109be008357203308205020d800c2c646171f46171e46171d46171c46171b46171a46171946171846171746171646171546171446171346171246171146171046170f7346170e6446170d7246170c6146170b6346170a204617096846170867461707754617066f4617056e4617046546170320461702744617016f46074e8218958760d88708821a08c88a09d8a90ada880a821810c88a0ad88a08821b18c8b808821b287bb77bb9087bba107bb818821058821550821648951160320000951180fd7b1078027b1570027b166802951580028411e0829b18829c1082968299087b1bd8007b1cd000d4bc0c7b16c800886b117b19c000949b94cb510b990882a9187b19f80082a9107b19f00082a9087b19e00082a97b19e8008289107b19a0008289087b19980082887b1890008278108279087b19b00082777b17b80097882098862033082033075020da0083c56f6a8218b0006f8b8218b8006f899898387b18b80078781f9898307b18b00078781e9898287b18a80078781d9898207b18880078781c9898187b18800078781b9898107b187878781a9898087b18707878197b1968787918787b1046170b46170a461709461707461706461705461704461703461702461701460798b8387b185078781798b8307b184878781698b8287b184078781598b8207b183878781498b8187b183078781398b8107b18287878127b1b5898bb087b1b20787b11787a0898a8387b181878780f98a8307b181078780e98a8287b180878780d7b1a6098aa207b1a787a0c3307203308205020dc0091c446171f46171e46171d46171c46171b46171a46171946171846171746171646171546171446171346171246171146171046170f46170e46170d46170c46170b46170a461709461708461707461706461705461704461703461702461701460733084033075020de0027c48377831940023308400a05821758028218500282194802821a40026f776f88821bc000c88b0b821cc800c87c0cd87c07c87b0bd38b06d88b08da67086fa66f99821ad000c89a0a8217d800c86707d89a09c89707c8a808d8a809c897077b1b28027b1c20027b1830027b17380249215802492150024921480249214002482100022083182002831a4002831b00023309ff33070a0401821758028212400282195002821a48028218f800d3870bd887068217f000d8790cdbb60c8218e000d38a06d88a0a8218e800d88208db6a08d39707d4b707db7c0852081d0833082033075020e00041c382185878781082181878780f82181078780e82180878780d821878780c82196098981878780b98981078780a9898087878097879088218687878188218507878178218487878168218407878158218387878148218307878138218287878128218207878118218b80078781f8218b00078781e8218a80078781d8218880078781c8218800078781b82187878781a82187078781946170746170646170546170446170346170246170146073307203308205020e2008ac246171f46171e46171d46171c46171b46171a46171946171846171746171646171546171446171346171246171146171046170f46170e46170d46170c46170b46170a461709461708461707461706461705461704461703461702461701460733084033075020e40020c28377831940023308400a05821758028218500282194802821a40026f776f88821bc000c88b0b821cc800c87c0cd87c07c87b06d3860bd88608dab7086fa76f99821ad000c89a0a821bd800c8b707d89a09c89707c88a09d8a908c8780848210002207b16b0007b1628027b1cb8007b1c20027b19a8007b1930027b1888007b1838024921580249215002492148024921400283182002831a4002831b00023309ff33070a040182135802821a50028212480282194002821bf800d3b307d8b30b821cf000d8ca087b188000da780b8218e000d38200d882068218e8007b1960d88904da0406d3ac0cd4c707da760b520b5a088217f000c97a07c967087b1878d867078218f800c9830982188000c98909c979097b19701407ffffffff000000007b1780008217e000c97207c947077b17688217e800821860c978077b17608217a8007b1730028217b0007b1728028217b8007b172002821688007b16380249215802492150024921480249214002482100022083182002831a4002831b00023309ff33070a047b1638028217a8007b1730028217b0007b1728028217b8007b1720028217707b1758028217787b1750028217687b1748028217607b17400283182002831a40023309ff330b2033070a08821790008477ff7b17b800821798008477ff7b17b0008217a00082168000d2760633082033075020e60024c06f688219b0006f99821ab8006faa98ab38787b1f98ab30787b1e98ab28787b1d98ab20787b1c98ab18787b1b98ab10787b1a98ab08787b19787a18989a38787a17989a30787a16989a28787a15989a20787a14989a18787a13989a10787a12989a08787a1178791098893878790f98893078790e98892878790d98892078790c46170b46170a46170978780846170746170646170546170446170346170246170146073307203308205020e80075bf46171f46171e46171d46171c46171b46171a46171946171846171746171646171546171446171346171246171146171046170f46170e46170d46170c46170b46170a461709461708461707461706461705461704461703461702461701460733084033075020ea000bbf8377831940023308400a05821740028218480282195802821a50026f776f886f996faa821bc000c8ab0b821cc800c89c0cd89c09c89b06d3a60bd8a60adab90a8219d000c88909c89a0ad89a02821bd800c8b707d88908c88707c827077b16d0007b1628027b1cd8007b1c20027b1ac8007b1a30027b17c0007b17380249215802492150024921480249214002482100022083182002831a4002831b00023309ff33070a0401821a4802821840028212580282195002821ce000c8ac0c8217e800c887077b17e800d8870bc8bc0cd3ac037b1ce000d8ac0a85bc01db3a0b8217f000c89707c8b706d8760b8218f800c82808d89707c88707c87b0bd89607d32b087b1bf800d82b0bda870b85b701d36909d4980885a901db390cdb870c510c5b058217c8007b1730028217d0007b1728028217d8007b1720028217c0007b17380249215802492150024921480249214002482100022083182002831a4002831b00023309ff33070a048217c0007b1738028217c8007b1730028217d0007b1728028217d8007b1720028217f8007b1758027b1650028217e0007b1748028217e8007b17400283182002831a40023309ff330b2033070a08955180fd8210780282157002821668029511800232003307403308205020ec0032bd7c78117c79107c7a127c7b13978808d4980897aa1097bb18d4ba0ad4a8087c79157c7a147c7b167c7c17979908d4a90997bb1097cc18d4cb0bd4b909979920d489027c79017c7a7c7b027c7c03979908d4a90997bb1097cc18d4cb0bd4b9097c7a057c7b047c7c067c760797aa08d4ba0a97cc10976618d46c0cd4ca0a97aa20d4a9097c7a197c7b187c7c1a7c761b97aa08d4ba0a97cc10976618d46c0cd4ca0a7c7b1d7c7c1c7c761e7c781f97bb08d4cb0b976610978818d46808d4b808978820d48a0a7c78097c7b087c7c0a7c760b978808d4b80897cc10976618d46c0cd4c8087c7b0d7c7c0c7c760e7c770f97bb08d4cb0b976610977718d46707d4b707977720d487076f766fa86f996f277b17f8007b19f000d497076489d46808d47808988820d46707977720d4870752072b037b19e80083973308207b17e0005020ee00edbb46171f46171e46171d46171c46171b46171a46171946171846171746171646171546171446171346171246171146171046170f46170e46170d46170c46170b46170a461709461708461707461706461705461704461703a00046170279461701c3004607088218e800958704d88708821af800c88a09d8a90ada880ac86a0ad86a08821bf000c88b0b7b1908017b1700017b1a100195172001951800017b1b18015020f000c1f0821728018212380182132001821a3001280c023307403308205020f20027bb7c78117c79107c7a127c7b13978808d4980897aa1097bb18d4ba0ad4a8087c79157c7a147c7b167c7c17979908d4a90997bb1097cc18d4cb0bd4b909979920d489027c79017c7a7c7b027c7c03979908d4a90997bb1097cc18d4cb0bd4b9097c7a057c7b047c7c067c760797aa08d4ba0a97cc10976618d46c0cd4ca0a97aa20d4a9097c7a197c7b187c7c1a7c761b97aa08d4ba0a97cc10976618d46c0cd4ca0a7c7b1d7c7c1c7c761e7c781f97bb08d4cb0b976610978818d46808d4b808978820d48a0a7c78097c7b087c7c0a7c760b978808d4b80897cc10976618d46c0cd4c8087c7b0d7c7c0c7c760e7c770f97bb08d4cb0b976610977718d46707d4b707977720d487076f766fa86f996f277b17f8007b19f000d497076489d46808d47808988820d46707977720d48707520720017b19e80083973308207b17e0005020f400e2b946171f46171e46171d46171c46171b46171a46171946171846171746171646171546171446171346171246171146171046170f46170e46170d46170c46170b46170a461709461708461707461706461705461704461703a00046170279461701c3004607088218e800958704d88708821af800c88a09d8a90ada880ac86a0ad86a08821bf000c88b0b7b1948017b1740017b1a500195176001951840017b1b58015020f600f2f0821768018212780182136001821a7001018218f800d3870bd8870c64848219e800d89308dab80cc96a0bd86a0a8216f000c96206c9a606d8cb0ac9a606c9cb0bc94707c98708c99307d46808d4b709d48909d4b808989920978820d498085108a400004921b0014921a8014921a001140700000000717b484e9518a0017b17b80133075020f800f2b84921980149219001492180011133070495188001492188013300fc0028d0b84921f0014921e8014921e001140700000000717b484e9518e0017b17f80133075020fa00adb84921d8014921d0014921c001113307049518c0014921c8015020fc008fb833082433075020fe0044b883783307013309240a060183768217e0006468502000012bb883783307016469330002010a06018289828218828b08828810959c1fd89c09c89b0ad8ba0bda990bc88b0bd88b08c8280884cce07b7c7b7a087b7b107b78183200951160ff7b1098007b1590007b1688009515a0008411f08289187b19308289107b19288289087b192082887b18187b173833074033082050200401adb77c78197c79187c7a1a7c7b1b978808d4980897aa1097bb18d4ba0ad4a8087c791d7c7a1c7c7b1e7c7c1f979908d4a90997bb1097cc18d4cb0bd4b909979920d489027c79117c7a107c7b127c7c13979908d4a90997bb1097cc18d4cb0bd4b9097c7a157c7b147c7c167c761797aa08d4ba0a97cc10976618d46c0cd4ca0a97aa20d4a9097c7a097c7b087c7c0a7c760b97aa08d4ba0a97cc10976618d46c0cd4ca0a7c7b0d7c7c0c7c760e7c780f97bb08d4cb0b976610978818d46808d4b808978820d48a0a7c78017c7b7c7c027c7603978808d4b80897cc10976618d46c0cd4c8087c7b057c7c047c76067c770797bb08d4cb0b976610977718d46707d4b707977720d487076f736fa46f966f2c82181895871fd88708821a20c88a09d8a90ada880a821828c88a0ad88a08821b30c8b8088477e0c8c7077b1c287b1710d8c70bc86909c8b90cd36c097b1630d86c07da9b07c84a0ac87a0bd8ab06d84a09c83808c89808c886068eb88e69da6809d46b087b1c088ecadb890a520a2401d84b08d33609d8360ada980ad34b08d49808db8a0752070b013307403308207b14207b13187b1b5020060101b66f6882196f99821a086faa821b106fbb787b1898bc38787c1f98bc30787c1e98bc28787c1d98bc20787c1c98bc18787c1b98bc10787c1a98bb08787b19787a1098ab38787b1798ab30787b1698ab28787b1598ab20787b1498ab18787b1398ab10787b1298aa08787a11787908989a38787a0f989a30787a0e989a28787a0d989a20787a0c989a18787a0b989a10787a0a98990878790978789889387879079889307879069889287879059889207879049889187879039889107879029888087878018217388218287b788218187b78188218307b78088218207b7810955160ff8210980082159000821688009511a0003200491170491168491160140700000000717b484e9518607b17783307502008012db54911584911504911404133070495184049114850200a0114b5330824330750200c01c9b4837833070133092433000e010a0601828b18828a10828908d4ba02889c01942c510c30828898ac3b97bb05d4cb0b989c3b97aa05d4ca0a988c3b979905d4c9099788057b787b79087b7a107b7b1832009511b07b10487b15409515508411f0491130491128491120140700000000717b484e9518207b173833075020100189b449111849111049014133070464184911085020120172b433082433075020140127b48378330701330924330016010a0601951160ff7b1098007b1590007b1688009515a0008411f0828b18828a10828908d4ba06889c01946c510c6a6476828798a83b97bb05d48b0b98983b97aa05d4a808987a3b979905d4a9099777057b17407b19487b18509517609518407b1b5850201801cffb821770821878821960821a687b67107b68187b697b6a08955160ff8210980082159000821688009511a0003200491130491128491120140700000000717b484e9518207b1738330750201a01a5b3491118491110490141330704641849110850201c018eb3330824330750201e0143b38378330701330924330020010a06019511e87b10107b15087b16828910828a18828b088286d4ba0ad49608d4a808988820d4a909979920d4980852084b827918827a108278827708d4a80bd49707d47b0b98bb20d4a707977720d4b707520728390504000283878366646850202201d2b283776468645982101082150882169511180a3200009511a0fe7b1058017b1550017b164801951560018411e08289187b1990008289107b1988008289087b19b80082887b18b0007b1708330740330820502024017cb24911704911784921800033007c78197c79187c7a1a7c7b1b978808d4980897aa1097bb18d4ba0ad4a8087c791d7c7a1c7c7b1e7c7c1f979908d4a90997bb1097cc18d4cb0bd4b909979920d489027c79117c7a107c7b127c7c13979908d4a90997bb1097cc18d4cb0bd4b9097c7a157c7b147c7c167c761797aa08d4ba0a97cc10976618d46c0cd4ca0a97aa20d4a9097c7a097c7b087c7c0a7c760b97aa08d4ba0a97cc10976618d46c0cd4ca0a7c7b0d7c7c0c7c760e7c780f97bb08d4cb0b976610978818d46808d4b808978820d48a0a7c78017c7b7c7c027c7603978808d4b80897cc10976618d46c0cd4c8087c7b057c7c047c76067c770797bb08d4cb0b976610977718d46707d4b707977720d48707821888006f7b6fa76f9a821990006f2c831600017b1640831620017b1638831640017b16307b1c107b1a187b1aa0007b172864767b1b207b1ba800017b1c98007b10687b1888007b1810018217b8007b1708018217b0007b1700017b1990007b1918014921380149213001492128014921200148214001203309ff3307821840821a38821b300a040182199800d469078218a800821aa000d4a808d487079877207b1660d46808978820d487075207d302821738017b1758821730017b1750821728017b17488216200183973308205020260194b06f6898893878791f98893078791e98892878791d98892078791c98891878791b98891078791a9889087879197878188218486f889889387879179889307879169889287879159889207879149889187879139889107879127878109888087878118218506f8898893878790f98893078790e98892878790d98892078790c98891878790b98891078790a8219586f997878089888087878097879989838787807989830787806989828787805989820787804989818787803989810787802989908787901821798009578207b1858d878098217a000c89703d8730ada990a821760c8a704d8740a8217a800c8a7077b17a8008218b000958801888a018219b800c8a909821670886a10956601886c01821778947ac87c0cd4c60b88bb0182178000c87b0bd87b02821068d40707c82000947a7b19b8007b18b000d4980888880182178800c87808d8780982179000c879097b16707b1c787b1b8000821c587b13a0006446520a03fe821c1088c7e0fd821b1894b7821928821a20d4a908948751072d0195c720027b17b800d8c706c86b077b17b000d8b708da6608c88906d89607c8a7077b17a80033074033082050202801e0ae8218a8006f886f69821ab0006faa821bb8006fbb787b1898bc38787c1f98bc30787c1e98bc28787c1d98bc20787c1c98bc18787c1b98bc10787c1a98bb08787b19787a1098ab38787b1798ab30787b1698ab28787b1598ab20787b1498ab18787b1398ab10787b1298aa08787a11787908989a38787a0f989a30787a0e989a28787a0d989a20787a0c989a18787a0b989a10787a0a98990878790978789889387879079889307879069889287879059889207879049889187879039889107879029888087878018217088218107b788218207b78188218187b78088218287b78109551a0fe821058018215500182164801951160013200004921f0004921e8004921e000140700000000717b484e9518e0007b17f800330750202a0102ae4921d8004921d0004921c000413307049518c0004921c80050202c01e4ad330824330750202e0199ad8378330701330924330030010a06019511a07b10587b15507b16489515608411f08289828a08828b1082881864767b18187b1b107b1a0895172064187b19502032019efa821730821838821920821a287b67107b68187b697b6a089551a082105882155082164895116032008218980082199000821a880082178000d4a808d4970ad48a0a98aa20d49808978820d4a8085208b301390604000283773308200250203601f3ac83773308200264690a8217977720987620330820330750203801d7ac6f688219086f99821a106faa98ab38787b1f98ab30787b1e98ab28787b1d98ab20787b1c98ab18787b1b98ab10787b1a98ab08787b19787a18989a38787a17989a30787a16989a28787a15989a20787a14989a18787a13989a10787a12989a08787a1178791098893878790f98893078790e98892878790d98892078790c46170b46170a461709787808461707461706461705461704461703461702461701460733072033082050203a012aac46171f46171e46171d46171c46171b46171a46171946171846171746171646171546171446171346171246171146171046170f46170e46170d46170c46170b46170a4617094617084617074617064617054617044617034617024617014607330840330750203c01c0ab83778319a0003308400a058217b8008218b0008219a800821aa0006f7b6f876f986fa97b19387b18307b17289517409518207b1b2050203e01cef8821750821858821940821a48821b187bb7107bb8187bb97bba08955120ff8210d8008215d0008216c8009511e0003200009511a07b10587b15507b1648828a18828b10828c088286d4ac08d4b609d48909989920d4b808978820d498087b172852080b029567207b1730d86707c87c087b18407b1c08d8c805da7705c8b5057b1b10d8b5077b1a18c8a7077b17387b16836733082033062050204001e7aa78761f8218306486d45808821940821b38d4b909d498089888207b1520d45909979920d4980846171e46171d46171c46171b46171a46171946171846171746171646171546171446171346171246171146171046170f46170e46170d46170c46170b46170a461709461708461707461706461705461704461703461702461701460752084b01836533082064575020420154aa46171f0f46171e46171d46171c46171b46171a46171946171846171746171646171546171446171346171246171146171046170f46170e46170d46170c46170b46170a461709461708461707461706461705461704461703461702461701821820821938d498081409e0ffffff00000000d89609821a4094a9948946075109bd0083572033082050204401c7a946171f46171e46171d46171c46171b46171a46171946171846171746171646171546171446171346171246171146171046170f46170e7346170d7346170c6546170b7246170a6446170964461708614617072046170664461705694617046c46170361461702764617016e4607498218958760d88708821a08c88a09d8a90ada880a821810c88a0ad88a08821b18c8b808821b287bb77bb9087bba107bb818821058821550821648951160320000951180fe7b1078017b1570017b166801951580018411e0807a108279827608d4a907d467075107ce027b1a107b19188289188287828a088288107b17288877117b1a2094a77b19387b1830d49808948751079d04330820330750204601baa88218106f886f69821a186faa98ab38787b1f98ab30787b1e98ab28787b1d98ab20787b1c98ab18787b1b98ab10787b1a98ab08787b19787a1878791046170b46170a4617094617074617064617054617044617034617024617014607989a38787a17989a30787a16989a28787a15989a20787a14989a18787a13989a10787a1298990878791178780898893878790f98893078790e98892878790d98882078780c330720330820502048010da846171f46171e46171d46171c46171b46171a46171946171846171746171646171546171446171346171246171146171046170f46170e46170d46170c46170b46170a4617094617084617074617064617054617044617034617024617014607330840330750204a01a3a78377831940013308400a05821740018218480182195801821a50016f776f886f996faa821b20c8ab0b821c28c89c0cd89c09c89b06d3a60bd8a60adab90a821930c88909c89a0ad89a02821b38c8b707d88908c88707c827077b16307b1628017b1c387b1c20017b1a287b1a30017b17207b17380149215801492150014921480149214001482100012083182001831a4001831b00013309ff33070a040182164001821758018218480182195001956601886a01c88a0ad4a608888801c8890bd89b08c887077b1a187b1708d4a7077b1b10d4b608d487075107ef048217287b1730018217307b1728018217387b1720018217207b17380149215801492150014921480149214001482100012083182001831a4001831b00013309ff33070a048217207b1738018217287b1730018217307b1728018217387b1720018217087b1758018217107b1750018217187b1748017b16400183182001831a40013309ff330b2033070a08955180fe82107801821570018216680195118001320033074033082050204c011aa67c78117c79107c7a127c7b13978808d4980897aa1097bb18d4ba0ad4a8087c79157c7a147c7b167c7c17979908d4a90997bb1097cc18d4cb0bd4b909979920d489027c79017c7a7c7b027c7c03979908d4a90997bb1097cc18d4cb0bd4b9097c7a057c7b047c7c067c760797aa08d4ba0a97cc10976618d46c0cd4ca0a97aa20d4a9097c7a197c7b187c7c1a7c761b97aa08d4ba0a97cc10976618d46c0cd4ca0a7c7b1d7c7c1c7c761e7c781f97bb08d4cb0b976610978818d46808d4b808978820d48a0a7c78097c7b087c7c0a7c760b978808d4b80897cc10976618d46c0cd4c8087c7b0d7c7c0c7c760e7c770f97bb08d4cb0b976610977718d46707d4b707977720d487076f766fa86f996f277b17387b1930d497076489d46808d47808988820d46707977720d48707520711037b192883973308207b172050204e01d9a446171f46171e46171d46171c46171b46171a46171946171846171746171646171546171446171346171246171146171046170f46170e46170d46170c46170b46170a461709461708461707461706461705461704461703a00046170279461701c300460708821828958704d88708821a38c88a09d8a90ada880ac86a0ad86a08821b30c88b0b7b19487b17407b1a509517609518407b1b5850205001edf8821768821278821360821a702805023307403308205020520120a47c78117c79107c7a127c7b13978808d4980897aa1097bb18d4ba0ad4a8087c79157c7a147c7b167c7c17979908d4a90997bb1097cc18d4cb0bd4b909979920d489027c79017c7a7c7b027c7c03979908d4a90997bb1097cc18d4cb0bd4b9097c7a057c7b047c7c067c760797aa08d4ba0a97cc10976618d46c0cd4ca0a97aa20d4a9097c7a197c7b187c7c1a7c761b97aa08d4ba0a97cc10976618d46c0cd4ca0a7c7b1d7c7c1c7c761e7c781f97bb08d4cb0b976610978818d46808d4b808978820d48a0a7c78097c7b087c7c0a7c760b978808d4b80897cc10976618d46c0cd4c8087c7b0d7c7c0c7c760e7c770f97bb08d4cb0b976610977718d46707d4b707977720d487076f766fa86f996f277b17387b1930d497076489d46808d47808988820d46707977720d48707520717017b192883973308207b172050205401dfa246171f46171e46171d46171c46171b46171a46171946171846171746171646171546171446171346171246171146171046170f46170e46170d46170c46170b46170a461709461708461707461706461705461704461703a00046170279461701c300460708821828958704d88708821a38c88a09d8a90ada880ac86a0ad86a08821b30c88b0b7b1988007b1780007b1a90009517a000951880007b1b980050205601b6d78217a8008212b8008213a000821ab00001821838d3870bd8870c6484821928d89308dab80cc96a0bd86a0a821630c96206c9a606d8cb0ac9a606c9cb0bc94707c98708c99307d46808d4b709d48909d4b808989920978820d4980851085e004921f0004921e8004921e000140700000000717b484e9518e0007b17f800330750205801f6a14921d8004921d0004921c000113307049518c0004921c80050205a01d8a1330824330750205c018da183783307013309240a06018376821720646850205e0175a1837833070164690a063307330060012893a23307502060018ea23307015020620185a29511c07b10387b15307b16289515408411f0647664175020640151a88217108218188219821a087b67107b68187b697b6a089551c0821038821530821628951140320049489220248414d249525252a22a2529499224499224499224499224499224499224499224494a4a43222449928490244992244992244992244929a9494a12898888a424a5242949222244444444529148448488442222a994a4942425494484888888482a12898810914844241511112521499224499224499294244992244992244992244992244992244992244992244952952449b242a955a80e09b5429526499210922449922449922449921492846a02414040402222224992120402028988884444448908848840088988884444444944442422224a22222249929224912449492a09294992244992244992244992244992244992244992244992244992244992244992aa24a514111149524992244992244992242949294994244992444a9a049024154992009294224992348024a5489224495292244992244992242922225aa194262949492a2222498488888810111122111111111191244992249224898888244952929224254952241289444948922449922449922425499224499224499224499224499224499224499224499254254992ac506a4a9294524892244992244992244992a42485529a249124952449922449922449929294924449922449a4a44900495291240920492549929424499224494a926885529aa424554a49922449922449922449922449922449922429094992244992244992244992a4144a9a24494592542549922449922449129248254992141111154a699224294992245292942449922425544a294992244992244992244992244992244952922449922449499224694444920811111121222244444444244992244944442429495292242529499224244992244992244992922449922449922449922449922449922449922449922449aa9224495628b5142aa59424499224499224499224499224499224294992244992144a69924492949224494a92244992244992929492a4244992a4340920492a494a92245aa19426294925499208216912409254242925111191242951449492a424898810111122229524244992244992244992922449922449922449922449922449922449922449922449aa92244956285552a8d28888489252922449922449922445524a122549922451a4110124494592248024a58844926844004952910490a4149148120d2049292291482489222292244992244992244992141111ad504a2322221111d1888824112222224244448844229148444444444424499244442291484424899084244992244992244952922449922449922449922449922449922449922449922449559224c90aa54a0a559a2415119124428834228024a988888888484444242525498824121111114928499224499224499224499224499224499224499224499224494992244992244924551151899412234992444444942814914892248a442291482412894422914824128944229124499224499224494a4404499224499224499224128944229148241289442291482412894491482492482211492489244a92482229924844111191244992242b28b5088aa249924a922449925205a56892549292244992249522499224499224499224499224499224499224499224499224499224499224499224499224499224499224499224294992244992244992244992aa24254949922442481249129248254992044992244992244992a4244992244992244992244992244992244992244992244992aa24499215949aa42428a5244992244992244992a424499224499224499204a568922425499244492a499292242549920821492449482295244912244992244992244992922449922449922449922449922449922449922449922449aa92244956506a9292a094922449922449922449929224499224499224491294a211118988884644248990244944922022222222494952822448922449922449922425499224499224499224499224499224499224499224499254254992aca05491822a9a2a2845935429254992244992244992244992244992244992a424489224499224499224499224a5a0489324a98888a84a92244992242222222244442a2222499224499224498a888822228088822492042928892629492549929224492249922449924a82a4244992244992244992244992244992a214449224499224499224499224490248aa48822449922449922449121111119192244992a42449d28848922491242242444488885424121121229188482a22224a822449922449922449529224499224499224499224499224499224499224499224495592922489940449922449922449922449122224499224499224419224294992244992244992a5a0144d52924a92242549924492244992249504494992244992244992244992244992244529882449922449922449922449920490549104499224499224894822221211119192244992a42449d224495292244924499224495249909424499224499224499224499224495294824892244992244992244992244900491549902449922449121111111111111129499224494a92248d888824252291a848241245225124512429288a12492491441249922449922449529224499224499224499224495292204992244992244992244992948222454454249224a948244912111111112222352222924822892449a4204992a4244992244992244992442291482449922449499024499224499224499224494a419122222a124992542492240911111111111111911a111149241249244912912491481240449248121111111111112222151111118944221191542422119114144549922449922449922449922449922449922429099224499224499224499224492928524444552492248924912411111111111121225223222291481249224924491249922411111111111111222215111111111111111149454444499024499224499224494a9224499224499224499224499224499224499224499224a98a4849924494089224499224499224499224444824912489444444041111498224499224499224495292244992244992244992244992244992244992244992244955444a9224a244902449922449922449922421422289244924222222888818499124912449922449624404105110111211898800220a224222821494b42828454b92244992921411114992a4240992244992244992244992244992244992244992244992244992942449922449922455499224499224499224499254921249922492a4a04a29499224499224499224499224499224495292244992244949924444444902480a924812a4a0249a242925499224252949922480a420494a9082926844442449522a4992244992244892a44444444902480a92a4042928892629494992244949922409555025652322228944a248122451922449922449922449922449922449922449922449922449929224499224499224aa2812892491122311111111111121256924224992442412891294244992244952922449922449499224499292942449922449248924492211492449529248921491441249225124529222228924492441541425499224499224499224499224499224494a92244992242949928888684404105110111211a4a0249a2449494a920a922429499222229224498422285a9282524a922449922449922449922449922449922449499024499224499224499224494a41912222aa9224099224498988882649929224492249922449924a82a4244992244992244992244992244992a214449224499224499224499224490248aa488224499224499244444444444444a424499224294992342222929244929224252952904a4992244992244992244949922449922449922409922449922449922449922449292852444455922449922449924824121111212252232292244992248944229188880811914a2412894422111149454444499024499224499224494a9224499224499224499224499224499224499224499224a94a52922491922049922449922449922449428424499224499224489224419224499224499224294992244992244992244992244992244992244992244992a42a494992444a822449922449922449922409119224499224222222888898a424499224499224494644001105112111410a4a5a0a4a1529489024490549494a922400"
				},
				"methodIdentifiers": {
					"addCard(address,uint256)": "f9c775ea",
					"cardInventory(address,uint256)": "50580072",
					"getInventory(address)": "8b87c544",
					"hasCard(address,uint256,uint256)": "4dca8ce6",
					"owner()": "8da5cb5b",
					"setTradingContract(address)": "5be6f2c7",
					"tradingContract()": "9e4bd2e9",
					"transferCards(address,address,uint256,uint256)": "65352442"
				}
			},
			"hash": "881e89cd9d3568adc3e4cf1d0fece9149fad7e27a17cf4bc143b512ddbbaaae6",
			"factoryDependencies": {}
		}
	}
}