{
	"contracts/CardInventory.sol": {
		"CardInventory": {
			"abi": [
				{
					"inputs": [
						{
							"internalType": "address",
							"name": "_cardNFT",
							"type": "address"
						}
					],
					"stateMutability": "nonpayable",
					"type": "constructor"
				},
				{
					"inputs": [],
					"name": "cardNFT",
					"outputs": [
						{
							"internalType": "contract Card",
							"name": "",
							"type": "address"
						}
					],
					"stateMutability": "view",
					"type": "function"
				},
				{
					"inputs": [],
					"name": "gameMaster",
					"outputs": [
						{
							"internalType": "address",
							"name": "",
							"type": "address"
						}
					],
					"stateMutability": "view",
					"type": "function"
				},
				{
					"inputs": [
						{
							"internalType": "uint256",
							"name": "tokenId",
							"type": "uint256"
						}
					],
					"name": "getCardOwner",
					"outputs": [
						{
							"internalType": "address",
							"name": "",
							"type": "address"
						}
					],
					"stateMutability": "view",
					"type": "function"
				},
				{
					"inputs": [
						{
							"internalType": "uint256",
							"name": "tokenId",
							"type": "uint256"
						}
					],
					"name": "getCardType",
					"outputs": [
						{
							"internalType": "uint256",
							"name": "",
							"type": "uint256"
						}
					],
					"stateMutability": "view",
					"type": "function"
				},
				{
					"inputs": [
						{
							"internalType": "address",
							"name": "user",
							"type": "address"
						}
					],
					"name": "getUserCards",
					"outputs": [
						{
							"internalType": "uint256[]",
							"name": "",
							"type": "uint256[]"
						}
					],
					"stateMutability": "view",
					"type": "function"
				},
				{
					"inputs": [
						{
							"internalType": "address",
							"name": "to",
							"type": "address"
						},
						{
							"internalType": "uint256",
							"name": "cardType",
							"type": "uint256"
						}
					],
					"name": "giveCard",
					"outputs": [
						{
							"internalType": "uint256",
							"name": "",
							"type": "uint256"
						}
					],
					"stateMutability": "nonpayable",
					"type": "function"
				}
			],
			"devdoc": {
				"kind": "dev",
				"methods": {},
				"version": 1
			},
			"userdoc": {
				"kind": "user",
				"methods": {},
				"version": 1
			},
			"storageLayout": {
				"storage": [
					{
						"astId": 284,
						"contract": "contracts/CardInventory.sol:CardInventory",
						"label": "cardNFT",
						"offset": 0,
						"slot": "0",
						"type": "t_contract(Card)278"
					},
					{
						"astId": 286,
						"contract": "contracts/CardInventory.sol:CardInventory",
						"label": "gameMaster",
						"offset": 0,
						"slot": "1",
						"type": "t_address"
					}
				],
				"types": {
					"t_address": {
						"encoding": "inplace",
						"label": "address",
						"numberOfBytes": "20"
					},
					"t_contract(Card)278": {
						"encoding": "inplace",
						"label": "contract Card",
						"numberOfBytes": "20"
					}
				}
			},
			"evm": {
				"assembly": "// RO data = 0/0 bytes\n// RW data = 0/65552 bytes\n// Stack size = 16384 bytes\n\n// Instructions = 5836\n// Code size = 18531 bytes\n\n      : @0 (gas: 2)\n     0: i32 a2 = a0 >> 0x10\n     3: jump @6 if a2 != 0\n      : @1 (gas: 2)\n     6: a2 = 0x10001\n    11: jump @6 if a1 >=u a2\n      : @2 (gas: 4)\n    14: a1 = a1 + a0\n    17: i32 a1 = a1 + 0x1f\n    20: a1 = a1 & 0xffffffffffffffe0\n    23: jump @7 if a1 >=u 65537\n      : @3 (gas: 2)\n    29: a3 = i32 [0x20000]\n    34: jump @5 if a3 >=u a1\n      : @4 (gas: 4)\n    37: u32 [0x20000] = a1\n    42: a1 = 0x20010\n    47: a0 = a0 + a1\n    50: ret\n      : @5 (gas: 3)\n    52: a1 = 0x20010\n    57: a0 = a0 + a1\n    60: ret\n      : @6 (gas: 1)\n    62: trap\n      : @7 (gas: 1)\n    63: trap\n      : @8 (gas: 13)\n    64: sp = sp + 0xffffffffffffffd8\n    67: u64 [sp + 0x20] = ra\n    70: u64 [sp + 0x18] = s0\n    73: u64 [sp + 0x10] = s1\n    76: a2 = u64 [a1]\n    78: u64 [sp + 0x8] = a2\n    81: a2 = u64 [a1 + 0x8]\n    84: u64 [sp] = a2\n    86: s0 = u64 [a1 + 0x10]\n    89: s1 = u64 [a1 + 0x18]\n    92: i32 a0 = a0 + 0\n    94: a1 = 0x20\n    97: ra = 2, jump @0\n      : @9 [@dyn 1] (gas: 71)\n   101: a1 = reverse s1\n   103: a2 = reverse s0\n   105: a3 = u64 [sp]\n   107: a3 = reverse a3\n   109: a4 = u64 [sp + 0x8]\n   112: a4 = reverse a4\n   114: u8 [a0 + 0x18] = a4\n   117: u8 [a0 + 0x10] = a3\n   120: u8 [a0 + 0x8] = a2\n   123: u8 [a0] = a1\n   125: a5 = a4 >> 0x38\n   128: u8 [a0 + 0x1f] = a5\n   131: a5 = a4 >> 0x30\n   134: u8 [a0 + 0x1e] = a5\n   137: a5 = a4 >> 0x28\n   140: u8 [a0 + 0x1d] = a5\n   143: a5 = a4 >> 0x20\n   146: u8 [a0 + 0x1c] = a5\n   149: a5 = a4 >> 0x18\n   152: u8 [a0 + 0x1b] = a5\n   155: a5 = a4 >> 0x10\n   158: u8 [a0 + 0x1a] = a5\n   161: a4 = a4 >> 0x8\n   164: u8 [a0 + 0x19] = a4\n   167: a4 = a3 >> 0x38\n   170: u8 [a0 + 0x17] = a4\n   173: a4 = a3 >> 0x30\n   176: u8 [a0 + 0x16] = a4\n   179: a4 = a3 >> 0x28\n   182: u8 [a0 + 0x15] = a4\n   185: a4 = a3 >> 0x20\n   188: u8 [a0 + 0x14] = a4\n   191: a4 = a3 >> 0x18\n   194: u8 [a0 + 0x13] = a4\n   197: a4 = a3 >> 0x10\n   200: u8 [a0 + 0x12] = a4\n   203: a3 = a3 >> 0x8\n   206: u8 [a0 + 0x11] = a3\n   209: a3 = a2 >> 0x38\n   212: u8 [a0 + 0xf] = a3\n   215: a3 = a2 >> 0x30\n   218: u8 [a0 + 0xe] = a3\n   221: a3 = a2 >> 0x28\n   224: u8 [a0 + 0xd] = a3\n   227: a3 = a2 >> 0x20\n   230: u8 [a0 + 0xc] = a3\n   233: a3 = a2 >> 0x18\n   236: u8 [a0 + 0xb] = a3\n   239: a3 = a2 >> 0x10\n   242: u8 [a0 + 0xa] = a3\n   245: a2 = a2 >> 0x8\n   248: u8 [a0 + 0x9] = a2\n   251: a2 = a1 >> 0x38\n   254: u8 [a0 + 0x7] = a2\n   257: a2 = a1 >> 0x30\n   260: u8 [a0 + 0x6] = a2\n   263: a2 = a1 >> 0x28\n   266: u8 [a0 + 0x5] = a2\n   269: a2 = a1 >> 0x20\n   272: u8 [a0 + 0x4] = a2\n   275: a2 = a1 >> 0x18\n   278: u8 [a0 + 0x3] = a2\n   281: a2 = a1 >> 0x10\n   284: u8 [a0 + 0x2] = a2\n   287: a1 = a1 >> 0x8\n   290: u8 [a0 + 0x1] = a1\n   293: ra = u64 [sp + 0x20]\n   296: s0 = u64 [sp + 0x18]\n   299: s1 = u64 [sp + 0x10]\n   302: sp = sp + 0x28\n   305: ret\n      : @10 (gas: 6)\n   307: sp = sp + 0xfffffffffffffff0\n   310: u64 [sp + 0x8] = ra\n   313: u64 [sp] = s0\n   315: s0 = a0 & 0x1\n   318: ecalli 3 // 'call_data_size'\n   320: fallthrough\n      : @11 (gas: 2)\n   321: u32 [0x20004] = a0\n   326: jump @13 if s0 == 0\n      : @12 (gas: 1)\n   329: ra = 4, jump @14\n      : @13 [@dyn 2] (gas: 1)\n   333: ra = 6, jump @33\n      : @14 [@dyn 3] (gas: 13)\n   338: sp = sp + 0xffffffffffffff20\n   342: u64 [sp + 0xd8] = ra\n   346: u64 [sp + 0xd0] = s0\n   350: u64 [sp + 0xc8] = s1\n   354: s0 = sp + 0xe0\n   358: sp = sp & 0xffffffffffffffe0\n   361: u64 [sp + 56] = 0\n   364: u64 [sp + 48] = 0\n   367: u64 [sp + 40] = 0\n   370: u64 [sp + 32] = 0\n   373: i32 a0 = sp + 0x20\n   376: ecalli 12 // 'value_transferred'\n   378: fallthrough\n      : @15 (gas: 8)\n   379: a0 = u64 [sp + 0x30]\n   382: a1 = u64 [sp + 0x38]\n   385: a2 = u64 [sp + 0x28]\n   388: a3 = u64 [sp + 0x20]\n   391: a1 = a1 | a2\n   394: a0 = a0 | a3\n   397: a0 = a0 | a1\n   400: jump @25 if a0 != 0\n      : @16 (gas: 14)\n   404: a0 = i32 [0x20004]\n   409: u64 [sp + 0x18] = a0\n   412: a0 = a0 << 0x20\n   415: a0 = a0 >> 0x20\n   418: a0 = a0 + 0x1f\n   421: a0 = a0 & 0xffffffffffffffe0\n   424: a1 = a0 + 0x80\n   428: u64 [sp + 0x10] = a1\n   431: s1 = a1 <u a0\n   434: u64 [sp + 0x8] = s1\n   437: s1 = 0 if s1 != 0\n   439: a0 = 0x40\n   442: a1 = 0x20\n   445: ra = 8, jump @0\n      : @17 [@dyn 4] (gas: 48)\n   450: a1 = reverse s1\n   452: a2 = u64 [sp + 0x8]\n   455: a2 = reverse a2\n   457: a3 = u64 [sp + 0x10]\n   460: a3 = reverse a3\n   462: u8 [a0 + 26] = 0\n   465: u8 [a0 + 25] = 0\n   468: u8 [a0 + 22] = 0\n   471: u8 [a0 + 21] = 0\n   474: u8 [a0 + 20] = 0\n   477: u8 [a0 + 19] = 0\n   480: u8 [a0 + 18] = 0\n   483: u8 [a0 + 17] = 0\n   486: u8 [a0 + 14] = 0\n   489: u8 [a0 + 13] = 0\n   492: u8 [a0 + 12] = 0\n   495: u8 [a0 + 11] = 0\n   498: u8 [a0 + 10] = 0\n   501: u8 [a0 + 9] = 0\n   504: u8 [a0 + 7] = 0\n   507: u8 [a0 + 6] = 0\n   510: u8 [a0 + 5] = 0\n   513: u8 [a0 + 4] = 0\n   516: u8 [a0 + 3] = 0\n   519: u8 [a0 + 2] = 0\n   522: u8 [a0 + 1] = 0\n   525: u8 [a0 + 0] = 0\n   527: u8 [a0 + 0x18] = a3\n   530: a4 = a3 >> 0x38\n   533: u8 [a0 + 0x1f] = a4\n   536: a4 = a3 >> 0x30\n   539: u8 [a0 + 0x1e] = a4\n   542: a4 = a3 >> 0x28\n   545: u8 [a0 + 0x1d] = a4\n   548: a4 = a3 >> 0x20\n   551: u8 [a0 + 0x1c] = a4\n   554: a3 = a3 >> 0x18\n   557: u8 [a0 + 0x1b] = a3\n   560: u8 [a0 + 0x10] = a2\n   563: a2 = a2 >> 0x38\n   566: u8 [a0 + 0x17] = a2\n   569: u8 [a0 + 0x8] = a1\n   572: a1 = a1 >> 0x38\n   575: u8 [a0 + 0xf] = a1\n   578: a0 = 0x80\n   582: s1 = u64 [sp + 0x18]\n   585: a1 = s1\n   587: ra = 10, jump @0\n      : @18 [@dyn 5] (gas: 5)\n   592: i32 a0 = a0 + 0\n   594: a1 = s1\n   596: a2 = 0\n   598: ecalli 1 // 'call_data_copy'\n   600: fallthrough\n      : @19 (gas: 1)\n   601: jump @25 if s1 <u 32\n      : @20 (gas: 3)\n   606: a0 = 0x80\n   610: a1 = 0x20\n   613: ra = 12, jump @0\n      : @21 [@dyn 6] (gas: 56)\n   618: a1 = u8 [a0 + 0x9]\n   621: a2 = u8 [a0 + 0x8]\n   624: a3 = u8 [a0 + 0xa]\n   627: a4 = u8 [a0 + 0xb]\n   630: a1 = a1 << 0x8\n   633: a1 = a1 | a2\n   636: a3 = a3 << 0x10\n   639: a4 = a4 << 0x18\n   642: a3 = a3 | a4\n   645: a1 = a1 | a3\n   648: a2 = u8 [a0 + 0xd]\n   651: a3 = u8 [a0 + 0xc]\n   654: a4 = u8 [a0 + 0xe]\n   657: a5 = u8 [a0 + 0xf]\n   660: a2 = a2 << 0x8\n   663: a2 = a2 | a3\n   666: a4 = a4 << 0x10\n   669: a5 = a5 << 0x18\n   672: a4 = a4 | a5\n   675: a2 = a2 | a4\n   678: a2 = a2 << 0x20\n   681: a1 = a1 | a2\n   684: a2 = u8 [a0 + 0x1]\n   687: a3 = u8 [a0]\n   689: a4 = u8 [a0 + 0x2]\n   692: a5 = u8 [a0 + 0x3]\n   695: a2 = a2 << 0x8\n   698: a2 = a2 | a3\n   701: a4 = a4 << 0x10\n   704: a5 = a5 << 0x18\n   707: a4 = a4 | a5\n   710: a2 = a2 | a4\n   713: a3 = u8 [a0 + 0x5]\n   716: a4 = u8 [a0 + 0x4]\n   719: a5 = u8 [a0 + 0x6]\n   722: s1 = u8 [a0 + 0x7]\n   725: a3 = a3 << 0x8\n   728: a3 = a3 | a4\n   731: a5 = a5 << 0x10\n   734: s1 = s1 << 0x18\n   737: a5 = a5 | s1\n   740: a3 = a3 | a5\n   743: a3 = a3 << 0x20\n   746: a2 = a2 | a3\n   749: a3 = reverse a2\n   751: a2 = reverse a1\n   753: a1 = 0x100000000\n   763: a1 = a1 ^ a2\n   766: a1 = a1 | a3\n   769: u64 [sp + 0x10] = a2\n   772: a2 = a2 >> 0x20\n   775: a2 = a2 <u 0x1\n   778: u64 [sp + 0x18] = a3\n   781: a2 = 0 if a3 != 0\n   783: a2 = 0 if a1 == 0\n   785: jump @25 if a2 == 0\n      : @22 (gas: 139)\n   789: a1 = u8 [a0 + 0x19]\n   792: a2 = u8 [a0 + 0x18]\n   795: a3 = u8 [a0 + 0x1a]\n   798: a4 = u8 [a0 + 0x1b]\n   801: a1 = a1 << 0x8\n   804: a1 = a1 | a2\n   807: a3 = a3 << 0x10\n   810: a4 = a4 << 0x18\n   813: a3 = a3 | a4\n   816: a1 = a1 | a3\n   819: a2 = u8 [a0 + 0x1d]\n   822: a3 = u8 [a0 + 0x1c]\n   825: a4 = u8 [a0 + 0x1e]\n   828: a5 = u8 [a0 + 0x1f]\n   831: a2 = a2 << 0x8\n   834: a2 = a2 | a3\n   837: a4 = a4 << 0x10\n   840: a5 = a5 << 0x18\n   843: a4 = a4 | a5\n   846: a2 = a2 | a4\n   849: a2 = a2 << 0x20\n   852: a1 = a1 | a2\n   855: a2 = u8 [a0 + 0x11]\n   858: a3 = u8 [a0 + 0x10]\n   861: a4 = u8 [a0 + 0x12]\n   864: a5 = u8 [a0 + 0x13]\n   867: a2 = a2 << 0x8\n   870: a2 = a2 | a3\n   873: a4 = a4 << 0x10\n   876: a5 = a5 << 0x18\n   879: a4 = a4 | a5\n   882: a2 = a2 | a4\n   885: a3 = u8 [a0 + 0x15]\n   888: a4 = u8 [a0 + 0x14]\n   891: a5 = u8 [a0 + 0x16]\n   894: a0 = u8 [a0 + 0x17]\n   897: a3 = a3 << 0x8\n   900: a3 = a3 | a4\n   903: a5 = a5 << 0x10\n   906: a0 = a0 << 0x18\n   909: a0 = a0 | a5\n   912: a0 = a0 | a3\n   915: a0 = a0 << 0x20\n   918: a0 = a0 | a2\n   921: a0 = reverse a0\n   923: u64 [sp + 0x8] = a0\n   926: s1 = reverse a1\n   928: u64 [sp + 152] = 0\n   932: u64 [sp + 144] = 0\n   936: u64 [sp + 136] = 0\n   940: u64 [sp + 128] = 0\n   944: u64 [sp + 184] = 0\n   948: u64 [sp + 176] = 0\n   952: u64 [sp + 168] = 0\n   956: u64 [sp + 160] = 0\n   960: u32 [sp + 96] = 0x20\n   964: i32 a1 = sp + 0x80\n   968: i32 a3 = sp + 0xa0\n   972: i32 a4 = sp + 0x60\n   975: a2 = 0xffffffffffffffff\n   978: a0 = 0\n   980: ecalli 5 // 'get_storage'\n   982: a0 = u32 [sp + 0xb4]\n   986: a1 = u64 [sp + 0xb8]\n   990: a0 = a0 << 0x20\n   993: a2 = u64 [sp + 0x10]\n   996: a0 = a0 | a2\n   999: a2 = u64 [sp + 0x18]\n  1002: a1 = a1 | a2\n  1005: u64 [sp + 152] = 0\n  1009: u64 [sp + 144] = 0\n  1013: u64 [sp + 136] = 0\n  1017: u64 [sp + 128] = 0\n  1021: u64 [sp + 0xb8] = a1\n  1025: u64 [sp + 0xb0] = a0\n  1029: a0 = u64 [sp + 0x8]\n  1032: u64 [sp + 0xa8] = a0\n  1036: u64 [sp + 0xa0] = s1\n  1040: i32 a1 = sp + 0x80\n  1044: i32 a3 = sp + 0xa0\n  1048: a2 = 0xffffffffffffffff\n  1051: a4 = 0x20\n  1054: a0 = 0\n  1056: ecalli 11 // 'set_storage'\n  1058: i32 a0 = sp + 0x40\n  1061: ecalli 4 // 'caller'\n  1063: a0 = u64 [sp + 0x48]\n  1066: a1 = i32 [sp + 0x50]\n  1069: a2 = u64 [sp + 0x40]\n  1072: a0 = reverse a0\n  1074: a3 = a0 << 0x20\n  1077: a1 = reverse a1\n  1079: a1 = a1 >> 0x20\n  1082: a1 = a1 | a3\n  1085: u64 [sp + 0x18] = a1\n  1088: a0 = a0 >> 0x20\n  1091: s1 = reverse a2\n  1093: a1 = s1 << 0x20\n  1096: a0 = a0 | a1\n  1099: u64 [sp + 0x10] = a0\n  1102: s1 = s1 >> 0x20\n  1105: u64 [sp + 152] = 0\n  1109: u64 [sp + 144] = 0\n  1113: u64 [sp + 136] = 0\n  1117: u64 [sp + 128] = 0x1\n  1122: u64 [sp + 184] = 0\n  1126: u64 [sp + 176] = 0\n  1130: u64 [sp + 168] = 0\n  1134: u64 [sp + 160] = 0\n  1138: u32 [sp + 96] = 0x20\n  1142: i32 a1 = sp + 0x80\n  1146: i32 a3 = sp + 0xa0\n  1150: i32 a4 = sp + 0x60\n  1153: a2 = 0xffffffffffffffff\n  1156: a0 = 0\n  1158: ecalli 5 // 'get_storage'\n  1160: a0 = u32 [sp + 0xb4]\n  1164: a0 = a0 << 0x20\n  1167: a1 = u64 [sp + 0xb8]\n  1171: a0 = a0 | s1\n  1174: u64 [sp + 152] = 0\n  1178: u64 [sp + 144] = 0\n  1182: u64 [sp + 136] = 0\n  1186: u64 [sp + 128] = 0x1\n  1191: u64 [sp + 0xb8] = a1\n  1195: u64 [sp + 0xb0] = a0\n  1199: a0 = u64 [sp + 0x10]\n  1202: u64 [sp + 0xa8] = a0\n  1206: a0 = u64 [sp + 0x18]\n  1209: u64 [sp + 0xa0] = a0\n  1213: i32 a1 = sp + 0x80\n  1217: i32 a3 = sp + 0xa0\n  1221: a2 = 0xffffffffffffffff\n  1224: a4 = 0x20\n  1227: a0 = 0\n  1229: ecalli 11 // 'set_storage'\n  1231: a0 = 0x40\n  1234: a1 = 0x20\n  1237: ra = 14, jump @0\n      : @23 [@dyn 7] (gas: 100)\n  1242: a1 = u8 [a0 + 0x11]\n  1245: a2 = u8 [a0 + 0x10]\n  1248: a3 = u8 [a0 + 0x12]\n  1251: a4 = u8 [a0 + 0x13]\n  1254: a1 = a1 << 0x8\n  1257: a1 = a1 | a2\n  1260: a3 = a3 << 0x10\n  1263: a4 = a4 << 0x18\n  1266: a3 = a3 | a4\n  1269: a1 = a1 | a3\n  1272: a2 = u8 [a0 + 0x15]\n  1275: a3 = u8 [a0 + 0x14]\n  1278: a4 = u8 [a0 + 0x16]\n  1281: a5 = u8 [a0 + 0x17]\n  1284: a2 = a2 << 0x8\n  1287: a2 = a2 | a3\n  1290: a4 = a4 << 0x10\n  1293: a5 = a5 << 0x18\n  1296: a4 = a4 | a5\n  1299: a2 = a2 | a4\n  1302: a2 = a2 << 0x20\n  1305: t0 = a2 | a1\n  1308: a2 = u8 [a0 + 0x1]\n  1311: a3 = u8 [a0]\n  1313: a4 = u8 [a0 + 0x2]\n  1316: a5 = u8 [a0 + 0x3]\n  1319: a2 = a2 << 0x8\n  1322: a2 = a2 | a3\n  1325: a4 = a4 << 0x10\n  1328: a5 = a5 << 0x18\n  1331: a4 = a4 | a5\n  1334: a2 = a2 | a4\n  1337: a3 = u8 [a0 + 0x5]\n  1340: a4 = u8 [a0 + 0x4]\n  1343: a5 = u8 [a0 + 0x6]\n  1346: s1 = u8 [a0 + 0x7]\n  1349: a3 = a3 << 0x8\n  1352: a3 = a3 | a4\n  1355: a5 = a5 << 0x10\n  1358: s1 = s1 << 0x18\n  1361: a5 = a5 | s1\n  1364: a3 = a3 | a5\n  1367: a3 = a3 << 0x20\n  1370: a2 = a2 | a3\n  1373: a3 = u8 [a0 + 0x19]\n  1376: a4 = u8 [a0 + 0x18]\n  1379: a5 = u8 [a0 + 0x1a]\n  1382: s1 = u8 [a0 + 0x1b]\n  1385: a3 = a3 << 0x8\n  1388: a3 = a3 | a4\n  1391: a5 = a5 << 0x10\n  1394: s1 = s1 << 0x18\n  1397: a5 = a5 | s1\n  1400: a3 = a3 | a5\n  1403: a4 = u8 [a0 + 0x1d]\n  1406: a5 = u8 [a0 + 0x1c]\n  1409: s1 = u8 [a0 + 0x1e]\n  1412: a1 = u8 [a0 + 0x1f]\n  1415: a4 = a4 << 0x8\n  1418: a4 = a4 | a5\n  1421: s1 = s1 << 0x10\n  1424: a1 = a1 << 0x18\n  1427: a1 = a1 | s1\n  1430: a1 = a1 | a4\n  1433: a1 = a1 << 0x20\n  1436: a3 = a3 | a1\n  1439: a1 = u8 [a0 + 0x9]\n  1442: a4 = u8 [a0 + 0x8]\n  1445: a5 = u8 [a0 + 0xa]\n  1448: s1 = u8 [a0 + 0xb]\n  1451: a1 = a1 << 0x8\n  1454: a1 = a1 | a4\n  1457: a5 = a5 << 0x10\n  1460: s1 = s1 << 0x18\n  1463: a5 = a5 | s1\n  1466: a1 = a1 | a5\n  1469: a4 = u8 [a0 + 0xd]\n  1472: a5 = u8 [a0 + 0xc]\n  1475: s1 = u8 [a0 + 0xe]\n  1478: a0 = u8 [a0 + 0xf]\n  1481: a4 = a4 << 0x8\n  1484: a4 = a4 | a5\n  1487: s1 = s1 << 0x10\n  1490: a0 = a0 << 0x18\n  1493: a0 = a0 | s1\n  1496: a0 = a0 | a4\n  1499: a0 = a0 << 0x20\n  1502: a0 = a0 | a1\n  1505: a0 = reverse a0\n  1507: s1 = reverse a3\n  1509: a1 = reverse a2\n  1511: a2 = reverse t0\n  1513: a1 = a1 | a2\n  1516: a2 = s1 | a0\n  1519: a2 = a2 | a1\n  1522: a2 = a2 >> 0x20\n  1525: a0 = a0 | a1\n  1528: a0 = a0 << 0x20\n  1531: a0 = a0 | a2\n  1534: jump @27 if a0 == 0\n      : @24 (gas: 1)\n  1537: trap\n      : @25 (gas: 3)\n  1538: a0 = 0\n  1540: a1 = 0\n  1542: ra = 16, jump @0\n      : @26 [@dyn 8] (gas: 5)\n  1547: i32 a1 = a0 + 0\n  1549: a0 = 0x1\n  1552: a2 = 0\n  1554: ecalli 9 // 'seal_return'\n  1556: fallthrough\n      : @27 (gas: 4)\n  1557: i32 s1 = s1 + 0\n  1559: a0 = s1\n  1561: a1 = 0\n  1563: ra = 18, jump @0\n      : @28 [@dyn 9] (gas: 5)\n  1568: i32 a0 = a0 + 0\n  1570: a1 = 0\n  1572: a2 = 0\n  1574: ecalli 1 // 'call_data_copy'\n  1576: fallthrough\n      : @29 (gas: 2)\n  1577: a1 = i32 [0x20008]\n  1582: jump @31 if a1 == 0\n      : @30 (gas: 4)\n  1585: a0 = 0x30010\n  1590: i32 a0 = a0 + 0\n  1592: ecalli 10 // 'set_immutable_data'\n  1594: fallthrough\n      : @31 (gas: 3)\n  1595: a0 = s1\n  1597: a1 = 0\n  1599: ra = 20, jump @0\n      : @32 [@dyn 10] (gas: 6)\n  1604: i32 a1 = a0 + 0\n  1606: a0 = 0\n  1608: a2 = 0\n  1610: ra = 0x16\n  1613: ecalli 9 // 'seal_return'\n  1615: fallthrough\n      : @33 [@dyn 11] (gas: 10)\n  1616: sp = sp + 0xfffffffffffff8a0\n  1620: u64 [sp + 0x758] = ra\n  1624: u64 [sp + 0x750] = s0\n  1628: u64 [sp + 0x748] = s1\n  1632: s0 = sp + 0x760\n  1636: sp = sp & 0xffffffffffffffe0\n  1639: s1 = sp\n  1641: a0 = 0x40\n  1644: a1 = 0x20\n  1647: ra = 24, jump @0\n      : @34 [@dyn 12] (gas: 36)\n  1652: u8 [a0 + 31] = 0x80\n  1657: u8 [a0 + 30] = 0\n  1660: u8 [a0 + 29] = 0\n  1663: u8 [a0 + 28] = 0\n  1666: u8 [a0 + 27] = 0\n  1669: u8 [a0 + 26] = 0\n  1672: u8 [a0 + 25] = 0\n  1675: u8 [a0 + 24] = 0\n  1678: u8 [a0 + 23] = 0\n  1681: u8 [a0 + 22] = 0\n  1684: u8 [a0 + 21] = 0\n  1687: u8 [a0 + 20] = 0\n  1690: u8 [a0 + 19] = 0\n  1693: u8 [a0 + 18] = 0\n  1696: u8 [a0 + 17] = 0\n  1699: u8 [a0 + 16] = 0\n  1702: u8 [a0 + 15] = 0\n  1705: u8 [a0 + 14] = 0\n  1708: u8 [a0 + 13] = 0\n  1711: u8 [a0 + 12] = 0\n  1714: u8 [a0 + 11] = 0\n  1717: u8 [a0 + 10] = 0\n  1720: u8 [a0 + 9] = 0\n  1723: u8 [a0 + 8] = 0\n  1726: u8 [a0 + 7] = 0\n  1729: u8 [a0 + 3] = 0\n  1732: a1 = 0x20004\n  1737: u8 [a0 + 2] = 0\n  1740: u8 [a0 + 1] = 0\n  1743: u8 [a0 + 0] = 0\n  1745: u64 [s1 + 0x1b8] = a1\n  1749: a1 = i32 [0x20004]\n  1754: u8 [a0 + 6] = 0\n  1757: u8 [a0 + 5] = 0\n  1760: u8 [a0 + 4] = 0\n  1763: jump @36 if a1 >=u 4\n      : @35 (gas: 1)\n  1767: jump @275\n      : @36 (gas: 4)\n  1770: i32 a0 = s1 + 0x3c0\n  1774: a1 = 0\n  1776: ecalli 2 // 'call_data_load'\n  1778: fallthrough\n      : @37 (gas: 2)\n  1779: a0 = i32 [s1 + 0x3dc]\n  1783: jump @74 if a0 >s 17480655\n      : @38 (gas: 1)\n  1791: jump @84 if a0 == 2295985165\n      : @39 (gas: 1)\n  1799: jump @41 if a0 == 2570216243\n      : @40 (gas: 1)\n  1806: jump @163\n      : @41 (gas: 11)\n  1809: a0 = sp + 0xffffffffffffffe0\n  1812: a0 = a0 & 0xffffffffffffffe0\n  1815: u64 [s1 + 0x1b0] = a0\n  1819: sp = a0\n  1821: u64 [a0 + 24] = 0\n  1824: u64 [a0 + 16] = 0\n  1827: u64 [a0 + 8] = 0\n  1830: u64 [a0 + 0] = 0\n  1832: i32 a0 = a0 + 0\n  1834: ecalli 12 // 'value_transferred'\n  1836: fallthrough\n      : @42 (gas: 9)\n  1837: a3 = u64 [s1 + 0x1b0]\n  1841: a0 = u64 [a3 + 0x10]\n  1844: a1 = u64 [a3 + 0x18]\n  1847: a2 = u64 [a3 + 0x8]\n  1850: a3 = u64 [a3]\n  1852: a1 = a1 | a2\n  1855: a0 = a0 | a3\n  1858: a0 = a0 | a1\n  1861: jump @44 if a0 == 0\n      : @43 (gas: 1)\n  1864: jump @275\n      : @44 (gas: 3)\n  1867: a0 = u64 [s1 + 0x1b8]\n  1871: a0 = i32 [a0]\n  1873: jump @46 if a0 >u 67\n      : @45 (gas: 1)\n  1877: jump @275\n      : @46 (gas: 4)\n  1880: i32 a0 = s1 + 0x720\n  1884: a1 = 0x4\n  1887: ecalli 2 // 'call_data_load'\n  1889: fallthrough\n      : @47 (gas: 12)\n  1890: a2 = u64 [s1 + 0x730]\n  1894: a3 = u64 [s1 + 0x738]\n  1898: a1 = 0x100000000\n  1908: a1 = a1 ^ a2\n  1911: a1 = a1 | a3\n  1914: u64 [s1 + 0x1a0] = a2\n  1918: a2 = a2 >> 0x20\n  1921: a2 = a2 <u 0x1\n  1924: u64 [s1 + 0x198] = a3\n  1928: a2 = 0 if a3 != 0\n  1930: a2 = 0 if a1 == 0\n  1932: jump @49 if a2 != 0\n      : @48 (gas: 1)\n  1935: jump @275\n      : @49 (gas: 28)\n  1938: a1 = u64 [s1 + 0x728]\n  1942: u64 [s1 + 0x188] = a1\n  1946: a1 = u64 [s1 + 0x720]\n  1950: u64 [s1 + 0x190] = a1\n  1954: u64 [s1 + 1816] = 0\n  1958: u64 [s1 + 1808] = 0\n  1962: u64 [s1 + 1800] = 0\n  1966: u64 [s1 + 1792] = 0x1\n  1971: u64 [s1 + 1848] = 0\n  1975: u64 [s1 + 1840] = 0\n  1979: u64 [s1 + 1832] = 0\n  1983: u64 [s1 + 1824] = 0\n  1987: u32 [s1 + 1856] = 0x20\n  1992: i32 a1 = s1 + 0x700\n  1996: i32 a3 = s1 + 0x720\n  2000: i32 a4 = s1 + 0x740\n  2004: a2 = 0xffffffffffffffff\n  2007: a0 = 0\n  2009: ecalli 5 // 'get_storage'\n  2011: a0 = u64 [s1 + 0x728]\n  2015: u64 [s1 + 0x1b8] = a0\n  2019: a0 = u64 [s1 + 0x720]\n  2023: u64 [s1 + 0x1b0] = a0\n  2027: a0 = u32 [s1 + 0x730]\n  2031: u64 [s1 + 0x1a8] = a0\n  2035: i32 a0 = s1 + 0x620\n  2039: ecalli 4 // 'caller'\n  2041: fallthrough\n      : @50 (gas: 22)\n  2042: a0 = u64 [s1 + 0x628]\n  2046: a1 = u64 [s1 + 0x620]\n  2050: a2 = i32 [s1 + 0x630]\n  2054: a0 = reverse a0\n  2056: a3 = a0 >> 0x20\n  2059: a1 = reverse a1\n  2061: a4 = a1 << 0x20\n  2064: a3 = a3 | a4\n  2067: a0 = a0 << 0x20\n  2070: a2 = reverse a2\n  2072: a2 = a2 >> 0x20\n  2075: a0 = a0 | a2\n  2078: a1 = a1 >> 0x20\n  2081: a2 = u64 [s1 + 0x1a8]\n  2085: a1 = a1 ^ a2\n  2088: a2 = u64 [s1 + 0x1b0]\n  2092: a0 = a0 ^ a2\n  2095: a0 = a0 | a1\n  2098: a1 = u64 [s1 + 0x1b8]\n  2102: a1 = a1 ^ a3\n  2105: a0 = a0 | a1\n  2108: jump @52 if a0 == 0\n      : @51 (gas: 1)\n  2111: jump @208\n      : @52 (gas: 24)\n  2114: u64 [s1 + 1816] = 0\n  2118: u64 [s1 + 1808] = 0\n  2122: u64 [s1 + 1800] = 0\n  2126: u64 [s1 + 1792] = 0\n  2130: u64 [s1 + 1848] = 0\n  2134: u64 [s1 + 1840] = 0\n  2138: u64 [s1 + 1832] = 0\n  2142: u64 [s1 + 1824] = 0\n  2146: u32 [s1 + 1856] = 0x20\n  2151: i32 a1 = s1 + 0x700\n  2155: i32 a3 = s1 + 0x720\n  2159: i32 a4 = s1 + 0x740\n  2163: a2 = 0xffffffffffffffff\n  2166: a0 = 0\n  2168: ecalli 5 // 'get_storage'\n  2170: a0 = u64 [s1 + 0x730]\n  2174: u64 [s1 + 0x178] = a0\n  2178: a0 = u64 [s1 + 0x728]\n  2182: u64 [s1 + 0x170] = a0\n  2186: a0 = u64 [s1 + 0x720]\n  2190: u64 [s1 + 0x180] = a0\n  2194: a0 = 0x40\n  2197: a1 = 0x20\n  2200: ra = 26, jump @0\n      : @53 [@dyn 13] (gas: 100)\n  2205: a1 = u8 [a0 + 0x11]\n  2208: a2 = u8 [a0 + 0x10]\n  2211: a3 = u8 [a0 + 0x12]\n  2214: a4 = u8 [a0 + 0x13]\n  2217: a1 = a1 << 0x8\n  2220: a1 = a1 | a2\n  2223: a3 = a3 << 0x10\n  2226: a4 = a4 << 0x18\n  2229: a3 = a3 | a4\n  2232: a1 = a1 | a3\n  2235: a2 = u8 [a0 + 0x15]\n  2238: a3 = u8 [a0 + 0x14]\n  2241: a4 = u8 [a0 + 0x16]\n  2244: a5 = u8 [a0 + 0x17]\n  2247: a2 = a2 << 0x8\n  2250: a2 = a2 | a3\n  2253: a4 = a4 << 0x10\n  2256: a5 = a5 << 0x18\n  2259: a4 = a4 | a5\n  2262: a2 = a2 | a4\n  2265: a2 = a2 << 0x20\n  2268: t0 = a2 | a1\n  2271: a2 = u8 [a0 + 0x1]\n  2274: a3 = u8 [a0]\n  2276: a4 = u8 [a0 + 0x2]\n  2279: a5 = u8 [a0 + 0x3]\n  2282: a2 = a2 << 0x8\n  2285: a2 = a2 | a3\n  2288: a4 = a4 << 0x10\n  2291: a5 = a5 << 0x18\n  2294: a4 = a4 | a5\n  2297: a2 = a2 | a4\n  2300: a3 = u8 [a0 + 0x5]\n  2303: a4 = u8 [a0 + 0x4]\n  2306: a5 = u8 [a0 + 0x6]\n  2309: a1 = u8 [a0 + 0x7]\n  2312: a3 = a3 << 0x8\n  2315: a3 = a3 | a4\n  2318: a5 = a5 << 0x10\n  2321: a1 = a1 << 0x18\n  2324: a1 = a1 | a5\n  2327: a1 = a1 | a3\n  2330: a1 = a1 << 0x20\n  2333: t1 = a1 | a2\n  2336: a1 = u8 [a0 + 0x19]\n  2339: a3 = u8 [a0 + 0x18]\n  2342: a4 = u8 [a0 + 0x1a]\n  2345: a5 = u8 [a0 + 0x1b]\n  2348: a1 = a1 << 0x8\n  2351: a1 = a1 | a3\n  2354: a4 = a4 << 0x10\n  2357: a5 = a5 << 0x18\n  2360: a4 = a4 | a5\n  2363: a1 = a1 | a4\n  2366: a3 = u8 [a0 + 0x1d]\n  2369: a4 = u8 [a0 + 0x1c]\n  2372: a5 = u8 [a0 + 0x1e]\n  2375: a2 = u8 [a0 + 0x1f]\n  2378: a3 = a3 << 0x8\n  2381: a3 = a3 | a4\n  2384: a5 = a5 << 0x10\n  2387: a2 = a2 << 0x18\n  2390: a2 = a2 | a5\n  2393: a2 = a2 | a3\n  2396: a2 = a2 << 0x20\n  2399: a3 = a2 | a1\n  2402: a1 = u8 [a0 + 0x9]\n  2405: a2 = u8 [a0 + 0x8]\n  2408: a4 = u8 [a0 + 0xa]\n  2411: a5 = u8 [a0 + 0xb]\n  2414: a1 = a1 << 0x8\n  2417: a1 = a1 | a2\n  2420: a4 = a4 << 0x10\n  2423: a5 = a5 << 0x18\n  2426: a4 = a4 | a5\n  2429: a1 = a1 | a4\n  2432: a2 = u8 [a0 + 0xd]\n  2435: a4 = u8 [a0 + 0xc]\n  2438: a5 = u8 [a0 + 0xe]\n  2441: a0 = u8 [a0 + 0xf]\n  2444: a2 = a2 << 0x8\n  2447: a2 = a2 | a4\n  2450: a5 = a5 << 0x10\n  2453: a0 = a0 << 0x18\n  2456: a0 = a0 | a5\n  2459: a0 = a0 | a2\n  2462: a0 = a0 << 0x20\n  2465: a0 = a0 | a1\n  2468: a4 = reverse a0\n  2470: a3 = reverse a3\n  2472: a2 = reverse t1\n  2474: a5 = reverse t0\n  2476: a0 = a5 | a2\n  2479: a1 = a3 | a4\n  2482: a1 = a1 | a0\n  2485: a1 = a1 >> 0x20\n  2488: a0 = a0 | a4\n  2491: a0 = a0 << 0x20\n  2494: a0 = a0 | a1\n  2497: jump @55 if a0 == 0\n      : @54 (gas: 1)\n  2500: jump @174\n      : @55 (gas: 8)\n  2503: i32 a0 = a3 + 0\n  2505: a1 = 0x20\n  2508: u64 [s1 + 0x1a8] = a0\n  2512: u64 [s1 + 0x168] = a2\n  2516: u64 [s1 + 0x160] = a4\n  2520: u64 [s1 + 0x1b8] = a3\n  2524: u64 [s1 + 0x1b0] = a5\n  2528: ra = 28, jump @0\n      : @56 [@dyn 14] (gas: 43)\n  2533: u8 [a0 + 31] = 0\n  2536: u8 [a0 + 30] = 0\n  2539: u8 [a0 + 29] = 0\n  2542: u8 [a0 + 28] = 0\n  2545: u8 [a0 + 27] = 0\n  2548: u8 [a0 + 26] = 0\n  2551: u8 [a0 + 25] = 0\n  2554: u8 [a0 + 24] = 0\n  2557: u8 [a0 + 23] = 0\n  2560: u8 [a0 + 22] = 0\n  2563: u8 [a0 + 21] = 0\n  2566: u8 [a0 + 20] = 0\n  2569: u8 [a0 + 19] = 0\n  2572: u8 [a0 + 18] = 0\n  2575: u8 [a0 + 17] = 0\n  2578: u8 [a0 + 16] = 0\n  2581: u8 [a0 + 15] = 0\n  2584: u8 [a0 + 14] = 0\n  2587: u8 [a0 + 13] = 0\n  2590: u8 [a0 + 12] = 0\n  2593: u8 [a0 + 11] = 0\n  2596: u8 [a0 + 10] = 0\n  2599: u8 [a0 + 9] = 0\n  2602: u8 [a0 + 8] = 0\n  2605: u8 [a0 + 7] = 0\n  2608: u8 [a0 + 6] = 0\n  2611: u8 [a0 + 5] = 0\n  2614: u8 [a0 + 3] = 0x57\n  2618: u8 [a0 + 2] = 0xc8\n  2623: u8 [a0 + 1] = 0xe2\n  2628: u8 [a0 + 0] = 0x64\n  2631: a1 = u64 [s1 + 0x168]\n  2635: a2 = u64 [s1 + 0x160]\n  2639: a3 = a2 | a1\n  2642: a4 = 0x100000000\n  2652: a1 = 0xfffffffc\n  2662: a2 = u64 [s1 + 0x1b8]\n  2666: a1 = a2 <u a1\n  2669: a2 = u64 [s1 + 0x1b0]\n  2673: a1 = 0 if a2 != 0\n  2675: a1 = 0 if a3 != 0\n  2677: u8 [a0 + 4] = 0\n  2680: jump @58 if a1 != 0\n      : @57 (gas: 1)\n  2683: jump @174\n      : @58 (gas: 6)\n  2686: a0 = u64 [s1 + 0x1a8]\n  2690: i32 a0 = a0 + 0x4\n  2693: a1 = 0x20\n  2696: u64 [s1 + 0x158] = a3\n  2700: u64 [s1 + 0x150] = a4\n  2704: ra = 30, jump @0\n      : @59 [@dyn 15] (gas: 72)\n  2709: a1 = u64 [s1 + 0x198]\n  2713: a1 = reverse a1\n  2715: a2 = u64 [s1 + 0x1a0]\n  2719: a2 = reverse a2\n  2721: a3 = u64 [s1 + 0x188]\n  2725: a3 = reverse a3\n  2727: a4 = u64 [s1 + 0x190]\n  2731: a4 = reverse a4\n  2733: a5 = a4 >> 0x38\n  2736: u8 [a0 + 0x1f] = a5\n  2739: a5 = a4 >> 0x30\n  2742: u8 [a0 + 0x1e] = a5\n  2745: a5 = a4 >> 0x28\n  2748: u8 [a0 + 0x1d] = a5\n  2751: a5 = a4 >> 0x20\n  2754: u8 [a0 + 0x1c] = a5\n  2757: a5 = a4 >> 0x18\n  2760: u8 [a0 + 0x1b] = a5\n  2763: a5 = a4 >> 0x10\n  2766: u8 [a0 + 0x1a] = a5\n  2769: a5 = a4 >> 0x8\n  2772: u8 [a0 + 0x19] = a5\n  2775: u8 [a0 + 0x18] = a4\n  2778: u8 [a0 + 0x10] = a3\n  2781: a4 = a3 >> 0x38\n  2784: u8 [a0 + 0x17] = a4\n  2787: a4 = a3 >> 0x30\n  2790: u8 [a0 + 0x16] = a4\n  2793: a4 = a3 >> 0x28\n  2796: u8 [a0 + 0x15] = a4\n  2799: a4 = a3 >> 0x20\n  2802: u8 [a0 + 0x14] = a4\n  2805: a4 = a3 >> 0x18\n  2808: u8 [a0 + 0x13] = a4\n  2811: a4 = a3 >> 0x10\n  2814: u8 [a0 + 0x12] = a4\n  2817: a3 = a3 >> 0x8\n  2820: u8 [a0 + 0x11] = a3\n  2823: u8 [a0 + 0x8] = a2\n  2826: a3 = a2 >> 0x38\n  2829: u8 [a0 + 0xf] = a3\n  2832: a3 = a2 >> 0x30\n  2835: u8 [a0 + 0xe] = a3\n  2838: a3 = a2 >> 0x28\n  2841: u8 [a0 + 0xd] = a3\n  2844: a3 = a2 >> 0x20\n  2847: u8 [a0 + 0xc] = a3\n  2850: a3 = a2 >> 0x18\n  2853: u8 [a0 + 0xb] = a3\n  2856: a3 = a2 >> 0x10\n  2859: u8 [a0 + 0xa] = a3\n  2862: a2 = a2 >> 0x8\n  2865: u8 [a0 + 0x9] = a2\n  2868: u8 [a0] = a1\n  2870: a2 = a1 >> 0x38\n  2873: u8 [a0 + 0x7] = a2\n  2876: a2 = a1 >> 0x30\n  2879: u8 [a0 + 0x6] = a2\n  2882: a2 = a1 >> 0x28\n  2885: u8 [a0 + 0x5] = a2\n  2888: a2 = a1 >> 0x20\n  2891: u8 [a0 + 0x4] = a2\n  2894: a2 = a1 >> 0x18\n  2897: u8 [a0 + 0x3] = a2\n  2900: a2 = a1 >> 0x10\n  2903: u8 [a0 + 0x2] = a2\n  2906: a1 = a1 >> 0x8\n  2909: u8 [a0 + 0x1] = a1\n  2912: i32 a0 = s1 + 0x640\n  2916: a1 = 0x24\n  2919: ecalli 2 // 'call_data_load'\n  2921: fallthrough\n      : @60 (gas: 9)\n  2922: a0 = u64 [s1 + 0x150]\n  2926: a0 = a0 + 0xffffffffffffffdc\n  2929: a1 = u64 [s1 + 0x1b8]\n  2933: a0 = a1 <u a0\n  2936: a1 = u64 [s1 + 0x1b0]\n  2940: a0 = 0 if a1 != 0\n  2942: a1 = u64 [s1 + 0x158]\n  2946: a0 = 0 if a1 != 0\n  2948: jump @62 if a0 != 0\n      : @61 (gas: 1)\n  2951: jump @174\n      : @62 (gas: 12)\n  2954: a0 = u64 [s1 + 0x640]\n  2958: u64 [s1 + 0x1a0] = a0\n  2962: a0 = u64 [s1 + 0x648]\n  2966: u64 [s1 + 0x198] = a0\n  2970: a0 = u64 [s1 + 0x650]\n  2974: u64 [s1 + 0x190] = a0\n  2978: a0 = u64 [s1 + 0x658]\n  2982: u64 [s1 + 0x188] = a0\n  2986: a0 = u64 [s1 + 0x1a8]\n  2990: i32 a0 = a0 + 0x24\n  2993: a1 = 0x20\n  2996: ra = 32, jump @0\n      : @63 [@dyn 16] (gas: 92)\n  3001: a1 = u64 [s1 + 0x188]\n  3005: a1 = reverse a1\n  3007: a2 = u64 [s1 + 0x190]\n  3011: a2 = reverse a2\n  3013: a3 = u64 [s1 + 0x198]\n  3017: a3 = reverse a3\n  3019: a4 = u64 [s1 + 0x1a0]\n  3023: a4 = reverse a4\n  3025: a5 = a4 >> 0x38\n  3028: u8 [a0 + 0x1f] = a5\n  3031: a5 = a4 >> 0x30\n  3034: u8 [a0 + 0x1e] = a5\n  3037: a5 = a4 >> 0x28\n  3040: u8 [a0 + 0x1d] = a5\n  3043: a5 = a4 >> 0x20\n  3046: u8 [a0 + 0x1c] = a5\n  3049: a5 = a4 >> 0x18\n  3052: u8 [a0 + 0x1b] = a5\n  3055: a5 = a4 >> 0x10\n  3058: u8 [a0 + 0x1a] = a5\n  3061: a5 = a4 >> 0x8\n  3064: u8 [a0 + 0x19] = a5\n  3067: u8 [a0 + 0x18] = a4\n  3070: a4 = a3 >> 0x38\n  3073: u8 [a0 + 0x17] = a4\n  3076: a4 = a3 >> 0x30\n  3079: u8 [a0 + 0x16] = a4\n  3082: a4 = a3 >> 0x28\n  3085: u8 [a0 + 0x15] = a4\n  3088: a4 = a3 >> 0x20\n  3091: u8 [a0 + 0x14] = a4\n  3094: a4 = a3 >> 0x18\n  3097: u8 [a0 + 0x13] = a4\n  3100: a4 = a3 >> 0x10\n  3103: u8 [a0 + 0x12] = a4\n  3106: a4 = a3 >> 0x8\n  3109: u8 [a0 + 0x11] = a4\n  3112: u8 [a0 + 0x10] = a3\n  3115: a3 = a2 >> 0x38\n  3118: u8 [a0 + 0xf] = a3\n  3121: a3 = a2 >> 0x30\n  3124: u8 [a0 + 0xe] = a3\n  3127: a3 = a2 >> 0x28\n  3130: u8 [a0 + 0xd] = a3\n  3133: a3 = a2 >> 0x20\n  3136: u8 [a0 + 0xc] = a3\n  3139: a3 = a2 >> 0x18\n  3142: u8 [a0 + 0xb] = a3\n  3145: a3 = a2 >> 0x10\n  3148: u8 [a0 + 0xa] = a3\n  3151: a3 = a2 >> 0x8\n  3154: u8 [a0 + 0x9] = a3\n  3157: u8 [a0 + 0x8] = a2\n  3160: a2 = a1 >> 0x38\n  3163: u8 [a0 + 0x7] = a2\n  3166: a2 = a1 >> 0x30\n  3169: u8 [a0 + 0x6] = a2\n  3172: a2 = a1 >> 0x28\n  3175: u8 [a0 + 0x5] = a2\n  3178: a2 = a1 >> 0x20\n  3181: u8 [a0 + 0x4] = a2\n  3184: a2 = a1 >> 0x18\n  3187: u8 [a0 + 0x3] = a2\n  3190: a2 = a1 >> 0x10\n  3193: u8 [a0 + 0x2] = a2\n  3196: a2 = a1 >> 0x8\n  3199: u8 [a0 + 0x1] = a2\n  3202: u8 [a0] = a1\n  3204: ecalli 6 // 'ref_time_left'\n  3206: a0 = u64 [s1 + 0x170]\n  3210: a0 = reverse a0\n  3212: a1 = a0 << 0x20\n  3215: a2 = u64 [s1 + 0x178]\n  3219: a2 = reverse a2\n  3221: a2 = a2 >> 0x20\n  3224: a1 = a1 | a2\n  3227: a2 = u64 [s1 + 0x180]\n  3231: a2 = reverse a2\n  3233: a3 = a2 << 0x20\n  3236: a0 = a0 >> 0x20\n  3239: a0 = a0 | a3\n  3242: a2 = a2 >> 0x20\n  3245: u64 [s1 + 0x668] = a0\n  3249: u64 [s1 + 0x660] = a1\n  3253: u32 [s1 + 0x670] = a2\n  3257: u64 [s1 + 1688] = 0\n  3261: u64 [s1 + 1680] = 0\n  3265: u64 [s1 + 1672] = 0\n  3269: u64 [s1 + 1664] = 0\n  3273: a1 = 0x44\n  3276: a0 = u64 [s1 + 0x1a8]\n  3280: ra = 34, jump @0\n      : @64 [@dyn 17] (gas: 4)\n  3285: u64 [s1 + 0x1a0] = a0\n  3289: a1 = 0x20\n  3292: a0 = u64 [s1 + 0x1a8]\n  3296: ra = 36, jump @0\n      : @65 [@dyn 18] (gas: 31)\n  3301: u32 [s1 + 1696] = 0x20\n  3306: u64 [s1 + 1752] = 0xffffffffffffffff\n  3311: u64 [s1 + 1744] = 0xffffffffffffffff\n  3316: u64 [s1 + 1736] = 0xffffffffffffffff\n  3321: u64 [s1 + 1728] = 0xffffffffffffffff\n  3326: a1 = s1 + 0x660\n  3330: a1 = a1 << 0x20\n  3333: a1 = a1 >> 0x20\n  3336: a2 = 0x800000000\n  3346: t0 = a1 | a2\n  3349: a1 = s1 + 0x680\n  3353: a1 = a1 << 0x20\n  3356: a1 = a1 >> 0x20\n  3359: a2 = s1 + 0x6c0\n  3363: a2 = a2 << 0x20\n  3366: a3 = a2 | a1\n  3369: a1 = u64 [s1 + 0x1a0]\n  3373: a1 = a1 << 0x20\n  3376: a1 = a1 >> 0x20\n  3379: a2 = 0x4400000000\n  3389: a4 = a1 | a2\n  3392: a0 = a0 << 0x20\n  3395: a0 = a0 >> 0x20\n  3398: a1 = s1 + 0x6a0\n  3402: a1 = a1 << 0x20\n  3405: a5 = a1 | a0\n  3408: a1 = 0xffffffffffffffff\n  3411: a2 = 0xffffffffffffffff\n  3414: a0 = t0\n  3416: ecalli 0 // 'call'\n  3417: fallthrough\n      : @66 (gas: 1)\n  3418: jump @68 if a0 == 0\n      : @67 (gas: 1)\n  3421: jump @253\n      : @68 (gas: 2)\n  3424: ecalli 8 // 'return_data_size'\n  3426: fallthrough\n      : @69 (gas: 1)\n  3427: jump @71 if a0 <u 32\n      : @70 (gas: 1)\n  3431: jump @261\n      : @71 (gas: 17)\n  3434: ecalli 8 // 'return_data_size'\n  3436: u64 [s1 + 0x1a0] = a0\n  3440: u64 [s1 + 856] = 0\n  3444: u64 [s1 + 848] = 0\n  3448: u64 [s1 + 840] = 0\n  3452: u64 [s1 + 0x340] = a0\n  3456: a0 = u64 [s1 + 0x160]\n  3460: u64 [s1 + 0x370] = a0\n  3464: a0 = u64 [s1 + 0x1b0]\n  3468: u64 [s1 + 0x368] = a0\n  3472: a0 = u64 [s1 + 0x1b8]\n  3476: u64 [s1 + 0x360] = a0\n  3480: a0 = s1 + 0x360\n  3484: a1 = s1 + 0x340\n  3488: a2 = u64 [s1 + 0x168]\n  3492: u64 [s1 + 0x378] = a2\n  3496: ra = 38, jump @287\n      : @72 [@dyn 19] (gas: 2)\n  3501: a1 = u64 [s1 + 0x1a0]\n  3505: jump @275 if a1 <=u 31\n      : @73 (gas: 1)\n  3510: jump @262\n      : @74 (gas: 1)\n  3513: jump @76 if a0 != 17480656\n      : @75 (gas: 1)\n  3520: jump @146\n      : @76 (gas: 1)\n  3523: jump @78 if a0 == 953538513\n      : @77 (gas: 1)\n  3530: jump @175\n      : @78 (gas: 11)\n  3533: a0 = sp + 0xffffffffffffffe0\n  3536: a0 = a0 & 0xffffffffffffffe0\n  3539: u64 [s1 + 0x1b0] = a0\n  3543: sp = a0\n  3545: u64 [a0 + 24] = 0\n  3548: u64 [a0 + 16] = 0\n  3551: u64 [a0 + 8] = 0\n  3554: u64 [a0 + 0] = 0\n  3556: i32 a0 = a0 + 0\n  3558: ecalli 12 // 'value_transferred'\n  3560: fallthrough\n      : @79 (gas: 9)\n  3561: a3 = u64 [s1 + 0x1b0]\n  3565: a0 = u64 [a3 + 0x10]\n  3568: a1 = u64 [a3 + 0x18]\n  3571: a2 = u64 [a3 + 0x8]\n  3574: a3 = u64 [a3]\n  3576: a1 = a1 | a2\n  3579: a0 = a0 | a3\n  3582: a0 = a0 | a1\n  3585: jump @81 if a0 == 0\n      : @80 (gas: 1)\n  3588: jump @275\n      : @81 (gas: 3)\n  3591: a0 = u64 [s1 + 0x1b8]\n  3595: a0 = i32 [a0]\n  3597: jump @83 if a0 >u 3\n      : @82 (gas: 1)\n  3601: jump @275\n      : @83 (gas: 5)\n  3604: u64 [s1 + 1816] = 0\n  3608: u64 [s1 + 1808] = 0\n  3612: u64 [s1 + 1800] = 0\n  3616: u64 [s1 + 1792] = 0\n  3620: jump @171\n      : @84 (gas: 11)\n  3623: a0 = sp + 0xffffffffffffffe0\n  3626: a0 = a0 & 0xffffffffffffffe0\n  3629: u64 [s1 + 0x1b0] = a0\n  3633: sp = a0\n  3635: u64 [a0 + 24] = 0\n  3638: u64 [a0 + 16] = 0\n  3641: u64 [a0 + 8] = 0\n  3644: u64 [a0 + 0] = 0\n  3646: i32 a0 = a0 + 0\n  3648: ecalli 12 // 'value_transferred'\n  3650: fallthrough\n      : @85 (gas: 9)\n  3651: a3 = u64 [s1 + 0x1b0]\n  3655: a0 = u64 [a3 + 0x10]\n  3658: a1 = u64 [a3 + 0x18]\n  3661: a2 = u64 [a3 + 0x8]\n  3664: a3 = u64 [a3]\n  3666: a1 = a1 | a2\n  3669: a0 = a0 | a3\n  3672: a0 = a0 | a1\n  3675: jump @87 if a0 == 0\n      : @86 (gas: 1)\n  3678: jump @275\n      : @87 (gas: 3)\n  3681: a0 = u64 [s1 + 0x1b8]\n  3685: a0 = i32 [a0]\n  3687: jump @89 if a0 >u 35\n      : @88 (gas: 1)\n  3691: jump @275\n      : @89 (gas: 4)\n  3694: i32 a0 = s1 + 0x720\n  3698: a1 = 0x4\n  3701: ecalli 2 // 'call_data_load'\n  3703: fallthrough\n      : @90 (gas: 12)\n  3704: a1 = u64 [s1 + 0x730]\n  3708: a2 = u64 [s1 + 0x738]\n  3712: a0 = 0x100000000\n  3722: a0 = a0 ^ a1\n  3725: a0 = a0 | a2\n  3728: u64 [s1 + 0x198] = a1\n  3732: a1 = a1 >> 0x20\n  3735: a1 = a1 <u 0x1\n  3738: u64 [s1 + 0x190] = a2\n  3742: a1 = 0 if a2 != 0\n  3744: a1 = 0 if a0 == 0\n  3746: jump @92 if a1 != 0\n      : @91 (gas: 1)\n  3749: jump @280\n      : @92 (gas: 28)\n  3752: a0 = u64 [s1 + 0x728]\n  3756: u64 [s1 + 0x180] = a0\n  3760: a0 = u64 [s1 + 0x720]\n  3764: u64 [s1 + 0x188] = a0\n  3768: u64 [s1 + 1816] = 0\n  3772: u64 [s1 + 1808] = 0\n  3776: u64 [s1 + 1800] = 0\n  3780: u64 [s1 + 1792] = 0\n  3784: u64 [s1 + 1848] = 0\n  3788: u64 [s1 + 1840] = 0\n  3792: u64 [s1 + 1832] = 0\n  3796: u64 [s1 + 1824] = 0\n  3800: u32 [s1 + 1856] = 0x20\n  3805: i32 a1 = s1 + 0x700\n  3809: i32 a3 = s1 + 0x720\n  3813: i32 a4 = s1 + 0x740\n  3817: a2 = 0xffffffffffffffff\n  3820: a0 = 0\n  3822: ecalli 5 // 'get_storage'\n  3824: a0 = u64 [s1 + 0x730]\n  3828: u64 [s1 + 0x1a8] = a0\n  3832: a0 = u64 [s1 + 0x728]\n  3836: u64 [s1 + 0x1a0] = a0\n  3840: a0 = u64 [s1 + 0x720]\n  3844: u64 [s1 + 0x1b0] = a0\n  3848: a0 = 0x40\n  3851: a1 = 0x20\n  3854: ra = 40, jump @0\n      : @93 [@dyn 20] (gas: 100)\n  3859: a1 = u8 [a0 + 0x11]\n  3862: a2 = u8 [a0 + 0x10]\n  3865: a3 = u8 [a0 + 0x12]\n  3868: a4 = u8 [a0 + 0x13]\n  3871: a1 = a1 << 0x8\n  3874: a1 = a1 | a2\n  3877: a3 = a3 << 0x10\n  3880: a4 = a4 << 0x18\n  3883: a3 = a3 | a4\n  3886: a1 = a1 | a3\n  3889: a2 = u8 [a0 + 0x15]\n  3892: a3 = u8 [a0 + 0x14]\n  3895: a4 = u8 [a0 + 0x16]\n  3898: a5 = u8 [a0 + 0x17]\n  3901: a2 = a2 << 0x8\n  3904: a2 = a2 | a3\n  3907: a4 = a4 << 0x10\n  3910: a5 = a5 << 0x18\n  3913: a4 = a4 | a5\n  3916: a2 = a2 | a4\n  3919: a2 = a2 << 0x20\n  3922: t0 = a2 | a1\n  3925: a2 = u8 [a0 + 0x1]\n  3928: a3 = u8 [a0]\n  3930: a4 = u8 [a0 + 0x2]\n  3933: a5 = u8 [a0 + 0x3]\n  3936: a2 = a2 << 0x8\n  3939: a2 = a2 | a3\n  3942: a4 = a4 << 0x10\n  3945: a5 = a5 << 0x18\n  3948: a4 = a4 | a5\n  3951: a2 = a2 | a4\n  3954: a3 = u8 [a0 + 0x5]\n  3957: a4 = u8 [a0 + 0x4]\n  3960: a5 = u8 [a0 + 0x6]\n  3963: a1 = u8 [a0 + 0x7]\n  3966: a3 = a3 << 0x8\n  3969: a3 = a3 | a4\n  3972: a5 = a5 << 0x10\n  3975: a1 = a1 << 0x18\n  3978: a1 = a1 | a5\n  3981: a1 = a1 | a3\n  3984: a1 = a1 << 0x20\n  3987: t1 = a1 | a2\n  3990: a1 = u8 [a0 + 0x19]\n  3993: a3 = u8 [a0 + 0x18]\n  3996: a4 = u8 [a0 + 0x1a]\n  3999: a5 = u8 [a0 + 0x1b]\n  4002: a1 = a1 << 0x8\n  4005: a1 = a1 | a3\n  4008: a4 = a4 << 0x10\n  4011: a5 = a5 << 0x18\n  4014: a4 = a4 | a5\n  4017: a1 = a1 | a4\n  4020: a3 = u8 [a0 + 0x1d]\n  4023: a4 = u8 [a0 + 0x1c]\n  4026: a5 = u8 [a0 + 0x1e]\n  4029: a2 = u8 [a0 + 0x1f]\n  4032: a3 = a3 << 0x8\n  4035: a3 = a3 | a4\n  4038: a5 = a5 << 0x10\n  4041: a2 = a2 << 0x18\n  4044: a2 = a2 | a5\n  4047: a2 = a2 | a3\n  4050: a2 = a2 << 0x20\n  4053: a3 = a2 | a1\n  4056: a1 = u8 [a0 + 0x9]\n  4059: a2 = u8 [a0 + 0x8]\n  4062: a4 = u8 [a0 + 0xa]\n  4065: a5 = u8 [a0 + 0xb]\n  4068: a1 = a1 << 0x8\n  4071: a1 = a1 | a2\n  4074: a4 = a4 << 0x10\n  4077: a5 = a5 << 0x18\n  4080: a4 = a4 | a5\n  4083: a1 = a1 | a4\n  4086: a2 = u8 [a0 + 0xd]\n  4089: a4 = u8 [a0 + 0xc]\n  4092: a5 = u8 [a0 + 0xe]\n  4095: a0 = u8 [a0 + 0xf]\n  4098: a2 = a2 << 0x8\n  4101: a2 = a2 | a4\n  4104: a5 = a5 << 0x10\n  4107: a0 = a0 << 0x18\n  4110: a0 = a0 | a5\n  4113: a0 = a0 | a2\n  4116: a0 = a0 << 0x20\n  4119: a0 = a0 | a1\n  4122: a2 = reverse a0\n  4124: a5 = reverse a3\n  4126: a3 = reverse t1\n  4128: a4 = reverse t0\n  4130: a0 = a4 | a3\n  4133: a1 = a5 | a2\n  4136: a1 = a1 | a0\n  4139: a1 = a1 >> 0x20\n  4142: a0 = a0 | a2\n  4145: a0 = a0 << 0x20\n  4148: a0 = a0 | a1\n  4151: jump @95 if a0 == 0\n      : @94 (gas: 1)\n  4154: jump @174\n      : @95 (gas: 8)\n  4157: i32 a0 = a5 + 0\n  4159: a1 = 0x20\n  4162: u64 [s1 + 0x1b8] = a0\n  4166: u64 [s1 + 0x178] = a2\n  4170: u64 [s1 + 0x170] = a3\n  4174: u64 [s1 + 0x168] = a4\n  4178: u64 [s1 + 0x160] = a5\n  4182: ra = 42, jump @0\n      : @96 [@dyn 21] (gas: 42)\n  4187: u8 [a0 + 3] = 0x1c\n  4191: u8 [a0 + 2] = 0x15\n  4195: u8 [a0 + 1] = 0x62\n  4199: u8 [a0 + 0] = 0x84\n  4203: a1 = u64 [s1 + 0x178]\n  4207: a2 = u64 [s1 + 0x170]\n  4211: a2 = a2 | a1\n  4214: a1 = 0xfffffffc\n  4224: a3 = u64 [s1 + 0x160]\n  4228: a1 = a3 <u a1\n  4231: a3 = u64 [s1 + 0x168]\n  4235: a1 = 0 if a3 != 0\n  4237: a1 = 0 if a2 != 0\n  4239: u8 [a0 + 31] = 0\n  4242: u8 [a0 + 30] = 0\n  4245: u8 [a0 + 29] = 0\n  4248: u8 [a0 + 28] = 0\n  4251: u8 [a0 + 27] = 0\n  4254: u8 [a0 + 26] = 0\n  4257: u8 [a0 + 25] = 0\n  4260: u8 [a0 + 24] = 0\n  4263: u8 [a0 + 23] = 0\n  4266: u8 [a0 + 22] = 0\n  4269: u8 [a0 + 21] = 0\n  4272: u8 [a0 + 20] = 0\n  4275: u8 [a0 + 19] = 0\n  4278: u8 [a0 + 18] = 0\n  4281: u8 [a0 + 17] = 0\n  4284: u8 [a0 + 16] = 0\n  4287: u8 [a0 + 15] = 0\n  4290: u8 [a0 + 14] = 0\n  4293: u8 [a0 + 13] = 0\n  4296: u8 [a0 + 12] = 0\n  4299: u8 [a0 + 11] = 0\n  4302: u8 [a0 + 10] = 0\n  4305: u8 [a0 + 9] = 0\n  4308: u8 [a0 + 8] = 0\n  4311: u8 [a0 + 7] = 0\n  4314: u8 [a0 + 6] = 0\n  4317: u8 [a0 + 5] = 0\n  4320: u8 [a0 + 4] = 0\n  4323: jump @98 if a1 != 0\n      : @97 (gas: 1)\n  4326: jump @174\n      : @98 (gas: 4)\n  4329: a0 = u64 [s1 + 0x1b8]\n  4333: i32 a0 = a0 + 0x4\n  4336: a1 = 0x20\n  4339: ra = 44, jump @0\n      : @99 [@dyn 22] (gas: 92)\n  4344: a1 = u64 [s1 + 0x190]\n  4348: a1 = reverse a1\n  4350: a2 = u64 [s1 + 0x198]\n  4354: a2 = reverse a2\n  4356: a3 = u64 [s1 + 0x180]\n  4360: a3 = reverse a3\n  4362: a4 = u64 [s1 + 0x188]\n  4366: a4 = reverse a4\n  4368: a5 = a4 >> 0x38\n  4371: u8 [a0 + 0x1f] = a5\n  4374: a5 = a4 >> 0x30\n  4377: u8 [a0 + 0x1e] = a5\n  4380: a5 = a4 >> 0x28\n  4383: u8 [a0 + 0x1d] = a5\n  4386: a5 = a4 >> 0x20\n  4389: u8 [a0 + 0x1c] = a5\n  4392: a5 = a4 >> 0x18\n  4395: u8 [a0 + 0x1b] = a5\n  4398: a5 = a4 >> 0x10\n  4401: u8 [a0 + 0x1a] = a5\n  4404: a5 = a4 >> 0x8\n  4407: u8 [a0 + 0x19] = a5\n  4410: u8 [a0 + 0x18] = a4\n  4413: u8 [a0 + 0x10] = a3\n  4416: a4 = a3 >> 0x38\n  4419: u8 [a0 + 0x17] = a4\n  4422: a4 = a3 >> 0x30\n  4425: u8 [a0 + 0x16] = a4\n  4428: a4 = a3 >> 0x28\n  4431: u8 [a0 + 0x15] = a4\n  4434: a4 = a3 >> 0x20\n  4437: u8 [a0 + 0x14] = a4\n  4440: a4 = a3 >> 0x18\n  4443: u8 [a0 + 0x13] = a4\n  4446: a4 = a3 >> 0x10\n  4449: u8 [a0 + 0x12] = a4\n  4452: a3 = a3 >> 0x8\n  4455: u8 [a0 + 0x11] = a3\n  4458: u8 [a0 + 0x8] = a2\n  4461: a3 = a2 >> 0x38\n  4464: u8 [a0 + 0xf] = a3\n  4467: a3 = a2 >> 0x30\n  4470: u8 [a0 + 0xe] = a3\n  4473: a3 = a2 >> 0x28\n  4476: u8 [a0 + 0xd] = a3\n  4479: a3 = a2 >> 0x20\n  4482: u8 [a0 + 0xc] = a3\n  4485: a3 = a2 >> 0x18\n  4488: u8 [a0 + 0xb] = a3\n  4491: a3 = a2 >> 0x10\n  4494: u8 [a0 + 0xa] = a3\n  4497: a2 = a2 >> 0x8\n  4500: u8 [a0 + 0x9] = a2\n  4503: u8 [a0] = a1\n  4505: a2 = a1 >> 0x38\n  4508: u8 [a0 + 0x7] = a2\n  4511: a2 = a1 >> 0x30\n  4514: u8 [a0 + 0x6] = a2\n  4517: a2 = a1 >> 0x28\n  4520: u8 [a0 + 0x5] = a2\n  4523: a2 = a1 >> 0x20\n  4526: u8 [a0 + 0x4] = a2\n  4529: a2 = a1 >> 0x18\n  4532: u8 [a0 + 0x3] = a2\n  4535: a2 = a1 >> 0x10\n  4538: u8 [a0 + 0x2] = a2\n  4541: a1 = a1 >> 0x8\n  4544: u8 [a0 + 0x1] = a1\n  4547: ecalli 6 // 'ref_time_left'\n  4549: a0 = u64 [s1 + 0x1a0]\n  4553: a0 = reverse a0\n  4555: a1 = a0 << 0x20\n  4558: a2 = u64 [s1 + 0x1a8]\n  4562: a2 = reverse a2\n  4564: a2 = a2 >> 0x20\n  4567: a1 = a1 | a2\n  4570: a2 = u64 [s1 + 0x1b0]\n  4574: a2 = reverse a2\n  4576: a3 = a2 << 0x20\n  4579: a0 = a0 >> 0x20\n  4582: a0 = a0 | a3\n  4585: a2 = a2 >> 0x20\n  4588: u64 [s1 + 0x568] = a0\n  4592: u64 [s1 + 0x560] = a1\n  4596: u32 [s1 + 0x570] = a2\n  4600: u64 [s1 + 1432] = 0\n  4604: u64 [s1 + 1424] = 0\n  4608: u64 [s1 + 1416] = 0\n  4612: u64 [s1 + 1408] = 0\n  4616: a1 = 0x24\n  4619: a0 = u64 [s1 + 0x1b8]\n  4623: ra = 46, jump @0\n      : @100 [@dyn 23] (gas: 4)\n  4628: u64 [s1 + 0x1b0] = a0\n  4632: a0 = u64 [s1 + 0x1b8]\n  4636: a1 = 0\n  4638: ra = 48, jump @0\n      : @101 [@dyn 24] (gas: 31)\n  4643: u32 [s1 + 1440] = 0\n  4647: u64 [s1 + 1496] = 0\n  4651: u64 [s1 + 1488] = 0\n  4655: u64 [s1 + 1480] = 0\n  4659: u64 [s1 + 1472] = 0\n  4663: a1 = s1 + 0x560\n  4667: a1 = a1 << 0x20\n  4670: a1 = a1 >> 0x20\n  4673: a2 = 0x1800000000\n  4683: t0 = a1 | a2\n  4686: a1 = s1 + 0x580\n  4690: a1 = a1 << 0x20\n  4693: a1 = a1 >> 0x20\n  4696: a2 = s1 + 0x5c0\n  4700: a2 = a2 << 0x20\n  4703: a3 = a2 | a1\n  4706: a1 = u64 [s1 + 0x1b0]\n  4710: a1 = a1 << 0x20\n  4713: a1 = a1 >> 0x20\n  4716: a2 = 0x2400000000\n  4726: a4 = a1 | a2\n  4729: a0 = a0 << 0x20\n  4732: a0 = a0 >> 0x20\n  4735: a1 = s1 + 0x5a0\n  4739: a1 = a1 << 0x20\n  4742: a5 = a1 | a0\n  4745: a1 = 0xffffffffffffffff\n  4748: a2 = 0xffffffffffffffff\n  4751: a0 = t0\n  4753: ecalli 0 // 'call'\n  4754: fallthrough\n      : @102 (gas: 1)\n  4755: jump @104 if a0 == 0\n      : @103 (gas: 1)\n  4758: jump @230\n      : @104 (gas: 2)\n  4761: ecalli 8 // 'return_data_size'\n  4763: fallthrough\n      : @105 (gas: 3)\n  4764: a2 = a0\n  4766: a0 = a0 >> 0x20\n  4769: jump @107 if a0 == 0\n      : @106 (gas: 1)\n  4772: jump @174\n      : @107 (gas: 5)\n  4775: i32 a1 = a2 + 0\n  4777: u64 [s1 + 0x1a8] = a1\n  4781: a0 = u64 [s1 + 0x1b8]\n  4785: u64 [s1 + 0x1b0] = a2\n  4789: ra = 50, jump @0\n      : @108 [@dyn 25] (gas: 7)\n  4794: a1 = u64 [s1 + 0x1b0]\n  4798: u32 [s1 + 0x600] = a1\n  4802: i32 a0 = a0 + 0\n  4804: i32 a1 = s1 + 0x600\n  4808: a2 = 0\n  4810: ecalli 7 // 'return_data_copy'\n  4812: fallthrough\n      : @109 (gas: 3)\n  4813: a0 = i32 [s1 + 0x600]\n  4817: a1 = u64 [s1 + 0x1a8]\n  4821: jump @111 if a0 >=u a1\n      : @110 (gas: 1)\n  4824: jump @174\n      : @111 (gas: 16)\n  4827: u64 [s1 + 792] = 0\n  4831: u64 [s1 + 784] = 0\n  4835: u64 [s1 + 776] = 0\n  4839: a0 = u64 [s1 + 0x1b0]\n  4843: u64 [s1 + 0x300] = a0\n  4847: a0 = u64 [s1 + 0x160]\n  4851: u64 [s1 + 0x320] = a0\n  4855: a0 = u64 [s1 + 0x168]\n  4859: u64 [s1 + 0x328] = a0\n  4863: a0 = u64 [s1 + 0x178]\n  4867: u64 [s1 + 0x330] = a0\n  4871: a0 = s1 + 0x320\n  4875: a1 = s1 + 0x300\n  4879: a2 = u64 [s1 + 0x170]\n  4883: u64 [s1 + 0x338] = a2\n  4887: ra = 52, jump @287\n      : @112 [@dyn 26] (gas: 2)\n  4892: a1 = u64 [s1 + 0x1b0]\n  4896: jump @114 if a1 >u 31\n      : @113 (gas: 1)\n  4900: jump @275\n      : @114 (gas: 3)\n  4903: a1 = 0x20\n  4906: a0 = u64 [s1 + 0x1b8]\n  4910: ra = 54, jump @0\n      : @115 [@dyn 27] (gas: 74)\n  4915: a1 = u8 [a0 + 0x9]\n  4918: a2 = u8 [a0 + 0x8]\n  4921: a3 = u8 [a0 + 0xa]\n  4924: a4 = u8 [a0 + 0xb]\n  4927: a1 = a1 << 0x8\n  4930: a1 = a1 | a2\n  4933: a3 = a3 << 0x10\n  4936: a4 = a4 << 0x18\n  4939: a3 = a3 | a4\n  4942: a1 = a1 | a3\n  4945: a2 = u8 [a0 + 0xd]\n  4948: a3 = u8 [a0 + 0xc]\n  4951: a4 = u8 [a0 + 0xe]\n  4954: a5 = u8 [a0 + 0xf]\n  4957: a2 = a2 << 0x8\n  4960: a2 = a2 | a3\n  4963: a4 = a4 << 0x10\n  4966: a5 = a5 << 0x18\n  4969: a4 = a4 | a5\n  4972: a2 = a2 | a4\n  4975: a2 = a2 << 0x20\n  4978: t0 = a2 | a1\n  4981: a2 = u8 [a0 + 0x1]\n  4984: a3 = u8 [a0]\n  4986: a4 = u8 [a0 + 0x2]\n  4989: a5 = u8 [a0 + 0x3]\n  4992: a2 = a2 << 0x8\n  4995: a2 = a2 | a3\n  4998: a4 = a4 << 0x10\n  5001: a5 = a5 << 0x18\n  5004: a4 = a4 | a5\n  5007: a2 = a2 | a4\n  5010: a3 = u8 [a0 + 0x5]\n  5013: a4 = u8 [a0 + 0x4]\n  5016: a5 = u8 [a0 + 0x6]\n  5019: a1 = u8 [a0 + 0x7]\n  5022: a3 = a3 << 0x8\n  5025: a3 = a3 | a4\n  5028: a5 = a5 << 0x10\n  5031: a1 = a1 << 0x18\n  5034: a1 = a1 | a5\n  5037: a1 = a1 | a3\n  5040: a1 = a1 << 0x20\n  5043: t1 = a1 | a2\n  5046: a1 = u8 [a0 + 0x11]\n  5049: a3 = u8 [a0 + 0x10]\n  5052: a4 = u8 [a0 + 0x12]\n  5055: a5 = u8 [a0 + 0x13]\n  5058: a1 = a1 << 0x8\n  5061: a1 = a1 | a3\n  5064: a4 = a4 << 0x10\n  5067: a5 = a5 << 0x18\n  5070: a4 = a4 | a5\n  5073: a1 = a1 | a4\n  5076: a3 = u8 [a0 + 0x15]\n  5079: a4 = u8 [a0 + 0x14]\n  5082: a5 = u8 [a0 + 0x16]\n  5085: a2 = u8 [a0 + 0x17]\n  5088: a3 = a3 << 0x8\n  5091: a3 = a3 | a4\n  5094: a5 = a5 << 0x10\n  5097: a2 = a2 << 0x18\n  5100: a2 = a2 | a5\n  5103: a2 = a2 | a3\n  5106: a2 = a2 << 0x20\n  5109: a1 = a1 | a2\n  5112: a3 = reverse a1\n  5114: t1 = reverse t1\n  5116: a1 = reverse t0\n  5118: u64 [s1 + 0x1a8] = a1\n  5122: a4 = a1 | t1\n  5125: a5 = a3 <u 0x1\n  5128: a5 = 0 if a4 != 0\n  5130: jump @117 if a5 != 0\n      : @116 (gas: 1)\n  5133: jump @275\n      : @117 (gas: 77)\n  5136: a4 = u8 [a0 + 0x19]\n  5139: a5 = u8 [a0 + 0x18]\n  5142: a2 = u8 [a0 + 0x1a]\n  5145: a1 = u8 [a0 + 0x1b]\n  5148: a4 = a4 << 0x8\n  5151: a4 = a4 | a5\n  5154: a2 = a2 << 0x10\n  5157: a1 = a1 << 0x18\n  5160: a1 = a1 | a2\n  5163: a1 = a1 | a4\n  5166: a2 = u8 [a0 + 0x1d]\n  5169: a4 = u8 [a0 + 0x1c]\n  5172: a5 = u8 [a0 + 0x1e]\n  5175: a0 = u8 [a0 + 0x1f]\n  5178: a2 = a2 << 0x8\n  5181: a2 = a2 | a4\n  5184: a5 = a5 << 0x10\n  5187: a0 = a0 << 0x18\n  5190: a0 = a0 | a5\n  5193: a0 = a0 | a2\n  5196: a0 = a0 << 0x20\n  5199: a0 = a0 | a1\n  5202: a0 = reverse a0\n  5204: a4 = u64 [s1 + 0x160]\n  5208: a5 = a0 + a4\n  5211: a1 = a5 <u a0\n  5214: t0 = u64 [s1 + 0x168]\n  5218: a0 = a3 + t0\n  5221: t2 = a0 + a1\n  5224: a2 = t2 ^ a3\n  5227: a0 = t2 <u a3\n  5230: a0 = a1 if a2 == 0\n  5233: a2 = u64 [s1 + 0x1b0]\n  5237: a2 = a2 + a4\n  5240: ra = a2 <u a4\n  5243: a1 = a5 + 0x1f\n  5246: u64 [s1 + 0x1b8] = a5\n  5250: a3 = a1 <u a5\n  5253: u64 [s1 + 0x1b0] = a3\n  5257: u64 [s1 + 0x1a0] = a2\n  5261: a5 = a1 <u a2\n  5264: a2 = t0 + ra\n  5267: a1 = t2 + a3\n  5270: a4 = a1 ^ a2\n  5273: a3 = a1 <u a2\n  5276: a5 = a3 if a4 != 0\n  5279: u64 [s1 + 0x198] = a2\n  5283: a2 = a2 <u t0\n  5286: a2 = ra if ra == 0\n  5289: a3 = u64 [s1 + 0x178]\n  5293: ra = a3 + a2\n  5296: a2 = ra <u a3\n  5299: a4 = u64 [s1 + 0x170]\n  5303: t0 = a4 + a2\n  5306: t1 = t1 + a4\n  5309: a4 = u64 [s1 + 0x1a8]\n  5313: a2 = a4 + a3\n  5316: a3 = a2 <u a4\n  5319: a3 = a3 + t1\n  5322: a4 = a2 + a0\n  5325: a0 = a4 <u a2\n  5328: t1 = a3 + a0\n  5331: a0 = a1 <u t2\n  5334: a1 = u64 [s1 + 0x1b0]\n  5338: a0 = a1 if a1 == 0\n  5341: a0 = a0 + a4\n  5344: a1 = a0 <u a4\n  5347: a1 = a1 + t1\n  5350: a2 = a1 ^ t0\n  5353: u64 [s1 + 0x1a8] = t0\n  5357: a1 = a1 <u t0\n  5360: a3 = a0 <u ra\n  5363: a1 = a3 if a2 == 0\n  5366: a0 = a0 ^ ra\n  5369: a0 = a0 | a2\n  5372: a5 = a1 if a0 != 0\n  5375: jump @119 if a5 != 0\n      : @118 (gas: 1)\n  5378: jump @275\n      : @119 (gas: 9)\n  5381: a2 = u64 [s1 + 0x1b8]\n  5385: a0 = a2 | a4\n  5388: a1 = t2 | t1\n  5391: a0 = a0 | a1\n  5394: a0 = a0 >> 0x20\n  5397: a1 = a1 | a4\n  5400: a1 = a1 << 0x20\n  5403: a0 = a0 | a1\n  5406: jump @121 if a0 == 0\n      : @120 (gas: 1)\n  5409: jump @174\n      : @121 (gas: 7)\n  5412: u64 [s1 + 0x158] = t1\n  5416: u64 [s1 + 0x160] = a4\n  5420: u64 [s1 + 0x170] = ra\n  5424: u64 [s1 + 0x178] = t2\n  5428: i32 a0 = a2 + 0\n  5430: a1 = 0x20\n  5433: ra = 56, jump @0\n      : @122 [@dyn 28] (gas: 76)\n  5438: a1 = u8 [a0 + 0x9]\n  5441: a2 = u8 [a0 + 0x8]\n  5444: a3 = u8 [a0 + 0xa]\n  5447: a4 = u8 [a0 + 0xb]\n  5450: a1 = a1 << 0x8\n  5453: a1 = a1 | a2\n  5456: a3 = a3 << 0x10\n  5459: a4 = a4 << 0x18\n  5462: a3 = a3 | a4\n  5465: a1 = a1 | a3\n  5468: a2 = u8 [a0 + 0xd]\n  5471: a3 = u8 [a0 + 0xc]\n  5474: a4 = u8 [a0 + 0xe]\n  5477: a5 = u8 [a0 + 0xf]\n  5480: a2 = a2 << 0x8\n  5483: a2 = a2 | a3\n  5486: a4 = a4 << 0x10\n  5489: a5 = a5 << 0x18\n  5492: a4 = a4 | a5\n  5495: a2 = a2 | a4\n  5498: a2 = a2 << 0x20\n  5501: t2 = a2 | a1\n  5504: a1 = u8 [a0 + 0x1]\n  5507: a2 = u8 [a0]\n  5509: a3 = u8 [a0 + 0x2]\n  5512: a4 = u8 [a0 + 0x3]\n  5515: a1 = a1 << 0x8\n  5518: a1 = a1 | a2\n  5521: a3 = a3 << 0x10\n  5524: a4 = a4 << 0x18\n  5527: a3 = a3 | a4\n  5530: a1 = a1 | a3\n  5533: a2 = u8 [a0 + 0x5]\n  5536: a3 = u8 [a0 + 0x4]\n  5539: a4 = u8 [a0 + 0x6]\n  5542: a5 = u8 [a0 + 0x7]\n  5545: a2 = a2 << 0x8\n  5548: a2 = a2 | a3\n  5551: a4 = a4 << 0x10\n  5554: a5 = a5 << 0x18\n  5557: a4 = a4 | a5\n  5560: a2 = a2 | a4\n  5563: a2 = a2 << 0x20\n  5566: t0 = a2 | a1\n  5569: a1 = u8 [a0 + 0x11]\n  5572: a2 = u8 [a0 + 0x10]\n  5575: a3 = u8 [a0 + 0x12]\n  5578: a4 = u8 [a0 + 0x13]\n  5581: a1 = a1 << 0x8\n  5584: a1 = a1 | a2\n  5587: a3 = a3 << 0x10\n  5590: a4 = a4 << 0x18\n  5593: a3 = a3 | a4\n  5596: a1 = a1 | a3\n  5599: a2 = u8 [a0 + 0x15]\n  5602: a3 = u8 [a0 + 0x14]\n  5605: a4 = u8 [a0 + 0x16]\n  5608: a5 = u8 [a0 + 0x17]\n  5611: a2 = a2 << 0x8\n  5614: a2 = a2 | a3\n  5617: a4 = a4 << 0x10\n  5620: a5 = a5 << 0x18\n  5623: a4 = a4 | a5\n  5626: a2 = a2 | a4\n  5629: a2 = a2 << 0x20\n  5632: a1 = a1 | a2\n  5635: u64 [s1 + 0x148] = a1\n  5639: t1 = reverse a1\n  5641: u64 [s1 + 0x150] = t0\n  5645: t0 = reverse t0\n  5647: u64 [s1 + 0x168] = t2\n  5651: a2 = reverse t2\n  5653: a4 = a2 | t0\n  5656: a5 = t1 <u 0x1\n  5659: a5 = 0 if a4 != 0\n  5661: jump @124 if a5 != 0\n      : @123 (gas: 1)\n  5664: jump @285\n      : @124 (gas: 41)\n  5667: a4 = u8 [a0 + 0x19]\n  5670: a5 = u8 [a0 + 0x18]\n  5673: a3 = u8 [a0 + 0x1a]\n  5676: a1 = u8 [a0 + 0x1b]\n  5679: a4 = a4 << 0x8\n  5682: a4 = a4 | a5\n  5685: a3 = a3 << 0x10\n  5688: a1 = a1 << 0x18\n  5691: a1 = a1 | a3\n  5694: a1 = a1 | a4\n  5697: a3 = u8 [a0 + 0x1d]\n  5700: a4 = u8 [a0 + 0x1c]\n  5703: a5 = u8 [a0 + 0x1e]\n  5706: a0 = u8 [a0 + 0x1f]\n  5709: a3 = a3 << 0x8\n  5712: a3 = a3 | a4\n  5715: a5 = a5 << 0x10\n  5718: a0 = a0 << 0x18\n  5721: a0 = a0 | a5\n  5724: a0 = a0 | a3\n  5727: a0 = a0 << 0x20\n  5730: a0 = a0 | a1\n  5733: u64 [s1 + 0x140] = a0\n  5737: a0 = reverse a0\n  5739: a1 = a2 >> 0x3b\n  5742: t0 = t0 << 0x5\n  5745: a1 = t0 | a1\n  5748: u64 [s1 + 0x1b0] = a1\n  5752: a1 = t1 >> 0x3b\n  5755: a2 = a2 << 0x5\n  5758: a1 = a1 | a2\n  5761: u64 [s1 + 0x190] = a1\n  5765: a1 = a0 >> 0x3b\n  5768: t1 = t1 << 0x5\n  5771: a1 = t1 | a1\n  5774: u64 [s1 + 0x188] = a1\n  5778: a0 = a0 << 0x5\n  5781: u64 [s1 + 0x180] = a0\n  5785: a0 = 0x40\n  5788: a1 = 0x20\n  5791: ra = 58, jump @0\n      : @125 [@dyn 29] (gas: 119)\n  5796: a1 = u8 [a0 + 0x1]\n  5799: a2 = u8 [a0]\n  5801: a3 = u8 [a0 + 0x2]\n  5804: a4 = u8 [a0 + 0x3]\n  5807: a1 = a1 << 0x8\n  5810: a1 = a1 | a2\n  5813: a3 = a3 << 0x10\n  5816: a4 = a4 << 0x18\n  5819: a3 = a3 | a4\n  5822: a1 = a1 | a3\n  5825: a2 = u8 [a0 + 0x5]\n  5828: a3 = u8 [a0 + 0x4]\n  5831: a4 = u8 [a0 + 0x6]\n  5834: a5 = u8 [a0 + 0x7]\n  5837: a2 = a2 << 0x8\n  5840: a2 = a2 | a3\n  5843: a4 = a4 << 0x10\n  5846: a5 = a5 << 0x18\n  5849: a4 = a4 | a5\n  5852: a2 = a2 | a4\n  5855: a2 = a2 << 0x20\n  5858: t0 = a2 | a1\n  5861: a2 = u8 [a0 + 0x9]\n  5864: a3 = u8 [a0 + 0x8]\n  5867: a4 = u8 [a0 + 0xa]\n  5870: a5 = u8 [a0 + 0xb]\n  5873: a2 = a2 << 0x8\n  5876: a2 = a2 | a3\n  5879: a4 = a4 << 0x10\n  5882: a5 = a5 << 0x18\n  5885: a4 = a4 | a5\n  5888: a2 = a2 | a4\n  5891: a3 = u8 [a0 + 0xd]\n  5894: a4 = u8 [a0 + 0xc]\n  5897: a5 = u8 [a0 + 0xe]\n  5900: a1 = u8 [a0 + 0xf]\n  5903: a3 = a3 << 0x8\n  5906: a3 = a3 | a4\n  5909: a5 = a5 << 0x10\n  5912: a1 = a1 << 0x18\n  5915: a1 = a1 | a5\n  5918: a1 = a1 | a3\n  5921: a1 = a1 << 0x20\n  5924: t1 = a1 | a2\n  5927: a1 = u8 [a0 + 0x11]\n  5930: a3 = u8 [a0 + 0x10]\n  5933: a4 = u8 [a0 + 0x12]\n  5936: a5 = u8 [a0 + 0x13]\n  5939: a1 = a1 << 0x8\n  5942: a1 = a1 | a3\n  5945: a4 = a4 << 0x10\n  5948: a5 = a5 << 0x18\n  5951: a4 = a4 | a5\n  5954: a1 = a1 | a4\n  5957: a3 = u8 [a0 + 0x15]\n  5960: a4 = u8 [a0 + 0x14]\n  5963: a5 = u8 [a0 + 0x16]\n  5966: a2 = u8 [a0 + 0x17]\n  5969: a3 = a3 << 0x8\n  5972: a3 = a3 | a4\n  5975: a5 = a5 << 0x10\n  5978: a2 = a2 << 0x18\n  5981: a2 = a2 | a5\n  5984: a2 = a2 | a3\n  5987: a2 = a2 << 0x20\n  5990: a3 = a2 | a1\n  5993: a1 = u8 [a0 + 0x19]\n  5996: a2 = u8 [a0 + 0x18]\n  5999: a4 = u8 [a0 + 0x1a]\n  6002: a5 = u8 [a0 + 0x1b]\n  6005: a1 = a1 << 0x8\n  6008: a1 = a1 | a2\n  6011: a4 = a4 << 0x10\n  6014: a5 = a5 << 0x18\n  6017: a4 = a4 | a5\n  6020: a1 = a1 | a4\n  6023: a2 = u8 [a0 + 0x1d]\n  6026: a4 = u8 [a0 + 0x1c]\n  6029: a5 = u8 [a0 + 0x1e]\n  6032: a0 = u8 [a0 + 0x1f]\n  6035: a2 = a2 << 0x8\n  6038: a2 = a2 | a4\n  6041: a5 = a5 << 0x10\n  6044: a0 = a0 << 0x18\n  6047: a0 = a0 | a5\n  6050: a0 = a0 | a2\n  6053: a0 = a0 << 0x20\n  6056: a0 = a0 | a1\n  6059: t2 = reverse a0\n  6061: u64 [s1 + 0x30] = t2\n  6064: ra = reverse a3\n  6066: u64 [s1 + 0x40] = ra\n  6069: t1 = reverse t1\n  6071: u64 [s1 + 0x38] = t1\n  6074: a5 = reverse t0\n  6076: u64 [s1 + 0x48] = a5\n  6079: a1 = u64 [s1 + 0x180]\n  6083: a0 = a1 + 0x20\n  6086: a1 = a0 <u a1\n  6089: a3 = u64 [s1 + 0x188]\n  6093: a2 = a3 + a1\n  6096: a3 = a2 <u a3\n  6099: a3 = a1 if a1 == 0\n  6102: a1 = u64 [s1 + 0x190]\n  6106: a3 = a3 + a1\n  6109: a1 = a3 <u a1\n  6112: a4 = u64 [s1 + 0x1b0]\n  6116: a4 = a4 + a1\n  6119: u64 [s1 + 0x2c0] = a0\n  6123: u64 [s1 + 0x2c8] = a2\n  6127: u64 [s1 + 0x2d0] = a3\n  6131: u64 [s1 + 0x2f8] = a5\n  6135: u64 [s1 + 0x2f0] = t1\n  6139: u64 [s1 + 0x2e8] = ra\n  6143: u64 [s1 + 0x2e0] = t2\n  6147: a0 = s1 + 0x2e0\n  6151: a1 = s1 + 0x2c0\n  6155: u64 [s1 + 0x2d8] = a4\n  6159: ra = 60, jump @287\n      : @126 [@dyn 30] (gas: 12)\n  6164: a1 = u64 [s1 + 0x40]\n  6167: a3 = u64 [s1 + 0x30]\n  6170: a0 = u64 [s1 + 0x48]\n  6173: a0 = a0 | a1\n  6176: a5 = u64 [s1 + 0x38]\n  6179: a1 = a3 | a5\n  6182: a1 = a1 | a0\n  6185: a1 = a1 >> 0x20\n  6188: a0 = a0 | a5\n  6191: a0 = a0 << 0x20\n  6194: a0 = a0 | a1\n  6197: jump @174 if a0 != 0\n      : @127 (gas: 4)\n  6201: i32 a0 = a3 + 0\n  6203: a1 = 0x20\n  6206: u64 [s1 + 0x28] = a0\n  6209: ra = 62, jump @0\n      : @128 [@dyn 31] (gas: 116)\n  6214: a1 = u64 [s1 + 0x1b8]\n  6218: a3 = a1 + 0x20\n  6221: t0 = a3 <u a1\n  6224: a2 = u64 [s1 + 0x180]\n  6228: a2 = a2 + a3\n  6231: t2 = u64 [s1 + 0x178]\n  6235: ra = t2 + t0\n  6238: a1 = u64 [s1 + 0x188]\n  6242: a1 = a1 + ra\n  6245: u64 [s1 + 0x1b8] = a3\n  6249: a4 = a2 <u a3\n  6252: a5 = a1 + a4\n  6255: a1 = a5 ^ ra\n  6258: a3 = a5 <u ra\n  6261: a3 = a4 if a1 == 0\n  6264: a1 = u64 [s1 + 0x198]\n  6268: a4 = a5 ^ a1\n  6271: u64 [s1 + 0x68] = a5\n  6274: a5 = a1 <u a5\n  6277: a1 = u64 [s1 + 0x1a0]\n  6281: u64 [s1 + 0x70] = a2\n  6284: t1 = a1 <u a2\n  6287: t1 = a5 if a4 != 0\n  6290: a4 = ra <u t2\n  6293: a4 = t0 if t0 == 0\n  6296: a2 = u64 [s1 + 0x160]\n  6300: a1 = a2 + a4\n  6303: a2 = a1 <u a2\n  6306: a4 = u64 [s1 + 0x158]\n  6310: t2 = a4 + a2\n  6313: a2 = u64 [s1 + 0x190]\n  6317: a2 = a2 + a1\n  6320: a4 = u64 [s1 + 0x1b0]\n  6324: a4 = a4 + t2\n  6327: u64 [s1 + 0x1b0] = a1\n  6331: a5 = a2 <u a1\n  6334: a4 = a4 + a5\n  6337: a1 = a2 + a3\n  6340: a2 = a1 <u a2\n  6343: a4 = a4 + a2\n  6346: a3 = u64 [s1 + 0x1a8]\n  6350: a2 = a4 ^ a3\n  6353: u64 [s1 + 0x58] = a4\n  6356: a3 = a3 <u a4\n  6359: a5 = u64 [s1 + 0x170]\n  6363: a4 = a5 <u a1\n  6366: a4 = a3 if a2 != 0\n  6369: u64 [s1 + 0x60] = a1\n  6372: a3 = a1 ^ a5\n  6375: a2 = a2 | a3\n  6378: t1 = a4 if a2 != 0\n  6381: a3 = u64 [s1 + 0x168]\n  6385: a2 = a3 >> 0x38\n  6388: u8 [a0 + 0xf] = a2\n  6391: a2 = a3 >> 0x30\n  6394: u8 [a0 + 0xe] = a2\n  6397: a2 = a3 >> 0x28\n  6400: u8 [a0 + 0xd] = a2\n  6403: a2 = a3 >> 0x20\n  6406: u8 [a0 + 0xc] = a2\n  6409: a2 = a3 >> 0x18\n  6412: u8 [a0 + 0xb] = a2\n  6415: a2 = a3 >> 0x10\n  6418: u8 [a0 + 0xa] = a2\n  6421: a2 = a3 >> 0x8\n  6424: u8 [a0 + 0x9] = a2\n  6427: a4 = u64 [s1 + 0x150]\n  6431: a2 = a4 >> 0x38\n  6434: u8 [a0 + 0x7] = a2\n  6437: a2 = a4 >> 0x30\n  6440: u8 [a0 + 0x6] = a2\n  6443: a2 = a4 >> 0x28\n  6446: u8 [a0 + 0x5] = a2\n  6449: a2 = a4 >> 0x20\n  6452: u8 [a0 + 0x4] = a2\n  6455: a2 = a4 >> 0x18\n  6458: u8 [a0 + 0x3] = a2\n  6461: a2 = a4 >> 0x10\n  6464: u8 [a0 + 0x2] = a2\n  6467: a2 = a4 >> 0x8\n  6470: u8 [a0 + 0x1] = a2\n  6473: a5 = u64 [s1 + 0x148]\n  6477: a2 = a5 >> 0x38\n  6480: u8 [a0 + 0x17] = a2\n  6483: a2 = a5 >> 0x30\n  6486: u8 [a0 + 0x16] = a2\n  6489: a2 = a5 >> 0x28\n  6492: u8 [a0 + 0x15] = a2\n  6495: a2 = a5 >> 0x20\n  6498: u8 [a0 + 0x14] = a2\n  6501: a2 = a5 >> 0x18\n  6504: u8 [a0 + 0x13] = a2\n  6507: a2 = a5 >> 0x10\n  6510: u8 [a0 + 0x12] = a2\n  6513: a2 = a5 >> 0x8\n  6516: u8 [a0 + 0x11] = a2\n  6519: a1 = u64 [s1 + 0x140]\n  6523: a2 = a1 >> 0x38\n  6526: u8 [a0 + 0x1f] = a2\n  6529: a2 = a1 >> 0x30\n  6532: u8 [a0 + 0x1e] = a2\n  6535: a2 = a1 >> 0x28\n  6538: u8 [a0 + 0x1d] = a2\n  6541: a2 = a1 >> 0x20\n  6544: u8 [a0 + 0x1c] = a2\n  6547: a2 = a1 >> 0x18\n  6550: u8 [a0 + 0x1b] = a2\n  6553: a2 = a1 >> 0x10\n  6556: u8 [a0 + 0x1a] = a2\n  6559: a2 = a1 >> 0x8\n  6562: u8 [a0 + 0x19] = a2\n  6565: u8 [a0 + 0x10] = a5\n  6568: u8 [a0 + 0x8] = a3\n  6571: u8 [a0] = a4\n  6573: u8 [a0 + 0x18] = a1\n  6576: jump @130 if t1 == 0\n      : @129 (gas: 1)\n  6579: jump @275\n      : @130 (gas: 7)\n  6582: a0 = a4 | a5\n  6585: a1 = a1 | a3\n  6588: a0 = a0 | a1\n  6591: a1 = u64 [s1 + 0x40]\n  6594: t0 = u64 [s1 + 0x1b8]\n  6598: a4 = u64 [s1 + 0x1b0]\n  6602: jump @137 if a0 == 0\n      : @131 (gas: 8)\n  6606: a0 = 0xffffffe0\n  6616: u64 [s1 + 0x50] = a0\n  6619: t1 = u64 [s1 + 0x30]\n  6622: a5 = a1\n  6624: a2 = u64 [s1 + 0x38]\n  6627: a0 = u64 [s1 + 0x48]\n  6630: u64 [s1 + 0x1a8] = a0\n  6634: fallthrough\n      : @132 (gas: 8)\n  6635: a0 = t0 | a4\n  6638: a1 = ra | t2\n  6641: a0 = a0 | a1\n  6644: a0 = a0 >> 0x20\n  6647: a1 = a1 | a4\n  6650: a1 = a1 << 0x20\n  6653: a0 = a0 | a1\n  6656: jump @174 if a0 != 0\n      : @133 (gas: 10)\n  6660: u64 [s1 + 0x1b0] = a4\n  6664: u64 [s1 + 0x180] = ra\n  6668: u64 [s1 + 0x188] = t2\n  6672: i32 a0 = t0 + 0\n  6674: a1 = 0x20\n  6677: u64 [s1 + 0x1b8] = t0\n  6681: u64 [s1 + 0x1a0] = a2\n  6685: u64 [s1 + 0x198] = t1\n  6689: u64 [s1 + 0x190] = a5\n  6693: ra = 64, jump @0\n      : @134 [@dyn 32] (gas: 10)\n  6698: a1 = u64 [s1 + 0x190]\n  6702: a4 = u64 [s1 + 0x198]\n  6706: a5 = u64 [s1 + 0x1a0]\n  6710: a3 = u64 [s1 + 0x1a8]\n  6714: t0 = a5 | a3\n  6717: a2 = u64 [s1 + 0x50]\n  6720: a2 = a4 <u a2\n  6723: a2 = 0 if a1 != 0\n  6725: a2 = 0 if t0 != 0\n  6727: jump @174 if a2 == 0\n      : @135 (gas: 80)\n  6731: a2 = a4 + 0x20\n  6734: a4 = a2 <u a4\n  6737: t0 = a2\n  6739: u64 [s1 + 0xf8] = a2\n  6743: a2 = a1 + a4\n  6746: u64 [s1 + 0x198] = a2\n  6750: a1 = a2 <u a1\n  6753: a1 = a4 if a4 == 0\n  6756: a2 = u8 [a0]\n  6758: u64 [s1 + 0x190] = a2\n  6762: a2 = u8 [a0 + 0x1]\n  6765: u64 [s1 + 0x178] = a2\n  6769: a2 = u8 [a0 + 0x2]\n  6772: u64 [s1 + 0x170] = a2\n  6776: a2 = u8 [a0 + 0x3]\n  6779: u64 [s1 + 0x168] = a2\n  6783: a2 = u8 [a0 + 0x4]\n  6786: u64 [s1 + 0x160] = a2\n  6790: a2 = u8 [a0 + 0x5]\n  6793: u64 [s1 + 0x158] = a2\n  6797: a2 = u8 [a0 + 0x6]\n  6800: u64 [s1 + 0x150] = a2\n  6804: a2 = u8 [a0 + 0x7]\n  6807: u64 [s1 + 0x148] = a2\n  6811: a2 = u8 [a0 + 0x8]\n  6814: u64 [s1 + 0x140] = a2\n  6818: a2 = u8 [a0 + 0x9]\n  6821: u64 [s1 + 0x138] = a2\n  6825: a2 = u8 [a0 + 0xa]\n  6828: u64 [s1 + 0x130] = a2\n  6832: a2 = u8 [a0 + 0xb]\n  6835: u64 [s1 + 0x128] = a2\n  6839: a2 = u8 [a0 + 0xc]\n  6842: u64 [s1 + 0x120] = a2\n  6846: a2 = u8 [a0 + 0xd]\n  6849: u64 [s1 + 0x118] = a2\n  6853: a2 = u8 [a0 + 0xe]\n  6856: u64 [s1 + 0x108] = a2\n  6860: a2 = u8 [a0 + 0xf]\n  6863: u64 [s1 + 0x100] = a2\n  6867: a2 = u8 [a0 + 0x10]\n  6870: u64 [s1 + 0xf0] = a2\n  6874: a2 = u8 [a0 + 0x11]\n  6877: u64 [s1 + 0xe8] = a2\n  6881: a2 = u8 [a0 + 0x12]\n  6884: u64 [s1 + 0xe0] = a2\n  6888: a2 = u8 [a0 + 0x13]\n  6891: u64 [s1 + 0xd8] = a2\n  6895: a2 = u8 [a0 + 0x14]\n  6898: u64 [s1 + 0xd0] = a2\n  6902: a2 = u8 [a0 + 0x15]\n  6905: u64 [s1 + 0xc8] = a2\n  6909: a2 = u8 [a0 + 0x16]\n  6912: u64 [s1 + 0xc0] = a2\n  6916: a2 = u8 [a0 + 0x17]\n  6919: u64 [s1 + 0xb8] = a2\n  6923: a2 = u8 [a0 + 0x18]\n  6926: u64 [s1 + 0xb0] = a2\n  6930: a2 = u8 [a0 + 0x19]\n  6933: u64 [s1 + 0xa8] = a2\n  6937: a2 = u8 [a0 + 0x1a]\n  6940: u64 [s1 + 0xa0] = a2\n  6944: a2 = u8 [a0 + 0x1b]\n  6947: u64 [s1 + 0x98] = a2\n  6951: a2 = u8 [a0 + 0x1c]\n  6954: u64 [s1 + 0x90] = a2\n  6958: a2 = u8 [a0 + 0x1d]\n  6961: u64 [s1 + 0x88] = a2\n  6965: a2 = u8 [a0 + 0x1e]\n  6968: u64 [s1 + 0x80] = a2\n  6972: a0 = u8 [a0 + 0x1f]\n  6975: u64 [s1 + 0x78] = a0\n  6978: a1 = a1 + a5\n  6981: u64 [s1 + 0x110] = a1\n  6985: a0 = a1 <u a5\n  6988: a3 = a3 + a0\n  6991: u64 [s1 + 0x1a8] = a3\n  6995: i32 a0 = t0 + 0\n  6997: a1 = 0x20\n  7000: ra = 66, jump @0\n      : @136 [@dyn 33] (gas: 96)\n  7005: a1 = u64 [s1 + 0x1b8]\n  7009: t0 = a1 + 0x20\n  7012: t2 = t0 <u a1\n  7015: a4 = u64 [s1 + 0x180]\n  7019: t1 = a4 + t2\n  7022: a1 = u64 [s1 + 0x70]\n  7025: a5 = t0 <u a1\n  7028: a2 = u64 [s1 + 0x68]\n  7031: a1 = t1 ^ a2\n  7034: a3 = t1 <u a2\n  7037: a3 = a5 if a1 == 0\n  7040: a1 = t1 <u a4\n  7043: a1 = t2 if t2 == 0\n  7046: a2 = u64 [s1 + 0x1b0]\n  7050: a4 = a2 + a1\n  7053: a1 = a4 <u a2\n  7056: t2 = u64 [s1 + 0x188]\n  7060: t2 = t2 + a1\n  7063: a1 = u64 [s1 + 0x60]\n  7066: ra = a4 <u a1\n  7069: a2 = u64 [s1 + 0x58]\n  7072: a5 = t2 ^ a2\n  7075: a2 = t2 <u a2\n  7078: a2 = ra if a5 == 0\n  7081: a1 = a1 ^ a4\n  7084: a1 = a1 | a5\n  7087: a3 = a2 if a1 != 0\n  7090: a1 = u64 [s1 + 0x78]\n  7093: u8 [a0 + 0x1f] = a1\n  7096: a1 = u64 [s1 + 0x80]\n  7100: u8 [a0 + 0x1e] = a1\n  7103: a1 = u64 [s1 + 0x88]\n  7107: u8 [a0 + 0x1d] = a1\n  7110: a1 = u64 [s1 + 0x90]\n  7114: u8 [a0 + 0x1c] = a1\n  7117: a1 = u64 [s1 + 0x98]\n  7121: u8 [a0 + 0x1b] = a1\n  7124: a1 = u64 [s1 + 0xa0]\n  7128: u8 [a0 + 0x1a] = a1\n  7131: a1 = u64 [s1 + 0xa8]\n  7135: u8 [a0 + 0x19] = a1\n  7138: a1 = u64 [s1 + 0xb0]\n  7142: u8 [a0 + 0x18] = a1\n  7145: a1 = u64 [s1 + 0xb8]\n  7149: u8 [a0 + 0x17] = a1\n  7152: a1 = u64 [s1 + 0xc0]\n  7156: u8 [a0 + 0x16] = a1\n  7159: a1 = u64 [s1 + 0xc8]\n  7163: u8 [a0 + 0x15] = a1\n  7166: a1 = u64 [s1 + 0xd0]\n  7170: u8 [a0 + 0x14] = a1\n  7173: a1 = u64 [s1 + 0xd8]\n  7177: u8 [a0 + 0x13] = a1\n  7180: a1 = u64 [s1 + 0xe0]\n  7184: u8 [a0 + 0x12] = a1\n  7187: a1 = u64 [s1 + 0xe8]\n  7191: u8 [a0 + 0x11] = a1\n  7194: a1 = u64 [s1 + 0xf0]\n  7198: u8 [a0 + 0x10] = a1\n  7201: a1 = u64 [s1 + 0x100]\n  7205: u8 [a0 + 0xf] = a1\n  7208: a1 = u64 [s1 + 0x108]\n  7212: u8 [a0 + 0xe] = a1\n  7215: a1 = u64 [s1 + 0x118]\n  7219: u8 [a0 + 0xd] = a1\n  7222: a1 = u64 [s1 + 0x120]\n  7226: u8 [a0 + 0xc] = a1\n  7229: a1 = u64 [s1 + 0x128]\n  7233: u8 [a0 + 0xb] = a1\n  7236: a1 = u64 [s1 + 0x130]\n  7240: u8 [a0 + 0xa] = a1\n  7243: a1 = u64 [s1 + 0x138]\n  7247: u8 [a0 + 0x9] = a1\n  7250: a1 = u64 [s1 + 0x140]\n  7254: u8 [a0 + 0x8] = a1\n  7257: a1 = u64 [s1 + 0x148]\n  7261: u8 [a0 + 0x7] = a1\n  7264: a1 = u64 [s1 + 0x150]\n  7268: u8 [a0 + 0x6] = a1\n  7271: a1 = u64 [s1 + 0x158]\n  7275: u8 [a0 + 0x5] = a1\n  7278: a1 = u64 [s1 + 0x160]\n  7282: u8 [a0 + 0x4] = a1\n  7285: a1 = u64 [s1 + 0x168]\n  7289: u8 [a0 + 0x3] = a1\n  7292: a1 = u64 [s1 + 0x170]\n  7296: u8 [a0 + 0x2] = a1\n  7299: a1 = u64 [s1 + 0x178]\n  7303: u8 [a0 + 0x1] = a1\n  7306: a1 = u64 [s1 + 0x190]\n  7310: u8 [a0] = a1\n  7312: ra = t1\n  7314: t1 = u64 [s1 + 0xf8]\n  7318: a5 = u64 [s1 + 0x198]\n  7322: a2 = u64 [s1 + 0x110]\n  7326: jump @132 if a3 != 0\n      : @137 (gas: 3)\n  7330: a0 = 0x40\n  7333: a1 = 0x20\n  7336: ra = 68, jump @0\n      : @138 [@dyn 34] (gas: 100)\n  7341: a1 = u8 [a0 + 0x19]\n  7344: a2 = u8 [a0 + 0x18]\n  7347: a3 = u8 [a0 + 0x1a]\n  7350: a4 = u8 [a0 + 0x1b]\n  7353: a1 = a1 << 0x8\n  7356: a1 = a1 | a2\n  7359: a3 = a3 << 0x10\n  7362: a4 = a4 << 0x18\n  7365: a3 = a3 | a4\n  7368: a1 = a1 | a3\n  7371: a2 = u8 [a0 + 0x1d]\n  7374: a3 = u8 [a0 + 0x1c]\n  7377: a4 = u8 [a0 + 0x1e]\n  7380: a5 = u8 [a0 + 0x1f]\n  7383: a2 = a2 << 0x8\n  7386: a2 = a2 | a3\n  7389: a4 = a4 << 0x10\n  7392: a5 = a5 << 0x18\n  7395: a4 = a4 | a5\n  7398: a2 = a2 | a4\n  7401: a2 = a2 << 0x20\n  7404: t0 = a2 | a1\n  7407: a2 = u8 [a0 + 0x11]\n  7410: a3 = u8 [a0 + 0x10]\n  7413: a4 = u8 [a0 + 0x12]\n  7416: a5 = u8 [a0 + 0x13]\n  7419: a2 = a2 << 0x8\n  7422: a2 = a2 | a3\n  7425: a4 = a4 << 0x10\n  7428: a5 = a5 << 0x18\n  7431: a4 = a4 | a5\n  7434: a2 = a2 | a4\n  7437: a3 = u8 [a0 + 0x15]\n  7440: a4 = u8 [a0 + 0x14]\n  7443: a5 = u8 [a0 + 0x16]\n  7446: a1 = u8 [a0 + 0x17]\n  7449: a3 = a3 << 0x8\n  7452: a3 = a3 | a4\n  7455: a5 = a5 << 0x10\n  7458: a1 = a1 << 0x18\n  7461: a1 = a1 | a5\n  7464: a1 = a1 | a3\n  7467: a1 = a1 << 0x20\n  7470: t1 = a1 | a2\n  7473: a1 = u8 [a0 + 0x9]\n  7476: a3 = u8 [a0 + 0x8]\n  7479: a4 = u8 [a0 + 0xa]\n  7482: a5 = u8 [a0 + 0xb]\n  7485: a1 = a1 << 0x8\n  7488: a1 = a1 | a3\n  7491: a4 = a4 << 0x10\n  7494: a5 = a5 << 0x18\n  7497: a4 = a4 | a5\n  7500: a1 = a1 | a4\n  7503: a3 = u8 [a0 + 0xd]\n  7506: a4 = u8 [a0 + 0xc]\n  7509: a5 = u8 [a0 + 0xe]\n  7512: a2 = u8 [a0 + 0xf]\n  7515: a3 = a3 << 0x8\n  7518: a3 = a3 | a4\n  7521: a5 = a5 << 0x10\n  7524: a2 = a2 << 0x18\n  7527: a2 = a2 | a5\n  7530: a2 = a2 | a3\n  7533: a2 = a2 << 0x20\n  7536: a3 = a2 | a1\n  7539: a1 = u8 [a0 + 0x1]\n  7542: a2 = u8 [a0]\n  7544: a4 = u8 [a0 + 0x2]\n  7547: a5 = u8 [a0 + 0x3]\n  7550: a1 = a1 << 0x8\n  7553: a1 = a1 | a2\n  7556: a4 = a4 << 0x10\n  7559: a5 = a5 << 0x18\n  7562: a4 = a4 | a5\n  7565: a1 = a1 | a4\n  7568: a2 = u8 [a0 + 0x5]\n  7571: a4 = u8 [a0 + 0x4]\n  7574: a5 = u8 [a0 + 0x6]\n  7577: a0 = u8 [a0 + 0x7]\n  7580: a2 = a2 << 0x8\n  7583: a2 = a2 | a4\n  7586: a5 = a5 << 0x10\n  7589: a0 = a0 << 0x18\n  7592: a0 = a0 | a5\n  7595: a0 = a0 | a2\n  7598: a0 = a0 << 0x20\n  7601: a0 = a0 | a1\n  7604: a4 = reverse a0\n  7606: a5 = reverse a3\n  7608: a3 = reverse t1\n  7610: a2 = reverse t0\n  7612: a0 = a3 | a4\n  7615: a1 = a2 | a5\n  7618: a1 = a1 | a0\n  7621: a1 = a1 >> 0x20\n  7624: a0 = a0 | a5\n  7627: a0 = a0 << 0x20\n  7630: a0 = a0 | a1\n  7633: jump @174 if a0 != 0\n      : @139 (gas: 20)\n  7637: a0 = a2 + 0x20\n  7640: u64 [s1 + 0x1b0] = a0\n  7644: t0 = a0 <u a2\n  7647: a0 = a3 + t0\n  7650: u64 [s1 + 0x1b8] = a0\n  7654: a1 = a0 <u a3\n  7657: a1 = t0 if t0 == 0\n  7660: a1 = a1 + a5\n  7663: u64 [s1 + 0x1a0] = a1\n  7667: a0 = a1 <u a5\n  7670: a0 = a0 + a4\n  7673: u64 [s1 + 0x1a8] = a0\n  7677: i32 a0 = a2 + 0\n  7679: a1 = 0x20\n  7682: u64 [s1 + 0x10] = a0\n  7685: u64 [s1 + 0x50] = a2\n  7688: u64 [s1 + 0x20] = a3\n  7691: u64 [s1 + 0x18] = a4\n  7694: u64 [s1 + 0x58] = a5\n  7697: ra = 70, jump @0\n      : @140 [@dyn 35] (gas: 35)\n  7702: u8 [a0 + 31] = 0x20\n  7706: u8 [a0 + 30] = 0\n  7709: u8 [a0 + 29] = 0\n  7712: u8 [a0 + 28] = 0\n  7715: u8 [a0 + 27] = 0\n  7718: u8 [a0 + 26] = 0\n  7721: u8 [a0 + 25] = 0\n  7724: u8 [a0 + 24] = 0\n  7727: u8 [a0 + 23] = 0\n  7730: u8 [a0 + 22] = 0\n  7733: u8 [a0 + 21] = 0\n  7736: u8 [a0 + 20] = 0\n  7739: u8 [a0 + 19] = 0\n  7742: u8 [a0 + 18] = 0\n  7745: u8 [a0 + 17] = 0\n  7748: u8 [a0 + 16] = 0\n  7751: u8 [a0 + 15] = 0\n  7754: u8 [a0 + 14] = 0\n  7757: u8 [a0 + 13] = 0\n  7760: u8 [a0 + 12] = 0\n  7763: u8 [a0 + 11] = 0\n  7766: u8 [a0 + 10] = 0\n  7769: u8 [a0 + 9] = 0\n  7772: u8 [a0 + 8] = 0\n  7775: u8 [a0 + 7] = 0\n  7778: u8 [a0 + 6] = 0\n  7781: u8 [a0 + 5] = 0\n  7784: u8 [a0 + 4] = 0\n  7787: u8 [a0 + 3] = 0\n  7790: u8 [a0 + 2] = 0\n  7793: u8 [a0 + 1] = 0\n  7796: u8 [a0 + 0] = 0\n  7798: a1 = 0x20\n  7801: a0 = u64 [s1 + 0x28]\n  7804: ra = 72, jump @0\n      : @141 [@dyn 36] (gas: 12)\n  7809: t0 = u64 [s1 + 0x1b0]\n  7813: a3 = u64 [s1 + 0x1a0]\n  7817: a1 = t0 | a3\n  7820: a2 = u64 [s1 + 0x1b8]\n  7824: a4 = u64 [s1 + 0x1a8]\n  7828: a2 = a2 | a4\n  7831: a1 = a1 | a2\n  7834: a1 = a1 >> 0x20\n  7837: a2 = a2 | a3\n  7840: a2 = a2 << 0x20\n  7843: a1 = a1 | a2\n  7846: jump @174 if a1 != 0\n      : @142 (gas: 95)\n  7850: a1 = u8 [a0 + 0x19]\n  7853: a2 = u8 [a0 + 0x18]\n  7856: a3 = u8 [a0 + 0x1a]\n  7859: a4 = u8 [a0 + 0x1b]\n  7862: a1 = a1 << 0x8\n  7865: a1 = a1 | a2\n  7868: a3 = a3 << 0x10\n  7871: a4 = a4 << 0x18\n  7874: a3 = a3 | a4\n  7877: a1 = a1 | a3\n  7880: a2 = u8 [a0 + 0x1d]\n  7883: a3 = u8 [a0 + 0x1c]\n  7886: a4 = u8 [a0 + 0x1e]\n  7889: a5 = u8 [a0 + 0x1f]\n  7892: a2 = a2 << 0x8\n  7895: a2 = a2 | a3\n  7898: a4 = a4 << 0x10\n  7901: a5 = a5 << 0x18\n  7904: a4 = a4 | a5\n  7907: a2 = a2 | a4\n  7910: a2 = a2 << 0x20\n  7913: a1 = a1 | a2\n  7916: u64 [s1 + 0x190] = a1\n  7920: a1 = u8 [a0 + 0x11]\n  7923: a2 = u8 [a0 + 0x10]\n  7926: a3 = u8 [a0 + 0x12]\n  7929: a4 = u8 [a0 + 0x13]\n  7932: a1 = a1 << 0x8\n  7935: a1 = a1 | a2\n  7938: a3 = a3 << 0x10\n  7941: a4 = a4 << 0x18\n  7944: a3 = a3 | a4\n  7947: a1 = a1 | a3\n  7950: a2 = u8 [a0 + 0x15]\n  7953: a3 = u8 [a0 + 0x14]\n  7956: a4 = u8 [a0 + 0x16]\n  7959: a5 = u8 [a0 + 0x17]\n  7962: a2 = a2 << 0x8\n  7965: a2 = a2 | a3\n  7968: a4 = a4 << 0x10\n  7971: a5 = a5 << 0x18\n  7974: a4 = a4 | a5\n  7977: a2 = a2 | a4\n  7980: a2 = a2 << 0x20\n  7983: a1 = a1 | a2\n  7986: u64 [s1 + 0x198] = a1\n  7990: a1 = u8 [a0 + 0x9]\n  7993: a2 = u8 [a0 + 0x8]\n  7996: a3 = u8 [a0 + 0xa]\n  7999: a4 = u8 [a0 + 0xb]\n  8002: a1 = a1 << 0x8\n  8005: a1 = a1 | a2\n  8008: a3 = a3 << 0x10\n  8011: a4 = a4 << 0x18\n  8014: a3 = a3 | a4\n  8017: a1 = a1 | a3\n  8020: a2 = u8 [a0 + 0xd]\n  8023: a3 = u8 [a0 + 0xc]\n  8026: a4 = u8 [a0 + 0xe]\n  8029: a5 = u8 [a0 + 0xf]\n  8032: a2 = a2 << 0x8\n  8035: a2 = a2 | a3\n  8038: a4 = a4 << 0x10\n  8041: a5 = a5 << 0x18\n  8044: a4 = a4 | a5\n  8047: a2 = a2 | a4\n  8050: a2 = a2 << 0x20\n  8053: a1 = a1 | a2\n  8056: u64 [s1 + 0x188] = a1\n  8060: a1 = u8 [a0 + 0x1]\n  8063: a2 = u8 [a0]\n  8065: a3 = u8 [a0 + 0x2]\n  8068: a4 = u8 [a0 + 0x3]\n  8071: a1 = a1 << 0x8\n  8074: a1 = a1 | a2\n  8077: a3 = a3 << 0x10\n  8080: a4 = a4 << 0x18\n  8083: a3 = a3 | a4\n  8086: a1 = a1 | a3\n  8089: a2 = u8 [a0 + 0x5]\n  8092: a3 = u8 [a0 + 0x4]\n  8095: a4 = u8 [a0 + 0x6]\n  8098: a0 = u8 [a0 + 0x7]\n  8101: a2 = a2 << 0x8\n  8104: a2 = a2 | a3\n  8107: a4 = a4 << 0x10\n  8110: a0 = a0 << 0x18\n  8113: a0 = a0 | a4\n  8116: a0 = a0 | a2\n  8119: a0 = a0 << 0x20\n  8122: a0 = a0 | a1\n  8125: u64 [s1 + 0x180] = a0\n  8129: i32 a0 = t0 + 0\n  8131: a1 = 0x20\n  8134: ra = 74, jump @0\n      : @143 [@dyn 37] (gas: 84)\n  8139: t2 = u64 [s1 + 0x190]\n  8143: t0 = u64 [s1 + 0x198]\n  8147: u8 [a0 + 0x10] = t0\n  8150: a2 = u64 [s1 + 0x188]\n  8154: a1 = a2 >> 0x38\n  8157: u8 [a0 + 0xf] = a1\n  8160: a1 = a2 >> 0x30\n  8163: u8 [a0 + 0xe] = a1\n  8166: a1 = a2 >> 0x28\n  8169: u8 [a0 + 0xd] = a1\n  8172: a1 = a2 >> 0x20\n  8175: u8 [a0 + 0xc] = a1\n  8178: a1 = a2 >> 0x18\n  8181: u8 [a0 + 0xb] = a1\n  8184: a1 = a2 >> 0x10\n  8187: u8 [a0 + 0xa] = a1\n  8190: a1 = a2 >> 0x8\n  8193: u8 [a0 + 0x9] = a1\n  8196: u8 [a0 + 0x8] = a2\n  8199: a4 = a2\n  8201: ra = u64 [s1 + 0x180]\n  8205: a1 = ra >> 0x38\n  8208: u8 [a0 + 0x7] = a1\n  8211: a1 = ra >> 0x30\n  8214: u8 [a0 + 0x6] = a1\n  8217: a1 = ra >> 0x28\n  8220: u8 [a0 + 0x5] = a1\n  8223: a1 = ra >> 0x20\n  8226: u8 [a0 + 0x4] = a1\n  8229: a1 = ra >> 0x18\n  8232: u8 [a0 + 0x3] = a1\n  8235: a1 = ra >> 0x10\n  8238: u8 [a0 + 0x2] = a1\n  8241: a1 = ra >> 0x8\n  8244: u8 [a0 + 0x1] = a1\n  8247: u8 [a0] = ra\n  8249: u8 [a0 + 0x18] = t2\n  8252: a1 = t0 >> 0x38\n  8255: u8 [a0 + 0x17] = a1\n  8258: a1 = t0 >> 0x30\n  8261: u8 [a0 + 0x16] = a1\n  8264: a1 = t0 >> 0x28\n  8267: u8 [a0 + 0x15] = a1\n  8270: a1 = t0 >> 0x20\n  8273: u8 [a0 + 0x14] = a1\n  8276: a1 = t0 >> 0x18\n  8279: u8 [a0 + 0x13] = a1\n  8282: a1 = t0 >> 0x10\n  8285: u8 [a0 + 0x12] = a1\n  8288: a1 = t0 >> 0x8\n  8291: u8 [a0 + 0x11] = a1\n  8294: a1 = t2 >> 0x38\n  8297: u8 [a0 + 0x1f] = a1\n  8300: a1 = t2 >> 0x30\n  8303: u8 [a0 + 0x1e] = a1\n  8306: a1 = t2 >> 0x28\n  8309: u8 [a0 + 0x1d] = a1\n  8312: a1 = t2 >> 0x20\n  8315: u8 [a0 + 0x1c] = a1\n  8318: a1 = t2 >> 0x18\n  8321: u8 [a0 + 0x1b] = a1\n  8324: a1 = t2 >> 0x10\n  8327: u8 [a0 + 0x1a] = a1\n  8330: a1 = t2 >> 0x8\n  8333: u8 [a0 + 0x19] = a1\n  8336: a1 = u64 [s1 + 0x50]\n  8339: a0 = a1 + 0x40\n  8342: u64 [s1 + 0x1b0] = a0\n  8346: a0 = a0 <u a1\n  8349: a2 = u64 [s1 + 0x20]\n  8352: a1 = a2 + a0\n  8355: u64 [s1 + 0x1a8] = a1\n  8359: a1 = a1 <u a2\n  8362: a1 = a0 if a0 == 0\n  8365: a5 = u64 [s1 + 0x58]\n  8368: a3 = a5 + a1\n  8371: a0 = ra | t0\n  8374: a1 = a4 | t2\n  8377: a0 = a0 | a1\n  8380: a1 = a3 <u a5\n  8383: a5 = u64 [s1 + 0x18]\n  8386: a1 = a1 + a5\n  8389: u64 [s1 + 0x1a0] = a1\n  8393: jump @145 if a0 == 0\n      : @144 (gas: 1)\n  8396: jump @263\n      : @145 (gas: 3)\n  8399: t1 = u64 [s1 + 0x1b0]\n  8403: a2 = u64 [s1 + 0x1a8]\n  8407: jump @271\n      : @146 (gas: 11)\n  8410: a0 = sp + 0xffffffffffffffe0\n  8413: a0 = a0 & 0xffffffffffffffe0\n  8416: u64 [s1 + 0x1b0] = a0\n  8420: sp = a0\n  8422: u64 [a0 + 24] = 0\n  8425: u64 [a0 + 16] = 0\n  8428: u64 [a0 + 8] = 0\n  8431: u64 [a0 + 0] = 0\n  8433: i32 a0 = a0 + 0\n  8435: ecalli 12 // 'value_transferred'\n  8437: fallthrough\n      : @147 (gas: 9)\n  8438: a3 = u64 [s1 + 0x1b0]\n  8442: a0 = u64 [a3 + 0x10]\n  8445: a1 = u64 [a3 + 0x18]\n  8448: a2 = u64 [a3 + 0x8]\n  8451: a3 = u64 [a3]\n  8453: a1 = a1 | a2\n  8456: a0 = a0 | a3\n  8459: a0 = a0 | a1\n  8462: jump @149 if a0 == 0\n      : @148 (gas: 1)\n  8465: jump @275\n      : @149 (gas: 3)\n  8468: a0 = u64 [s1 + 0x1b8]\n  8472: a0 = i32 [a0]\n  8474: jump @151 if a0 >u 35\n      : @150 (gas: 1)\n  8478: jump @275\n      : @151 (gas: 24)\n  8481: u64 [s1 + 1816] = 0\n  8485: u64 [s1 + 1808] = 0\n  8489: u64 [s1 + 1800] = 0\n  8493: u64 [s1 + 1792] = 0\n  8497: u64 [s1 + 1848] = 0\n  8501: u64 [s1 + 1840] = 0\n  8505: u64 [s1 + 1832] = 0\n  8509: u64 [s1 + 1824] = 0\n  8513: u32 [s1 + 1856] = 0x20\n  8518: i32 a1 = s1 + 0x700\n  8522: i32 a3 = s1 + 0x720\n  8526: i32 a4 = s1 + 0x740\n  8530: a2 = 0xffffffffffffffff\n  8533: a0 = 0\n  8535: ecalli 5 // 'get_storage'\n  8537: a0 = u64 [s1 + 0x720]\n  8541: u64 [s1 + 0x1b8] = a0\n  8545: a0 = u64 [s1 + 0x730]\n  8549: u64 [s1 + 0x1b0] = a0\n  8553: a0 = u64 [s1 + 0x728]\n  8557: u64 [s1 + 0x1a8] = a0\n  8561: a0 = 0x80\n  8565: a1 = 0x20\n  8568: ra = 76, jump @0\n      : @152 [@dyn 38] (gas: 46)\n  8573: u8 [a0 + 31] = 0\n  8576: u8 [a0 + 30] = 0\n  8579: u8 [a0 + 29] = 0\n  8582: u8 [a0 + 28] = 0\n  8585: u8 [a0 + 27] = 0\n  8588: u8 [a0 + 26] = 0\n  8591: u8 [a0 + 25] = 0\n  8594: u8 [a0 + 24] = 0\n  8597: u8 [a0 + 23] = 0\n  8600: u8 [a0 + 22] = 0\n  8603: u8 [a0 + 21] = 0\n  8606: u8 [a0 + 20] = 0\n  8609: u8 [a0 + 19] = 0\n  8612: u8 [a0 + 18] = 0\n  8615: u8 [a0 + 17] = 0\n  8618: u8 [a0 + 16] = 0\n  8621: u8 [a0 + 15] = 0\n  8624: u8 [a0 + 14] = 0\n  8627: u8 [a0 + 13] = 0\n  8630: u8 [a0 + 12] = 0\n  8633: u8 [a0 + 11] = 0\n  8636: u8 [a0 + 10] = 0\n  8639: u8 [a0 + 9] = 0\n  8642: u8 [a0 + 8] = 0\n  8645: u8 [a0 + 7] = 0\n  8648: u8 [a0 + 6] = 0\n  8651: u8 [a0 + 5] = 0\n  8654: u8 [a0 + 4] = 0\n  8657: u8 [a0 + 3] = 0x1e\n  8661: u8 [a0 + 2] = 0x21\n  8665: u8 [a0 + 1] = 0x52\n  8669: u8 [a0 + 0] = 0x63\n  8672: i32 a0 = s1 + 0x3e0\n  8676: a1 = 0x4\n  8679: ecalli 2 // 'call_data_load'\n  8681: a0 = u64 [s1 + 0x3e0]\n  8685: u64 [s1 + 0x1a0] = a0\n  8689: a0 = u64 [s1 + 0x3e8]\n  8693: u64 [s1 + 0x198] = a0\n  8697: a0 = u64 [s1 + 0x3f0]\n  8701: u64 [s1 + 0x190] = a0\n  8705: a0 = u64 [s1 + 0x3f8]\n  8709: u64 [s1 + 0x188] = a0\n  8713: a0 = 0x84\n  8717: a1 = 0x20\n  8720: ra = 78, jump @0\n      : @153 [@dyn 39] (gas: 92)\n  8725: a1 = u64 [s1 + 0x188]\n  8729: a1 = reverse a1\n  8731: a2 = u64 [s1 + 0x190]\n  8735: a2 = reverse a2\n  8737: a3 = u64 [s1 + 0x198]\n  8741: a3 = reverse a3\n  8743: a4 = u64 [s1 + 0x1a0]\n  8747: a4 = reverse a4\n  8749: a5 = a4 >> 0x38\n  8752: u8 [a0 + 0x1f] = a5\n  8755: a5 = a4 >> 0x30\n  8758: u8 [a0 + 0x1e] = a5\n  8761: a5 = a4 >> 0x28\n  8764: u8 [a0 + 0x1d] = a5\n  8767: a5 = a4 >> 0x20\n  8770: u8 [a0 + 0x1c] = a5\n  8773: a5 = a4 >> 0x18\n  8776: u8 [a0 + 0x1b] = a5\n  8779: a5 = a4 >> 0x10\n  8782: u8 [a0 + 0x1a] = a5\n  8785: a5 = a4 >> 0x8\n  8788: u8 [a0 + 0x19] = a5\n  8791: u8 [a0 + 0x18] = a4\n  8794: a4 = a3 >> 0x38\n  8797: u8 [a0 + 0x17] = a4\n  8800: a4 = a3 >> 0x30\n  8803: u8 [a0 + 0x16] = a4\n  8806: a4 = a3 >> 0x28\n  8809: u8 [a0 + 0x15] = a4\n  8812: a4 = a3 >> 0x20\n  8815: u8 [a0 + 0x14] = a4\n  8818: a4 = a3 >> 0x18\n  8821: u8 [a0 + 0x13] = a4\n  8824: a4 = a3 >> 0x10\n  8827: u8 [a0 + 0x12] = a4\n  8830: a4 = a3 >> 0x8\n  8833: u8 [a0 + 0x11] = a4\n  8836: u8 [a0 + 0x10] = a3\n  8839: a3 = a2 >> 0x38\n  8842: u8 [a0 + 0xf] = a3\n  8845: a3 = a2 >> 0x30\n  8848: u8 [a0 + 0xe] = a3\n  8851: a3 = a2 >> 0x28\n  8854: u8 [a0 + 0xd] = a3\n  8857: a3 = a2 >> 0x20\n  8860: u8 [a0 + 0xc] = a3\n  8863: a3 = a2 >> 0x18\n  8866: u8 [a0 + 0xb] = a3\n  8869: a3 = a2 >> 0x10\n  8872: u8 [a0 + 0xa] = a3\n  8875: a3 = a2 >> 0x8\n  8878: u8 [a0 + 0x9] = a3\n  8881: u8 [a0 + 0x8] = a2\n  8884: a2 = a1 >> 0x38\n  8887: u8 [a0 + 0x7] = a2\n  8890: a2 = a1 >> 0x30\n  8893: u8 [a0 + 0x6] = a2\n  8896: a2 = a1 >> 0x28\n  8899: u8 [a0 + 0x5] = a2\n  8902: a2 = a1 >> 0x20\n  8905: u8 [a0 + 0x4] = a2\n  8908: a2 = a1 >> 0x18\n  8911: u8 [a0 + 0x3] = a2\n  8914: a2 = a1 >> 0x10\n  8917: u8 [a0 + 0x2] = a2\n  8920: a2 = a1 >> 0x8\n  8923: u8 [a0 + 0x1] = a2\n  8926: u8 [a0] = a1\n  8928: ecalli 6 // 'ref_time_left'\n  8930: a0 = u64 [s1 + 0x1a8]\n  8934: a0 = reverse a0\n  8936: a1 = a0 << 0x20\n  8939: a2 = u64 [s1 + 0x1b0]\n  8943: a2 = reverse a2\n  8945: a2 = a2 >> 0x20\n  8948: a1 = a1 | a2\n  8951: a0 = a0 >> 0x20\n  8954: a2 = u64 [s1 + 0x1b8]\n  8958: a2 = reverse a2\n  8960: a3 = a2 << 0x20\n  8963: a0 = a0 | a3\n  8966: a2 = a2 >> 0x20\n  8969: u64 [s1 + 0x408] = a0\n  8973: u64 [s1 + 0x400] = a1\n  8977: u32 [s1 + 0x410] = a2\n  8981: u64 [s1 + 1080] = 0\n  8985: u64 [s1 + 1072] = 0\n  8989: u64 [s1 + 1064] = 0\n  8993: u64 [s1 + 1056] = 0\n  8997: a0 = 0x80\n  9001: a1 = 0x24\n  9004: ra = 80, jump @0\n      : @154 [@dyn 40] (gas: 4)\n  9009: u64 [s1 + 0x1b8] = a0\n  9013: a0 = 0x80\n  9017: a1 = 0x20\n  9020: ra = 82, jump @0\n      : @155 [@dyn 41] (gas: 31)\n  9025: u32 [s1 + 1088] = 0x20\n  9030: u64 [s1 + 1144] = 0\n  9034: u64 [s1 + 1136] = 0\n  9038: u64 [s1 + 1128] = 0\n  9042: u64 [s1 + 1120] = 0\n  9046: a1 = s1 + 0x400\n  9050: a1 = a1 << 0x20\n  9053: a1 = a1 >> 0x20\n  9056: a2 = 0x1800000000\n  9066: t0 = a1 | a2\n  9069: a1 = s1 + 0x420\n  9073: a1 = a1 << 0x20\n  9076: a1 = a1 >> 0x20\n  9079: a2 = s1 + 0x460\n  9083: a2 = a2 << 0x20\n  9086: a3 = a2 | a1\n  9089: a1 = u64 [s1 + 0x1b8]\n  9093: a1 = a1 << 0x20\n  9096: a1 = a1 >> 0x20\n  9099: a2 = 0x2400000000\n  9109: a4 = a1 | a2\n  9112: a0 = a0 << 0x20\n  9115: a0 = a0 >> 0x20\n  9118: a1 = s1 + 0x440\n  9122: a1 = a1 << 0x20\n  9125: a5 = a1 | a0\n  9128: a1 = 0xffffffffffffffff\n  9131: a2 = 0xffffffffffffffff\n  9134: a0 = t0\n  9136: ecalli 0 // 'call'\n  9137: fallthrough\n      : @156 (gas: 1)\n  9138: jump @197 if a0 != 0\n      : @157 (gas: 2)\n  9142: ecalli 8 // 'return_data_size'\n  9144: fallthrough\n      : @158 (gas: 2)\n  9145: a2 = 0x20\n  9148: jump @219 if a0 >=u a2\n      : @159 (gas: 2)\n  9152: ecalli 8 // 'return_data_size'\n  9154: fallthrough\n      : @160 (gas: 7)\n  9155: a1 = a0 + 0x1f\n  9158: a3 = a0\n  9160: a0 = a1 <u a0\n  9163: a2 = a1 & 0xffffffffffffffe0\n  9166: a1 = a2 <u 0xffffffffffffff80\n  9169: a1 = 0 if a0 != 0\n  9171: jump @162 if a1 != 0\n      : @161 (gas: 1)\n  9174: jump @281\n      : @162 (gas: 3)\n  9177: a4 = 0\n  9179: u64 [s1 + 0x1b8] = a3\n  9183: jump @220\n      : @163 (gas: 1)\n  9186: jump @165 if a0 == 3187165927\n      : @164 (gas: 1)\n  9193: jump @275\n      : @165 (gas: 11)\n  9196: a0 = sp + 0xffffffffffffffe0\n  9199: a0 = a0 & 0xffffffffffffffe0\n  9202: u64 [s1 + 0x1b0] = a0\n  9206: sp = a0\n  9208: u64 [a0 + 24] = 0\n  9211: u64 [a0 + 16] = 0\n  9214: u64 [a0 + 8] = 0\n  9217: u64 [a0 + 0] = 0\n  9219: i32 a0 = a0 + 0\n  9221: ecalli 12 // 'value_transferred'\n  9223: fallthrough\n      : @166 (gas: 9)\n  9224: a3 = u64 [s1 + 0x1b0]\n  9228: a0 = u64 [a3 + 0x10]\n  9231: a1 = u64 [a3 + 0x18]\n  9234: a2 = u64 [a3 + 0x8]\n  9237: a3 = u64 [a3]\n  9239: a1 = a1 | a2\n  9242: a0 = a0 | a3\n  9245: a0 = a0 | a1\n  9248: jump @168 if a0 == 0\n      : @167 (gas: 1)\n  9251: jump @275\n      : @168 (gas: 3)\n  9254: a0 = u64 [s1 + 0x1b8]\n  9258: a0 = i32 [a0]\n  9260: jump @170 if a0 >u 3\n      : @169 (gas: 1)\n  9264: jump @275\n      : @170 (gas: 5)\n  9267: u64 [s1 + 1816] = 0\n  9271: u64 [s1 + 1808] = 0\n  9275: u64 [s1 + 1800] = 0\n  9279: u64 [s1 + 1792] = 0x1\n  9284: fallthrough\n      : @171 (gas: 20)\n  9285: u64 [s1 + 1848] = 0\n  9289: u64 [s1 + 1840] = 0\n  9293: u64 [s1 + 1832] = 0\n  9297: u64 [s1 + 1824] = 0\n  9301: u32 [s1 + 1856] = 0x20\n  9306: i32 a1 = s1 + 0x700\n  9310: i32 a3 = s1 + 0x720\n  9314: i32 a4 = s1 + 0x740\n  9318: a2 = 0xffffffffffffffff\n  9321: a0 = 0\n  9323: ecalli 5 // 'get_storage'\n  9325: a0 = u64 [s1 + 0x730]\n  9329: u64 [s1 + 0x1a8] = a0\n  9333: a0 = u64 [s1 + 0x728]\n  9337: u64 [s1 + 0x1b0] = a0\n  9341: a0 = u64 [s1 + 0x720]\n  9345: u64 [s1 + 0x1b8] = a0\n  9349: a0 = 0x40\n  9352: a1 = 0x20\n  9355: ra = 84, jump @0\n      : @172 [@dyn 42] (gas: 100)\n  9360: a1 = u8 [a0 + 0x11]\n  9363: a2 = u8 [a0 + 0x10]\n  9366: a3 = u8 [a0 + 0x12]\n  9369: a4 = u8 [a0 + 0x13]\n  9372: a1 = a1 << 0x8\n  9375: a1 = a1 | a2\n  9378: a3 = a3 << 0x10\n  9381: a4 = a4 << 0x18\n  9384: a3 = a3 | a4\n  9387: a1 = a1 | a3\n  9390: a2 = u8 [a0 + 0x15]\n  9393: a3 = u8 [a0 + 0x14]\n  9396: a4 = u8 [a0 + 0x16]\n  9399: a5 = u8 [a0 + 0x17]\n  9402: a2 = a2 << 0x8\n  9405: a2 = a2 | a3\n  9408: a4 = a4 << 0x10\n  9411: a5 = a5 << 0x18\n  9414: a4 = a4 | a5\n  9417: a2 = a2 | a4\n  9420: a2 = a2 << 0x20\n  9423: t0 = a2 | a1\n  9426: a2 = u8 [a0 + 0x1]\n  9429: a3 = u8 [a0]\n  9431: a4 = u8 [a0 + 0x2]\n  9434: a5 = u8 [a0 + 0x3]\n  9437: a2 = a2 << 0x8\n  9440: a2 = a2 | a3\n  9443: a4 = a4 << 0x10\n  9446: a5 = a5 << 0x18\n  9449: a4 = a4 | a5\n  9452: a2 = a2 | a4\n  9455: a3 = u8 [a0 + 0x5]\n  9458: a4 = u8 [a0 + 0x4]\n  9461: a5 = u8 [a0 + 0x6]\n  9464: a1 = u8 [a0 + 0x7]\n  9467: a3 = a3 << 0x8\n  9470: a3 = a3 | a4\n  9473: a5 = a5 << 0x10\n  9476: a1 = a1 << 0x18\n  9479: a1 = a1 | a5\n  9482: a1 = a1 | a3\n  9485: a1 = a1 << 0x20\n  9488: t1 = a1 | a2\n  9491: a1 = u8 [a0 + 0x19]\n  9494: a3 = u8 [a0 + 0x18]\n  9497: a4 = u8 [a0 + 0x1a]\n  9500: a5 = u8 [a0 + 0x1b]\n  9503: a1 = a1 << 0x8\n  9506: a1 = a1 | a3\n  9509: a4 = a4 << 0x10\n  9512: a5 = a5 << 0x18\n  9515: a4 = a4 | a5\n  9518: a1 = a1 | a4\n  9521: a3 = u8 [a0 + 0x1d]\n  9524: a4 = u8 [a0 + 0x1c]\n  9527: a5 = u8 [a0 + 0x1e]\n  9530: a2 = u8 [a0 + 0x1f]\n  9533: a3 = a3 << 0x8\n  9536: a3 = a3 | a4\n  9539: a5 = a5 << 0x10\n  9542: a2 = a2 << 0x18\n  9545: a2 = a2 | a5\n  9548: a2 = a2 | a3\n  9551: a2 = a2 << 0x20\n  9554: a3 = a2 | a1\n  9557: a1 = u8 [a0 + 0x9]\n  9560: a2 = u8 [a0 + 0x8]\n  9563: a4 = u8 [a0 + 0xa]\n  9566: a5 = u8 [a0 + 0xb]\n  9569: a1 = a1 << 0x8\n  9572: a1 = a1 | a2\n  9575: a4 = a4 << 0x10\n  9578: a5 = a5 << 0x18\n  9581: a4 = a4 | a5\n  9584: a1 = a1 | a4\n  9587: a2 = u8 [a0 + 0xd]\n  9590: a4 = u8 [a0 + 0xc]\n  9593: a5 = u8 [a0 + 0xe]\n  9596: a0 = u8 [a0 + 0xf]\n  9599: a2 = a2 << 0x8\n  9602: a2 = a2 | a4\n  9605: a5 = a5 << 0x10\n  9608: a0 = a0 << 0x18\n  9611: a0 = a0 | a5\n  9614: a0 = a0 | a2\n  9617: a0 = a0 << 0x20\n  9620: a0 = a0 | a1\n  9623: a1 = reverse a0\n  9625: a0 = reverse a3\n  9627: a2 = reverse t1\n  9629: a3 = reverse t0\n  9631: a2 = a2 | a3\n  9634: a3 = a0 | a1\n  9637: a3 = a3 | a2\n  9640: a3 = a3 >> 0x20\n  9643: a1 = a1 | a2\n  9646: a1 = a1 << 0x20\n  9649: a1 = a1 | a3\n  9652: jump @174 if a1 != 0\n      : @173 (gas: 1)\n  9655: jump @277\n      : @174 (gas: 1)\n  9658: trap\n      : @175 (gas: 1)\n  9659: jump @177 if a0 == 1222430038\n      : @176 (gas: 1)\n  9666: jump @275\n      : @177 (gas: 11)\n  9669: a0 = sp + 0xffffffffffffffe0\n  9672: a0 = a0 & 0xffffffffffffffe0\n  9675: u64 [s1 + 0x1b0] = a0\n  9679: sp = a0\n  9681: u64 [a0 + 24] = 0\n  9684: u64 [a0 + 16] = 0\n  9687: u64 [a0 + 8] = 0\n  9690: u64 [a0 + 0] = 0\n  9692: i32 a0 = a0 + 0\n  9694: ecalli 12 // 'value_transferred'\n  9696: fallthrough\n      : @178 (gas: 9)\n  9697: a3 = u64 [s1 + 0x1b0]\n  9701: a0 = u64 [a3 + 0x10]\n  9704: a1 = u64 [a3 + 0x18]\n  9707: a2 = u64 [a3 + 0x8]\n  9710: a3 = u64 [a3]\n  9712: a1 = a1 | a2\n  9715: a0 = a0 | a3\n  9718: a0 = a0 | a1\n  9721: jump @180 if a0 == 0\n      : @179 (gas: 1)\n  9724: jump @275\n      : @180 (gas: 3)\n  9727: a0 = u64 [s1 + 0x1b8]\n  9731: a0 = i32 [a0]\n  9733: jump @182 if a0 >u 35\n      : @181 (gas: 1)\n  9737: jump @275\n      : @182 (gas: 24)\n  9740: u64 [s1 + 1816] = 0\n  9744: u64 [s1 + 1808] = 0\n  9748: u64 [s1 + 1800] = 0\n  9752: u64 [s1 + 1792] = 0\n  9756: u64 [s1 + 1848] = 0\n  9760: u64 [s1 + 1840] = 0\n  9764: u64 [s1 + 1832] = 0\n  9768: u64 [s1 + 1824] = 0\n  9772: u32 [s1 + 1856] = 0x20\n  9777: i32 a1 = s1 + 0x700\n  9781: i32 a3 = s1 + 0x720\n  9785: i32 a4 = s1 + 0x740\n  9789: a2 = 0xffffffffffffffff\n  9792: a0 = 0\n  9794: ecalli 5 // 'get_storage'\n  9796: a0 = u64 [s1 + 0x730]\n  9800: u64 [s1 + 0x1a8] = a0\n  9804: a0 = u64 [s1 + 0x728]\n  9808: u64 [s1 + 0x1a0] = a0\n  9812: a0 = u64 [s1 + 0x720]\n  9816: u64 [s1 + 0x1b0] = a0\n  9820: a0 = 0x40\n  9823: a1 = 0x20\n  9826: ra = 86, jump @0\n      : @183 [@dyn 43] (gas: 100)\n  9831: a1 = u8 [a0 + 0x11]\n  9834: a2 = u8 [a0 + 0x10]\n  9837: a3 = u8 [a0 + 0x12]\n  9840: a4 = u8 [a0 + 0x13]\n  9843: a1 = a1 << 0x8\n  9846: a1 = a1 | a2\n  9849: a3 = a3 << 0x10\n  9852: a4 = a4 << 0x18\n  9855: a3 = a3 | a4\n  9858: a1 = a1 | a3\n  9861: a2 = u8 [a0 + 0x15]\n  9864: a3 = u8 [a0 + 0x14]\n  9867: a4 = u8 [a0 + 0x16]\n  9870: a5 = u8 [a0 + 0x17]\n  9873: a2 = a2 << 0x8\n  9876: a2 = a2 | a3\n  9879: a4 = a4 << 0x10\n  9882: a5 = a5 << 0x18\n  9885: a4 = a4 | a5\n  9888: a2 = a2 | a4\n  9891: a2 = a2 << 0x20\n  9894: t0 = a2 | a1\n  9897: a2 = u8 [a0 + 0x1]\n  9900: a3 = u8 [a0]\n  9902: a4 = u8 [a0 + 0x2]\n  9905: a5 = u8 [a0 + 0x3]\n  9908: a2 = a2 << 0x8\n  9911: a2 = a2 | a3\n  9914: a4 = a4 << 0x10\n  9917: a5 = a5 << 0x18\n  9920: a4 = a4 | a5\n  9923: a2 = a2 | a4\n  9926: a3 = u8 [a0 + 0x5]\n  9929: a4 = u8 [a0 + 0x4]\n  9932: a5 = u8 [a0 + 0x6]\n  9935: a1 = u8 [a0 + 0x7]\n  9938: a3 = a3 << 0x8\n  9941: a3 = a3 | a4\n  9944: a5 = a5 << 0x10\n  9947: a1 = a1 << 0x18\n  9950: a1 = a1 | a5\n  9953: a1 = a1 | a3\n  9956: a1 = a1 << 0x20\n  9959: t1 = a1 | a2\n  9962: a1 = u8 [a0 + 0x19]\n  9965: a3 = u8 [a0 + 0x18]\n  9968: a4 = u8 [a0 + 0x1a]\n  9971: a5 = u8 [a0 + 0x1b]\n  9974: a1 = a1 << 0x8\n  9977: a1 = a1 | a3\n  9980: a4 = a4 << 0x10\n  9983: a5 = a5 << 0x18\n  9986: a4 = a4 | a5\n  9989: a1 = a1 | a4\n  9992: a3 = u8 [a0 + 0x1d]\n  9995: a4 = u8 [a0 + 0x1c]\n  9998: a5 = u8 [a0 + 0x1e]\n 10001: a2 = u8 [a0 + 0x1f]\n 10004: a3 = a3 << 0x8\n 10007: a3 = a3 | a4\n 10010: a5 = a5 << 0x10\n 10013: a2 = a2 << 0x18\n 10016: a2 = a2 | a5\n 10019: a2 = a2 | a3\n 10022: a2 = a2 << 0x20\n 10025: a3 = a2 | a1\n 10028: a1 = u8 [a0 + 0x9]\n 10031: a2 = u8 [a0 + 0x8]\n 10034: a4 = u8 [a0 + 0xa]\n 10037: a5 = u8 [a0 + 0xb]\n 10040: a1 = a1 << 0x8\n 10043: a1 = a1 | a2\n 10046: a4 = a4 << 0x10\n 10049: a5 = a5 << 0x18\n 10052: a4 = a4 | a5\n 10055: a1 = a1 | a4\n 10058: a2 = u8 [a0 + 0xd]\n 10061: a4 = u8 [a0 + 0xc]\n 10064: a5 = u8 [a0 + 0xe]\n 10067: a0 = u8 [a0 + 0xf]\n 10070: a2 = a2 << 0x8\n 10073: a2 = a2 | a4\n 10076: a5 = a5 << 0x10\n 10079: a0 = a0 << 0x18\n 10082: a0 = a0 | a5\n 10085: a0 = a0 | a2\n 10088: a0 = a0 << 0x20\n 10091: a0 = a0 | a1\n 10094: a4 = reverse a0\n 10096: a3 = reverse a3\n 10098: a2 = reverse t1\n 10100: a5 = reverse t0\n 10102: a0 = a5 | a2\n 10105: a1 = a3 | a4\n 10108: a1 = a1 | a0\n 10111: a1 = a1 >> 0x20\n 10114: a0 = a0 | a4\n 10117: a0 = a0 << 0x20\n 10120: a0 = a0 | a1\n 10123: jump @174 if a0 != 0\n      : @184 (gas: 8)\n 10127: i32 a0 = a3 + 0\n 10129: a1 = 0x20\n 10132: u64 [s1 + 0x1b8] = a0\n 10136: u64 [s1 + 0x198] = a2\n 10140: u64 [s1 + 0x190] = a4\n 10144: u64 [s1 + 0x188] = a3\n 10148: u64 [s1 + 0x180] = a5\n 10152: ra = 88, jump @0\n      : @185 [@dyn 44] (gas: 36)\n 10157: u8 [a0 + 31] = 0\n 10160: u8 [a0 + 30] = 0\n 10163: u8 [a0 + 29] = 0\n 10166: u8 [a0 + 28] = 0\n 10169: u8 [a0 + 27] = 0\n 10172: u8 [a0 + 26] = 0\n 10175: u8 [a0 + 25] = 0\n 10178: u8 [a0 + 24] = 0\n 10181: u8 [a0 + 23] = 0\n 10184: u8 [a0 + 22] = 0\n 10187: u8 [a0 + 21] = 0\n 10190: u8 [a0 + 20] = 0\n 10193: u8 [a0 + 19] = 0\n 10196: u8 [a0 + 18] = 0\n 10199: u8 [a0 + 17] = 0\n 10202: u8 [a0 + 16] = 0\n 10205: u8 [a0 + 15] = 0\n 10208: u8 [a0 + 14] = 0\n 10211: u8 [a0 + 13] = 0\n 10214: u8 [a0 + 12] = 0\n 10217: u8 [a0 + 11] = 0\n 10220: u8 [a0 + 10] = 0\n 10223: u8 [a0 + 9] = 0\n 10226: u8 [a0 + 8] = 0\n 10229: u8 [a0 + 7] = 0\n 10232: u8 [a0 + 6] = 0\n 10235: u8 [a0 + 5] = 0\n 10238: u8 [a0 + 4] = 0\n 10241: u8 [a0 + 3] = 0xda\n 10246: u8 [a0 + 2] = 0xc0\n 10251: u8 [a0 + 1] = 0xa6\n 10256: u8 [a0 + 0] = 0xea\n 10260: i32 a0 = s1 + 0x4a0\n 10264: a1 = 0x4\n 10267: ecalli 2 // 'call_data_load'\n 10269: fallthrough\n      : @186 (gas: 10)\n 10270: a0 = u64 [s1 + 0x198]\n 10274: a1 = u64 [s1 + 0x190]\n 10278: a0 = a0 | a1\n 10281: a1 = 0xfffffffc\n 10291: a2 = u64 [s1 + 0x188]\n 10295: a1 = a2 <u a1\n 10298: a2 = u64 [s1 + 0x180]\n 10302: a1 = 0 if a2 != 0\n 10304: a1 = 0 if a0 != 0\n 10306: jump @174 if a1 == 0\n      : @187 (gas: 12)\n 10310: a0 = u64 [s1 + 0x4a0]\n 10314: u64 [s1 + 0x178] = a0\n 10318: a0 = u64 [s1 + 0x4a8]\n 10322: u64 [s1 + 0x170] = a0\n 10326: a0 = u64 [s1 + 0x4b0]\n 10330: u64 [s1 + 0x168] = a0\n 10334: a0 = u64 [s1 + 0x4b8]\n 10338: u64 [s1 + 0x160] = a0\n 10342: a0 = u64 [s1 + 0x1b8]\n 10346: i32 a0 = a0 + 0x4\n 10349: a1 = 0x20\n 10352: ra = 90, jump @0\n      : @188 [@dyn 45] (gas: 92)\n 10357: a1 = u64 [s1 + 0x160]\n 10361: a1 = reverse a1\n 10363: a2 = u64 [s1 + 0x168]\n 10367: a2 = reverse a2\n 10369: a3 = u64 [s1 + 0x170]\n 10373: a3 = reverse a3\n 10375: a4 = u64 [s1 + 0x178]\n 10379: a4 = reverse a4\n 10381: a5 = a4 >> 0x38\n 10384: u8 [a0 + 0x1f] = a5\n 10387: a5 = a4 >> 0x30\n 10390: u8 [a0 + 0x1e] = a5\n 10393: a5 = a4 >> 0x28\n 10396: u8 [a0 + 0x1d] = a5\n 10399: a5 = a4 >> 0x20\n 10402: u8 [a0 + 0x1c] = a5\n 10405: a5 = a4 >> 0x18\n 10408: u8 [a0 + 0x1b] = a5\n 10411: a5 = a4 >> 0x10\n 10414: u8 [a0 + 0x1a] = a5\n 10417: a5 = a4 >> 0x8\n 10420: u8 [a0 + 0x19] = a5\n 10423: u8 [a0 + 0x18] = a4\n 10426: a4 = a3 >> 0x38\n 10429: u8 [a0 + 0x17] = a4\n 10432: a4 = a3 >> 0x30\n 10435: u8 [a0 + 0x16] = a4\n 10438: a4 = a3 >> 0x28\n 10441: u8 [a0 + 0x15] = a4\n 10444: a4 = a3 >> 0x20\n 10447: u8 [a0 + 0x14] = a4\n 10450: a4 = a3 >> 0x18\n 10453: u8 [a0 + 0x13] = a4\n 10456: a4 = a3 >> 0x10\n 10459: u8 [a0 + 0x12] = a4\n 10462: a4 = a3 >> 0x8\n 10465: u8 [a0 + 0x11] = a4\n 10468: u8 [a0 + 0x10] = a3\n 10471: a3 = a2 >> 0x38\n 10474: u8 [a0 + 0xf] = a3\n 10477: a3 = a2 >> 0x30\n 10480: u8 [a0 + 0xe] = a3\n 10483: a3 = a2 >> 0x28\n 10486: u8 [a0 + 0xd] = a3\n 10489: a3 = a2 >> 0x20\n 10492: u8 [a0 + 0xc] = a3\n 10495: a3 = a2 >> 0x18\n 10498: u8 [a0 + 0xb] = a3\n 10501: a3 = a2 >> 0x10\n 10504: u8 [a0 + 0xa] = a3\n 10507: a3 = a2 >> 0x8\n 10510: u8 [a0 + 0x9] = a3\n 10513: u8 [a0 + 0x8] = a2\n 10516: a2 = a1 >> 0x38\n 10519: u8 [a0 + 0x7] = a2\n 10522: a2 = a1 >> 0x30\n 10525: u8 [a0 + 0x6] = a2\n 10528: a2 = a1 >> 0x28\n 10531: u8 [a0 + 0x5] = a2\n 10534: a2 = a1 >> 0x20\n 10537: u8 [a0 + 0x4] = a2\n 10540: a2 = a1 >> 0x18\n 10543: u8 [a0 + 0x3] = a2\n 10546: a2 = a1 >> 0x10\n 10549: u8 [a0 + 0x2] = a2\n 10552: a2 = a1 >> 0x8\n 10555: u8 [a0 + 0x1] = a2\n 10558: u8 [a0] = a1\n 10560: ecalli 6 // 'ref_time_left'\n 10562: a0 = u64 [s1 + 0x1a0]\n 10566: a0 = reverse a0\n 10568: a1 = a0 << 0x20\n 10571: a2 = u64 [s1 + 0x1a8]\n 10575: a2 = reverse a2\n 10577: a2 = a2 >> 0x20\n 10580: a1 = a1 | a2\n 10583: a2 = u64 [s1 + 0x1b0]\n 10587: a2 = reverse a2\n 10589: a3 = a2 << 0x20\n 10592: a0 = a0 >> 0x20\n 10595: a0 = a0 | a3\n 10598: a2 = a2 >> 0x20\n 10601: u64 [s1 + 0x4c8] = a0\n 10605: u64 [s1 + 0x4c0] = a1\n 10609: u32 [s1 + 0x4d0] = a2\n 10613: u64 [s1 + 1272] = 0\n 10617: u64 [s1 + 1264] = 0\n 10621: u64 [s1 + 1256] = 0\n 10625: u64 [s1 + 1248] = 0\n 10629: a1 = 0x24\n 10632: a0 = u64 [s1 + 0x1b8]\n 10636: ra = 92, jump @0\n      : @189 [@dyn 46] (gas: 4)\n 10641: u64 [s1 + 0x1b0] = a0\n 10645: a1 = 0x20\n 10648: a0 = u64 [s1 + 0x1b8]\n 10652: ra = 94, jump @0\n      : @190 [@dyn 47] (gas: 31)\n 10657: u32 [s1 + 1280] = 0x20\n 10662: u64 [s1 + 1336] = 0\n 10666: u64 [s1 + 1328] = 0\n 10670: u64 [s1 + 1320] = 0\n 10674: u64 [s1 + 1312] = 0\n 10678: a1 = s1 + 0x4c0\n 10682: a1 = a1 << 0x20\n 10685: a1 = a1 >> 0x20\n 10688: a2 = 0x1800000000\n 10698: t0 = a1 | a2\n 10701: a1 = s1 + 0x4e0\n 10705: a1 = a1 << 0x20\n 10708: a1 = a1 >> 0x20\n 10711: a2 = s1 + 0x520\n 10715: a2 = a2 << 0x20\n 10718: a3 = a2 | a1\n 10721: a1 = u64 [s1 + 0x1b0]\n 10725: a1 = a1 << 0x20\n 10728: a1 = a1 >> 0x20\n 10731: a2 = 0x2400000000\n 10741: a4 = a1 | a2\n 10744: a0 = a0 << 0x20\n 10747: a0 = a0 >> 0x20\n 10750: a1 = s1 + 0x500\n 10754: a1 = a1 << 0x20\n 10757: a5 = a1 | a0\n 10760: a1 = 0xffffffffffffffff\n 10763: a2 = 0xffffffffffffffff\n 10766: a0 = t0\n 10768: ecalli 0 // 'call'\n 10769: fallthrough\n      : @191 (gas: 1)\n 10770: jump @238 if a0 != 0\n      : @192 (gas: 2)\n 10774: ecalli 8 // 'return_data_size'\n 10776: fallthrough\n      : @193 (gas: 1)\n 10777: jump @246 if a0 >=u 32\n      : @194 (gas: 17)\n 10782: ecalli 8 // 'return_data_size'\n 10784: u64 [s1 + 0x1b0] = a0\n 10788: u64 [s1 + 536] = 0\n 10792: u64 [s1 + 528] = 0\n 10796: u64 [s1 + 520] = 0\n 10800: u64 [s1 + 0x200] = a0\n 10804: a0 = u64 [s1 + 0x190]\n 10808: u64 [s1 + 0x230] = a0\n 10812: a0 = u64 [s1 + 0x180]\n 10816: u64 [s1 + 0x228] = a0\n 10820: a0 = u64 [s1 + 0x188]\n 10824: u64 [s1 + 0x220] = a0\n 10828: a0 = s1 + 0x220\n 10832: a1 = s1 + 0x200\n 10836: a2 = u64 [s1 + 0x198]\n 10840: u64 [s1 + 0x238] = a2\n 10844: ra = 96, jump @287\n      : @195 [@dyn 48] (gas: 2)\n 10849: a1 = u64 [s1 + 0x1b0]\n 10853: jump @247 if a1 >u 31\n      : @196 (gas: 1)\n 10858: jump @275\n      : @197 (gas: 3)\n 10861: a0 = 0x40\n 10864: a1 = 0x20\n 10867: ra = 98, jump @0\n      : @198 [@dyn 49] (gas: 98)\n 10872: a1 = u8 [a0 + 0x11]\n 10875: a2 = u8 [a0 + 0x10]\n 10878: a3 = u8 [a0 + 0x12]\n 10881: a4 = u8 [a0 + 0x13]\n 10884: a1 = a1 << 0x8\n 10887: a1 = a1 | a2\n 10890: a3 = a3 << 0x10\n 10893: a4 = a4 << 0x18\n 10896: a3 = a3 | a4\n 10899: a1 = a1 | a3\n 10902: a2 = u8 [a0 + 0x15]\n 10905: a3 = u8 [a0 + 0x14]\n 10908: a4 = u8 [a0 + 0x16]\n 10911: a5 = u8 [a0 + 0x17]\n 10914: a2 = a2 << 0x8\n 10917: a2 = a2 | a3\n 10920: a4 = a4 << 0x10\n 10923: a5 = a5 << 0x18\n 10926: a4 = a4 | a5\n 10929: a2 = a2 | a4\n 10932: a2 = a2 << 0x20\n 10935: t0 = a2 | a1\n 10938: a2 = u8 [a0 + 0x1]\n 10941: a3 = u8 [a0]\n 10943: a4 = u8 [a0 + 0x2]\n 10946: a5 = u8 [a0 + 0x3]\n 10949: a2 = a2 << 0x8\n 10952: a2 = a2 | a3\n 10955: a4 = a4 << 0x10\n 10958: a5 = a5 << 0x18\n 10961: a4 = a4 | a5\n 10964: a2 = a2 | a4\n 10967: a3 = u8 [a0 + 0x5]\n 10970: a4 = u8 [a0 + 0x4]\n 10973: a5 = u8 [a0 + 0x6]\n 10976: a1 = u8 [a0 + 0x7]\n 10979: a3 = a3 << 0x8\n 10982: a3 = a3 | a4\n 10985: a5 = a5 << 0x10\n 10988: a1 = a1 << 0x18\n 10991: a1 = a1 | a5\n 10994: a1 = a1 | a3\n 10997: a1 = a1 << 0x20\n 11000: t1 = a1 | a2\n 11003: a1 = u8 [a0 + 0x19]\n 11006: a3 = u8 [a0 + 0x18]\n 11009: a4 = u8 [a0 + 0x1a]\n 11012: a5 = u8 [a0 + 0x1b]\n 11015: a1 = a1 << 0x8\n 11018: a1 = a1 | a3\n 11021: a4 = a4 << 0x10\n 11024: a5 = a5 << 0x18\n 11027: a4 = a4 | a5\n 11030: a1 = a1 | a4\n 11033: a3 = u8 [a0 + 0x1d]\n 11036: a4 = u8 [a0 + 0x1c]\n 11039: a5 = u8 [a0 + 0x1e]\n 11042: a2 = u8 [a0 + 0x1f]\n 11045: a3 = a3 << 0x8\n 11048: a3 = a3 | a4\n 11051: a5 = a5 << 0x10\n 11054: a2 = a2 << 0x18\n 11057: a2 = a2 | a5\n 11060: a2 = a2 | a3\n 11063: a2 = a2 << 0x20\n 11066: a3 = a2 | a1\n 11069: a1 = u8 [a0 + 0x9]\n 11072: a2 = u8 [a0 + 0x8]\n 11075: a4 = u8 [a0 + 0xa]\n 11078: a5 = u8 [a0 + 0xb]\n 11081: a1 = a1 << 0x8\n 11084: a1 = a1 | a2\n 11087: a4 = a4 << 0x10\n 11090: a5 = a5 << 0x18\n 11093: a4 = a4 | a5\n 11096: a1 = a1 | a4\n 11099: a2 = u8 [a0 + 0xd]\n 11102: a4 = u8 [a0 + 0xc]\n 11105: a5 = u8 [a0 + 0xe]\n 11108: a0 = u8 [a0 + 0xf]\n 11111: a2 = a2 << 0x8\n 11114: a2 = a2 | a4\n 11117: a5 = a5 << 0x10\n 11120: a0 = a0 << 0x18\n 11123: a0 = a0 | a5\n 11126: a0 = a0 | a2\n 11129: a0 = a0 << 0x20\n 11132: a0 = a0 | a1\n 11135: a0 = reverse a0\n 11137: u64 [s1 + 0x1b8] = a0\n 11141: a0 = reverse a3\n 11143: u64 [s1 + 0x1a0] = a0\n 11147: a0 = reverse t1\n 11149: u64 [s1 + 0x1b0] = a0\n 11153: a0 = reverse t0\n 11155: u64 [s1 + 0x1a8] = a0\n 11159: ecalli 8 // 'return_data_size'\n 11161: fallthrough\n      : @199 (gas: 12)\n 11162: a3 = u64 [s1 + 0x1a0]\n 11166: a1 = u64 [s1 + 0x1b0]\n 11170: a2 = u64 [s1 + 0x1a8]\n 11174: a1 = a1 | a2\n 11177: a4 = u64 [s1 + 0x1b8]\n 11181: a2 = a3 | a4\n 11184: a2 = a2 | a1\n 11187: a2 = a2 >> 0x20\n 11190: a1 = a1 | a4\n 11193: a1 = a1 << 0x20\n 11196: a1 = a1 | a2\n 11199: jump @174 if a1 != 0\n      : @200 (gas: 3)\n 11203: a2 = a0\n 11205: a0 = a0 >> 0x20\n 11208: jump @174 if a0 != 0\n      : @201 (gas: 6)\n 11212: i32 a0 = a3 + 0\n 11214: i32 a1 = a2 + 0\n 11216: u64 [s1 + 0x1b8] = a1\n 11220: u64 [s1 + 0x1a8] = a0\n 11224: u64 [s1 + 0x1b0] = a2\n 11228: ra = 100, jump @0\n      : @202 [@dyn 50] (gas: 8)\n 11233: a1 = u64 [s1 + 0x1b0]\n 11237: u32 [s1 + 0x480] = a1\n 11241: i32 a0 = a0 + 0\n 11243: i32 a1 = s1 + 0x480\n 11247: a2 = 0\n 11249: ecalli 7 // 'return_data_copy'\n 11251: a0 = i32 [s1 + 0x480]\n 11255: fallthrough\n      : @203 (gas: 2)\n 11256: a1 = u64 [s1 + 0x1b8]\n 11260: jump @174 if a0 <u a1\n      : @204 (gas: 2)\n 11264: ecalli 8 // 'return_data_size'\n 11266: fallthrough\n      : @205 (gas: 2)\n 11267: a1 = a0 >> 0x20\n 11270: jump @174 if a1 != 0\n      : @206 (gas: 4)\n 11274: i32 a1 = a0 + 0\n 11276: u64 [s1 + 0x1b8] = a1\n 11280: a0 = u64 [s1 + 0x1a8]\n 11284: ra = 102, jump @0\n      : @207 [@dyn 51] (gas: 5)\n 11289: i32 a1 = a0 + 0\n 11291: a0 = 0x1\n 11294: a2 = u64 [s1 + 0x1b8]\n 11298: ecalli 9 // 'seal_return'\n 11300: fallthrough\n      : @208 (gas: 3)\n 11301: a0 = 0x40\n 11304: a1 = 0x20\n 11307: ra = 104, jump @0\n      : @209 [@dyn 52] (gas: 100)\n 11312: a1 = u8 [a0 + 0x11]\n 11315: a2 = u8 [a0 + 0x10]\n 11318: a3 = u8 [a0 + 0x12]\n 11321: a4 = u8 [a0 + 0x13]\n 11324: a1 = a1 << 0x8\n 11327: a1 = a1 | a2\n 11330: a3 = a3 << 0x10\n 11333: a4 = a4 << 0x18\n 11336: a3 = a3 | a4\n 11339: a1 = a1 | a3\n 11342: a2 = u8 [a0 + 0x15]\n 11345: a3 = u8 [a0 + 0x14]\n 11348: a4 = u8 [a0 + 0x16]\n 11351: a5 = u8 [a0 + 0x17]\n 11354: a2 = a2 << 0x8\n 11357: a2 = a2 | a3\n 11360: a4 = a4 << 0x10\n 11363: a5 = a5 << 0x18\n 11366: a4 = a4 | a5\n 11369: a2 = a2 | a4\n 11372: a2 = a2 << 0x20\n 11375: t0 = a2 | a1\n 11378: a2 = u8 [a0 + 0x1]\n 11381: a3 = u8 [a0]\n 11383: a4 = u8 [a0 + 0x2]\n 11386: a5 = u8 [a0 + 0x3]\n 11389: a2 = a2 << 0x8\n 11392: a2 = a2 | a3\n 11395: a4 = a4 << 0x10\n 11398: a5 = a5 << 0x18\n 11401: a4 = a4 | a5\n 11404: a2 = a2 | a4\n 11407: a3 = u8 [a0 + 0x5]\n 11410: a4 = u8 [a0 + 0x4]\n 11413: a5 = u8 [a0 + 0x6]\n 11416: a1 = u8 [a0 + 0x7]\n 11419: a3 = a3 << 0x8\n 11422: a3 = a3 | a4\n 11425: a5 = a5 << 0x10\n 11428: a1 = a1 << 0x18\n 11431: a1 = a1 | a5\n 11434: a1 = a1 | a3\n 11437: a1 = a1 << 0x20\n 11440: t1 = a1 | a2\n 11443: a1 = u8 [a0 + 0x19]\n 11446: a3 = u8 [a0 + 0x18]\n 11449: a4 = u8 [a0 + 0x1a]\n 11452: a5 = u8 [a0 + 0x1b]\n 11455: a1 = a1 << 0x8\n 11458: a1 = a1 | a3\n 11461: a4 = a4 << 0x10\n 11464: a5 = a5 << 0x18\n 11467: a4 = a4 | a5\n 11470: a1 = a1 | a4\n 11473: a3 = u8 [a0 + 0x1d]\n 11476: a4 = u8 [a0 + 0x1c]\n 11479: a5 = u8 [a0 + 0x1e]\n 11482: a2 = u8 [a0 + 0x1f]\n 11485: a3 = a3 << 0x8\n 11488: a3 = a3 | a4\n 11491: a5 = a5 << 0x10\n 11494: a2 = a2 << 0x18\n 11497: a2 = a2 | a5\n 11500: a2 = a2 | a3\n 11503: a2 = a2 << 0x20\n 11506: a3 = a2 | a1\n 11509: a1 = u8 [a0 + 0x9]\n 11512: a2 = u8 [a0 + 0x8]\n 11515: a4 = u8 [a0 + 0xa]\n 11518: a5 = u8 [a0 + 0xb]\n 11521: a1 = a1 << 0x8\n 11524: a1 = a1 | a2\n 11527: a4 = a4 << 0x10\n 11530: a5 = a5 << 0x18\n 11533: a4 = a4 | a5\n 11536: a1 = a1 | a4\n 11539: a2 = u8 [a0 + 0xd]\n 11542: a4 = u8 [a0 + 0xc]\n 11545: a5 = u8 [a0 + 0xe]\n 11548: a0 = u8 [a0 + 0xf]\n 11551: a2 = a2 << 0x8\n 11554: a2 = a2 | a4\n 11557: a5 = a5 << 0x10\n 11560: a0 = a0 << 0x18\n 11563: a0 = a0 | a5\n 11566: a0 = a0 | a2\n 11569: a0 = a0 << 0x20\n 11572: a0 = a0 | a1\n 11575: a4 = reverse a0\n 11577: a2 = reverse a3\n 11579: a5 = reverse t1\n 11581: a3 = reverse t0\n 11583: a0 = a3 | a5\n 11586: a1 = a2 | a4\n 11589: a1 = a1 | a0\n 11592: a1 = a1 >> 0x20\n 11595: a0 = a0 | a4\n 11598: a0 = a0 << 0x20\n 11601: a0 = a0 | a1\n 11604: jump @174 if a0 != 0\n      : @210 (gas: 8)\n 11608: i32 a0 = a2 + 0\n 11610: a1 = 0x20\n 11613: u64 [s1 + 0x198] = a0\n 11617: u64 [s1 + 0x1b8] = a2\n 11621: u64 [s1 + 0x1b0] = a3\n 11625: u64 [s1 + 0x1a8] = a4\n 11629: u64 [s1 + 0x1a0] = a5\n 11633: ra = 106, jump @0\n      : @211 [@dyn 53] (gas: 43)\n 11638: u8 [a0 + 31] = 0\n 11641: u8 [a0 + 30] = 0\n 11644: u8 [a0 + 29] = 0\n 11647: u8 [a0 + 28] = 0\n 11650: u8 [a0 + 27] = 0\n 11653: u8 [a0 + 26] = 0\n 11656: u8 [a0 + 25] = 0\n 11659: u8 [a0 + 24] = 0\n 11662: u8 [a0 + 23] = 0\n 11665: u8 [a0 + 22] = 0\n 11668: u8 [a0 + 21] = 0\n 11671: u8 [a0 + 20] = 0\n 11674: u8 [a0 + 19] = 0\n 11677: u8 [a0 + 18] = 0\n 11680: u8 [a0 + 17] = 0\n 11683: u8 [a0 + 16] = 0\n 11686: u8 [a0 + 15] = 0\n 11689: u8 [a0 + 14] = 0\n 11692: u8 [a0 + 13] = 0\n 11695: u8 [a0 + 12] = 0\n 11698: u8 [a0 + 11] = 0\n 11701: u8 [a0 + 10] = 0\n 11704: u8 [a0 + 9] = 0\n 11707: u8 [a0 + 8] = 0\n 11710: u8 [a0 + 7] = 0\n 11713: u8 [a0 + 6] = 0\n 11716: u8 [a0 + 5] = 0\n 11719: u8 [a0 + 3] = 0xa0\n 11724: u8 [a0 + 2] = 0x79\n 11728: u8 [a0 + 1] = 0xc3\n 11733: u8 [a0 + 0] = 0x8\n 11736: a1 = u64 [s1 + 0x1a8]\n 11740: a3 = u64 [s1 + 0x1a0]\n 11744: a3 = a3 | a1\n 11747: a4 = 0x100000000\n 11757: a1 = 0xfffffffc\n 11767: a2 = u64 [s1 + 0x1b8]\n 11771: a1 = a2 <u a1\n 11774: a2 = u64 [s1 + 0x1b0]\n 11778: a1 = 0 if a2 != 0\n 11780: a1 = 0 if a3 != 0\n 11782: u8 [a0 + 4] = 0\n 11785: jump @174 if a1 == 0\n      : @212 (gas: 6)\n 11789: a0 = u64 [s1 + 0x198]\n 11793: i32 a0 = a0 + 0x4\n 11796: a1 = 0x20\n 11799: u64 [s1 + 0x1a8] = a3\n 11803: u64 [s1 + 0x1a0] = a4\n 11807: ra = 108, jump @0\n      : @213 [@dyn 54] (gas: 41)\n 11812: a4 = u64 [s1 + 0x1a8]\n 11816: a3 = u64 [s1 + 0x1b0]\n 11820: a2 = u64 [s1 + 0x1b8]\n 11824: u8 [a0 + 31] = 0x20\n 11828: u8 [a0 + 30] = 0\n 11831: u8 [a0 + 29] = 0\n 11834: u8 [a0 + 28] = 0\n 11837: u8 [a0 + 27] = 0\n 11840: u8 [a0 + 26] = 0\n 11843: u8 [a0 + 25] = 0\n 11846: u8 [a0 + 24] = 0\n 11849: u8 [a0 + 23] = 0\n 11852: u8 [a0 + 22] = 0\n 11855: u8 [a0 + 21] = 0\n 11858: u8 [a0 + 20] = 0\n 11861: u8 [a0 + 19] = 0\n 11864: u8 [a0 + 18] = 0\n 11867: u8 [a0 + 17] = 0\n 11870: u8 [a0 + 16] = 0\n 11873: u8 [a0 + 15] = 0\n 11876: u8 [a0 + 14] = 0\n 11879: u8 [a0 + 13] = 0\n 11882: u8 [a0 + 12] = 0\n 11885: u8 [a0 + 11] = 0\n 11888: u8 [a0 + 10] = 0\n 11891: u8 [a0 + 9] = 0\n 11894: u8 [a0 + 8] = 0\n 11897: u8 [a0 + 7] = 0\n 11900: u8 [a0 + 6] = 0\n 11903: u8 [a0 + 5] = 0\n 11906: u8 [a0 + 4] = 0\n 11909: u8 [a0 + 3] = 0\n 11912: u8 [a0 + 2] = 0\n 11915: u8 [a0 + 1] = 0\n 11918: a1 = u64 [s1 + 0x1a0]\n 11922: a1 = a1 + 0xffffffffffffffdc\n 11925: a1 = a2 <u a1\n 11928: a1 = 0 if a3 != 0\n 11930: a1 = 0 if a4 != 0\n 11932: u8 [a0 + 0] = 0\n 11934: jump @174 if a1 == 0\n      : @214 (gas: 4)\n 11938: a0 = u64 [s1 + 0x198]\n 11942: i32 a0 = a0 + 0x24\n 11945: a1 = 0x20\n 11948: ra = 110, jump @0\n      : @215 [@dyn 55] (gas: 40)\n 11953: u8 [a0 + 31] = 0xe\n 11957: u8 [a0 + 30] = 0\n 11960: u8 [a0 + 29] = 0\n 11963: u8 [a0 + 28] = 0\n 11966: u8 [a0 + 27] = 0\n 11969: u8 [a0 + 26] = 0\n 11972: u8 [a0 + 25] = 0\n 11975: u8 [a0 + 24] = 0\n 11978: u8 [a0 + 23] = 0\n 11981: u8 [a0 + 22] = 0\n 11984: u8 [a0 + 21] = 0\n 11987: u8 [a0 + 20] = 0\n 11990: u8 [a0 + 19] = 0\n 11993: u8 [a0 + 18] = 0\n 11996: u8 [a0 + 17] = 0\n 11999: u8 [a0 + 16] = 0\n 12002: u8 [a0 + 15] = 0\n 12005: u8 [a0 + 14] = 0\n 12008: u8 [a0 + 13] = 0\n 12011: u8 [a0 + 12] = 0\n 12014: u8 [a0 + 11] = 0\n 12017: u8 [a0 + 10] = 0\n 12020: u8 [a0 + 9] = 0\n 12023: u8 [a0 + 8] = 0\n 12026: u8 [a0 + 7] = 0\n 12029: u8 [a0 + 6] = 0\n 12032: u8 [a0 + 5] = 0\n 12035: u8 [a0 + 4] = 0\n 12038: u8 [a0 + 3] = 0\n 12041: u8 [a0 + 2] = 0\n 12044: u8 [a0 + 1] = 0\n 12047: a1 = 0xffffffbc\n 12057: a2 = u64 [s1 + 0x1b8]\n 12061: a1 = a2 <u a1\n 12064: a2 = u64 [s1 + 0x1b0]\n 12068: a1 = 0 if a2 != 0\n 12070: a2 = u64 [s1 + 0x1a8]\n 12074: a1 = 0 if a2 != 0\n 12076: u8 [a0 + 0] = 0\n 12078: jump @174 if a1 == 0\n      : @216 (gas: 4)\n 12082: a0 = u64 [s1 + 0x198]\n 12086: i32 a0 = a0 + 0x44\n 12089: a1 = 0x20\n 12092: ra = 112, jump @0\n      : @217 [@dyn 56] (gas: 35)\n 12097: u8 [a0 + 31] = 0\n 12100: u8 [a0 + 30] = 0\n 12103: u8 [a0 + 29] = 0\n 12106: u8 [a0 + 28] = 0\n 12109: u8 [a0 + 27] = 0\n 12112: u8 [a0 + 26] = 0\n 12115: u8 [a0 + 25] = 0\n 12118: u8 [a0 + 24] = 0\n 12121: u8 [a0 + 23] = 0\n 12124: u8 [a0 + 22] = 0\n 12127: u8 [a0 + 21] = 0\n 12130: u8 [a0 + 20] = 0\n 12133: u8 [a0 + 19] = 0\n 12136: u8 [a0 + 18] = 0\n 12139: u8 [a0 + 17] = 0\n 12142: u8 [a0 + 16] = 0\n 12145: u8 [a0 + 15] = 0\n 12148: u8 [a0 + 14] = 0\n 12151: u8 [a0 + 13] = 0x64\n 12155: u8 [a0 + 12] = 0x65\n 12159: u8 [a0 + 11] = 0x7a\n 12163: u8 [a0 + 10] = 0x69\n 12167: u8 [a0 + 9] = 0x72\n 12171: u8 [a0 + 8] = 0x6f\n 12175: u8 [a0 + 7] = 0x68\n 12179: u8 [a0 + 6] = 0x74\n 12183: u8 [a0 + 5] = 0x75\n 12187: u8 [a0 + 4] = 0x61\n 12191: u8 [a0 + 3] = 0x20\n 12195: u8 [a0 + 2] = 0x74\n 12199: u8 [a0 + 1] = 0x6f\n 12203: u8 [a0 + 0] = 0x4e\n 12206: a1 = 0x64\n 12209: a0 = u64 [s1 + 0x198]\n 12213: ra = 114, jump @0\n      : @218 [@dyn 57] (gas: 5)\n 12218: i32 a1 = a0 + 0\n 12220: a0 = 0x1\n 12223: a2 = 0x64\n 12226: ecalli 9 // 'seal_return'\n 12228: fallthrough\n      : @219 (gas: 4)\n 12229: a0 = 0\n 12231: a4 = 0\n 12233: u64 [s1 + 440] = 0x20\n 12238: fallthrough\n      : @220 (gas: 14)\n 12239: u64 [s1 + 432] = 0\n 12243: a1 = a2 + 0x80\n 12247: u64 [s1 + 0x1a8] = a1\n 12251: a1 = a1 <u a2\n 12254: a2 = a0 + a1\n 12257: u64 [s1 + 0x1a0] = a2\n 12261: a0 = a2 <u a0\n 12264: a0 = a1 if a1 == 0\n 12267: u64 [s1 + 0x198] = a0\n 12271: a0 = a0 <u 0\n 12273: u64 [s1 + 0x190] = a0\n 12277: a0 = 0x40\n 12280: a1 = 0x20\n 12283: ra = 116, jump @0\n      : @221 [@dyn 58] (gas: 80)\n 12288: a1 = u64 [s1 + 0x190]\n 12292: a1 = reverse a1\n 12294: a2 = u64 [s1 + 0x198]\n 12298: a2 = reverse a2\n 12300: a3 = u64 [s1 + 0x1a0]\n 12304: a3 = reverse a3\n 12306: a4 = u64 [s1 + 0x1a8]\n 12310: a4 = reverse a4\n 12312: u8 [a0 + 0x18] = a4\n 12315: a5 = a4 >> 0x38\n 12318: u8 [a0 + 0x1f] = a5\n 12321: a5 = a4 >> 0x30\n 12324: u8 [a0 + 0x1e] = a5\n 12327: a5 = a4 >> 0x28\n 12330: u8 [a0 + 0x1d] = a5\n 12333: a5 = a4 >> 0x20\n 12336: u8 [a0 + 0x1c] = a5\n 12339: a5 = a4 >> 0x18\n 12342: u8 [a0 + 0x1b] = a5\n 12345: a5 = a4 >> 0x10\n 12348: u8 [a0 + 0x1a] = a5\n 12351: a4 = a4 >> 0x8\n 12354: u8 [a0 + 0x19] = a4\n 12357: u8 [a0 + 0x10] = a3\n 12360: a4 = a3 >> 0x38\n 12363: u8 [a0 + 0x17] = a4\n 12366: a4 = a3 >> 0x30\n 12369: u8 [a0 + 0x16] = a4\n 12372: a4 = a3 >> 0x28\n 12375: u8 [a0 + 0x15] = a4\n 12378: a4 = a3 >> 0x20\n 12381: u8 [a0 + 0x14] = a4\n 12384: a4 = a3 >> 0x18\n 12387: u8 [a0 + 0x13] = a4\n 12390: a4 = a3 >> 0x10\n 12393: u8 [a0 + 0x12] = a4\n 12396: a3 = a3 >> 0x8\n 12399: u8 [a0 + 0x11] = a3\n 12402: u8 [a0 + 0x8] = a2\n 12405: a3 = a2 >> 0x38\n 12408: u8 [a0 + 0xf] = a3\n 12411: a3 = a2 >> 0x30\n 12414: u8 [a0 + 0xe] = a3\n 12417: a3 = a2 >> 0x28\n 12420: u8 [a0 + 0xd] = a3\n 12423: a3 = a2 >> 0x20\n 12426: u8 [a0 + 0xc] = a3\n 12429: a3 = a2 >> 0x18\n 12432: u8 [a0 + 0xb] = a3\n 12435: a3 = a2 >> 0x10\n 12438: u8 [a0 + 0xa] = a3\n 12441: a2 = a2 >> 0x8\n 12444: u8 [a0 + 0x9] = a2\n 12447: u8 [a0] = a1\n 12449: a2 = a1 >> 0x38\n 12452: u8 [a0 + 0x7] = a2\n 12455: a2 = a1 >> 0x30\n 12458: u8 [a0 + 0x6] = a2\n 12461: a2 = a1 >> 0x28\n 12464: u8 [a0 + 0x5] = a2\n 12467: a2 = a1 >> 0x20\n 12470: u8 [a0 + 0x4] = a2\n 12473: a2 = a1 >> 0x18\n 12476: u8 [a0 + 0x3] = a2\n 12479: a2 = a1 >> 0x10\n 12482: u8 [a0 + 0x2] = a2\n 12485: a1 = a1 >> 0x8\n 12488: a5 = u64 [s1 + 0x1b0]\n 12492: a2 = a5 >u 0\n 12494: a3 = u64 [s1 + 0x1b8]\n 12498: a3 = a3 <u 0x20\n 12501: a3 = a3 ^ 0x1\n 12504: a3 = a2 if a5 != 0\n 12507: a2 = a5 >u 0\n 12509: a4 = a5 >u 0\n 12511: a4 = a2 if a5 == 0\n 12514: a2 = a5 | a5\n 12517: a4 = a3 if a2 == 0\n 12520: u8 [a0 + 0x1] = a1\n 12523: jump @223 if a4 != 0\n      : @222 (gas: 1)\n 12526: jump @275\n      : @223 (gas: 3)\n 12529: a0 = 0x80\n 12533: a1 = 0x20\n 12536: ra = 118, jump @0\n      : @224 [@dyn 59] (gas: 56)\n 12541: a1 = u8 [a0 + 0x9]\n 12544: a2 = u8 [a0 + 0x8]\n 12547: a3 = u8 [a0 + 0xa]\n 12550: a4 = u8 [a0 + 0xb]\n 12553: a1 = a1 << 0x8\n 12556: a1 = a1 | a2\n 12559: a3 = a3 << 0x10\n 12562: a4 = a4 << 0x18\n 12565: a3 = a3 | a4\n 12568: a1 = a1 | a3\n 12571: a2 = u8 [a0 + 0xd]\n 12574: a3 = u8 [a0 + 0xc]\n 12577: a4 = u8 [a0 + 0xe]\n 12580: a5 = u8 [a0 + 0xf]\n 12583: a2 = a2 << 0x8\n 12586: a2 = a2 | a3\n 12589: a4 = a4 << 0x10\n 12592: a5 = a5 << 0x18\n 12595: a4 = a4 | a5\n 12598: a2 = a2 | a4\n 12601: a2 = a2 << 0x20\n 12604: t0 = a2 | a1\n 12607: a1 = u8 [a0 + 0x1]\n 12610: a2 = u8 [a0]\n 12612: a3 = u8 [a0 + 0x2]\n 12615: a4 = u8 [a0 + 0x3]\n 12618: a1 = a1 << 0x8\n 12621: a1 = a1 | a2\n 12624: a3 = a3 << 0x10\n 12627: a4 = a4 << 0x18\n 12630: a3 = a3 | a4\n 12633: a1 = a1 | a3\n 12636: a2 = u8 [a0 + 0x5]\n 12639: a3 = u8 [a0 + 0x4]\n 12642: a4 = u8 [a0 + 0x6]\n 12645: a5 = u8 [a0 + 0x7]\n 12648: a2 = a2 << 0x8\n 12651: a2 = a2 | a3\n 12654: a4 = a4 << 0x10\n 12657: a5 = a5 << 0x18\n 12660: a4 = a4 | a5\n 12663: a2 = a2 | a4\n 12666: a2 = a2 << 0x20\n 12669: a1 = a1 | a2\n 12672: u64 [s1 + 0x1b0] = a1\n 12676: a1 = reverse a1\n 12678: u64 [s1 + 0x1b8] = t0\n 12682: a2 = reverse t0\n 12684: a3 = 0x100000000\n 12694: a3 = a3 ^ a2\n 12697: a3 = a3 | a1\n 12700: a2 = a2 >> 0x20\n 12703: a2 = a2 <u 0x1\n 12706: a2 = 0 if a1 != 0\n 12708: a2 = 0 if a3 == 0\n 12710: jump @226 if a2 != 0\n      : @225 (gas: 1)\n 12713: jump @275\n      : @226 (gas: 35)\n 12716: a1 = u8 [a0 + 0x18]\n 12719: u64 [s1 + 0x150] = a1\n 12723: a1 = u8 [a0 + 0x19]\n 12726: u64 [s1 + 0x130] = a1\n 12730: a1 = u8 [a0 + 0x1a]\n 12733: u64 [s1 + 0x140] = a1\n 12737: a1 = u8 [a0 + 0x1b]\n 12740: u64 [s1 + 0x138] = a1\n 12744: a1 = u8 [a0 + 0x1c]\n 12747: u64 [s1 + 0x168] = a1\n 12751: a1 = u8 [a0 + 0x1d]\n 12754: u64 [s1 + 0x148] = a1\n 12758: a1 = u8 [a0 + 0x1e]\n 12761: u64 [s1 + 0x160] = a1\n 12765: a1 = u8 [a0 + 0x1f]\n 12768: u64 [s1 + 0x158] = a1\n 12772: a1 = u8 [a0 + 0x10]\n 12775: u64 [s1 + 0x190] = a1\n 12779: a1 = u8 [a0 + 0x11]\n 12782: u64 [s1 + 0x170] = a1\n 12786: a1 = u8 [a0 + 0x12]\n 12789: u64 [s1 + 0x180] = a1\n 12793: a1 = u8 [a0 + 0x13]\n 12796: u64 [s1 + 0x178] = a1\n 12800: a1 = u8 [a0 + 0x14]\n 12803: u64 [s1 + 0x1a8] = a1\n 12807: a1 = u8 [a0 + 0x15]\n 12810: u64 [s1 + 0x188] = a1\n 12814: a1 = u8 [a0 + 0x16]\n 12817: u64 [s1 + 0x1a0] = a1\n 12821: a0 = u8 [a0 + 0x17]\n 12824: u64 [s1 + 0x198] = a0\n 12828: a0 = 0x40\n 12831: a1 = 0x20\n 12834: ra = 120, jump @0\n      : @227 [@dyn 60] (gas: 100)\n 12839: a1 = u8 [a0 + 0x11]\n 12842: a2 = u8 [a0 + 0x10]\n 12845: a3 = u8 [a0 + 0x12]\n 12848: a4 = u8 [a0 + 0x13]\n 12851: a1 = a1 << 0x8\n 12854: a1 = a1 | a2\n 12857: a3 = a3 << 0x10\n 12860: a4 = a4 << 0x18\n 12863: a3 = a3 | a4\n 12866: a1 = a1 | a3\n 12869: a2 = u8 [a0 + 0x15]\n 12872: a3 = u8 [a0 + 0x14]\n 12875: a4 = u8 [a0 + 0x16]\n 12878: a5 = u8 [a0 + 0x17]\n 12881: a2 = a2 << 0x8\n 12884: a2 = a2 | a3\n 12887: a4 = a4 << 0x10\n 12890: a5 = a5 << 0x18\n 12893: a4 = a4 | a5\n 12896: a2 = a2 | a4\n 12899: a2 = a2 << 0x20\n 12902: t0 = a2 | a1\n 12905: a2 = u8 [a0 + 0x1]\n 12908: a3 = u8 [a0]\n 12910: a4 = u8 [a0 + 0x2]\n 12913: a5 = u8 [a0 + 0x3]\n 12916: a2 = a2 << 0x8\n 12919: a2 = a2 | a3\n 12922: a4 = a4 << 0x10\n 12925: a5 = a5 << 0x18\n 12928: a4 = a4 | a5\n 12931: a2 = a2 | a4\n 12934: a3 = u8 [a0 + 0x5]\n 12937: a4 = u8 [a0 + 0x4]\n 12940: a5 = u8 [a0 + 0x6]\n 12943: a1 = u8 [a0 + 0x7]\n 12946: a3 = a3 << 0x8\n 12949: a3 = a3 | a4\n 12952: a5 = a5 << 0x10\n 12955: a1 = a1 << 0x18\n 12958: a1 = a1 | a5\n 12961: a1 = a1 | a3\n 12964: a1 = a1 << 0x20\n 12967: t1 = a1 | a2\n 12970: a1 = u8 [a0 + 0x19]\n 12973: a3 = u8 [a0 + 0x18]\n 12976: a4 = u8 [a0 + 0x1a]\n 12979: a5 = u8 [a0 + 0x1b]\n 12982: a1 = a1 << 0x8\n 12985: a1 = a1 | a3\n 12988: a4 = a4 << 0x10\n 12991: a5 = a5 << 0x18\n 12994: a4 = a4 | a5\n 12997: a1 = a1 | a4\n 13000: a3 = u8 [a0 + 0x1d]\n 13003: a4 = u8 [a0 + 0x1c]\n 13006: a5 = u8 [a0 + 0x1e]\n 13009: a2 = u8 [a0 + 0x1f]\n 13012: a3 = a3 << 0x8\n 13015: a3 = a3 | a4\n 13018: a5 = a5 << 0x10\n 13021: a2 = a2 << 0x18\n 13024: a2 = a2 | a5\n 13027: a2 = a2 | a3\n 13030: a2 = a2 << 0x20\n 13033: a3 = a2 | a1\n 13036: a1 = u8 [a0 + 0x9]\n 13039: a2 = u8 [a0 + 0x8]\n 13042: a4 = u8 [a0 + 0xa]\n 13045: a5 = u8 [a0 + 0xb]\n 13048: a1 = a1 << 0x8\n 13051: a1 = a1 | a2\n 13054: a4 = a4 << 0x10\n 13057: a5 = a5 << 0x18\n 13060: a4 = a4 | a5\n 13063: a1 = a1 | a4\n 13066: a2 = u8 [a0 + 0xd]\n 13069: a4 = u8 [a0 + 0xc]\n 13072: a5 = u8 [a0 + 0xe]\n 13075: a0 = u8 [a0 + 0xf]\n 13078: a2 = a2 << 0x8\n 13081: a2 = a2 | a4\n 13084: a5 = a5 << 0x10\n 13087: a0 = a0 << 0x18\n 13090: a0 = a0 | a5\n 13093: a0 = a0 | a2\n 13096: a0 = a0 << 0x20\n 13099: a0 = a0 | a1\n 13102: a1 = reverse a0\n 13104: a0 = reverse a3\n 13106: a2 = reverse t1\n 13108: a3 = reverse t0\n 13110: a2 = a2 | a3\n 13113: a3 = a0 | a1\n 13116: a3 = a3 | a2\n 13119: a3 = a3 >> 0x20\n 13122: a1 = a1 | a2\n 13125: a1 = a1 << 0x20\n 13128: a1 = a1 | a3\n 13131: jump @174 if a1 != 0\n      : @228 (gas: 50)\n 13135: a1 = u64 [s1 + 0x130]\n 13139: a1 = a1 << 0x8\n 13142: a2 = u64 [s1 + 0x150]\n 13146: a1 = a1 | a2\n 13149: a2 = u64 [s1 + 0x140]\n 13153: a2 = a2 << 0x10\n 13156: a3 = u64 [s1 + 0x138]\n 13160: a3 = a3 << 0x18\n 13163: a2 = a2 | a3\n 13166: a1 = a1 | a2\n 13169: a2 = u64 [s1 + 0x148]\n 13173: a2 = a2 << 0x8\n 13176: a3 = u64 [s1 + 0x168]\n 13180: a2 = a2 | a3\n 13183: a3 = u64 [s1 + 0x160]\n 13187: a3 = a3 << 0x10\n 13190: a4 = u64 [s1 + 0x158]\n 13194: a4 = a4 << 0x18\n 13197: a3 = a3 | a4\n 13200: a2 = a2 | a3\n 13203: a2 = a2 << 0x20\n 13206: a1 = a1 | a2\n 13209: u64 [s1 + 0x168] = a1\n 13213: a1 = u64 [s1 + 0x170]\n 13217: a1 = a1 << 0x8\n 13220: a2 = u64 [s1 + 0x190]\n 13224: a1 = a1 | a2\n 13227: a2 = u64 [s1 + 0x180]\n 13231: a2 = a2 << 0x10\n 13234: a3 = u64 [s1 + 0x178]\n 13238: a3 = a3 << 0x18\n 13241: a2 = a2 | a3\n 13244: a1 = a1 | a2\n 13247: a2 = u64 [s1 + 0x188]\n 13251: a2 = a2 << 0x8\n 13254: a3 = u64 [s1 + 0x1a8]\n 13258: a2 = a2 | a3\n 13261: a3 = u64 [s1 + 0x1a0]\n 13265: a3 = a3 << 0x10\n 13268: a4 = u64 [s1 + 0x198]\n 13272: a4 = a4 << 0x18\n 13275: a3 = a3 | a4\n 13278: a2 = a2 | a3\n 13281: a2 = a2 << 0x20\n 13284: a1 = a1 | a2\n 13287: u64 [s1 + 0x1a0] = a1\n 13291: i32 a0 = a0 + 0\n 13293: u64 [s1 + 0x1a8] = a0\n 13297: a1 = 0x20\n 13300: ra = 122, jump @0\n      : @229 [@dyn 61] (gas: 68)\n 13305: a3 = u64 [s1 + 0x1a0]\n 13309: u8 [a0 + 0x10] = a3\n 13312: a2 = u64 [s1 + 0x1b8]\n 13316: a1 = a2 >> 0x38\n 13319: u8 [a0 + 0xf] = a1\n 13322: a1 = a2 >> 0x30\n 13325: u8 [a0 + 0xe] = a1\n 13328: a1 = a2 >> 0x28\n 13331: u8 [a0 + 0xd] = a1\n 13334: a1 = a2 >> 0x20\n 13337: u8 [a0 + 0xc] = a1\n 13340: a1 = a2 >> 0x18\n 13343: u8 [a0 + 0xb] = a1\n 13346: a1 = a2 >> 0x10\n 13349: u8 [a0 + 0xa] = a1\n 13352: a1 = a2 >> 0x8\n 13355: u8 [a0 + 0x9] = a1\n 13358: u8 [a0 + 0x8] = a2\n 13361: a2 = u64 [s1 + 0x1b0]\n 13365: a1 = a2 >> 0x38\n 13368: u8 [a0 + 0x7] = a1\n 13371: a1 = a2 >> 0x30\n 13374: u8 [a0 + 0x6] = a1\n 13377: a1 = a2 >> 0x28\n 13380: u8 [a0 + 0x5] = a1\n 13383: a1 = a2 >> 0x20\n 13386: u8 [a0 + 0x4] = a1\n 13389: a1 = a2 >> 0x18\n 13392: u8 [a0 + 0x3] = a1\n 13395: a1 = a2 >> 0x10\n 13398: u8 [a0 + 0x2] = a1\n 13401: a1 = a2 >> 0x8\n 13404: u8 [a0 + 0x1] = a1\n 13407: u8 [a0] = a2\n 13409: a2 = u64 [s1 + 0x168]\n 13413: u8 [a0 + 0x18] = a2\n 13416: a1 = a3 >> 0x38\n 13419: u8 [a0 + 0x17] = a1\n 13422: a1 = a3 >> 0x30\n 13425: u8 [a0 + 0x16] = a1\n 13428: a1 = a3 >> 0x28\n 13431: u8 [a0 + 0x15] = a1\n 13434: a1 = a3 >> 0x20\n 13437: u8 [a0 + 0x14] = a1\n 13440: a1 = a3 >> 0x18\n 13443: u8 [a0 + 0x13] = a1\n 13446: a1 = a3 >> 0x10\n 13449: u8 [a0 + 0x12] = a1\n 13452: a1 = a3 >> 0x8\n 13455: u8 [a0 + 0x11] = a1\n 13458: a1 = a2 >> 0x38\n 13461: u8 [a0 + 0x1f] = a1\n 13464: a1 = a2 >> 0x30\n 13467: u8 [a0 + 0x1e] = a1\n 13470: a1 = a2 >> 0x28\n 13473: u8 [a0 + 0x1d] = a1\n 13476: a1 = a2 >> 0x20\n 13479: u8 [a0 + 0x1c] = a1\n 13482: a1 = a2 >> 0x18\n 13485: u8 [a0 + 0x1b] = a1\n 13488: a1 = a2 >> 0x10\n 13491: u8 [a0 + 0x1a] = a1\n 13494: a1 = a2 >> 0x8\n 13497: u8 [a0 + 0x19] = a1\n 13500: a1 = 0x20\n 13503: a0 = u64 [s1 + 0x1a8]\n 13507: ra = 0x9c\n 13511: jump @0\n      : @230 (gas: 3)\n 13514: a0 = 0x40\n 13517: a1 = 0x20\n 13520: ra = 124, jump @0\n      : @231 [@dyn 62] (gas: 98)\n 13525: a1 = u8 [a0 + 0x11]\n 13528: a2 = u8 [a0 + 0x10]\n 13531: a3 = u8 [a0 + 0x12]\n 13534: a4 = u8 [a0 + 0x13]\n 13537: a1 = a1 << 0x8\n 13540: a1 = a1 | a2\n 13543: a3 = a3 << 0x10\n 13546: a4 = a4 << 0x18\n 13549: a3 = a3 | a4\n 13552: a1 = a1 | a3\n 13555: a2 = u8 [a0 + 0x15]\n 13558: a3 = u8 [a0 + 0x14]\n 13561: a4 = u8 [a0 + 0x16]\n 13564: a5 = u8 [a0 + 0x17]\n 13567: a2 = a2 << 0x8\n 13570: a2 = a2 | a3\n 13573: a4 = a4 << 0x10\n 13576: a5 = a5 << 0x18\n 13579: a4 = a4 | a5\n 13582: a2 = a2 | a4\n 13585: a2 = a2 << 0x20\n 13588: t0 = a2 | a1\n 13591: a2 = u8 [a0 + 0x1]\n 13594: a3 = u8 [a0]\n 13596: a4 = u8 [a0 + 0x2]\n 13599: a5 = u8 [a0 + 0x3]\n 13602: a2 = a2 << 0x8\n 13605: a2 = a2 | a3\n 13608: a4 = a4 << 0x10\n 13611: a5 = a5 << 0x18\n 13614: a4 = a4 | a5\n 13617: a2 = a2 | a4\n 13620: a3 = u8 [a0 + 0x5]\n 13623: a4 = u8 [a0 + 0x4]\n 13626: a5 = u8 [a0 + 0x6]\n 13629: a1 = u8 [a0 + 0x7]\n 13632: a3 = a3 << 0x8\n 13635: a3 = a3 | a4\n 13638: a5 = a5 << 0x10\n 13641: a1 = a1 << 0x18\n 13644: a1 = a1 | a5\n 13647: a1 = a1 | a3\n 13650: a1 = a1 << 0x20\n 13653: t1 = a1 | a2\n 13656: a1 = u8 [a0 + 0x19]\n 13659: a3 = u8 [a0 + 0x18]\n 13662: a4 = u8 [a0 + 0x1a]\n 13665: a5 = u8 [a0 + 0x1b]\n 13668: a1 = a1 << 0x8\n 13671: a1 = a1 | a3\n 13674: a4 = a4 << 0x10\n 13677: a5 = a5 << 0x18\n 13680: a4 = a4 | a5\n 13683: a1 = a1 | a4\n 13686: a3 = u8 [a0 + 0x1d]\n 13689: a4 = u8 [a0 + 0x1c]\n 13692: a5 = u8 [a0 + 0x1e]\n 13695: a2 = u8 [a0 + 0x1f]\n 13698: a3 = a3 << 0x8\n 13701: a3 = a3 | a4\n 13704: a5 = a5 << 0x10\n 13707: a2 = a2 << 0x18\n 13710: a2 = a2 | a5\n 13713: a2 = a2 | a3\n 13716: a2 = a2 << 0x20\n 13719: a3 = a2 | a1\n 13722: a1 = u8 [a0 + 0x9]\n 13725: a2 = u8 [a0 + 0x8]\n 13728: a4 = u8 [a0 + 0xa]\n 13731: a5 = u8 [a0 + 0xb]\n 13734: a1 = a1 << 0x8\n 13737: a1 = a1 | a2\n 13740: a4 = a4 << 0x10\n 13743: a5 = a5 << 0x18\n 13746: a4 = a4 | a5\n 13749: a1 = a1 | a4\n 13752: a2 = u8 [a0 + 0xd]\n 13755: a4 = u8 [a0 + 0xc]\n 13758: a5 = u8 [a0 + 0xe]\n 13761: a0 = u8 [a0 + 0xf]\n 13764: a2 = a2 << 0x8\n 13767: a2 = a2 | a4\n 13770: a5 = a5 << 0x10\n 13773: a0 = a0 << 0x18\n 13776: a0 = a0 | a5\n 13779: a0 = a0 | a2\n 13782: a0 = a0 << 0x20\n 13785: a0 = a0 | a1\n 13788: a0 = reverse a0\n 13790: u64 [s1 + 0x1b8] = a0\n 13794: a0 = reverse a3\n 13796: u64 [s1 + 0x1a0] = a0\n 13800: a0 = reverse t1\n 13802: u64 [s1 + 0x1b0] = a0\n 13806: a0 = reverse t0\n 13808: u64 [s1 + 0x1a8] = a0\n 13812: ecalli 8 // 'return_data_size'\n 13814: fallthrough\n      : @232 (gas: 12)\n 13815: a3 = u64 [s1 + 0x1a0]\n 13819: a1 = u64 [s1 + 0x1b0]\n 13823: a2 = u64 [s1 + 0x1a8]\n 13827: a1 = a1 | a2\n 13830: a4 = u64 [s1 + 0x1b8]\n 13834: a2 = a3 | a4\n 13837: a2 = a2 | a1\n 13840: a2 = a2 >> 0x20\n 13843: a1 = a1 | a4\n 13846: a1 = a1 << 0x20\n 13849: a1 = a1 | a2\n 13852: jump @234 if a1 == 0\n      : @233 (gas: 1)\n 13855: jump @174\n      : @234 (gas: 3)\n 13858: a2 = a0\n 13860: a0 = a0 >> 0x20\n 13863: jump @236 if a0 == 0\n      : @235 (gas: 1)\n 13866: jump @174\n      : @236 (gas: 6)\n 13869: i32 a0 = a3 + 0\n 13871: i32 a1 = a2 + 0\n 13873: u64 [s1 + 0x1b8] = a1\n 13877: u64 [s1 + 0x1a8] = a0\n 13881: u64 [s1 + 0x1b0] = a2\n 13885: ra = 126, jump @0\n      : @237 [@dyn 63] (gas: 8)\n 13890: a1 = u64 [s1 + 0x1b0]\n 13894: u32 [s1 + 0x5e0] = a1\n 13898: i32 a0 = a0 + 0\n 13900: i32 a1 = s1 + 0x5e0\n 13904: a2 = 0\n 13906: ecalli 7 // 'return_data_copy'\n 13908: a0 = i32 [s1 + 0x5e0]\n 13912: jump @203\n      : @238 (gas: 3)\n 13915: a0 = 0x40\n 13918: a1 = 0x20\n 13921: ra = 128, jump @0\n      : @239 [@dyn 64] (gas: 98)\n 13927: a1 = u8 [a0 + 0x11]\n 13930: a2 = u8 [a0 + 0x10]\n 13933: a3 = u8 [a0 + 0x12]\n 13936: a4 = u8 [a0 + 0x13]\n 13939: a1 = a1 << 0x8\n 13942: a1 = a1 | a2\n 13945: a3 = a3 << 0x10\n 13948: a4 = a4 << 0x18\n 13951: a3 = a3 | a4\n 13954: a1 = a1 | a3\n 13957: a2 = u8 [a0 + 0x15]\n 13960: a3 = u8 [a0 + 0x14]\n 13963: a4 = u8 [a0 + 0x16]\n 13966: a5 = u8 [a0 + 0x17]\n 13969: a2 = a2 << 0x8\n 13972: a2 = a2 | a3\n 13975: a4 = a4 << 0x10\n 13978: a5 = a5 << 0x18\n 13981: a4 = a4 | a5\n 13984: a2 = a2 | a4\n 13987: a2 = a2 << 0x20\n 13990: t0 = a2 | a1\n 13993: a2 = u8 [a0 + 0x1]\n 13996: a3 = u8 [a0]\n 13998: a4 = u8 [a0 + 0x2]\n 14001: a5 = u8 [a0 + 0x3]\n 14004: a2 = a2 << 0x8\n 14007: a2 = a2 | a3\n 14010: a4 = a4 << 0x10\n 14013: a5 = a5 << 0x18\n 14016: a4 = a4 | a5\n 14019: a2 = a2 | a4\n 14022: a3 = u8 [a0 + 0x5]\n 14025: a4 = u8 [a0 + 0x4]\n 14028: a5 = u8 [a0 + 0x6]\n 14031: a1 = u8 [a0 + 0x7]\n 14034: a3 = a3 << 0x8\n 14037: a3 = a3 | a4\n 14040: a5 = a5 << 0x10\n 14043: a1 = a1 << 0x18\n 14046: a1 = a1 | a5\n 14049: a1 = a1 | a3\n 14052: a1 = a1 << 0x20\n 14055: t1 = a1 | a2\n 14058: a1 = u8 [a0 + 0x19]\n 14061: a3 = u8 [a0 + 0x18]\n 14064: a4 = u8 [a0 + 0x1a]\n 14067: a5 = u8 [a0 + 0x1b]\n 14070: a1 = a1 << 0x8\n 14073: a1 = a1 | a3\n 14076: a4 = a4 << 0x10\n 14079: a5 = a5 << 0x18\n 14082: a4 = a4 | a5\n 14085: a1 = a1 | a4\n 14088: a3 = u8 [a0 + 0x1d]\n 14091: a4 = u8 [a0 + 0x1c]\n 14094: a5 = u8 [a0 + 0x1e]\n 14097: a2 = u8 [a0 + 0x1f]\n 14100: a3 = a3 << 0x8\n 14103: a3 = a3 | a4\n 14106: a5 = a5 << 0x10\n 14109: a2 = a2 << 0x18\n 14112: a2 = a2 | a5\n 14115: a2 = a2 | a3\n 14118: a2 = a2 << 0x20\n 14121: a3 = a2 | a1\n 14124: a1 = u8 [a0 + 0x9]\n 14127: a2 = u8 [a0 + 0x8]\n 14130: a4 = u8 [a0 + 0xa]\n 14133: a5 = u8 [a0 + 0xb]\n 14136: a1 = a1 << 0x8\n 14139: a1 = a1 | a2\n 14142: a4 = a4 << 0x10\n 14145: a5 = a5 << 0x18\n 14148: a4 = a4 | a5\n 14151: a1 = a1 | a4\n 14154: a2 = u8 [a0 + 0xd]\n 14157: a4 = u8 [a0 + 0xc]\n 14160: a5 = u8 [a0 + 0xe]\n 14163: a0 = u8 [a0 + 0xf]\n 14166: a2 = a2 << 0x8\n 14169: a2 = a2 | a4\n 14172: a5 = a5 << 0x10\n 14175: a0 = a0 << 0x18\n 14178: a0 = a0 | a5\n 14181: a0 = a0 | a2\n 14184: a0 = a0 << 0x20\n 14187: a0 = a0 | a1\n 14190: a0 = reverse a0\n 14192: u64 [s1 + 0x1b8] = a0\n 14196: a0 = reverse a3\n 14198: u64 [s1 + 0x1a0] = a0\n 14202: a0 = reverse t1\n 14204: u64 [s1 + 0x1b0] = a0\n 14208: a0 = reverse t0\n 14210: u64 [s1 + 0x1a8] = a0\n 14214: ecalli 8 // 'return_data_size'\n 14216: fallthrough\n      : @240 (gas: 12)\n 14217: a3 = u64 [s1 + 0x1a0]\n 14221: a1 = u64 [s1 + 0x1b0]\n 14225: a2 = u64 [s1 + 0x1a8]\n 14229: a1 = a1 | a2\n 14232: a4 = u64 [s1 + 0x1b8]\n 14236: a2 = a3 | a4\n 14239: a2 = a2 | a1\n 14242: a2 = a2 >> 0x20\n 14245: a1 = a1 | a4\n 14248: a1 = a1 << 0x20\n 14251: a1 = a1 | a2\n 14254: jump @242 if a1 == 0\n      : @241 (gas: 1)\n 14257: jump @174\n      : @242 (gas: 3)\n 14260: a2 = a0\n 14262: a0 = a0 >> 0x20\n 14265: jump @244 if a0 == 0\n      : @243 (gas: 1)\n 14268: jump @174\n      : @244 (gas: 6)\n 14271: i32 a0 = a3 + 0\n 14273: i32 a1 = a2 + 0\n 14275: u64 [s1 + 0x1b8] = a1\n 14279: u64 [s1 + 0x1a8] = a0\n 14283: u64 [s1 + 0x1b0] = a2\n 14287: ra = 130, jump @0\n      : @245 [@dyn 65] (gas: 8)\n 14293: a1 = u64 [s1 + 0x1b0]\n 14297: u32 [s1 + 0x540] = a1\n 14301: i32 a0 = a0 + 0\n 14303: i32 a1 = s1 + 0x540\n 14307: a2 = 0\n 14309: ecalli 7 // 'return_data_copy'\n 14311: a0 = i32 [s1 + 0x540]\n 14315: jump @203\n      : @246 (gas: 15)\n 14318: u64 [s1 + 600] = 0\n 14322: u64 [s1 + 592] = 0\n 14326: u64 [s1 + 584] = 0\n 14330: u64 [s1 + 576] = 0x20\n 14335: a0 = u64 [s1 + 0x188]\n 14339: u64 [s1 + 0x260] = a0\n 14343: a0 = u64 [s1 + 0x180]\n 14347: u64 [s1 + 0x268] = a0\n 14351: a0 = u64 [s1 + 0x190]\n 14355: u64 [s1 + 0x270] = a0\n 14359: a0 = s1 + 0x260\n 14363: a1 = s1 + 0x240\n 14367: a2 = u64 [s1 + 0x198]\n 14371: u64 [s1 + 0x278] = a2\n 14375: ra = 132, jump @287\n      : @247 [@dyn 66] (gas: 3)\n 14381: a1 = 0x20\n 14384: a0 = u64 [s1 + 0x1b8]\n 14388: ra = 134, jump @0\n      : @248 [@dyn 67] (gas: 67)\n 14394: a1 = u8 [a0 + 0x18]\n 14397: u64 [s1 + 0xe0] = a1\n 14401: a1 = u8 [a0 + 0x19]\n 14404: u64 [s1 + 0xc0] = a1\n 14408: a1 = u8 [a0 + 0x1a]\n 14411: u64 [s1 + 0xd0] = a1\n 14415: a1 = u8 [a0 + 0x1b]\n 14418: u64 [s1 + 0xc8] = a1\n 14422: a1 = u8 [a0 + 0x1c]\n 14425: u64 [s1 + 0xf8] = a1\n 14429: a1 = u8 [a0 + 0x1d]\n 14432: u64 [s1 + 0xd8] = a1\n 14436: a1 = u8 [a0 + 0x1e]\n 14439: u64 [s1 + 0xf0] = a1\n 14443: a1 = u8 [a0 + 0x1f]\n 14446: u64 [s1 + 0xe8] = a1\n 14450: a1 = u8 [a0 + 0x10]\n 14453: u64 [s1 + 0x120] = a1\n 14457: a1 = u8 [a0 + 0x11]\n 14460: u64 [s1 + 0x100] = a1\n 14464: a1 = u8 [a0 + 0x12]\n 14467: u64 [s1 + 0x110] = a1\n 14471: a1 = u8 [a0 + 0x13]\n 14474: u64 [s1 + 0x108] = a1\n 14478: a1 = u8 [a0 + 0x14]\n 14481: u64 [s1 + 0x138] = a1\n 14485: a1 = u8 [a0 + 0x15]\n 14488: u64 [s1 + 0x118] = a1\n 14492: a1 = u8 [a0 + 0x16]\n 14495: u64 [s1 + 0x130] = a1\n 14499: a1 = u8 [a0 + 0x17]\n 14502: u64 [s1 + 0x128] = a1\n 14506: a1 = u8 [a0 + 0x8]\n 14509: u64 [s1 + 0x160] = a1\n 14513: a1 = u8 [a0 + 0x9]\n 14516: u64 [s1 + 0x140] = a1\n 14520: a1 = u8 [a0 + 0xa]\n 14523: u64 [s1 + 0x150] = a1\n 14527: a1 = u8 [a0 + 0xb]\n 14530: u64 [s1 + 0x148] = a1\n 14534: a1 = u8 [a0 + 0xc]\n 14537: u64 [s1 + 0x178] = a1\n 14541: a1 = u8 [a0 + 0xd]\n 14544: u64 [s1 + 0x158] = a1\n 14548: a1 = u8 [a0 + 0xe]\n 14551: u64 [s1 + 0x170] = a1\n 14555: a1 = u8 [a0 + 0xf]\n 14558: u64 [s1 + 0x168] = a1\n 14562: a1 = u8 [a0]\n 14564: u64 [s1 + 0x1a0] = a1\n 14568: a1 = u8 [a0 + 0x1]\n 14571: u64 [s1 + 0x180] = a1\n 14575: a1 = u8 [a0 + 0x2]\n 14578: u64 [s1 + 0x190] = a1\n 14582: a1 = u8 [a0 + 0x3]\n 14585: u64 [s1 + 0x188] = a1\n 14589: a1 = u8 [a0 + 0x4]\n 14592: u64 [s1 + 0x1b8] = a1\n 14596: a1 = u8 [a0 + 0x5]\n 14599: u64 [s1 + 0x198] = a1\n 14603: a1 = u8 [a0 + 0x6]\n 14606: u64 [s1 + 0x1b0] = a1\n 14610: a0 = u8 [a0 + 0x7]\n 14613: u64 [s1 + 0x1a8] = a0\n 14617: a0 = 0x40\n 14620: a1 = 0x20\n 14623: ra = 136, jump @0\n      : @249 [@dyn 68] (gas: 100)\n 14629: a1 = u8 [a0 + 0x11]\n 14632: a2 = u8 [a0 + 0x10]\n 14635: a3 = u8 [a0 + 0x12]\n 14638: a4 = u8 [a0 + 0x13]\n 14641: a1 = a1 << 0x8\n 14644: a1 = a1 | a2\n 14647: a3 = a3 << 0x10\n 14650: a4 = a4 << 0x18\n 14653: a3 = a3 | a4\n 14656: a1 = a1 | a3\n 14659: a2 = u8 [a0 + 0x15]\n 14662: a3 = u8 [a0 + 0x14]\n 14665: a4 = u8 [a0 + 0x16]\n 14668: a5 = u8 [a0 + 0x17]\n 14671: a2 = a2 << 0x8\n 14674: a2 = a2 | a3\n 14677: a4 = a4 << 0x10\n 14680: a5 = a5 << 0x18\n 14683: a4 = a4 | a5\n 14686: a2 = a2 | a4\n 14689: a2 = a2 << 0x20\n 14692: t0 = a2 | a1\n 14695: a2 = u8 [a0 + 0x1]\n 14698: a3 = u8 [a0]\n 14700: a4 = u8 [a0 + 0x2]\n 14703: a5 = u8 [a0 + 0x3]\n 14706: a2 = a2 << 0x8\n 14709: a2 = a2 | a3\n 14712: a4 = a4 << 0x10\n 14715: a5 = a5 << 0x18\n 14718: a4 = a4 | a5\n 14721: a2 = a2 | a4\n 14724: a3 = u8 [a0 + 0x5]\n 14727: a4 = u8 [a0 + 0x4]\n 14730: a5 = u8 [a0 + 0x6]\n 14733: a1 = u8 [a0 + 0x7]\n 14736: a3 = a3 << 0x8\n 14739: a3 = a3 | a4\n 14742: a5 = a5 << 0x10\n 14745: a1 = a1 << 0x18\n 14748: a1 = a1 | a5\n 14751: a1 = a1 | a3\n 14754: a1 = a1 << 0x20\n 14757: t1 = a1 | a2\n 14760: a1 = u8 [a0 + 0x19]\n 14763: a3 = u8 [a0 + 0x18]\n 14766: a4 = u8 [a0 + 0x1a]\n 14769: a5 = u8 [a0 + 0x1b]\n 14772: a1 = a1 << 0x8\n 14775: a1 = a1 | a3\n 14778: a4 = a4 << 0x10\n 14781: a5 = a5 << 0x18\n 14784: a4 = a4 | a5\n 14787: a1 = a1 | a4\n 14790: a3 = u8 [a0 + 0x1d]\n 14793: a4 = u8 [a0 + 0x1c]\n 14796: a5 = u8 [a0 + 0x1e]\n 14799: a2 = u8 [a0 + 0x1f]\n 14802: a3 = a3 << 0x8\n 14805: a3 = a3 | a4\n 14808: a5 = a5 << 0x10\n 14811: a2 = a2 << 0x18\n 14814: a2 = a2 | a5\n 14817: a2 = a2 | a3\n 14820: a2 = a2 << 0x20\n 14823: a3 = a2 | a1\n 14826: a1 = u8 [a0 + 0x9]\n 14829: a2 = u8 [a0 + 0x8]\n 14832: a4 = u8 [a0 + 0xa]\n 14835: a5 = u8 [a0 + 0xb]\n 14838: a1 = a1 << 0x8\n 14841: a1 = a1 | a2\n 14844: a4 = a4 << 0x10\n 14847: a5 = a5 << 0x18\n 14850: a4 = a4 | a5\n 14853: a1 = a1 | a4\n 14856: a2 = u8 [a0 + 0xd]\n 14859: a4 = u8 [a0 + 0xc]\n 14862: a5 = u8 [a0 + 0xe]\n 14865: a0 = u8 [a0 + 0xf]\n 14868: a2 = a2 << 0x8\n 14871: a2 = a2 | a4\n 14874: a5 = a5 << 0x10\n 14877: a0 = a0 << 0x18\n 14880: a0 = a0 | a5\n 14883: a0 = a0 | a2\n 14886: a0 = a0 << 0x20\n 14889: a0 = a0 | a1\n 14892: a1 = reverse a0\n 14894: a0 = reverse a3\n 14896: a2 = reverse t1\n 14898: a3 = reverse t0\n 14900: a2 = a2 | a3\n 14903: a3 = a0 | a1\n 14906: a3 = a3 | a2\n 14909: a3 = a3 >> 0x20\n 14912: a1 = a1 | a2\n 14915: a1 = a1 << 0x20\n 14918: a1 = a1 | a3\n 14921: jump @251 if a1 == 0\n      : @250 (gas: 1)\n 14924: jump @174\n      : @251 (gas: 96)\n 14927: a1 = u64 [s1 + 0xc0]\n 14931: a1 = a1 << 0x8\n 14934: a2 = u64 [s1 + 0xe0]\n 14938: a1 = a1 | a2\n 14941: a2 = u64 [s1 + 0xd0]\n 14945: a2 = a2 << 0x10\n 14948: a3 = u64 [s1 + 0xc8]\n 14952: a3 = a3 << 0x18\n 14955: a2 = a2 | a3\n 14958: a1 = a1 | a2\n 14961: a2 = u64 [s1 + 0xd8]\n 14965: a2 = a2 << 0x8\n 14968: a3 = u64 [s1 + 0xf8]\n 14972: a2 = a2 | a3\n 14975: a3 = u64 [s1 + 0xf0]\n 14979: a3 = a3 << 0x10\n 14982: a4 = u64 [s1 + 0xe8]\n 14986: a4 = a4 << 0x18\n 14989: a3 = a3 | a4\n 14992: a2 = a2 | a3\n 14995: a2 = a2 << 0x20\n 14998: a1 = a1 | a2\n 15001: u64 [s1 + 0xf8] = a1\n 15005: a1 = u64 [s1 + 0x100]\n 15009: a1 = a1 << 0x8\n 15012: a2 = u64 [s1 + 0x120]\n 15016: a1 = a1 | a2\n 15019: a2 = u64 [s1 + 0x110]\n 15023: a2 = a2 << 0x10\n 15026: a3 = u64 [s1 + 0x108]\n 15030: a3 = a3 << 0x18\n 15033: a2 = a2 | a3\n 15036: a1 = a1 | a2\n 15039: a2 = u64 [s1 + 0x118]\n 15043: a2 = a2 << 0x8\n 15046: a3 = u64 [s1 + 0x138]\n 15050: a2 = a2 | a3\n 15053: a3 = u64 [s1 + 0x130]\n 15057: a3 = a3 << 0x10\n 15060: a4 = u64 [s1 + 0x128]\n 15064: a4 = a4 << 0x18\n 15067: a3 = a3 | a4\n 15070: a2 = a2 | a3\n 15073: a2 = a2 << 0x20\n 15076: a1 = a1 | a2\n 15079: u64 [s1 + 0x138] = a1\n 15083: a1 = u64 [s1 + 0x140]\n 15087: a1 = a1 << 0x8\n 15090: a2 = u64 [s1 + 0x160]\n 15094: a1 = a1 | a2\n 15097: a2 = u64 [s1 + 0x150]\n 15101: a2 = a2 << 0x10\n 15104: a3 = u64 [s1 + 0x148]\n 15108: a3 = a3 << 0x18\n 15111: a2 = a2 | a3\n 15114: a1 = a1 | a2\n 15117: a2 = u64 [s1 + 0x158]\n 15121: a2 = a2 << 0x8\n 15124: a3 = u64 [s1 + 0x178]\n 15128: a2 = a2 | a3\n 15131: a3 = u64 [s1 + 0x170]\n 15135: a3 = a3 << 0x10\n 15138: a4 = u64 [s1 + 0x168]\n 15142: a4 = a4 << 0x18\n 15145: a3 = a3 | a4\n 15148: a2 = a2 | a3\n 15151: a2 = a2 << 0x20\n 15154: a1 = a1 | a2\n 15157: u64 [s1 + 0x178] = a1\n 15161: a1 = u64 [s1 + 0x180]\n 15165: a1 = a1 << 0x8\n 15168: a2 = u64 [s1 + 0x1a0]\n 15172: a1 = a1 | a2\n 15175: a2 = u64 [s1 + 0x190]\n 15179: a2 = a2 << 0x10\n 15182: a3 = u64 [s1 + 0x188]\n 15186: a3 = a3 << 0x18\n 15189: a2 = a2 | a3\n 15192: a1 = a1 | a2\n 15195: a2 = u64 [s1 + 0x198]\n 15199: a2 = a2 << 0x8\n 15202: a3 = u64 [s1 + 0x1b8]\n 15206: a2 = a2 | a3\n 15209: a3 = u64 [s1 + 0x1b0]\n 15213: a3 = a3 << 0x10\n 15216: a4 = u64 [s1 + 0x1a8]\n 15220: a4 = a4 << 0x18\n 15223: a3 = a3 | a4\n 15226: a2 = a2 | a3\n 15229: a2 = a2 << 0x20\n 15232: a1 = a1 | a2\n 15235: u64 [s1 + 0x1b0] = a1\n 15239: i32 a0 = a0 + 0\n 15241: u64 [s1 + 0x1b8] = a0\n 15245: a1 = 0x20\n 15248: ra = 138, jump @0\n      : @252 [@dyn 69] (gas: 68)\n 15254: a3 = u64 [s1 + 0x138]\n 15258: u8 [a0 + 0x10] = a3\n 15261: a2 = u64 [s1 + 0x178]\n 15265: a1 = a2 >> 0x38\n 15268: u8 [a0 + 0xf] = a1\n 15271: a1 = a2 >> 0x30\n 15274: u8 [a0 + 0xe] = a1\n 15277: a1 = a2 >> 0x28\n 15280: u8 [a0 + 0xd] = a1\n 15283: a1 = a2 >> 0x20\n 15286: u8 [a0 + 0xc] = a1\n 15289: a1 = a2 >> 0x18\n 15292: u8 [a0 + 0xb] = a1\n 15295: a1 = a2 >> 0x10\n 15298: u8 [a0 + 0xa] = a1\n 15301: a1 = a2 >> 0x8\n 15304: u8 [a0 + 0x9] = a1\n 15307: u8 [a0 + 0x8] = a2\n 15310: a2 = u64 [s1 + 0x1b0]\n 15314: a1 = a2 >> 0x38\n 15317: u8 [a0 + 0x7] = a1\n 15320: a1 = a2 >> 0x30\n 15323: u8 [a0 + 0x6] = a1\n 15326: a1 = a2 >> 0x28\n 15329: u8 [a0 + 0x5] = a1\n 15332: a1 = a2 >> 0x20\n 15335: u8 [a0 + 0x4] = a1\n 15338: a1 = a2 >> 0x18\n 15341: u8 [a0 + 0x3] = a1\n 15344: a1 = a2 >> 0x10\n 15347: u8 [a0 + 0x2] = a1\n 15350: a1 = a2 >> 0x8\n 15353: u8 [a0 + 0x1] = a1\n 15356: u8 [a0] = a2\n 15358: a2 = u64 [s1 + 0xf8]\n 15362: u8 [a0 + 0x18] = a2\n 15365: a1 = a3 >> 0x38\n 15368: u8 [a0 + 0x17] = a1\n 15371: a1 = a3 >> 0x30\n 15374: u8 [a0 + 0x16] = a1\n 15377: a1 = a3 >> 0x28\n 15380: u8 [a0 + 0x15] = a1\n 15383: a1 = a3 >> 0x20\n 15386: u8 [a0 + 0x14] = a1\n 15389: a1 = a3 >> 0x18\n 15392: u8 [a0 + 0x13] = a1\n 15395: a1 = a3 >> 0x10\n 15398: u8 [a0 + 0x12] = a1\n 15401: a1 = a3 >> 0x8\n 15404: u8 [a0 + 0x11] = a1\n 15407: a1 = a2 >> 0x38\n 15410: u8 [a0 + 0x1f] = a1\n 15413: a1 = a2 >> 0x30\n 15416: u8 [a0 + 0x1e] = a1\n 15419: a1 = a2 >> 0x28\n 15422: u8 [a0 + 0x1d] = a1\n 15425: a1 = a2 >> 0x20\n 15428: u8 [a0 + 0x1c] = a1\n 15431: a1 = a2 >> 0x18\n 15434: u8 [a0 + 0x1b] = a1\n 15437: a1 = a2 >> 0x10\n 15440: u8 [a0 + 0x1a] = a1\n 15443: a1 = a2 >> 0x8\n 15446: u8 [a0 + 0x19] = a1\n 15449: a1 = 0x20\n 15452: a0 = u64 [s1 + 0x1b8]\n 15456: ra = 0x9c\n 15460: jump @0\n      : @253 (gas: 3)\n 15463: a0 = 0x40\n 15466: a1 = 0x20\n 15469: ra = 140, jump @0\n      : @254 [@dyn 70] (gas: 98)\n 15475: a1 = u8 [a0 + 0x11]\n 15478: a2 = u8 [a0 + 0x10]\n 15481: a3 = u8 [a0 + 0x12]\n 15484: a4 = u8 [a0 + 0x13]\n 15487: a1 = a1 << 0x8\n 15490: a1 = a1 | a2\n 15493: a3 = a3 << 0x10\n 15496: a4 = a4 << 0x18\n 15499: a3 = a3 | a4\n 15502: a1 = a1 | a3\n 15505: a2 = u8 [a0 + 0x15]\n 15508: a3 = u8 [a0 + 0x14]\n 15511: a4 = u8 [a0 + 0x16]\n 15514: a5 = u8 [a0 + 0x17]\n 15517: a2 = a2 << 0x8\n 15520: a2 = a2 | a3\n 15523: a4 = a4 << 0x10\n 15526: a5 = a5 << 0x18\n 15529: a4 = a4 | a5\n 15532: a2 = a2 | a4\n 15535: a2 = a2 << 0x20\n 15538: t0 = a2 | a1\n 15541: a2 = u8 [a0 + 0x1]\n 15544: a3 = u8 [a0]\n 15546: a4 = u8 [a0 + 0x2]\n 15549: a5 = u8 [a0 + 0x3]\n 15552: a2 = a2 << 0x8\n 15555: a2 = a2 | a3\n 15558: a4 = a4 << 0x10\n 15561: a5 = a5 << 0x18\n 15564: a4 = a4 | a5\n 15567: a2 = a2 | a4\n 15570: a3 = u8 [a0 + 0x5]\n 15573: a4 = u8 [a0 + 0x4]\n 15576: a5 = u8 [a0 + 0x6]\n 15579: a1 = u8 [a0 + 0x7]\n 15582: a3 = a3 << 0x8\n 15585: a3 = a3 | a4\n 15588: a5 = a5 << 0x10\n 15591: a1 = a1 << 0x18\n 15594: a1 = a1 | a5\n 15597: a1 = a1 | a3\n 15600: a1 = a1 << 0x20\n 15603: t1 = a1 | a2\n 15606: a1 = u8 [a0 + 0x19]\n 15609: a3 = u8 [a0 + 0x18]\n 15612: a4 = u8 [a0 + 0x1a]\n 15615: a5 = u8 [a0 + 0x1b]\n 15618: a1 = a1 << 0x8\n 15621: a1 = a1 | a3\n 15624: a4 = a4 << 0x10\n 15627: a5 = a5 << 0x18\n 15630: a4 = a4 | a5\n 15633: a1 = a1 | a4\n 15636: a3 = u8 [a0 + 0x1d]\n 15639: a4 = u8 [a0 + 0x1c]\n 15642: a5 = u8 [a0 + 0x1e]\n 15645: a2 = u8 [a0 + 0x1f]\n 15648: a3 = a3 << 0x8\n 15651: a3 = a3 | a4\n 15654: a5 = a5 << 0x10\n 15657: a2 = a2 << 0x18\n 15660: a2 = a2 | a5\n 15663: a2 = a2 | a3\n 15666: a2 = a2 << 0x20\n 15669: a3 = a2 | a1\n 15672: a1 = u8 [a0 + 0x9]\n 15675: a2 = u8 [a0 + 0x8]\n 15678: a4 = u8 [a0 + 0xa]\n 15681: a5 = u8 [a0 + 0xb]\n 15684: a1 = a1 << 0x8\n 15687: a1 = a1 | a2\n 15690: a4 = a4 << 0x10\n 15693: a5 = a5 << 0x18\n 15696: a4 = a4 | a5\n 15699: a1 = a1 | a4\n 15702: a2 = u8 [a0 + 0xd]\n 15705: a4 = u8 [a0 + 0xc]\n 15708: a5 = u8 [a0 + 0xe]\n 15711: a0 = u8 [a0 + 0xf]\n 15714: a2 = a2 << 0x8\n 15717: a2 = a2 | a4\n 15720: a5 = a5 << 0x10\n 15723: a0 = a0 << 0x18\n 15726: a0 = a0 | a5\n 15729: a0 = a0 | a2\n 15732: a0 = a0 << 0x20\n 15735: a0 = a0 | a1\n 15738: a0 = reverse a0\n 15740: u64 [s1 + 0x1b8] = a0\n 15744: a0 = reverse a3\n 15746: u64 [s1 + 0x1a0] = a0\n 15750: a0 = reverse t1\n 15752: u64 [s1 + 0x1b0] = a0\n 15756: a0 = reverse t0\n 15758: u64 [s1 + 0x1a8] = a0\n 15762: ecalli 8 // 'return_data_size'\n 15764: fallthrough\n      : @255 (gas: 12)\n 15765: a3 = u64 [s1 + 0x1a0]\n 15769: a1 = u64 [s1 + 0x1b0]\n 15773: a2 = u64 [s1 + 0x1a8]\n 15777: a1 = a1 | a2\n 15780: a4 = u64 [s1 + 0x1b8]\n 15784: a2 = a3 | a4\n 15787: a2 = a2 | a1\n 15790: a2 = a2 >> 0x20\n 15793: a1 = a1 | a4\n 15796: a1 = a1 << 0x20\n 15799: a1 = a1 | a2\n 15802: jump @257 if a1 == 0\n      : @256 (gas: 1)\n 15805: jump @174\n      : @257 (gas: 3)\n 15808: a2 = a0\n 15810: a0 = a0 >> 0x20\n 15813: jump @259 if a0 == 0\n      : @258 (gas: 1)\n 15816: jump @174\n      : @259 (gas: 6)\n 15819: i32 a0 = a3 + 0\n 15821: i32 a1 = a2 + 0\n 15823: u64 [s1 + 0x1b8] = a1\n 15827: u64 [s1 + 0x1a8] = a0\n 15831: u64 [s1 + 0x1b0] = a2\n 15835: ra = 142, jump @0\n      : @260 [@dyn 71] (gas: 8)\n 15841: a1 = u64 [s1 + 0x1b0]\n 15845: u32 [s1 + 0x6e0] = a1\n 15849: i32 a0 = a0 + 0\n 15851: i32 a1 = s1 + 0x6e0\n 15855: a2 = 0\n 15857: ecalli 7 // 'return_data_copy'\n 15859: a0 = i32 [s1 + 0x6e0]\n 15863: jump @203\n      : @261 (gas: 15)\n 15866: u64 [s1 + 920] = 0\n 15870: u64 [s1 + 912] = 0\n 15874: u64 [s1 + 904] = 0\n 15878: u64 [s1 + 896] = 0x20\n 15883: a0 = u64 [s1 + 0x1b8]\n 15887: u64 [s1 + 0x3a0] = a0\n 15891: a0 = u64 [s1 + 0x1b0]\n 15895: u64 [s1 + 0x3a8] = a0\n 15899: a0 = u64 [s1 + 0x160]\n 15903: u64 [s1 + 0x3b0] = a0\n 15907: a0 = s1 + 0x3a0\n 15911: a1 = s1 + 0x380\n 15915: a2 = u64 [s1 + 0x168]\n 15919: u64 [s1 + 0x3b8] = a2\n 15923: ra = 144, jump @287\n      : @262 [@dyn 72] (gas: 4)\n 15929: a1 = 0x20\n 15932: a0 = u64 [s1 + 0x1a8]\n 15936: ra = 0x86\n 15940: jump @0\n      : @263 (gas: 267)\n 15943: a0 = reverse ra\n 15945: a4 = reverse a4\n 15947: t0 = a1\n 15949: a1 = u64 [s1 + 0x198]\n 15953: a1 = reverse a1\n 15955: a5 = reverse t2\n 15957: u64 [s1 + 0x198] = a5\n 15961: t1 = 0x1\n 15964: a2 = a5\n 15966: a2 = t1 if a1 == 0\n 15969: ra = a3\n 15971: a3 = maxu(a5, t1)\n 15974: a3 = a2 if a1 != 0\n 15977: t2 = a4 >u 0\n 15979: a5 = a4\n 15981: u64 [s1 + 0x170] = a4\n 15985: u64 [s1 + 0x178] = a0\n 15989: a4 = a0 >u 0\n 15991: a4 = t2 if a0 == 0\n 15994: a2 = u64 [s1 + 0x198]\n 15998: a2 = t1 if a4 == 0\n 16001: a5 = a5 | a0\n 16004: a2 = a3 if a5 == 0\n 16007: u64 [s1 + 0x198] = a2\n 16011: a0 = a1\n 16013: a0 = 0 if a4 == 0\n 16015: a0 = a1 if a5 == 0\n 16018: u64 [s1 + 0x168] = a0\n 16022: t2 = 0x100000000\n 16032: a4 = u64 [s1 + 0x1b0]\n 16036: a1 = a4\n 16038: a0 = u64 [s1 + 0x1a8]\n 16042: a1 = t2 if a0 == 0\n 16045: a2 = maxu(a4, t2)\n 16048: a2 = a1 if a0 != 0\n 16051: u64 [s1 + 0x1b8] = ra\n 16055: a1 = ra >u 0\n 16057: a3 = t0 >u 0\n 16059: a3 = a1 if t0 == 0\n 16062: a4 = t2 if a3 == 0\n 16065: a5 = ra | t0\n 16068: a4 = a2 if a5 == 0\n 16071: a1 = a0\n 16073: a1 = 0 if a3 == 0\n 16075: a1 = a0 if a5 == 0\n 16078: a3 = u64 [s1 + 0x50]\n 16081: a2 = a4 - a3\n 16084: a0 = a2 + 0xffffffffffffffdf\n 16087: u64 [s1 + 0x190] = a0\n 16091: a2 = a0 <u a2\n 16094: a3 = a4 <u a3\n 16097: a5 = u64 [s1 + 0x20]\n 16100: a4 = a1 - a5\n 16103: a4 = a4 - a3\n 16106: t1 = a4 + a2\n 16109: t1 = t1 + 0xffffffffffffffff\n 16112: u64 [s1 + 0x160] = t1\n 16116: t0 = t1 ^ a4\n 16119: a0 = t1 <u a4\n 16122: a0 = a2 if t0 == 0\n 16125: u64 [s1 + 0x188] = a0\n 16129: a2 = a1 ^ a5\n 16132: a0 = a1 <u a5\n 16135: a0 = a3 if a2 == 0\n 16138: u64 [s1 + 0x180] = a0\n 16142: a0 = 0xffffffe0\n 16152: t2 = u64 [s1 + 0x30]\n 16155: t1 = a0 <u t2\n 16158: a5 = u64 [s1 + 0x40]\n 16161: a1 = a5 >u 0\n 16163: a1 = t1 if a5 == 0\n 16166: a3 = u64 [s1 + 0x38]\n 16169: a2 = -a3\n 16171: t0 = a2 - a1\n 16174: a1 = a2 <u a1\n 16177: a2 = a3 >u 0\n 16179: a3 = u64 [s1 + 0x48]\n 16182: a2 = a2 + a3\n 16185: a3 = -a2\n 16187: ra = a3 - a1\n 16190: a1 = t0 >u 0\n 16192: a4 = ra >u 0\n 16194: a4 = a1 if ra == 0\n 16197: a5 = -a5\n 16199: a5 = a5 - t1\n 16202: a2 = a0 - t2\n 16205: u64 [s1 + 0x80] = a0\n 16209: a1 = a0 <u a2\n 16212: a0 = a5 >u 0\n 16214: a0 = a1 if a5 == 0\n 16217: a1 = t0 | ra\n 16220: a0 = a4 if a1 != 0\n 16223: a4 = u64 [s1 + 0x1b8]\n 16227: a1 = a4\n 16229: a3 = u64 [s1 + 0x1a0]\n 16233: a1 = 0 if a3 == 0\n 16235: a1 = a4 if a3 == 0\n 16238: a3 = u64 [s1 + 0x58]\n 16241: a4 = a1 - a3\n 16244: u64 [s1 + 0x140] = a4\n 16248: a3 = u64 [s1 + 0x180]\n 16252: a4 = a4 - a3\n 16255: u64 [s1 + 0x148] = a4\n 16259: a4 = a4 + 0xffffffffffffffff\n 16262: u64 [s1 + 0x158] = a4\n 16266: a3 = u64 [s1 + 0x188]\n 16270: a3 = a3 + a4\n 16273: u64 [s1 + 0x150] = a3\n 16277: t2 = a3 << 0x3b\n 16280: t1 = u64 [s1 + 0x160]\n 16284: a4 = t1 >> 0x5\n 16287: a3 = a4 | t2\n 16290: u64 [s1 + 0x188] = a3\n 16294: t1 = t1 << 0x3b\n 16297: a3 = u64 [s1 + 0x190]\n 16301: a3 = a3 >> 0x5\n 16304: a3 = a3 | t1\n 16307: u64 [s1 + 0x190] = a3\n 16311: a2 = 0 if a0 != 0\n 16313: t2 = a2 + 0x1f\n 16316: a2 = t2 <u a2\n 16319: a5 = 0 if a0 != 0\n 16321: a4 = a5 + a2\n 16324: a5 = a4 <u a5\n 16327: a5 = a2 if a2 == 0\n 16330: t0 = 0 if a0 != 0\n 16332: a5 = a5 + t0\n 16335: a2 = a5 << 0x3b\n 16338: a3 = a4 >> 0x5\n 16341: a3 = a3 | a2\n 16344: u64 [s1 + 0x160] = a3\n 16348: a4 = a4 << 0x3b\n 16351: a2 = t2 >> 0x5\n 16354: t1 = a2 | a4\n 16357: a2 = u64 [s1 + 0x188]\n 16361: t2 = a2 ^ a3\n 16364: a4 = a2 <u a3\n 16367: a2 = u64 [s1 + 0x190]\n 16371: a2 = a2 <u t1\n 16374: a2 = a4 if t2 != 0\n 16377: a3 = u64 [s1 + 0x180]\n 16381: a4 = u64 [s1 + 0x140]\n 16385: t2 = a4 <u a3\n 16388: a3 = u64 [s1 + 0x58]\n 16391: a1 = a1 <u a3\n 16394: a3 = u64 [s1 + 0x18]\n 16397: a4 = u64 [s1 + 0x1a0]\n 16401: a4 = a4 - a3\n 16404: a4 = a4 - a1\n 16407: a4 = a4 - t2\n 16410: a1 = u64 [s1 + 0x148]\n 16414: a1 = a1 <u 0x1\n 16417: a4 = a4 - a1\n 16420: a3 = u64 [s1 + 0x150]\n 16424: a1 = u64 [s1 + 0x158]\n 16428: a1 = a3 <u a1\n 16431: a4 = a4 + a1\n 16434: a1 = a3 >> 0x5\n 16437: a3 = a4 << 0x3b\n 16440: t2 = a1 | a3\n 16443: ra = 0 if a0 != 0\n 16445: a0 = a5 <u t0\n 16448: ra = ra + a0\n 16451: a5 = a5 >> 0x5\n 16454: a0 = ra << 0x3b\n 16457: a5 = a5 | a0\n 16460: t0 = a4 >> 0x5\n 16463: ra = ra >> 0x5\n 16466: a1 = t2 <u a5\n 16469: a0 = t0 ^ ra\n 16472: a3 = t0 <u ra\n 16475: a3 = a1 if a0 == 0\n 16478: a1 = t2 ^ a5\n 16481: a0 = a0 | a1\n 16484: a3 = a2 if a0 == 0\n 16487: a2 = u64 [s1 + 0x190]\n 16491: a2 = t1 if a3 == 0\n 16494: u64 [s1 + 0x190] = a2\n 16498: a4 = u64 [s1 + 0x188]\n 16502: a0 = u64 [s1 + 0x160]\n 16506: a4 = a0 if a3 == 0\n 16509: u64 [s1 + 0x188] = a4\n 16513: t2 = a5 if a3 == 0\n 16516: t0 = ra if a3 == 0\n 16519: a1 = u64 [s1 + 0x198]\n 16523: a0 = a1 <u 0x1\n 16526: a3 = u64 [s1 + 0x168]\n 16530: t1 = a3 - a0\n 16533: a0 = a1 + 0xffffffffffffffff\n 16536: u64 [s1 + 0x180] = a0\n 16540: ra = t1 ^ a4\n 16543: a1 = t1 <u a4\n 16546: a5 = a0 <u a2\n 16549: a5 = a1 if ra != 0\n 16552: a2 = u64 [s1 + 0x170]\n 16556: a0 = a2\n 16558: a4 = u64 [s1 + 0x178]\n 16562: a0 = 0 if a4 == 0\n 16564: a0 = a2 if a4 == 0\n 16567: a1 = u64 [s1 + 0x198]\n 16571: a1 = a1 | a3\n 16574: a1 = a1 <u 0x1\n 16577: a2 = a0 - a1\n 16580: a0 = a0 <u a1\n 16583: a1 = a4 - a0\n 16586: a4 = a1 ^ t0\n 16589: a3 = a1 <u t0\n 16592: a0 = a2 <u t2\n 16595: a0 = a3 if a4 != 0\n 16598: a3 = a2 ^ t2\n 16601: a3 = a3 | a4\n 16604: a5 = a0 if a3 != 0\n 16607: t0 = a1 if a5 != 0\n 16610: t2 = a2 if a5 != 0\n 16613: a3 = u64 [s1 + 0x188]\n 16617: a3 = t1 if a5 != 0\n 16620: a1 = u64 [s1 + 0x190]\n 16624: a0 = u64 [s1 + 0x180]\n 16628: a1 = a0 if a5 != 0\n 16631: ra = u64 [s1 + 0x1a8]\n 16635: a0 = a1 >> 0x3b\n 16638: a2 = a1\n 16640: a1 = a3 << 0x5\n 16643: a5 = a3\n 16645: a0 = a0 | a1\n 16648: a2 = a2 << 0x5\n 16651: a4 = u64 [s1 + 0x20]\n 16654: a0 = a0 + a4\n 16657: a1 = u64 [s1 + 0x50]\n 16660: t1 = a1 + a2\n 16663: a1 = t1 <u a1\n 16666: a3 = a0 + a1\n 16669: a0 = a3 ^ a4\n 16672: a2 = a3 <u a4\n 16675: a2 = a1 if a0 == 0\n 16678: a0 = a5 >> 0x3b\n 16681: a1 = t2 << 0x5\n 16684: a0 = a0 | a1\n 16687: a1 = t2 >> 0x3b\n 16690: t0 = t0 << 0x5\n 16693: a1 = t0 | a1\n 16696: t2 = u64 [s1 + 0x40]\n 16699: a4 = u64 [s1 + 0x18]\n 16702: a1 = a1 + a4\n 16705: a4 = u64 [s1 + 0x58]\n 16708: a0 = a0 + a4\n 16711: a5 = a0 <u a4\n 16714: t0 = a1 + a5\n 16717: a5 = u64 [s1 + 0x30]\n 16720: a1 = a0 + a2\n 16723: a0 = a1 <u a0\n 16726: t0 = t0 + a0\n 16729: a0 = t1 + 0x60\n 16732: u64 [s1 + 0x78] = a0\n 16735: a0 = a0 <u t1\n 16738: a4 = u64 [s1 + 0x1b0]\n 16742: a2 = a3 + a0\n 16745: u64 [s1 + 0x70] = a2\n 16748: a2 = a2 <u a3\n 16751: a2 = a0 if a0 == 0\n 16754: a2 = a2 + a1\n 16757: u64 [s1 + 0x68] = a2\n 16760: a1 = a2 <u a1\n 16763: a1 = a1 + t0\n 16766: u64 [s1 + 0x60] = a1\n 16769: a0 = u64 [s1 + 0x38]\n 16772: fallthrough\n      : @264 (gas: 11)\n 16773: u64 [s1 + 0x1a8] = ra\n 16777: u64 [s1 + 0x1b0] = a4\n 16781: u64 [s1 + 0x38] = a0\n 16784: a1 = u64 [s1 + 0x48]\n 16787: a0 = a0 | a1\n 16790: a1 = u64 [s1 + 0x80]\n 16794: a1 = a5 <u a1\n 16797: u64 [s1 + 0x40] = t2\n 16800: a1 = 0 if t2 != 0\n 16802: a1 = 0 if a0 != 0\n 16804: jump @266 if a1 != 0\n      : @265 (gas: 1)\n 16807: jump @174\n      : @266 (gas: 6)\n 16810: a0 = a5 + 0x20\n 16813: u64 [s1 + 0x198] = a0\n 16817: i32 a0 = a0 + 0\n 16819: a1 = 0x20\n 16822: u64 [s1 + 0x30] = a5\n 16825: ra = 146, jump @0\n      : @267 [@dyn 73] (gas: 13)\n 16831: a3 = u64 [s1 + 0x1b0]\n 16835: a4 = u64 [s1 + 0x1b8]\n 16839: a1 = a3 | a4\n 16842: a2 = u64 [s1 + 0x1a0]\n 16846: a5 = u64 [s1 + 0x1a8]\n 16850: a2 = a2 | a5\n 16853: a1 = a1 | a2\n 16856: a1 = a1 >> 0x20\n 16859: u64 [s1 + 0x1b8] = a4\n 16863: a2 = a2 | a4\n 16866: a2 = a2 << 0x20\n 16869: a1 = a1 | a2\n 16872: jump @269 if a1 == 0\n      : @268 (gas: 1)\n 16875: jump @174\n      : @269 (gas: 82)\n 16878: a1 = u64 [s1 + 0x198]\n 16882: a2 = u64 [s1 + 0x30]\n 16885: a2 = a1 <u a2\n 16888: a1 = u64 [s1 + 0x40]\n 16891: a4 = a1 + a2\n 16894: u64 [s1 + 0x190] = a4\n 16898: a1 = a4 <u a1\n 16901: a1 = a2 if a2 == 0\n 16904: a2 = u8 [a0]\n 16906: u64 [s1 + 0x188] = a2\n 16910: a2 = u8 [a0 + 0x1]\n 16913: u64 [s1 + 0x180] = a2\n 16917: a2 = u8 [a0 + 0x2]\n 16920: u64 [s1 + 0x178] = a2\n 16924: a2 = u8 [a0 + 0x3]\n 16927: u64 [s1 + 0x170] = a2\n 16931: a2 = u8 [a0 + 0x4]\n 16934: u64 [s1 + 0x168] = a2\n 16938: a2 = u8 [a0 + 0x5]\n 16941: u64 [s1 + 0x160] = a2\n 16945: a2 = u8 [a0 + 0x6]\n 16948: u64 [s1 + 0x158] = a2\n 16952: a2 = u8 [a0 + 0x7]\n 16955: u64 [s1 + 0x148] = a2\n 16959: a2 = u8 [a0 + 0x8]\n 16962: u64 [s1 + 0x140] = a2\n 16966: a2 = u8 [a0 + 0x9]\n 16969: u64 [s1 + 0x138] = a2\n 16973: a2 = u8 [a0 + 0xa]\n 16976: u64 [s1 + 0x130] = a2\n 16980: a2 = u8 [a0 + 0xb]\n 16983: u64 [s1 + 0x128] = a2\n 16987: a2 = u8 [a0 + 0xc]\n 16990: u64 [s1 + 0x120] = a2\n 16994: a2 = u8 [a0 + 0xd]\n 16997: u64 [s1 + 0x118] = a2\n 17001: a2 = u8 [a0 + 0xe]\n 17004: u64 [s1 + 0x110] = a2\n 17008: a2 = u8 [a0 + 0xf]\n 17011: u64 [s1 + 0x108] = a2\n 17015: a2 = u8 [a0 + 0x10]\n 17018: u64 [s1 + 0x100] = a2\n 17022: a2 = u8 [a0 + 0x11]\n 17025: u64 [s1 + 0xf8] = a2\n 17029: a2 = u8 [a0 + 0x12]\n 17032: u64 [s1 + 0xf0] = a2\n 17036: a2 = u8 [a0 + 0x13]\n 17039: u64 [s1 + 0xe8] = a2\n 17043: a2 = u8 [a0 + 0x14]\n 17046: u64 [s1 + 0xe0] = a2\n 17050: a2 = u8 [a0 + 0x15]\n 17053: u64 [s1 + 0xd8] = a2\n 17057: a2 = u8 [a0 + 0x16]\n 17060: u64 [s1 + 0xd0] = a2\n 17064: a2 = u8 [a0 + 0x17]\n 17067: u64 [s1 + 0xc8] = a2\n 17071: a2 = u8 [a0 + 0x18]\n 17074: u64 [s1 + 0xc0] = a2\n 17078: a2 = u8 [a0 + 0x19]\n 17081: u64 [s1 + 0xb8] = a2\n 17085: a2 = u8 [a0 + 0x1a]\n 17088: u64 [s1 + 0xb0] = a2\n 17092: a2 = u8 [a0 + 0x1b]\n 17095: u64 [s1 + 0xa8] = a2\n 17099: a2 = u8 [a0 + 0x1c]\n 17102: u64 [s1 + 0xa0] = a2\n 17106: a2 = u8 [a0 + 0x1d]\n 17109: u64 [s1 + 0x98] = a2\n 17113: a2 = u8 [a0 + 0x1e]\n 17116: u64 [s1 + 0x90] = a2\n 17120: a0 = u8 [a0 + 0x1f]\n 17123: u64 [s1 + 0x88] = a0\n 17127: a0 = u64 [s1 + 0x38]\n 17130: a1 = a1 + a0\n 17133: u64 [s1 + 0x150] = a1\n 17137: a0 = a1 <u a0\n 17140: a1 = u64 [s1 + 0x48]\n 17143: a1 = a1 + a0\n 17146: u64 [s1 + 0x48] = a1\n 17149: i32 a0 = a3 + 0\n 17151: a1 = 0x20\n 17154: ra = 148, jump @0\n      : @270 [@dyn 74] (gas: 95)\n 17160: a1 = u64 [s1 + 0x88]\n 17164: u8 [a0 + 0x1f] = a1\n 17167: a1 = u64 [s1 + 0x90]\n 17171: u8 [a0 + 0x1e] = a1\n 17174: a1 = u64 [s1 + 0x98]\n 17178: u8 [a0 + 0x1d] = a1\n 17181: a1 = u64 [s1 + 0xa0]\n 17185: u8 [a0 + 0x1c] = a1\n 17188: a1 = u64 [s1 + 0xa8]\n 17192: u8 [a0 + 0x1b] = a1\n 17195: a1 = u64 [s1 + 0xb0]\n 17199: u8 [a0 + 0x1a] = a1\n 17202: a1 = u64 [s1 + 0xb8]\n 17206: u8 [a0 + 0x19] = a1\n 17209: a1 = u64 [s1 + 0xc0]\n 17213: u8 [a0 + 0x18] = a1\n 17216: a1 = u64 [s1 + 0xc8]\n 17220: u8 [a0 + 0x17] = a1\n 17223: a1 = u64 [s1 + 0xd0]\n 17227: u8 [a0 + 0x16] = a1\n 17230: a1 = u64 [s1 + 0xd8]\n 17234: u8 [a0 + 0x15] = a1\n 17237: a1 = u64 [s1 + 0xe0]\n 17241: u8 [a0 + 0x14] = a1\n 17244: a1 = u64 [s1 + 0xe8]\n 17248: u8 [a0 + 0x13] = a1\n 17251: a1 = u64 [s1 + 0xf0]\n 17255: u8 [a0 + 0x12] = a1\n 17258: a1 = u64 [s1 + 0xf8]\n 17262: u8 [a0 + 0x11] = a1\n 17265: a1 = u64 [s1 + 0x100]\n 17269: u8 [a0 + 0x10] = a1\n 17272: a1 = u64 [s1 + 0x108]\n 17276: u8 [a0 + 0xf] = a1\n 17279: a1 = u64 [s1 + 0x110]\n 17283: u8 [a0 + 0xe] = a1\n 17286: a1 = u64 [s1 + 0x118]\n 17290: u8 [a0 + 0xd] = a1\n 17293: a1 = u64 [s1 + 0x120]\n 17297: u8 [a0 + 0xc] = a1\n 17300: a1 = u64 [s1 + 0x128]\n 17304: u8 [a0 + 0xb] = a1\n 17307: a1 = u64 [s1 + 0x130]\n 17311: u8 [a0 + 0xa] = a1\n 17314: a1 = u64 [s1 + 0x138]\n 17318: u8 [a0 + 0x9] = a1\n 17321: a1 = u64 [s1 + 0x140]\n 17325: u8 [a0 + 0x8] = a1\n 17328: a1 = u64 [s1 + 0x148]\n 17332: u8 [a0 + 0x7] = a1\n 17335: a1 = u64 [s1 + 0x158]\n 17339: u8 [a0 + 0x6] = a1\n 17342: a1 = u64 [s1 + 0x160]\n 17346: u8 [a0 + 0x5] = a1\n 17349: a1 = u64 [s1 + 0x168]\n 17353: u8 [a0 + 0x4] = a1\n 17356: a1 = u64 [s1 + 0x170]\n 17360: u8 [a0 + 0x3] = a1\n 17363: a1 = u64 [s1 + 0x178]\n 17367: u8 [a0 + 0x2] = a1\n 17370: a1 = u64 [s1 + 0x180]\n 17374: u8 [a0 + 0x1] = a1\n 17377: a1 = u64 [s1 + 0x1b0]\n 17381: t1 = a1 + 0x20\n 17384: a3 = t1 <u a1\n 17387: a1 = u64 [s1 + 0x1a8]\n 17391: a2 = a1 + a3\n 17394: a4 = a2 <u a1\n 17397: a4 = a3 if a3 == 0\n 17400: a1 = u64 [s1 + 0x1b8]\n 17404: a3 = a1 + a4\n 17407: a4 = a3 <u a1\n 17410: a1 = u64 [s1 + 0x1a0]\n 17414: a1 = a1 + a4\n 17417: a4 = u64 [s1 + 0x68]\n 17420: a4 = a4 ^ a3\n 17423: a5 = u64 [s1 + 0x78]\n 17426: a5 = t1 ^ a5\n 17429: t0 = a5 | a4\n 17432: u64 [s1 + 0x1a0] = a1\n 17436: a4 = u64 [s1 + 0x60]\n 17439: a5 = a1 ^ a4\n 17442: a4 = u64 [s1 + 0x70]\n 17445: a4 = a4 ^ a2\n 17448: a4 = a4 | a5\n 17451: t0 = t0 | a4\n 17454: a1 = u64 [s1 + 0x188]\n 17458: u8 [a0] = a1\n 17460: a5 = u64 [s1 + 0x198]\n 17464: t2 = u64 [s1 + 0x190]\n 17468: a0 = u64 [s1 + 0x150]\n 17472: a4 = t1\n 17474: ra = a2\n 17476: u64 [s1 + 0x1b8] = a3\n 17480: jump @264 if t0 != 0\n      : @271 (gas: 29)\n 17484: t2 = u64 [s1 + 0x50]\n 17487: ra = t1 <u t2\n 17490: a4 = u64 [s1 + 0x20]\n 17493: t0 = a2 ^ a4\n 17496: a5 = a2 <u a4\n 17499: a5 = ra if t0 == 0\n 17502: t0 = u64 [s1 + 0x58]\n 17505: a1 = a3 - t0\n 17508: a0 = a3 <u t0\n 17511: u64 [s1 + 0x1b8] = a0\n 17515: a3 = u64 [s1 + 0x18]\n 17518: a0 = u64 [s1 + 0x1a0]\n 17522: t0 = a0 - a3\n 17525: a3 = a1 <u a5\n 17528: a0 = u64 [s1 + 0x1b8]\n 17532: a3 = a3 + a0\n 17535: a3 = t0 - a3\n 17538: a5 = a1 - a5\n 17541: a2 = a2 - a4\n 17544: a2 = a2 - ra\n 17547: a0 = t1 - t2\n 17550: a2 = a2 | a3\n 17553: a1 = a0 | a5\n 17556: a1 = a1 | a2\n 17559: a2 = a2 | a5\n 17562: a1 = a1 >> 0x20\n 17565: a2 = a2 << 0x20\n 17568: a1 = a1 | a2\n 17571: jump @273 if a1 == 0\n      : @272 (gas: 1)\n 17574: jump @174\n      : @273 (gas: 4)\n 17577: i32 a1 = a0 + 0\n 17579: u64 [s1 + 0x1b8] = a1\n 17583: a0 = u64 [s1 + 0x10]\n 17586: ra = 150, jump @0\n      : @274 [@dyn 75] (gas: 5)\n 17592: i32 a1 = a0 + 0\n 17594: a0 = 0\n 17596: a2 = u64 [s1 + 0x1b8]\n 17600: ecalli 9 // 'seal_return'\n 17602: fallthrough\n      : @275 (gas: 3)\n 17603: a0 = 0\n 17605: a1 = 0\n 17607: ra = 152, jump @0\n      : @276 [@dyn 76] (gas: 5)\n 17613: i32 a1 = a0 + 0\n 17615: a0 = 0x1\n 17618: a2 = 0\n 17620: ecalli 9 // 'seal_return'\n 17622: fallthrough\n      : @277 (gas: 8)\n 17623: a1 = u64 [s1 + 0x1a8]\n 17627: a1 = a1 << 0x20\n 17630: a1 = a1 >> 0x20\n 17633: u64 [s1 + 0x1a0] = a1\n 17637: i32 a0 = a0 + 0\n 17639: u64 [s1 + 0x1a8] = a0\n 17643: a1 = 0x20\n 17646: ra = 154, jump @0\n      : @278 [@dyn 77] (gas: 59)\n 17652: a1 = u64 [s1 + 0x1a0]\n 17656: a1 = reverse a1\n 17658: a2 = u64 [s1 + 0x1b0]\n 17662: a2 = reverse a2\n 17664: a3 = u64 [s1 + 0x1b8]\n 17668: a3 = reverse a3\n 17670: a4 = a3 >> 0x38\n 17673: u8 [a0 + 0x1f] = a4\n 17676: a4 = a3 >> 0x30\n 17679: u8 [a0 + 0x1e] = a4\n 17682: a4 = a3 >> 0x28\n 17685: u8 [a0 + 0x1d] = a4\n 17688: a4 = a3 >> 0x20\n 17691: u8 [a0 + 0x1c] = a4\n 17694: a4 = a3 >> 0x18\n 17697: u8 [a0 + 0x1b] = a4\n 17700: a4 = a3 >> 0x10\n 17703: u8 [a0 + 0x1a] = a4\n 17706: a4 = a3 >> 0x8\n 17709: u8 [a0 + 0x19] = a4\n 17712: u8 [a0 + 0x18] = a3\n 17715: u8 [a0 + 0x10] = a2\n 17718: u8 [a0 + 11] = 0\n 17721: u8 [a0 + 10] = 0\n 17724: u8 [a0 + 9] = 0\n 17727: u8 [a0 + 7] = 0\n 17730: u8 [a0 + 6] = 0\n 17733: u8 [a0 + 5] = 0\n 17736: u8 [a0 + 4] = 0\n 17739: u8 [a0 + 3] = 0\n 17742: u8 [a0 + 2] = 0\n 17745: u8 [a0 + 1] = 0\n 17748: u8 [a0 + 0] = 0\n 17750: a3 = a2 >> 0x38\n 17753: u8 [a0 + 0x17] = a3\n 17756: a3 = a2 >> 0x30\n 17759: u8 [a0 + 0x16] = a3\n 17762: a3 = a2 >> 0x28\n 17765: u8 [a0 + 0x15] = a3\n 17768: a3 = a2 >> 0x20\n 17771: u8 [a0 + 0x14] = a3\n 17774: a3 = a2 >> 0x18\n 17777: u8 [a0 + 0x13] = a3\n 17780: a3 = a2 >> 0x10\n 17783: u8 [a0 + 0x12] = a3\n 17786: a2 = a2 >> 0x8\n 17789: u8 [a0 + 0x11] = a2\n 17792: u8 [a0 + 0x8] = a1\n 17795: a2 = a1 >> 0x38\n 17798: u8 [a0 + 0xf] = a2\n 17801: a2 = a1 >> 0x30\n 17804: u8 [a0 + 0xe] = a2\n 17807: a2 = a1 >> 0x28\n 17810: u8 [a0 + 0xd] = a2\n 17813: a1 = a1 >> 0x20\n 17816: u8 [a0 + 0xc] = a1\n 17819: a1 = 0x20\n 17822: a0 = u64 [s1 + 0x1a8]\n 17826: ra = 156, jump @0\n      : @279 [@dyn 78] (gas: 7)\n 17832: i32 a1 = a0 + 0\n 17834: a2 = 0x20\n 17837: a0 = 0\n 17839: ecalli 9 // 'seal_return'\n 17841: a0 = 0\n 17843: ra = 0x98\n 17847: jump @0\n      : @280 (gas: 3)\n 17850: a0 = 0\n 17852: ra = 0x98\n 17856: jump @0\n      : @281 (gas: 8)\n 17859: u64 [s1 + 496] = 0\n 17863: u64 [s1 + 488] = 0\n 17867: u64 [s1 + 480] = 0\n 17871: a0 = 0x4e487b7100000000\n 17881: a1 = s1 + 0x1e0\n 17885: u64 [s1 + 0x1f8] = a0\n 17889: a0 = 0\n 17891: ra = 158, jump @8\n      : @282 [@dyn 79] (gas: 7)\n 17897: u64 [s1 + 472] = 0\n 17901: u64 [s1 + 464] = 0\n 17905: u64 [s1 + 448] = 0x41\n 17910: a0 = 0x4\n 17913: a1 = s1 + 0x1c0\n 17917: u64 [s1 + 456] = 0\n 17921: ra = 160, jump @8\n      : @283 [@dyn 80] (gas: 3)\n 17927: a1 = 0x24\n 17930: a0 = 0\n 17932: ra = 162, jump @0\n      : @284 [@dyn 81] (gas: 5)\n 17938: i32 a1 = a0 + 0\n 17940: a0 = 0x1\n 17943: a2 = 0x24\n 17946: ecalli 9 // 'seal_return'\n 17948: fallthrough\n      : @285 (gas: 8)\n 17949: u64 [s1 + 688] = 0\n 17953: u64 [s1 + 680] = 0\n 17957: u64 [s1 + 672] = 0\n 17961: a0 = 0x4e487b7100000000\n 17971: a1 = s1 + 0x2a0\n 17975: u64 [s1 + 0x2b8] = a0\n 17979: a0 = 0\n 17981: ra = 164, jump @8\n      : @286 [@dyn 82] (gas: 8)\n 17987: u64 [s1 + 664] = 0\n 17991: u64 [s1 + 656] = 0\n 17995: u64 [s1 + 640] = 0x41\n 18000: a0 = 0x4\n 18003: a1 = s1 + 0x280\n 18007: u64 [s1 + 648] = 0\n 18011: ra = 0xa0\n 18015: jump @8\n      : @287 (gas: 45)\n 18018: sp = sp + 0xffffffffffffff80\n 18021: u64 [sp + 0x78] = ra\n 18024: u64 [sp + 0x70] = s0\n 18027: u64 [sp + 0x68] = s1\n 18030: s0 = sp + 0x80\n 18034: sp = sp & 0xfffffffffffffff0\n 18037: a4 = u64 [a1]\n 18039: t1 = u64 [a0 + 0x8]\n 18042: a5 = u64 [a1 + 0x8]\n 18045: ra = u64 [a0]\n 18047: s1 = a4 + 0x1f\n 18050: t2 = s1 <u a4\n 18053: a2 = a5 + t2\n 18056: s1 = s1 & 0xffffffffffffffe0\n 18059: u64 [sp + 0x18] = ra\n 18062: ra = ra + s1\n 18065: a4 = ra <u s1\n 18068: a3 = a2 + t1\n 18071: t0 = a3 + a4\n 18074: a3 = t0 ^ a2\n 18077: s1 = t0 <u a2\n 18080: s1 = a4 if a3 == 0\n 18083: a4 = u64 [a0 + 0x18]\n 18086: a2 = a2 <u a5\n 18089: a3 = u64 [a1 + 0x10]\n 18092: a0 = u64 [a0 + 0x10]\n 18095: a1 = u64 [a1 + 0x18]\n 18098: a2 = t2 if t2 == 0\n 18101: a2 = a2 + a3\n 18104: a3 = a2 <u a3\n 18107: a5 = a2 + a0\n 18110: t2 = a5 + s1\n 18113: a2 = a5 <u a2\n 18116: s1 = t2 <u a5\n 18119: a1 = a1 + a4\n 18122: a1 = a1 + a3\n 18125: a1 = a1 + a2\n 18128: s1 = s1 + a1\n 18131: a1 = s1 >u 0\n 18133: a2 = t2 >u 0\n 18135: a2 = a1 if s1 != 0\n 18138: a1 = t2 | s1\n 18141: a3 = t0 >u 0\n 18143: a3 = a2 if a1 != 0\n 18146: jump @291 if a3 != 0\n      : @288 (gas: 13)\n 18150: a1 = u64 [sp + 0x18]\n 18153: a1 = ra <u a1\n 18156: a2 = t0 ^ t1\n 18159: a3 = t0 <u t1\n 18162: a3 = a1 if a2 == 0\n 18165: a1 = t2 <u a0\n 18168: a2 = s1 ^ a4\n 18171: a4 = s1 <u a4\n 18174: a4 = a1 if a2 == 0\n 18177: a0 = t2 ^ a0\n 18180: a0 = a0 | a2\n 18183: a4 = a3 if a0 == 0\n 18186: jump @291 if a4 != 0\n      : @289 (gas: 6)\n 18190: a0 = 0x40\n 18193: a1 = 0x20\n 18196: u64 [sp + 0x18] = ra\n 18199: u64 [sp + 0x10] = t0\n 18202: u64 [sp + 0x8] = t2\n 18205: ra = 166, jump @0\n      : @290 [@dyn 83] (gas: 73)\n 18211: a1 = reverse s1\n 18213: a2 = u64 [sp + 0x8]\n 18216: a2 = reverse a2\n 18218: a3 = u64 [sp + 0x10]\n 18221: a3 = reverse a3\n 18223: a4 = u64 [sp + 0x18]\n 18226: a4 = reverse a4\n 18228: u8 [a0 + 0x18] = a4\n 18231: a5 = a4 >> 0x38\n 18234: u8 [a0 + 0x1f] = a5\n 18237: a5 = a4 >> 0x30\n 18240: u8 [a0 + 0x1e] = a5\n 18243: a5 = a4 >> 0x28\n 18246: u8 [a0 + 0x1d] = a5\n 18249: a5 = a4 >> 0x20\n 18252: u8 [a0 + 0x1c] = a5\n 18255: a5 = a4 >> 0x18\n 18258: u8 [a0 + 0x1b] = a5\n 18261: a5 = a4 >> 0x10\n 18264: u8 [a0 + 0x1a] = a5\n 18267: a4 = a4 >> 0x8\n 18270: u8 [a0 + 0x19] = a4\n 18273: u8 [a0 + 0x10] = a3\n 18276: a4 = a3 >> 0x38\n 18279: u8 [a0 + 0x17] = a4\n 18282: a4 = a3 >> 0x30\n 18285: u8 [a0 + 0x16] = a4\n 18288: a4 = a3 >> 0x28\n 18291: u8 [a0 + 0x15] = a4\n 18294: a4 = a3 >> 0x20\n 18297: u8 [a0 + 0x14] = a4\n 18300: a4 = a3 >> 0x18\n 18303: u8 [a0 + 0x13] = a4\n 18306: a4 = a3 >> 0x10\n 18309: u8 [a0 + 0x12] = a4\n 18312: a3 = a3 >> 0x8\n 18315: u8 [a0 + 0x11] = a3\n 18318: u8 [a0 + 0x8] = a2\n 18321: a3 = a2 >> 0x38\n 18324: u8 [a0 + 0xf] = a3\n 18327: a3 = a2 >> 0x30\n 18330: u8 [a0 + 0xe] = a3\n 18333: a3 = a2 >> 0x28\n 18336: u8 [a0 + 0xd] = a3\n 18339: a3 = a2 >> 0x20\n 18342: u8 [a0 + 0xc] = a3\n 18345: a3 = a2 >> 0x18\n 18348: u8 [a0 + 0xb] = a3\n 18351: a3 = a2 >> 0x10\n 18354: u8 [a0 + 0xa] = a3\n 18357: a2 = a2 >> 0x8\n 18360: u8 [a0 + 0x9] = a2\n 18363: u8 [a0] = a1\n 18365: a2 = a1 >> 0x38\n 18368: u8 [a0 + 0x7] = a2\n 18371: a2 = a1 >> 0x30\n 18374: u8 [a0 + 0x6] = a2\n 18377: a2 = a1 >> 0x28\n 18380: u8 [a0 + 0x5] = a2\n 18383: a2 = a1 >> 0x20\n 18386: u8 [a0 + 0x4] = a2\n 18389: a2 = a1 >> 0x18\n 18392: u8 [a0 + 0x3] = a2\n 18395: a2 = a1 >> 0x10\n 18398: u8 [a0 + 0x2] = a2\n 18401: a1 = a1 >> 0x8\n 18404: u8 [a0 + 0x1] = a1\n 18407: sp = s0 + 0xffffffffffffff80\n 18410: ra = u64 [sp + 0x78]\n 18413: s0 = u64 [sp + 0x70]\n 18416: s1 = u64 [sp + 0x68]\n 18419: sp = sp + 0x80\n 18423: ret\n      : @291 (gas: 8)\n 18425: u64 [sp + 80] = 0\n 18428: u64 [sp + 72] = 0\n 18431: u64 [sp + 64] = 0\n 18434: a0 = 0x4e487b7100000000\n 18444: a1 = sp + 0x40\n 18447: u64 [sp + 0x58] = a0\n 18450: a0 = 0\n 18452: ra = 168, jump @8\n      : @292 [@dyn 84] (gas: 7)\n 18458: u64 [sp + 56] = 0\n 18461: u64 [sp + 48] = 0\n 18464: u64 [sp + 32] = 0x41\n 18468: a0 = 0x4\n 18471: a1 = sp + 0x20\n 18474: u64 [sp + 40] = 0\n 18477: ra = 170, jump @8\n      : @293 [@dyn 85] (gas: 3)\n 18483: a1 = 0x24\n 18486: a0 = 0\n 18488: ra = 172, jump @0\n      : @294 [@dyn 86] (gas: 7)\n 18494: i32 a1 = a0 + 0\n 18496: a0 = 0x1\n 18499: a2 = 0x24\n 18502: ecalli 9 // 'seal_return'\n 18504: a0 = 0\n 18506: ra = 0xae\n 18510: jump @10\n      : @295 [export #0: 'call'] (gas: 2)\n 18513: a0 = 0\n 18515: ra = 174, jump @10\n      : @296 [@dyn 87] [export #1: 'deploy'] (gas: 2)\n 18521: a0 = 0x1\n 18524: ra = 176, jump @10\n      : @297 [@dyn 88] (gas: 1)\n 18530: trap\n",
				"bytecode": {
					"object": "50564d00003253000000000000010700c11000c000400480da0d000000000400000012000000200000002e000000340000003f0000004c0000005c0000006c00000077000000890000009400000063616c6c63616c6c5f646174615f636f707963616c6c5f646174615f6c6f616463616c6c5f646174615f73697a6563616c6c65726765745f73746f726167657265665f74696d655f6c65667472657475726e5f646174615f636f707972657475726e5f646174615f73697a657365616c5f72657475726e7365745f696d6d757461626c655f646174617365745f73746f7261676576616c75655f7472616e73666572726564051302c051480463616c6cc05948066465706c6f7906c025525802c0634865004d015201c20150026a02da040b0620064406500674069d08e509950ab90bd50ce50cad0d130f5b10f81014122312ba121c1333133e15a416141846182a1a5d1bad1c161e811ecb1f7d2115223123412390246726ad2775289129a129612a782ae12b192c302c762d242eb12e412fba2f0030fd302732f933d53442366736d5372d383a382539963b733ce13d393ebf410843b844cd44f444a845e94507461246434623471a4833483e48594862488b791052093b3309010001ae9833c8780883881f8488e0553801000128390a000002ae8a123d080000023308100002c8870732003308100002c88707320000009511d87b10207b15187b161082897b19088289087b1982851082861883773308205010029f6f686f59821a6faa821b086fbb787b18787a10787908787898bc38787c1f98bc30787c1e98bc28787c1d98bc20787c1c98bc18787c1b98bc10787c1a98bb08787b1998ab38787b1798ab30787b1698ab28787b1598ab20787b1498ab18787b1398ab10787b1298aa08787a11989a38787a0f989a30787a0e989a28787a0d989a20787a0c989a18787a0b989a10787a0a98990878790998893878790798893078790698892878790598892078790498891878790398891078790298880878780182102082151882161095112832009511f07b10087b158475010a03013d07040002510507501004095010060305951120ff7b10d8007b15d0007b16c8009515e0008411e04911384911304911284911208317200a0c01821730821838821928821a20d49808d4a707d487075207720439070400027b171897772098772095771f8477e0957880007b1810d878067b1608946633074033082050100843fe6f688219086f99821a106faa46171a46171946171646171546171446171346171246171146170e46170d46170c46170b46170a4617094617074617064617054617044617034617024617014607787a1898ab38787b1f98ab30787b1e98ab28787b1d98ab20787b1c98aa18787a1b78791098993878791778780898883878780f33078000821618646850100ab5fd8377646833090a0101531620a9033307800033082050100c9bfd7c78097c79087c7a0a7c7b0b978808d4980897aa1097bb18d4ba0ad4a8087c790d7c7a0c7c7b0e7c7c0f979908d4a90997bb1097cc18d4cb0bd4b909979920d498087c79017c7a7c7b027c7c03979908d4a90997bb1097cc18d4cb0bd4b9097c7a057c7b047c7c067c760797aa08d4ba0a97cc10976618d46c0cd4ca0a97aa20d4a9096f9a6f8914080000000001000000d39808d4a8087b19109899208899017b1a1894a993895109f1027c78197c79187c7a1a7c7b1b978808d4980897aa1097bb18d4ba0ad4a8087c791d7c7a1c7c7b1e7c7c1f979908d4a90997bb1097cc18d4cb0bd4b909979920d498087c79117c7a107c7b127c7c13979908d4a90997bb1097cc18d4cb0bd4b9097c7a157c7b147c7c167c771797aa08d4ba0a97cc10977718d4c707d4a707977720d497076f777b17086f86492198004921900049218800492180004921b8004921b0004921a8004921a0004811602083188000831aa000831b603309ff33070a058017b4008218b800977720821910d49707821918d49808492198004921900049218800492180007b18b8007b17b0008217087b17a8007b16a00083188000831aa0003309ff330b2033070a0b8317400a048217488118508219406f77977a206f88988820d4a8087b18189877206f96976820d487077b171098662049219800492190004921880049218000014921b8004921b0004921a8004921a0004811602083188000831aa000831b603309ff33070a058017b4009777208218b800d4670749219800492190004921880049218000017b18b8007b17b0008217107b17a8008217187b17a00083188000831aa0003309ff330b2033070a0b33074033082050100e2bfb7c78117c79107c7a127c7b13978808d4980897aa1097bb18d4ba0ad4a8087c79157c7a147c7b167c7c17979908d4a90997bb1097cc18d4cb0bd4b909979920d489027c79017c7a7c7b027c7c03979908d4a90997bb1097cc18d4cb0bd4b9097c7a057c7b047c7c067c760797aa08d4ba0a97cc10976618d46c0cd4ca0a97aa20d4a9097c7a197c7b187c7c1a7c761b97aa08d4ba0a97cc10976618d46c0cd4ca0a7c7b1d7c7c1c7c761e7c781f97bb08d4cb0b976610978818d46808d4b808978820d48a0a7c78097c7b087c7c0a7c760b978808d4b80897cc10976618d46c0cd4c8087c7b0d7c7c0c7c760e7c770f97bb08d4cb0b976610977718d46707d4b707977720d487076f776fa66f986f29d49808d47609d48909989920d48707977720d497075107170033073308501010faf9837833070133090a0901836664673308501012e5f98377330833090a0101390808000251080d330710000383770a0a0164673308501014c1f98378330733093300160a09019511a0f87b1058077b1550077b164807951560078411e0641633074033082050101891f946171f800046171e46171d46171c46171b46171a46171946171846171746171646171546171446171346171246171146171046170f46170e46170d46170c46170b46170a461709461708461707461703330804000246170246170146077b68b80139080400024617064617054617045518040728dc3d8367c00333080a02018167dc035a47cfbb0a01c20651470df4d98828075147336332990a28d41c9517e08477e07b67b0016471491718491710491708490783770a0c01826ab00182a71082a81882a90882aad49808d4a707d48707510706287b3d8267b801817756174307286e3d836720073308040a020182693007826a380714080000000001000000d39808d4a8087b69a0019899208899017b6a980194a9938952090628343d826828077b688801826820077b689001492618074926100749260807492600070149263807492630074926280749262007482640072083680007836a2007836b40073309ff33070a05826728077b67b801826720077b67b001806730077b67a801836720060a04018267280682682006816930066f77987a206f88978b20d4ba0a9777206f99989920d497079888208269a801d398088269b001d39707d487078268b801d3a808d4870751070628e6234926180749261007492608074926000749263807492630074926280749262007482640072083680007836a2007836b40073309ff33070a05826730077b677801826728077b677001826720077b67800133074033082050101a68f77c78117c79107c7a127c7b13978808d4980897aa1097bb18d4ba0ad4a8087c79157c7a147c7b167c7c17979908d4a90997bb1097cc18d4cb0bd4b909979920d489027c79017c7a7c7b027c7c03979908d4a90997bb1097cc18d4cb0bd4b9097c7a057c7b047c7c067c780797aa08d4ba0a97cc10978818d4c808d4a808978820d498037c78197c7a187c7b1a7c7c1b978808d4a80897bb1097cc18d4cb0bd4b8087c7a1d7c7b1c7c7c1e7c791f97aa08d4ba0a97cc10979918d4c909d4a909979920d4890a7c78097c79087c7b0a7c7c0b978808d4980897bb1097cc18d4cb0bd4b8087c790d7c7b0c7c7c0e7c770f979908d4b90997cc10977718d4c707d49707977720d487076f7b6faa6f396f2cd49c07d4ba08d47808988820d4b707977720d4870751070628f61b83a73308207b67a8017b6968017b6b60017b6ab8017b6cb00150101c20f646171f46171e46171d46171c46171b46171a46171946171846171746171646171546171446171346171246171146171046170f46170e46170d46170c46170b46170a46170946170846170746170646170546170357461702c800461701e2004607648268680182696001d4890a140b00000000010000001408fcffffff000000008269b801d889088269b001949894a8461704520806283f1b8267a8018377043308207b6a58017b6b500150101e70f5826898016f888269a0016f99826a88016faa826b90016fbb98bc38787c1f98bc30787c1e98bc28787c1d98bc20787c1c98bc18787c1b98bc10787c1a98bc08787c19787b18787a1098ab38787b1798ab30787b1698ab28787b1598ab20787b1498ab18787b1398ab10787b1298aa08787a11787908989a38787a0f989a30787a0e989a28787a0d989a20787a0c989a18787a0b989a10787a0a9899087879097878988938787907988930787906988928787905988920787904988918787903988910787902988808787801836740063308240a0201826750019577dc8268b801d878078268b001948782685801948752070628331a826740067b67a001826748067b679801826750067b679001826758067b6788018267a8018377243308205010204cf4826888016f88826990016f99826a98016faa826ba0016fbb98bc38787c1f98bc30787c1e98bc28787c1d98bc20787c1c98bc18787c1b98bc10787c1a98bc08787c19787b1898ab38787b1798ab30787b1698ab28787b1598ab20787b1498ab18787b1398ab10787b1298ab08787b11787a10989a38787a0f989a30787a0e989a28787a0d989a20787a0c989a18787a0b989a10787a0a989a08787a0978790898893878790798893078790698892878790598892078790498891878790398891078790298890878790178780a06826770016f77977820826978016f99989920d49808826980016f99979a20987720d4a7079899207b6768067b6860067a697006492698064926900649268806492680063308448267a80150102230f37b67a0013308208267a80150102420f34826a006204926d806ff4926d006ff4926c806ff4926c006ff9568600697882098882014090000000008000000d49802956880069788209888209569c006979920d4890a8268a00197882098882014090000000044000000d4980b9777209877209568a006978820d4780c3308ff3309ff64270a01510706280a2f0a0801531720072893300a087b67a0014926580349265003492648037b674003826760017b6770038267b0017b6768038267b8017b6760039567600395684003826968017b697803501026ba388268a00154181f12372883305247d0bb0a010a281a135147d1d7d5380a28f1179517e08477e07b67b0016471491718491710491708490783770a0c01826ab00182a71082a81882a90882aad49808d4a707d4870751070628bf368267b80181775617030728b236492618074926100749260807492600072821169517e08477e07b67b0016471491718491710491708490783770a0c01826ab00182a71082a81882a90882aad49808d4a707d487075107062865368267b801817756172307285836836720073308040a0201826830078269380714070000000001000000d38707d497077b6898019888208888017b69900194989378520806281537826728077b678001826720077b6788014926180749261007492608074926000749263807492630074926280749262007482640072083680007836a2007836b40073309ff33070a05826730077b67a801826728077b67a001826720077b67b001330740330820501028f2f07c78117c79107c7a127c7b13978808d4980897aa1097bb18d4ba0ad4a8087c79157c7a147c7b167c7c17979908d4a90997bb1097cc18d4cb0bd4b909979920d489027c79017c7a7c7b027c7c03979908d4a90997bb1097cc18d4cb0bd4b9097c7a057c7b047c7c067c780797aa08d4ba0a97cc10978818d4c808d4a808978820d498037c78197c7a187c7b1a7c7c1b978808d4a80897bb1097cc18d4cb0bd4b8087c7a1d7c7b1c7c7c1e7c791f97aa08d4ba0a97cc10979918d4c909d4a909979920d4890a7c78097c79087c7b0a7c7c0b978808d4980897bb1097cc18d4cb0bd4b8087c790d7c7b0c7c7c0e7c770f979908d4b90997cc10977718d4c707d49707977720d487076f796fac6f3a6f2bd4ab07d49c08d47808988820d49707977720d4870751070628801583c73308207b67b8017b6978017b6a70017b6b68017b6c600150102aaaef4617031c4617021546170162460784008268780182697001d489091408fcffffff00000000826a6001d88a08826a680194a8949846171f46171e46171d46171c46171b46171a46171946171846171746171646171546171446171346171246171146171046170f46170e46170d46170c46170b46170a46170946170846170746170646170546170452080628d4148267b80183770433082050102c0def826890016f88826998016f99826a80016faa826b88016fbb98bc38787c1f98bc30787c1e98bc28787c1d98bc20787c1c98bc18787c1b98bc10787c1a98bc08787c19787b18787a1098ab38787b1798ab30787b1698ab28787b1598ab20787b1498ab18787b1398ab10787b1298aa08787a11787908989a38787a0f989a30787a0e989a28787a0d989a20787a0c989a18787a0b989a10787a0a98990878790978789889387879079889307879069889287879059889207879049889187879039889107879029888087878010a068267a0016f779778208269a8016f99989920d498088269b0016f99979a20987720d4a7079899207b6768057b6860057a697005492698054926900549268805492680053308248267b80150102ef1ed7b67b0018267b8013308501030e2ed4826a0054926d8054926d0054926c8054926c0059568600597882098882014090000000018000000d49802956880059788209888209569c005979920d4890a8268b00197882098882014090000000024000000d4980b9777209877209568a005978820d4780c3308ff3309ff64270a015107062834220a0801647998772051070628161383987b68a8018267b8017b69b0015010324bed8268b0017a68000683778368000633090a0701816700068268a801ae870628e2124926180349261003492608038267b0017b670003826760017b672003826768017b672803826778017b6730039567200395680003826970017b6938035010344b338268b00156181f07289f313308208267b801501036d2ec7c78097c79087c7a0a7c7b0b978808d4980897aa1097bb18d4ba0ad4a8087c790d7c7a0c7c7b0e7c7c0f979908d4a90997bb1097cc18d4cb0bd4b909979920d489027c79017c7a7c7b027c7c03979908d4a90997bb1097cc18d4cb0bd4b9097c7a057c7b047c7c067c780797aa08d4ba0a97cc10978818d4c808d4a808978820d498037c78117c7a107c7b127c7c13978808d4a80897bb1097cc18d4cb0bd4b8087c7a157c7b147c7c167c791797aa08d4ba0a97cc10979918d4c909d4a909979920d498086f8a6f336f287b68a801d4380b88ac0194bc520c0628b6307c7b197c7c187c791a7c781b97bb08d4cb0b979910978818d49808d4b8087c791d7c7b1c7c7c1e7c771f979908d4b90997cc10977718d4c707d49707977720d487076f77826b6001c8b70cd87c0882626801c82a07c88704d3a409d8a407da98078269b001c8b909d8b90095c81f7b6cb801d8c80a7b6ab0017b69a001d8980cc80209c8a408d3980bd8980adbba0c7b699801d82909da0009826a7801c89a00d8a009826b7001c89b02c8b303826ba801c8ab09d8b90ac83a0ac8790bd89b07c87a03d848078268b001da8807c8b707d8b708c83808d328097b62a801d82808d8070ada9a08d30707d49707db780c520c0628c12f8269b801d4b907d43408d48707987720d4b808978820d487075107062899107b6358017b6b60017b6070017b6478018397330820501038c7ea7c78097c79087c7a0a7c7b0b978808d4980897aa1097bb18d4ba0ad4a8087c790d7c7a0c7c7b0e7c7c0f979908d4a90997bb1097cc18d4cb0bd4b909979920d489047c78017c797c7a027c7b03978808d4980897aa1097bb18d4ba0ad4a8087c79057c7a047c7b067c7c07979908d4a90997bb1097cc18d4cb0bd4b909979920d489027c78117c79107c7a127c7b13978808d4980897aa1097bb18d4ba0ad4a8087c79157c7a147c7b167c7c17979908d4a90997bb1097cc18d4cb0bd4b909979920d498087b6848016f837b6250016f227b6468016f49d4290b883c0194bc520c0628fd2f7c7b197c7c187c7a1a7c781b97bb08d4cb0b97aa10978818d4a808d4b8087c7a1d7c7b1c7c7c1e7c771f97aa08d4ba0a97cc10977718d4c707d4a707977720d487077b6740016f7798983b972205d482087b68b00198383b979905d498087b68900198783b973305d483087b6888019777057b67800133074033082050103a61e97c78017c797c7a027c7b03978808d4980897aa1097bb18d4ba0ad4a8087c79057c7a047c7b067c7c07979908d4a90997bb1097cc18d4cb0bd4b909979920d489027c79097c7a087c7b0a7c7c0b979908d4a90997bb1097cc18d4cb0bd4b9097c7a0d7c7b0c7c7c0e7c780f97aa08d4ba0a97cc10978818d4c808d4a808978820d498037c78117c7a107c7b127c7c13978808d4a80897bb1097cc18d4cb0bd4b8087c7a157c7b147c7c167c791797aa08d4ba0a97cc10979918d4c909d4a909979920d4890a7c78197c79187c7b1a7c7c1b978808d4980897bb1097cc18d4cb0bd4b8087c791d7c7b1c7c7c1e7c771f979908d4b90997cc10977718d4c707d49707977720d487076f747b64306fa07b60406f337b63386f2c7b6c4882688001958720d88708826a8801c88a09d8a90ada880a82689001c88a0ad88a08826bb001c88b0b7b67c0027b69c8027b6ad0027b6cf8027b63f0027b60e8027b64e0029567e0029568c0027b6bd80250103c532e826840826a30826748d48707826c38d4ca08d47808988820d4c707977720d487075207850d83a73308207b672850103ebfe78268b801958a20d88a0282698001c8a90982647801c8240082688801c808087b6ab801d8a90bc8b80cd30c08d80c0ada8b0a82689801d38c0b7b6c68d8c80c8268a0017b6970d89803dbbc03d8400bda220b82696001c8b908d89809826b5801c89b0482699001c88909826bb001c84b0b7b68b001d8890cc8cb0bc8a908d89809c89b0b826aa801d3ab097b6b58d8ba0a826c7001d88c0bdb9a0b7b6860d3c80ad4a909db9b03826a680198a93878790f98a93078790e98a92878790d98a92078790c98a91878790b98a91078790a98a908787909826b500198b93878790798b93078790698b92878790598b92078790498b91878790398b91078790298b908787901826c480198c93878791798c93078791698c92878791598c92078791498c91878791398c91078791298c9087879118268400198893878791f98893078791e98892878791d98892078791c98891878791b98891078791a988908787919787c10787a08787b78781851030628102bd4cb07d4a808d487078268408262b801826bb0015107d8021407e0ffffff000000007b6750826330648c8269388267487b67a80101d4b207d44008d48707987720d4b808978820d487075207ba0b7b6bb0017b6080017b64880183273308207b62b8017b69a0017b6398017b6c9001501040dbe582689001826b9801826ca001826aa801d4ac02826950d89b09948994295109730b95b920d8b90b64927b69f800c8b8097b699801d88908dabb087c797b6990017c79017b6978017c79027b6970017c79037b6968017c79047b6960017c79057b6958017c79067b6950017c79077b6948017c79087b6940017c79097b6938017c790a7b6930017c790b7b6928017c790c7b6920017c790d7b6918017c790e7b6908017c790f7b6900017c79107b69f0007c79117b69e8007c79127b69e0007c79137b69d8007c79147b69d0007c79157b69c8007c79167b69c0007c79177b69b8007c79187b69b0007c79197b69a8007c791a7b69a0007c791b7b6998007c791c7b6990007c791d7b6988007c791e7b6980007c771f7b6778c8c8087b681001d8c807c87a0a7b6aa8018327330820501042a8e48268b801958220d88204826b8001c84b03826870d8820c826968d39308d8930ada8c0ad8b308da44088269b001c8890bd89b0882648801c88404826860d88b00826958d3940cd89409dac009d3b808d4c808db890a82687878781f8268800078781e8268880078781d8268900078781c8268980078781b8268a00078781a8268a8007878198268b0007878188268b8007878178268c0007878168268c8007878158268d0007878148268d8007878138268e0007878128268e8007878118268f0007878108268000178780f8268080178780e8268180178780d8268200178780c8268280178780b8268300178780a82683801787809826840017878088268480178780782685001787806826858017878058268600178780482686801787803826870017878028268780178780182689001787864308263f800826c980182691001520a4dfd33074033082050104458e37c78197c79187c7a1a7c7b1b978808d4980897aa1097bb18d4ba0ad4a8087c791d7c7a1c7c7b1e7c7c1f979908d4a90997bb1097cc18d4cb0bd4b909979920d489027c79117c7a107c7b127c7c13979908d4a90997bb1097cc18d4cb0bd4b9097c7a157c7b147c7c167c781797aa08d4ba0a97cc10978818d4c808d4a808978820d498037c78097c7a087c7b0a7c7c0b978808d4a80897bb1097cc18d4cb0bd4b8087c7a0d7c7b0c7c7c0e7c790f97aa08d4ba0a97cc10979918d4c909d4a909979920d4890a7c78017c797c7b027c7c03978808d4980897bb1097cc18d4cb0bd4b8087c79057c7b047c7c067c7707979908d4b90997cc10977718d4c707d49707977720d487076f7b6fac6f3a6f29d4ba07d4c908d47808988820d4c707977720d487075207e9079597207b67b001d89702c82a077b67b801d8a708da2208c8c8087b68a001d8c807c8b7077b67a80183973308207b67107b69507b6a207b6b187b6c58501046efe146171f2046171e46171d46171c46171b46171a46171946171846171746171646171546171446171346171246171146171046170f46170e46170d46170c46170b46170a461709461708461707461706461705461704461703461702461701460733082082672850104884e18262b001826aa001d4a2088269b801826ba801d4b909d49808988820d4a909979920d49808520814077c78197c79187c7a1a7c7b1b978808d4980897aa1097bb18d4ba0ad4a8087c791d7c7a1c7c7b1e7c7c1f979908d4a90997bb1097cc18d4cb0bd4b909979920d498087b6890017c78117c79107c7a127c7b13978808d4980897aa1097bb18d4ba0ad4a8087c79157c7a147c7b167c7c17979908d4a90997bb1097cc18d4cb0bd4b909979920d498087b6898017c78097c79087c7a0a7c7b0b978808d4980897aa1097bb18d4ba0ad4a8087c790d7c7a0c7c7b0e7c7c0f979908d4a90997bb1097cc18d4cb0bd4b909979920d498087b6888017c78017c797c7a027c7b03978808d4980897aa1097bb18d4ba0ad4a8087c79057c7a047c7b067c7707979908d4a90997bb10977718d4b707d49707977720d487077b678001832733082050104a3ae082649001826298017872108269880198983878780f98983078780e98982878780d98982078780c98981878780b98981078780a989808787809787908649b82608001980838787807980830787806980828787805980820787804980818787803980810787802980808787801787078741898283878781798283078781698282878781598282078781498281878781398281078781298280878781198483878781f98483078781e98482878781d98482078781c98481878781b98481078781a9848087878198268509587407b67b001d88707826920c879087b68a801d89808da7708826c58c88c0ad42007d44b08d48707d8ca08826c18c8c8087b68a001510706287b1d8263b0018269a8012875239517e08477e07b67b0016471491718491710491708490783770a0c01826ab00182a71082a81882a90882aad49808d4a707d4870751070628b2238267b80181775617230728a5234926180749261007492608074926000749263807492630074926280749262007482640072083680007836a2007836b40073309ff33070a05826720077b67b801826730077b67b001826728077b67a8013307800033082050104c88de46171f46171e46171d46171c46171b46171a46171946171846171746171646171546171446171346171246171146171046170f46170e46170d46170c46170b46170a4617094617084617074617064617054617044617031e46170221461701524607638367e0033308040a028267e0037b67a0018267e8037b6798018267f0037b6790018267f8037b6788013307840033082050104ef0dd826888016f88826990016f99826a98016faa826ba0016fbb98bc38787c1f98bc30787c1e98bc28787c1d98bc20787c1c98bc18787c1b98bc10787c1a98bc08787c19787b1898ab38787b1798ab30787b1698ab28787b1598ab20787b1498ab18787b1398ab10787b1298ab08787b11787a10989a38787a0f989a30787a0e989a28787a0d989a20787a0c989a18787a0b989a10787a0a989a08787a0978790898893878790798893078790698892878790598892078790498891878790398891078790298890878790178780a068267a8016f779778208269b0016f99989920d498089877208269b8016f99979a20d4a7079899207b6708047b6800047a6910044926380449263004492628044926200433078000330824501050d4dc7b67b80133078000330820501052c4dc4826400420492678044926700449266804492660049568000497882098882014090000000018000000d498029568200497882098882095696004979920d4890a8268b80197882098882014090000000024000000d4980b97772098772095684004978820d4780c3308ff3309ff64270a015207bb060a0801330920ae97090c0a080195781f647ad878078489e0889880947852080628ed21330b7b6ab80128f00b5147e74af8bd0a28da209517e08477e07b67b0016471491718491710491708490783770a0c01826ab00182a71082a81882a90882aad49808d4a707d4870751070628a0208267b80181775617030728932049261807492610074926080749260007010149263807492630074926280749262007482640072083680007836a2007836b40073309ff33070a05826730077b67a801826728077b67b001826720077b67b80133074033082050105475db7c78117c79107c7a127c7b13978808d4980897aa1097bb18d4ba0ad4a8087c79157c7a147c7b167c7c17979908d4a90997bb1097cc18d4cb0bd4b909979920d489027c79017c7a7c7b027c7c03979908d4a90997bb1097cc18d4cb0bd4b9097c7a057c7b047c7c067c780797aa08d4ba0a97cc10978818d4c808d4a808978820d498037c78197c7a187c7b1a7c7c1b978808d4a80897bb1097cc18d4cb0bd4b8087c7a1d7c7b1c7c7c1e7c791f97aa08d4ba0a97cc10979918d4c909d4a909979920d4890a7c78097c79087c7b0a7c7c0b978808d4980897bb1097cc18d4cb0bd4b8087c790d7c7b0c7c7c0e7c770f979908d4b90997cc10977718d4c707d49707977720d487076f786fa76f396f2ad4a909d4870ad49a0a98aa20d49808978820d4a80852080628201f00514756cddc480a28011f9517e08477e07b67b0016471491718491710491708490783770a0c01826ab00182a71082a81882a90882aad49808d4a707d4870751070628c71e8267b80181775617230728ba1e4926180749261007492608074926000749263807492630074926280749262007482640072083680007836a2007836b40073309ff33070a05826730077b67a801826728077b67a001826720077b67b0013307403308205010569ed97c78117c79107c7a127c7b13978808d4980897aa1097bb18d4ba0ad4a8087c79157c7a147c7b167c7c17979908d4a90997bb1097cc18d4cb0bd4b909979920d489027c79017c7a7c7b027c7c03979908d4a90997bb1097cc18d4cb0bd4b9097c7a057c7b047c7c067c780797aa08d4ba0a97cc10978818d4c808d4a808978820d498037c78197c7a187c7b1a7c7c1b978808d4a80897bb1097cc18d4cb0bd4b8087c7a1d7c7b1c7c7c1e7c791f97aa08d4ba0a97cc10979918d4c909d4a909979920d4890a7c78097c79087c7b0a7c7c0b978808d4980897bb1097cc18d4cb0bd4b8087c790d7c7b0c7c7c0e7c770f979908d4b90997cc10977718d4c707d49707977720d487076f7b6faa6f396f2cd49c07d4ba08d47808988820d4b707977720d4870752072ffe83a73308207b67b8017b6998017b6b90017b6a88017b6c800150105858d846171f46171e46171d46171c46171b46171a46171946171846171746171646171546171446171346171246171146171046170f46170e46170d46170c46170b46170a461709461708461707461706461705461704461703da00461702c000461701a6004607ea008367a0043308040a02018267980182689001d487071408fcffffff0000000082698801d889088269800194989478510878fd8267a0047b6778018267a8047b6770018267b0047b6768018267b8047b6760018267b80183770433082050105a90d7826860016f88826968016f99826a70016faa826b78016fbb98bc38787c1f98bc30787c1e98bc28787c1d98bc20787c1c98bc18787c1b98bc10787c1a98bc08787c19787b1898ab38787b1798ab30787b1698ab28787b1598ab20787b1498ab18787b1398ab10787b1298ab08787b11787a10989a38787a0f989a30787a0e989a28787a0d989a20787a0c989a18787a0b989a10787a0a989a08787a0978790898893878790798893078790698892878790598892078790498891878790398891078790298890878790178780a068267a0016f779778208269a8016f99989920d498088269b0016f99979a20987720d4a7079899207b67c8047b68c0047a69d0044926f8044926f0044926e8044926e0043308248267b80150105c74d67b67b0013308208267b80150105e64d64826000520492638054926300549262805492620059568c00497882098882014090000000018000000d498029568e00497882098882095692005979920d4890a8268b00197882098882014090000000024000000d4980b97772098772095680005978820d4780c3308ff3309ff64270a015207490c0a0801551720d50d0a087b67b0014926180249261002492608027b670002826790017b673002826780017b672802826788017b6720029567200295680002826998017b693802501060061c8268b00156181fc80d28591a3307403308205010628dd57c78117c79107c7a127c7b13978808d4980897aa1097bb18d4ba0ad4a8087c79157c7a147c7b167c7c17979908d4a90997bb1097cc18d4cb0bd4b909979920d489027c79017c7a7c7b027c7c03979908d4a90997bb1097cc18d4cb0bd4b9097c7a057c7b047c7c067c780797aa08d4ba0a97cc10978818d4c808d4a808978820d498037c78197c7a187c7b1a7c7c1b978808d4a80897bb1097cc18d4cb0bd4b8087c7a1d7c7b1c7c7c1e7c791f97aa08d4ba0a97cc10979918d4c909d4a909979920d4890a7c78097c79087c7b0a7c7c0b978808d4980897bb1097cc18d4cb0bd4b8087c790d7c7b0c7c7c0e7c770f979908d4b90997cc10977718d4c707d49707977720d487076f777b67b8016fa77b67a0016f377b67b0016f277b67a8010a0801826aa0018268b0018269a801d49808826bb801d4ba09d48909989920d4b808978820d498085208fbf964799877205207f2f983a783987b68b8017b67a8017b69b00150106424d48268b0017a68800483778368800433090a0781678004018268b801ac87bef90a08019878205208b4f983787b68b8018267a801501066ecd383783307018269b8010a0901330740330820501068d5d37c78117c79107c7a127c7b13978808d4980897aa1097bb18d4ba0ad4a8087c79157c7a147c7b167c7c17979908d4a90997bb1097cc18d4cb0bd4b909979920d489027c79017c7a7c7b027c7c03979908d4a90997bb1097cc18d4cb0bd4b9097c7a057c7b047c7c067c780797aa08d4ba0a97cc10978818d4c808d4a808978820d498037c78197c7a187c7b1a7c7c1b978808d4a80897bb1097cc18d4cb0bd4b8087c7a1d7c7b1c7c7c1e7c791f97aa08d4ba0a97cc10979918d4c909d4a909979920d4890a7c78097c79087c7b0a7c7c0b978808d4980897bb1097cc18d4cb0bd4b8087c790d7c7b0c7c7c0e7c770f979908d4b90997cc10977718d4c707d49707977720d487076f7b6fa96f3c6f2ad4ca07d4b908d47808988820d4b707977720d48707520766f883973308207b6798017b69b8017b6ab0017b6ba8017b6ca00150106a8fd246171f46171e46171d46171c46171b46171a46171946171846171746171646171546171446171346171246171146171046170f46170e46170d46170c46170b46170a461709461708461707461706461705461703a00046170279461701c3004607088268a801826aa001d48a0a140b00000000010000001408fcffffff000000008269b801d889088269b001949894a84617045108b1f7826798018377043308207b6aa8017b6ba00150106ce1d1826ba801826ab0018269b80146171f2046171e46171d46171c46171b46171a46171946171846171746171646171546171446171346171246171146171046170f46170e46170d46170c46170b46170a4617094617084617074617064617054617044617034617024617018268a0019588dcd8890894a894b8460751081cf78267980183772433082050106e54d146171f0e46171e46171d46171c46171b46171a46171946171846171746171646171546171446171346171246171146171046170f46170e46170d46170c46170b46170a4617094617084617074617064617054617044617034617024617011408bcffffff000000008269b801d889088269b00194988269a8019498460751088cf682679801837744330820501070c4d046171f46171e46171d46171c46171b46171a46171946171846171746171646171546171446171346171246171146171046170f46170e46170d6446170c6546170b7a46170a69461709724617086f4617076846170674461705754617046146170320461702744617016f46074e330864826798015010724bd083783307013309640a09013307330b4926b80120014926b001959880007b68a801d89808c887097b69a001d87907da88077b67980188777b67900133074033082050107405d0826890016f88826998016f99826aa0016faa826ba8016fbb787b1898bc38787c1f98bc30787c1e98bc28787c1d98bc20787c1c98bc18787c1b98bc10787c1a98bb08787b19787a1098ab38787b1798ab30787b1698ab28787b1598ab20787b1498ab18787b1398ab10787b1298aa08787a11787908989a38787a0f989a30787a0e989a28787a0d989a20787a0c989a18787a0b989a10787a0a9899087879097878988938787907988930787906988928787905988920787904988918787903988910787902988808826cb0018ec9826ab80188aa2085aa01dbc90a8ec98ecbdac90bd4cc09da9a0b787801520b0628d5133307800033082050107608cf7c78097c79087c7a0a7c7b0b978808d4980897aa1097bb18d4ba0ad4a8087c790d7c7a0c7c7b0e7c7c0f979908d4a90997bb1097cc18d4cb0bd4b909979920d489027c78017c797c7a027c7b03978808d4980897aa1097bb18d4ba0ad4a8087c79057c7a047c7b067c7c07979908d4a90997bb1097cc18d4cb0bd4b909979920d498087b68b0016f887b62b8016f29140a0000000001000000d39a0ad48a0a989920889901948993a9520906281a137c78187b6850017c78197b6830017c781a7b6840017c781b7b6838017c781c7b6868017c781d7b6848017c781e7b6860017c781f7b6858017c78107b6890017c78117b6870017c78127b6880017c78137b6878017c78147b68a8017c78157b6888017c78167b68a0017c77177b679801330740330820501078decd7c78117c79107c7a127c7b13978808d4980897aa1097bb18d4ba0ad4a8087c79157c7a147c7b167c7c17979908d4a90997bb1097cc18d4cb0bd4b909979920d489027c79017c7a7c7b027c7c03979908d4a90997bb1097cc18d4cb0bd4b9097c7a057c7b047c7c067c780797aa08d4ba0a97cc10978818d4c808d4a808978820d498037c78197c7a187c7b1a7c7c1b978808d4a80897bb1097cc18d4cb0bd4b8087c7a1d7c7b1c7c7c1e7c791f97aa08d4ba0a97cc10979918d4c909d4a909979920d4890a7c78097c79087c7b0a7c7c0b978808d4980897bb1097cc18d4cb0bd4b8087c790d7c7b0c7c7c0e7c770f979908d4b90997cc10977718d4c707d49707977720d487076f786fa76f396f2ad4a909d4870ad49a0a98aa20d49808978820d4a80852086ff28268300197880882695001d4980882694001979910826a380197aa18d4a909d4980882694801979908826a6801d4a909826a600197aa10826b580197bb18d4ba0ad4a909979920d498087b6868018268700197880882699001d4980882698001979910826a780197aa18d4a909d4980882698801979908826aa801d4a909826aa00197aa10826b980197bb18d4ba0ad4a909979920d498087b68a00183777b67a80133082050107a0ccc826aa001787a108269b80198983878780f98983078780e98982878780d98982078780c98981878780b98981078780a9898087878097879088269b00198983878780798983078780698982878780598982078780498981878780398981078780298980878780178798269680178791898a83878781798a83078781698a82878781598a82078781498a81878781398a81078781298a80878781198983878781f98983078781e98982878781d98982078781c98981878781b98981078781a9898087878193308208267a80133009c002839cb33074033082050107c30cb7c78117c79107c7a127c7b13978808d4980897aa1097bb18d4ba0ad4a8087c79157c7a147c7b167c7c17979908d4a90997bb1097cc18d4cb0bd4b909979920d489027c79017c7a7c7b027c7c03979908d4a90997bb1097cc18d4cb0bd4b9097c7a057c7b047c7c067c780797aa08d4ba0a97cc10978818d4c808d4a808978820d498037c78197c7a187c7b1a7c7c1b978808d4a80897bb1097cc18d4cb0bd4b8087c7a1d7c7b1c7c7c1e7c791f97aa08d4ba0a97cc10979918d4c909d4a909979920d4890a7c78097c79087c7b0a7c7c0b978808d4980897bb1097cc18d4cb0bd4b8087c790d7c7b0c7c7c0e7c770f979908d4b90997cc10977718d4c707d49707977720d487076f777b67b8016fa77b67a0016f377b67b0016f277b67a8010a0801826aa0018268b0018269a801d49808826bb801d4ba09d48909989920d4b808978820d49808510806289bef64799877205107062890ef83a783987b68b8017b67a8017b69b00150107ec3c98268b0017a68e00583778368e00533090a078167e00528a0f5330740330820502080009fc97c78117c79107c7a127c7b13978808d4980897aa1097bb18d4ba0ad4a8087c79157c7a147c7b167c7c17979908d4a90997bb1097cc18d4cb0bd4b909979920d489027c79017c7a7c7b027c7c03979908d4a90997bb1097cc18d4cb0bd4b9097c7a057c7b047c7c067c780797aa08d4ba0a97cc10978818d4c808d4a808978820d498037c78197c7a187c7b1a7c7c1b978808d4a80897bb1097cc18d4cb0bd4b8087c7a1d7c7b1c7c7c1e7c791f97aa08d4ba0a97cc10979918d4c909d4a909979920d4890a7c78097c79087c7b0a7c7c0b978808d4980897bb1097cc18d4cb0bd4b8087c790d7c7b0c7c7c0e7c770f979908d4b90997cc10977718d4c707d49707977720d487076f777b67b8016fa77b67a0016f377b67b0016f277b67a8010a0801826aa0018268b0018269a801d49808826bb801d4ba09d48909989920d4b808978820d498085108062809ee647998772051070628feed83a783987b68b8017b67a8017b69b0015020820031c88268b0017a68400583778368400533090a0781674005280df44926580249265002492648024926400220826788017b676002826780017b676802826790017b6770029567600295684002826998017b697802502084003b0e3308208267b80150208600ccc77c78187b68e0007c78197b68c0007c781a7b68d0007c781b7b68c8007c781c7b68f8007c781d7b68d8007c781e7b68f0007c781f7b68e8007c78107b6820017c78117b6800017c78127b6810017c78137b6808017c78147b6838017c78157b6818017c78167b6830017c78177b6828017c78087b6860017c78097b6840017c780a7b6850017c780b7b6848017c780c7b6878017c780d7b6858017c780e7b6870017c780f7b6868017c787b68a0017c78017b6880017c78027b6890017c78037b6888017c78047b68b8017c78057b6898017c78067b68b0017c77077b67a80133074033082050208800e1c67c78117c79107c7a127c7b13978808d4980897aa1097bb18d4ba0ad4a8087c79157c7a147c7b167c7c17979908d4a90997bb1097cc18d4cb0bd4b909979920d489027c79017c7a7c7b027c7c03979908d4a90997bb1097cc18d4cb0bd4b9097c7a057c7b047c7c067c780797aa08d4ba0a97cc10978818d4c808d4a808978820d498037c78197c7a187c7b1a7c7c1b978808d4a80897bb1097cc18d4cb0bd4b8087c7a1d7c7b1c7c7c1e7c791f97aa08d4ba0a97cc10979918d4c909d4a909979920d4890a7c78097c79087c7b0a7c7c0b978808d4980897bb1097cc18d4cb0bd4b8087c790d7c7b0c7c7c0e7c770f979908d4b90997cc10977718d4c707d49707977720d487076f786fa76f396f2ad4a909d4870ad49a0a98aa20d49808978820d4a808510806286eeb8268c0009788088269e000d498088269d000979910826ac80097aa18d4a909d498088269d800979908826af800d4a909826af00097aa10826be80097bb18d4ba0ad4a909979920d498087b68f8008268000197880882692001d4980882691001979910826a080197aa18d4a909d4980882691801979908826a3801d4a909826a300197aa10826b280197bb18d4ba0ad4a909979920d498087b6838018268400197880882696001d4980882695001979910826a480197aa18d4a909d4980882695801979908826a7801d4a909826a700197aa10826b680197bb18d4ba0ad4a909979920d498087b687801826880019788088269a001d4980882699001979910826a880197aa18d4a909d4980882699801979908826ab801d4a909826ab00197aa10826ba80197bb18d4ba0ad4a909979920d498087b68b00183777b67b80133082050208a0070c4826a3801787a108269780198983878780f98983078780e98982878780d98982078780c98981878780b98981078780a9898087878097879088269b00198983878780798983078780698982878780598982078780498981878780398981078780298980878780178798269f80078791898a83878781798a83078781698a82878781598a82078781498a81878781398a81078781298a80878781198983878781f98983078781e98982878781d98982078781c98981878781b98981078781a9898087878193308208267b80133009c00289cc333074033082050208c0093c37c78117c79107c7a127c7b13978808d4980897aa1097bb18d4ba0ad4a8087c79157c7a147c7b167c7c17979908d4a90997bb1097cc18d4cb0bd4b909979920d489027c79017c7a7c7b027c7c03979908d4a90997bb1097cc18d4cb0bd4b9097c7a057c7b047c7c067c780797aa08d4ba0a97cc10978818d4c808d4a808978820d498037c78197c7a187c7b1a7c7c1b978808d4a80897bb1097cc18d4cb0bd4b8087c7a1d7c7b1c7c7c1e7c791f97aa08d4ba0a97cc10979918d4c909d4a909979920d4890a7c78097c79087c7b0a7c7c0b978808d4980897bb1097cc18d4cb0bd4b8087c790d7c7b0c7c7c0e7c770f979908d4b90997cc10977718d4c707d49707977720d487076f777b67b8016fa77b67a0016f377b67b0016f277b67a8010a0801826aa0018268b0018269a801d49808826bb801d4ba09d48909989920d4b808978820d4980851080628fde7647998772051070628f2e783a783987b68b8017b67a8017b69b00150208e0025c28268b0017a68e00683778368e00633090a078167e0062801ee49269803492690034926880349268003208267b8017b67a0038267b0017b67a803826760017b67b0039567a00395688003826968017b69b803502090002f083308208267a8013300860028bcc16f076fbb6482826898016f886f4c7b6c980133030164c9da830964a0e43c0adb890a8eb464bc7b6b70017b6778018e7bda740b82699801dab309d47c0cdaca097b699801648793b7dac8077b67680114040000000001000000826bb00164b88267a801da7408e44b09db78097b60b8018e088e2ada280adaa40bd4200cdac90b647893a8dac708826a50c9ab099597df7b679001d89709d8ab0a826c20c9c80bc9ab0bc89b039533ff7b636001d3b302d8b307da29077b678801d3c809d8c807da9a077b6780011407e0ffffff00000000826430d84703826c408ec8dac308826a389aa9c98902d889088ea9826a48c8a9099a9ac98a008e288e0bda080b9accc93c0cc947097b678000d897088ec7dac807d40208db8b07826bb80164b8826aa00193a8daab08826a58c9a80b7b6b4001826a8001c9ab0b7b6b480195bbff7b6b5801826a8801c8ba0a7b6a500197a43b82636001983b05d44b0a7b6a880197333b826a900198aa05d43a0a7b6a9001947995941fd89409947cc89c0bd8cb0cda990c9472c82c0c97c93b98ba05d49a0a7b6a600197bb3b984905d4b90382698801d3a904d8a90b82699001d83909db4b09826a8001826b4001d8ab04826a58d8a808826a18826ba001c9ab0bc98b0bc94b0b82684801888801c98b0b826a500182685801d88a08c88b0b98a80597ba3bd4a8049470d82c07c8700098cc0597073bd47c0c98b205980005d8c408d30207d8020ada780ad3c408d48707da790a82699001daa3097b699001826b880182676001daa70b7b6b8801daac04daa00282689801888701826a6801c97a039587ff7b678001d3b300d8b308d8970cdb080c826970016497826b780193b7dab90782689801d4a808888801c98709d88707c97b08d3280bd8280ad84907dbba07d3490ad4ba0adba70cdbc802dbc904826a8801dbc30a8268900182678001dbc7088260a80198873b648997a80564acd48707979905826b20c8b707826850c89803d88308c8870ad3ba07d8ba09da780998c73b974805d4870798483b972205d48208826440826b18c8b808826b58c8b707d8b70cc8c802826c30c89708d87807c872029537607b6778d83707826bb001c87a097b6970d8a909da7709c889097b6968d88908c828087b6860826738017b60a8017b6bb0017b6738826848d4870782688000d88c087b6440944894785208062813e495c7207b67980183773308207b6c305020920047be826ab001826bb801d4ba088269a001826ca801d4c909d498089888207b6bb801d4b909979920d4980851080628cfe382689801826930d89809826840c8980b7b6b9001d88b08da99087c797b6988017c79017b6980017c79027b6978017c79037b6970017c79047b6968017c79057b6960017c79067b6958017c79077b6948017c79087b6940017c79097b6938017c790a7b6930017c790b7b6928017c790c7b6920017c790d7b6918017c790e7b6910017c790f7b6908017c79107b6900017c79117b69f8007c79127b69f0007c79137b69e8007c79147b69e0007c79157b69d8007c79167b69d0007c79177b69c8007c79187b69c0007c79197b69b8007c791a7b69b0007c791b7b69a8007c791c7b69a0007c791d7b6998007c791e7b6990007c771f7b678800826738c878087b685001d87807826848c878087b684883a733082050209400febc8268880078781f8268900078781e8268980078781d8268a00078781c8268a80078781b8268b00078781a8268b8007878198268c0007878188268c8007878178268d0007878168268d8007878158268e0007878148268e8007878138268f0007878128268f800787811826800017878108268080178780f8268100178780e8268180178780d8268200178780c8268280178780b8268300178780a8268380178780982684001787808826848017878078268580178780682686001787805826868017878048268700178780382687801787802826880017878018268b001958320d8830a8268a801c8a809d8890bdaaa0b8268b801c8b80ad88a0b8268a001c8b808826b68d3ab0b826c78d3c30cd4bc027b68a001826b60d3b80c826b70d39b0bd4cb0bd4b202826888017878826c98018264900182675001643b64907b6ab80152023dfd826450d84300826b20d3b902d8b90cda200c826258c92a08d82a077b67b801826a188267a001c9a702d8c80a8267b801c87a0ac9a20ac9c80cc9b909c90909c94307d4a909d4c708d49808d4c909988820979920d498085108062814e183787b68b801826710502096004ebb837833078269b8010a0901330733085020980039bb837833070133090a09018268a8019788209888207b68a00183777b67a80133082050209a0012bb8268a0016f888269b0016f99826ab8016faa98ab38787b1f98ab30787b1e98ab28787b1d98ab20787b1c98ab18787b1b98ab10787b1a98ab08787b19787a1878791046170b46170a4617094617074617064617054617044617034617024617014607989a38787a17989a30787a16989a28787a15989a20787a14989a18787a13989a10787a1298990878791178780898893878790f98893078790e98892878790d98882078780c3308208267a80150209c005eba837833092033070a093307330098002849ba3307330098002840ba4926f0014926e8014926e001140700000000717b484e9568e0017b67f801330750209e005dba4926d8014926d0014926c001413307049568c0014926c8015020a0003fba33082433075020a200f4b983783307013309240a09014926b0024926a8024926a002140700000000717b484e9568a0027b67b80233075020a40003ba4926980249269002492680024133070495688002492688023300a00028e1b99511807b10787b15707b1668951580008411f0828b827308828c08827095b61fd8b604c84c098466e07b1018c86000d8600bc8390ac8ba02d3920ad89206daab06827b18d8c909828a10827710828818da4409c8a909d8a90ac8790cc86c04d89c09d8c406c8b808c8a808c89808c886068e688e49db6809d464088e2adb890a520a1701821818d88008d33209d8320ada980ad87408d3b609d8b60bda980bd37407d49707da7a0b520bef003307403308207b10187b12107b14085020a600e3b86f688219086f99821a106faa821b186fbb787b1898bc38787c1f98bc30787c1e98bc28787c1d98bc20787c1c98bc18787c1b98bc10787c1a98bb08787b19787a1098ab38787b1798ab30787b1698ab28787b1598ab20787b1498ab18787b1398ab10787b1298aa08787a11787908989a38787a0f989a30787a0e989a28787a0d989a20787a0c989a18787a0b989a10787a0a9899087879097878988938787907988930787906988928787905988920787904988918787903988910787902988808787801955180821078821570821668951180003200491150491148491140140700000000717b484e9518407b175833075020a8002cb8491138491130491120413307049518204911285020aa0013b833082433075020ac00c8b783783307013309240a0933073300ae0028e5b833075020ae00e0b83307015020b000d7b80049489220248414d249525252a22a2529499224499224499224499224499224499224499224494a4a432244444492244d922411922491a424945292244992244992a4244992244992440a55432424499224499224499292244992244992a4024892a422499224499224499224499224499224494a11111111119154449224222222111149a524a5242949222244444444529148448488442222a924244992244992244992922449922449922449922449922449922449922449922449aa9224495628b50a554342ad50a511119192109224499224499224491292222489448d808040922849359294248922914604904412954444444488880811918a888888464429494922914492444444448488484544442421499224499224499294244992244992244992244992244992244992244992244952952449921211112149922449922449922449849088041040242a492411218aa228499224499224499224499224499224495292244992249146225194444444444412a2288a92244992244992244992244992244992244992244992549428899224222222122112218410422401249248220920492449278d141111111111111121420209248992542349499228121191244a528d242549a248a41101249144251111111111112122521111114948922449922449922425499224499224499224499224499224499224499224499254254992a4444444888888480091a82449922449922449922449220951144549922449922449922449922449922449929224499224294a9444491211111189105188888848024824914412409248924e5a92222244143522898888888888888810914448922449922449922425499224499224499224499224499224552425499224499224499214492449224924224992482289249224492449224992249224491211514292244992244992242949922449922449922449922449922489a228294992244992244992244a12492249249290922449922449922449922449922449922449922449922449922449922449922429a5944822492491888888888890244992244a42249148249224912492249144229148924492489224922449922489244992244922499224499248922449922429499244440049494c92241111252222444424a9488a4452241289442291482412894422914824128944229148241289442291249228219248922449249124499224914824128944229148241289442291482412894422914824128944454424214992244992244992244992244992244992244992244992244949922449922449529524492291449248a224494224499224499224499224495212221291244924499224499224491249922449922449924492244992244992249192244992244992244a884824499224499222499224499292244992244992244992244924892449922492882451926a2429491245222222224244a42222222221499224499224499224492222912222222222218aa22849922449922449922449922449922449922449922449458992444922222222122212424444240124924822092049244947134d494a8a04924449aa91a4244914898830222244442a222222094992244992244992a4244992244992244992244992244992244992244992244992aa2449920c2489925423494992281211111111222215111191842449922449922449529224499224499224499224499224499224499224499224495592248912111121499224499224499224494208116944028844454444444424218aa228499224499224499224499224499224499224499224494589922849222222221122114244442401249248220920492449474311111111111111112224094992244992244992a4244992244992244992244992244992244992244992244992a2288a464422499228511111228a8a114d14114a34094992244992244992a4244992244992244992244992244992244992244992244992aa2449122522224292244992244992244992102111092080485422928810119124499224499224499224492455441222499224499224499224499200225154441292244992244992888888888888482294b4c2884822892209511445499224499224499224499224499224499292244992245124a9244922214992244992244992942449922449922451144092549248241289442291482412894422918424499224499224495292244992244992244992244992244992244992244992244955922489482412492291482449221289449248241249922812229124499224492249922449922249922449922449922449928824214992244992244992942449922449922449922449922449922449922449922449521445d1884824499294a422224414154982244992244992244952922449922449922449922449922449922449922449922449511445232291244952928a8820a2a84844848888888888201124128944229148241289442291482412894422914814894422914824922049922449922449929424499224499224499224499224499224499224499224495295244992482412492291482449221289449248241249928844229124128944922422914824894422912489224124922449922449244992244952244992244992244992244912912448922449922449922425499224499224499224499224499224499224499224499214455134221249922425a98808228a8a444488888888880812912a2a524a2aa24492a844005124894a924a924892249124924400494a4a4a4aa5245292284a1291484422914422899292942491249248229224924412912429499224499248442492482491245194489224499224129148294992244992244992244992449224493222492495244a82884424892449244924452291482412894422914824128944229148241289442291482412892492a404914824128944229148241289442291482412894422914824128944228924914492249124491411159124499248249124499224498a0415ada0d448a2481045519224499224499224495292244992244992244904a58a14898800220a2242228214943422028828880889882449a4a424499224499224499224a9a4449224499244922428a59424499224499224499224499224499224294992244992248992049014249124484149450a120400"
				},
				"methodIdentifiers": {
					"cardNFT()": "38d5d7d1",
					"gameMaster()": "bdf84ae7",
					"getCardOwner(uint256)": "010abbd0",
					"getCardType(uint256)": "48dccd56",
					"getUserCards(address)": "88d9f40d",
					"giveCard(address,uint256)": "99326333"
				}
			},
			"hash": "ff6186414b7b9efad5834bcec5f7db41b8b23f9d2f1fe21ae90e2481666239da",
			"factoryDependencies": {}
		}
	}
}